{
  "_format": "hh-sol-artifact-1",
  "contractName": "SocialGraph",
  "sourceName": "contracts/SocialGraph.sol",
  "abi": [
    {
      "inputs": [],
      "name": "AccessControlBadConfirmation",
      "type": "error"
    },
    {
      "inputs": [
        {
          "internalType": "address",
          "name": "account",
          "type": "address"
        },
        {
          "internalType": "bytes32",
          "name": "neededRole",
          "type": "bytes32"
        }
      ],
      "name": "AccessControlUnauthorizedAccount",
      "type": "error"
    },
    {
      "inputs": [
        {
          "internalType": "address",
          "name": "target",
          "type": "address"
        }
      ],
      "name": "AddressEmptyCode",
      "type": "error"
    },
    {
      "inputs": [],
      "name": "AlreadyFollowing",
      "type": "error"
    },
    {
      "inputs": [],
      "name": "AlreadyLiked",
      "type": "error"
    },
    {
      "inputs": [],
      "name": "AlreadyReported",
      "type": "error"
    },
    {
      "inputs": [],
      "name": "AlreadyShared",
      "type": "error"
    },
    {
      "inputs": [],
      "name": "CannotFollowSelf",
      "type": "error"
    },
    {
      "inputs": [],
      "name": "ContentTooLong",
      "type": "error"
    },
    {
      "inputs": [],
      "name": "DailyFollowLimitReached",
      "type": "error"
    },
    {
      "inputs": [],
      "name": "DailyPostLimitReached",
      "type": "error"
    },
    {
      "inputs": [
        {
          "internalType": "address",
          "name": "implementation",
          "type": "address"
        }
      ],
      "name": "ERC1967InvalidImplementation",
      "type": "error"
    },
    {
      "inputs": [],
      "name": "ERC1967NonPayable",
      "type": "error"
    },
    {
      "inputs": [],
      "name": "EmptyContent",
      "type": "error"
    },
    {
      "inputs": [],
      "name": "EnforcedPause",
      "type": "error"
    },
    {
      "inputs": [],
      "name": "ExpectedPause",
      "type": "error"
    },
    {
      "inputs": [],
      "name": "FailedCall",
      "type": "error"
    },
    {
      "inputs": [],
      "name": "FollowCooldownActive",
      "type": "error"
    },
    {
      "inputs": [],
      "name": "FollowDurationTooShort",
      "type": "error"
    },
    {
      "inputs": [],
      "name": "InvalidInitialization",
      "type": "error"
    },
    {
      "inputs": [],
      "name": "NotFollowing",
      "type": "error"
    },
    {
      "inputs": [],
      "name": "NotInitializing",
      "type": "error"
    },
    {
      "inputs": [],
      "name": "NotLiked",
      "type": "error"
    },
    {
      "inputs": [],
      "name": "PostCooldownActive",
      "type": "error"
    },
    {
      "inputs": [],
      "name": "PostInactive",
      "type": "error"
    },
    {
      "inputs": [],
      "name": "PostNotFound",
      "type": "error"
    },
    {
      "inputs": [],
      "name": "ReentrancyGuardReentrantCall",
      "type": "error"
    },
    {
      "inputs": [],
      "name": "UUPSUnauthorizedCallContext",
      "type": "error"
    },
    {
      "inputs": [
        {
          "internalType": "bytes32",
          "name": "slot",
          "type": "bytes32"
        }
      ],
      "name": "UUPSUnsupportedProxiableUUID",
      "type": "error"
    },
    {
      "inputs": [],
      "name": "UnauthorizedAction",
      "type": "error"
    },
    {
      "anonymous": false,
      "inputs": [
        {
          "indexed": false,
          "internalType": "uint64",
          "name": "version",
          "type": "uint64"
        }
      ],
      "name": "Initialized",
      "type": "event"
    },
    {
      "anonymous": false,
      "inputs": [
        {
          "indexed": false,
          "internalType": "address",
          "name": "account",
          "type": "address"
        }
      ],
      "name": "Paused",
      "type": "event"
    },
    {
      "anonymous": false,
      "inputs": [
        {
          "indexed": true,
          "internalType": "uint256",
          "name": "postId",
          "type": "uint256"
        },
        {
          "indexed": true,
          "internalType": "address",
          "name": "author",
          "type": "address"
        },
        {
          "indexed": false,
          "internalType": "string",
          "name": "content",
          "type": "string"
        }
      ],
      "name": "PostCreated",
      "type": "event"
    },
    {
      "anonymous": false,
      "inputs": [
        {
          "indexed": true,
          "internalType": "uint256",
          "name": "postId",
          "type": "uint256"
        },
        {
          "indexed": true,
          "internalType": "address",
          "name": "liker",
          "type": "address"
        }
      ],
      "name": "PostLiked",
      "type": "event"
    },
    {
      "anonymous": false,
      "inputs": [
        {
          "indexed": true,
          "internalType": "uint256",
          "name": "postId",
          "type": "uint256"
        },
        {
          "indexed": false,
          "internalType": "string",
          "name": "reason",
          "type": "string"
        }
      ],
      "name": "PostRemoved",
      "type": "event"
    },
    {
      "anonymous": false,
      "inputs": [
        {
          "indexed": true,
          "internalType": "uint256",
          "name": "postId",
          "type": "uint256"
        },
        {
          "indexed": true,
          "internalType": "address",
          "name": "reporter",
          "type": "address"
        }
      ],
      "name": "PostReported",
      "type": "event"
    },
    {
      "anonymous": false,
      "inputs": [
        {
          "indexed": true,
          "internalType": "uint256",
          "name": "postId",
          "type": "uint256"
        },
        {
          "indexed": true,
          "internalType": "address",
          "name": "sharer",
          "type": "address"
        }
      ],
      "name": "PostShared",
      "type": "event"
    },
    {
      "anonymous": false,
      "inputs": [
        {
          "indexed": true,
          "internalType": "uint256",
          "name": "postId",
          "type": "uint256"
        },
        {
          "indexed": true,
          "internalType": "address",
          "name": "unliker",
          "type": "address"
        }
      ],
      "name": "PostUnliked",
      "type": "event"
    },
    {
      "anonymous": false,
      "inputs": [
        {
          "indexed": true,
          "internalType": "bytes32",
          "name": "role",
          "type": "bytes32"
        },
        {
          "indexed": true,
          "internalType": "bytes32",
          "name": "previousAdminRole",
          "type": "bytes32"
        },
        {
          "indexed": true,
          "internalType": "bytes32",
          "name": "newAdminRole",
          "type": "bytes32"
        }
      ],
      "name": "RoleAdminChanged",
      "type": "event"
    },
    {
      "anonymous": false,
      "inputs": [
        {
          "indexed": true,
          "internalType": "bytes32",
          "name": "role",
          "type": "bytes32"
        },
        {
          "indexed": true,
          "internalType": "address",
          "name": "account",
          "type": "address"
        },
        {
          "indexed": true,
          "internalType": "address",
          "name": "sender",
          "type": "address"
        }
      ],
      "name": "RoleGranted",
      "type": "event"
    },
    {
      "anonymous": false,
      "inputs": [
        {
          "indexed": true,
          "internalType": "bytes32",
          "name": "role",
          "type": "bytes32"
        },
        {
          "indexed": true,
          "internalType": "address",
          "name": "account",
          "type": "address"
        },
        {
          "indexed": true,
          "internalType": "address",
          "name": "sender",
          "type": "address"
        }
      ],
      "name": "RoleRevoked",
      "type": "event"
    },
    {
      "anonymous": false,
      "inputs": [
        {
          "indexed": true,
          "internalType": "address",
          "name": "user",
          "type": "address"
        },
        {
          "indexed": false,
          "internalType": "uint256",
          "name": "newScore",
          "type": "uint256"
        }
      ],
      "name": "SocialScoreUpdated",
      "type": "event"
    },
    {
      "anonymous": false,
      "inputs": [
        {
          "indexed": false,
          "internalType": "address",
          "name": "account",
          "type": "address"
        }
      ],
      "name": "Unpaused",
      "type": "event"
    },
    {
      "anonymous": false,
      "inputs": [
        {
          "indexed": true,
          "internalType": "address",
          "name": "implementation",
          "type": "address"
        }
      ],
      "name": "Upgraded",
      "type": "event"
    },
    {
      "anonymous": false,
      "inputs": [
        {
          "indexed": true,
          "internalType": "address",
          "name": "follower",
          "type": "address"
        },
        {
          "indexed": true,
          "internalType": "address",
          "name": "followed",
          "type": "address"
        }
      ],
      "name": "UserFollowed",
      "type": "event"
    },
    {
      "anonymous": false,
      "inputs": [
        {
          "indexed": true,
          "internalType": "address",
          "name": "follower",
          "type": "address"
        },
        {
          "indexed": true,
          "internalType": "address",
          "name": "unfollowed",
          "type": "address"
        }
      ],
      "name": "UserUnfollowed",
      "type": "event"
    },
    {
      "inputs": [],
      "name": "ADMIN_ROLE",
      "outputs": [
        {
          "internalType": "bytes32",
          "name": "",
          "type": "bytes32"
        }
      ],
      "stateMutability": "view",
      "type": "function"
    },
    {
      "inputs": [],
      "name": "DEFAULT_ADMIN_ROLE",
      "outputs": [
        {
          "internalType": "bytes32",
          "name": "",
          "type": "bytes32"
        }
      ],
      "stateMutability": "view",
      "type": "function"
    },
    {
      "inputs": [],
      "name": "FOLLOW_COOLDOWN",
      "outputs": [
        {
          "internalType": "uint256",
          "name": "",
          "type": "uint256"
        }
      ],
      "stateMutability": "view",
      "type": "function"
    },
    {
      "inputs": [],
      "name": "MAX_CONTENT_LENGTH",
      "outputs": [
        {
          "internalType": "uint256",
          "name": "",
          "type": "uint256"
        }
      ],
      "stateMutability": "view",
      "type": "function"
    },
    {
      "inputs": [],
      "name": "MAX_FOLLOWS_PER_DAY",
      "outputs": [
        {
          "internalType": "uint256",
          "name": "",
          "type": "uint256"
        }
      ],
      "stateMutability": "view",
      "type": "function"
    },
    {
      "inputs": [],
      "name": "MAX_POSTS_PER_DAY",
      "outputs": [
        {
          "internalType": "uint256",
          "name": "",
          "type": "uint256"
        }
      ],
      "stateMutability": "view",
      "type": "function"
    },
    {
      "inputs": [],
      "name": "MIN_FOLLOW_DURATION",
      "outputs": [
        {
          "internalType": "uint256",
          "name": "",
          "type": "uint256"
        }
      ],
      "stateMutability": "view",
      "type": "function"
    },
    {
      "inputs": [],
      "name": "MODERATOR_ROLE",
      "outputs": [
        {
          "internalType": "bytes32",
          "name": "",
          "type": "bytes32"
        }
      ],
      "stateMutability": "view",
      "type": "function"
    },
    {
      "inputs": [],
      "name": "POST_COOLDOWN",
      "outputs": [
        {
          "internalType": "uint256",
          "name": "",
          "type": "uint256"
        }
      ],
      "stateMutability": "view",
      "type": "function"
    },
    {
      "inputs": [],
      "name": "REPORTS_FOR_REMOVAL",
      "outputs": [
        {
          "internalType": "uint256",
          "name": "",
          "type": "uint256"
        }
      ],
      "stateMutability": "view",
      "type": "function"
    },
    {
      "inputs": [],
      "name": "UPGRADER_ROLE",
      "outputs": [
        {
          "internalType": "bytes32",
          "name": "",
          "type": "bytes32"
        }
      ],
      "stateMutability": "view",
      "type": "function"
    },
    {
      "inputs": [],
      "name": "UPGRADE_INTERFACE_VERSION",
      "outputs": [
        {
          "internalType": "string",
          "name": "",
          "type": "string"
        }
      ],
      "stateMutability": "view",
      "type": "function"
    },
    {
      "inputs": [],
      "name": "XP_REWARD_FOLLOW",
      "outputs": [
        {
          "internalType": "uint256",
          "name": "",
          "type": "uint256"
        }
      ],
      "stateMutability": "view",
      "type": "function"
    },
    {
      "inputs": [],
      "name": "XP_REWARD_LIKE",
      "outputs": [
        {
          "internalType": "uint256",
          "name": "",
          "type": "uint256"
        }
      ],
      "stateMutability": "view",
      "type": "function"
    },
    {
      "inputs": [],
      "name": "XP_REWARD_POST",
      "outputs": [
        {
          "internalType": "uint256",
          "name": "",
          "type": "uint256"
        }
      ],
      "stateMutability": "view",
      "type": "function"
    },
    {
      "inputs": [],
      "name": "XP_REWARD_SHARE",
      "outputs": [
        {
          "internalType": "uint256",
          "name": "",
          "type": "uint256"
        }
      ],
      "stateMutability": "view",
      "type": "function"
    },
    {
      "inputs": [
        {
          "internalType": "string",
          "name": "content",
          "type": "string"
        }
      ],
      "name": "createPost",
      "outputs": [],
      "stateMutability": "nonpayable",
      "type": "function"
    },
    {
      "inputs": [
        {
          "internalType": "address",
          "name": "",
          "type": "address"
        },
        {
          "internalType": "uint256",
          "name": "",
          "type": "uint256"
        }
      ],
      "name": "dailyFollowCount",
      "outputs": [
        {
          "internalType": "uint256",
          "name": "",
          "type": "uint256"
        }
      ],
      "stateMutability": "view",
      "type": "function"
    },
    {
      "inputs": [
        {
          "internalType": "address",
          "name": "",
          "type": "address"
        },
        {
          "internalType": "uint256",
          "name": "",
          "type": "uint256"
        }
      ],
      "name": "dailyPostCount",
      "outputs": [
        {
          "internalType": "uint256",
          "name": "",
          "type": "uint256"
        }
      ],
      "stateMutability": "view",
      "type": "function"
    },
    {
      "inputs": [
        {
          "internalType": "address",
          "name": "",
          "type": "address"
        },
        {
          "internalType": "address",
          "name": "",
          "type": "address"
        }
      ],
      "name": "followTimestamp",
      "outputs": [
        {
          "internalType": "uint256",
          "name": "",
          "type": "uint256"
        }
      ],
      "stateMutability": "view",
      "type": "function"
    },
    {
      "inputs": [
        {
          "internalType": "address",
          "name": "userToFollow",
          "type": "address"
        }
      ],
      "name": "followUser",
      "outputs": [],
      "stateMutability": "nonpayable",
      "type": "function"
    },
    {
      "inputs": [
        {
          "internalType": "address",
          "name": "",
          "type": "address"
        },
        {
          "internalType": "uint256",
          "name": "",
          "type": "uint256"
        }
      ],
      "name": "followers",
      "outputs": [
        {
          "internalType": "address",
          "name": "",
          "type": "address"
        }
      ],
      "stateMutability": "view",
      "type": "function"
    },
    {
      "inputs": [
        {
          "internalType": "address",
          "name": "",
          "type": "address"
        },
        {
          "internalType": "uint256",
          "name": "",
          "type": "uint256"
        }
      ],
      "name": "following",
      "outputs": [
        {
          "internalType": "address",
          "name": "",
          "type": "address"
        }
      ],
      "stateMutability": "view",
      "type": "function"
    },
    {
      "inputs": [
        {
          "internalType": "address",
          "name": "user",
          "type": "address"
        },
        {
          "internalType": "uint256",
          "name": "limit",
          "type": "uint256"
        }
      ],
      "name": "getActivityFeed",
      "outputs": [
        {
          "internalType": "uint256[]",
          "name": "",
          "type": "uint256[]"
        }
      ],
      "stateMutability": "view",
      "type": "function"
    },
    {
      "inputs": [
        {
          "internalType": "address",
          "name": "user",
          "type": "address"
        }
      ],
      "name": "getFollowers",
      "outputs": [
        {
          "internalType": "address[]",
          "name": "",
          "type": "address[]"
        }
      ],
      "stateMutability": "view",
      "type": "function"
    },
    {
      "inputs": [
        {
          "internalType": "address",
          "name": "user",
          "type": "address"
        }
      ],
      "name": "getFollowing",
      "outputs": [
        {
          "internalType": "address[]",
          "name": "",
          "type": "address[]"
        }
      ],
      "stateMutability": "view",
      "type": "function"
    },
    {
      "inputs": [
        {
          "internalType": "uint256",
          "name": "postId",
          "type": "uint256"
        }
      ],
      "name": "getPost",
      "outputs": [
        {
          "internalType": "address",
          "name": "author",
          "type": "address"
        },
        {
          "internalType": "string",
          "name": "content",
          "type": "string"
        },
        {
          "internalType": "uint256",
          "name": "timestamp",
          "type": "uint256"
        },
        {
          "internalType": "uint256",
          "name": "likes",
          "type": "uint256"
        },
        {
          "internalType": "uint256",
          "name": "shares",
          "type": "uint256"
        },
        {
          "internalType": "bool",
          "name": "isActive",
          "type": "bool"
        }
      ],
      "stateMutability": "view",
      "type": "function"
    },
    {
      "inputs": [
        {
          "internalType": "bytes32",
          "name": "role",
          "type": "bytes32"
        }
      ],
      "name": "getRoleAdmin",
      "outputs": [
        {
          "internalType": "bytes32",
          "name": "",
          "type": "bytes32"
        }
      ],
      "stateMutability": "view",
      "type": "function"
    },
    {
      "inputs": [
        {
          "internalType": "address",
          "name": "user",
          "type": "address"
        }
      ],
      "name": "getUserPosts",
      "outputs": [
        {
          "internalType": "uint256[]",
          "name": "",
          "type": "uint256[]"
        }
      ],
      "stateMutability": "view",
      "type": "function"
    },
    {
      "inputs": [
        {
          "internalType": "address",
          "name": "user",
          "type": "address"
        }
      ],
      "name": "getUserSocialStats",
      "outputs": [
        {
          "internalType": "uint256",
          "name": "followersCount",
          "type": "uint256"
        },
        {
          "internalType": "uint256",
          "name": "followingCount",
          "type": "uint256"
        },
        {
          "internalType": "uint256",
          "name": "postsCount",
          "type": "uint256"
        },
        {
          "internalType": "uint256",
          "name": "totalLikes",
          "type": "uint256"
        },
        {
          "internalType": "uint256",
          "name": "totalShares",
          "type": "uint256"
        },
        {
          "internalType": "uint256",
          "name": "socialScore",
          "type": "uint256"
        }
      ],
      "stateMutability": "view",
      "type": "function"
    },
    {
      "inputs": [
        {
          "internalType": "bytes32",
          "name": "role",
          "type": "bytes32"
        },
        {
          "internalType": "address",
          "name": "account",
          "type": "address"
        }
      ],
      "name": "grantRole",
      "outputs": [],
      "stateMutability": "nonpayable",
      "type": "function"
    },
    {
      "inputs": [
        {
          "internalType": "bytes32",
          "name": "role",
          "type": "bytes32"
        },
        {
          "internalType": "address",
          "name": "account",
          "type": "address"
        }
      ],
      "name": "hasRole",
      "outputs": [
        {
          "internalType": "bool",
          "name": "",
          "type": "bool"
        }
      ],
      "stateMutability": "view",
      "type": "function"
    },
    {
      "inputs": [
        {
          "internalType": "uint256",
          "name": "postId",
          "type": "uint256"
        },
        {
          "internalType": "address",
          "name": "user",
          "type": "address"
        }
      ],
      "name": "hasUserLikedPost",
      "outputs": [
        {
          "internalType": "bool",
          "name": "",
          "type": "bool"
        }
      ],
      "stateMutability": "view",
      "type": "function"
    },
    {
      "inputs": [
        {
          "internalType": "uint256",
          "name": "postId",
          "type": "uint256"
        },
        {
          "internalType": "address",
          "name": "user",
          "type": "address"
        }
      ],
      "name": "hasUserSharedPost",
      "outputs": [
        {
          "internalType": "bool",
          "name": "",
          "type": "bool"
        }
      ],
      "stateMutability": "view",
      "type": "function"
    },
    {
      "inputs": [
        {
          "internalType": "address",
          "name": "_xpEngineAddress",
          "type": "address"
        }
      ],
      "name": "initialize",
      "outputs": [],
      "stateMutability": "nonpayable",
      "type": "function"
    },
    {
      "inputs": [
        {
          "internalType": "address",
          "name": "",
          "type": "address"
        },
        {
          "internalType": "address",
          "name": "",
          "type": "address"
        }
      ],
      "name": "isFollowing",
      "outputs": [
        {
          "internalType": "bool",
          "name": "",
          "type": "bool"
        }
      ],
      "stateMutability": "view",
      "type": "function"
    },
    {
      "inputs": [
        {
          "internalType": "address",
          "name": "",
          "type": "address"
        }
      ],
      "name": "lastFollowTime",
      "outputs": [
        {
          "internalType": "uint256",
          "name": "",
          "type": "uint256"
        }
      ],
      "stateMutability": "view",
      "type": "function"
    },
    {
      "inputs": [
        {
          "internalType": "address",
          "name": "",
          "type": "address"
        }
      ],
      "name": "lastPostTime",
      "outputs": [
        {
          "internalType": "uint256",
          "name": "",
          "type": "uint256"
        }
      ],
      "stateMutability": "view",
      "type": "function"
    },
    {
      "inputs": [
        {
          "internalType": "uint256",
          "name": "postId",
          "type": "uint256"
        }
      ],
      "name": "likePost",
      "outputs": [],
      "stateMutability": "nonpayable",
      "type": "function"
    },
    {
      "inputs": [],
      "name": "nextPostId",
      "outputs": [
        {
          "internalType": "uint256",
          "name": "",
          "type": "uint256"
        }
      ],
      "stateMutability": "view",
      "type": "function"
    },
    {
      "inputs": [],
      "name": "pause",
      "outputs": [],
      "stateMutability": "nonpayable",
      "type": "function"
    },
    {
      "inputs": [],
      "name": "paused",
      "outputs": [
        {
          "internalType": "bool",
          "name": "",
          "type": "bool"
        }
      ],
      "stateMutability": "view",
      "type": "function"
    },
    {
      "inputs": [
        {
          "internalType": "uint256",
          "name": "",
          "type": "uint256"
        }
      ],
      "name": "postReportCount",
      "outputs": [
        {
          "internalType": "uint256",
          "name": "",
          "type": "uint256"
        }
      ],
      "stateMutability": "view",
      "type": "function"
    },
    {
      "inputs": [
        {
          "internalType": "uint256",
          "name": "",
          "type": "uint256"
        }
      ],
      "name": "posts",
      "outputs": [
        {
          "internalType": "uint256",
          "name": "id",
          "type": "uint256"
        },
        {
          "internalType": "address",
          "name": "author",
          "type": "address"
        },
        {
          "internalType": "string",
          "name": "content",
          "type": "string"
        },
        {
          "internalType": "uint256",
          "name": "timestamp",
          "type": "uint256"
        },
        {
          "internalType": "uint256",
          "name": "likes",
          "type": "uint256"
        },
        {
          "internalType": "uint256",
          "name": "shares",
          "type": "uint256"
        },
        {
          "internalType": "bool",
          "name": "isActive",
          "type": "bool"
        }
      ],
      "stateMutability": "view",
      "type": "function"
    },
    {
      "inputs": [],
      "name": "proxiableUUID",
      "outputs": [
        {
          "internalType": "bytes32",
          "name": "",
          "type": "bytes32"
        }
      ],
      "stateMutability": "view",
      "type": "function"
    },
    {
      "inputs": [
        {
          "internalType": "uint256",
          "name": "postId",
          "type": "uint256"
        },
        {
          "internalType": "string",
          "name": "reason",
          "type": "string"
        }
      ],
      "name": "removePost",
      "outputs": [],
      "stateMutability": "nonpayable",
      "type": "function"
    },
    {
      "inputs": [
        {
          "internalType": "bytes32",
          "name": "role",
          "type": "bytes32"
        },
        {
          "internalType": "address",
          "name": "callerConfirmation",
          "type": "address"
        }
      ],
      "name": "renounceRole",
      "outputs": [],
      "stateMutability": "nonpayable",
      "type": "function"
    },
    {
      "inputs": [
        {
          "internalType": "uint256",
          "name": "postId",
          "type": "uint256"
        }
      ],
      "name": "reportPost",
      "outputs": [],
      "stateMutability": "nonpayable",
      "type": "function"
    },
    {
      "inputs": [
        {
          "internalType": "uint256",
          "name": "",
          "type": "uint256"
        }
      ],
      "name": "reportedPosts",
      "outputs": [
        {
          "internalType": "bool",
          "name": "",
          "type": "bool"
        }
      ],
      "stateMutability": "view",
      "type": "function"
    },
    {
      "inputs": [
        {
          "internalType": "bytes32",
          "name": "role",
          "type": "bytes32"
        },
        {
          "internalType": "address",
          "name": "account",
          "type": "address"
        }
      ],
      "name": "revokeRole",
      "outputs": [],
      "stateMutability": "nonpayable",
      "type": "function"
    },
    {
      "inputs": [
        {
          "internalType": "uint256",
          "name": "postId",
          "type": "uint256"
        }
      ],
      "name": "sharePost",
      "outputs": [],
      "stateMutability": "nonpayable",
      "type": "function"
    },
    {
      "inputs": [
        {
          "internalType": "bytes4",
          "name": "interfaceId",
          "type": "bytes4"
        }
      ],
      "name": "supportsInterface",
      "outputs": [
        {
          "internalType": "bool",
          "name": "",
          "type": "bool"
        }
      ],
      "stateMutability": "view",
      "type": "function"
    },
    {
      "inputs": [
        {
          "internalType": "address",
          "name": "userToUnfollow",
          "type": "address"
        }
      ],
      "name": "unfollowUser",
      "outputs": [],
      "stateMutability": "nonpayable",
      "type": "function"
    },
    {
      "inputs": [
        {
          "internalType": "uint256",
          "name": "postId",
          "type": "uint256"
        }
      ],
      "name": "unlikePost",
      "outputs": [],
      "stateMutability": "nonpayable",
      "type": "function"
    },
    {
      "inputs": [],
      "name": "unpause",
      "outputs": [],
      "stateMutability": "nonpayable",
      "type": "function"
    },
    {
      "inputs": [
        {
          "internalType": "address",
          "name": "newImplementation",
          "type": "address"
        },
        {
          "internalType": "bytes",
          "name": "data",
          "type": "bytes"
        }
      ],
      "name": "upgradeToAndCall",
      "outputs": [],
      "stateMutability": "payable",
      "type": "function"
    },
    {
      "inputs": [
        {
          "internalType": "address",
          "name": "",
          "type": "address"
        },
        {
          "internalType": "uint256",
          "name": "",
          "type": "uint256"
        }
      ],
      "name": "userPosts",
      "outputs": [
        {
          "internalType": "uint256",
          "name": "",
          "type": "uint256"
        }
      ],
      "stateMutability": "view",
      "type": "function"
    },
    {
      "inputs": [
        {
          "internalType": "address",
          "name": "",
          "type": "address"
        }
      ],
      "name": "userStats",
      "outputs": [
        {
          "internalType": "uint256",
          "name": "followersCount",
          "type": "uint256"
        },
        {
          "internalType": "uint256",
          "name": "followingCount",
          "type": "uint256"
        },
        {
          "internalType": "uint256",
          "name": "postsCount",
          "type": "uint256"
        },
        {
          "internalType": "uint256",
          "name": "totalLikes",
          "type": "uint256"
        },
        {
          "internalType": "uint256",
          "name": "totalShares",
          "type": "uint256"
        },
        {
          "internalType": "uint256",
          "name": "socialScore",
          "type": "uint256"
        }
      ],
      "stateMutability": "view",
      "type": "function"
    },
    {
      "inputs": [],
      "name": "xpEngine",
      "outputs": [
        {
          "internalType": "contract IXPEngine",
          "name": "",
          "type": "address"
        }
      ],
      "stateMutability": "view",
      "type": "function"
    }
  ],
  "bytecode": "0x60a0806040523461002a5730608052612e6e90816100308239608051818181611c4e0152611d040152f35b600080fdfe608060408181526004918236101561001657600080fd5b600092833560e01c91826301ffc9a71461225c5750816305b746b51461223f5781630b1e7f83146121ae578163111f2a941461219157816323163cdb14612175578163248a9ca31461213d5781632c526ff5146121105781632c97f86c146120f35781632f2ff15d146120c957816336568abe146120835781633f4ba83a1461200b57816340731c2414611f705781634289d69314611f485781634f1ef28614611cb257816352d1902d14611c395781635c09bd9814611c1a5781635c975abb14611be95781636e131ad614611bc15781636e6784da14611ab9578163725009d3146118fc57816375b238fc146118c1578163769ba5d4146118a5578163797669c91461186a5781637e2b8452146116485781638064d149146115f25781638456cb591461158a5781638a65d874146109d75781639139cda51461154057816391d14854146114ed57816399ec3a421461149d5781639a2194a91461141b578163a217fddf14611400578163a70806f7146111c5578163a931c9a2146108fb578163a96c703c1461118d578163a998091a14611171578163ad3cb1cc1461112c578163b8426b881461107e578163c157ceb41461103d578163c2fe202214610fc0578163c4d66de814610e21578163c4f6eea314610de0578163c7303c6114610a54578163cc1b35c1146109d7578163d547741f1461098a578163d8236dff14610900578163e09ef757146108fb578163e2971634146108df578163e82345fc146108a7578163ebd009d31461084b578163ed0c26ca1461082b578163ee1ab4121461080f578163f107cfcb146106a4578163f2a43db81461065c578163f5d763201461045d578163f72c0d8b14610422578163fa188de91461031b57508063fdd0b351146102fe5763fe8413b7146102ae57600080fd5b346102fa57806003193601126102fa576020916102c9612451565b826102d2612436565b6001600160a01b039283168452600c8652922091166000908152908352819020549051908152f35b5080fd5b50346102fa57816003193601126102fa5760209051620151808152f35b9190503461041e57602036600319011261041e5781359161033a612ab8565b610342612b82565b82845280602052818420908154156104105760078201336000528060205260ff8460002054161561040157916001916103c69493336000526020528360002060ff19815416905581016103958154612626565b90550180546001600160a01b039081168652600760205291852060030180546103bd90612626565b90555416612bb2565b33907f82092d1196022c48d901e5dc4b17451dbce942b8a9ded42fc6f2a4a5e8fd89b98380a36001600080516020612e428339815191525580f35b508251630412ecf360e41b8152fd5b825163bc1f089f60e01b8152fd5b8280fd5b5050346102fa57816003193601126102fa57602090517f189ab7a9244df0848122154315af71fe140f3db0fe014031783b0946b8c9d2e38152f35b90503461041e57602036600319011261041e5780359161047b612ab8565b610483612b82565b828452816020528084209182541561064e5760ff60068401541615610640576008830191336000528260205260ff8160002054166106335760018401805490946001600160a01b039490918516331461062457879392916005913360005260205282600020600160ff19825416179055016104fe81546125a3565b90558385541683526007602052818184200161051a81546125a3565b905583835416803b156105f5578151848160448183630c4f349360e01b96878352338a840152600360248401525af1801561061a57908591610606575b50548654861693908616803b1561060257859283604492865197889586948552840152600360248401525af19081156105f957506105e1575b50506105a69161059f33612bb2565b5416612bb2565b33907f9ad6b9c25fe64910aa38489f778ed1d1334a3f784d3aeedc050948b26115f8698380a36001600080516020612e428339815191525580f35b6105ea906122e9565b6105f5578338610590565b8380fd5b513d84823e3d90fd5b8580fd5b61060f906122e9565b6105f5578338610557565b83513d87823e3d90fd5b50505163421c007d60e11b8152fd5b51631c292d5d60e21b8152fd5b90516319e58d5b60e11b8152fd5b905163bc1f089f60e01b8152fd5b90503461041e578160031936011261041e5760078260209461067c612436565b9380358252865220019060018060a01b0316600052825260ff81600020541690519015158152f35b9190503461041e57602090816003193601126105f5576106c2612451565b916106cb612ab8565b6106d3612b82565b338552600381528185209360018060a01b0384169485600052825260ff8360002054161561080157338652600c825282862085600052825282600020546201518081018091116107ee5742106107e057509060076107a693923387526001815261073f84848920612c8c565b338752600381528287208660005281528260002060ff1981541690558587526002815261076e33848920612c8c565b3387528181526001838820016107848154612626565b90558587525284206107968154612626565b90556107a133612bb2565b612bb2565b337fe7339343c6edff57f2d15278c419523844cea30ae5ee2146aa22cb9e3107dab78380a36001600080516020612e428339815191525580f35b825163600aee3360e01b8152fd5b634e487b7160e01b875260118252602487fd5b82516322d9eef360e21b8152fd5b5050346102fa57816003193601126102fa5760209051600a8152f35b90503461041e578160031936011261041e5760088260209461067c612436565b5050346102fa57806003193601126102fa57610865612451565b6001600160a01b0390811683526002602052818320805460243594908510156108a45750602093610895916124f6565b92905490519260031b1c168152f35b80fd5b5050346102fa5760203660031901126102fa5760209181906001600160a01b036108cf612451565b1681526009845220549051908152f35b5050346102fa57816003193601126102fa576020905160018152f35b612524565b5050346102fa57602090602060031936011261041e576001600160a01b039283610928612451565b1681526001806020528282209483519081956020885493848152019785526020852094915b8383106109735761096f8888610965828d038361232f565b519182918261255e565b0390f35b85548116895297810197948401949184019161094d565b9190503461041e578060031936011261041e576109d391356109ce60016109af612436565b93838752600080516020612e02833981519152602052862001546126fb565b612a35565b5080f35b8284346108a45760203660031901126108a45761096f9082906001600160a01b03610a00612451565b16815260076020522091825492600181015494600282015460056003840154928401549301549351968796879260a094919796959260c0850198855260208501526040840152606083015260808201520152565b90503461041e57602090816003193601126105f55767ffffffffffffffff92813584811161060257610a899036908401612540565b90610a92612ab8565b610a9a612b82565b815115610dd157610118825111610dc25733865260098452808620546102588101809111610daf574210610da05762015180420492338752600b855281872084885285526014828820541015610d925760065493610af7856125a3565b600655848852818652828820858155600180820180546001600160a01b03191633179055855190986002830191908111610d7f57610b3582546122af565b601f8111610d38575b5088601f8211600114610cd457908060069493928d91610cc9575b50600019600383901b1c1916908b1b1790555b42600382015501805460ff19168817905533885260058652828820805490600160401b821015610cb65781610ba8918a8c9695940181556124f6565b81549060031b9088821b91600019901b1916179055338352600987524284842055600b87528383209083528652828220610be281546125a3565b905533825260078652600283832001610bfb81546125a3565b905581546001600160a01b031690813b1561041e5782916044839286519485938492630c4f349360e01b84523390840152600a60248401525af18015610cac57610c98575b50507f8e40a51278abe2f4b410c0a96ff0bdd024b22666ca334062bf72afd596984bd691610c8291610c7133612bb2565b5191829186835233968301906123f6565b0390a3600080516020612e428339815191525580f35b610ca1906122e9565b610602578538610c40565b83513d84823e3d90fd5b634e487b7160e01b8a526041845260248afd5b905088015138610b59565b9291908a908c601f198216958482528c8220915b8d8c898310610d23575050508260069710610d0a575b5050811b019055610b6c565b8a015160001960f88460031b161c191690553880610cfe565b83015184558f95909301929182019101610ce8565b828c52898c20601f830160051c8101918b8410610d75575b601f0160051c01908b905b828110610d69575050610b3e565b60008155018b90610d5b565b9091508190610d50565b634e487b7160e01b8b526041855260248bfd5b905163786304ab60e11b8152fd5b516336da6f4160e11b81529050fd5b634e487b7160e01b875260118452602487fd5b5163a743544560e01b81529050fd5b51633459b81b60e11b81529050fd5b5050346102fa57806003193601126102fa5760209181906001600160a01b03610e07612451565b168152600b84528181206024358252845220549051908152f35b90503461041e57602036600319011261041e57610e3c612451565b907ff0c57e16840df040f15088dc2f81fe391c3923bec73e23a9662efc9c229c6a0091825460ff81861c16159267ffffffffffffffff821680159081610fb8575b6001149081610fae575b159081610fa5575b50610f97575067ffffffffffffffff198116600117845582610f78575b50610eb5612d3d565b610ebd612d3d565b610ec5612d3d565b610ecd612d3d565b6001600080516020612e4283398151915255610ee7612d3d565b610ef03361272e565b50610efa336127bc565b50610f043361286c565b50610f0e33612916565b5084546001600160a01b0319166001600160a01b03919091161784556001600655610f37578280f35b805468ff00000000000000001916905551600181527fc7f505b2f371ae2175ee4913f4499e1f2633a7b5936321eed1cdaeb6115181d290602090a138808280f35b68ffffffffffffffffff19166801000000000000000117835538610eac565b855163f92ee8a960e01b8152fd5b90501538610e8f565b303b159150610e87565b859150610e7d565b5050346102fa57602090602060031936011261041e576001600160a01b039283610fe8612451565b16815260026020528181209382519081946020875493848152019684526020842093915b8383106110245761096f8787610965828c038361232f565b845481168852968101966001948501949092019161100c565b5050346102fa57806003193601126102fa5760209181906001600160a01b03611064612451565b168152600a84528181206024358252845220549051908152f35b839150346102fa57826003193601126102fa5760243567ffffffffffffffff811161041e576110b09036908301612540565b907f71f3d55856e4058ed06ee057d79ada615f65cdf5f9ee88181b914225088f834f80600052600080516020612e02833981519152602052846000203360005260205260ff8560002054161561110f57509061110c9135612ae3565b80f35b6044925084519163e2517d3f60e01b835233908301526024820152fd5b5050346102fa57816003193601126102fa57805161096f9161114d82612313565b60058252640352e302e360dc1b6020830152519182916020835260208301906123f6565b5050346102fa57816003193601126102fa576020905160038152f35b5050346102fa5760203660031901126102fa5760209181906001600160a01b036111b5612451565b1681526008845220549051908152f35b9190503461041e57602091826003193601126105f5576111e3612451565b916111ec612ab8565b6111f4612b82565b6001600160a01b03838116943386146113f1573387526003815282872086600052815260ff8360002054166113e2573387526008815282872054610e1081018091116113cf5742106113c057620151804204338852600a8252838820818952825260328489205410156113b05787949392916007913387526001825261127c88868920612640565b3387526003825284872089600052825284600020600160ff19825416179055888752600282526112ae33868920612640565b338752600882524285882055600a825284872090875281528386206112d381546125a3565b9055338652600c815283862088600052815242846000205533865281815260018487200161130181546125a3565b90558786525281842061131481546125a3565b905583541691823b156105f55783926044849284519586938492630c4f349360e01b84523390840152600560248401525af19081156105f9575061139c575b5050611362906107a133612bb2565b337f30b3435b456f45779984ddfa456115ee4c20d9e446979b1b9e90dbb7e12b90b78380a36001600080516020612e428339815191525580f35b6113a5906122e9565b61041e578238611353565b5050505163d71e923760e01b8152fd5b5050516308af4cf760e21b8152fd5b634e487b7160e01b885260118552602488fd5b50505163118c13c960e21b8152fd5b505051635056d97d60e11b8152fd5b5050346102fa57816003193601126102fa5751908152602090f35b5050346102fa57602090602060031936011261041e576001600160a01b03611441612451565b168352600560205280832092815180936020865492838152019583526020832092905b8282106114865761096f868661147c828b038361232f565b51918291826124ba565b835487529586019560019384019390910190611464565b5050346102fa57806003193601126102fa576020916114ba612451565b826114c3612436565b9260018060a01b03809316815260038652209116600052825260ff81600020541690519015158152f35b90503461041e578160031936011261041e578160209361150b612436565b92358152600080516020612e028339815191528552209060018060a01b0316600052825260ff81600020541690519015158152f35b5050346102fa57806003193601126102fa5761155a612451565b6001600160a01b0390811683526001602052818320805460243594908510156108a45750602093610895916124f6565b5050346102fa57816003193601126102fa5760207f62e78cea01bee320cd4e420270b5ea74000d11b0c9f74754ebdbfc544b05a258916115c8612681565b6115d0612ab8565b600080516020612e22833981519152805460ff1916600117905551338152a180f35b5050346102fa57806003193601126102fa5761160c612451565b6001600160a01b031682526005602052808220805460243593908410156108a4575060209261163a916124f6565b91905490519160031b1c8152f35b8383346102fa57806003193601126102fa57611662612451565b6024359060018060a01b03809116845260019485926020848152858720918651809687918486549182815201958b52848b20908b5b81811061185257505050506116af919293038661232f565b6116b8816125e0565b9387958989905b611707575b5050505050506116d3826125e0565b935b8281106116e95783518061096f87826124ba565b806116f5879284612612565b516117008288612612565b52016116d5565b8151811080611849575b15611844579081836117278d9796959484612612565b51168b5260058552898b208a51908c82888354918281520192825288822091905b808210611820575050508161175e91038261232f565b8051875b61177c575b5050611772906125a3565b90919293946116bf565b9091929394959681151580611817575b1561180c575060001981018181116117f957908c60ff8f938e6117b160069288612612565b51938481528d8d52200154166117d9575b506117cc90612626565b8197969594939291611762565b8b6117f2916117ec6117cc949e8e612612565b526125a3565b9a906117c2565b634e487b7160e01b8d526011895260248dfd5b969594939291611767565b50868b1061178c565b91939495969798998a8192948654815201940192018f999897969594939291611748565b6116c4565b50838810611711565b82548a168852968601968a9450918301918301611697565b5050346102fa57816003193601126102fa57602090517f71f3d55856e4058ed06ee057d79ada615f65cdf5f9ee88181b914225088f834f8152f35b5050346102fa57816003193601126102fa576020905160328152f35b5050346102fa57816003193601126102fa57602090517fa49807205ce4d355092ef5a8a18f56e8913cf4a201fbe287825b095693c217758152f35b90503461041e57602036600319011261041e5780359161191a612ab8565b611922612b82565b828452816020528084209182541561064e5760ff600684015416156106405760078301913386528260205260ff8187205416611aac5760018401805490946001600160a01b039490918516331461062457338852602052818720805460ff1916600117905582018054611994906125a3565b905582845416865260076020526003818720016119b181546125a3565b905582865416803b15611aa8578151878160448183630c4f349360e01b96878352338a840152600160248401525af18015611a9e57611a87575b509086929184845416928587541693803b1561060257859283604492865197889586948552840152600160248401525af19081156105f95750611a73575b5050611a389161059f33612bb2565b33907fcf765d6f163c9b0d832e2a94f4c8e9bffd32a2c3ca5fdbb8cc67b5fe1441f4138380a36001600080516020612e428339815191525580f35b611a7c906122e9565b6105f5578338611a29565b611a959097919392976122e9565b959091386119eb565b83513d8a823e3d90fd5b8680fd5b516322aba90d60e01b8152fd5b9190503461041e576020806003193601126105f557823592611ad9612ab8565b838552808252828520541561041057838552600d825260ff838620541680611bba575b611bac5750828452600e8152818420611b1581546125a3565b9055828452600d8152818420600160ff19825416179055600e81526005828520541015611b68575b505033907f781a8fe69a74d9c05af308fd7356b98bb308483fe2813d5078ed01ec50a65af48380a380f35b7f4578636565646564207265706f7274207468726573686f6c6400000000000000611ba5925191611b9883612313565b6019835282015282612ae3565b3880611b3d565b825163770c15e360e01b8152fd5b5084611afc565b5050346102fa57816003193601126102fa57905490516001600160a01b039091168152602090f35b5050346102fa57816003193601126102fa5760209060ff600080516020612e22833981519152541690519015158152f35b5050346102fa57816003193601126102fa576020906006549051908152f35b8284346108a457806003193601126108a457507f00000000000000000000000000000000000000000000000000000000000000006001600160a01b03163003611ca557602090517f360894a13ba1a3210667c828492db98dca3e2076cc3735a920a3ca505d382bbc8152f35b5163703e46dd60e11b8152fd5b9180915060031936011261041e57611cc8612451565b90602493843567ffffffffffffffff81116102fa57366023820112156102fa57611cfa90369087818801359101612483565b6001600160a01b037f00000000000000000000000000000000000000000000000000000000000000008116308114908115611f1a575b50611f0a577f189ab7a9244df0848122154315af71fe140f3db0fe014031783b0946b8c9d2e390818452602091600080516020612e028339815191528352858520338652835260ff868620541615611eed575085169484516352d1902d60e01b8152828189818a5afa859181611ebe575b50611dbc5750505050505191634c9c8ce360e01b8352820152fd5b90878787938b7f360894a13ba1a3210667c828492db98dca3e2076cc3735a920a3ca505d382bbc91828103611ea95750843b15611e95575080546001600160a01b0319168217905583518792917fbc7cd75a20ee27fd9adebab32041f755214dbc6bffa90cc0225b39da2e5c2d3b8480a2865115611e785750508085856109d397519101845af4913d15611e6e573d611e60611e5782612467565b9251928361232f565b81528581943d92013e612d7e565b5060609250612d7e565b9450945050505034611e8957505080f35b63b398979f60e01b8152fd5b8551634c9c8ce360e01b8152808501849052fd5b8651632a87526960e21b815280860191909152fd5b9091508381813d8311611ee6575b611ed6818361232f565b8101031261060257519038611da1565b503d611ecc565b855163e2517d3f60e01b815233818a0152808a0191909152604490fd5b835163703e46dd60e11b81528690fd5b9050817f360894a13ba1a3210667c828492db98dca3e2076cc3735a920a3ca505d382bbc5416141538611d30565b90503461041e57602036600319011261041e576020928291358152600e845220549051908152f35b8284346108a45760203660031901126108a457819083358152836020522090815415611ffc5760018060a01b0360018301541691600381015493810154600582015490611fc7600260ff6006860154169401612351565b95611fe38551978897885260c0602089015260c08801906123f6565b9486015260608501526080840152151560a08301520390f35b5163bc1f089f60e01b81529050fd5b90503461041e578260031936011261041e57612025612681565b600080516020612e228339815191529081549060ff821615612075575060ff19169055513381527f5db9ee0a495bf2e6ff9c91a7834c1ba4fdd244a5e8aa4e537bd38aeae4b073aa90602090a180f35b8351638dfc202b60e01b8152fd5b8383346102fa57806003193601126102fa5761209d612436565b90336001600160a01b038316036120ba57506109d3919235612a35565b5163334bd91960e11b81528390fd5b9190503461041e578060031936011261041e576109d391356120ee60016109af612436565b6129c0565b5050346102fa57816003193601126102fa5760209051610e108152f35b90503461041e57602036600319011261041e578160209360ff92358152600d855220541690519015158152f35b90503461041e57602036600319011261041e5781602093600192358152600080516020612e0283398151915285522001549051908152f35b5050346102fa57816003193601126102fa576020905160148152f35b5050346102fa57816003193601126102fa57602090516102588152f35b8284346108a45760203660031901126108a457823581526020839052819020805460018201546001600160a01b031693909290916121ee60028201612351565b6122246003830154948301549160e060ff6006600587015496015416958051998a998a5260208a015288015260e08701906123f6565b936060860152608085015260a0840152151560c08301520390f35b5050346102fa57816003193601126102fa57602090516101188152f35b84913461041e57602036600319011261041e573563ffffffff60e01b811680910361041e5760209250637965db0b60e01b811490811561229e575b5015158152f35b6301ffc9a760e01b14905083612297565b90600182811c921680156122df575b60208310146122c957565b634e487b7160e01b600052602260045260246000fd5b91607f16916122be565b67ffffffffffffffff81116122fd57604052565b634e487b7160e01b600052604160045260246000fd5b6040810190811067ffffffffffffffff8211176122fd57604052565b90601f8019910116810190811067ffffffffffffffff8211176122fd57604052565b90604051918260008254612364816122af565b908184526020946001916001811690816000146123d45750600114612395575b5050506123939250038361232f565b565b600090815285812095935091905b8183106123bc5750506123939350820101388080612384565b855488840185015294850194879450918301916123a3565b9250505061239394925060ff191682840152151560051b820101388080612384565b919082519283825260005b848110612422575050826000602080949584010152601f8019910116010190565b602081830181015184830182015201612401565b602435906001600160a01b038216820361244c57565b600080fd5b600435906001600160a01b038216820361244c57565b67ffffffffffffffff81116122fd57601f01601f191660200190565b92919261248f82612467565b9161249d604051938461232f565b82948184528183011161244c578281602093846000960137010152565b602090602060408183019282815285518094520193019160005b8281106124e2575050505090565b8351855293810193928101926001016124d4565b805482101561250e5760005260206000200190600090565b634e487b7160e01b600052603260045260246000fd5b3461244c57600036600319011261244c57602060405160058152f35b9080601f8301121561244c5781602061255b93359101612483565b90565b602090602060408183019282815285518094520193019160005b828110612586575050505090565b83516001600160a01b031685529381019392810192600101612578565b60001981146125b25760010190565b634e487b7160e01b600052601160045260246000fd5b67ffffffffffffffff81116122fd5760051b60200190565b906125ea826125c8565b6125f7604051918261232f565b8281528092612608601f19916125c8565b0190602036910137565b805182101561250e5760209160051b010190565b80156125b2576000190190565b919082018092116125b257565b90815491600160401b8310156122fd5782612663916001612393950181556124f6565b90919060018060a01b038084549260031b9316831b921b1916179055565b3360009081527fb16e88c42fd4e48df2dd6a2eabd6bc9aec654ec170056b470819f8892cc6431c60205260409020547fa49807205ce4d355092ef5a8a18f56e8913cf4a201fbe287825b095693c217759060ff16156126dd5750565b6044906040519063e2517d3f60e01b82523360048301526024820152fd5b80600052600080516020612e0283398151915260205260406000203360005260205260ff60406000205416156126dd5750565b6001600160a01b031660008181527fb7db2dd08fcb62d0c9e08c51941cae53c267786a0b75803fb7960902fc8ef97d6020526040812054909190600080516020612e028339815191529060ff166127b7578280526020526040822081835260205260408220600160ff198254161790553391600080516020612de28339815191528180a4600190565b505090565b6001600160a01b031660008181527fb16e88c42fd4e48df2dd6a2eabd6bc9aec654ec170056b470819f8892cc6431c60205260408120549091907fa49807205ce4d355092ef5a8a18f56e8913cf4a201fbe287825b095693c2177590600080516020612e028339815191529060ff16612866578184526020526040832082845260205260408320600160ff19825416179055600080516020612de2833981519152339380a4600190565b50505090565b6001600160a01b031660008181527f1a864d4eac0891250c5be130dc5ed49253048fe7a091bb5fcd3f026d0ce3037660205260408120549091907f71f3d55856e4058ed06ee057d79ada615f65cdf5f9ee88181b914225088f834f90600080516020612e028339815191529060ff16612866578184526020526040832082845260205260408320600160ff19825416179055600080516020612de2833981519152339380a4600190565b6001600160a01b031660008181527fab71e3f32666744d246edff3f96e4bdafee2e9867098cdd118a979a7464786a860205260408120549091907f189ab7a9244df0848122154315af71fe140f3db0fe014031783b0946b8c9d2e390600080516020612e028339815191529060ff16612866578184526020526040832082845260205260408320600160ff19825416179055600080516020612de2833981519152339380a4600190565b90600091808352600080516020612e0283398151915280602052604084209260018060a01b03169283855260205260ff60408520541615600014612866578184526020526040832082845260205260408320600160ff19825416179055600080516020612de2833981519152339380a4600190565b90600091808352600080516020612e0283398151915280602052604084209260018060a01b03169283855260205260ff60408520541660001461286657818452602052604083208284526020526040832060ff1981541690557ff6391f5c32d9c69d2a47ea670b442974b53935d1edc7fd64eb21e047a839171b339380a4600190565b60ff600080516020612e228339815191525416612ad157565b60405163d93c066560e01b8152600490fd5b908160005260046020526040600020805415612b70577f4d63e048a76e076973f12fc8b96935baed265f87cc39c6dc918ac3932cdd210491612b576001836006612b6b950160ff1981541690550160018060a01b039081815416600052600760205260026040600020016103bd8154612626565b6040519182916020835260208301906123f6565b0390a2565b60405163bc1f089f60e01b8152600490fd5b600080516020612e428339815191526002815414612ba05760029055565b604051633ee5aeb560e01b8152600490fd5b60018060a01b031660008181526007602052604081209081546003830154908160011b9180830460021490151715612c785790612bee91612633565b600483015491600383029280840460031490151715612c645750612c17600592612c2592612633565b600284015460011c90612633565b910180548203612c3457505050565b817f44c63f0b055c49cb48fd0f9f9f3b4523cbbf14ce04bd4d1db6d1f23bf440ed529260209255604051908152a2565b634e487b7160e01b81526011600452602490fd5b634e487b7160e01b83526011600452602483fd5b6000915b81549283811015612d3757612ca581846124f6565b90546003956001600160a01b0392909190871b1c821684831614612ccf5750506001019250612c90565b909250600019918282019182116125b25761266384612cf1612cff94886124f6565b905490891b1c1691866124f6565b82548015612d21570192612d1384846124f6565b81939154921b1b1916905555565b634e487b7160e01b600052603160045260246000fd5b50505050565b60ff7ff0c57e16840df040f15088dc2f81fe391c3923bec73e23a9662efc9c229c6a005460401c1615612d6c57565b604051631afcd79f60e31b8152600490fd5b90612da55750805115612d9357602081519101fd5b60405163d6bda27560e01b8152600490fd5b81511580612dd8575b612db6575090565b604051639996b31560e01b81526001600160a01b039091166004820152602490fd5b50803b15612dae56fe2f8788117e7eff1d82e926ec794901d17c78024a50270940304540a733656f0d02dd7bc7dec4dceedda775e58dd541e08a116c6c53815c0bd028192f7b626800cd5ed15c6e187e77e9aee88184c21f4f2182ab5827cb3b7e07fbedcd63f033009b779b17422d0df92223018b32b4d1fa46e071723d6817e2486d003becc55f00a164736f6c6343000816000a",
  "linkReferences": {},
  "deployedLinkReferences": {}
}