{
  "_format": "hh-sol-artifact-1",
  "contractName": "RateLimiter",
  "sourceName": "contracts/security/RateLimiter.sol",
  "abi": [
    {
      "inputs": [],
      "name": "AccessControlBadConfirmation",
      "type": "error"
    },
    {
      "inputs": [
        {
          "internalType": "address",
          "name": "account",
          "type": "address"
        },
        {
          "internalType": "bytes32",
          "name": "neededRole",
          "type": "bytes32"
        }
      ],
      "name": "AccessControlUnauthorizedAccount",
      "type": "error"
    },
    {
      "inputs": [],
      "name": "FunctionNotFound",
      "type": "error"
    },
    {
      "inputs": [],
      "name": "InvalidInitialization",
      "type": "error"
    },
    {
      "inputs": [],
      "name": "InvalidRateLimit",
      "type": "error"
    },
    {
      "inputs": [],
      "name": "NotInitializing",
      "type": "error"
    },
    {
      "inputs": [],
      "name": "RateLimitExceeded",
      "type": "error"
    },
    {
      "inputs": [],
      "name": "ReentrancyGuardReentrantCall",
      "type": "error"
    },
    {
      "anonymous": false,
      "inputs": [
        {
          "indexed": false,
          "internalType": "uint64",
          "name": "version",
          "type": "uint64"
        }
      ],
      "name": "Initialized",
      "type": "event"
    },
    {
      "anonymous": false,
      "inputs": [
        {
          "indexed": true,
          "internalType": "address",
          "name": "user",
          "type": "address"
        },
        {
          "indexed": true,
          "internalType": "bytes4",
          "name": "selector",
          "type": "bytes4"
        }
      ],
      "name": "RateLimitCleared",
      "type": "event"
    },
    {
      "anonymous": false,
      "inputs": [
        {
          "indexed": true,
          "internalType": "address",
          "name": "user",
          "type": "address"
        },
        {
          "indexed": true,
          "internalType": "bytes4",
          "name": "selector",
          "type": "bytes4"
        },
        {
          "indexed": false,
          "internalType": "string",
          "name": "functionName",
          "type": "string"
        },
        {
          "indexed": false,
          "internalType": "uint256",
          "name": "attempts",
          "type": "uint256"
        }
      ],
      "name": "RateLimitExceededEvent",
      "type": "event"
    },
    {
      "anonymous": false,
      "inputs": [
        {
          "indexed": true,
          "internalType": "bytes4",
          "name": "selector",
          "type": "bytes4"
        },
        {
          "indexed": false,
          "internalType": "string",
          "name": "functionName",
          "type": "string"
        },
        {
          "indexed": false,
          "internalType": "enum RateLimiter.LimitType",
          "name": "limitType",
          "type": "uint8"
        },
        {
          "indexed": false,
          "internalType": "uint256",
          "name": "maxRequests",
          "type": "uint256"
        },
        {
          "indexed": false,
          "internalType": "uint256",
          "name": "windowSize",
          "type": "uint256"
        }
      ],
      "name": "RateLimitSet",
      "type": "event"
    },
    {
      "anonymous": false,
      "inputs": [
        {
          "indexed": true,
          "internalType": "bytes32",
          "name": "role",
          "type": "bytes32"
        },
        {
          "indexed": true,
          "internalType": "bytes32",
          "name": "previousAdminRole",
          "type": "bytes32"
        },
        {
          "indexed": true,
          "internalType": "bytes32",
          "name": "newAdminRole",
          "type": "bytes32"
        }
      ],
      "name": "RoleAdminChanged",
      "type": "event"
    },
    {
      "anonymous": false,
      "inputs": [
        {
          "indexed": true,
          "internalType": "bytes32",
          "name": "role",
          "type": "bytes32"
        },
        {
          "indexed": true,
          "internalType": "address",
          "name": "account",
          "type": "address"
        },
        {
          "indexed": true,
          "internalType": "address",
          "name": "sender",
          "type": "address"
        }
      ],
      "name": "RoleGranted",
      "type": "event"
    },
    {
      "anonymous": false,
      "inputs": [
        {
          "indexed": true,
          "internalType": "bytes32",
          "name": "role",
          "type": "bytes32"
        },
        {
          "indexed": true,
          "internalType": "address",
          "name": "account",
          "type": "address"
        },
        {
          "indexed": true,
          "internalType": "address",
          "name": "sender",
          "type": "address"
        }
      ],
      "name": "RoleRevoked",
      "type": "event"
    },
    {
      "anonymous": false,
      "inputs": [
        {
          "indexed": true,
          "internalType": "address",
          "name": "user",
          "type": "address"
        },
        {
          "indexed": false,
          "internalType": "bool",
          "name": "whitelisted",
          "type": "bool"
        }
      ],
      "name": "UserWhitelisted",
      "type": "event"
    },
    {
      "inputs": [],
      "name": "ADMIN_ROLE",
      "outputs": [
        {
          "internalType": "bytes32",
          "name": "",
          "type": "bytes32"
        }
      ],
      "stateMutability": "view",
      "type": "function"
    },
    {
      "inputs": [],
      "name": "DEFAULT_ADMIN_ROLE",
      "outputs": [
        {
          "internalType": "bytes32",
          "name": "",
          "type": "bytes32"
        }
      ],
      "stateMutability": "view",
      "type": "function"
    },
    {
      "inputs": [],
      "name": "RATE_MANAGER_ROLE",
      "outputs": [
        {
          "internalType": "bytes32",
          "name": "",
          "type": "bytes32"
        }
      ],
      "stateMutability": "view",
      "type": "function"
    },
    {
      "inputs": [
        {
          "internalType": "address[]",
          "name": "users",
          "type": "address[]"
        },
        {
          "internalType": "bool",
          "name": "whitelisted",
          "type": "bool"
        }
      ],
      "name": "bulkSetWhitelisted",
      "outputs": [],
      "stateMutability": "nonpayable",
      "type": "function"
    },
    {
      "inputs": [
        {
          "internalType": "address",
          "name": "user",
          "type": "address"
        },
        {
          "internalType": "bytes4",
          "name": "selector",
          "type": "bytes4"
        }
      ],
      "name": "checkRateLimit",
      "outputs": [
        {
          "internalType": "bool",
          "name": "",
          "type": "bool"
        }
      ],
      "stateMutability": "nonpayable",
      "type": "function"
    },
    {
      "inputs": [
        {
          "internalType": "bytes4",
          "name": "selector",
          "type": "bytes4"
        }
      ],
      "name": "clearGlobalRateLimit",
      "outputs": [],
      "stateMutability": "nonpayable",
      "type": "function"
    },
    {
      "inputs": [
        {
          "internalType": "address",
          "name": "user",
          "type": "address"
        },
        {
          "internalType": "bytes4",
          "name": "selector",
          "type": "bytes4"
        }
      ],
      "name": "clearUserRateLimit",
      "outputs": [],
      "stateMutability": "nonpayable",
      "type": "function"
    },
    {
      "inputs": [
        {
          "internalType": "bytes4",
          "name": "",
          "type": "bytes4"
        }
      ],
      "name": "functionNames",
      "outputs": [
        {
          "internalType": "string",
          "name": "",
          "type": "string"
        }
      ],
      "stateMutability": "view",
      "type": "function"
    },
    {
      "inputs": [
        {
          "internalType": "bytes4",
          "name": "selector",
          "type": "bytes4"
        }
      ],
      "name": "getRateLimit",
      "outputs": [
        {
          "internalType": "enum RateLimiter.LimitType",
          "name": "limitType",
          "type": "uint8"
        },
        {
          "internalType": "uint256",
          "name": "maxRequests",
          "type": "uint256"
        },
        {
          "internalType": "uint256",
          "name": "windowSize",
          "type": "uint256"
        },
        {
          "internalType": "uint256",
          "name": "refillRate",
          "type": "uint256"
        },
        {
          "internalType": "bool",
          "name": "active",
          "type": "bool"
        },
        {
          "internalType": "bool",
          "name": "globalLimit",
          "type": "bool"
        }
      ],
      "stateMutability": "view",
      "type": "function"
    },
    {
      "inputs": [
        {
          "internalType": "bytes32",
          "name": "role",
          "type": "bytes32"
        }
      ],
      "name": "getRoleAdmin",
      "outputs": [
        {
          "internalType": "bytes32",
          "name": "",
          "type": "bytes32"
        }
      ],
      "stateMutability": "view",
      "type": "function"
    },
    {
      "inputs": [
        {
          "internalType": "address",
          "name": "user",
          "type": "address"
        },
        {
          "internalType": "bytes4",
          "name": "selector",
          "type": "bytes4"
        }
      ],
      "name": "getUserRateLimit",
      "outputs": [
        {
          "internalType": "uint256",
          "name": "requestCount",
          "type": "uint256"
        },
        {
          "internalType": "uint256",
          "name": "lastRequest",
          "type": "uint256"
        },
        {
          "internalType": "uint256",
          "name": "windowStart",
          "type": "uint256"
        },
        {
          "internalType": "uint256",
          "name": "tokens",
          "type": "uint256"
        },
        {
          "internalType": "uint256",
          "name": "lastRefill",
          "type": "uint256"
        }
      ],
      "stateMutability": "view",
      "type": "function"
    },
    {
      "inputs": [
        {
          "internalType": "bytes4",
          "name": "",
          "type": "bytes4"
        }
      ],
      "name": "globalLimits",
      "outputs": [
        {
          "internalType": "uint256",
          "name": "requestCount",
          "type": "uint256"
        },
        {
          "internalType": "uint256",
          "name": "lastRequest",
          "type": "uint256"
        },
        {
          "internalType": "uint256",
          "name": "windowStart",
          "type": "uint256"
        },
        {
          "internalType": "uint256",
          "name": "tokens",
          "type": "uint256"
        },
        {
          "internalType": "uint256",
          "name": "lastRefill",
          "type": "uint256"
        }
      ],
      "stateMutability": "view",
      "type": "function"
    },
    {
      "inputs": [
        {
          "internalType": "bytes32",
          "name": "role",
          "type": "bytes32"
        },
        {
          "internalType": "address",
          "name": "account",
          "type": "address"
        }
      ],
      "name": "grantRole",
      "outputs": [],
      "stateMutability": "nonpayable",
      "type": "function"
    },
    {
      "inputs": [
        {
          "internalType": "bytes32",
          "name": "role",
          "type": "bytes32"
        },
        {
          "internalType": "address",
          "name": "account",
          "type": "address"
        }
      ],
      "name": "hasRole",
      "outputs": [
        {
          "internalType": "bool",
          "name": "",
          "type": "bool"
        }
      ],
      "stateMutability": "view",
      "type": "function"
    },
    {
      "inputs": [],
      "name": "initialize",
      "outputs": [],
      "stateMutability": "nonpayable",
      "type": "function"
    },
    {
      "inputs": [
        {
          "internalType": "address",
          "name": "",
          "type": "address"
        }
      ],
      "name": "isWhitelisted",
      "outputs": [
        {
          "internalType": "bool",
          "name": "",
          "type": "bool"
        }
      ],
      "stateMutability": "view",
      "type": "function"
    },
    {
      "inputs": [
        {
          "internalType": "bytes4",
          "name": "",
          "type": "bytes4"
        }
      ],
      "name": "rateLimits",
      "outputs": [
        {
          "internalType": "enum RateLimiter.LimitType",
          "name": "limitType",
          "type": "uint8"
        },
        {
          "internalType": "uint256",
          "name": "maxRequests",
          "type": "uint256"
        },
        {
          "internalType": "uint256",
          "name": "windowSize",
          "type": "uint256"
        },
        {
          "internalType": "uint256",
          "name": "refillRate",
          "type": "uint256"
        },
        {
          "internalType": "bool",
          "name": "active",
          "type": "bool"
        },
        {
          "internalType": "bool",
          "name": "globalLimit",
          "type": "bool"
        }
      ],
      "stateMutability": "view",
      "type": "function"
    },
    {
      "inputs": [
        {
          "internalType": "bytes32",
          "name": "role",
          "type": "bytes32"
        },
        {
          "internalType": "address",
          "name": "callerConfirmation",
          "type": "address"
        }
      ],
      "name": "renounceRole",
      "outputs": [],
      "stateMutability": "nonpayable",
      "type": "function"
    },
    {
      "inputs": [
        {
          "internalType": "bytes32",
          "name": "role",
          "type": "bytes32"
        },
        {
          "internalType": "address",
          "name": "account",
          "type": "address"
        }
      ],
      "name": "revokeRole",
      "outputs": [],
      "stateMutability": "nonpayable",
      "type": "function"
    },
    {
      "inputs": [
        {
          "internalType": "bytes4",
          "name": "selector",
          "type": "bytes4"
        },
        {
          "internalType": "string",
          "name": "functionName",
          "type": "string"
        },
        {
          "internalType": "enum RateLimiter.LimitType",
          "name": "limitType",
          "type": "uint8"
        },
        {
          "internalType": "uint256",
          "name": "maxRequests",
          "type": "uint256"
        },
        {
          "internalType": "uint256",
          "name": "windowSize",
          "type": "uint256"
        },
        {
          "internalType": "uint256",
          "name": "refillRate",
          "type": "uint256"
        },
        {
          "internalType": "bool",
          "name": "globalLimit",
          "type": "bool"
        }
      ],
      "name": "setRateLimit",
      "outputs": [],
      "stateMutability": "nonpayable",
      "type": "function"
    },
    {
      "inputs": [
        {
          "internalType": "bytes4",
          "name": "selector",
          "type": "bytes4"
        },
        {
          "internalType": "bool",
          "name": "active",
          "type": "bool"
        }
      ],
      "name": "setRateLimitActive",
      "outputs": [],
      "stateMutability": "nonpayable",
      "type": "function"
    },
    {
      "inputs": [
        {
          "internalType": "address",
          "name": "user",
          "type": "address"
        },
        {
          "internalType": "bool",
          "name": "whitelisted",
          "type": "bool"
        }
      ],
      "name": "setWhitelisted",
      "outputs": [],
      "stateMutability": "nonpayable",
      "type": "function"
    },
    {
      "inputs": [
        {
          "internalType": "bytes4",
          "name": "interfaceId",
          "type": "bytes4"
        }
      ],
      "name": "supportsInterface",
      "outputs": [
        {
          "internalType": "bool",
          "name": "",
          "type": "bool"
        }
      ],
      "stateMutability": "view",
      "type": "function"
    },
    {
      "inputs": [
        {
          "internalType": "address",
          "name": "",
          "type": "address"
        },
        {
          "internalType": "bytes4",
          "name": "",
          "type": "bytes4"
        }
      ],
      "name": "userLimits",
      "outputs": [
        {
          "internalType": "uint256",
          "name": "requestCount",
          "type": "uint256"
        },
        {
          "internalType": "uint256",
          "name": "lastRequest",
          "type": "uint256"
        },
        {
          "internalType": "uint256",
          "name": "windowStart",
          "type": "uint256"
        },
        {
          "internalType": "uint256",
          "name": "tokens",
          "type": "uint256"
        },
        {
          "internalType": "uint256",
          "name": "lastRefill",
          "type": "uint256"
        }
      ],
      "stateMutability": "view",
      "type": "function"
    }
  ],
  "bytecode": "0x6080806040523461001657611a26908161001c8239f35b600080fdfe608080604052600436101561001357600080fd5b60003560e01c90816301ffc9a714610f9b5750806305b285b7146104f1578063248a9ca314610f5f57806327149c2614610e6d5780632f2ff15d14610e2157806336568abe14610dda5780633ac4330814610d3b5780633af32abf14610cfc5780634c8c59d614610bd55780636b67c21214610b425780637100d8a4146106fc57806375b238fc146106c15780638129fc1c146105585780638e022a23146104f15780639186e8f51461047a57806391d14854146104205780639281aa0b146103a2578063a217fddf14610386578063c412184e14610350578063c87d40b3146102f9578063cb327b8b146102be578063d547741f14610270578063ded5cf6b146101ef5763ed2236651461012757600080fd5b346101ea5760403660031901126101ea57610140611080565b6001600160e01b0319610151611002565b169081600052600060205260ff60046040600020015460081c166000146101c45750600052600260205260406000205b8054600182015460028301546003840154600490940154604080519485526020850193909352918301526060820192909252608081019190915260a090f35b0390f35b60018060a01b031660005260016020526040600020906000526020526040600020610181565b600080fd5b346101ea5760203660031901126101ea57610208610feb565b6102106111fc565b63ffffffff60e01b16806000526002602052610248604060002060046000918281558260018201558260028201558260038201550155565b60007f47530418a9053a730463a86e1101e95683a737105276ee5e151264869b4da70e8180a3005b346101ea5760403660031901126101ea576102bc60043561028f61106a565b90806000526000805160206119fa8339815191526020526102b76001604060002001546112d2565b611562565b005b346101ea5760003660031901126101ea5760206040517f9f29eee2263c2102949fd3febafb3dd6dbbaee114f48a474222b2159942eb2b28152f35b346101ea5760403660031901126101ea576102bc610315610feb565b61031d61105b565b90610326611276565b63ffffffff60e01b16600052600060205260046040600020019060ff801983541691151516179055565b346101ea5760403660031901126101ea57602061037c61036e611080565b610376611002565b9061110a565b6040519015158152f35b346101ea5760003660031901126101ea57602060405160008152f35b346101ea5760403660031901126101ea576103bb611080565b7f995d2434d36c9bceaab42c56efe51e8ffe41fd11cabefd9e2cb83700d8b2035e60206103e661105b565b926103ef6111fc565b6001600160a01b031660008181526003835260409020805460ff191660ff86151516179055926040519015158152a2005b346101ea5760403660031901126101ea5761043961106a565b6004356000526000805160206119fa83398151915260205260406000209060018060a01b0316600052602052602060ff604060002054166040519015158152f35b346101ea5760203660031901126101ea576001600160e01b031961049c610feb565b166000526002602052604060002080546101c06001830154926002810154906004600382015491015491604051958695869192608093969594919660a084019784526020840152604083015260608201520152565b346101ea5760203660031901126101ea576001600160e01b0319610513610feb565b166000526000602052604060002060ff815416906101c0600182015491600281015493600460038301549201549160405195869560ff808660081c1695169387611026565b346101ea5760003660031901126101ea577ff0c57e16840df040f15088dc2f81fe391c3923bec73e23a9662efc9c229c6a00805460ff8160401c16159067ffffffffffffffff8116801590816106b9575b60011490816106af575b1590816106a6575b506106945767ffffffffffffffff198116600117835581610675575b506105e0611998565b6105e8611998565b6105f0611998565b60017f9b779b17422d0df92223018b32b4d1fa46e071723d6817e2486d003becc55f005561061d33611305565b5061062733611393565b5061063133611443565b5061063857005b68ff00000000000000001981541690557fc7f505b2f371ae2175ee4913f4499e1f2633a7b5936321eed1cdaeb6115181d2602060405160018152a1005b68ffffffffffffffffff191668010000000000000001178255826105d7565b60405163f92ee8a960e01b8152600490fd5b905015846105bb565b303b1591506105b3565b8391506105a9565b346101ea5760003660031901126101ea5760206040517fa49807205ce4d355092ef5a8a18f56e8913cf4a201fbe287825b095693c217758152f35b346101ea5760e03660031901126101ea57610715610feb565b67ffffffffffffffff80602435116101ea573660236024350112156101ea578060243560040135116101ea5736602480356004013581350101116101ea57600360443510156101ea5760a43560c435908115158092036101ea57610777611276565b60643515610afd5760843515610ab857600260443514610a6e575b6040519260c0840190811184821017610a585760405260443583526064356020840152608435604084015260608301526001608083015260a082015263ffffffff60e01b82166000526000602052604060002081516003811015610a425760a09160049160ff80198354169116178155602084015160018201556040840151600282015560608401516003820155019161083e60808201511515849060ff801983541691151516179055565b0151815461ff00191690151560081b61ff00161790556001600160e01b031981166000908152600460205260409020805461087890611096565b601f81116109ee575b506000601f602435600401351160011461096c576000906024356004013561095d575b506024356004013560011b906000196024356004013560031b1c19161790555b7f8a444cb9a59a206e0ece7751744be0ab82d2c01b6dc96505844cafda1ca0923c604051916080835260243560040135608084015260243560040135602480350160a0850137600060a0602435600401358501015261092860208401604435611019565b606435604084015260843560608401526001600160e01b0319169160046024350135601f01601f1916810181900360a00190a2005b602480925035010135836108a4565b601f196024356004013516908260005260206000209160005b8181106109d2575060243560040135116109af575b5050600160243560040135811b0190556108c4565b602460001960f882356004013560031b161c19918135010135169055828061099a565b9192602060018192602487813501013581550194019201610985565b816000526020600020601f602435600401350160051c81019160206024356004013510610a38575b601f0160051c01905b818110610a2c5750610881565b60008155600101610a1f565b9091508190610a16565b634e487b7160e01b600052602160045260246000fd5b634e487b7160e01b600052604160045260246000fd5b806107925760405162461bcd60e51b815260206004820152601760248201527f526566696c6c2072617465206d757374206265203e20300000000000000000006044820152606490fd5b60405162461bcd60e51b815260206004820152601760248201527f57696e646f772073697a65206d757374206265203e20300000000000000000006044820152606490fd5b60405162461bcd60e51b815260206004820152601860248201527f4d6178207265717565737473206d757374206265203e203000000000000000006044820152606490fd5b346101ea5760403660031901126101ea57610b5b611080565b610b63611002565b9060018060a01b0316600052600160205260406000209063ffffffff60e01b16600052602052604060002080546101c06001830154926002810154906004600382015491015491604051958695869192608093969594919660a084019784526020840152604083015260608201520152565b346101ea576020806003193601126101ea576001600160e01b0319610bf8610feb565b166000526004815260406000206040516000838354610c1681611096565b80855294600191808316908115610cdb5750600114610ca4575b505050819250601f801993849203011681019281841067ffffffffffffffff851117610a58579183919282604052808352835190818185015260005b828110610c8d5750506040935080600085601f938601015201168101030190f35b808601820151878201604001528694508101610c6c565b6000908152828120929350915b858310610cc8575050828094500101838580610c30565b8054858401850152918301918101610cb1565b92505050839491925060ff191682840152151560051b820101838580610c30565b346101ea5760203660031901126101ea576001600160a01b03610d1d611080565b166000526003602052602060ff604060002054166040519015158152f35b346101ea5760403660031901126101ea57610d54611080565b610d5c611002565b90610d656111fc565b60018060a01b031680600052600160205260406000209163ffffffff60e01b169182600052602052610db3604060002060046000918281558260018201558260028201558260038201550155565b7f47530418a9053a730463a86e1101e95683a737105276ee5e151264869b4da70e600080a3005b346101ea5760403660031901126101ea57610df361106a565b336001600160a01b03821603610e0f576102bc90600435611562565b60405163334bd91960e11b8152600490fd5b346101ea5760403660031901126101ea576102bc600435610e4061106a565b90806000526000805160206119fa833981519152602052610e686001604060002001546112d2565b6114ed565b346101ea5760403660031901126101ea5760043567ffffffffffffffff8082116101ea57366023830112156101ea5781600401359081116101ea576024820191602436918360051b0101116101ea57610ec461105b565b90610ecd6111fc565b8115159060005b818110610edd57005b6001906001600160a01b0380610efc610ef784878b6110d0565b6110f6565b166000527f995d2434d36c9bceaab42c56efe51e8ffe41fd11cabefd9e2cb83700d8b2035e60209160038352610f428860406000209060ff801983541691151516179055565b610f50610ef785888c6110d0565b1691604051878152a201610ed4565b346101ea5760203660031901126101ea576004356000526000805160206119fa8339815191526020526020600160406000200154604051908152f35b346101ea5760203660031901126101ea576020906001600160e01b0319610fc0610feb565b16637965db0b60e01b8114908115610fda575b5015158152f35b6301ffc9a760e01b14905083610fd3565b600435906001600160e01b0319821682036101ea57565b602435906001600160e01b0319821682036101ea57565b906003821015610a425752565b94919260a0949197969361103e8760c081019a611019565b602087015260408601526060850152151560808401521515910152565b6024359081151582036101ea57565b602435906001600160a01b03821682036101ea57565b600435906001600160a01b03821682036101ea57565b90600182811c921680156110c6575b60208310146110b057565b634e487b7160e01b600052602260045260246000fd5b91607f16916110a5565b91908110156110e05760051b0190565b634e487b7160e01b600052603260045260246000fd5b356001600160a01b03811681036101ea5790565b6001600160a01b0381166000818152600360205260408120549293909260ff166111f35763ffffffff60e01b8116808452836020526040842092600484015460ff8116156111e75760081c60ff16156111cc57508352600260205260408320925b60ff8354169060038210156111b857508061118d575061118a936118e6565b90565b6001810361119f575061118a936117c8565b6002146111af5750505050600190565b61118a936116be565b634e487b7160e01b81526021600452602490fd5b8452600160205260408420908452602052604083209261116b565b50505050505050600190565b50505050600190565b3360009081527fb16e88c42fd4e48df2dd6a2eabd6bc9aec654ec170056b470819f8892cc6431c60205260409020547fa49807205ce4d355092ef5a8a18f56e8913cf4a201fbe287825b095693c217759060ff16156112585750565b6044906040519063e2517d3f60e01b82523360048301526024820152fd5b3360009081527f40274f519fa10b2a31f251aba3ca8ea626d05865e2e5f8eed61b617fd4f8ada860205260409020547f9f29eee2263c2102949fd3febafb3dd6dbbaee114f48a474222b2159942eb2b29060ff16156112585750565b806000526000805160206119fa83398151915260205260406000203360005260205260ff60406000205416156112585750565b6001600160a01b031660008181527fb7db2dd08fcb62d0c9e08c51941cae53c267786a0b75803fb7960902fc8ef97d60205260408120549091906000805160206119fa8339815191529060ff1661138e578280526020526040822081835260205260408220600160ff1982541617905533916000805160206119da8339815191528180a4600190565b505090565b6001600160a01b031660008181527fb16e88c42fd4e48df2dd6a2eabd6bc9aec654ec170056b470819f8892cc6431c60205260408120549091907fa49807205ce4d355092ef5a8a18f56e8913cf4a201fbe287825b095693c21775906000805160206119fa8339815191529060ff1661143d578184526020526040832082845260205260408320600160ff198254161790556000805160206119da833981519152339380a4600190565b50505090565b6001600160a01b031660008181527f40274f519fa10b2a31f251aba3ca8ea626d05865e2e5f8eed61b617fd4f8ada860205260408120549091907f9f29eee2263c2102949fd3febafb3dd6dbbaee114f48a474222b2159942eb2b2906000805160206119fa8339815191529060ff1661143d578184526020526040832082845260205260408320600160ff198254161790556000805160206119da833981519152339380a4600190565b906000918083526000805160206119fa83398151915280602052604084209260018060a01b03169283855260205260ff6040852054161560001461143d578184526020526040832082845260205260408320600160ff198254161790556000805160206119da833981519152339380a4600190565b906000918083526000805160206119fa83398151915280602052604084209260018060a01b03169283855260205260ff60408520541660001461143d57818452602052604083208284526020526040832060ff1981541690557ff6391f5c32d9c69d2a47ea670b442974b53935d1edc7fd64eb21e047a839171b339380a4600190565b919082039182116115f257565b634e487b7160e01b600052601160045260246000fd5b818102929181159184041417156115f257565b919082018092116115f257565b80546000939261163782611096565b9182825260209360019160018116908160001461169f575060011461165e575b5050505050565b90939495506000929192528360002092846000945b83861061168b57505050500101903880808080611657565b805485870183015294019385908201611673565b60ff19168685015250505090151560051b010191503880808080611657565b60048401918254156117a7575b6116e46116d98454426115e5565b600386015490611608565b936003860194855460016116f8838361161b565b930154809311600014611797575050925b83855542905582156117275750506000190190554260019182015590565b925092505063ffffffff60e01b16908160005260046020527fdbda6225be8382b7861610b6da4dc101c69e849a697a01a3d88f20d4cf03285961177c6040600020604051918291604083526040830190611628565b600060208301526001600160a01b03909416930390a3600090565b6117a1925061161b565b92611709565b600184015460038601554283556116cb565b60001981146115f25760010190565b92919092600183019384546002840154906117e3828261161b565b421115611890575050600084555b6001845493015483101561181457505061180a906117b9565b9055429055600190565b6001600160e01b03191660008181526004602052604090209094506001830193509183106115f2577fdbda6225be8382b7861610b6da4dc101c69e849a697a01a3d88f20d4cf0328599161187691604051928392604084526040840190611628565b60208301959095526001600160a01b0316930390a3600090565b61189a90426115e5565b906118a786549283611608565b81156118d057048181106118c0575050600084556117f1565b6118c9916115e5565b84556117f1565b634e487b7160e01b600052601260045260246000fd5b90600284016118fb815460028601549061161b565b42101561198b575b506001845493015483101561192a57505061191d906117b9565b8155600142910155600190565b90925063ffffffff60e01b1691826000526004602052604060002090600183018093116115f2577fdbda6225be8382b7861610b6da4dc101c69e849a697a01a3d88f20d4cf0328599161187691604051928392604084526040840190611628565b4290556000845538611903565b60ff7ff0c57e16840df040f15088dc2f81fe391c3923bec73e23a9662efc9c229c6a005460401c16156119c757565b604051631afcd79f60e31b8152600490fdfe2f8788117e7eff1d82e926ec794901d17c78024a50270940304540a733656f0d02dd7bc7dec4dceedda775e58dd541e08a116c6c53815c0bd028192f7b626800a164736f6c6343000816000a",
  "linkReferences": {},
  "deployedLinkReferences": {}
}