{
  "_format": "hh-sol-artifact-1",
  "contractName": "OnboardingQuests",
  "sourceName": "contracts/OnboardingQuests.sol",
  "abi": [
    {
      "inputs": [],
      "name": "AccessControlBadConfirmation",
      "type": "error"
    },
    {
      "inputs": [
        {
          "internalType": "address",
          "name": "account",
          "type": "address"
        },
        {
          "internalType": "bytes32",
          "name": "neededRole",
          "type": "bytes32"
        }
      ],
      "name": "AccessControlUnauthorizedAccount",
      "type": "error"
    },
    {
      "inputs": [
        {
          "internalType": "address",
          "name": "target",
          "type": "address"
        }
      ],
      "name": "AddressEmptyCode",
      "type": "error"
    },
    {
      "inputs": [
        {
          "internalType": "address",
          "name": "implementation",
          "type": "address"
        }
      ],
      "name": "ERC1967InvalidImplementation",
      "type": "error"
    },
    {
      "inputs": [],
      "name": "ERC1967NonPayable",
      "type": "error"
    },
    {
      "inputs": [],
      "name": "EnforcedPause",
      "type": "error"
    },
    {
      "inputs": [],
      "name": "ExpectedPause",
      "type": "error"
    },
    {
      "inputs": [],
      "name": "FailedCall",
      "type": "error"
    },
    {
      "inputs": [],
      "name": "InvalidInitialization",
      "type": "error"
    },
    {
      "inputs": [],
      "name": "InvalidStep",
      "type": "error"
    },
    {
      "inputs": [],
      "name": "MustCompleteInOrder",
      "type": "error"
    },
    {
      "inputs": [],
      "name": "NotInitializing",
      "type": "error"
    },
    {
      "inputs": [],
      "name": "OnboardingAlreadyStarted",
      "type": "error"
    },
    {
      "inputs": [],
      "name": "OnboardingNotStarted",
      "type": "error"
    },
    {
      "inputs": [],
      "name": "ReentrancyGuardReentrantCall",
      "type": "error"
    },
    {
      "inputs": [],
      "name": "StepAlreadyCompleted",
      "type": "error"
    },
    {
      "inputs": [],
      "name": "StepNotActive",
      "type": "error"
    },
    {
      "inputs": [],
      "name": "StepTimeLimitExceeded",
      "type": "error"
    },
    {
      "inputs": [],
      "name": "UUPSUnauthorizedCallContext",
      "type": "error"
    },
    {
      "inputs": [
        {
          "internalType": "bytes32",
          "name": "slot",
          "type": "bytes32"
        }
      ],
      "name": "UUPSUnsupportedProxiableUUID",
      "type": "error"
    },
    {
      "anonymous": false,
      "inputs": [
        {
          "indexed": false,
          "internalType": "uint64",
          "name": "version",
          "type": "uint64"
        }
      ],
      "name": "Initialized",
      "type": "event"
    },
    {
      "anonymous": false,
      "inputs": [
        {
          "indexed": true,
          "internalType": "address",
          "name": "user",
          "type": "address"
        },
        {
          "indexed": false,
          "internalType": "uint256",
          "name": "totalXP",
          "type": "uint256"
        },
        {
          "indexed": false,
          "internalType": "uint256",
          "name": "completionTime",
          "type": "uint256"
        }
      ],
      "name": "OnboardingCompleted",
      "type": "event"
    },
    {
      "anonymous": false,
      "inputs": [
        {
          "indexed": true,
          "internalType": "address",
          "name": "user",
          "type": "address"
        },
        {
          "indexed": false,
          "internalType": "uint256",
          "name": "timestamp",
          "type": "uint256"
        }
      ],
      "name": "OnboardingStarted",
      "type": "event"
    },
    {
      "anonymous": false,
      "inputs": [
        {
          "indexed": false,
          "internalType": "address",
          "name": "account",
          "type": "address"
        }
      ],
      "name": "Paused",
      "type": "event"
    },
    {
      "anonymous": false,
      "inputs": [
        {
          "indexed": true,
          "internalType": "bytes32",
          "name": "role",
          "type": "bytes32"
        },
        {
          "indexed": true,
          "internalType": "bytes32",
          "name": "previousAdminRole",
          "type": "bytes32"
        },
        {
          "indexed": true,
          "internalType": "bytes32",
          "name": "newAdminRole",
          "type": "bytes32"
        }
      ],
      "name": "RoleAdminChanged",
      "type": "event"
    },
    {
      "anonymous": false,
      "inputs": [
        {
          "indexed": true,
          "internalType": "bytes32",
          "name": "role",
          "type": "bytes32"
        },
        {
          "indexed": true,
          "internalType": "address",
          "name": "account",
          "type": "address"
        },
        {
          "indexed": true,
          "internalType": "address",
          "name": "sender",
          "type": "address"
        }
      ],
      "name": "RoleGranted",
      "type": "event"
    },
    {
      "anonymous": false,
      "inputs": [
        {
          "indexed": true,
          "internalType": "bytes32",
          "name": "role",
          "type": "bytes32"
        },
        {
          "indexed": true,
          "internalType": "address",
          "name": "account",
          "type": "address"
        },
        {
          "indexed": true,
          "internalType": "address",
          "name": "sender",
          "type": "address"
        }
      ],
      "name": "RoleRevoked",
      "type": "event"
    },
    {
      "anonymous": false,
      "inputs": [
        {
          "indexed": true,
          "internalType": "address",
          "name": "user",
          "type": "address"
        },
        {
          "indexed": false,
          "internalType": "enum OnboardingQuests.OnboardingStep",
          "name": "step",
          "type": "uint8"
        },
        {
          "indexed": false,
          "internalType": "uint256",
          "name": "xpAwarded",
          "type": "uint256"
        },
        {
          "indexed": false,
          "internalType": "uint256",
          "name": "badgeId",
          "type": "uint256"
        }
      ],
      "name": "StepCompleted",
      "type": "event"
    },
    {
      "anonymous": false,
      "inputs": [
        {
          "indexed": false,
          "internalType": "enum OnboardingQuests.OnboardingStep",
          "name": "step",
          "type": "uint8"
        },
        {
          "indexed": false,
          "internalType": "string",
          "name": "title",
          "type": "string"
        },
        {
          "indexed": false,
          "internalType": "uint256",
          "name": "xpReward",
          "type": "uint256"
        }
      ],
      "name": "StepConfigUpdated",
      "type": "event"
    },
    {
      "anonymous": false,
      "inputs": [
        {
          "indexed": false,
          "internalType": "address",
          "name": "account",
          "type": "address"
        }
      ],
      "name": "Unpaused",
      "type": "event"
    },
    {
      "anonymous": false,
      "inputs": [
        {
          "indexed": true,
          "internalType": "address",
          "name": "implementation",
          "type": "address"
        }
      ],
      "name": "Upgraded",
      "type": "event"
    },
    {
      "inputs": [],
      "name": "ADMIN_ROLE",
      "outputs": [
        {
          "internalType": "bytes32",
          "name": "",
          "type": "bytes32"
        }
      ],
      "stateMutability": "view",
      "type": "function"
    },
    {
      "inputs": [],
      "name": "DEFAULT_ADMIN_ROLE",
      "outputs": [
        {
          "internalType": "bytes32",
          "name": "",
          "type": "bytes32"
        }
      ],
      "stateMutability": "view",
      "type": "function"
    },
    {
      "inputs": [],
      "name": "QUEST_MANAGER_ROLE",
      "outputs": [
        {
          "internalType": "bytes32",
          "name": "",
          "type": "bytes32"
        }
      ],
      "stateMutability": "view",
      "type": "function"
    },
    {
      "inputs": [],
      "name": "UPGRADER_ROLE",
      "outputs": [
        {
          "internalType": "bytes32",
          "name": "",
          "type": "bytes32"
        }
      ],
      "stateMutability": "view",
      "type": "function"
    },
    {
      "inputs": [],
      "name": "UPGRADE_INTERFACE_VERSION",
      "outputs": [
        {
          "internalType": "string",
          "name": "",
          "type": "string"
        }
      ],
      "stateMutability": "view",
      "type": "function"
    },
    {
      "inputs": [],
      "name": "badgeMinter",
      "outputs": [
        {
          "internalType": "contract IBadgeMinter",
          "name": "",
          "type": "address"
        }
      ],
      "stateMutability": "view",
      "type": "function"
    },
    {
      "inputs": [
        {
          "internalType": "enum OnboardingQuests.OnboardingStep",
          "name": "step",
          "type": "uint8"
        }
      ],
      "name": "completeStep",
      "outputs": [],
      "stateMutability": "nonpayable",
      "type": "function"
    },
    {
      "inputs": [
        {
          "internalType": "address",
          "name": "user",
          "type": "address"
        }
      ],
      "name": "getNextStep",
      "outputs": [
        {
          "internalType": "enum OnboardingQuests.OnboardingStep",
          "name": "step",
          "type": "uint8"
        },
        {
          "components": [
            {
              "internalType": "string",
              "name": "title",
              "type": "string"
            },
            {
              "internalType": "string",
              "name": "description",
              "type": "string"
            },
            {
              "internalType": "string",
              "name": "instructions",
              "type": "string"
            },
            {
              "internalType": "uint256",
              "name": "xpReward",
              "type": "uint256"
            },
            {
              "internalType": "string",
              "name": "badgeURI",
              "type": "string"
            },
            {
              "internalType": "bool",
              "name": "isActive",
              "type": "bool"
            },
            {
              "internalType": "uint256",
              "name": "timeLimit",
              "type": "uint256"
            }
          ],
          "internalType": "struct OnboardingQuests.StepConfig",
          "name": "config",
          "type": "tuple"
        }
      ],
      "stateMutability": "view",
      "type": "function"
    },
    {
      "inputs": [],
      "name": "getOnboardingStats",
      "outputs": [
        {
          "internalType": "uint256",
          "name": "totalStarted",
          "type": "uint256"
        },
        {
          "internalType": "uint256",
          "name": "totalCompleted",
          "type": "uint256"
        },
        {
          "internalType": "uint256",
          "name": "completionRate",
          "type": "uint256"
        }
      ],
      "stateMutability": "view",
      "type": "function"
    },
    {
      "inputs": [
        {
          "internalType": "bytes32",
          "name": "role",
          "type": "bytes32"
        }
      ],
      "name": "getRoleAdmin",
      "outputs": [
        {
          "internalType": "bytes32",
          "name": "",
          "type": "bytes32"
        }
      ],
      "stateMutability": "view",
      "type": "function"
    },
    {
      "inputs": [
        {
          "internalType": "address",
          "name": "user",
          "type": "address"
        }
      ],
      "name": "getUserProgress",
      "outputs": [
        {
          "internalType": "uint256",
          "name": "currentStep",
          "type": "uint256"
        },
        {
          "internalType": "uint256",
          "name": "completedSteps",
          "type": "uint256"
        },
        {
          "internalType": "uint256",
          "name": "totalXPEarned",
          "type": "uint256"
        },
        {
          "internalType": "bool",
          "name": "isCompleted",
          "type": "bool"
        },
        {
          "internalType": "uint256",
          "name": "startedAt",
          "type": "uint256"
        }
      ],
      "stateMutability": "view",
      "type": "function"
    },
    {
      "inputs": [
        {
          "internalType": "bytes32",
          "name": "role",
          "type": "bytes32"
        },
        {
          "internalType": "address",
          "name": "account",
          "type": "address"
        }
      ],
      "name": "grantRole",
      "outputs": [],
      "stateMutability": "nonpayable",
      "type": "function"
    },
    {
      "inputs": [
        {
          "internalType": "bytes32",
          "name": "role",
          "type": "bytes32"
        },
        {
          "internalType": "address",
          "name": "account",
          "type": "address"
        }
      ],
      "name": "hasRole",
      "outputs": [
        {
          "internalType": "bool",
          "name": "",
          "type": "bool"
        }
      ],
      "stateMutability": "view",
      "type": "function"
    },
    {
      "inputs": [
        {
          "internalType": "address",
          "name": "_xpEngineAddress",
          "type": "address"
        },
        {
          "internalType": "address",
          "name": "_badgeMinterAddress",
          "type": "address"
        }
      ],
      "name": "initialize",
      "outputs": [],
      "stateMutability": "nonpayable",
      "type": "function"
    },
    {
      "inputs": [],
      "name": "pause",
      "outputs": [],
      "stateMutability": "nonpayable",
      "type": "function"
    },
    {
      "inputs": [],
      "name": "paused",
      "outputs": [
        {
          "internalType": "bool",
          "name": "",
          "type": "bool"
        }
      ],
      "stateMutability": "view",
      "type": "function"
    },
    {
      "inputs": [],
      "name": "proxiableUUID",
      "outputs": [
        {
          "internalType": "bytes32",
          "name": "",
          "type": "bytes32"
        }
      ],
      "stateMutability": "view",
      "type": "function"
    },
    {
      "inputs": [
        {
          "internalType": "bytes32",
          "name": "role",
          "type": "bytes32"
        },
        {
          "internalType": "address",
          "name": "callerConfirmation",
          "type": "address"
        }
      ],
      "name": "renounceRole",
      "outputs": [],
      "stateMutability": "nonpayable",
      "type": "function"
    },
    {
      "inputs": [
        {
          "internalType": "bytes32",
          "name": "role",
          "type": "bytes32"
        },
        {
          "internalType": "address",
          "name": "account",
          "type": "address"
        }
      ],
      "name": "revokeRole",
      "outputs": [],
      "stateMutability": "nonpayable",
      "type": "function"
    },
    {
      "inputs": [],
      "name": "startOnboarding",
      "outputs": [],
      "stateMutability": "nonpayable",
      "type": "function"
    },
    {
      "inputs": [
        {
          "internalType": "enum OnboardingQuests.OnboardingStep",
          "name": "",
          "type": "uint8"
        }
      ],
      "name": "stepCompletionCounts",
      "outputs": [
        {
          "internalType": "uint256",
          "name": "",
          "type": "uint256"
        }
      ],
      "stateMutability": "view",
      "type": "function"
    },
    {
      "inputs": [
        {
          "internalType": "enum OnboardingQuests.OnboardingStep",
          "name": "",
          "type": "uint8"
        }
      ],
      "name": "stepConfigs",
      "outputs": [
        {
          "internalType": "string",
          "name": "title",
          "type": "string"
        },
        {
          "internalType": "string",
          "name": "description",
          "type": "string"
        },
        {
          "internalType": "string",
          "name": "instructions",
          "type": "string"
        },
        {
          "internalType": "uint256",
          "name": "xpReward",
          "type": "uint256"
        },
        {
          "internalType": "string",
          "name": "badgeURI",
          "type": "string"
        },
        {
          "internalType": "bool",
          "name": "isActive",
          "type": "bool"
        },
        {
          "internalType": "uint256",
          "name": "timeLimit",
          "type": "uint256"
        }
      ],
      "stateMutability": "view",
      "type": "function"
    },
    {
      "inputs": [
        {
          "internalType": "bytes4",
          "name": "interfaceId",
          "type": "bytes4"
        }
      ],
      "name": "supportsInterface",
      "outputs": [
        {
          "internalType": "bool",
          "name": "",
          "type": "bool"
        }
      ],
      "stateMutability": "view",
      "type": "function"
    },
    {
      "inputs": [],
      "name": "totalUsersCompleted",
      "outputs": [
        {
          "internalType": "uint256",
          "name": "",
          "type": "uint256"
        }
      ],
      "stateMutability": "view",
      "type": "function"
    },
    {
      "inputs": [],
      "name": "totalUsersStarted",
      "outputs": [
        {
          "internalType": "uint256",
          "name": "",
          "type": "uint256"
        }
      ],
      "stateMutability": "view",
      "type": "function"
    },
    {
      "inputs": [],
      "name": "unpause",
      "outputs": [],
      "stateMutability": "nonpayable",
      "type": "function"
    },
    {
      "inputs": [
        {
          "internalType": "enum OnboardingQuests.OnboardingStep",
          "name": "step",
          "type": "uint8"
        },
        {
          "internalType": "string",
          "name": "title",
          "type": "string"
        },
        {
          "internalType": "string",
          "name": "description",
          "type": "string"
        },
        {
          "internalType": "string",
          "name": "instructions",
          "type": "string"
        },
        {
          "internalType": "uint256",
          "name": "xpReward",
          "type": "uint256"
        },
        {
          "internalType": "string",
          "name": "badgeURI",
          "type": "string"
        },
        {
          "internalType": "bool",
          "name": "isActive",
          "type": "bool"
        },
        {
          "internalType": "uint256",
          "name": "timeLimit",
          "type": "uint256"
        }
      ],
      "name": "updateStepConfig",
      "outputs": [],
      "stateMutability": "nonpayable",
      "type": "function"
    },
    {
      "inputs": [
        {
          "internalType": "address",
          "name": "newImplementation",
          "type": "address"
        },
        {
          "internalType": "bytes",
          "name": "data",
          "type": "bytes"
        }
      ],
      "name": "upgradeToAndCall",
      "outputs": [],
      "stateMutability": "payable",
      "type": "function"
    },
    {
      "inputs": [
        {
          "internalType": "address",
          "name": "",
          "type": "address"
        }
      ],
      "name": "userProgress",
      "outputs": [
        {
          "internalType": "uint256",
          "name": "currentStep",
          "type": "uint256"
        },
        {
          "internalType": "uint256",
          "name": "completedSteps",
          "type": "uint256"
        },
        {
          "internalType": "uint256",
          "name": "totalXPEarned",
          "type": "uint256"
        },
        {
          "internalType": "uint256",
          "name": "startedAt",
          "type": "uint256"
        },
        {
          "internalType": "bool",
          "name": "isCompleted",
          "type": "bool"
        }
      ],
      "stateMutability": "view",
      "type": "function"
    },
    {
      "inputs": [],
      "name": "xpEngine",
      "outputs": [
        {
          "internalType": "contract IXPEngine",
          "name": "",
          "type": "address"
        }
      ],
      "stateMutability": "view",
      "type": "function"
    }
  ],
  "bytecode": "0x60a0806040523461002a573060805261410c9081610030823960805181818161127f01526113390152f35b600080fdfe608080604052600436101561001357600080fd5b600090813560e01c90816301ffc9a71461380957508063041ec21f1461377f5780630809110e1461374c5780631ad27113146136815780632445419714613663578063248a9ca3146136295780632677cbfa1461360b5780632f2ff15d146135c057806336568abe146135785780633f4ba83a14613500578063485cc955146115725780634f1ef286146112e957806352d1902d1461126c5780635c975abb1461123c57806366f75687146112015780636bf0a357146111695780636e131ad61461114257806372c31bcd14610c6257806375b238fc14610c275780638456cb5914610bbf5780638e4cc10814610b5457806391d1485414610afb578063a217fddf14610adf578063ad3cb1cc14610a95578063b2368e15146108cf578063bb3cbae114610864578063bc7b395a14610220578063d547741f146101d1578063f72c0d8b146101965763fdcacdb31461016b57600080fd5b346101935780600319360112610193576001546040516001600160a01b039091168152602090f35b80fd5b503461019357806003193601126101935760206040517f189ab7a9244df0848122154315af71fe140f3db0fe014031783b0946b8c9d2e38152f35b50346101935760403660031901126101935761021c6004356101f1613a60565b908084526000805160206140808339815191526020526102176001604086200154613bb5565b613eef565b5080f35b5034610193576101003660031901126101935760056004351015610193576024356001600160401b0381116108605761025d903690600401613aeb565b6044356001600160401b03811161085c5761027c903690600401613aeb565b6064356001600160401b0381116108585761029b903690600401613aeb565b60a4356001600160401b038111610854576102ba903690600401613aeb565b60c43591821515809303610850576102d0613b3b565b604051936102dd856138e0565b858552602085015260408401526084356060840152608083015260a082015260e43560c082015261030f60043561388d565b9080518051906001600160401b0382116105e757819061032f85546138a6565b601f8111610803575b50602090601f831160011461079a57879261078f575b50508160011b916000199060031b1c19161782555b60208101518051906001600160401b0382116105e757819061038860018601546138a6565b601f811161073f575b50602090601f83116001146106d05787926106c5575b50508160011b916000199060031b1c19161760018301555b60408101518051906001600160401b0382116105e75781906103e460028601546138a6565b601f8111610675575b50602090601f83116001146106065787926105fb575b50508160011b916000199060031b1c19161760028301555b6060810151600383015560808101518051906001600160401b0382116105e75761044860048501546138a6565b601f81116105a3575b50602090601f831160011461050e577f552f975832c524b006df19d87446f4870830358caa84ff762102bf156691d8a59593836104f5969460069460c0948b92610503575b50508160011b916000199060031b1c19161760048501555b6104cd60a08201511515600586019060ff801983541691151516179055565b01519101556040519182916104e483600435613ade565b606060208401526060830190613a20565b60843560408301520390a180f35b015190503880610496565b600485018752602087209190601f198416885b81811061058b57508460069460c0947f552f975832c524b006df19d87446f4870830358caa84ff762102bf156691d8a59a98946104f59a9860019510610572575b505050811b0160048501556104ae565b015160001960f88460031b161c19169055388080610562565b92936020600181928786015181550195019301610521565b60048501875260208720601f840160051c8101602085106105e0575b601f830160051c820181106105d5575050610451565b8881556001016105bf565b50806105bf565b634e487b7160e01b86526041600452602486fd5b015190503880610403565b9250600285018752602087209087935b601f198416851061065a576001945083601f19811610610641575b505050811b01600283015561041b565b015160001960f88460031b161c19169055388080610631565b81810151835560209485019460019093019290910190610616565b90915060028501875260208720601f840160051c8101602085106106be575b90849392915b601f830160051c820181106106b05750506103ed565b89815585945060010161069a565b5080610694565b0151905038806103a7565b9250600185018752602087209087935b601f1984168510610724576001945083601f1981161061070b575b505050811b0160018301556103bf565b015160001960f88460031b161c191690553880806106fb565b818101518355602094850194600190930192909101906106e0565b90915060018501875260208720601f840160051c810160208510610788575b90849392915b601f830160051c8201811061077a575050610391565b898155859450600101610764565b508061075e565b01519050388061034e565b9250848752602087209087935b601f19841685106107e8576001945083601f198116106107cf575b505050811b018255610363565b015160001960f88460031b161c191690553880806107c2565b818101518355602094850194600190930192909101906107a7565b90915084875260208720601f840160051c810160208510610849575b90849392915b601f830160051c8201811061083b575050610338565b898155859450600101610825565b508061081f565b8580fd5b8480fd5b8380fd5b8280fd5b5080fd5b50346101935760203660031901126101935760a0906040906001600160a01b0361088c613a76565b168152600360205220805490600181015490600281015460ff60046003840154930154169260405194855260208501526040840152606083015215156080820152f35b5034610193576020366003190112610193576108e9613a76565b90604051916108f7836138e0565b8160c060609485815285602082015285604082015282868201528560808201528260a0820152015260018060a01b0316815260036020526040812060ff6004820154168015610a89575b610a775754906005821015610a63575061095a8161388d565b60405192610967846138e0565b6109708261397b565b845261097e6001830161397b565b60208501908152906109926002840161397b565b604086019081526003840154828701908152906109b16004860161397b565b9060808801918252600586015460ff169560a089019615158752600601549460c08901958652604051986109e68a809a613ade565b6020890160409052516040890160e090526101208901610a0591613a20565b905190603f1995868a830301908a0152610a1e91613a20565b90519084888203016080890152610a3491613a20565b915160a087015251918582030160c0860152610a4f91613a20565b9151151560e0840152516101008301520390f35b634e487b7160e01b81526021600452602490fd5b6040516328cda61560e01b8152600490fd5b50600581541015610941565b5034610193578060031936011261019357610adb604051610ab581613924565b60058152640352e302e360dc1b6020820152604051918291602083526020830190613a20565b0390f35b5034610193578060031936011261019357602090604051908152f35b5034610193576040366003190112610193576040610b17613a60565b916004358152600080516020614080833981519152602052209060018060a01b0316600052602052602060ff604060002054166040519015158152f35b50346101935760203660031901126101935760a0906040906001600160a01b03610b7c613a76565b1681526003602052208054906001810154906002810154600360ff6004840154169201549260405194855260208501526040840152151560608301526080820152f35b5034610193578060031936011261019357610bd8613b3b565b610be0613f72565b6000805160206140a0833981519152600160ff198254161790557f62e78cea01bee320cd4e420270b5ea74000d11b0c9f74754ebdbfc544b05a2586020604051338152a180f35b503461019357806003193601126101935760206040517fa49807205ce4d355092ef5a8a18f56e8913cf4a201fbe287825b095693c217758152f35b503461019357602080600319360112610860576005906004358281101561085857610c8b613f72565b610c93613f9d565b3384526003825260408420926003840190815492831561113057600486019060ff82541661111e57338852600386526001968760408a2001549188811b80931661110c5760ff85610ce38361388d565b015416156110fa57815481036110e8578492610cfe8261388d565b9060c060405199610d0e8b6138e0565b610d178461397b565b8b52610d248d850161397b565b8c8c0152610d346002850161397b565b60408c015260038401549a606081019b8c526006610d546004870161397b565b956080830196875260ff8a82015416151560a084015201549283910152816110bc575b50508a8401908154179055818b5283830189524260408c2055610d9a8354613b09565b8355875197610dae60028501998a54613b2e565b8955610db98361385e565b610dc38154613b09565b90558b815180611046575b508a8193518051610fae575b50505051610deb6040518094613ade565b8983015260408201527f63f603012d8bf20d5d347bcbc14fa81a0c024a525208db1794a5eb9d1234746360603392a2541015610e37575b86866000805160206140c08339815191525580f35b8560ff19825416179055610e4b8154613b09565b905554420390428211610f9a575490604051918252828201527fc278ac4bbad8da059c687041897ffae41d72d7885e19cf3b31b6999ddeb2b97b60403392a2825483906001600160a01b0390811690813b1561085c57828092604460405180958193630c4f349360e01b83523360048401526101f460248401525af18015610f8f5784928491610f76575b5050845416608460405180948193630d6575f960e31b835233600484015260406024840152601c60448401527f697066733a2f2f6261646765732f666f7267652d696e6974696174650000000060648401525af18015610f6b57610f3d575b808080610e22565b813d8311610f64575b610f50818361395a565b81010312610f5f573880610f35565b600080fd5b503d610f46565b6040513d86823e3d90fd5b610f8291929350613911565b6108605782908238610ed6565b6040513d85823e3d90fd5b634e487b7160e01b85526011600452602485fd5b90929350610fed91965060018060a01b038d541690604051978880948193630d6575f960e31b8352336004840152604060248401526044830190613a20565b03925af1801561103b5786948c9161100a575b50908b8a38610dda565b8095508a8092503d8311611034575b611023818361395a565b81010312610f5f5785935138611000565b503d611019565b6040513d8d823e3d90fd5b9091929394955060018060a01b03825416803b1561085c57604483926040519485938492630c4f349360e01b845233600485015260248401525af180156110b157611098575b908b8795949392610dce565b9a6110a787959493929c613911565b9a9091929361108c565b6040513d8e823e3d90fd5b6110c7929650613b2e565b42116110d65785933880610d77565b604051631680a2e960e21b8152600490fd5b604051634c16f24b60e01b8152600490fd5b60405163ee99fcc360e01b8152600490fd5b604051639366b0bf60e01b8152600490fd5b60405163205c9f3160e21b8152600490fd5b6040516305ed8d0f60e31b8152600490fd5b5034610193578060031936011261019357546040516001600160a01b039091168152602090f35b5034610193578060031936011261019357611182613f72565b61118a613f9d565b3381526003602052600360408220015461111e5733815260036020528060408120426003820155556111bd600454613b09565b6004556040514281527f565e6c2bace1476232afa74833136020cc07f31bcac3b25b220bddb57d418e8d60203392a260016000805160206140c08339815191525580f35b503461019357806003193601126101935760206040517fc76a12ea3bbc29d28ade8cd9cea2ef1b869cd4aab844b5075c9ff73b4186bd718152f35b5034610193578060031936011261019357602060ff6000805160206140a083398151915254166040519015158152f35b50346101935780600319360112610193577f00000000000000000000000000000000000000000000000000000000000000006001600160a01b031630036112d75760206040517f360894a13ba1a3210667c828492db98dca3e2076cc3735a920a3ca505d382bbc8152f35b60405163703e46dd60e11b8152600490fd5b506040366003190112610193576112fe613a76565b60249182356001600160401b03811161086057366023820112156108605761132f9036908581600401359101613aa7565b6001600160a01b037f00000000000000000000000000000000000000000000000000000000000000008116308114908115611544575b506112d7577f189ab7a9244df0848122154315af71fe140f3db0fe014031783b0946b8c9d2e390818452602091600080516020614080833981519152835260408520338652835260ff6040862054161561152757508416936040516352d1902d60e01b81528281600481895afa8591816114f8575b506113f757604051634c9c8ce360e01b8152600481018790528790fd5b8590877f360894a13ba1a3210667c828492db98dca3e2076cc3735a920a3ca505d382bbc918281036114e35750833b156114cd575080546001600160a01b0319168217905560405185917fbc7cd75a20ee27fd9adebab32041f755214dbc6bffa90cc0225b39da2e5c2d3b8380a28451156114b0575080848461021c96519101845af4903d156114a7573d61148b81613a8c565b90611499604051928361395a565b81528581943d92013e613ffc565b60609250613ffc565b9350505050346114be575080f35b63b398979f60e01b8152600490fd5b604051634c9c8ce360e01b815260048101849052fd5b60405190632a87526960e21b82526004820152fd5b9091508381813d8311611520575b611510818361395a565b81010312610850575190386113da565b503d611506565b866044916040519163e2517d3f60e01b8352336004840152820152fd5b9050817f360894a13ba1a3210667c828492db98dca3e2076cc3735a920a3ca505d382bbc5416141538611365565b50346101935760403660031901126101935761158c613a76565b90611595613a60565b916000805160206140e083398151915254926001600160401b038416801590816134f0575b60011490816134e6575b1590816134dd575b506134cb5760016001600160401b03198516176000805160206140e08339815191525560ff8460401c161561349e575b611604613fcd565b61160c613fcd565b611614613fcd565b61161c613fcd565b60016000805160206140c083398151915255611636613fcd565b61163f33613be8565b5061164933613c76565b5061165333613d26565b5061165d33613dd0565b5082546001600160a01b039283166001600160a01b031991821617845560018054929093169116179055604051611693816138e0565b60405161169f81613924565b601381527243726561746520596f75722050726f66696c6560681b602082015281526040516116cd8161393f565b602f81527f53657420757020796f757220756e69717565206964656e7469747920696e207460208201526e686520466f72676520456d7069726560881b604082015260208201526040516117208161393f565b602c81527f476f20746f2050726f66696c652073657474696e677320616e642063686f6f7360208201526b65206120757365726e616d6560a01b604082015260408201526032606082015260405161177781613924565b601b81527f697066733a2f2f6261646765732f77656c636f6d652d6261646765000000000060208201526080820152600160a08201528160c08201528180526002602052604082209080518051906001600160401b0382116125dd5781906117df85546138a6565b601f8111613451575b50602090601f83116001146133e85786926133dd575b50508160011b916000199060031b1c19161782555b60208101518051906001600160401b0382116125dd57819061183860018601546138a6565b601f811161338d575b50602090601f831160011461331e578692613313575b50508160011b916000199060031b1c19161760018301555b60408101518051906001600160401b0382116125dd57819061189460028601546138a6565b601f81116132c3575b50602090601f8311600114613254578692613249575b50508160011b916000199060031b1c19161760028301555b6060810151600383015560808101518051906001600160401b0382116125dd576118f860048501546138a6565b601f8111613205575b50602090601f83116001146131935791806006949260c0948892613188575b50508160011b916000199060031b1c19161760048501555b61195760a08201511515600586019060ff801983541691151516179055565b0151910155604051611968816138e0565b60405161197481613924565b600f81526e446973636f7665722051756573747360881b6020820152815260405161199e8161393f565b602881527f4c6561726e2061626f7574207468652071756573742073797374656d20616e64602082015267207265776172647360c01b604082015260208201526040516119ea8161393f565b603581527f56697369742074686520517565737473207061676520616e642062726f77736560208201527420617661696c61626c65206368616c6c656e67657360581b6040820152604082015260646060820152604051611a4a81613924565b601c81527f697066733a2f2f6261646765732f6578706c6f7265722d62616467650000000060208201526080820152600160a08201528160c0820152600182526002602052604082209080518051906001600160401b0382116125dd578190611ab385546138a6565b601f811161313b575b50602090601f83116001146130d25786926130c7575b50508160011b916000199060031b1c19161782555b60208101518051906001600160401b0382116125dd578190611b0c60018601546138a6565b601f8111613077575b50602090601f8311600114613008578692612ffd575b50508160011b916000199060031b1c19161760018301555b60408101518051906001600160401b0382116125dd578190611b6860028601546138a6565b601f8111612fad575b50602090601f8311600114612f3e578692612f33575b50508160011b916000199060031b1c19161760028301555b6060810151600383015560808101518051906001600160401b0382116125dd57611bcc60048501546138a6565b601f8111612eef575b50602090601f8311600114612e7d5791806006949260c0948892612e72575b50508160011b916000199060031b1c19161760048501555b611c2b60a08201511515600586019060ff801983541691151516179055565b0151910155604051611c3c816138e0565b604051611c4881613924565b60128152714a6f696e2074686520436f6d6d756e69747960701b60208201528152604051611c758161393f565b603981527f436f6e6e6563742077697468206f7468657220757365727320616e642073746160208201527f7274206275696c64696e672072656c6174696f6e73686970730000000000000060408201526020820152604051611cd68161393f565b602c81527f466f6c6c6f7720616e6f746865722075736572206f722073656e64206b75646f60208201526b7320746f20736f6d656f6e6560a01b60408201526040820152604b6060820152604051611d2d81613924565b601a81527f697066733a2f2f6261646765732f736f6369616c2d626164676500000000000060208201526080820152600160a08201528160c0820152600282526002602052604082209080518051906001600160401b0382116125dd578190611d9685546138a6565b601f8111612e25575b50602090601f8311600114612dbc578692612db1575b50508160011b916000199060031b1c19161782555b60208101518051906001600160401b0382116125dd578190611def60018601546138a6565b601f8111612d61575b50602090601f8311600114612cf2578692612ce7575b50508160011b916000199060031b1c19161760018301555b60408101518051906001600160401b0382116125dd578190611e4b60028601546138a6565b601f8111612c97575b50602090601f8311600114612c28578692612c1d575b50508160011b916000199060031b1c19161760028301555b6060810151600383015560808101518051906001600160401b0382116125dd57611eaf60048501546138a6565b601f8111612bd9575b50602090601f8311600114612b675791806006949260c0948892612b5c575b50508160011b916000199060031b1c19161760048501555b611f0e60a08201511515600586019060ff801983541691151516179055565b0151910155604051611f1f816138e0565b604051611f2b81613924565b600a815269456e746572204465466960b01b60208201528152604051611f508161393f565b602581527f4d616b6520796f7572206669727374207472616465206f72207374616b6520746020820152646f6b656e7360d81b60408201526020820152604051611f998161393f565b603581527f55736520546f6b656e4c61756e6368657220746f207472616465206f72205374602082015274616b696e675265776172647320746f207374616b6560581b6040820152604082015260966060820152604051611ff981613924565b601a81527f697066733a2f2f6261646765732f7472616465722d626164676500000000000060208201526080820152600160a08201528160c0820152600382526002602052604082209080518051906001600160401b0382116125dd57819061206285546138a6565b601f8111612b0f575b50602090601f8311600114612aa6578692612a9b575b50508160011b916000199060031b1c19161782555b60208101518051906001600160401b0382116125dd5781906120bb60018601546138a6565b601f8111612a4b575b50602090601f83116001146129dc5786926129d1575b50508160011b916000199060031b1c19161760018301555b60408101518051906001600160401b0382116125dd57819061211760028601546138a6565b601f8111612981575b50602090601f8311600114612912578692612907575b50508160011b916000199060031b1c19161760028301555b6060810151600383015560808101518051906001600160401b0382116125dd5761217b60048501546138a6565b601f81116128c3575b50602090601f83116001146128515791806006949260c0948892612846575b50508160011b916000199060031b1c19161760048501555b6121da60a08201511515600586019060ff801983541691151516179055565b0151910155604051916121ec836138e0565b6040516121f881613924565b601081526f2132b1b7b6b290309021b4ba34bd32b760811b602082015283526040516122238161393f565b602e81527f506172746963697061746520696e20676f7665726e616e636520616e6420736860208201526d617065207468652066757475726560901b604082015260208401526040516122758161393f565b602e81527f4361737420796f757220666972737420766f746520696e20616e20616374697660208201526d1948111053c81c1c9bdc1bdcd85b60921b6040820152604084015260c860608401526040516122ce81613924565b601b81527f697066733a2f2f6261646765732f636974697a656e2d6261646765000000000060208201526080840152600160a08401528160c08401526004825260026020526040822083518051906001600160401b0382116125dd57819061233684546138a6565b601f81116127f9575b50602090601f8311600114612790578692612785575b50508160011b916000199060031b1c19161781555b60208401518051906001600160401b0382116125dd57819061238f60018501546138a6565b601f8111612735575b50602090601f83116001146126c65786926126bb575b50508160011b916000199060031b1c19161760018201555b60408401518051906001600160401b0382116125dd5781906123eb60028501546138a6565b601f811161266b575b50602090601f83116001146125fc5786926125f1575b50508160011b916000199060031b1c19161760028201555b6060840151600382015560808401518051906001600160401b0382116125dd5761244f60048401546138a6565b601f8111612599575b50602090601f831160011461252757958260069360c093889960ff999261251c575b50508160011b916000199060031b1c19161760048501555b6124b160a08201511515600586019060ff801983541691151516179055565b015191015560401c16156124c25780f35b68ff0000000000000000196000805160206140e083398151915254166000805160206140e0833981519152557fc7f505b2f371ae2175ee4913f4499e1f2633a7b5936321eed1cdaeb6115181d2602060405160018152a180f35b01519050388061247a565b600484018652602086209190601f198416875b81811061258157509360c09360ff9899936001938360069810612568575b505050811b016004850155612492565b015160001960f88460031b161c19169055388080612558565b9293602060018192878601518155019501930161253a565b60048401865260208620601f840160051c8101602085106125d6575b601f830160051c820181106125cb575050612458565b8781556001016125b5565b50806125b5565b634e487b7160e01b85526041600452602485fd5b01519050388061240a565b9250600284018652602086209086935b601f1984168510612650576001945083601f19811610612637575b505050811b016002820155612422565b015160001960f88460031b161c19169055388080612627565b8181015183556020948501946001909301929091019061260c565b90915060028401865260208620601f840160051c8101602085106126b4575b90849392915b601f830160051c820181106126a65750506123f4565b888155859450600101612690565b508061268a565b0151905038806123ae565b9250600184018652602086209086935b601f198416851061271a576001945083601f19811610612701575b505050811b0160018201556123c6565b015160001960f88460031b161c191690553880806126f1565b818101518355602094850194600190930192909101906126d6565b90915060018401865260208620601f840160051c81016020851061277e575b90849392915b601f830160051c82018110612770575050612398565b88815585945060010161275a565b5080612754565b015190503880612355565b9250838652602086209086935b601f19841685106127de576001945083601f198116106127c5575b505050811b01815561236a565b015160001960f88460031b161c191690553880806127b8565b8181015183556020948501946001909301929091019061279d565b90915083865260208620601f840160051c81016020851061283f575b90849392915b601f830160051c8201811061283157505061233f565b88815585945060010161281b565b5080612815565b0151905038806121a3565b906004850186526020862091865b601f19851681106128ab5750926006949260019260c09583601f19811610612892575b505050811b0160048501556121bb565b015160001960f88460031b161c19169055388080612882565b9192602060018192868501518155019401920161285f565b60048501865260208620601f840160051c810160208510612900575b601f830160051c820181106128f5575050612184565b8781556001016128df565b50806128df565b015190503880612136565b9250600285018652602086209086935b601f1984168510612966576001945083601f1981161061294d575b505050811b01600283015561214e565b015160001960f88460031b161c1916905538808061293d565b81810151835560209485019460019093019290910190612922565b90915060028501865260208620601f840160051c8101602085106129ca575b90849392915b601f830160051c820181106129bc575050612120565b8881558594506001016129a6565b50806129a0565b0151905038806120da565b9250600185018652602086209086935b601f1984168510612a30576001945083601f19811610612a17575b505050811b0160018301556120f2565b015160001960f88460031b161c19169055388080612a07565b818101518355602094850194600190930192909101906129ec565b90915060018501865260208620601f840160051c810160208510612a94575b90849392915b601f830160051c82018110612a865750506120c4565b888155859450600101612a70565b5080612a6a565b015190503880612081565b9250848652602086209086935b601f1984168510612af4576001945083601f19811610612adb575b505050811b018255612096565b015160001960f88460031b161c19169055388080612ace565b81810151835560209485019460019093019290910190612ab3565b90915084865260208620601f840160051c810160208510612b55575b90849392915b601f830160051c82018110612b4757505061206b565b888155859450600101612b31565b5080612b2b565b015190503880611ed7565b906004850186526020862091865b601f1985168110612bc15750926006949260019260c09583601f19811610612ba8575b505050811b016004850155611eef565b015160001960f88460031b161c19169055388080612b98565b91926020600181928685015181550194019201612b75565b60048501865260208620601f840160051c810160208510612c16575b601f830160051c82018110612c0b575050611eb8565b878155600101612bf5565b5080612bf5565b015190503880611e6a565b9250600285018652602086209086935b601f1984168510612c7c576001945083601f19811610612c63575b505050811b016002830155611e82565b015160001960f88460031b161c19169055388080612c53565b81810151835560209485019460019093019290910190612c38565b90915060028501865260208620601f840160051c810160208510612ce0575b90849392915b601f830160051c82018110612cd2575050611e54565b888155859450600101612cbc565b5080612cb6565b015190503880611e0e565b9250600185018652602086209086935b601f1984168510612d46576001945083601f19811610612d2d575b505050811b016001830155611e26565b015160001960f88460031b161c19169055388080612d1d565b81810151835560209485019460019093019290910190612d02565b90915060018501865260208620601f840160051c810160208510612daa575b90849392915b601f830160051c82018110612d9c575050611df8565b888155859450600101612d86565b5080612d80565b015190503880611db5565b9250848652602086209086935b601f1984168510612e0a576001945083601f19811610612df1575b505050811b018255611dca565b015160001960f88460031b161c19169055388080612de4565b81810151835560209485019460019093019290910190612dc9565b90915084865260208620601f840160051c810160208510612e6b575b90849392915b601f830160051c82018110612e5d575050611d9f565b888155859450600101612e47565b5080612e41565b015190503880611bf4565b906004850186526020862091865b601f1985168110612ed75750926006949260019260c09583601f19811610612ebe575b505050811b016004850155611c0c565b015160001960f88460031b161c19169055388080612eae565b91926020600181928685015181550194019201612e8b565b60048501865260208620601f840160051c810160208510612f2c575b601f830160051c82018110612f21575050611bd5565b878155600101612f0b565b5080612f0b565b015190503880611b87565b9250600285018652602086209086935b601f1984168510612f92576001945083601f19811610612f79575b505050811b016002830155611b9f565b015160001960f88460031b161c19169055388080612f69565b81810151835560209485019460019093019290910190612f4e565b90915060028501865260208620601f840160051c810160208510612ff6575b90849392915b601f830160051c82018110612fe8575050611b71565b888155859450600101612fd2565b5080612fcc565b015190503880611b2b565b9250600185018652602086209086935b601f198416851061305c576001945083601f19811610613043575b505050811b016001830155611b43565b015160001960f88460031b161c19169055388080613033565b81810151835560209485019460019093019290910190613018565b90915060018501865260208620601f840160051c8101602085106130c0575b90849392915b601f830160051c820181106130b2575050611b15565b88815585945060010161309c565b5080613096565b015190503880611ad2565b9250848652602086209086935b601f1984168510613120576001945083601f19811610613107575b505050811b018255611ae7565b015160001960f88460031b161c191690553880806130fa565b818101518355602094850194600190930192909101906130df565b90915084865260208620601f840160051c810160208510613181575b90849392915b601f830160051c82018110613173575050611abc565b88815585945060010161315d565b5080613157565b015190503880611920565b906004850186526020862091865b601f19851681106131ed5750926006949260019260c09583601f198116106131d4575b505050811b016004850155611938565b015160001960f88460031b161c191690553880806131c4565b919260206001819286850151815501940192016131a1565b60048501865260208620601f840160051c810160208510613242575b601f830160051c82018110613237575050611901565b878155600101613221565b5080613221565b0151905038806118b3565b9250600285018652602086209086935b601f19841685106132a8576001945083601f1981161061328f575b505050811b0160028301556118cb565b015160001960f88460031b161c1916905538808061327f565b81810151835560209485019460019093019290910190613264565b90915060028501865260208620601f840160051c81016020851061330c575b90849392915b601f830160051c820181106132fe57505061189d565b8881558594506001016132e8565b50806132e2565b015190503880611857565b9250600185018652602086209086935b601f1984168510613372576001945083601f19811610613359575b505050811b01600183015561186f565b015160001960f88460031b161c19169055388080613349565b8181015183556020948501946001909301929091019061332e565b90915060018501865260208620601f840160051c8101602085106133d6575b90849392915b601f830160051c820181106133c8575050611841565b8881558594506001016133b2565b50806133ac565b0151905038806117fe565b9250848652602086209086935b601f1984168510613436576001945083601f1981161061341d575b505050811b018255611813565b015160001960f88460031b161c19169055388080613410565b818101518355602094850194600190930192909101906133f5565b90915084865260208620601f840160051c810160208510613497575b90849392915b601f830160051c820181106134895750506117e8565b888155859450600101613473565b508061346d565b68ffffffffffffffffff19841668010000000000000001176000805160206140e0833981519152556115fc565b60405163f92ee8a960e01b8152600490fd5b905015386115cc565b303b1591506115c4565b604086901c60ff161591506115ba565b5034610193578060031936011261019357613519613b3b565b6000805160206140a0833981519152805460ff8116156135665760ff191690557f5db9ee0a495bf2e6ff9c91a7834c1ba4fdd244a5e8aa4e537bd38aeae4b073aa6020604051338152a180f35b604051638dfc202b60e01b8152600490fd5b503461019357604036600319011261019357613592613a60565b336001600160a01b038216036135ae5761021c90600435613eef565b60405163334bd91960e11b8152600490fd5b50346101935760403660031901126101935761021c6004356135e0613a60565b908084526000805160206140808339815191526020526136066001604086200154613bb5565b613e7a565b50346101935780600319360112610193576020600454604051908152f35b5034610193576020366003190112610193576001604060209260043581526000805160206140808339815191528452200154604051908152f35b50346101935780600319360112610193576020600554604051908152f35b5034610193576020366003190112610193576004359060058210156101935761370c6136ac8361388d565b6136b58161397b565b906136c26001820161397b565b61373b6136d16002840161397b565b6003840154906137286136e66004870161397b565b9161371a600660ff60058a015416980154966040519a8b9a60e08c5260e08c0190613a20565b908a820360208c0152613a20565b9088820360408a0152613a20565b9160608701528582036080870152613a20565b91151560a084015260c08301520390f35b5034610193576020366003190112610193576004359060058210156101935760206137768361385e565b54604051908152f35b5034610193578060031936011261019357806004549060055482159384156137b9575b506060935060405192835260208301526040820152f35b909150612710938483029483860414831517156137f5576137e15750816060930490386137a2565b634e487b7160e01b81526012600452602490fd5b634e487b7160e01b82526011600452602482fd5b9050346108605760203660031901126108605760043563ffffffff60e01b811680910361085c5760209250637965db0b60e01b811490811561384d575b5015158152f35b6301ffc9a760e01b14905038613846565b6005811015613877576000526006602052604060002090565b634e487b7160e01b600052602160045260246000fd5b6005811015613877576000526002602052604060002090565b90600182811c921680156138d6575b60208310146138c057565b634e487b7160e01b600052602260045260246000fd5b91607f16916138b5565b60e081019081106001600160401b038211176138fb57604052565b634e487b7160e01b600052604160045260246000fd5b6001600160401b0381116138fb57604052565b604081019081106001600160401b038211176138fb57604052565b606081019081106001600160401b038211176138fb57604052565b90601f801991011681019081106001600160401b038211176138fb57604052565b9060405191826000825461398e816138a6565b908184526020946001916001811690816000146139fe57506001146139bf575b5050506139bd9250038361395a565b565b600090815285812095935091905b8183106139e65750506139bd93508201013880806139ae565b855488840185015294850194879450918301916139cd565b925050506139bd94925060ff191682840152151560051b8201013880806139ae565b919082519283825260005b848110613a4c575050826000602080949584010152601f8019910116010190565b602081830181015184830182015201613a2b565b602435906001600160a01b0382168203610f5f57565b600435906001600160a01b0382168203610f5f57565b6001600160401b0381116138fb57601f01601f191660200190565b929192613ab382613a8c565b91613ac1604051938461395a565b829481845281830111610f5f578281602093846000960137010152565b9060058210156138775752565b9080601f83011215610f5f57816020613b0693359101613aa7565b90565b6000198114613b185760010190565b634e487b7160e01b600052601160045260246000fd5b91908201809211613b1857565b3360009081527fb16e88c42fd4e48df2dd6a2eabd6bc9aec654ec170056b470819f8892cc6431c60205260409020547fa49807205ce4d355092ef5a8a18f56e8913cf4a201fbe287825b095693c217759060ff1615613b975750565b6044906040519063e2517d3f60e01b82523360048301526024820152fd5b8060005260008051602061408083398151915260205260406000203360005260205260ff6040600020541615613b975750565b6001600160a01b031660008181527fb7db2dd08fcb62d0c9e08c51941cae53c267786a0b75803fb7960902fc8ef97d60205260408120549091906000805160206140808339815191529060ff16613c71578280526020526040822081835260205260408220600160ff1982541617905533916000805160206140608339815191528180a4600190565b505090565b6001600160a01b031660008181527fb16e88c42fd4e48df2dd6a2eabd6bc9aec654ec170056b470819f8892cc6431c60205260408120549091907fa49807205ce4d355092ef5a8a18f56e8913cf4a201fbe287825b095693c21775906000805160206140808339815191529060ff16613d20578184526020526040832082845260205260408320600160ff19825416179055600080516020614060833981519152339380a4600190565b50505090565b6001600160a01b031660008181527f9bd59d4380451b72e847e12c81abc5a739036bec4fdfa86aab0306675755325e60205260408120549091907fc76a12ea3bbc29d28ade8cd9cea2ef1b869cd4aab844b5075c9ff73b4186bd71906000805160206140808339815191529060ff16613d20578184526020526040832082845260205260408320600160ff19825416179055600080516020614060833981519152339380a4600190565b6001600160a01b031660008181527fab71e3f32666744d246edff3f96e4bdafee2e9867098cdd118a979a7464786a860205260408120549091907f189ab7a9244df0848122154315af71fe140f3db0fe014031783b0946b8c9d2e3906000805160206140808339815191529060ff16613d20578184526020526040832082845260205260408320600160ff19825416179055600080516020614060833981519152339380a4600190565b9060009180835260008051602061408083398151915280602052604084209260018060a01b03169283855260205260ff60408520541615600014613d20578184526020526040832082845260205260408320600160ff19825416179055600080516020614060833981519152339380a4600190565b9060009180835260008051602061408083398151915280602052604084209260018060a01b03169283855260205260ff604085205416600014613d2057818452602052604083208284526020526040832060ff1981541690557ff6391f5c32d9c69d2a47ea670b442974b53935d1edc7fd64eb21e047a839171b339380a4600190565b60ff6000805160206140a08339815191525416613f8b57565b60405163d93c066560e01b8152600490fd5b6000805160206140c08339815191526002815414613fbb5760029055565b604051633ee5aeb560e01b8152600490fd5b60ff6000805160206140e08339815191525460401c1615613fea57565b604051631afcd79f60e31b8152600490fd5b90614023575080511561401157602081519101fd5b60405163d6bda27560e01b8152600490fd5b81511580614056575b614034575090565b604051639996b31560e01b81526001600160a01b039091166004820152602490fd5b50803b1561402c56fe2f8788117e7eff1d82e926ec794901d17c78024a50270940304540a733656f0d02dd7bc7dec4dceedda775e58dd541e08a116c6c53815c0bd028192f7b626800cd5ed15c6e187e77e9aee88184c21f4f2182ab5827cb3b7e07fbedcd63f033009b779b17422d0df92223018b32b4d1fa46e071723d6817e2486d003becc55f00f0c57e16840df040f15088dc2f81fe391c3923bec73e23a9662efc9c229c6a00a164736f6c6343000816000a",
  "linkReferences": {},
  "deployedLinkReferences": {}
}