{
  "_format": "hh-sol-artifact-1",
  "contractName": "ForgePass",
  "sourceName": "contracts/ForgePass.sol",
  "abi": [
    {
      "inputs": [],
      "name": "AccessControlBadConfirmation",
      "type": "error"
    },
    {
      "inputs": [
        {
          "internalType": "address",
          "name": "account",
          "type": "address"
        },
        {
          "internalType": "bytes32",
          "name": "neededRole",
          "type": "bytes32"
        }
      ],
      "name": "AccessControlUnauthorizedAccount",
      "type": "error"
    },
    {
      "inputs": [
        {
          "internalType": "address",
          "name": "target",
          "type": "address"
        }
      ],
      "name": "AddressEmptyCode",
      "type": "error"
    },
    {
      "inputs": [],
      "name": "ArrayLengthMismatch",
      "type": "error"
    },
    {
      "inputs": [
        {
          "internalType": "uint256",
          "name": "maxAllowed",
          "type": "uint256"
        },
        {
          "internalType": "uint256",
          "name": "current",
          "type": "uint256"
        }
      ],
      "name": "BatchSizeExceeded",
      "type": "error"
    },
    {
      "inputs": [
        {
          "internalType": "address",
          "name": "implementation",
          "type": "address"
        }
      ],
      "name": "ERC1967InvalidImplementation",
      "type": "error"
    },
    {
      "inputs": [],
      "name": "ERC1967NonPayable",
      "type": "error"
    },
    {
      "inputs": [],
      "name": "ERC721EnumerableForbiddenBatchMint",
      "type": "error"
    },
    {
      "inputs": [
        {
          "internalType": "address",
          "name": "sender",
          "type": "address"
        },
        {
          "internalType": "uint256",
          "name": "tokenId",
          "type": "uint256"
        },
        {
          "internalType": "address",
          "name": "owner",
          "type": "address"
        }
      ],
      "name": "ERC721IncorrectOwner",
      "type": "error"
    },
    {
      "inputs": [
        {
          "internalType": "address",
          "name": "operator",
          "type": "address"
        },
        {
          "internalType": "uint256",
          "name": "tokenId",
          "type": "uint256"
        }
      ],
      "name": "ERC721InsufficientApproval",
      "type": "error"
    },
    {
      "inputs": [
        {
          "internalType": "address",
          "name": "approver",
          "type": "address"
        }
      ],
      "name": "ERC721InvalidApprover",
      "type": "error"
    },
    {
      "inputs": [
        {
          "internalType": "address",
          "name": "operator",
          "type": "address"
        }
      ],
      "name": "ERC721InvalidOperator",
      "type": "error"
    },
    {
      "inputs": [
        {
          "internalType": "address",
          "name": "owner",
          "type": "address"
        }
      ],
      "name": "ERC721InvalidOwner",
      "type": "error"
    },
    {
      "inputs": [
        {
          "internalType": "address",
          "name": "receiver",
          "type": "address"
        }
      ],
      "name": "ERC721InvalidReceiver",
      "type": "error"
    },
    {
      "inputs": [
        {
          "internalType": "address",
          "name": "sender",
          "type": "address"
        }
      ],
      "name": "ERC721InvalidSender",
      "type": "error"
    },
    {
      "inputs": [
        {
          "internalType": "uint256",
          "name": "tokenId",
          "type": "uint256"
        }
      ],
      "name": "ERC721NonexistentToken",
      "type": "error"
    },
    {
      "inputs": [
        {
          "internalType": "address",
          "name": "owner",
          "type": "address"
        },
        {
          "internalType": "uint256",
          "name": "index",
          "type": "uint256"
        }
      ],
      "name": "ERC721OutOfBoundsIndex",
      "type": "error"
    },
    {
      "inputs": [],
      "name": "EmptyArrays",
      "type": "error"
    },
    {
      "inputs": [],
      "name": "EnforcedPause",
      "type": "error"
    },
    {
      "inputs": [],
      "name": "ExpectedPause",
      "type": "error"
    },
    {
      "inputs": [],
      "name": "FailedCall",
      "type": "error"
    },
    {
      "inputs": [],
      "name": "InvalidInitialization",
      "type": "error"
    },
    {
      "inputs": [],
      "name": "NewTierMustBeHigher",
      "type": "error"
    },
    {
      "inputs": [],
      "name": "NotInitializing",
      "type": "error"
    },
    {
      "inputs": [],
      "name": "NotOwnerOfPass",
      "type": "error"
    },
    {
      "inputs": [
        {
          "internalType": "uint256",
          "name": "tokenId",
          "type": "uint256"
        }
      ],
      "name": "PassDoesNotExist",
      "type": "error"
    },
    {
      "inputs": [],
      "name": "ReentrancyGuardReentrantCall",
      "type": "error"
    },
    {
      "inputs": [],
      "name": "UUPSUnauthorizedCallContext",
      "type": "error"
    },
    {
      "inputs": [
        {
          "internalType": "bytes32",
          "name": "slot",
          "type": "bytes32"
        }
      ],
      "name": "UUPSUnsupportedProxiableUUID",
      "type": "error"
    },
    {
      "inputs": [],
      "name": "ZeroAddressRecipient",
      "type": "error"
    },
    {
      "inputs": [],
      "name": "ZeroTokenURI",
      "type": "error"
    },
    {
      "anonymous": false,
      "inputs": [
        {
          "indexed": true,
          "internalType": "address",
          "name": "owner",
          "type": "address"
        },
        {
          "indexed": true,
          "internalType": "address",
          "name": "approved",
          "type": "address"
        },
        {
          "indexed": true,
          "internalType": "uint256",
          "name": "tokenId",
          "type": "uint256"
        }
      ],
      "name": "Approval",
      "type": "event"
    },
    {
      "anonymous": false,
      "inputs": [
        {
          "indexed": true,
          "internalType": "address",
          "name": "owner",
          "type": "address"
        },
        {
          "indexed": true,
          "internalType": "address",
          "name": "operator",
          "type": "address"
        },
        {
          "indexed": false,
          "internalType": "bool",
          "name": "approved",
          "type": "bool"
        }
      ],
      "name": "ApprovalForAll",
      "type": "event"
    },
    {
      "anonymous": false,
      "inputs": [
        {
          "indexed": false,
          "internalType": "uint256",
          "name": "_fromTokenId",
          "type": "uint256"
        },
        {
          "indexed": false,
          "internalType": "uint256",
          "name": "_toTokenId",
          "type": "uint256"
        }
      ],
      "name": "BatchMetadataUpdate",
      "type": "event"
    },
    {
      "anonymous": false,
      "inputs": [
        {
          "indexed": true,
          "internalType": "address[]",
          "name": "recipients",
          "type": "address[]"
        },
        {
          "indexed": false,
          "internalType": "uint256[]",
          "name": "tokenIds",
          "type": "uint256[]"
        }
      ],
      "name": "BatchPassesMinted",
      "type": "event"
    },
    {
      "anonymous": false,
      "inputs": [
        {
          "indexed": false,
          "internalType": "uint64",
          "name": "version",
          "type": "uint64"
        }
      ],
      "name": "Initialized",
      "type": "event"
    },
    {
      "anonymous": false,
      "inputs": [
        {
          "indexed": false,
          "internalType": "uint256",
          "name": "_tokenId",
          "type": "uint256"
        }
      ],
      "name": "MetadataUpdate",
      "type": "event"
    },
    {
      "anonymous": false,
      "inputs": [
        {
          "indexed": true,
          "internalType": "address",
          "name": "owner",
          "type": "address"
        },
        {
          "indexed": true,
          "internalType": "uint256",
          "name": "tokenId",
          "type": "uint256"
        },
        {
          "indexed": false,
          "internalType": "uint8",
          "name": "tier",
          "type": "uint8"
        },
        {
          "indexed": false,
          "internalType": "uint256",
          "name": "expiresAt",
          "type": "uint256"
        }
      ],
      "name": "PassMinted",
      "type": "event"
    },
    {
      "anonymous": false,
      "inputs": [
        {
          "indexed": true,
          "internalType": "uint256",
          "name": "tokenId",
          "type": "uint256"
        },
        {
          "indexed": false,
          "internalType": "uint256",
          "name": "newExpiresAt",
          "type": "uint256"
        }
      ],
      "name": "PassRenewed",
      "type": "event"
    },
    {
      "anonymous": false,
      "inputs": [
        {
          "indexed": true,
          "internalType": "uint256",
          "name": "tokenId",
          "type": "uint256"
        },
        {
          "indexed": false,
          "internalType": "uint8",
          "name": "newTier",
          "type": "uint8"
        }
      ],
      "name": "PassUpgraded",
      "type": "event"
    },
    {
      "anonymous": false,
      "inputs": [
        {
          "indexed": false,
          "internalType": "address",
          "name": "account",
          "type": "address"
        }
      ],
      "name": "Paused",
      "type": "event"
    },
    {
      "anonymous": false,
      "inputs": [
        {
          "indexed": true,
          "internalType": "bytes32",
          "name": "role",
          "type": "bytes32"
        },
        {
          "indexed": true,
          "internalType": "bytes32",
          "name": "previousAdminRole",
          "type": "bytes32"
        },
        {
          "indexed": true,
          "internalType": "bytes32",
          "name": "newAdminRole",
          "type": "bytes32"
        }
      ],
      "name": "RoleAdminChanged",
      "type": "event"
    },
    {
      "anonymous": false,
      "inputs": [
        {
          "indexed": true,
          "internalType": "bytes32",
          "name": "role",
          "type": "bytes32"
        },
        {
          "indexed": true,
          "internalType": "address",
          "name": "account",
          "type": "address"
        },
        {
          "indexed": true,
          "internalType": "address",
          "name": "sender",
          "type": "address"
        }
      ],
      "name": "RoleGranted",
      "type": "event"
    },
    {
      "anonymous": false,
      "inputs": [
        {
          "indexed": true,
          "internalType": "bytes32",
          "name": "role",
          "type": "bytes32"
        },
        {
          "indexed": true,
          "internalType": "address",
          "name": "account",
          "type": "address"
        },
        {
          "indexed": true,
          "internalType": "address",
          "name": "sender",
          "type": "address"
        }
      ],
      "name": "RoleRevoked",
      "type": "event"
    },
    {
      "anonymous": false,
      "inputs": [
        {
          "indexed": true,
          "internalType": "uint256",
          "name": "tokenId",
          "type": "uint256"
        },
        {
          "indexed": false,
          "internalType": "string",
          "name": "newURI",
          "type": "string"
        }
      ],
      "name": "TokenURIUpdated",
      "type": "event"
    },
    {
      "anonymous": false,
      "inputs": [
        {
          "indexed": true,
          "internalType": "address",
          "name": "from",
          "type": "address"
        },
        {
          "indexed": true,
          "internalType": "address",
          "name": "to",
          "type": "address"
        },
        {
          "indexed": true,
          "internalType": "uint256",
          "name": "tokenId",
          "type": "uint256"
        }
      ],
      "name": "Transfer",
      "type": "event"
    },
    {
      "anonymous": false,
      "inputs": [
        {
          "indexed": false,
          "internalType": "address",
          "name": "account",
          "type": "address"
        }
      ],
      "name": "Unpaused",
      "type": "event"
    },
    {
      "anonymous": false,
      "inputs": [
        {
          "indexed": true,
          "internalType": "address",
          "name": "implementation",
          "type": "address"
        }
      ],
      "name": "Upgraded",
      "type": "event"
    },
    {
      "inputs": [],
      "name": "DEFAULT_ADMIN_ROLE",
      "outputs": [
        {
          "internalType": "bytes32",
          "name": "",
          "type": "bytes32"
        }
      ],
      "stateMutability": "view",
      "type": "function"
    },
    {
      "inputs": [],
      "name": "MAX_BATCH_SIZE",
      "outputs": [
        {
          "internalType": "uint256",
          "name": "",
          "type": "uint256"
        }
      ],
      "stateMutability": "view",
      "type": "function"
    },
    {
      "inputs": [],
      "name": "MINTER_ROLE",
      "outputs": [
        {
          "internalType": "bytes32",
          "name": "",
          "type": "bytes32"
        }
      ],
      "stateMutability": "view",
      "type": "function"
    },
    {
      "inputs": [],
      "name": "PAUSER_ROLE",
      "outputs": [
        {
          "internalType": "bytes32",
          "name": "",
          "type": "bytes32"
        }
      ],
      "stateMutability": "view",
      "type": "function"
    },
    {
      "inputs": [],
      "name": "UPGRADER_ROLE",
      "outputs": [
        {
          "internalType": "bytes32",
          "name": "",
          "type": "bytes32"
        }
      ],
      "stateMutability": "view",
      "type": "function"
    },
    {
      "inputs": [],
      "name": "UPGRADE_INTERFACE_VERSION",
      "outputs": [
        {
          "internalType": "string",
          "name": "",
          "type": "string"
        }
      ],
      "stateMutability": "view",
      "type": "function"
    },
    {
      "inputs": [
        {
          "internalType": "address",
          "name": "to",
          "type": "address"
        },
        {
          "internalType": "uint256",
          "name": "tokenId",
          "type": "uint256"
        }
      ],
      "name": "approve",
      "outputs": [],
      "stateMutability": "nonpayable",
      "type": "function"
    },
    {
      "inputs": [
        {
          "internalType": "address",
          "name": "owner",
          "type": "address"
        }
      ],
      "name": "balanceOf",
      "outputs": [
        {
          "internalType": "uint256",
          "name": "",
          "type": "uint256"
        }
      ],
      "stateMutability": "view",
      "type": "function"
    },
    {
      "inputs": [
        {
          "internalType": "address[]",
          "name": "_recipients",
          "type": "address[]"
        },
        {
          "internalType": "uint8[]",
          "name": "_tiers",
          "type": "uint8[]"
        },
        {
          "internalType": "uint256[]",
          "name": "_durations",
          "type": "uint256[]"
        }
      ],
      "name": "batchMintPass",
      "outputs": [],
      "stateMutability": "nonpayable",
      "type": "function"
    },
    {
      "inputs": [
        {
          "internalType": "uint256",
          "name": "tokenId",
          "type": "uint256"
        }
      ],
      "name": "getApproved",
      "outputs": [
        {
          "internalType": "address",
          "name": "",
          "type": "address"
        }
      ],
      "stateMutability": "view",
      "type": "function"
    },
    {
      "inputs": [
        {
          "internalType": "bytes32",
          "name": "role",
          "type": "bytes32"
        }
      ],
      "name": "getRoleAdmin",
      "outputs": [
        {
          "internalType": "bytes32",
          "name": "",
          "type": "bytes32"
        }
      ],
      "stateMutability": "view",
      "type": "function"
    },
    {
      "inputs": [
        {
          "internalType": "bytes32",
          "name": "role",
          "type": "bytes32"
        },
        {
          "internalType": "address",
          "name": "account",
          "type": "address"
        }
      ],
      "name": "grantRole",
      "outputs": [],
      "stateMutability": "nonpayable",
      "type": "function"
    },
    {
      "inputs": [
        {
          "internalType": "bytes32",
          "name": "role",
          "type": "bytes32"
        },
        {
          "internalType": "address",
          "name": "account",
          "type": "address"
        }
      ],
      "name": "hasRole",
      "outputs": [
        {
          "internalType": "bool",
          "name": "",
          "type": "bool"
        }
      ],
      "stateMutability": "view",
      "type": "function"
    },
    {
      "inputs": [],
      "name": "initialize",
      "outputs": [],
      "stateMutability": "nonpayable",
      "type": "function"
    },
    {
      "inputs": [
        {
          "internalType": "address",
          "name": "owner",
          "type": "address"
        },
        {
          "internalType": "address",
          "name": "operator",
          "type": "address"
        }
      ],
      "name": "isApprovedForAll",
      "outputs": [
        {
          "internalType": "bool",
          "name": "",
          "type": "bool"
        }
      ],
      "stateMutability": "view",
      "type": "function"
    },
    {
      "inputs": [
        {
          "internalType": "uint256",
          "name": "_tokenId",
          "type": "uint256"
        }
      ],
      "name": "isPassActive",
      "outputs": [
        {
          "internalType": "bool",
          "name": "",
          "type": "bool"
        }
      ],
      "stateMutability": "view",
      "type": "function"
    },
    {
      "inputs": [
        {
          "internalType": "address",
          "name": "_to",
          "type": "address"
        },
        {
          "internalType": "uint8",
          "name": "_tier",
          "type": "uint8"
        },
        {
          "internalType": "uint256",
          "name": "_duration",
          "type": "uint256"
        }
      ],
      "name": "mintPass",
      "outputs": [],
      "stateMutability": "nonpayable",
      "type": "function"
    },
    {
      "inputs": [],
      "name": "name",
      "outputs": [
        {
          "internalType": "string",
          "name": "",
          "type": "string"
        }
      ],
      "stateMutability": "view",
      "type": "function"
    },
    {
      "inputs": [
        {
          "internalType": "uint256",
          "name": "tokenId",
          "type": "uint256"
        }
      ],
      "name": "ownerOf",
      "outputs": [
        {
          "internalType": "address",
          "name": "",
          "type": "address"
        }
      ],
      "stateMutability": "view",
      "type": "function"
    },
    {
      "inputs": [
        {
          "internalType": "uint256",
          "name": "",
          "type": "uint256"
        }
      ],
      "name": "passDetails",
      "outputs": [
        {
          "internalType": "uint256",
          "name": "expiresAt",
          "type": "uint256"
        },
        {
          "internalType": "uint8",
          "name": "tier",
          "type": "uint8"
        }
      ],
      "stateMutability": "view",
      "type": "function"
    },
    {
      "inputs": [],
      "name": "pause",
      "outputs": [],
      "stateMutability": "nonpayable",
      "type": "function"
    },
    {
      "inputs": [],
      "name": "paused",
      "outputs": [
        {
          "internalType": "bool",
          "name": "",
          "type": "bool"
        }
      ],
      "stateMutability": "view",
      "type": "function"
    },
    {
      "inputs": [],
      "name": "proxiableUUID",
      "outputs": [
        {
          "internalType": "bytes32",
          "name": "",
          "type": "bytes32"
        }
      ],
      "stateMutability": "view",
      "type": "function"
    },
    {
      "inputs": [
        {
          "internalType": "uint256",
          "name": "_tokenId",
          "type": "uint256"
        },
        {
          "internalType": "uint256",
          "name": "_duration",
          "type": "uint256"
        }
      ],
      "name": "renewPass",
      "outputs": [],
      "stateMutability": "nonpayable",
      "type": "function"
    },
    {
      "inputs": [
        {
          "internalType": "bytes32",
          "name": "role",
          "type": "bytes32"
        },
        {
          "internalType": "address",
          "name": "callerConfirmation",
          "type": "address"
        }
      ],
      "name": "renounceRole",
      "outputs": [],
      "stateMutability": "nonpayable",
      "type": "function"
    },
    {
      "inputs": [
        {
          "internalType": "bytes32",
          "name": "role",
          "type": "bytes32"
        },
        {
          "internalType": "address",
          "name": "account",
          "type": "address"
        }
      ],
      "name": "revokeRole",
      "outputs": [],
      "stateMutability": "nonpayable",
      "type": "function"
    },
    {
      "inputs": [
        {
          "internalType": "address",
          "name": "from",
          "type": "address"
        },
        {
          "internalType": "address",
          "name": "to",
          "type": "address"
        },
        {
          "internalType": "uint256",
          "name": "tokenId",
          "type": "uint256"
        }
      ],
      "name": "safeTransferFrom",
      "outputs": [],
      "stateMutability": "nonpayable",
      "type": "function"
    },
    {
      "inputs": [
        {
          "internalType": "address",
          "name": "from",
          "type": "address"
        },
        {
          "internalType": "address",
          "name": "to",
          "type": "address"
        },
        {
          "internalType": "uint256",
          "name": "tokenId",
          "type": "uint256"
        },
        {
          "internalType": "bytes",
          "name": "data",
          "type": "bytes"
        }
      ],
      "name": "safeTransferFrom",
      "outputs": [],
      "stateMutability": "nonpayable",
      "type": "function"
    },
    {
      "inputs": [
        {
          "internalType": "address",
          "name": "operator",
          "type": "address"
        },
        {
          "internalType": "bool",
          "name": "approved",
          "type": "bool"
        }
      ],
      "name": "setApprovalForAll",
      "outputs": [],
      "stateMutability": "nonpayable",
      "type": "function"
    },
    {
      "inputs": [
        {
          "internalType": "uint256",
          "name": "_tokenId",
          "type": "uint256"
        },
        {
          "internalType": "string",
          "name": "_newURI",
          "type": "string"
        }
      ],
      "name": "setTokenURI",
      "outputs": [],
      "stateMutability": "nonpayable",
      "type": "function"
    },
    {
      "inputs": [
        {
          "internalType": "bytes4",
          "name": "interfaceId",
          "type": "bytes4"
        }
      ],
      "name": "supportsInterface",
      "outputs": [
        {
          "internalType": "bool",
          "name": "",
          "type": "bool"
        }
      ],
      "stateMutability": "view",
      "type": "function"
    },
    {
      "inputs": [],
      "name": "symbol",
      "outputs": [
        {
          "internalType": "string",
          "name": "",
          "type": "string"
        }
      ],
      "stateMutability": "view",
      "type": "function"
    },
    {
      "inputs": [
        {
          "internalType": "uint256",
          "name": "index",
          "type": "uint256"
        }
      ],
      "name": "tokenByIndex",
      "outputs": [
        {
          "internalType": "uint256",
          "name": "",
          "type": "uint256"
        }
      ],
      "stateMutability": "view",
      "type": "function"
    },
    {
      "inputs": [
        {
          "internalType": "address",
          "name": "owner",
          "type": "address"
        },
        {
          "internalType": "uint256",
          "name": "index",
          "type": "uint256"
        }
      ],
      "name": "tokenOfOwnerByIndex",
      "outputs": [
        {
          "internalType": "uint256",
          "name": "",
          "type": "uint256"
        }
      ],
      "stateMutability": "view",
      "type": "function"
    },
    {
      "inputs": [
        {
          "internalType": "uint256",
          "name": "tokenId",
          "type": "uint256"
        }
      ],
      "name": "tokenURI",
      "outputs": [
        {
          "internalType": "string",
          "name": "",
          "type": "string"
        }
      ],
      "stateMutability": "view",
      "type": "function"
    },
    {
      "inputs": [],
      "name": "totalSupply",
      "outputs": [
        {
          "internalType": "uint256",
          "name": "",
          "type": "uint256"
        }
      ],
      "stateMutability": "view",
      "type": "function"
    },
    {
      "inputs": [
        {
          "internalType": "address",
          "name": "from",
          "type": "address"
        },
        {
          "internalType": "address",
          "name": "to",
          "type": "address"
        },
        {
          "internalType": "uint256",
          "name": "tokenId",
          "type": "uint256"
        }
      ],
      "name": "transferFrom",
      "outputs": [],
      "stateMutability": "nonpayable",
      "type": "function"
    },
    {
      "inputs": [],
      "name": "unpause",
      "outputs": [],
      "stateMutability": "nonpayable",
      "type": "function"
    },
    {
      "inputs": [
        {
          "internalType": "uint256",
          "name": "_tokenId",
          "type": "uint256"
        },
        {
          "internalType": "uint8",
          "name": "_newTier",
          "type": "uint8"
        }
      ],
      "name": "upgradePass",
      "outputs": [],
      "stateMutability": "nonpayable",
      "type": "function"
    },
    {
      "inputs": [
        {
          "internalType": "address",
          "name": "newImplementation",
          "type": "address"
        },
        {
          "internalType": "bytes",
          "name": "data",
          "type": "bytes"
        }
      ],
      "name": "upgradeToAndCall",
      "outputs": [],
      "stateMutability": "payable",
      "type": "function"
    }
  ],
  "bytecode": "0x60a0806040523461002a5730608052612f8790816100308239608051818181611342015261144e0152f35b600080fdfe608080604052600436101561001357600080fd5b60003560e01c90816301ffc9a714611bf75750806306fdde0314611b29578063081812fc14611ade578063095ea7b3146119f7578063162094c4146118fe57806318160ddd146118d357806323b872dd146118bc578063248a9ca3146118805780632f2ff15d146118345780632f745c59146117a357806336568abe1461175c5780633f4ba83a146116e55780633fdda2c01461162e57806342842e0e146116065780634f1ef2861461140f5780634f6ccce7146113ac57806352d1902d1461132f57806358c41ff4146112f75780635c975abb146112c75780636352211e1461129757806370a082311461126c5780638129fc1c14610dc05780638456cb5914610d5957806391d1485414610cff57806395d89b4114610bfa57806398baf18114610b98578063a217fddf14610b7c578063a22cb46514610adc578063ad3cb1cc14610a96578063b88d4fde14610a47578063c87b56dd14610935578063cd604936146105e5578063cfdbf254146105c9578063d1539ccb14610472578063d539139314610437578063d547741f146103e9578063de3fec29146102a0578063e63ab1e914610265578063e985e9c5146102175763f72c0d8b146101d757600080fd5b346102125760003660031901126102125760206040517f189ab7a9244df0848122154315af71fe140f3db0fe014031783b0946b8c9d2e38152f35b600080fd5b3461021257604036600319011261021257610230611cf0565b61024161023b611d06565b916121e2565b9060018060a01b0316600052602052602060ff604060002054166040519015158152f35b346102125760003660031901126102125760206040517f65d7a28e3265b37a6474929f336521b332c1681b933f6cb9f3376673440d862a8152f35b34610212576060366003190112610212576102b9611cf0565b6102c1611e4d565b6102c9612518565b6102d16125a7565b6102d9612af1565b6001600160a01b0382169081156103d7576001549260001984146103c1577fa364156bf7d41d08584429897b16db886a4c85127855b86166d61cec4d8e4d4f91600185016001556103368561033060443542612254565b93612b51565b61034f60405161034581611d38565b60008152866125d2565b60405161035b81611d1c565b82815260ff6001602083019282851684528860005260006020526040600020905181550191511660ff198254161790556103aa604051928392836020909392919360ff60408201951681520152565b0390a36001600080516020612f3b83398151915255005b634e487b7160e01b600052601160045260246000fd5b6040516308c9926560e31b8152600490fd5b3461021257604036600319011261021257610435600435610408611d06565b9080600052600080516020612edb833981519152602052610430600160406000200154612574565b612a6e565b005b346102125760003660031901126102125760206040517f9f2df0fed2c77648de5860a4cc508cd0818c85b8b8a1ab4ceeef8d981c8956a68152f35b346102125760403660031901126102125760043561048e611e4d565b3360009081527fab71e3f32666744d246edff3f96e4bdafee2e9867098cdd118a979a7464786a860209081526040909120547f189ab7a9244df0848122154315af71fe140f3db0fe014031783b0946b8c9d2e39060ff16156105ab57506104f36125a7565b6000838152600080516020612f1b833981519152825260409020546001600160a01b03161561059257826000526000815260ff8060016040600020015416921691821115610580577fa0df42f000a27192971425f5257920df177d454a5b47279204381f80d6b29e3891836000526000825260016040600020018160ff19825416179055604051908152a2005b604051633e054f2560e21b8152600490fd5b6040516392b9db2760e01b815260048101849052602490fd5b6044906040519063e2517d3f60e01b82523360048301526024820152fd5b3461021257600036600319011261021257602060405160648152f35b346102125760603660031901126102125767ffffffffffffffff60043581811161021257610617903690600401611e1c565b9060243583811161021257610630903690600401611e1c565b90936044359081116102125761064a903690600401611e1c565b949091610655612518565b61065d6125a7565b610665612af1565b84156109235760648511610903578085148015906108f9575b6108e7579084916001549361069284612404565b976106a0604051998a611d54565b8489526106ac85612404565b601f19013660208b013760005b8581106107905750505050506106ce91612254565b60015560405191829182916000905b8082106107605750505003902090604051906020820160208352815180915260206040840192019060005b81811061074a57857f2d54624e82f86f508c2dda4ef2adb72e12abeb99411d850f733638545b7ec30986860387a26001600080516020612f3b83398151915255005b8251845260209384019390920191600101610708565b9193509183356001600160a01b0381169190829003610212576020816001938293520194019201849392916106dd565b9091929394816107a0918961241c565b35906001600160a01b0382168203610212576001600160a01b038216156103d7576107cb8188612254565b6107e06107d983868861241c565b3542612254565b926107eb8282612b51565b6108046040516107fa81611d38565b60008152836125d2565b61081761081284898b61241c565b61242c565b6040519061082482611d1c565b8582526001602083019260ff80931684528560005260006020526040600020905181550191511660ff198254161790558b518310156108d1577fa364156bf7d41d08584429897b16db886a4c85127855b86166d61cec4d8e4d4f6001948360208f8760051b01015261089a610812868b8d61241c565b926108c2604051928392898060a01b031695836020909392919360ff60408201951681520152565b0390a3019291908794936106b9565b634e487b7160e01b600052603260045260246000fd5b60405163512509d360e11b8152600490fd5b508585141561067e565b60405163f80a484560e01b81526064600482015260248101869052604490fd5b60405163a600c81d60e01b8152600490fd5b3461021257602080600319360112610212576004356109538161243a565b506000527f0542a41881ee128a365a727b282c86fa859579490b9bb45aab8503648c8e7900815260406000209060405191826000825461099281611e5d565b9384845260019186600182169182600014610a255750506001146109e6575b50506109bf92500383611d54565b60006040516109cd81611d38565b526109e2604051928284938452830190611cb0565b0390f35b85925060005281600020906000915b858310610a0d5750506109bf935082010185806109b1565b805483890185015287945086939092019181016109f5565b92509350506109bf94915060ff191682840152151560051b82010185806109b1565b3461021257608036600319011261021257610a60611cf0565b610a68611d06565b6064359167ffffffffffffffff831161021257610a8c610435933690600401611dfe565b91604435916122d9565b34610212576000366003190112610212576109e2604051610ab681611d1c565b60058152640352e302e360dc1b6020820152604051918291602083526020830190611cb0565b3461021257604036600319011261021257610af5611cf0565b60243590811515809203610212576001600160a01b0316908115610b6357610b1c336121e2565b82600052602052604060002060ff1981541660ff83161790556040519081527f17307eab39ab6107e8899845ad3d59bd9653f200f220920489ca2b5937696c3160203392a3005b604051630b61174360e31b815260048101839052602490fd5b3461021257600036600319011261021257602060405160008152f35b34610212576020366003190112610212576004356000908152600080516020612f1b83398151915260205260409020546001600160a01b0316151580610be6575b6020906040519015158152f35b506000602081905260409020544210610bd9565b34610212576000366003190112610212576040517f80bb2b638cc20bc4d0a60d66940f3ab4a00c1d7b313497ca82fb0b4ab00793018054826000610c3d83611e5d565b9283835260209460019186600182169182600014610cdd575050600114610c81575b5050610c6d92500383611d54565b6109e2604051928284938452830190611cb0565b8592506000527ff4bad0a69248f59680a4f2b3000328cec71a413447c96781cfe5996daa8c456e906000915b858310610cc5575050610c6d93508201018580610c5f565b80548389018501528794508693909201918101610cad565b9250935050610c6d94915060ff191682840152151560051b8201018580610c5f565b3461021257604036600319011261021257610d18611d06565b600435600052600080516020612edb83398151915260205260406000209060018060a01b0316600052602052602060ff604060002054166040519015158152f35b3461021257600036600319011261021257610d726124bc565b610d7a6125a7565b600080516020612efb833981519152600160ff198254161790557f62e78cea01bee320cd4e420270b5ea74000d11b0c9f74754ebdbfc544b05a2586020604051338152a1005b34610212576000366003190112610212577ff0c57e16840df040f15088dc2f81fe391c3923bec73e23a9662efc9c229c6a00805460ff8160401c16159067ffffffffffffffff9182821691821580611265575b6001809414908161125b575b159081611252575b506112405767ffffffffffffffff1981168317855581611221575b50604051610e4f81611d1c565b600a815260209369466f726765205061737360b01b8583015260405191610e7583611d1c565b6005835264464f52474560d81b86840152610e8e612db6565b610e96612db6565b805182811161111057807f80bb2b638cc20bc4d0a60d66940f3ab4a00c1d7b313497ca82fb0b4ab007930092610ecc8454611e5d565b601f81116111b1575b508890601f831160011461113157600092611126575b5050600019600383901b1c191690861b1790555b815190811161111057807f80bb2b638cc20bc4d0a60d66940f3ab4a00c1d7b313497ca82fb0b4ab007930192610f358454611e5d565b601f81116110a0575b508690601f831160011461102057600092611015575b5050600019600383901b1c191690841b1790555b610f70612db6565b610f78612db6565b610f80612db6565b610f88612db6565b610f90612db6565b610f98612db6565b81600080516020612f3b83398151915255610fb233612767565b50610fbc336127f5565b50610fc6336128a5565b50610fd03361294f565b50818055610fda57005b7fc7f505b2f371ae2175ee4913f4499e1f2633a7b5936321eed1cdaeb6115181d29268ff0000000000000000198154169055604051908152a1005b015190508780610f54565b90869350601f19831691856000527ff4bad0a69248f59680a4f2b3000328cec71a413447c96781cfe5996daa8c456e9260005b8a82821061108a5750508411611071575b505050811b019055610f68565b015160001960f88460031b161c19169055878080611064565b8385015186558a97909501949384019301611053565b909150836000527ff4bad0a69248f59680a4f2b3000328cec71a413447c96781cfe5996daa8c456e601f840160051c810191888510611106575b84939291601f89920160051c01915b8281106110f7575050610f3e565b600081558594508891016110e9565b90915081906110da565b634e487b7160e01b600052604160045260246000fd5b015190508980610eeb565b90889350601f19831691856000527f37c58c799b6609234b945e882912ee9ad34948a1dfaa20a97485e1a7752bbf819260005b8c82821061119b5750508411611182575b505050811b019055610eff565b015160001960f88460031b161c19169055898080611175565b8385015186558c97909501949384019301611164565b909150836000527f37c58c799b6609234b945e882912ee9ad34948a1dfaa20a97485e1a7752bbf81601f840160051c8101918a8510611217575b84939291601f8b920160051c01915b828110611208575050610ed5565b600081558594508a91016111fa565b90915081906111eb565b68ffffffffffffffffff19166801000000000000000117845584610e42565b60405163f92ee8a960e01b8152600490fd5b90501586610e27565b303b159150610e1f565b5081610e13565b3461021257602036600319011261021257602061128f61128a611cf0565b6122a4565b604051908152f35b346102125760203660031901126102125760206112b560043561243a565b6040516001600160a01b039091168152f35b3461021257600036600319011261021257602060ff600080516020612efb83398151915254166040519015158152f35b3461021257602036600319011261021257600435600052600060205260408060002060ff600182549201541682519182526020820152f35b34610212576000366003190112610212577f00000000000000000000000000000000000000000000000000000000000000006001600160a01b0316300361139a5760206040517f360894a13ba1a3210667c828492db98dca3e2076cc3735a920a3ca505d382bbc8152f35b60405163703e46dd60e11b8152600490fd5b3461021257602036600319011261021257600435600080516020612ebb833981519152548110156113f0576113e2602091612261565b90546040519160031b1c8152f35b6044906040519063295f44f760e21b8252600060048301526024820152fd5b604036600319011261021257611423611cf0565b60243567ffffffffffffffff811161021257611443903690600401611dfe565b906001600160a01b037f000000000000000000000000000000000000000000000000000000000000000081163081149081156115d8575b5061139a57611487612482565b8116906040516352d1902d60e01b8152602081600481865afa600091816115a4575b506114c757604051634c9c8ce360e01b815260048101849052602490fd5b7f360894a13ba1a3210667c828492db98dca3e2076cc3735a920a3ca505d382bbc9291929081810361158c5750823b156115735780546001600160a01b03191682179055604051907fbc7cd75a20ee27fd9adebab32041f755214dbc6bffa90cc0225b39da2e5c2d3b600080a282511561155a575060008083602061043595519101845af4611554612b21565b91612df7565b9150503461156457005b63b398979f60e01b8152600490fd5b604051634c9c8ce360e01b815260048101839052602490fd5b60249060405190632a87526960e21b82526004820152fd5b9091506020813d6020116115d0575b816115c060209383611d54565b81010312610212575190856114a9565b3d91506115b3565b9050817f360894a13ba1a3210667c828492db98dca3e2076cc3735a920a3ca505d382bbc541614158461147a565b346102125761043561161736611dc9565b906040519261162584611d38565b600084526122d9565b346102125760403660031901126102125760043561164a6125a7565b611652612af1565b61165b8161243a565b336001600160a01b03909116036116d3578060005260006020527f081c80abac84069a536d6d00c25a3e5000c4841ed15d99dfdf3332ec1443509160206116a9602435604060002054612254565b836000526000825280604060002055604051908152a26001600080516020612f3b83398151915255005b6040516349a452fd60e01b8152600490fd5b34610212576000366003190112610212576116fe6124bc565b600080516020612efb833981519152805460ff81161561174a5760ff191690557f5db9ee0a495bf2e6ff9c91a7834c1ba4fdd244a5e8aa4e537bd38aeae4b073aa6020604051338152a1005b604051638dfc202b60e01b8152600490fd5b3461021257604036600319011261021257611775611d06565b336001600160a01b038216036117915761043590600435612a6e565b60405163334bd91960e11b8152600490fd5b34610212576040366003190112610212576117bc611cf0565b602435906117c9816122a4565b8210156118095760018060a01b0316600052600080516020612e9b8339815191526020526040600020906000526020526020604060002054604051908152f35b60405163295f44f760e21b81526001600160a01b039190911660048201526024810191909152604490fd5b3461021257604036600319011261021257610435600435611853611d06565b9080600052600080516020612edb83398151915260205261187b600160406000200154612574565b6129f9565b3461021257602036600319011261021257600435600052600080516020612edb8339815191526020526020600160406000200154604051908152f35b34610212576104356118cd36611dc9565b91611e97565b34610212576000366003190112610212576020600080516020612ebb83398151915254604051908152f35b346102125760403660031901126102125760043560243567ffffffffffffffff8111610212573660238201121561021257611943903690602481600401359101611d92565b61194b612482565b6119536125a7565b6000828152600080516020612f1b83398151915260205260409020546001600160a01b0316156119de578051156119cc576119c7816119b37f931f495b9a8e5d8e61946ea5d61e021f636cfe213a801f97589c18c152e408bd93856125d2565b604051918291602083526020830190611cb0565b0390a2005b60405163d7f3e36160e01b8152600490fd5b6040516392b9db2760e01b815260048101839052602490fd5b3461021257604036600319011261021257611a10611cf0565b602435611a1c8161243a565b33151580611acb575b80611aab575b611a93576001600160a01b039283169282918491167f8c5be1e5ebec7d5bd14f71427d1e84f3dd0314c0f7b2291e5b200ac8c7c3b925600080a46000908152600080516020612f5b8339815191526020526040902080546001600160a01b0319169091179055005b60405163a9fbf51f60e01b8152336004820152602490fd5b50611ab5816121e2565b3360005260205260ff6040600020541615611a2b565b506001600160a01b038116331415611a25565b3461021257602036600319011261021257600435611afb8161243a565b50600052600080516020612f5b833981519152602052602060018060a01b0360406000205416604051908152f35b34610212576000366003190112610212576040517f80bb2b638cc20bc4d0a60d66940f3ab4a00c1d7b313497ca82fb0b4ab00793008054826000611b6c83611e5d565b9283835260209460019186600182169182600014610cdd575050600114611b9b575050610c6d92500383611d54565b8592506000527f37c58c799b6609234b945e882912ee9ad34948a1dfaa20a97485e1a7752bbf81906000915b858310611bdf575050610c6d93508201018580610c5f565b80548389018501528794508693909201918101611bc7565b34610212576020366003190112610212576004359063ffffffff60e01b821680920361021257602091637965db0b60e01b8114908115611c39575b5015158152f35b63780e9d6360e01b811491508115611c53575b5083611c32565b632483248360e11b811491508115611c6d575b5083611c4c565b6380ac58cd60e01b811491508115611c9f575b8115611c8e575b5083611c66565b6301ffc9a760e01b14905083611c87565b635b5e139f60e01b81149150611c80565b919082519283825260005b848110611cdc575050826000602080949584010152601f8019910116010190565b602081830181015184830182015201611cbb565b600435906001600160a01b038216820361021257565b602435906001600160a01b038216820361021257565b6040810190811067ffffffffffffffff82111761111057604052565b6020810190811067ffffffffffffffff82111761111057604052565b90601f8019910116810190811067ffffffffffffffff82111761111057604052565b67ffffffffffffffff811161111057601f01601f191660200190565b929192611d9e82611d76565b91611dac6040519384611d54565b829481845281830111610212578281602093846000960137010152565b6060906003190112610212576001600160a01b0390600435828116810361021257916024359081168103610212579060443590565b9080601f8301121561021257816020611e1993359101611d92565b90565b9181601f840112156102125782359167ffffffffffffffff8311610212576020808501948460051b01011161021257565b6024359060ff8216820361021257565b90600182811c92168015611e8d575b6020831014611e7757565b634e487b7160e01b600052602260045260246000fd5b91607f1691611e6c565b90916001600160a01b038084169283156121c957600093838552600080516020612f1b833981519152946020868152604097858984205416973315158061212f575b5088159081156120f0575b611eed8361221b565b80546001019055888552835289842080546001600160a01b0319168617905587858a7fddf252ad1be2c89b69c2b068fc378daa952ba7f163c4a11628f55a4df523b3ef8780a41561206a57600080516020612ebb8339815191528054908885527f645e039705490088daad89bae25049a34f4a9072d398537b1ab2425f24cbed038452818b862055600160401b82101561205657611f95828a926001611fae95019055612261565b90919082549060031b91821b91600019901b1916179055565b838803611fea575b505050501692838303611fc95750505050565b6064945051926364283d7b60e01b8452600484015260248301526044820152fd5b611ff3906122a4565b600019810193908411612042578291600080516020612e7b833981519152918a9452600080516020612e9b83398151915281528383208584528152878484205587835252205538808080611fb6565b634e487b7160e01b83526011600452602483fd5b634e487b7160e01b85526041600452602485fd5b878414611fae5761207a886122a4565b878452600080516020612e7b833981519152908184528a852054918a8652600080516020612e9b83398151915285528b8620928281036120ce575b508986528452848b812055845282528289812055611fae565b8287528386528c808820548091838a5289205587528186528c872055386120b5565b6000898152600080516020612f5b8339815191526020526040902080546001600160a01b03191690556121228a61221b565b8054600019019055611ee4565b8061217c575b156121405738611ed9565b89888a61215d576024915190637e27328960e01b82526004820152fd5b905163177e802f60e01b81523360048201526024810191909152604490fd5b5033891480156121ae575b806121355750878452600080516020612f5b833981519152835233878b8620541614612135565b506121b8896121e2565b338552835260ff8a85205416612187565b604051633250574960e11b815260006004820152602490fd5b6001600160a01b031660009081527f80bb2b638cc20bc4d0a60d66940f3ab4a00c1d7b313497ca82fb0b4ab00793056020526040902090565b6001600160a01b031660009081527f80bb2b638cc20bc4d0a60d66940f3ab4a00c1d7b313497ca82fb0b4ab00793036020526040902090565b919082018092116103c157565b600080516020612ebb83398151915280548210156108d1576000527fa42f15e5d656f8155fd7419d740a6073999f19cd6e061449ce4a257150545bf20190600090565b6001600160a01b038116156122c0576122bc9061221b565b5490565b6040516322718ad960e21b815260006004820152602490fd5b91906122e6828285611e97565b803b6122f3575b50505050565b61233560018060a01b0380921694604051938493630a85bd0160e11b968786523360048701521660248501526044840152608060648401526084830190611cb0565b03906020816000938185885af1908290826123b4575b5050612383578261235a612b21565b805191908261237c57604051633250574960e11b815260048101839052602490fd5b6020915001fd5b6001600160e01b0319160361239c5750388080806122ed565b60249060405190633250574960e11b82526004820152fd5b909192506020813d6020116123fc575b816123d160209383611d54565b810103126123f85751906001600160e01b0319821682036123f5575090388061234b565b80fd5b5080fd5b3d91506123c4565b67ffffffffffffffff81116111105760051b60200190565b91908110156108d15760051b0190565b3560ff811681036102125790565b6000818152600080516020612f1b83398151915260205260409020546001600160a01b031690811561246a575090565b60249060405190637e27328960e01b82526004820152fd5b3360009081527fb7db2dd08fcb62d0c9e08c51941cae53c267786a0b75803fb7960902fc8ef97d602052604081205460ff16156105ab5750565b3360009081527f75442b0a96088b5456bc4ed01394c96a4feec0f883c9494257d76b96ab1c9b6b60205260409020547f65d7a28e3265b37a6474929f336521b332c1681b933f6cb9f3376673440d862a9060ff16156105ab5750565b3360009081527f549fe2656c81d2947b3b913f0a53b9ea86c71e049f3a1b8aa23c09a8a05cb8d460205260409020547f9f2df0fed2c77648de5860a4cc508cd0818c85b8b8a1ab4ceeef8d981c8956a69060ff16156105ab5750565b80600052600080516020612edb83398151915260205260406000203360005260205260ff60406000205416156105ab5750565b60ff600080516020612efb83398151915254166125c057565b60405163d93c066560e01b8152600490fd5b9190916000908082526020917f0542a41881ee128a365a727b282c86fa859579490b9bb45aab8503648c8e79008352604081209085519067ffffffffffffffff8211612753576126228354611e5d565b601f8111612710575b508490601f831160011461268c57907ff8e1a15aba9398e019f0b49df1a4fde98ee17ae345cb5f6b5e2c27f5033e8ce7969783612681575b50508160011b916000199060031b1c19161790555b604051908152a1565b015190503880612663565b9196601f198816848452868420935b8181106126f957509160019391897ff8e1a15aba9398e019f0b49df1a4fde98ee17ae345cb5f6b5e2c27f5033e8ce7999a94106126e0575b505050811b019055612678565b015160001960f88460031b161c191690553880806126d3565b92938760018192878601518155019501930161269b565b838252858220601f840160051c810191878510612749575b601f0160051c01905b81811061273e575061262b565b828155600101612731565b9091508190612728565b634e487b7160e01b81526041600452602490fd5b6001600160a01b031660008181527fb7db2dd08fcb62d0c9e08c51941cae53c267786a0b75803fb7960902fc8ef97d6020526040812054909190600080516020612edb8339815191529060ff166127f0578280526020526040822081835260205260408220600160ff198254161790553391600080516020612e5b8339815191528180a4600190565b505090565b6001600160a01b031660008181527f549fe2656c81d2947b3b913f0a53b9ea86c71e049f3a1b8aa23c09a8a05cb8d460205260408120549091907f9f2df0fed2c77648de5860a4cc508cd0818c85b8b8a1ab4ceeef8d981c8956a690600080516020612edb8339815191529060ff1661289f578184526020526040832082845260205260408320600160ff19825416179055600080516020612e5b833981519152339380a4600190565b50505090565b6001600160a01b031660008181527fab71e3f32666744d246edff3f96e4bdafee2e9867098cdd118a979a7464786a860205260408120549091907f189ab7a9244df0848122154315af71fe140f3db0fe014031783b0946b8c9d2e390600080516020612edb8339815191529060ff1661289f578184526020526040832082845260205260408320600160ff19825416179055600080516020612e5b833981519152339380a4600190565b6001600160a01b031660008181527f75442b0a96088b5456bc4ed01394c96a4feec0f883c9494257d76b96ab1c9b6b60205260408120549091907f65d7a28e3265b37a6474929f336521b332c1681b933f6cb9f3376673440d862a90600080516020612edb8339815191529060ff1661289f578184526020526040832082845260205260408320600160ff19825416179055600080516020612e5b833981519152339380a4600190565b90600091808352600080516020612edb83398151915280602052604084209260018060a01b03169283855260205260ff6040852054161560001461289f578184526020526040832082845260205260408320600160ff19825416179055600080516020612e5b833981519152339380a4600190565b90600091808352600080516020612edb83398151915280602052604084209260018060a01b03169283855260205260ff60408520541660001461289f57818452602052604083208284526020526040832060ff1981541690557ff6391f5c32d9c69d2a47ea670b442974b53935d1edc7fd64eb21e047a839171b339380a4600190565b600080516020612f3b8339815191526002815414612b0f5760029055565b604051633ee5aeb560e01b8152600490fd5b3d15612b4c573d90612b3282611d76565b91612b406040519384611d54565b82523d6000602084013e565b606090565b906001600160a01b039081831680156121c957600093828552600080516020612f1b83398151915292602091848352604095868820541684811580159788612d77575b612b9d8561221b565b80546001019055858b528652888a2080546001600160a01b031916831790558482847fddf252ad1be2c89b69c2b068fc378daa952ba7f163c4a11628f55a4df523b3ef8d80a415612cf05750600080516020612ebb833981519152805490848a527f645e039705490088daad89bae25049a34f4a9072d398537b1ab2425f24cbed03865281898b2055600160401b821015612cdc5784611f9583612c489360018b9796019055612261565b03612c71575b50505050612c5a575050565b6024925051906339e3563760e11b82526004820152fd5b612c7a906122a4565b600019810193908411612cc8578652600080516020612e9b833981519152825284862083875282528486208190558552600080516020612e7b83398151915290528284205538808080612c4e565b634e487b7160e01b87526011600452602487fd5b634e487b7160e01b8a52604160045260248afd5b90808214612c4857612d01816122a4565b848a52600080516020612e7b83398151915290818752898b205491838c52600080516020612e9b83398151915288528a8c2092828103612d55575b50868c5287528a8a8120558a5285528888812055612c48565b828d528389528b8d2054818e528c8e208190558d528189528b8d205538612d3c565b6000868152600080516020612f5b8339815191526020526040902080546001600160a01b0319169055612da98461221b565b8054600019019055612b94565b60ff7ff0c57e16840df040f15088dc2f81fe391c3923bec73e23a9662efc9c229c6a005460401c1615612de557565b604051631afcd79f60e31b8152600490fd5b90612e1e5750805115612e0c57602081519101fd5b60405163d6bda27560e01b8152600490fd5b81511580612e51575b612e2f575090565b604051639996b31560e01b81526001600160a01b039091166004820152602490fd5b50803b15612e2756fe2f8788117e7eff1d82e926ec794901d17c78024a50270940304540a733656f0d645e039705490088daad89bae25049a34f4a9072d398537b1ab2425f24cbed01645e039705490088daad89bae25049a34f4a9072d398537b1ab2425f24cbed00645e039705490088daad89bae25049a34f4a9072d398537b1ab2425f24cbed0202dd7bc7dec4dceedda775e58dd541e08a116c6c53815c0bd028192f7b626800cd5ed15c6e187e77e9aee88184c21f4f2182ab5827cb3b7e07fbedcd63f0330080bb2b638cc20bc4d0a60d66940f3ab4a00c1d7b313497ca82fb0b4ab00793029b779b17422d0df92223018b32b4d1fa46e071723d6817e2486d003becc55f0080bb2b638cc20bc4d0a60d66940f3ab4a00c1d7b313497ca82fb0b4ab0079304a164736f6c6343000816000a",
  "linkReferences": {},
  "deployedLinkReferences": {}
}