{
  "_format": "hh-sol-artifact-1",
  "contractName": "BadgeMinter",
  "sourceName": "contracts/BadgeMinter.sol",
  "abi": [
    {
      "inputs": [],
      "name": "AccessControlBadConfirmation",
      "type": "error"
    },
    {
      "inputs": [
        {
          "internalType": "address",
          "name": "account",
          "type": "address"
        },
        {
          "internalType": "bytes32",
          "name": "neededRole",
          "type": "bytes32"
        }
      ],
      "name": "AccessControlUnauthorizedAccount",
      "type": "error"
    },
    {
      "inputs": [
        {
          "internalType": "address",
          "name": "target",
          "type": "address"
        }
      ],
      "name": "AddressEmptyCode",
      "type": "error"
    },
    {
      "inputs": [],
      "name": "ArrayLengthMismatch",
      "type": "error"
    },
    {
      "inputs": [
        {
          "internalType": "uint256",
          "name": "maxAllowed",
          "type": "uint256"
        },
        {
          "internalType": "uint256",
          "name": "current",
          "type": "uint256"
        }
      ],
      "name": "BatchSizeExceeded",
      "type": "error"
    },
    {
      "inputs": [
        {
          "internalType": "address",
          "name": "implementation",
          "type": "address"
        }
      ],
      "name": "ERC1967InvalidImplementation",
      "type": "error"
    },
    {
      "inputs": [],
      "name": "ERC1967NonPayable",
      "type": "error"
    },
    {
      "inputs": [
        {
          "internalType": "address",
          "name": "sender",
          "type": "address"
        },
        {
          "internalType": "uint256",
          "name": "tokenId",
          "type": "uint256"
        },
        {
          "internalType": "address",
          "name": "owner",
          "type": "address"
        }
      ],
      "name": "ERC721IncorrectOwner",
      "type": "error"
    },
    {
      "inputs": [
        {
          "internalType": "address",
          "name": "operator",
          "type": "address"
        },
        {
          "internalType": "uint256",
          "name": "tokenId",
          "type": "uint256"
        }
      ],
      "name": "ERC721InsufficientApproval",
      "type": "error"
    },
    {
      "inputs": [
        {
          "internalType": "address",
          "name": "approver",
          "type": "address"
        }
      ],
      "name": "ERC721InvalidApprover",
      "type": "error"
    },
    {
      "inputs": [
        {
          "internalType": "address",
          "name": "operator",
          "type": "address"
        }
      ],
      "name": "ERC721InvalidOperator",
      "type": "error"
    },
    {
      "inputs": [
        {
          "internalType": "address",
          "name": "owner",
          "type": "address"
        }
      ],
      "name": "ERC721InvalidOwner",
      "type": "error"
    },
    {
      "inputs": [
        {
          "internalType": "address",
          "name": "receiver",
          "type": "address"
        }
      ],
      "name": "ERC721InvalidReceiver",
      "type": "error"
    },
    {
      "inputs": [
        {
          "internalType": "address",
          "name": "sender",
          "type": "address"
        }
      ],
      "name": "ERC721InvalidSender",
      "type": "error"
    },
    {
      "inputs": [
        {
          "internalType": "uint256",
          "name": "tokenId",
          "type": "uint256"
        }
      ],
      "name": "ERC721NonexistentToken",
      "type": "error"
    },
    {
      "inputs": [],
      "name": "EmptyArrays",
      "type": "error"
    },
    {
      "inputs": [],
      "name": "EnforcedPause",
      "type": "error"
    },
    {
      "inputs": [],
      "name": "ExpectedPause",
      "type": "error"
    },
    {
      "inputs": [],
      "name": "FailedCall",
      "type": "error"
    },
    {
      "inputs": [
        {
          "internalType": "uint256",
          "name": "required",
          "type": "uint256"
        },
        {
          "internalType": "uint256",
          "name": "available",
          "type": "uint256"
        }
      ],
      "name": "InsufficientXP",
      "type": "error"
    },
    {
      "inputs": [],
      "name": "InvalidInitialization",
      "type": "error"
    },
    {
      "inputs": [],
      "name": "InvalidXPEngine",
      "type": "error"
    },
    {
      "inputs": [],
      "name": "InvalidXPRequirement",
      "type": "error"
    },
    {
      "inputs": [],
      "name": "NotInitializing",
      "type": "error"
    },
    {
      "inputs": [],
      "name": "ReentrancyGuardReentrantCall",
      "type": "error"
    },
    {
      "inputs": [],
      "name": "UUPSUnauthorizedCallContext",
      "type": "error"
    },
    {
      "inputs": [
        {
          "internalType": "bytes32",
          "name": "slot",
          "type": "bytes32"
        }
      ],
      "name": "UUPSUnsupportedProxiableUUID",
      "type": "error"
    },
    {
      "inputs": [],
      "name": "ZeroAddressRecipient",
      "type": "error"
    },
    {
      "anonymous": false,
      "inputs": [
        {
          "indexed": true,
          "internalType": "address",
          "name": "owner",
          "type": "address"
        },
        {
          "indexed": true,
          "internalType": "address",
          "name": "approved",
          "type": "address"
        },
        {
          "indexed": true,
          "internalType": "uint256",
          "name": "tokenId",
          "type": "uint256"
        }
      ],
      "name": "Approval",
      "type": "event"
    },
    {
      "anonymous": false,
      "inputs": [
        {
          "indexed": true,
          "internalType": "address",
          "name": "owner",
          "type": "address"
        },
        {
          "indexed": true,
          "internalType": "address",
          "name": "operator",
          "type": "address"
        },
        {
          "indexed": false,
          "internalType": "bool",
          "name": "approved",
          "type": "bool"
        }
      ],
      "name": "ApprovalForAll",
      "type": "event"
    },
    {
      "anonymous": false,
      "inputs": [
        {
          "indexed": true,
          "internalType": "address[]",
          "name": "recipients",
          "type": "address[]"
        },
        {
          "indexed": false,
          "internalType": "uint256[]",
          "name": "tokenIds",
          "type": "uint256[]"
        }
      ],
      "name": "BatchBadgesMinted",
      "type": "event"
    },
    {
      "anonymous": false,
      "inputs": [
        {
          "indexed": false,
          "internalType": "uint256",
          "name": "_fromTokenId",
          "type": "uint256"
        },
        {
          "indexed": false,
          "internalType": "uint256",
          "name": "_toTokenId",
          "type": "uint256"
        }
      ],
      "name": "BatchMetadataUpdate",
      "type": "event"
    },
    {
      "anonymous": false,
      "inputs": [
        {
          "indexed": false,
          "internalType": "uint64",
          "name": "version",
          "type": "uint64"
        }
      ],
      "name": "Initialized",
      "type": "event"
    },
    {
      "anonymous": false,
      "inputs": [
        {
          "indexed": false,
          "internalType": "uint256",
          "name": "_tokenId",
          "type": "uint256"
        }
      ],
      "name": "MetadataUpdate",
      "type": "event"
    },
    {
      "anonymous": false,
      "inputs": [
        {
          "indexed": false,
          "internalType": "address",
          "name": "account",
          "type": "address"
        }
      ],
      "name": "Paused",
      "type": "event"
    },
    {
      "anonymous": false,
      "inputs": [
        {
          "indexed": true,
          "internalType": "bytes32",
          "name": "role",
          "type": "bytes32"
        },
        {
          "indexed": true,
          "internalType": "bytes32",
          "name": "previousAdminRole",
          "type": "bytes32"
        },
        {
          "indexed": true,
          "internalType": "bytes32",
          "name": "newAdminRole",
          "type": "bytes32"
        }
      ],
      "name": "RoleAdminChanged",
      "type": "event"
    },
    {
      "anonymous": false,
      "inputs": [
        {
          "indexed": true,
          "internalType": "bytes32",
          "name": "role",
          "type": "bytes32"
        },
        {
          "indexed": true,
          "internalType": "address",
          "name": "account",
          "type": "address"
        },
        {
          "indexed": true,
          "internalType": "address",
          "name": "sender",
          "type": "address"
        }
      ],
      "name": "RoleGranted",
      "type": "event"
    },
    {
      "anonymous": false,
      "inputs": [
        {
          "indexed": true,
          "internalType": "bytes32",
          "name": "role",
          "type": "bytes32"
        },
        {
          "indexed": true,
          "internalType": "address",
          "name": "account",
          "type": "address"
        },
        {
          "indexed": true,
          "internalType": "address",
          "name": "sender",
          "type": "address"
        }
      ],
      "name": "RoleRevoked",
      "type": "event"
    },
    {
      "anonymous": false,
      "inputs": [
        {
          "indexed": true,
          "internalType": "address",
          "name": "from",
          "type": "address"
        },
        {
          "indexed": true,
          "internalType": "address",
          "name": "to",
          "type": "address"
        },
        {
          "indexed": true,
          "internalType": "uint256",
          "name": "tokenId",
          "type": "uint256"
        }
      ],
      "name": "Transfer",
      "type": "event"
    },
    {
      "anonymous": false,
      "inputs": [
        {
          "indexed": false,
          "internalType": "address",
          "name": "account",
          "type": "address"
        }
      ],
      "name": "Unpaused",
      "type": "event"
    },
    {
      "anonymous": false,
      "inputs": [
        {
          "indexed": true,
          "internalType": "address",
          "name": "implementation",
          "type": "address"
        }
      ],
      "name": "Upgraded",
      "type": "event"
    },
    {
      "inputs": [],
      "name": "DEFAULT_ADMIN_ROLE",
      "outputs": [
        {
          "internalType": "bytes32",
          "name": "",
          "type": "bytes32"
        }
      ],
      "stateMutability": "view",
      "type": "function"
    },
    {
      "inputs": [],
      "name": "MAX_BATCH_SIZE",
      "outputs": [
        {
          "internalType": "uint256",
          "name": "",
          "type": "uint256"
        }
      ],
      "stateMutability": "view",
      "type": "function"
    },
    {
      "inputs": [],
      "name": "MINTER_ROLE",
      "outputs": [
        {
          "internalType": "bytes32",
          "name": "",
          "type": "bytes32"
        }
      ],
      "stateMutability": "view",
      "type": "function"
    },
    {
      "inputs": [],
      "name": "PAUSER_ROLE",
      "outputs": [
        {
          "internalType": "bytes32",
          "name": "",
          "type": "bytes32"
        }
      ],
      "stateMutability": "view",
      "type": "function"
    },
    {
      "inputs": [],
      "name": "UPGRADER_ROLE",
      "outputs": [
        {
          "internalType": "bytes32",
          "name": "",
          "type": "bytes32"
        }
      ],
      "stateMutability": "view",
      "type": "function"
    },
    {
      "inputs": [],
      "name": "UPGRADE_INTERFACE_VERSION",
      "outputs": [
        {
          "internalType": "string",
          "name": "",
          "type": "string"
        }
      ],
      "stateMutability": "view",
      "type": "function"
    },
    {
      "inputs": [
        {
          "internalType": "address",
          "name": "to",
          "type": "address"
        },
        {
          "internalType": "uint256",
          "name": "tokenId",
          "type": "uint256"
        }
      ],
      "name": "approve",
      "outputs": [],
      "stateMutability": "nonpayable",
      "type": "function"
    },
    {
      "inputs": [
        {
          "internalType": "uint256",
          "name": "",
          "type": "uint256"
        }
      ],
      "name": "badgeXpRequirements",
      "outputs": [
        {
          "internalType": "uint256",
          "name": "",
          "type": "uint256"
        }
      ],
      "stateMutability": "view",
      "type": "function"
    },
    {
      "inputs": [
        {
          "internalType": "address",
          "name": "owner",
          "type": "address"
        }
      ],
      "name": "balanceOf",
      "outputs": [
        {
          "internalType": "uint256",
          "name": "",
          "type": "uint256"
        }
      ],
      "stateMutability": "view",
      "type": "function"
    },
    {
      "inputs": [
        {
          "internalType": "address[]",
          "name": "_recipients",
          "type": "address[]"
        },
        {
          "internalType": "string[]",
          "name": "_tokenURIs",
          "type": "string[]"
        }
      ],
      "name": "batchMintBadge",
      "outputs": [],
      "stateMutability": "nonpayable",
      "type": "function"
    },
    {
      "inputs": [
        {
          "internalType": "uint256",
          "name": "tokenId",
          "type": "uint256"
        }
      ],
      "name": "getApproved",
      "outputs": [
        {
          "internalType": "address",
          "name": "",
          "type": "address"
        }
      ],
      "stateMutability": "view",
      "type": "function"
    },
    {
      "inputs": [],
      "name": "getCurrentTokenId",
      "outputs": [
        {
          "internalType": "uint256",
          "name": "",
          "type": "uint256"
        }
      ],
      "stateMutability": "view",
      "type": "function"
    },
    {
      "inputs": [
        {
          "internalType": "bytes32",
          "name": "role",
          "type": "bytes32"
        }
      ],
      "name": "getRoleAdmin",
      "outputs": [
        {
          "internalType": "bytes32",
          "name": "",
          "type": "bytes32"
        }
      ],
      "stateMutability": "view",
      "type": "function"
    },
    {
      "inputs": [
        {
          "internalType": "bytes32",
          "name": "role",
          "type": "bytes32"
        },
        {
          "internalType": "address",
          "name": "account",
          "type": "address"
        }
      ],
      "name": "grantRole",
      "outputs": [],
      "stateMutability": "nonpayable",
      "type": "function"
    },
    {
      "inputs": [
        {
          "internalType": "bytes32",
          "name": "role",
          "type": "bytes32"
        },
        {
          "internalType": "address",
          "name": "account",
          "type": "address"
        }
      ],
      "name": "hasRole",
      "outputs": [
        {
          "internalType": "bool",
          "name": "",
          "type": "bool"
        }
      ],
      "stateMutability": "view",
      "type": "function"
    },
    {
      "inputs": [
        {
          "internalType": "address",
          "name": "_xpEngineAddress",
          "type": "address"
        }
      ],
      "name": "initialize",
      "outputs": [],
      "stateMutability": "nonpayable",
      "type": "function"
    },
    {
      "inputs": [
        {
          "internalType": "address",
          "name": "owner",
          "type": "address"
        },
        {
          "internalType": "address",
          "name": "operator",
          "type": "address"
        }
      ],
      "name": "isApprovedForAll",
      "outputs": [
        {
          "internalType": "bool",
          "name": "",
          "type": "bool"
        }
      ],
      "stateMutability": "view",
      "type": "function"
    },
    {
      "inputs": [
        {
          "internalType": "address",
          "name": "_to",
          "type": "address"
        },
        {
          "internalType": "string",
          "name": "_tokenURI",
          "type": "string"
        }
      ],
      "name": "mintBadge",
      "outputs": [
        {
          "internalType": "uint256",
          "name": "",
          "type": "uint256"
        }
      ],
      "stateMutability": "nonpayable",
      "type": "function"
    },
    {
      "inputs": [
        {
          "internalType": "address",
          "name": "_to",
          "type": "address"
        },
        {
          "internalType": "uint256",
          "name": "_badgeId",
          "type": "uint256"
        },
        {
          "internalType": "string",
          "name": "_tokenURI",
          "type": "string"
        }
      ],
      "name": "mintBadgeWithRequirements",
      "outputs": [
        {
          "internalType": "uint256",
          "name": "",
          "type": "uint256"
        }
      ],
      "stateMutability": "nonpayable",
      "type": "function"
    },
    {
      "inputs": [],
      "name": "name",
      "outputs": [
        {
          "internalType": "string",
          "name": "",
          "type": "string"
        }
      ],
      "stateMutability": "view",
      "type": "function"
    },
    {
      "inputs": [
        {
          "internalType": "uint256",
          "name": "tokenId",
          "type": "uint256"
        }
      ],
      "name": "ownerOf",
      "outputs": [
        {
          "internalType": "address",
          "name": "",
          "type": "address"
        }
      ],
      "stateMutability": "view",
      "type": "function"
    },
    {
      "inputs": [],
      "name": "pause",
      "outputs": [],
      "stateMutability": "nonpayable",
      "type": "function"
    },
    {
      "inputs": [],
      "name": "paused",
      "outputs": [
        {
          "internalType": "bool",
          "name": "",
          "type": "bool"
        }
      ],
      "stateMutability": "view",
      "type": "function"
    },
    {
      "inputs": [],
      "name": "proxiableUUID",
      "outputs": [
        {
          "internalType": "bytes32",
          "name": "",
          "type": "bytes32"
        }
      ],
      "stateMutability": "view",
      "type": "function"
    },
    {
      "inputs": [
        {
          "internalType": "bytes32",
          "name": "role",
          "type": "bytes32"
        },
        {
          "internalType": "address",
          "name": "callerConfirmation",
          "type": "address"
        }
      ],
      "name": "renounceRole",
      "outputs": [],
      "stateMutability": "nonpayable",
      "type": "function"
    },
    {
      "inputs": [
        {
          "internalType": "bytes32",
          "name": "role",
          "type": "bytes32"
        },
        {
          "internalType": "address",
          "name": "account",
          "type": "address"
        }
      ],
      "name": "revokeRole",
      "outputs": [],
      "stateMutability": "nonpayable",
      "type": "function"
    },
    {
      "inputs": [
        {
          "internalType": "address",
          "name": "from",
          "type": "address"
        },
        {
          "internalType": "address",
          "name": "to",
          "type": "address"
        },
        {
          "internalType": "uint256",
          "name": "tokenId",
          "type": "uint256"
        }
      ],
      "name": "safeTransferFrom",
      "outputs": [],
      "stateMutability": "nonpayable",
      "type": "function"
    },
    {
      "inputs": [
        {
          "internalType": "address",
          "name": "from",
          "type": "address"
        },
        {
          "internalType": "address",
          "name": "to",
          "type": "address"
        },
        {
          "internalType": "uint256",
          "name": "tokenId",
          "type": "uint256"
        },
        {
          "internalType": "bytes",
          "name": "data",
          "type": "bytes"
        }
      ],
      "name": "safeTransferFrom",
      "outputs": [],
      "stateMutability": "nonpayable",
      "type": "function"
    },
    {
      "inputs": [
        {
          "internalType": "address",
          "name": "operator",
          "type": "address"
        },
        {
          "internalType": "bool",
          "name": "approved",
          "type": "bool"
        }
      ],
      "name": "setApprovalForAll",
      "outputs": [],
      "stateMutability": "nonpayable",
      "type": "function"
    },
    {
      "inputs": [
        {
          "internalType": "uint256",
          "name": "_badgeId",
          "type": "uint256"
        },
        {
          "internalType": "uint256",
          "name": "_xpAmount",
          "type": "uint256"
        }
      ],
      "name": "setBadgeXpRequirement",
      "outputs": [],
      "stateMutability": "nonpayable",
      "type": "function"
    },
    {
      "inputs": [
        {
          "internalType": "address",
          "name": "_newXpEngine",
          "type": "address"
        }
      ],
      "name": "setXPEngine",
      "outputs": [],
      "stateMutability": "nonpayable",
      "type": "function"
    },
    {
      "inputs": [
        {
          "internalType": "bytes4",
          "name": "interfaceId",
          "type": "bytes4"
        }
      ],
      "name": "supportsInterface",
      "outputs": [
        {
          "internalType": "bool",
          "name": "",
          "type": "bool"
        }
      ],
      "stateMutability": "view",
      "type": "function"
    },
    {
      "inputs": [],
      "name": "symbol",
      "outputs": [
        {
          "internalType": "string",
          "name": "",
          "type": "string"
        }
      ],
      "stateMutability": "view",
      "type": "function"
    },
    {
      "inputs": [
        {
          "internalType": "uint256",
          "name": "tokenId",
          "type": "uint256"
        }
      ],
      "name": "tokenURI",
      "outputs": [
        {
          "internalType": "string",
          "name": "",
          "type": "string"
        }
      ],
      "stateMutability": "view",
      "type": "function"
    },
    {
      "inputs": [
        {
          "internalType": "address",
          "name": "from",
          "type": "address"
        },
        {
          "internalType": "address",
          "name": "to",
          "type": "address"
        },
        {
          "internalType": "uint256",
          "name": "tokenId",
          "type": "uint256"
        }
      ],
      "name": "transferFrom",
      "outputs": [],
      "stateMutability": "nonpayable",
      "type": "function"
    },
    {
      "inputs": [],
      "name": "unpause",
      "outputs": [],
      "stateMutability": "nonpayable",
      "type": "function"
    },
    {
      "inputs": [
        {
          "internalType": "address",
          "name": "newImplementation",
          "type": "address"
        },
        {
          "internalType": "bytes",
          "name": "data",
          "type": "bytes"
        }
      ],
      "name": "upgradeToAndCall",
      "outputs": [],
      "stateMutability": "payable",
      "type": "function"
    },
    {
      "inputs": [],
      "name": "xpEngine",
      "outputs": [
        {
          "internalType": "contract IXPEngine",
          "name": "",
          "type": "address"
        }
      ],
      "stateMutability": "view",
      "type": "function"
    }
  ],
  "bytecode": "0x60a0806040523461002a5730608052612903908161003082396080518181816112b001526113550152f35b600080fdfe608060408181526004918236101561001657600080fd5b600092833560e01c91826301ffc9a7146119205750816306fdde031461184e578163081812fc14611804578163095ea7b31461172057816323b872dd14611708578163248a9ca3146116d05781632f2ff15d146116a657816336568abe14611660578163391b0078146116345781633f4ba83a146115bc57816342842e0e146115935781634f1ef2861461131457816352d1902d1461129b578163561892361461127c5781635c975abb1461124b5781636352211e1461121a5781636b2bafc81461116c5781636b39820814610ee95781636e131ad614610ec157816370a0823114610e6e5781638456cb5914610e065781638b17802314610dde57816391d1485414610d8a57816395d89b4114610c7b578163a217fddf14610c60578163a22cb46514610bc4578163ad3cb1cc14610b7f578163b88d4fde14610b29578163c4d66de814610632578163c87b56dd14610520578163cfdbf25414610504578163d5391393146104c9578163d547741f1461047c578163da44da5d146102e2578163e63ab1e9146102a7578163e914839d1461024f57508063e985e9c5146102045763f72c0d8b146101c757600080fd5b34610200578160031936011261020057602090517f189ab7a9244df0848122154315af71fe140f3db0fe014031783b0946b8c9d2e38152f35b5080fd5b503461020057806003193601126102005760ff816020936102236119ff565b61023461022e611a1a565b91611e23565b6001600160a01b039091168252855220549151911615158152f35b9050346102a35760203660031901126102a35761026a6119ff565b610272611fda565b6001600160a01b031691821561029657505081546001600160a01b03191617815580f35b5163141b6d2160e11b8152fd5b8280fd5b505034610200578160031936011261020057602090517f65d7a28e3265b37a6474929f336521b332c1681b933f6cb9f3376673440d862a8152f35b838334610200576060366003190112610200576102fd6119ff565b6044356001600160401b0381116104785761031b9036908601611b42565b909161032561208e565b61032d6124a7565b6103356124d2565b6001600160a01b038181169690871561046957865416801561045a57602435875260209760018952888789205491826103cd575b505050506002549560018701918288116103ba57505091610395866103a2959361039c95600255612502565b3691611aed565b836125ee565b60016000805160206128b78339815191525551908152f35b634e487b7160e01b825260119052602490fd5b60248951809581936318e521fd60e21b8352888301525afa91821561045057889261041d575b50808210610402578881610369565b86516392762df360e01b815292830152602482015260449150fd5b9091508881813d8311610449575b6104358183611ab1565b81010312610445575190896103f3565b8780fd5b503d61042b565b87513d8a823e3d90fd5b50845163141b6d2160e11b8152fd5b5084516308c9926560e31b8152fd5b8380fd5b919050346102a357806003193601126102a3576104c591356104c060016104a1611a1a565b93838752600080516020612877833981519152602052862001546120ea565b612424565b5080f35b505034610200578160031936011261020057602090517f9f2df0fed2c77648de5860a4cc508cd0818c85b8b8a1ab4ceeef8d981c8956a68152f35b5050346102005781600319360112610200576020905160648152f35b919050346102a35760209182600319360112610478573561054081611f80565b5083527f0542a41881ee128a365a727b282c86fa859579490b9bb45aab8503648c8e7900825280832092815180948290805461057b81611b9f565b918285526001918860018216918260001461060b5750506001146105cd575b5050506105c99392916105ae910386611ab1565b81516105b981611a65565b52519282849384528301906119bf565b0390f35b8552868520879350859291905b8284106105f357505050820101816105ae6105c961059a565b8054848b0186015289955088949093019281016105da565b60ff19168782015293151560051b860190930193508492506105ae91506105c9905061059a565b9050346102a35760203660031901126102a35761064d6119ff565b7ff0c57e16840df040f15088dc2f81fe391c3923bec73e23a9662efc9c229c6a009182549160ff83861c1615916001600160401b039182851694851580610b22575b60018097149081610b18575b159081610b0f575b50610aff5767ffffffffffffffff1981168617875584610ae0575b506001600160a01b0316918215610ad1578651916106db83611a96565b600b83526a466f72676520426164676560a81b60208401528751926106ff84611a96565b6005845264424144474560d81b60208501526107196127b2565b6107216127b2565b8051838111610abe57807f80bb2b638cc20bc4d0a60d66940f3ab4a00c1d7b313497ca82fb0b4ab0079300926107578454611b9f565b601f8111610a4c575b506020908d601f84116001146109cf57926109c4575b5050600019600383901b1c191690881b1790555b82519182116109b15750807f80bb2b638cc20bc4d0a60d66940f3ab4a00c1d7b313497ca82fb0b4ab0079301926107c18454611b9f565b601f8111610942575b50602090601f83116001146108c5578a926108ba575b5050600019600383901b1c191690851b1790555b6107fc6127b2565b6108046127b2565b61080c6127b2565b6108146127b2565b61081c6127b2565b826000805160206128b7833981519152556108356127b2565b61083e3361211d565b50610848336121ab565b506108523361225b565b5061085c33612305565b5085546001600160a01b0319161785556002829055610879578380f35b7fc7f505b2f371ae2175ee4913f4499e1f2633a7b5936321eed1cdaeb6115181d29260209268ff000000000000000019815416905551908152a13880808380f35b0151905038806107e0565b848b528793507ff4bad0a69248f59680a4f2b3000328cec71a413447c96781cfe5996daa8c456e9190601f1984168c5b81811061092a57508411610911575b505050811b0190556107f4565b015160001960f88460031b161c19169055388080610904565b8284015185558a9690940193602093840193016108f5565b909150838a527ff4bad0a69248f59680a4f2b3000328cec71a413447c96781cfe5996daa8c456e601f840160051c810191602085106109a7575b84939291601f8a920160051c01915b8281106109995750506107ca565b8c815585945089910161098b565b909150819061097c565b634e487b7160e01b895260419052602488fd5b015190503880610776565b91908b9450601f1984168684527f37c58c799b6609234b945e882912ee9ad34948a1dfaa20a97485e1a7752bbf81935b818110610a3457508411610a1b575b505050811b01905561078a565b015160001960f88460031b161c19169055388080610a0e565b8284015185558d9690940193602093840193016109ff565b909150838d527f37c58c799b6609234b945e882912ee9ad34948a1dfaa20a97485e1a7752bbf81601f840160051c81019160208510610ab4575b8e85949392601f8e930160051c0192905b838210610aa657505050610760565b81558594508c91018f610a97565b9091508190610a86565b634e487b7160e01b8b526041835260248bfd5b5085516308c9926560e31b8152fd5b68ffffffffffffffffff191668010000000000000001178655386106be565b875163f92ee8a960e01b81528390fd5b905015386106a3565b303b15915061069b565b508461068f565b83903461020057608036600319011261020057610b446119ff565b610b4c611a1a565b906064356001600160401b038111610b7b57610b7893610b6e91369101611b24565b9160443591611e5c565b80f35b8480fd5b50503461020057816003193601126102005780516105c991610ba082611a96565b60058252640352e302e360dc1b6020830152519182916020835260208301906119bf565b919050346102a357806003193601126102a357610bdf6119ff565b9060243591821515809303610b7b576001600160a01b0316928315610c4b5750610c0833611e23565b83855260205280842060ff1981541660ff8416179055519081527f17307eab39ab6107e8899845ad3d59bd9653f200f220920489ca2b5937696c3160203392a380f35b836024925191630b61174360e31b8352820152fd5b50503461020057816003193601126102005751908152602090f35b828434610d875780600319360112610d875781519182827f80bb2b638cc20bc4d0a60d66940f3ab4a00c1d7b313497ca82fb0b4ab0079301938454610cbf81611b9f565b9182855260209660019288600182169182600014610d5d575050600114610d02575b85886105c989610cf3848a0385611ab1565b519282849384528301906119bf565b815286935091907ff4bad0a69248f59680a4f2b3000328cec71a413447c96781cfe5996daa8c456e5b828410610d455750505082010181610cf36105c988610ce1565b8054848a018601528895508794909301928101610d2b565b60ff19168882015294151560051b87019094019450859350610cf392506105c99150899050610ce1565b80fd5b9050346102a357816003193601126102a3578160209360ff92610dab611a1a565b9035825260008051602061287783398151915286528282206001600160a01b039091168252855220549151911615158152f35b9050346102a35760203660031901126102a35760209282913581526001845220549051908152f35b50503461020057816003193601126102005760207f62e78cea01bee320cd4e420270b5ea74000d11b0c9f74754ebdbfc544b05a25891610e44612032565b610e4c6124a7565b600080516020612897833981519152805460ff1916600117905551338152a180f35b9050346102a35760203660031901126102a357610e896119ff565b926001600160a01b03841615610ead57602083610ea586611dea565b549051908152f35b60249251916322718ad960e21b8352820152fd5b505034610200578160031936011261020057905490516001600160a01b039091168152602090f35b839150346102005782600319360112610200576001600160401b0392813584811161047857610f1b9036908401611b6f565b6024939160243587811161116857610f369036908501611b6f565b9095610f4061208e565b610f486124a7565b610f506124d2565b8315611158576064841161113a5781840361112a5760029694965491610f7585611dd3565b97610f828851998a611ab1565b858952610f8e86611dd3565b9a602097888b019c601f19018d3690378b5b88811061106e5750505050505082610fb791611db0565b600255835191829190875b81811061103e57505050819003902092825192828401918385525180925283019591855b82811061102a5786867fdbeaea2c418d5a1ff1f92603bea8df6d92dce27a8d204e9a0639f3a3440b821a878b0388a260016000805160206128b78339815191525580f35b835188529681019692810192600101610fe6565b909192839795973560018060a01b03811680910361106a57815294969485019285019190600101610fc2565b8980fd5b989a98600581901b88810135906001600160a01b038216808303611116571561111a576110a561109e848b611db0565b8093612502565b868310156110ff5780840135601e1985360301811215611116578401803590868211611111578f01908036038213611111576110e69161039c913691611aed565b8b518310156110ff578b018d0152989a98600101610fa0565b634e487b7160e01b8f5260328652878ffd5b508f80fd5b8f80fd5b8c516308c9926560e31b81528690fd5b855163512509d360e11b81528590fd5b5050506064604493519263f80a484560e01b84528301526024820152fd5b855163a600c81d60e01b81528590fd5b8680fd5b8383346102005780600319360112610200576111866119ff565b6024356001600160401b038111610478576111a49036908601611b42565b90916111ae61208e565b6111b66124a7565b6111be6124d2565b6001600160a01b0381161561120a576002549460018601908187116111f757602087876103a261039c8989610395868b8b600255612502565b634e487b7160e01b815260118852602490fd5b83516308c9926560e31b81528690fd5b828434610d87576020366003190112610d87575061123a60209235611f80565b90516001600160a01b039091168152f35b50503461020057816003193601126102005760209060ff600080516020612897833981519152541690519015158152f35b5050346102005781600319360112610200576020906002549051908152f35b828434610d875780600319360112610d8757507f00000000000000000000000000000000000000000000000000000000000000006001600160a01b0316300361130757602090517f360894a13ba1a3210667c828492db98dca3e2076cc3735a920a3ca505d382bbc8152f35b5163703e46dd60e11b8152fd5b918091506003193601126102a35761132a6119ff565b906024356001600160401b038111610b7b576113499036908501611b24565b6001600160a01b0394907f00000000000000000000000000000000000000000000000000000000000000008616308114908115611565575b50611555577f189ab7a9244df0848122154315af71fe140f3db0fe014031783b0946b8c9d2e3958683526020966000805160206128778339815191528852848420338552885260ff85852054161561153757508416938351966352d1902d60e01b885280888881895afa80988599611508575b50611410578451634c9c8ce360e01b8152808801879052602490fd5b8686867f360894a13ba1a3210667c828492db98dca3e2076cc3735a920a3ca505d382bbc8b7fc9f76b5ec45e5cdef99837d7b6d2467235c1df8933c8ca56df5c35afa2c7d44481016114f25750853b156114dc5780546001600160a01b0319168317905551869392917fbc7cd75a20ee27fd9adebab32041f755214dbc6bffa90cc0225b39da2e5c2d3b8580a28551156114c057505083516104c594839201845af46114ba612782565b916127f3565b935093505050346114d057505080f35b63b398979f60e01b8152fd5b5051634c9c8ce360e01b81529182015260249150fd5b84602491845191632a87526960e21b8352820152fd5b9098508181813d8311611530575b6115208183611ab1565b81010312610b7b575197386113f4565b503d611516565b845163e2517d3f60e01b815233818901526024810191909152604490fd5b825163703e46dd60e11b81528590fd5b9050867f360894a13ba1a3210667c828492db98dca3e2076cc3735a920a3ca505d382bbc5416141538611381565b50503461020057610b78906115a736611a30565b919251926115b484611a65565b858452611e5c565b9050346102a357826003193601126102a3576115d6612032565b6000805160206128978339815191529081549060ff821615611626575060ff19169055513381527f5db9ee0a495bf2e6ff9c91a7834c1ba4fdd244a5e8aa4e537bd38aeae4b073aa90602090a180f35b8351638dfc202b60e01b8152fd5b9050346102a357816003193601126102a35761164e611fda565b35825260016020526024359082205580f35b83833461020057806003193601126102005761167a611a1a565b90336001600160a01b0383160361169757506104c5919235612424565b5163334bd91960e11b81528390fd5b919050346102a357806003193601126102a3576104c591356116cb60016104a1611a1a565b6123af565b9050346102a35760203660031901126102a3578160209360019235815260008051602061287783398151915285522001549051908152f35b8334610d8757610b7861171a36611a30565b91611bd9565b919050346102a357806003193601126102a35761173b6119ff565b916024359061174982611f80565b90331515806117f1575b806117d4575b6117bd57506001600160a01b039384169382918591167f8c5be1e5ebec7d5bd14f71427d1e84f3dd0314c0f7b2291e5b200ac8c7c3b9258780a483526000805160206128d7833981519152602052822080546001600160a01b031916909117905580f35b60249084519063a9fbf51f60e01b82523390820152fd5b506117de82611e23565b33875260205260ff848720541615611759565b506001600160a01b038216331415611753565b9050346102a35760203660031901126102a357916020923561182581611f80565b5081526000805160206128d783398151915283528190205490516001600160a01b039091168152f35b828434610d875780600319360112610d875781519182827f80bb2b638cc20bc4d0a60d66940f3ab4a00c1d7b313497ca82fb0b4ab007930093845461189281611b9f565b9182855260209660019288600182169182600014610d5d5750506001146118c55785886105c989610cf3848a0385611ab1565b815286935091907f37c58c799b6609234b945e882912ee9ad34948a1dfaa20a97485e1a7752bbf815b8284106119085750505082010181610cf36105c988610ce1565b8054848a0186015288955087949093019281016118ee565b8491346102a35760203660031901126102a3573563ffffffff60e01b81168091036102a35760209250637965db0b60e01b8114908115611962575b5015158152f35b632483248360e11b81149150811561197c575b508361195b565b6380ac58cd60e01b8114915081156119ae575b811561199d575b5083611975565b6301ffc9a760e01b14905083611996565b635b5e139f60e01b8114915061198f565b919082519283825260005b8481106119eb575050826000602080949584010152601f8019910116010190565b6020818301810151848301820152016119ca565b600435906001600160a01b0382168203611a1557565b600080fd5b602435906001600160a01b0382168203611a1557565b6060906003190112611a15576001600160a01b03906004358281168103611a1557916024359081168103611a15579060443590565b602081019081106001600160401b03821117611a8057604052565b634e487b7160e01b600052604160045260246000fd5b604081019081106001600160401b03821117611a8057604052565b90601f801991011681019081106001600160401b03821117611a8057604052565b6001600160401b038111611a8057601f01601f191660200190565b929192611af982611ad2565b91611b076040519384611ab1565b829481845281830111611a15578281602093846000960137010152565b9080601f83011215611a1557816020611b3f93359101611aed565b90565b9181601f84011215611a15578235916001600160401b038311611a155760208381860195010111611a1557565b9181601f84011215611a15578235916001600160401b038311611a15576020808501948460051b010111611a1557565b90600182811c92168015611bcf575b6020831014611bb957565b634e487b7160e01b600052602260045260246000fd5b91607f1691611bae565b6001600160a01b0382811693918415611d9757826000958187527f80bb2b638cc20bc4d0a60d66940f3ab4a00c1d7b313497ca82fb0b4ab0079302958660205260409785898220541697889233151580611cf1575b5090611c607fddf252ad1be2c89b69c2b068fc378daa952ba7f163c4a11628f55a4df523b3ef939285611cb257611dea565b8054600101905585825260205289812080546001600160a01b0319168517905580a41692838303611c915750505050565b6064945051926364283d7b60e01b8452600484015260248301526044820152fd5b60008881526000805160206128d78339815191526020526040902080546001600160a01b0319169055611ce486611dea565b8054600019019055611dea565b9193509193945080611d48575b15611d0f5791879187949338611c2e565b888789611d2c576024915190637e27328960e01b82526004820152fd5b604491519063177e802f60e01b82523360048301526024820152fd5b503388148015611d7b575b80611cfe57508683526000805160206128d783398151915260205233868a8520541614611cfe565b50611d8588611e23565b33845260205260ff8984205416611d53565b604051633250574960e11b815260006004820152602490fd5b91908201809211611dbd57565b634e487b7160e01b600052601160045260246000fd5b6001600160401b038111611a805760051b60200190565b6001600160a01b031660009081527f80bb2b638cc20bc4d0a60d66940f3ab4a00c1d7b313497ca82fb0b4ab00793036020526040902090565b6001600160a01b031660009081527f80bb2b638cc20bc4d0a60d66940f3ab4a00c1d7b313497ca82fb0b4ab00793056020526040902090565b9190611e69828285611bd9565b803b611e76575b50505050565b611eb860018060a01b0380921694604051938493630a85bd0160e11b9687865233600487015216602485015260448401526080606484015260848301906119bf565b03906020816000938185885af190829082611f37575b5050611f065782611edd612782565b8051919082611eff57604051633250574960e11b815260048101839052602490fd5b6020915001fd5b6001600160e01b03191603611f1f575038808080611e70565b60249060405190633250574960e11b82526004820152fd5b909192506020813d602011611f78575b81611f5460209383611ab1565b810103126102005751906001600160e01b031982168203610d875750903880611ece565b3d9150611f47565b60008181527f80bb2b638cc20bc4d0a60d66940f3ab4a00c1d7b313497ca82fb0b4ab007930260205260409020546001600160a01b0316908115611fc2575090565b60249060405190637e27328960e01b82526004820152fd5b3360009081527fb7db2dd08fcb62d0c9e08c51941cae53c267786a0b75803fb7960902fc8ef97d602052604081205460ff16156120145750565b6044906040519063e2517d3f60e01b82523360048301526024820152fd5b3360009081527f75442b0a96088b5456bc4ed01394c96a4feec0f883c9494257d76b96ab1c9b6b60205260409020547f65d7a28e3265b37a6474929f336521b332c1681b933f6cb9f3376673440d862a9060ff16156120145750565b3360009081527f549fe2656c81d2947b3b913f0a53b9ea86c71e049f3a1b8aa23c09a8a05cb8d460205260409020547f9f2df0fed2c77648de5860a4cc508cd0818c85b8b8a1ab4ceeef8d981c8956a69060ff16156120145750565b8060005260008051602061287783398151915260205260406000203360005260205260ff60406000205416156120145750565b6001600160a01b031660008181527fb7db2dd08fcb62d0c9e08c51941cae53c267786a0b75803fb7960902fc8ef97d60205260408120549091906000805160206128778339815191529060ff166121a6578280526020526040822081835260205260408220600160ff1982541617905533916000805160206128578339815191528180a4600190565b505090565b6001600160a01b031660008181527f549fe2656c81d2947b3b913f0a53b9ea86c71e049f3a1b8aa23c09a8a05cb8d460205260408120549091907f9f2df0fed2c77648de5860a4cc508cd0818c85b8b8a1ab4ceeef8d981c8956a6906000805160206128778339815191529060ff16612255578184526020526040832082845260205260408320600160ff19825416179055600080516020612857833981519152339380a4600190565b50505090565b6001600160a01b031660008181527f75442b0a96088b5456bc4ed01394c96a4feec0f883c9494257d76b96ab1c9b6b60205260408120549091907f65d7a28e3265b37a6474929f336521b332c1681b933f6cb9f3376673440d862a906000805160206128778339815191529060ff16612255578184526020526040832082845260205260408320600160ff19825416179055600080516020612857833981519152339380a4600190565b6001600160a01b031660008181527fab71e3f32666744d246edff3f96e4bdafee2e9867098cdd118a979a7464786a860205260408120549091907f189ab7a9244df0848122154315af71fe140f3db0fe014031783b0946b8c9d2e3906000805160206128778339815191529060ff16612255578184526020526040832082845260205260408320600160ff19825416179055600080516020612857833981519152339380a4600190565b9060009180835260008051602061287783398151915280602052604084209260018060a01b03169283855260205260ff60408520541615600014612255578184526020526040832082845260205260408320600160ff19825416179055600080516020612857833981519152339380a4600190565b9060009180835260008051602061287783398151915280602052604084209260018060a01b03169283855260205260ff60408520541660001461225557818452602052604083208284526020526040832060ff1981541690557ff6391f5c32d9c69d2a47ea670b442974b53935d1edc7fd64eb21e047a839171b339380a4600190565b60ff60008051602061289783398151915254166124c057565b60405163d93c066560e01b8152600490fd5b6000805160206128b783398151915260028154146124f05760029055565b604051633ee5aeb560e01b8152600490fd5b6001600160a01b03918183168015611d97576000938285527f80bb2b638cc20bc4d0a60d66940f3ab4a00c1d7b313497ca82fb0b4ab007930290816020526040862054169061255882151595866125bc57611dea565b805460010190558386526020526040852080546001600160a01b031916831790557fddf252ad1be2c89b69c2b068fc378daa952ba7f163c4a11628f55a4df523b3ef8580a46125a45750565b602490604051906339e3563760e11b82526004820152fd5b60008681526000805160206128d78339815191526020526040902080546001600160a01b0319169055611ce484611dea565b9190916000908082526020917f0542a41881ee128a365a727b282c86fa859579490b9bb45aab8503648c8e7900835260408120908551906001600160401b03821161276e5761263d8354611b9f565b601f811161272b575b508490601f83116001146126a757907ff8e1a15aba9398e019f0b49df1a4fde98ee17ae345cb5f6b5e2c27f5033e8ce796978361269c575b50508160011b916000199060031b1c19161790555b604051908152a1565b01519050388061267e565b9196601f198816848452868420935b81811061271457509160019391897ff8e1a15aba9398e019f0b49df1a4fde98ee17ae345cb5f6b5e2c27f5033e8ce7999a94106126fb575b505050811b019055612693565b015160001960f88460031b161c191690553880806126ee565b9293876001819287860151815501950193016126b6565b838252858220601f840160051c810191878510612764575b601f0160051c01905b8181106127595750612646565b82815560010161274c565b9091508190612743565b634e487b7160e01b81526041600452602490fd5b3d156127ad573d9061279382611ad2565b916127a16040519384611ab1565b82523d6000602084013e565b606090565b60ff7ff0c57e16840df040f15088dc2f81fe391c3923bec73e23a9662efc9c229c6a005460401c16156127e157565b604051631afcd79f60e31b8152600490fd5b9061281a575080511561280857602081519101fd5b60405163d6bda27560e01b8152600490fd5b8151158061284d575b61282b575090565b604051639996b31560e01b81526001600160a01b039091166004820152602490fd5b50803b1561282356fe2f8788117e7eff1d82e926ec794901d17c78024a50270940304540a733656f0d02dd7bc7dec4dceedda775e58dd541e08a116c6c53815c0bd028192f7b626800cd5ed15c6e187e77e9aee88184c21f4f2182ab5827cb3b7e07fbedcd63f033009b779b17422d0df92223018b32b4d1fa46e071723d6817e2486d003becc55f0080bb2b638cc20bc4d0a60d66940f3ab4a00c1d7b313497ca82fb0b4ab0079304a164736f6c6343000816000a",
  "linkReferences": {},
  "deployedLinkReferences": {}
}