{
  "_format": "hh-sol-artifact-1",
  "contractName": "QuestRegistry",
  "sourceName": "contracts/QuestRegistry.sol",
  "abi": [
    {
      "inputs": [],
      "stateMutability": "nonpayable",
      "type": "constructor"
    },
    {
      "inputs": [],
      "name": "AccessControlBadConfirmation",
      "type": "error"
    },
    {
      "inputs": [
        {
          "internalType": "address",
          "name": "account",
          "type": "address"
        },
        {
          "internalType": "bytes32",
          "name": "neededRole",
          "type": "bytes32"
        }
      ],
      "name": "AccessControlUnauthorizedAccount",
      "type": "error"
    },
    {
      "inputs": [
        {
          "internalType": "address",
          "name": "target",
          "type": "address"
        }
      ],
      "name": "AddressEmptyCode",
      "type": "error"
    },
    {
      "inputs": [
        {
          "internalType": "address",
          "name": "implementation",
          "type": "address"
        }
      ],
      "name": "ERC1967InvalidImplementation",
      "type": "error"
    },
    {
      "inputs": [],
      "name": "ERC1967NonPayable",
      "type": "error"
    },
    {
      "inputs": [],
      "name": "EmptyDescription",
      "type": "error"
    },
    {
      "inputs": [],
      "name": "EnforcedPause",
      "type": "error"
    },
    {
      "inputs": [],
      "name": "ExpectedPause",
      "type": "error"
    },
    {
      "inputs": [],
      "name": "FailedCall",
      "type": "error"
    },
    {
      "inputs": [
        {
          "internalType": "uint256",
          "name": "required",
          "type": "uint256"
        },
        {
          "internalType": "uint256",
          "name": "current",
          "type": "uint256"
        }
      ],
      "name": "InsufficientProgress",
      "type": "error"
    },
    {
      "inputs": [],
      "name": "InvalidInitialization",
      "type": "error"
    },
    {
      "inputs": [],
      "name": "InvalidQuestParameters",
      "type": "error"
    },
    {
      "inputs": [],
      "name": "InvalidQuestType",
      "type": "error"
    },
    {
      "inputs": [],
      "name": "NotInitializing",
      "type": "error"
    },
    {
      "inputs": [
        {
          "internalType": "uint256",
          "name": "questId",
          "type": "uint256"
        }
      ],
      "name": "QuestAlreadyCompleted",
      "type": "error"
    },
    {
      "inputs": [
        {
          "internalType": "uint256",
          "name": "questId",
          "type": "uint256"
        }
      ],
      "name": "QuestAlreadyExists",
      "type": "error"
    },
    {
      "inputs": [
        {
          "internalType": "uint256",
          "name": "questId",
          "type": "uint256"
        }
      ],
      "name": "QuestDoesNotExist",
      "type": "error"
    },
    {
      "inputs": [
        {
          "internalType": "uint256",
          "name": "questId",
          "type": "uint256"
        }
      ],
      "name": "QuestNotActive",
      "type": "error"
    },
    {
      "inputs": [
        {
          "internalType": "uint256",
          "name": "questId",
          "type": "uint256"
        }
      ],
      "name": "QuestNotRepeatable",
      "type": "error"
    },
    {
      "inputs": [],
      "name": "ReentrancyGuardReentrantCall",
      "type": "error"
    },
    {
      "inputs": [],
      "name": "UUPSUnauthorizedCallContext",
      "type": "error"
    },
    {
      "inputs": [
        {
          "internalType": "bytes32",
          "name": "slot",
          "type": "bytes32"
        }
      ],
      "name": "UUPSUnsupportedProxiableUUID",
      "type": "error"
    },
    {
      "inputs": [],
      "name": "ZeroXPReward",
      "type": "error"
    },
    {
      "anonymous": false,
      "inputs": [
        {
          "indexed": false,
          "internalType": "uint64",
          "name": "version",
          "type": "uint64"
        }
      ],
      "name": "Initialized",
      "type": "event"
    },
    {
      "anonymous": false,
      "inputs": [
        {
          "indexed": false,
          "internalType": "address",
          "name": "account",
          "type": "address"
        }
      ],
      "name": "Paused",
      "type": "event"
    },
    {
      "anonymous": false,
      "inputs": [
        {
          "indexed": true,
          "internalType": "address",
          "name": "user",
          "type": "address"
        },
        {
          "indexed": true,
          "internalType": "uint256",
          "name": "questId",
          "type": "uint256"
        },
        {
          "indexed": false,
          "internalType": "uint256",
          "name": "xpAwarded",
          "type": "uint256"
        },
        {
          "indexed": false,
          "internalType": "uint256",
          "name": "badgeIdMinted",
          "type": "uint256"
        }
      ],
      "name": "QuestCompleted",
      "type": "event"
    },
    {
      "anonymous": false,
      "inputs": [
        {
          "indexed": true,
          "internalType": "uint256",
          "name": "questId",
          "type": "uint256"
        },
        {
          "indexed": false,
          "internalType": "enum QuestRegistry.QuestType",
          "name": "questType",
          "type": "uint8"
        },
        {
          "indexed": false,
          "internalType": "string",
          "name": "description",
          "type": "string"
        },
        {
          "indexed": false,
          "internalType": "uint256",
          "name": "xpReward",
          "type": "uint256"
        },
        {
          "indexed": false,
          "internalType": "uint256",
          "name": "badgeIdReward",
          "type": "uint256"
        },
        {
          "indexed": false,
          "internalType": "bool",
          "name": "isRepeatable",
          "type": "bool"
        }
      ],
      "name": "QuestCreated",
      "type": "event"
    },
    {
      "anonymous": false,
      "inputs": [
        {
          "indexed": true,
          "internalType": "address",
          "name": "user",
          "type": "address"
        },
        {
          "indexed": true,
          "internalType": "uint256",
          "name": "questId",
          "type": "uint256"
        },
        {
          "indexed": false,
          "internalType": "uint256",
          "name": "newProgress",
          "type": "uint256"
        }
      ],
      "name": "QuestProgressUpdated",
      "type": "event"
    },
    {
      "anonymous": false,
      "inputs": [
        {
          "indexed": true,
          "internalType": "uint256",
          "name": "questId",
          "type": "uint256"
        },
        {
          "indexed": false,
          "internalType": "enum QuestRegistry.QuestType",
          "name": "questType",
          "type": "uint8"
        },
        {
          "indexed": false,
          "internalType": "string",
          "name": "description",
          "type": "string"
        },
        {
          "indexed": false,
          "internalType": "uint256",
          "name": "xpReward",
          "type": "uint256"
        },
        {
          "indexed": false,
          "internalType": "uint256",
          "name": "badgeIdReward",
          "type": "uint256"
        },
        {
          "indexed": false,
          "internalType": "bool",
          "name": "isRepeatable",
          "type": "bool"
        },
        {
          "indexed": false,
          "internalType": "bool",
          "name": "isActive",
          "type": "bool"
        }
      ],
      "name": "QuestUpdated",
      "type": "event"
    },
    {
      "anonymous": false,
      "inputs": [
        {
          "indexed": true,
          "internalType": "bytes32",
          "name": "role",
          "type": "bytes32"
        },
        {
          "indexed": true,
          "internalType": "bytes32",
          "name": "previousAdminRole",
          "type": "bytes32"
        },
        {
          "indexed": true,
          "internalType": "bytes32",
          "name": "newAdminRole",
          "type": "bytes32"
        }
      ],
      "name": "RoleAdminChanged",
      "type": "event"
    },
    {
      "anonymous": false,
      "inputs": [
        {
          "indexed": true,
          "internalType": "bytes32",
          "name": "role",
          "type": "bytes32"
        },
        {
          "indexed": true,
          "internalType": "address",
          "name": "account",
          "type": "address"
        },
        {
          "indexed": true,
          "internalType": "address",
          "name": "sender",
          "type": "address"
        }
      ],
      "name": "RoleGranted",
      "type": "event"
    },
    {
      "anonymous": false,
      "inputs": [
        {
          "indexed": true,
          "internalType": "bytes32",
          "name": "role",
          "type": "bytes32"
        },
        {
          "indexed": true,
          "internalType": "address",
          "name": "account",
          "type": "address"
        },
        {
          "indexed": true,
          "internalType": "address",
          "name": "sender",
          "type": "address"
        }
      ],
      "name": "RoleRevoked",
      "type": "event"
    },
    {
      "anonymous": false,
      "inputs": [
        {
          "indexed": false,
          "internalType": "address",
          "name": "account",
          "type": "address"
        }
      ],
      "name": "Unpaused",
      "type": "event"
    },
    {
      "anonymous": false,
      "inputs": [
        {
          "indexed": true,
          "internalType": "address",
          "name": "implementation",
          "type": "address"
        }
      ],
      "name": "Upgraded",
      "type": "event"
    },
    {
      "inputs": [],
      "name": "DEFAULT_ADMIN_ROLE",
      "outputs": [
        {
          "internalType": "bytes32",
          "name": "",
          "type": "bytes32"
        }
      ],
      "stateMutability": "view",
      "type": "function"
    },
    {
      "inputs": [],
      "name": "PAUSER_ROLE",
      "outputs": [
        {
          "internalType": "bytes32",
          "name": "",
          "type": "bytes32"
        }
      ],
      "stateMutability": "view",
      "type": "function"
    },
    {
      "inputs": [],
      "name": "PROGRESS_RECORDER_ROLE",
      "outputs": [
        {
          "internalType": "bytes32",
          "name": "",
          "type": "bytes32"
        }
      ],
      "stateMutability": "view",
      "type": "function"
    },
    {
      "inputs": [],
      "name": "QUEST_ADMIN_ROLE",
      "outputs": [
        {
          "internalType": "bytes32",
          "name": "",
          "type": "bytes32"
        }
      ],
      "stateMutability": "view",
      "type": "function"
    },
    {
      "inputs": [],
      "name": "UPGRADER_ROLE",
      "outputs": [
        {
          "internalType": "bytes32",
          "name": "",
          "type": "bytes32"
        }
      ],
      "stateMutability": "view",
      "type": "function"
    },
    {
      "inputs": [],
      "name": "UPGRADE_INTERFACE_VERSION",
      "outputs": [
        {
          "internalType": "string",
          "name": "",
          "type": "string"
        }
      ],
      "stateMutability": "view",
      "type": "function"
    },
    {
      "inputs": [],
      "name": "badgeMinter",
      "outputs": [
        {
          "internalType": "contract IBadgeMinter",
          "name": "",
          "type": "address"
        }
      ],
      "stateMutability": "view",
      "type": "function"
    },
    {
      "inputs": [
        {
          "internalType": "address",
          "name": "_user",
          "type": "address"
        },
        {
          "internalType": "uint256",
          "name": "_questId",
          "type": "uint256"
        }
      ],
      "name": "checkAndCompleteQuest",
      "outputs": [],
      "stateMutability": "nonpayable",
      "type": "function"
    },
    {
      "inputs": [
        {
          "internalType": "enum QuestRegistry.QuestType",
          "name": "_questType",
          "type": "uint8"
        },
        {
          "internalType": "string",
          "name": "_description",
          "type": "string"
        },
        {
          "internalType": "bytes",
          "name": "_parameters",
          "type": "bytes"
        },
        {
          "internalType": "uint256",
          "name": "_xpReward",
          "type": "uint256"
        },
        {
          "internalType": "uint256",
          "name": "_badgeIdReward",
          "type": "uint256"
        },
        {
          "internalType": "bool",
          "name": "_isRepeatable",
          "type": "bool"
        }
      ],
      "name": "createQuest",
      "outputs": [],
      "stateMutability": "nonpayable",
      "type": "function"
    },
    {
      "inputs": [
        {
          "internalType": "uint256",
          "name": "_questId",
          "type": "uint256"
        }
      ],
      "name": "getQuest",
      "outputs": [
        {
          "components": [
            {
              "internalType": "uint256",
              "name": "id",
              "type": "uint256"
            },
            {
              "internalType": "uint256",
              "name": "xpReward",
              "type": "uint256"
            },
            {
              "internalType": "uint256",
              "name": "badgeIdReward",
              "type": "uint256"
            },
            {
              "internalType": "enum QuestRegistry.QuestType",
              "name": "questType",
              "type": "uint8"
            },
            {
              "internalType": "bool",
              "name": "isRepeatable",
              "type": "bool"
            },
            {
              "internalType": "bool",
              "name": "isActive",
              "type": "bool"
            },
            {
              "internalType": "string",
              "name": "description",
              "type": "string"
            },
            {
              "internalType": "bytes",
              "name": "parameters",
              "type": "bytes"
            }
          ],
          "internalType": "struct QuestRegistry.Quest",
          "name": "",
          "type": "tuple"
        }
      ],
      "stateMutability": "view",
      "type": "function"
    },
    {
      "inputs": [
        {
          "internalType": "bytes32",
          "name": "role",
          "type": "bytes32"
        }
      ],
      "name": "getRoleAdmin",
      "outputs": [
        {
          "internalType": "bytes32",
          "name": "",
          "type": "bytes32"
        }
      ],
      "stateMutability": "view",
      "type": "function"
    },
    {
      "inputs": [
        {
          "internalType": "bytes32",
          "name": "role",
          "type": "bytes32"
        },
        {
          "internalType": "address",
          "name": "account",
          "type": "address"
        }
      ],
      "name": "grantRole",
      "outputs": [],
      "stateMutability": "nonpayable",
      "type": "function"
    },
    {
      "inputs": [
        {
          "internalType": "bytes32",
          "name": "role",
          "type": "bytes32"
        },
        {
          "internalType": "address",
          "name": "account",
          "type": "address"
        }
      ],
      "name": "hasRole",
      "outputs": [
        {
          "internalType": "bool",
          "name": "",
          "type": "bool"
        }
      ],
      "stateMutability": "view",
      "type": "function"
    },
    {
      "inputs": [
        {
          "internalType": "address",
          "name": "_xpEngineAddress",
          "type": "address"
        },
        {
          "internalType": "address",
          "name": "_badgeMinterAddress",
          "type": "address"
        }
      ],
      "name": "initialize",
      "outputs": [],
      "stateMutability": "nonpayable",
      "type": "function"
    },
    {
      "inputs": [],
      "name": "pause",
      "outputs": [],
      "stateMutability": "nonpayable",
      "type": "function"
    },
    {
      "inputs": [],
      "name": "paused",
      "outputs": [
        {
          "internalType": "bool",
          "name": "",
          "type": "bool"
        }
      ],
      "stateMutability": "view",
      "type": "function"
    },
    {
      "inputs": [],
      "name": "proxiableUUID",
      "outputs": [
        {
          "internalType": "bytes32",
          "name": "",
          "type": "bytes32"
        }
      ],
      "stateMutability": "view",
      "type": "function"
    },
    {
      "inputs": [
        {
          "internalType": "uint256",
          "name": "",
          "type": "uint256"
        }
      ],
      "name": "quests",
      "outputs": [
        {
          "internalType": "uint256",
          "name": "id",
          "type": "uint256"
        },
        {
          "internalType": "uint256",
          "name": "xpReward",
          "type": "uint256"
        },
        {
          "internalType": "uint256",
          "name": "badgeIdReward",
          "type": "uint256"
        },
        {
          "internalType": "enum QuestRegistry.QuestType",
          "name": "questType",
          "type": "uint8"
        },
        {
          "internalType": "bool",
          "name": "isRepeatable",
          "type": "bool"
        },
        {
          "internalType": "bool",
          "name": "isActive",
          "type": "bool"
        },
        {
          "internalType": "string",
          "name": "description",
          "type": "string"
        },
        {
          "internalType": "bytes",
          "name": "parameters",
          "type": "bytes"
        }
      ],
      "stateMutability": "view",
      "type": "function"
    },
    {
      "inputs": [
        {
          "internalType": "address",
          "name": "_user",
          "type": "address"
        },
        {
          "internalType": "uint256",
          "name": "_questId",
          "type": "uint256"
        },
        {
          "internalType": "uint256",
          "name": "_progressAmount",
          "type": "uint256"
        }
      ],
      "name": "recordProgress",
      "outputs": [],
      "stateMutability": "nonpayable",
      "type": "function"
    },
    {
      "inputs": [
        {
          "internalType": "bytes32",
          "name": "role",
          "type": "bytes32"
        },
        {
          "internalType": "address",
          "name": "callerConfirmation",
          "type": "address"
        }
      ],
      "name": "renounceRole",
      "outputs": [],
      "stateMutability": "nonpayable",
      "type": "function"
    },
    {
      "inputs": [
        {
          "internalType": "bytes32",
          "name": "role",
          "type": "bytes32"
        },
        {
          "internalType": "address",
          "name": "account",
          "type": "address"
        }
      ],
      "name": "revokeRole",
      "outputs": [],
      "stateMutability": "nonpayable",
      "type": "function"
    },
    {
      "inputs": [
        {
          "internalType": "bytes4",
          "name": "interfaceId",
          "type": "bytes4"
        }
      ],
      "name": "supportsInterface",
      "outputs": [
        {
          "internalType": "bool",
          "name": "",
          "type": "bool"
        }
      ],
      "stateMutability": "view",
      "type": "function"
    },
    {
      "inputs": [],
      "name": "unpause",
      "outputs": [],
      "stateMutability": "nonpayable",
      "type": "function"
    },
    {
      "inputs": [
        {
          "internalType": "uint256",
          "name": "_questId",
          "type": "uint256"
        },
        {
          "internalType": "enum QuestRegistry.QuestType",
          "name": "_questType",
          "type": "uint8"
        },
        {
          "internalType": "string",
          "name": "_description",
          "type": "string"
        },
        {
          "internalType": "bytes",
          "name": "_parameters",
          "type": "bytes"
        },
        {
          "internalType": "uint256",
          "name": "_xpReward",
          "type": "uint256"
        },
        {
          "internalType": "uint256",
          "name": "_badgeIdReward",
          "type": "uint256"
        },
        {
          "internalType": "bool",
          "name": "_isRepeatable",
          "type": "bool"
        },
        {
          "internalType": "bool",
          "name": "_isActive",
          "type": "bool"
        }
      ],
      "name": "updateQuest",
      "outputs": [],
      "stateMutability": "nonpayable",
      "type": "function"
    },
    {
      "inputs": [
        {
          "internalType": "address",
          "name": "newImplementation",
          "type": "address"
        },
        {
          "internalType": "bytes",
          "name": "data",
          "type": "bytes"
        }
      ],
      "name": "upgradeToAndCall",
      "outputs": [],
      "stateMutability": "payable",
      "type": "function"
    },
    {
      "inputs": [
        {
          "internalType": "address",
          "name": "",
          "type": "address"
        },
        {
          "internalType": "uint256",
          "name": "",
          "type": "uint256"
        }
      ],
      "name": "userQuestCompleted",
      "outputs": [
        {
          "internalType": "bool",
          "name": "",
          "type": "bool"
        }
      ],
      "stateMutability": "view",
      "type": "function"
    },
    {
      "inputs": [
        {
          "internalType": "address",
          "name": "",
          "type": "address"
        },
        {
          "internalType": "uint256",
          "name": "",
          "type": "uint256"
        }
      ],
      "name": "userQuestProgress",
      "outputs": [
        {
          "internalType": "uint256",
          "name": "",
          "type": "uint256"
        }
      ],
      "stateMutability": "view",
      "type": "function"
    },
    {
      "inputs": [],
      "name": "xpEngine",
      "outputs": [
        {
          "internalType": "contract IXPEngine",
          "name": "",
          "type": "address"
        }
      ],
      "stateMutability": "view",
      "type": "function"
    }
  ],
  "bytecode": "0x60a080604052346100cc57306080527ff0c57e16840df040f15088dc2f81fe391c3923bec73e23a9662efc9c229c6a009081549060ff8260401c166100bd57506001600160401b036002600160401b031982821601610078575b60405161262490816100d282396080518181816112bd01526113650152f35b6001600160401b031990911681179091556040519081527fc7f505b2f371ae2175ee4913f4499e1f2633a7b5936321eed1cdaeb6115181d290602090a1388080610059565b63f92ee8a960e01b8152600490fd5b600080fdfe608080604052600436101561001357600080fd5b600090813560e01c90816301ffc9a714611d2257508063064e892314611b375780630964284114611afc578063248a9ca314611ac25780632f2ff15d14611a7757806336568abe14611a2f57806338258252146119ec5780633f4ba83a146119745780634139aa461461192b578063485cc9551461177257806348a72d921461173757806349f86f34146115a95780634f1ef2861461132757806352d1902d146112aa5780635994588114610f485780635c975abb14610f185780636e131ad614610eef5780638456cb5914610e8757806391d1485414610e31578063a217fddf14610e15578063ad3cb1cc14610da9578063b71d2f841461074b578063b8f81a571461030e578063d547741f146102bf578063e085f980146101f6578063e63ab1e9146101bb578063f72c0d8b146101805763fdcacdb31461015557600080fd5b3461017d578060031936011261017d576005546040516001600160a01b039091168152602090f35b80fd5b503461017d578060031936011261017d5760206040517f189ab7a9244df0848122154315af71fe140f3db0fe014031783b0946b8c9d2e38152f35b503461017d578060031936011261017d5760206040517f65d7a28e3265b37a6474929f336521b332c1681b933f6cb9f3376673440d862a8152f35b503461017d57602036600319011261017d57604090600435815280602052208054906102bb60056102ad60018401549360028101549560ff6003830154610262604051946102528661024b8160048501611efd565b0387611e40565b61024b6040518099819301611efd565b604051988998610100948a5260208a0152604089015261028760608901838316611da3565b818160081c161515608089015260101c16151560a08701528060c0870152850190611de9565b9083820360e0850152611de9565b0390f35b503461017d57604036600319011261017d5761030a6004356102df611d8d565b908084526000805160206125b883398151915260205261030560016040862001546120db565b612470565b5080f35b503461017d5760c036600319011261017d576006600435101561017d576024356001600160401b0381116107475761034a903690600401611e7c565b6044356001600160401b03811161074357610369903690600401611e7c565b9060a435801515810361073e5761037e61207f565b61038661210e565b6004351561072c5781511561071a576064351580610710575b6106fe576003549260001984146106ea5760018401600355604051906103c482611e0e565b848252606435602083015260843560408301526103e660043560608401611f93565b8215156080830152600160a08301528360c083015260e0820152838552846020526040852081518155602082015160018201556040820151600282015560038101606083015160068110156106d657906104436104799282611f9f565b6080840151815461ff00191690151560081b61ff001617815560a0840151815462ff0000191690151560101b62ff000016179055565b60c08201518051906001600160401b0382116106c2576104a9826104a06004860154611ec3565b60048601611fb7565b602090601f8311600114610653578260059360e095936104df938c926105a9575b50508160011b916000199060031b1c19161790565b60048201555b019101518051906001600160401b03821161063f5761050e826105088554611ec3565b85611fb7565b602090601f83116001146105b4578261058b95937f9fd7350607559cbf4c78ba0645822628821dd8c3ebff65698bafc0fc90d597fe979593610565938b926105a95750508160011b916000199060031b1c19161790565b90555b60405192839261057a84600435611da3565b60a0602085015260a0840190611de9565b9060643560408401526084356060840152151560808301520390a280f35b0151905038806104ca565b838852602088209190601f198416895b818110610627575092600192859261058b98967f9fd7350607559cbf4c78ba0645822628821dd8c3ebff65698bafc0fc90d597fe9a98961061060e575b505050811b019055610568565b015160001960f88460031b161c19169055388080610601565b929360206001819287860151815501950193016105c4565b634e487b7160e01b87526041600452602487fd5b600484018952602089209190601f1984168a5b8181106106aa575092600192859260059660e0989610610691575b505050811b0160048201556104e5565b015160001960f88460031b161c19169055388080610681565b92936020600181928786015181550195019301610666565b634e487b7160e01b88526041600452602488fd5b634e487b7160e01b88526021600452602488fd5b634e487b7160e01b85526011600452602485fd5b6040516304b5cef760e11b8152600490fd5b506084351561039f565b60405163d937d5df60e01b8152600490fd5b60405163409c3f1f60e11b8152600490fd5b600080fd5b8280fd5b5080fd5b503461017d57604036600319011261017d57610765611d77565b602480359061077261210e565b61077a612139565b8184526020928484526040852090815415610d9157600382019485549560ff8760101c1615610d795760ff8760081c161580610d53575b610d3b57879660ff899116976006891015610d2857600198808a03610be1575090506040516107ee816107e78160058a01611efd565b0382611e40565b8381805181010312610bdd578301516001600160a01b0385168a528884526040808b20898c5285528a2054909190821115610bd6575b15610b9c57508680850194855480610b10575b50600201958654806108cf575b505050907f954c56630776f697dcdbcd8b735d0d97d82b2be631e6673fd56563a1559ede5d9360ff604094935460081c16156108a5575b5494548351958652908501526001600160a01b031692a36000805160206125f88339815191525580f35b6001600160a01b038316895260028252838920878a528252838920805460ff19168917905561087b565b6005548592916001600160a01b0391821691908d9089908290807a184f03e93ff9f4daa797ed6e38ed64bf6a1f0100000000000000008181811015610b02575b5050886d04ee2d6d415b85acef810000000080841015610af4575b5050662386f26fc1000080831015610ae5575b506305f5e10080831015610ad6575b5061271080831015610ac7575b506064821015610ab7575b89600a80931015610aad575b830199908161097e8c611e61565b9b6040519c61098d908e611e40565b808d5261099990611e61565b8c8c019590601f19013687378c01602101905b610a76575b5050505071697066733a2f2f717565737462616467652f60701b6109ff603289610a25946109ef60409d8e5196879485015251809285850190611dc6565b8101036012810184520182611e40565b885198899788968795630d6575f960e31b87521660048601528401526044830190611de9565b03925af18015610a6b57610a3c575b808891610844565b9180919392813d8311610a64575b610a548183611e40565b8101031261073e57909138610a34565b503d610a4a565b6040513d8b823e3d90fd5b600019019083906f181899199a1a9b1b9c1cb0b131b232b360811b8282061a835304918215610aa7579190826109ac565b916109b1565b9092019189610970565b9190606460029104910191610964565b60049193920491019138610959565b6008919392049101913861094c565b6010919392049101913861093d565b93019290910490883861092a565b60409450049150388061090f565b6004549192506001600160a01b03918216918b9190833b1561074357604490836040519586948593630c4f349360e01b85528c1660048501528d8401525af18015610b9157610b62575b908891610837565b6001600160401b03819a929a11610b7e57604052976002610b5a565b634e487b7160e01b825260416004528682fd5b6040513d8c823e3d90fd5b6001600160a01b03841689528783526040808a20888b528452808a20549051630dac372960e01b8152600481019290925281870152604490fd5b5087610824565b8980fd5b60028103610c3b57509050604051610c00816107e78160058a01611efd565b8381805181010312610bdd578301516001600160a01b0385168a528884526040808b20898c5285528a2054909190821115610bd6575b610824565b60038103610c9757509050610c6b604051610c5d816107e78160058b01611efd565b84808251830101910161200d565b506001600160a01b0385168a528884526040808b20898c5285528a2054909190821115610bd657610824565b60048103610ce657509050610cb9604051610c5d816107e78160058b01611efd565b6001600160a01b0386168b528985526040808c208a8d5286528b2054909291508211610824575087610824565b600503610d16576001600160a01b0385168a528884526040808b20898c5285528a20548911610c36575087610824565b6040516301029fd360e61b8152600490fd5b634e487b7160e01b8a526021600452868afd5b604051632585349360e01b8152600481018790528590fd5b506001600160a01b0383168852600282526040808920878a52835288205460ff166107b1565b604051636265734160e11b8152600481018790528590fd5b60405163992dcaf760e01b8152600481018590528390fd5b503461017d578060031936011261017d57604051604081018181106001600160401b03821117610e01576102bb925060405260058152640352e302e360dc1b6020820152604051918291602083526020830190611de9565b634e487b7160e01b83526041600452602483fd5b503461017d578060031936011261017d57602090604051908152f35b503461017d57604036600319011261017d5760ff6040602092610e52611d8d565b60043582526000805160206125b883398151915285528282206001600160a01b03909116825284522054604051911615158152f35b503461017d578060031936011261017d57610ea0612023565b610ea861210e565b6000805160206125d8833981519152600160ff198254161790557f62e78cea01bee320cd4e420270b5ea74000d11b0c9f74754ebdbfc544b05a2586020604051338152a180f35b503461017d578060031936011261017d576004546040516001600160a01b039091168152602090f35b503461017d578060031936011261017d57602060ff6000805160206125d883398151915254166040519015158152f35b503461017d5761010036600319011261017d576006602435101561017d576044356001600160401b03811161074757610f85903690600401611e7c565b906064356001600160401b03811161074757610fa5903690600401611e7c565b9160c435151560c435036107475760e435151560e4350361074757610fc861207f565b610fd061210e565b600435825281602052604082205415611291576024351561072c5780511561071a576084351580611287575b6106fe5760043582528160205261101b60243560036040852001611f9f565b6004358252816020526004604083200181516001600160401b0381116112055761104f816110498454611ec3565b84611fb7565b6020601f821160011461122457908061107d928691611219575b508160011b916000199060031b1c19161790565b90555b6004358252816020526005604083200183516001600160401b038111611205576110ae816110498454611ec3565b6020601f821160011461119f57819085966110df949596926105a95750508160011b916000199060031b1c19161790565b90555b6004358252602082905260408220608435600182015560a4356002820155600301805462ff000060e435151560101b1662ffff001990911661ff0060c435151560081b16171790557ff87f42646e4978cef19f11d19bd03108a928d22833368144af2b04284c390e7361116f6040519261115e84602435611da3565b60c0602085015260c0840190611de9565b91608435604082015260a435606082015260c4351515608082015260e435151560a082015280600435930390a280f35b8285526020852090855b601f19841681106111ed575060019394959683601f198116106111d4575b505050811b0190556110e2565b015160001960f88460031b161c191690553880806111c7565b9091602060018192858b0151815501930191016111a9565b634e487b7160e01b84526041600452602484fd5b905084015138611069565b908285526020852085925b601f198316841061126f576001935082601f19811610611256575b5050811b019055611080565b85015160001960f88460031b161c19169055388061124a565b8581015182556020938401936001909201910161122f565b5060a43515610ffc565b602460405163992dcaf760e01b81526004356004820152fd5b503461017d578060031936011261017d577f00000000000000000000000000000000000000000000000000000000000000006001600160a01b031630036113155760206040517f360894a13ba1a3210667c828492db98dca3e2076cc3735a920a3ca505d382bbc8152f35b60405163703e46dd60e11b8152600490fd5b50604036600319011261017d5761133c611d77565b6024356001600160401b0381116107435761135b903690600401611e7c565b6001600160a01b037f0000000000000000000000000000000000000000000000000000000000000000811630811490811561157b575b50611315577f189ab7a9244df0848122154315af71fe140f3db0fe014031783b0946b8c9d2e3908185526020916000805160206125b8833981519152835260408620338752835260ff6040872054161561155d57508316926040516352d1902d60e01b81528281600481885afa86918161152a575b5061142457604051634c9c8ce360e01b815260048101869052602490fd5b9385947f360894a13ba1a3210667c828492db98dca3e2076cc3735a920a3ca505d382bbc908181036115125750823b156114f95780546001600160a01b0319168217905560405185917fbc7cd75a20ee27fd9adebab32041f755214dbc6bffa90cc0225b39da2e5c2d3b8380a28451156114dc575080848461030a96519101845af4903d156114d3573d6114b781611e61565b906114c56040519283611e40565b81528581943d92013e612534565b60609250612534565b9350505050346114ea575080f35b63b398979f60e01b8152600490fd5b604051634c9c8ce360e01b815260048101839052602490fd5b60249060405190632a87526960e21b82526004820152fd5b9091508381813d8311611556575b6115428183611e40565b8101031261155257519038611406565b8680fd5b503d611538565b6044906040519063e2517d3f60e01b82523360048301526024820152fd5b9050817f360894a13ba1a3210667c828492db98dca3e2076cc3735a920a3ca505d382bbc5416141538611391565b503461017d576020806003193601126107475760043591606060e06040516115d081611e0e565b838152838582015283604082015283838201528360808201528360a08201528260c0820152015282815280825260408120541561171e57604091928152808352206102bb60056040519261162384611e0e565b805484526001810154858501908152600282015490604086019182526116e2600384015492606088019061165a60ff861683611f93565b608089019360ff8660081c161515855260ff60a08b019660101c16151586526116b660405197611698896116918160048501611efd565b038a611e40565b60c08c019889526116af604051809b819301611efd565b0389611e40565b60e08a019788526040519a8b9a818c5251908b01525160408a0152516060890152516080880190611da3565b51151560a086015251151560c08501525161170b610100918260e0870152610120860190611de9565b915190601f198584030190850152611de9565b60405163992dcaf760e01b815260048101849052602490fd5b503461017d578060031936011261017d5760206040517fa819a7510c445d19a32f49b6cbd917c0cd012a772c2a20b063cac3c53dbbb38a8152f35b503461017d57604036600319011261017d5761178c611d77565b611794611d8d565b7ff0c57e16840df040f15088dc2f81fe391c3923bec73e23a9662efc9c229c6a009182549160ff8360401c1615926001600160401b03811680159081611923575b6001149081611919575b159081611910575b506118fe5767ffffffffffffffff1981166001178555836118df575b5061180c6124f3565b6118146124f3565b61181c6124f3565b6118246124f3565b60016000805160206125f88339815191525561183e6124f3565b61184733612169565b50611851336121f7565b5061185b336122a7565b5061186533612351565b5060018060a01b0390816bffffffffffffffffffffffff60a01b93168360045416176004551690600554161760055560016003556118a1575080f35b68ff00000000000000001981541690557fc7f505b2f371ae2175ee4913f4499e1f2633a7b5936321eed1cdaeb6115181d2602060405160018152a180f35b68ffffffffffffffffff19166801000000000000000117845538611803565b60405163f92ee8a960e01b8152600490fd5b905015386117e7565b303b1591506117df565b8591506117d5565b503461017d57604036600319011261017d5760209060ff906040906001600160a01b03611956611d77565b16815260028452818120602435825284522054166040519015158152f35b503461017d578060031936011261017d5761198d612023565b6000805160206125d8833981519152805460ff8116156119da5760ff191690557f5db9ee0a495bf2e6ff9c91a7834c1ba4fdd244a5e8aa4e537bd38aeae4b073aa6020604051338152a180f35b604051638dfc202b60e01b8152600490fd5b503461017d57604036600319011261017d576020906040906001600160a01b03611a14611d77565b16815260018352818120602435825283522054604051908152f35b503461017d57604036600319011261017d57611a49611d8d565b336001600160a01b03821603611a655761030a90600435612470565b60405163334bd91960e11b8152600490fd5b503461017d57604036600319011261017d5761030a600435611a97611d8d565b908084526000805160206125b8833981519152602052611abd60016040862001546120db565b6123fb565b503461017d57602036600319011261017d576001604060209260043581526000805160206125b88339815191528452200154604051908152f35b503461017d578060031936011261017d5760206040517fd9fa870f425abcc65e9f66291fd387e7d8e4b1a8019d84df97822b1a0643f5858152f35b503461017d57606036600319011261017d57611b51611d77565b906024918235907fa819a7510c445d19a32f49b6cbd917c0cd012a772c2a20b063cac3c53dbbb38a908184526020916000805160206125b8833981519152835260408520338652835260ff60408620541615611d055750611bb061210e565b611bb8612139565b828452838252604084205415611ced5782845283825260ff600360408620015460101c1615611cd55782845283825260ff600360408620015460081c161580611caf575b611c97576001600160a01b0316808452600182526040808520848652835284208054919291604435810191908210611c8457907f95b529ceb2b4c5026133eafcb0f6e7e63f17c39398d1b67e14569272cf3c956b929155828552600181526040852084865281526040852054604051908152a360016000805160206125f88339815191525580f35b634e487b7160e01b865260116004528686fd5b604051632585349360e01b8152600481018490528590fd5b506001600160a01b0381168452600282526040808520848652835284205460ff16611bfc565b604051636265734160e11b8152600481018490528590fd5b60405163992dcaf760e01b8152600481018490528590fd5b856044916040519163e2517d3f60e01b8352336004840152820152fd5b9050346107475760203660031901126107475760043563ffffffff60e01b81168091036107435760209250637965db0b60e01b8114908115611d66575b5015158152f35b6301ffc9a760e01b14905038611d5f565b600435906001600160a01b038216820361073e57565b602435906001600160a01b038216820361073e57565b906006821015611db05752565b634e487b7160e01b600052602160045260246000fd5b60005b838110611dd95750506000910152565b8181015183820152602001611dc9565b90602091611e0281518092818552858086019101611dc6565b601f01601f1916010190565b61010081019081106001600160401b03821117611e2a57604052565b634e487b7160e01b600052604160045260246000fd5b90601f801991011681019081106001600160401b03821117611e2a57604052565b6001600160401b038111611e2a57601f01601f191660200190565b81601f8201121561073e57803590611e9382611e61565b92611ea16040519485611e40565b8284526020838301011161073e57816000926020809301838601378301015290565b90600182811c92168015611ef3575b6020831014611edd57565b634e487b7160e01b600052602260045260246000fd5b91607f1691611ed2565b805460009392611f0c82611ec3565b91828252602093600191600181169081600014611f745750600114611f33575b5050505050565b90939495506000929192528360002092846000945b838610611f6057505050500101903880808080611f2c565b805485870183015294019385908201611f48565b60ff19168685015250505090151560051b010191503880808080611f2c565b6006821015611db05752565b906006811015611db05760ff80198354169116179055565b90601f8111611fc557505050565b6000916000526020600020906020601f850160051c83019410612003575b601f0160051c01915b828110611ff857505050565b818155600101611fec565b9092508290611fe3565b919082604091031261073e576020825192015190565b3360009081527f75442b0a96088b5456bc4ed01394c96a4feec0f883c9494257d76b96ab1c9b6b60205260409020547f65d7a28e3265b37a6474929f336521b332c1681b933f6cb9f3376673440d862a9060ff161561155d5750565b3360009081527f0657d20b0891a56956614f2ee4ce7b6226497c42cecfb585e4b7e62de04e492860205260409020547fd9fa870f425abcc65e9f66291fd387e7d8e4b1a8019d84df97822b1a0643f5859060ff161561155d5750565b806000526000805160206125b883398151915260205260406000203360005260205260ff604060002054161561155d5750565b60ff6000805160206125d8833981519152541661212757565b60405163d93c066560e01b8152600490fd5b6000805160206125f883398151915260028154146121575760029055565b604051633ee5aeb560e01b8152600490fd5b6001600160a01b031660008181527fb7db2dd08fcb62d0c9e08c51941cae53c267786a0b75803fb7960902fc8ef97d60205260408120549091906000805160206125b88339815191529060ff166121f2578280526020526040822081835260205260408220600160ff1982541617905533916000805160206125988339815191528180a4600190565b505090565b6001600160a01b031660008181527f75442b0a96088b5456bc4ed01394c96a4feec0f883c9494257d76b96ab1c9b6b60205260408120549091907f65d7a28e3265b37a6474929f336521b332c1681b933f6cb9f3376673440d862a906000805160206125b88339815191529060ff166122a1578184526020526040832082845260205260408320600160ff19825416179055600080516020612598833981519152339380a4600190565b50505090565b6001600160a01b031660008181527f0657d20b0891a56956614f2ee4ce7b6226497c42cecfb585e4b7e62de04e492860205260408120549091907fd9fa870f425abcc65e9f66291fd387e7d8e4b1a8019d84df97822b1a0643f585906000805160206125b88339815191529060ff166122a1578184526020526040832082845260205260408320600160ff19825416179055600080516020612598833981519152339380a4600190565b6001600160a01b031660008181527fab71e3f32666744d246edff3f96e4bdafee2e9867098cdd118a979a7464786a860205260408120549091907f189ab7a9244df0848122154315af71fe140f3db0fe014031783b0946b8c9d2e3906000805160206125b88339815191529060ff166122a1578184526020526040832082845260205260408320600160ff19825416179055600080516020612598833981519152339380a4600190565b906000918083526000805160206125b883398151915280602052604084209260018060a01b03169283855260205260ff604085205416156000146122a1578184526020526040832082845260205260408320600160ff19825416179055600080516020612598833981519152339380a4600190565b906000918083526000805160206125b883398151915280602052604084209260018060a01b03169283855260205260ff6040852054166000146122a157818452602052604083208284526020526040832060ff1981541690557ff6391f5c32d9c69d2a47ea670b442974b53935d1edc7fd64eb21e047a839171b339380a4600190565b60ff7ff0c57e16840df040f15088dc2f81fe391c3923bec73e23a9662efc9c229c6a005460401c161561252257565b604051631afcd79f60e31b8152600490fd5b9061255b575080511561254957602081519101fd5b60405163d6bda27560e01b8152600490fd5b8151158061258e575b61256c575090565b604051639996b31560e01b81526001600160a01b039091166004820152602490fd5b50803b1561256456fe2f8788117e7eff1d82e926ec794901d17c78024a50270940304540a733656f0d02dd7bc7dec4dceedda775e58dd541e08a116c6c53815c0bd028192f7b626800cd5ed15c6e187e77e9aee88184c21f4f2182ab5827cb3b7e07fbedcd63f033009b779b17422d0df92223018b32b4d1fa46e071723d6817e2486d003becc55f00a164736f6c6343000816000a",
  "linkReferences": {},
  "deployedLinkReferences": {}
}