{
  "_format": "hh-sol-artifact-1",
  "contractName": "MockForgeUtilityManager",
  "sourceName": "contracts/test/MockForgeUtilityManager.sol",
  "abi": [
    {
      "inputs": [],
      "stateMutability": "nonpayable",
      "type": "constructor"
    },
    {
      "inputs": [
        {
          "internalType": "address",
          "name": "user",
          "type": "address"
        }
      ],
      "name": "getUserUtility",
      "outputs": [
        {
          "internalType": "uint32",
          "name": "",
          "type": "uint32"
        },
        {
          "internalType": "uint32",
          "name": "",
          "type": "uint32"
        },
        {
          "internalType": "uint8",
          "name": "",
          "type": "uint8"
        },
        {
          "internalType": "bool",
          "name": "",
          "type": "bool"
        }
      ],
      "stateMutability": "view",
      "type": "function"
    },
    {
      "inputs": [
        {
          "internalType": "address",
          "name": "",
          "type": "address"
        }
      ],
      "name": "governanceParticipation",
      "outputs": [
        {
          "internalType": "uint256",
          "name": "",
          "type": "uint256"
        }
      ],
      "stateMutability": "view",
      "type": "function"
    },
    {
      "inputs": [],
      "name": "premiumFeaturesEnabled",
      "outputs": [
        {
          "internalType": "bool",
          "name": "",
          "type": "bool"
        }
      ],
      "stateMutability": "view",
      "type": "function"
    },
    {
      "inputs": [
        {
          "internalType": "address",
          "name": "user",
          "type": "address"
        },
        {
          "internalType": "uint256",
          "name": "participationWeight",
          "type": "uint256"
        }
      ],
      "name": "recordGovernanceParticipation",
      "outputs": [],
      "stateMutability": "nonpayable",
      "type": "function"
    },
    {
      "inputs": [
        {
          "internalType": "bool",
          "name": "enabled",
          "type": "bool"
        }
      ],
      "name": "setPremiumFeaturesEnabled",
      "outputs": [],
      "stateMutability": "nonpayable",
      "type": "function"
    },
    {
      "inputs": [
        {
          "internalType": "bool",
          "name": "enabled",
          "type": "bool"
        }
      ],
      "name": "setStakingEnabled",
      "outputs": [],
      "stateMutability": "nonpayable",
      "type": "function"
    },
    {
      "inputs": [],
      "name": "stakingEnabled",
      "outputs": [
        {
          "internalType": "bool",
          "name": "",
          "type": "bool"
        }
      ],
      "stateMutability": "view",
      "type": "function"
    },
    {
      "inputs": [
        {
          "internalType": "address",
          "name": "user",
          "type": "address"
        }
      ],
      "name": "updateUserUtility",
      "outputs": [],
      "stateMutability": "nonpayable",
      "type": "function"
    },
    {
      "inputs": [
        {
          "internalType": "address",
          "name": "",
          "type": "address"
        }
      ],
      "name": "userUtilities",
      "outputs": [
        {
          "internalType": "uint32",
          "name": "stakingPower",
          "type": "uint32"
        },
        {
          "internalType": "uint32",
          "name": "governancePower",
          "type": "uint32"
        },
        {
          "internalType": "uint8",
          "name": "premiumTier",
          "type": "uint8"
        },
        {
          "internalType": "bool",
          "name": "isPremium",
          "type": "bool"
        }
      ],
      "stateMutability": "view",
      "type": "function"
    }
  ],
  "bytecode": "0x608080604052346100255761010161ffff196002541617600255610465908161002b8239f35b600080fdfe60806040818152600436101561001457600080fd5b600091823560e01c9081630602a15c146103cf57508063148851341461031a5780631518900c146102ea5780631cfff51b146102c45780633e93065e146102a15780637561a15d146101ee578063b3ab16541461012d578063bce8567e146100f35763bebd1d761461008557600080fd5b346100ef5760203660031901126100ef579081906001600160a01b036100a9610407565b168152602081815291902054825163ffffffff808316825282841c169281019290925260ff9281901c8316604083015260481c90911615156060820152608090f35b0390f35b5080fd5b823461012a57602036600319011261012a576004358015158091036100ef5761ff006002549160081b169061ff0019161760025580f35b80fd5b50903461012a57602036600319011261012a576001600160a01b03610150610407565b168152806020526100eb6060838320610167610422565b90549063ffffffff808316908183528360201c169182602082015260ff80858a1c1694858a84015260481c161515948591015280156000146101e857506064945b50806101e257506064945b5163ffffffff948516815294909316602085015260ff9092166040840152901515606083015281906080820190565b946101b3565b946101a8565b50346100ef5760203660031901126100ef57610208610407565b90610211610422565b60968152607860208083019182526001848401818152606085019182526001600160a01b039690961687528682528487209351845493519651915169ffffffffffffffffffff1990941663ffffffff9091161767ffffffff000000009690921b95909516179390921b68ff0000000000000000169290921790151560481b69ff0000000000000000001617905580f35b50346100ef57816003193601126100ef5760209060ff6002541690519015158152f35b50346100ef57816003193601126100ef5760209060ff60025460081c1690519015158152f35b823461012a57602036600319011261012a576004358015158091036100ef5760ff80196002541691161760025580f35b50346100ef57806003193601126100ef57610333610407565b6001600160a01b03168083526001602052818320805460243592918184019182106103bb5755600a63ffffffff938492865285602052852092041682825460201c16019182116103a757906103a4919067ffffffff0000000082549160201b169067ffffffff000000001916179055565b80f35b634e487b7160e01b83526011600452602483fd5b634e487b7160e01b86526011600452602486fd5b91905034610403576020366003190112610403576020926001600160a01b036103f6610407565b1681526001845220548152f35b8280fd5b600435906001600160a01b038216820361041d57565b600080fd5b604051906080820182811067ffffffffffffffff82111761044257604052565b634e487b7160e01b600052604160045260246000fdfea164736f6c6343000816000a",
  "linkReferences": {},
  "deployedLinkReferences": {}
}