{
  "_format": "hh-sol-artifact-1",
  "contractName": "AuctionManager",
  "sourceName": "contracts/modules/AuctionManager.sol",
  "abi": [
    {
      "inputs": [],
      "name": "AccessControlBadConfirmation",
      "type": "error"
    },
    {
      "inputs": [
        {
          "internalType": "address",
          "name": "account",
          "type": "address"
        },
        {
          "internalType": "bytes32",
          "name": "neededRole",
          "type": "bytes32"
        }
      ],
      "name": "AccessControlUnauthorizedAccount",
      "type": "error"
    },
    {
      "inputs": [],
      "name": "EnforcedPause",
      "type": "error"
    },
    {
      "inputs": [],
      "name": "ExpectedPause",
      "type": "error"
    },
    {
      "inputs": [],
      "name": "InvalidInitialization",
      "type": "error"
    },
    {
      "inputs": [],
      "name": "NotInitializing",
      "type": "error"
    },
    {
      "inputs": [],
      "name": "ReentrancyGuardReentrantCall",
      "type": "error"
    },
    {
      "inputs": [
        {
          "internalType": "address",
          "name": "token",
          "type": "address"
        }
      ],
      "name": "SafeERC20FailedOperation",
      "type": "error"
    },
    {
      "anonymous": false,
      "inputs": [
        {
          "indexed": true,
          "internalType": "uint256",
          "name": "listingId",
          "type": "uint256"
        },
        {
          "indexed": true,
          "internalType": "address",
          "name": "winner",
          "type": "address"
        },
        {
          "indexed": false,
          "internalType": "uint256",
          "name": "winningBid",
          "type": "uint256"
        }
      ],
      "name": "AuctionEnded",
      "type": "event"
    },
    {
      "anonymous": false,
      "inputs": [
        {
          "indexed": true,
          "internalType": "uint256",
          "name": "listingId",
          "type": "uint256"
        },
        {
          "indexed": false,
          "internalType": "uint256",
          "name": "newEndTime",
          "type": "uint256"
        }
      ],
      "name": "AuctionExtended",
      "type": "event"
    },
    {
      "anonymous": false,
      "inputs": [
        {
          "indexed": true,
          "internalType": "uint256",
          "name": "listingId",
          "type": "uint256"
        },
        {
          "indexed": true,
          "internalType": "address",
          "name": "bidder",
          "type": "address"
        },
        {
          "indexed": false,
          "internalType": "uint256",
          "name": "bidAmount",
          "type": "uint256"
        },
        {
          "indexed": false,
          "internalType": "uint256",
          "name": "timestamp",
          "type": "uint256"
        }
      ],
      "name": "BidPlaced",
      "type": "event"
    },
    {
      "anonymous": false,
      "inputs": [
        {
          "indexed": false,
          "internalType": "uint64",
          "name": "version",
          "type": "uint64"
        }
      ],
      "name": "Initialized",
      "type": "event"
    },
    {
      "anonymous": false,
      "inputs": [
        {
          "indexed": false,
          "internalType": "address",
          "name": "account",
          "type": "address"
        }
      ],
      "name": "Paused",
      "type": "event"
    },
    {
      "anonymous": false,
      "inputs": [
        {
          "indexed": true,
          "internalType": "bytes32",
          "name": "role",
          "type": "bytes32"
        },
        {
          "indexed": true,
          "internalType": "bytes32",
          "name": "previousAdminRole",
          "type": "bytes32"
        },
        {
          "indexed": true,
          "internalType": "bytes32",
          "name": "newAdminRole",
          "type": "bytes32"
        }
      ],
      "name": "RoleAdminChanged",
      "type": "event"
    },
    {
      "anonymous": false,
      "inputs": [
        {
          "indexed": true,
          "internalType": "bytes32",
          "name": "role",
          "type": "bytes32"
        },
        {
          "indexed": true,
          "internalType": "address",
          "name": "account",
          "type": "address"
        },
        {
          "indexed": true,
          "internalType": "address",
          "name": "sender",
          "type": "address"
        }
      ],
      "name": "RoleGranted",
      "type": "event"
    },
    {
      "anonymous": false,
      "inputs": [
        {
          "indexed": true,
          "internalType": "bytes32",
          "name": "role",
          "type": "bytes32"
        },
        {
          "indexed": true,
          "internalType": "address",
          "name": "account",
          "type": "address"
        },
        {
          "indexed": true,
          "internalType": "address",
          "name": "sender",
          "type": "address"
        }
      ],
      "name": "RoleRevoked",
      "type": "event"
    },
    {
      "anonymous": false,
      "inputs": [
        {
          "indexed": false,
          "internalType": "address",
          "name": "account",
          "type": "address"
        }
      ],
      "name": "Unpaused",
      "type": "event"
    },
    {
      "inputs": [],
      "name": "AUCTION_ADMIN_ROLE",
      "outputs": [
        {
          "internalType": "bytes32",
          "name": "",
          "type": "bytes32"
        }
      ],
      "stateMutability": "view",
      "type": "function"
    },
    {
      "inputs": [],
      "name": "DEFAULT_ADMIN_ROLE",
      "outputs": [
        {
          "internalType": "bytes32",
          "name": "",
          "type": "bytes32"
        }
      ],
      "stateMutability": "view",
      "type": "function"
    },
    {
      "inputs": [],
      "name": "MIN_BID_DELAY",
      "outputs": [
        {
          "internalType": "uint256",
          "name": "",
          "type": "uint256"
        }
      ],
      "stateMutability": "view",
      "type": "function"
    },
    {
      "inputs": [],
      "name": "auctionExtensionTime",
      "outputs": [
        {
          "internalType": "uint256",
          "name": "",
          "type": "uint256"
        }
      ],
      "stateMutability": "view",
      "type": "function"
    },
    {
      "inputs": [
        {
          "internalType": "uint256",
          "name": "",
          "type": "uint256"
        }
      ],
      "name": "auctions",
      "outputs": [
        {
          "internalType": "uint256",
          "name": "listingId",
          "type": "uint256"
        },
        {
          "internalType": "uint256",
          "name": "startingBid",
          "type": "uint256"
        },
        {
          "internalType": "uint256",
          "name": "currentBid",
          "type": "uint256"
        },
        {
          "internalType": "address",
          "name": "currentBidder",
          "type": "address"
        },
        {
          "internalType": "uint256",
          "name": "endTime",
          "type": "uint256"
        },
        {
          "internalType": "uint256",
          "name": "minBidIncrement",
          "type": "uint256"
        },
        {
          "internalType": "bool",
          "name": "ended",
          "type": "bool"
        }
      ],
      "stateMutability": "view",
      "type": "function"
    },
    {
      "inputs": [
        {
          "internalType": "uint256",
          "name": "listingId",
          "type": "uint256"
        }
      ],
      "name": "endAuction",
      "outputs": [],
      "stateMutability": "nonpayable",
      "type": "function"
    },
    {
      "inputs": [
        {
          "internalType": "uint256",
          "name": "listingId",
          "type": "uint256"
        }
      ],
      "name": "getAuctionData",
      "outputs": [
        {
          "components": [
            {
              "internalType": "uint256",
              "name": "listingId",
              "type": "uint256"
            },
            {
              "internalType": "uint256",
              "name": "startingBid",
              "type": "uint256"
            },
            {
              "internalType": "uint256",
              "name": "currentBid",
              "type": "uint256"
            },
            {
              "internalType": "address",
              "name": "currentBidder",
              "type": "address"
            },
            {
              "internalType": "uint256",
              "name": "endTime",
              "type": "uint256"
            },
            {
              "internalType": "uint256",
              "name": "minBidIncrement",
              "type": "uint256"
            },
            {
              "internalType": "bool",
              "name": "ended",
              "type": "bool"
            }
          ],
          "internalType": "struct IAuctionManager.AuctionData",
          "name": "",
          "type": "tuple"
        }
      ],
      "stateMutability": "view",
      "type": "function"
    },
    {
      "inputs": [
        {
          "internalType": "uint256",
          "name": "listingId",
          "type": "uint256"
        }
      ],
      "name": "getCurrentBid",
      "outputs": [
        {
          "internalType": "uint256",
          "name": "",
          "type": "uint256"
        },
        {
          "internalType": "address",
          "name": "",
          "type": "address"
        }
      ],
      "stateMutability": "view",
      "type": "function"
    },
    {
      "inputs": [
        {
          "internalType": "bytes32",
          "name": "role",
          "type": "bytes32"
        }
      ],
      "name": "getRoleAdmin",
      "outputs": [
        {
          "internalType": "bytes32",
          "name": "",
          "type": "bytes32"
        }
      ],
      "stateMutability": "view",
      "type": "function"
    },
    {
      "inputs": [
        {
          "internalType": "bytes32",
          "name": "role",
          "type": "bytes32"
        },
        {
          "internalType": "address",
          "name": "account",
          "type": "address"
        }
      ],
      "name": "grantRole",
      "outputs": [],
      "stateMutability": "nonpayable",
      "type": "function"
    },
    {
      "inputs": [
        {
          "internalType": "bytes32",
          "name": "role",
          "type": "bytes32"
        },
        {
          "internalType": "address",
          "name": "account",
          "type": "address"
        }
      ],
      "name": "hasRole",
      "outputs": [
        {
          "internalType": "bool",
          "name": "",
          "type": "bool"
        }
      ],
      "stateMutability": "view",
      "type": "function"
    },
    {
      "inputs": [
        {
          "internalType": "address",
          "name": "admin",
          "type": "address"
        },
        {
          "internalType": "address",
          "name": "_marketplaceCore",
          "type": "address"
        },
        {
          "internalType": "uint256",
          "name": "_minBidIncrement",
          "type": "uint256"
        }
      ],
      "name": "initialize",
      "outputs": [],
      "stateMutability": "nonpayable",
      "type": "function"
    },
    {
      "inputs": [
        {
          "internalType": "uint256",
          "name": "listingId",
          "type": "uint256"
        }
      ],
      "name": "isAuctionActive",
      "outputs": [
        {
          "internalType": "bool",
          "name": "",
          "type": "bool"
        }
      ],
      "stateMutability": "view",
      "type": "function"
    },
    {
      "inputs": [
        {
          "internalType": "address",
          "name": "",
          "type": "address"
        }
      ],
      "name": "lastBidTime",
      "outputs": [
        {
          "internalType": "uint256",
          "name": "",
          "type": "uint256"
        }
      ],
      "stateMutability": "view",
      "type": "function"
    },
    {
      "inputs": [],
      "name": "marketplaceCore",
      "outputs": [
        {
          "internalType": "contract IMarketplaceCore",
          "name": "",
          "type": "address"
        }
      ],
      "stateMutability": "view",
      "type": "function"
    },
    {
      "inputs": [],
      "name": "minBidIncrement",
      "outputs": [
        {
          "internalType": "uint256",
          "name": "",
          "type": "uint256"
        }
      ],
      "stateMutability": "view",
      "type": "function"
    },
    {
      "inputs": [],
      "name": "pause",
      "outputs": [],
      "stateMutability": "nonpayable",
      "type": "function"
    },
    {
      "inputs": [],
      "name": "paused",
      "outputs": [
        {
          "internalType": "bool",
          "name": "",
          "type": "bool"
        }
      ],
      "stateMutability": "view",
      "type": "function"
    },
    {
      "inputs": [
        {
          "internalType": "uint256",
          "name": "listingId",
          "type": "uint256"
        },
        {
          "internalType": "uint256",
          "name": "bidAmount",
          "type": "uint256"
        }
      ],
      "name": "placeBid",
      "outputs": [],
      "stateMutability": "payable",
      "type": "function"
    },
    {
      "inputs": [
        {
          "internalType": "bytes32",
          "name": "role",
          "type": "bytes32"
        },
        {
          "internalType": "address",
          "name": "callerConfirmation",
          "type": "address"
        }
      ],
      "name": "renounceRole",
      "outputs": [],
      "stateMutability": "nonpayable",
      "type": "function"
    },
    {
      "inputs": [
        {
          "internalType": "bytes32",
          "name": "role",
          "type": "bytes32"
        },
        {
          "internalType": "address",
          "name": "account",
          "type": "address"
        }
      ],
      "name": "revokeRole",
      "outputs": [],
      "stateMutability": "nonpayable",
      "type": "function"
    },
    {
      "inputs": [
        {
          "internalType": "uint256",
          "name": "newExtensionTime",
          "type": "uint256"
        }
      ],
      "name": "setAuctionExtensionTime",
      "outputs": [],
      "stateMutability": "nonpayable",
      "type": "function"
    },
    {
      "inputs": [
        {
          "internalType": "uint256",
          "name": "newIncrement",
          "type": "uint256"
        }
      ],
      "name": "setMinBidIncrement",
      "outputs": [],
      "stateMutability": "nonpayable",
      "type": "function"
    },
    {
      "inputs": [
        {
          "internalType": "bytes4",
          "name": "interfaceId",
          "type": "bytes4"
        }
      ],
      "name": "supportsInterface",
      "outputs": [
        {
          "internalType": "bool",
          "name": "",
          "type": "bool"
        }
      ],
      "stateMutability": "view",
      "type": "function"
    },
    {
      "inputs": [],
      "name": "unpause",
      "outputs": [],
      "stateMutability": "nonpayable",
      "type": "function"
    }
  ],
  "bytecode": "0x6080806040523461001657611b45908161001c8239f35b600080fdfe60806040908082526004918236101561001757600080fd5b60009160e0908335821c90816301ffc9a7146113c65750806316930e701461138e5780631794bb3c146111f85780631d643731146111bd578063248a9ca314611184578063287b19ed1461115c5780632f2ff15d14611132578063335b115e1461111357806336568abe146110cd5780633f4ba83a1461105457806344f27e3014610f6c57806355ee09d714610eed578063571a26a014610e7957806357c90de5146106c45780635c975abb1461069357806375acd5f9146106745780637bd39785146106495780638456cb59146105e157806391d148541461058c578063a217fddf14610571578063b9a2de3a14610336578063bbaa1ccc14610316578063d547741f146102c9578063da4e364f146102415763e71f7b151461013a57600080fd5b3461023d57602036600319011261023d578254825163083d13a560e11b81528535868201526101c092918390829060249082906001600160a01b03165afa928315610233578593610204575b5050810151848110156101f1571592836101be575b5060209350826101af575b50519015158152f35b610120015142109150386101a6565b60c082015191935060038210156101de575060209350600114913861019b565b634e487b7160e01b815260218552602490fd5b634e487b7160e01b845260218552602484fd5b610224929350803d1061022c575b61021c818361147d565b8101906114b3565b903880610186565b503d610212565b84513d87823e3d90fd5b8280fd5b828585346102c65760203660031901126102c65782908235815260016020522090825161026d8161144b565b825481526001830154602082015260c060ff6006600286015495868886015260018060a01b03600382015416958660608701528101546080860152600581015460a0860152015416151591015282519182526020820152f35b80fd5b8385843461023d578060031936011261023d57610312913561030d60016102ee611435565b93838752600080516020611ad98339815191526020528620015461183a565b61186d565b5080f35b50503461033257816003193601126103325760209051603c8152f35b5080fd5b509192903461056d57602090816003193601126105695782359261035861191b565b8554825163083d13a560e11b81528083018690526024966001600160a01b03939290916101c091829082908b90829089165afa91821561055f578a92610542575b505060c081015160038110156105305760016103b5911461159a565b61012081015142106104fa570151818110156104e8576104b1578487526001845282872095600687019182549160ff831661047757505060ff191660011790556003850154169385851561044757506002015490519081527fd2aa34a4fdbbc6dff6a3e56f46e0f3ae2a31d7785ff3487aa5c95c642acea5019190a35b6001600080516020611b198339815191525580f35b945050907fd2aa34a4fdbbc6dff6a3e56f46e0f3ae2a31d7785ff3487aa5c95c642acea5019151848152a3610432565b855162461bcd60e51b815291820187905260159082015274105d58dd1a5bdb88185b1c9958591e48195b991959605a1b6044820152606490fd5b825162461bcd60e51b81529081018490526012818701527141756374696f6e206e6f742061637469766560701b6044820152606490fd5b634e487b7160e01b8852602182528688fd5b845162461bcd60e51b81528084018790526011818a015270105d58dd1a5bdb881b9bdd08195b991959607a1b6044820152606490fd5b634e487b7160e01b8a5260218452888afd5b6105589250803d1061022c5761021c818361147d565b3880610399565b86513d8c823e3d90fd5b8480fd5b8380fd5b50503461033257816003193601126103325751908152602090f35b5050823461023d578160031936011261023d578160209360ff926105ae611435565b90358252600080516020611ad983398151915286528282206001600160a01b039091168252855220549151911615158152f35b50503461033257816003193601126103325760207f62e78cea01bee320cd4e420270b5ea74000d11b0c9f74754ebdbfc544b05a2589161061f6117c0565b6106276118f0565b600080516020611af9833981519152805460ff1916600117905551338152a180f35b838534610332576020366003190112610332578035906106676117c0565b6106708261194b565b5580f35b5050823461023d578260031936011261023d5760209250549051908152f35b50503461033257816003193601126103325760209060ff600080516020611af9833981519152541690519015158152f35b5081849260031936011261056d578235906024936106e06118f0565b6106e861191b565b33865260029460209186835283882054603c8101809111610e67574210610e3857338852868352428489205560018060a01b039586895416908551809263083d13a560e11b8252888583015281866101c09586935afa928315610e2e578b93610e0f575b505081015182811015610dc757610dd95760c0810151976003891015610dc7576107796001809a1461159a565b6101208201908151421015610d95578886840151163314610d5a5760a08301908982511615600014610d525734995b6107b18b61194b565b608085019485518c10610d10578c60c08f60068d60ff92858f839851835252208d8651956107de8761144b565b82548752820154908601528781015480968601528660038201541660608601528b8101546080860152600581015460a086015201541615159101528015908115610c84575b50508251811680610b6257508a3403610b1557908c8b925b8b82528d8a528d8b832097885415610af8575b5050898b6003890196838854169081610968575b505050505050840155336bffffffffffffffffffffffff60a01b825416179055514281039081116109565782548091106108de575b50505050907f51db8e23b3f4479b162fd48823b8402895442b8f6cfd94f66239391881ec7b6f91815194855242908501523393a3600080516020611b198339815191525580f35b420192834211610945575083837f51db8e23b3f4479b162fd48823b8402895442b8f6cfd94f66239391881ec7b6f96959488947f6e912a3a9105bdd2af817ba5adc14e6c127c1035b5b648faa29ca0d58ab8ff4e9401558551908152a29091878080610897565b634e487b7160e01b8a526011835289fd5b634e487b7160e01b8a5260118352838afd5b5184169081610a5d5750505050845416828701549081151580610996575b505050505b8c8e898b8280610862565b83949550918392916109a884936119d8565b6109b3811515611a24565b5af13d15610a58573d67ffffffffffffffff8111610a46578951906109e1601f8201601f19168b018361147d565b81528d893d92013e5b156109fa5789908c8e8080610986565b875162461bcd60e51b81528086018890526021818801527f5061796d656e745574696c733a20455448207472616e73666572206661696c656044820152601960fa1b6064820152608490fd5b634e487b7160e01b8e5260418752878efd5b6109ea565b8a870154925163a9059cbb60e01b81526001600160a01b03909116818d01908152602081019390935295965091938593508391829060400103925af18015610aee57908b9291610aae575b5061098b565b9091508781813d8311610ae7575b610ac6818361147d565b81010312610ae3575180151503610adf5789908d610aa8565b8b80fd5b8c80fd5b503d610abc565b89513d8f823e3d90fd5b8d8955519088015585518888015560035460058801558d3861084e565b885162461bcd60e51b81528087018990526022818901527f5061796d656e745574696c733a20696e636f72726563742045544820616d6f756044820152611b9d60f21b6064820152608490fd5b34610c38578b9291888f92610b788615156119d8565b610b83301515611a24565b8b8d333003610bd2575163a9059cbb60e01b918101919091523092810192835260208301879052610bcd92909190610bc890839060400103601f19810184528361147d565b611a70565b61083b565b939596505092505051906323b872dd60e01b8a83015233898301523060448301528c60648301526064825260a0820182811067ffffffffffffffff821117610c25578f928e959492610bcd928e52611a70565b50634e487b7160e01b8f5260418852888ffd5b895162461bcd60e51b81528088018a90526021818a01527f5061796d656e745574696c733a20756e6578706563746564204554482073656e6044820152601d60fa1b6064820152608490fd5b60035491612710928301808411610cfc57808302928304141715610cea57048b10610cb0578d80610823565b885162461bcd60e51b81528087018990526015818901527442696420696e6372656d656e7420746f6f206c6f7760581b6044820152606490fd5b634e487b7160e01b8f5260118852888ffd5b5050634e487b7160e01b8f5260118852888ffd5b895162461bcd60e51b81528088018a90526018818a01527f4269642062656c6f77207374617274696e6720707269636500000000000000006044820152606490fd5b8535996107a8565b865162461bcd60e51b81528085018790526016818701527543616e6e6f7420626964206f6e206f776e206974656d60501b6044820152606490fd5b865162461bcd60e51b8152808501879052600d818701526c105d58dd1a5bdb88195b991959609a1b6044820152606490fd5b634e487b7160e01b8a5260218352838afd5b5060126064928486519362461bcd60e51b8552840152820152714c697374696e67206e6f742061637469766560701b6044820152fd5b610e26929350803d1061022c5761021c818361147d565b908a8061074c565b87513d8d823e3d90fd5b600c6064928486519362461bcd60e51b85528401528201526b2134b2103a37b79039b7b7b760a11b6044820152fd5b50634e487b7160e01b88526011905286fd5b50929091346102c65760203660031901126102c657829082358152600160205220805492600182015492600283015460018060a01b03600385015416918401549260ff600660058701549601541695815197885260208801528601526060850152608084015260a0830152151560c0820152f35b5050823461023d57602036600319011261023d57803591610f0c6117c0565b6127108311610f1d57505060035580f35b906020608492519162461bcd60e51b8352820152602360248201527f56616c69646174696f6e5574696c733a20696e76616c69642070657263656e7460448201526261676560e81b6064820152fd5b50929091346102c65760203660031901126102c65780839160c08351610f918161144b565b82815282602082015282858201528260608201528260808201528260a0820152015282358152600160205220825191610fc98361144b565b8154938484526001830154916020850192835260028401549180860192835260018060a01b0392836003870154169260608801938452860154946080880195865260c060ff600660058a01549960a08c019a8b520154169801971515885282519889525160208901525190870152511660608501525160808401525160a083015251151560c0820152f35b5050823461023d578260031936011261023d5761106f6117c0565b600080516020611af98339815191529081549060ff8216156110bf575060ff19169055513381527f5db9ee0a495bf2e6ff9c91a7834c1ba4fdd244a5e8aa4e537bd38aeae4b073aa90602090a180f35b8351638dfc202b60e01b8152fd5b5050346103325780600319360112610332576110e7611435565b90336001600160a01b03831603611104575061031291923561186d565b5163334bd91960e11b81528390fd5b5050346103325781600319360112610332576020906003549051908152f35b8385843461023d578060031936011261023d57610312913561115760016102ee611435565b611739565b505034610332578160031936011261033257905490516001600160a01b039091168152602090f35b5050823461023d57602036600319011261023d5781602093600192358152600080516020611ad983398151915285522001549051908152f35b505034610332578160031936011261033257602090517fa0cfda562e348e6dd163503c96e8678ef086abaf74d083a23226889f462cacaa8152f35b5050823461023d57606036600319011261023d5761121461141a565b61121c611435565b917ff0c57e16840df040f15088dc2f81fe391c3923bec73e23a9662efc9c229c6a009283549260ff84871c16159367ffffffffffffffff811680159081611386575b600114908161137c575b159081611373575b506113635767ffffffffffffffff198116600117865561012c9392916112d89186611344575b5061129f611997565b6112a7611997565b6112af611997565b6112b7611997565b6001600080516020611b19833981519152556112d2816115d7565b50611677565b5086546001600160a01b0319166001600160a01b039190911617865560443560035555611303578280f35b805468ff00000000000000001916905551600181527fc7f505b2f371ae2175ee4913f4499e1f2633a7b5936321eed1cdaeb6115181d290602090a181808280f35b68ffffffffffffffffff19166801000000000000000117875589611296565b865163f92ee8a960e01b81528490fd5b90501589611270565b303b159150611268565b86915061125e565b5050346103325760203660031901126103325760209181906001600160a01b036113b661141a565b1681526002845220549051908152f35b8490863461023d57602036600319011261023d573563ffffffff60e01b811680910361023d5760209250637965db0b60e01b8114908115611409575b5015158152f35b6301ffc9a760e01b14905083611402565b600435906001600160a01b038216820361143057565b600080fd5b602435906001600160a01b038216820361143057565b60e0810190811067ffffffffffffffff82111761146757604052565b634e487b7160e01b600052604160045260246000fd5b90601f8019910116810190811067ffffffffffffffff82111761146757604052565b51906001600160a01b038216820361143057565b80916101c092839103126114305760405191820182811067ffffffffffffffff82111761146757604052805182526114ed6020820161149f565b60208301526114fe6040820161149f565b6040830152606081015160608301526080810151608083015261152360a0820161149f565b60a083015260c081015160038110156114305760c083015260e081015160048110156114305760e08301526101008082015190830152610120808201519083015261014061157281830161149f565b90830152610160808201519083015261018080820151908301526101a0809101519082015290565b156115a157565b60405162461bcd60e51b815260206004820152600e60248201526d2737ba1030b71030bab1ba34b7b760911b6044820152606490fd5b6001600160a01b031660008181527fb7db2dd08fcb62d0c9e08c51941cae53c267786a0b75803fb7960902fc8ef97d6020526040812054909190600080516020611ad98339815191529060ff16611672578280526020526040822081835260205260408220600160ff1982541617905533917f2f8788117e7eff1d82e926ec794901d17c78024a50270940304540a733656f0d8180a4600190565b505090565b6001600160a01b031660008181527f4c04af43774b049175ec66ae7a960a7a24e0219068e4083fe24ce2a9b211d4bf60205260408120549091907fa0cfda562e348e6dd163503c96e8678ef086abaf74d083a23226889f462cacaa90600080516020611ad98339815191529060ff16611733578184526020526040832082845260205260408320600160ff198254161790557f2f8788117e7eff1d82e926ec794901d17c78024a50270940304540a733656f0d339380a4600190565b50505090565b90600091808352600080516020611ad983398151915280602052604084209260018060a01b03169283855260205260ff60408520541615600014611733578184526020526040832082845260205260408320600160ff198254161790557f2f8788117e7eff1d82e926ec794901d17c78024a50270940304540a733656f0d339380a4600190565b3360009081527f4c04af43774b049175ec66ae7a960a7a24e0219068e4083fe24ce2a9b211d4bf60205260409020547fa0cfda562e348e6dd163503c96e8678ef086abaf74d083a23226889f462cacaa9060ff161561181c5750565b6044906040519063e2517d3f60e01b82523360048301526024820152fd5b80600052600080516020611ad983398151915260205260406000203360005260205260ff604060002054161561181c5750565b90600091808352600080516020611ad983398151915280602052604084209260018060a01b03169283855260205260ff60408520541660001461173357818452602052604083208284526020526040832060ff1981541690557ff6391f5c32d9c69d2a47ea670b442974b53935d1edc7fd64eb21e047a839171b339380a4600190565b60ff600080516020611af9833981519152541661190957565b60405163d93c066560e01b8152600490fd5b600080516020611b1983398151915260028154146119395760029055565b604051633ee5aeb560e01b8152600490fd5b1561195257565b60405162461bcd60e51b815260206004820152601c60248201527f56616c69646174696f6e5574696c733a207a65726f20616d6f756e74000000006044820152606490fd5b60ff7ff0c57e16840df040f15088dc2f81fe391c3923bec73e23a9662efc9c229c6a005460401c16156119c657565b604051631afcd79f60e31b8152600490fd5b156119df57565b60405162461bcd60e51b815260206004820152601960248201527f5061796d656e745574696c733a207a65726f20616d6f756e74000000000000006044820152606490fd5b15611a2b57565b60405162461bcd60e51b815260206004820152601c60248201527f5061796d656e745574696c733a207a65726f20726563697069656e74000000006044820152606490fd5b906000602091828151910182855af115611acc576000513d611ac357506001600160a01b0381163b155b611aa15750565b604051635274afe760e01b81526001600160a01b039091166004820152602490fd5b60011415611a9a565b6040513d6000823e3d90fdfe02dd7bc7dec4dceedda775e58dd541e08a116c6c53815c0bd028192f7b626800cd5ed15c6e187e77e9aee88184c21f4f2182ab5827cb3b7e07fbedcd63f033009b779b17422d0df92223018b32b4d1fa46e071723d6817e2486d003becc55f00a164736f6c6343000816000a",
  "linkReferences": {},
  "deployedLinkReferences": {}
}