{
  "_format": "hh-sol-artifact-1",
  "contractName": "StreakStatisticsManager",
  "sourceName": "contracts/StreakStatisticsManager.sol",
  "abi": [
    {
      "inputs": [],
      "name": "AccessControlBadConfirmation",
      "type": "error"
    },
    {
      "inputs": [
        {
          "internalType": "address",
          "name": "account",
          "type": "address"
        },
        {
          "internalType": "bytes32",
          "name": "neededRole",
          "type": "bytes32"
        }
      ],
      "name": "AccessControlUnauthorizedAccount",
      "type": "error"
    },
    {
      "inputs": [],
      "name": "EnforcedPause",
      "type": "error"
    },
    {
      "inputs": [],
      "name": "ExpectedPause",
      "type": "error"
    },
    {
      "inputs": [],
      "name": "InvalidInitialization",
      "type": "error"
    },
    {
      "inputs": [],
      "name": "NotInitializing",
      "type": "error"
    },
    {
      "anonymous": false,
      "inputs": [
        {
          "indexed": false,
          "internalType": "uint256",
          "name": "newCount",
          "type": "uint256"
        }
      ],
      "name": "ActiveStreakersUpdated",
      "type": "event"
    },
    {
      "anonymous": false,
      "inputs": [
        {
          "indexed": false,
          "internalType": "enum StreakStatisticsManager.StreakType",
          "name": "streakType",
          "type": "uint8"
        },
        {
          "indexed": false,
          "internalType": "uint256",
          "name": "newCount",
          "type": "uint256"
        }
      ],
      "name": "GlobalStatsUpdated",
      "type": "event"
    },
    {
      "anonymous": false,
      "inputs": [
        {
          "indexed": false,
          "internalType": "uint64",
          "name": "version",
          "type": "uint64"
        }
      ],
      "name": "Initialized",
      "type": "event"
    },
    {
      "anonymous": false,
      "inputs": [
        {
          "indexed": true,
          "internalType": "address",
          "name": "user",
          "type": "address"
        },
        {
          "indexed": false,
          "internalType": "uint256",
          "name": "position",
          "type": "uint256"
        },
        {
          "indexed": false,
          "internalType": "uint256",
          "name": "streakValue",
          "type": "uint256"
        }
      ],
      "name": "LeaderboardUpdated",
      "type": "event"
    },
    {
      "anonymous": false,
      "inputs": [
        {
          "indexed": true,
          "internalType": "address",
          "name": "user",
          "type": "address"
        },
        {
          "indexed": false,
          "internalType": "uint256",
          "name": "totalStreakDays",
          "type": "uint256"
        }
      ],
      "name": "NewStreakLeader",
      "type": "event"
    },
    {
      "anonymous": false,
      "inputs": [
        {
          "indexed": false,
          "internalType": "address",
          "name": "account",
          "type": "address"
        }
      ],
      "name": "Paused",
      "type": "event"
    },
    {
      "anonymous": false,
      "inputs": [
        {
          "indexed": true,
          "internalType": "bytes32",
          "name": "role",
          "type": "bytes32"
        },
        {
          "indexed": true,
          "internalType": "bytes32",
          "name": "previousAdminRole",
          "type": "bytes32"
        },
        {
          "indexed": true,
          "internalType": "bytes32",
          "name": "newAdminRole",
          "type": "bytes32"
        }
      ],
      "name": "RoleAdminChanged",
      "type": "event"
    },
    {
      "anonymous": false,
      "inputs": [
        {
          "indexed": true,
          "internalType": "bytes32",
          "name": "role",
          "type": "bytes32"
        },
        {
          "indexed": true,
          "internalType": "address",
          "name": "account",
          "type": "address"
        },
        {
          "indexed": true,
          "internalType": "address",
          "name": "sender",
          "type": "address"
        }
      ],
      "name": "RoleGranted",
      "type": "event"
    },
    {
      "anonymous": false,
      "inputs": [
        {
          "indexed": true,
          "internalType": "bytes32",
          "name": "role",
          "type": "bytes32"
        },
        {
          "indexed": true,
          "internalType": "address",
          "name": "account",
          "type": "address"
        },
        {
          "indexed": true,
          "internalType": "address",
          "name": "sender",
          "type": "address"
        }
      ],
      "name": "RoleRevoked",
      "type": "event"
    },
    {
      "anonymous": false,
      "inputs": [
        {
          "indexed": false,
          "internalType": "address",
          "name": "account",
          "type": "address"
        }
      ],
      "name": "Unpaused",
      "type": "event"
    },
    {
      "inputs": [],
      "name": "ADMIN_ROLE",
      "outputs": [
        {
          "internalType": "bytes32",
          "name": "",
          "type": "bytes32"
        }
      ],
      "stateMutability": "view",
      "type": "function"
    },
    {
      "inputs": [],
      "name": "DEFAULT_ADMIN_ROLE",
      "outputs": [
        {
          "internalType": "bytes32",
          "name": "",
          "type": "bytes32"
        }
      ],
      "stateMutability": "view",
      "type": "function"
    },
    {
      "inputs": [],
      "name": "STREAK_MANAGER_ROLE",
      "outputs": [
        {
          "internalType": "bytes32",
          "name": "",
          "type": "bytes32"
        }
      ],
      "stateMutability": "view",
      "type": "function"
    },
    {
      "inputs": [],
      "name": "getGlobalStats",
      "outputs": [
        {
          "internalType": "uint256",
          "name": "_totalActiveStreakers",
          "type": "uint256"
        },
        {
          "internalType": "uint256",
          "name": "_longestGlobalStreak",
          "type": "uint256"
        },
        {
          "internalType": "address",
          "name": "_streakLeader",
          "type": "address"
        },
        {
          "internalType": "uint256",
          "name": "_dailyLoginCount",
          "type": "uint256"
        },
        {
          "internalType": "uint256",
          "name": "_questCompletionCount",
          "type": "uint256"
        },
        {
          "internalType": "uint256",
          "name": "_tradingCount",
          "type": "uint256"
        },
        {
          "internalType": "uint256",
          "name": "_governanceCount",
          "type": "uint256"
        },
        {
          "internalType": "uint256",
          "name": "_socialCount",
          "type": "uint256"
        }
      ],
      "stateMutability": "view",
      "type": "function"
    },
    {
      "inputs": [],
      "name": "getLeaderboard",
      "outputs": [
        {
          "internalType": "address[10]",
          "name": "streakers",
          "type": "address[10]"
        },
        {
          "internalType": "uint256[10]",
          "name": "streakValues",
          "type": "uint256[10]"
        }
      ],
      "stateMutability": "view",
      "type": "function"
    },
    {
      "inputs": [
        {
          "internalType": "bytes32",
          "name": "role",
          "type": "bytes32"
        }
      ],
      "name": "getRoleAdmin",
      "outputs": [
        {
          "internalType": "bytes32",
          "name": "",
          "type": "bytes32"
        }
      ],
      "stateMutability": "view",
      "type": "function"
    },
    {
      "inputs": [
        {
          "internalType": "enum StreakStatisticsManager.StreakType",
          "name": "streakType",
          "type": "uint8"
        }
      ],
      "name": "getStreakTypeCount",
      "outputs": [
        {
          "internalType": "uint256",
          "name": "count",
          "type": "uint256"
        }
      ],
      "stateMutability": "view",
      "type": "function"
    },
    {
      "inputs": [
        {
          "internalType": "address",
          "name": "user",
          "type": "address"
        }
      ],
      "name": "getUserRank",
      "outputs": [
        {
          "internalType": "uint256",
          "name": "rank",
          "type": "uint256"
        }
      ],
      "stateMutability": "view",
      "type": "function"
    },
    {
      "inputs": [
        {
          "internalType": "address",
          "name": "user",
          "type": "address"
        }
      ],
      "name": "getUserStats",
      "outputs": [
        {
          "internalType": "uint256",
          "name": "totalStreakDays",
          "type": "uint256"
        },
        {
          "internalType": "uint256",
          "name": "longestStreak",
          "type": "uint256"
        },
        {
          "internalType": "bool",
          "name": "isActive",
          "type": "bool"
        }
      ],
      "stateMutability": "view",
      "type": "function"
    },
    {
      "inputs": [
        {
          "internalType": "enum StreakStatisticsManager.StreakType",
          "name": "",
          "type": "uint8"
        }
      ],
      "name": "globalStreakCounts",
      "outputs": [
        {
          "internalType": "uint256",
          "name": "",
          "type": "uint256"
        }
      ],
      "stateMutability": "view",
      "type": "function"
    },
    {
      "inputs": [
        {
          "internalType": "bytes32",
          "name": "role",
          "type": "bytes32"
        },
        {
          "internalType": "address",
          "name": "account",
          "type": "address"
        }
      ],
      "name": "grantRole",
      "outputs": [],
      "stateMutability": "nonpayable",
      "type": "function"
    },
    {
      "inputs": [
        {
          "internalType": "bytes32",
          "name": "role",
          "type": "bytes32"
        },
        {
          "internalType": "address",
          "name": "account",
          "type": "address"
        }
      ],
      "name": "hasRole",
      "outputs": [
        {
          "internalType": "bool",
          "name": "",
          "type": "bool"
        }
      ],
      "stateMutability": "view",
      "type": "function"
    },
    {
      "inputs": [],
      "name": "initialize",
      "outputs": [],
      "stateMutability": "nonpayable",
      "type": "function"
    },
    {
      "inputs": [
        {
          "internalType": "address",
          "name": "",
          "type": "address"
        }
      ],
      "name": "isActiveStreaker",
      "outputs": [
        {
          "internalType": "bool",
          "name": "",
          "type": "bool"
        }
      ],
      "stateMutability": "view",
      "type": "function"
    },
    {
      "inputs": [],
      "name": "longestGlobalStreak",
      "outputs": [
        {
          "internalType": "uint256",
          "name": "",
          "type": "uint256"
        }
      ],
      "stateMutability": "view",
      "type": "function"
    },
    {
      "inputs": [],
      "name": "pause",
      "outputs": [],
      "stateMutability": "nonpayable",
      "type": "function"
    },
    {
      "inputs": [],
      "name": "paused",
      "outputs": [
        {
          "internalType": "bool",
          "name": "",
          "type": "bool"
        }
      ],
      "stateMutability": "view",
      "type": "function"
    },
    {
      "inputs": [
        {
          "internalType": "bytes32",
          "name": "role",
          "type": "bytes32"
        },
        {
          "internalType": "address",
          "name": "callerConfirmation",
          "type": "address"
        }
      ],
      "name": "renounceRole",
      "outputs": [],
      "stateMutability": "nonpayable",
      "type": "function"
    },
    {
      "inputs": [],
      "name": "resetGlobalStats",
      "outputs": [],
      "stateMutability": "nonpayable",
      "type": "function"
    },
    {
      "inputs": [
        {
          "internalType": "bytes32",
          "name": "role",
          "type": "bytes32"
        },
        {
          "internalType": "address",
          "name": "account",
          "type": "address"
        }
      ],
      "name": "revokeRole",
      "outputs": [],
      "stateMutability": "nonpayable",
      "type": "function"
    },
    {
      "inputs": [],
      "name": "streakLeader",
      "outputs": [
        {
          "internalType": "address",
          "name": "",
          "type": "address"
        }
      ],
      "stateMutability": "view",
      "type": "function"
    },
    {
      "inputs": [
        {
          "internalType": "bytes4",
          "name": "interfaceId",
          "type": "bytes4"
        }
      ],
      "name": "supportsInterface",
      "outputs": [
        {
          "internalType": "bool",
          "name": "",
          "type": "bool"
        }
      ],
      "stateMutability": "view",
      "type": "function"
    },
    {
      "inputs": [
        {
          "internalType": "uint256",
          "name": "",
          "type": "uint256"
        }
      ],
      "name": "topStreakValues",
      "outputs": [
        {
          "internalType": "uint256",
          "name": "",
          "type": "uint256"
        }
      ],
      "stateMutability": "view",
      "type": "function"
    },
    {
      "inputs": [
        {
          "internalType": "uint256",
          "name": "",
          "type": "uint256"
        }
      ],
      "name": "topStreakers",
      "outputs": [
        {
          "internalType": "address",
          "name": "",
          "type": "address"
        }
      ],
      "stateMutability": "view",
      "type": "function"
    },
    {
      "inputs": [],
      "name": "totalActiveStreakers",
      "outputs": [
        {
          "internalType": "uint256",
          "name": "",
          "type": "uint256"
        }
      ],
      "stateMutability": "view",
      "type": "function"
    },
    {
      "inputs": [],
      "name": "unpause",
      "outputs": [],
      "stateMutability": "nonpayable",
      "type": "function"
    },
    {
      "inputs": [
        {
          "internalType": "address",
          "name": "user",
          "type": "address"
        },
        {
          "internalType": "enum StreakStatisticsManager.StreakType",
          "name": "streakType",
          "type": "uint8"
        },
        {
          "internalType": "uint256",
          "name": "newStreakLength",
          "type": "uint256"
        },
        {
          "internalType": "uint256",
          "name": "totalUserStreakDays",
          "type": "uint256"
        }
      ],
      "name": "updateGlobalStats",
      "outputs": [],
      "stateMutability": "nonpayable",
      "type": "function"
    },
    {
      "inputs": [
        {
          "internalType": "address",
          "name": "",
          "type": "address"
        }
      ],
      "name": "userLongestStreak",
      "outputs": [
        {
          "internalType": "uint256",
          "name": "",
          "type": "uint256"
        }
      ],
      "stateMutability": "view",
      "type": "function"
    },
    {
      "inputs": [
        {
          "internalType": "address",
          "name": "",
          "type": "address"
        }
      ],
      "name": "userTotalStreakDays",
      "outputs": [
        {
          "internalType": "uint256",
          "name": "",
          "type": "uint256"
        }
      ],
      "stateMutability": "view",
      "type": "function"
    }
  ],
  "bytecode": "0x6080806040523461001657611554908161001c8239f35b600080fdfe6080604081815260048036101561001557600080fd5b600092833560e01c90816301ffc9a714610f9e57508063042e952814610f635780631873507914610f27578063248a9ca314610ef05780632f2ff15d14610ec757806336568abe14610e8057806336a4540e14610e4b5780633f4ba83a14610dd45780634182b5f414610d9c57806341b87a6d14610d645780634e43603a14610d0a5780635c975abb14610cd95780636835d3a014610cbc5780636b4169c314610c3d5780636d763a6e14610b3c5780637177a6c214610b1157806373ea1aba14610ae857806375b238fc14610aad578063769c175a14610a845780638129fc1c146109445780638456cb59146108dc57806385201112146108bd57806391d148541461086a578063a217fddf1461084f578063b2d1573f14610822578063b6da74f1146107a7578063d05d8fe8146101e5578063d547741f146101995763fb7176081461016257600080fd5b346101955760203660031901126101955735916005831015610192575061018a602092611023565b549051908152f35b80fd5b8280fd5b5090346101955780600319360112610195576101e191356101dc60016101bd61100d565b938387526000805160206115088339815191526020528620015461115b565b6113eb565b5080f35b509190346107a35760803660031901126107a357610201610ff2565b92602490813591600583101561079f5760443590606435907fe7f159bef681f2008ba223c40037edab35f05fc2683288867060bd08604f7ba0938488526020946000805160206115088339815191528652878920338a52865260ff888a20541615610785575061026f61146e565b8361076b575b6001600160a01b039889168089528186528789205490949060ff168415811580610763575b156106df5750506102ab89546110bc565b8955848952818652878920600160ff198254161790557ffc2b6b8367a25743cff8f6ac26b664856c20f3b6255a5b22e23f7ed9e820c16b868a548a51908152a15b8489526005865283888a205560069060068752888a20805482116106d7575b50506001998a548511610692575b6000198b8b5b600a8110610673575b5050600a9b8b5b600a8110610659575b50600a8d101561054d578b82121561048f575b505060095b8b81116103fa57505050600a8910156103e957505084877f5c874adf9d1c93ab636130bb7e727993f1d6a3d33d1ffd925556815d0eec2308927f0583ff5e97f591f9457c210d6203c1e1cdca0572340bd49f6aadda3d969fbdbb9899600701856001600160601b0360a01b825416179055808260110155825191825285820152a25b6103db82611023565b54908351928352820152a180f35b634e487b7160e01b88526032905286fd5b600019810181811161047d57600a111561046b5781838201541680610429575b5061042490611499565b610350565b600a821015610459576007820180546001600160a01b03191690911790556010810154601182015561042461041a565b634e487b7160e01b8c5260328552858cfd5b634e487b7160e01b8b5260328452848bfd5b634e487b7160e01b8c5260118552858cfd5b815b600981106104cf5750506001600160601b0360a01b601054166010558a601a558b116104bf575b388061034b565b996104c990611499565b996104b8565b81810180821161053b57600a11156105295783600882015416600a821015610517576007820180546001600160a01b0319169091179055601281015460118201558101610491565b634e487b7160e01b8e5260328752878efd5b634e487b7160e01b8d5260328652868dfd5b634e487b7160e01b8e5260118752878efd5b9b509294509450508781121561058b575b505050507f0583ff5e97f591f9457c210d6203c1e1cdca0572340bd49f6aadda3d969fbdbb9394506103d2565b600981106105db57505050507f0583ff5e97f591f9457c210d6203c1e1cdca0572340bd49f6aadda3d969fbdbb9394506001600160601b0360a01b6010541660105584601a55849338808061055e565b88810180821161064757600a11156106355783600882015416600a821015610623576007820180546001600160a01b031916909117905560128101546011820155880161058b565b634e487b7160e01b8952603284528289fd5b50634e487b7160e01b87526032825286fd5b634e487b7160e01b8952601184528289fd5b8060110154881161066b57810161032f565b9c5038610338565b88848260070154161461068857018c9061031f565b9150508b38610328565b848b55856001600160601b0360a01b6002541617600255857f7e9b403063cb9f28863049101b9afc0cba8f6f867061fb72b106d7fdca547693888b51888152a2610319565b55388061030b565b8161075b575b50156102ec5788548015610754576000198101908111610742575b895584895281865287892060ff1981541690557ffc2b6b8367a25743cff8f6ac26b664856c20f3b6255a5b22e23f7ed9e820c16b868a548a51908152a16102ec565b634e487b7160e01b8a5260118352838afd5b5088610700565b9050386106e5565b50801561029a565b61077486611023565b61077e81546110bc565b9055610275565b60449288519263e2517d3f60e01b84523390840152820152fd5b8480fd5b5080fd5b83346101925780600319360112610192576107c06110e1565b8080556001816001556001600160601b0360a01b806002541660025581835b6005811061080f575050825b600a81106107f7578380f35b808391600701838154169055848160110155016107eb565b8461081982611023565b550182906107df565b5050346107a35760203660031901126107a357602090610848610843610ff2565b611085565b9051908152f35b5050346107a357816003193601126107a35751908152602090f35b50346101955781600319360112610195578160209360ff9261088a61100d565b9035825260008051602061150883398151915286528282206001600160a01b039091168252855220549151911615158152f35b5050346107a357816003193601126107a3576020906001549051908152f35b5050346107a357816003193601126107a35760207f62e78cea01bee320cd4e420270b5ea74000d11b0c9f74754ebdbfc544b05a2589161091a6110e1565b61092261146e565b600080516020611528833981519152805460ff1916600117905551338152a180f35b50346101955782600319360112610195577ff0c57e16840df040f15088dc2f81fe391c3923bec73e23a9662efc9c229c6a0090815460ff81851c16159167ffffffffffffffff821680159081610a7c575b6001149081610a72575b159081610a69575b50610a5b575067ffffffffffffffff198116600117835581610a3c575b506109cd6114a6565b6109d56114a6565b6109de3361118e565b506109e83361121c565b506109f2336112cc565b506109fb578280f35b805468ff00000000000000001916905551600181527fc7f505b2f371ae2175ee4913f4499e1f2633a7b5936321eed1cdaeb6115181d290602090a138808280f35b68ffffffffffffffffff191668010000000000000001178255386109c4565b845163f92ee8a960e01b8152fd5b905015386109a7565b303b15915061099f565b849150610995565b50346101955760203660031901126101955735916005831015610192575061018a602092611023565b5050346107a357816003193601126107a357602090517fa49807205ce4d355092ef5a8a18f56e8913cf4a201fbe287825b095693c217758152f35b5050346107a357816003193601126107a35760025490516001600160a01b039091168152602090f35b50346101955760203660031901126101955735600a8110156101955760209250601101549051908152f35b82843461019257806003193601126101925790805191610b5b83611052565b6101408093369037828251610b6f81611052565b369037815192600782855b600a8210610c1d57505050610b8e84611052565b825192601183855b600a8210610c0657505050610baa84611052565b51938290855b600a8310610be65750505083019190915b600a8310610bcf5761028084f35b600190825181526020809101920192019190610bc1565b81516001600160a01b031681526001929092019160209182019101610bb0565b825481526001928301929190910190602001610b96565b82546001600160a01b031681526001928301929190910190602001610b7a565b509190346107a357816003193601126107a357610100928254926001549260018060a01b036002541682805260036020528183205490600184528284205492600285528080862054956003815281812054978152205496815198895260208901528701526060860152608085015260a084015260c083015260e0820152f35b5050346107a357816003193601126107a357602091549051908152f35b5050346107a357816003193601126107a35760209060ff600080516020611528833981519152541690519015158152f35b509190346107a35760203660031901126107a3576060926001600160a01b03610d31610ff2565b168352600560205260ff828085205494600660205281812054936020522054169082519384526020840152151590820152f35b5050346107a35760203660031901126107a35760209181906001600160a01b03610d8c610ff2565b1681526006845220549051908152f35b5050346107a35760203660031901126107a35760209181906001600160a01b03610dc4610ff2565b1681526005845220549051908152f35b5034610195578260031936011261019557610ded6110e1565b6000805160206115288339815191529081549060ff821615610e3d575060ff19169055513381527f5db9ee0a495bf2e6ff9c91a7834c1ba4fdd244a5e8aa4e537bd38aeae4b073aa90602090a180f35b8351638dfc202b60e01b8152fd5b50346101955760203660031901126101955735600a811015610195576007015490516001600160a01b03909116815260209150f35b509190346107a357806003193601126107a357610e9b61100d565b90336001600160a01b03831603610eb857506101e19192356113eb565b5163334bd91960e11b81528390fd5b5090346101955780600319360112610195576101e19135610eeb60016101bd61100d565b611376565b5034610195576020366003190112610195578160209360019235815260008051602061150883398151915285522001549051908152f35b50346101955760203660031901126101955760209260ff918391906001600160a01b03610f52610ff2565b168252855220541690519015158152f35b5050346107a357816003193601126107a357602090517fe7f159bef681f2008ba223c40037edab35f05fc2683288867060bd08604f7ba08152f35b92505034610195576020366003190112610195573563ffffffff60e01b81168091036101955760209250637965db0b60e01b8114908115610fe1575b5015158152f35b6301ffc9a760e01b14905038610fda565b600435906001600160a01b038216820361100857565b600080fd5b602435906001600160a01b038216820361100857565b600581101561103c576000526003602052604060002090565b634e487b7160e01b600052602160045260246000fd5b610140810190811067ffffffffffffffff82111761106f57604052565b634e487b7160e01b600052604160045260246000fd5b60005b600a811061109857505060001990565b60078101546001600160a01b038381169116146110b757600101611088565b905090565b60001981146110cb5760010190565b634e487b7160e01b600052601160045260246000fd5b3360009081527fb16e88c42fd4e48df2dd6a2eabd6bc9aec654ec170056b470819f8892cc6431c60205260409020547fa49807205ce4d355092ef5a8a18f56e8913cf4a201fbe287825b095693c217759060ff161561113d5750565b6044906040519063e2517d3f60e01b82523360048301526024820152fd5b8060005260008051602061150883398151915260205260406000203360005260205260ff604060002054161561113d5750565b6001600160a01b031660008181527fb7db2dd08fcb62d0c9e08c51941cae53c267786a0b75803fb7960902fc8ef97d60205260408120549091906000805160206115088339815191529060ff16611217578280526020526040822081835260205260408220600160ff1982541617905533916000805160206114e88339815191528180a4600190565b505090565b6001600160a01b031660008181527fb16e88c42fd4e48df2dd6a2eabd6bc9aec654ec170056b470819f8892cc6431c60205260408120549091907fa49807205ce4d355092ef5a8a18f56e8913cf4a201fbe287825b095693c21775906000805160206115088339815191529060ff166112c6578184526020526040832082845260205260408320600160ff198254161790556000805160206114e8833981519152339380a4600190565b50505090565b6001600160a01b031660008181527f34a5d646319baff23b6ede998a118d6eb46a49b849dd8029f52dca59fb840b9660205260408120549091907fe7f159bef681f2008ba223c40037edab35f05fc2683288867060bd08604f7ba0906000805160206115088339815191529060ff166112c6578184526020526040832082845260205260408320600160ff198254161790556000805160206114e8833981519152339380a4600190565b9060009180835260008051602061150883398151915280602052604084209260018060a01b03169283855260205260ff604085205416156000146112c6578184526020526040832082845260205260408320600160ff198254161790556000805160206114e8833981519152339380a4600190565b9060009180835260008051602061150883398151915280602052604084209260018060a01b03169283855260205260ff6040852054166000146112c657818452602052604083208284526020526040832060ff1981541690557ff6391f5c32d9c69d2a47ea670b442974b53935d1edc7fd64eb21e047a839171b339380a4600190565b60ff600080516020611528833981519152541661148757565b60405163d93c066560e01b8152600490fd5b80156110cb576000190190565b60ff7ff0c57e16840df040f15088dc2f81fe391c3923bec73e23a9662efc9c229c6a005460401c16156114d557565b604051631afcd79f60e31b8152600490fdfe2f8788117e7eff1d82e926ec794901d17c78024a50270940304540a733656f0d02dd7bc7dec4dceedda775e58dd541e08a116c6c53815c0bd028192f7b626800cd5ed15c6e187e77e9aee88184c21f4f2182ab5827cb3b7e07fbedcd63f03300a164736f6c6343000816000a",
  "linkReferences": {},
  "deployedLinkReferences": {}
}