{
  "_format": "hh-sol-artifact-1",
  "contractName": "MockReverter",
  "sourceName": "contracts/mocks/MockReverter.sol",
  "abi": [
    {
      "inputs": [],
      "name": "revertTest",
      "outputs": [],
      "stateMutability": "pure",
      "type": "function"
    }
  ],
  "bytecode": "0x6080806040523461001557609c908161001b8239f35b600080fdfe6080806040526004361015601257600080fd5b600090813560e01c6381bd24d114602857600080fd5b34608b5781600319360112608b5762461bcd60e51b815260206004820152602a60248201527f4d6f636b52657665727465723a20546869732066756e6374696f6e20616c77616044820152697973207265766572747360b01b6064820152608490fd5b5080fdfea164736f6c6343000816000a",
  "linkReferences": {},
  "deployedLinkReferences": {}
}