{
  "_format": "hh-sol-artifact-1",
  "contractName": "TipJar",
  "sourceName": "contracts/TipJar.sol",
  "abi": [
    {
      "inputs": [],
      "stateMutability": "nonpayable",
      "type": "constructor"
    },
    {
      "inputs": [],
      "name": "AccessControlBadConfirmation",
      "type": "error"
    },
    {
      "inputs": [
        {
          "internalType": "address",
          "name": "account",
          "type": "address"
        },
        {
          "internalType": "bytes32",
          "name": "neededRole",
          "type": "bytes32"
        }
      ],
      "name": "AccessControlUnauthorizedAccount",
      "type": "error"
    },
    {
      "inputs": [
        {
          "internalType": "address",
          "name": "target",
          "type": "address"
        }
      ],
      "name": "AddressEmptyCode",
      "type": "error"
    },
    {
      "inputs": [],
      "name": "CannotTipSelf",
      "type": "error"
    },
    {
      "inputs": [
        {
          "internalType": "address",
          "name": "implementation",
          "type": "address"
        }
      ],
      "name": "ERC1967InvalidImplementation",
      "type": "error"
    },
    {
      "inputs": [],
      "name": "ERC1967NonPayable",
      "type": "error"
    },
    {
      "inputs": [],
      "name": "EnforcedPause",
      "type": "error"
    },
    {
      "inputs": [],
      "name": "ExpectedPause",
      "type": "error"
    },
    {
      "inputs": [],
      "name": "FailedCall",
      "type": "error"
    },
    {
      "inputs": [
        {
          "internalType": "uint256",
          "name": "required",
          "type": "uint256"
        },
        {
          "internalType": "uint256",
          "name": "available",
          "type": "uint256"
        }
      ],
      "name": "InsufficientBalance",
      "type": "error"
    },
    {
      "inputs": [],
      "name": "InvalidERC20Address",
      "type": "error"
    },
    {
      "inputs": [],
      "name": "InvalidInitialization",
      "type": "error"
    },
    {
      "inputs": [],
      "name": "NotInitializing",
      "type": "error"
    },
    {
      "inputs": [],
      "name": "ReentrancyGuardReentrantCall",
      "type": "error"
    },
    {
      "inputs": [],
      "name": "UUPSUnauthorizedCallContext",
      "type": "error"
    },
    {
      "inputs": [
        {
          "internalType": "bytes32",
          "name": "slot",
          "type": "bytes32"
        }
      ],
      "name": "UUPSUnsupportedProxiableUUID",
      "type": "error"
    },
    {
      "inputs": [],
      "name": "ZeroAmount",
      "type": "error"
    },
    {
      "anonymous": false,
      "inputs": [
        {
          "indexed": true,
          "internalType": "address",
          "name": "user",
          "type": "address"
        },
        {
          "indexed": false,
          "internalType": "uint256",
          "name": "amount",
          "type": "uint256"
        }
      ],
      "name": "Deposited",
      "type": "event"
    },
    {
      "anonymous": false,
      "inputs": [
        {
          "indexed": false,
          "internalType": "uint64",
          "name": "version",
          "type": "uint64"
        }
      ],
      "name": "Initialized",
      "type": "event"
    },
    {
      "anonymous": false,
      "inputs": [
        {
          "indexed": false,
          "internalType": "address",
          "name": "account",
          "type": "address"
        }
      ],
      "name": "Paused",
      "type": "event"
    },
    {
      "anonymous": false,
      "inputs": [
        {
          "indexed": true,
          "internalType": "bytes32",
          "name": "role",
          "type": "bytes32"
        },
        {
          "indexed": true,
          "internalType": "bytes32",
          "name": "previousAdminRole",
          "type": "bytes32"
        },
        {
          "indexed": true,
          "internalType": "bytes32",
          "name": "newAdminRole",
          "type": "bytes32"
        }
      ],
      "name": "RoleAdminChanged",
      "type": "event"
    },
    {
      "anonymous": false,
      "inputs": [
        {
          "indexed": true,
          "internalType": "bytes32",
          "name": "role",
          "type": "bytes32"
        },
        {
          "indexed": true,
          "internalType": "address",
          "name": "account",
          "type": "address"
        },
        {
          "indexed": true,
          "internalType": "address",
          "name": "sender",
          "type": "address"
        }
      ],
      "name": "RoleGranted",
      "type": "event"
    },
    {
      "anonymous": false,
      "inputs": [
        {
          "indexed": true,
          "internalType": "bytes32",
          "name": "role",
          "type": "bytes32"
        },
        {
          "indexed": true,
          "internalType": "address",
          "name": "account",
          "type": "address"
        },
        {
          "indexed": true,
          "internalType": "address",
          "name": "sender",
          "type": "address"
        }
      ],
      "name": "RoleRevoked",
      "type": "event"
    },
    {
      "anonymous": false,
      "inputs": [
        {
          "indexed": true,
          "internalType": "address",
          "name": "tipper",
          "type": "address"
        },
        {
          "indexed": true,
          "internalType": "address",
          "name": "recipient",
          "type": "address"
        },
        {
          "indexed": false,
          "internalType": "uint256",
          "name": "amount",
          "type": "uint256"
        }
      ],
      "name": "Tipped",
      "type": "event"
    },
    {
      "anonymous": false,
      "inputs": [
        {
          "indexed": false,
          "internalType": "address",
          "name": "account",
          "type": "address"
        }
      ],
      "name": "Unpaused",
      "type": "event"
    },
    {
      "anonymous": false,
      "inputs": [
        {
          "indexed": true,
          "internalType": "address",
          "name": "implementation",
          "type": "address"
        }
      ],
      "name": "Upgraded",
      "type": "event"
    },
    {
      "anonymous": false,
      "inputs": [
        {
          "indexed": true,
          "internalType": "address",
          "name": "user",
          "type": "address"
        },
        {
          "indexed": false,
          "internalType": "uint256",
          "name": "amount",
          "type": "uint256"
        }
      ],
      "name": "Withdrawn",
      "type": "event"
    },
    {
      "inputs": [],
      "name": "DEFAULT_ADMIN_ROLE",
      "outputs": [
        {
          "internalType": "bytes32",
          "name": "",
          "type": "bytes32"
        }
      ],
      "stateMutability": "view",
      "type": "function"
    },
    {
      "inputs": [],
      "name": "PAUSER_ROLE",
      "outputs": [
        {
          "internalType": "bytes32",
          "name": "",
          "type": "bytes32"
        }
      ],
      "stateMutability": "view",
      "type": "function"
    },
    {
      "inputs": [],
      "name": "UPGRADER_ROLE",
      "outputs": [
        {
          "internalType": "bytes32",
          "name": "",
          "type": "bytes32"
        }
      ],
      "stateMutability": "view",
      "type": "function"
    },
    {
      "inputs": [],
      "name": "UPGRADE_INTERFACE_VERSION",
      "outputs": [
        {
          "internalType": "string",
          "name": "",
          "type": "string"
        }
      ],
      "stateMutability": "view",
      "type": "function"
    },
    {
      "inputs": [
        {
          "internalType": "uint256",
          "name": "_amount",
          "type": "uint256"
        }
      ],
      "name": "deposit",
      "outputs": [],
      "stateMutability": "nonpayable",
      "type": "function"
    },
    {
      "inputs": [
        {
          "internalType": "address",
          "name": "",
          "type": "address"
        }
      ],
      "name": "depositedBalances",
      "outputs": [
        {
          "internalType": "uint256",
          "name": "",
          "type": "uint256"
        }
      ],
      "stateMutability": "view",
      "type": "function"
    },
    {
      "inputs": [],
      "name": "erc20Token",
      "outputs": [
        {
          "internalType": "contract IERC20",
          "name": "",
          "type": "address"
        }
      ],
      "stateMutability": "view",
      "type": "function"
    },
    {
      "inputs": [
        {
          "internalType": "address",
          "name": "_user",
          "type": "address"
        }
      ],
      "name": "getDepositedBalance",
      "outputs": [
        {
          "internalType": "uint256",
          "name": "",
          "type": "uint256"
        }
      ],
      "stateMutability": "view",
      "type": "function"
    },
    {
      "inputs": [
        {
          "internalType": "bytes32",
          "name": "role",
          "type": "bytes32"
        }
      ],
      "name": "getRoleAdmin",
      "outputs": [
        {
          "internalType": "bytes32",
          "name": "",
          "type": "bytes32"
        }
      ],
      "stateMutability": "view",
      "type": "function"
    },
    {
      "inputs": [
        {
          "internalType": "address",
          "name": "_user",
          "type": "address"
        }
      ],
      "name": "getTipsReceived",
      "outputs": [
        {
          "internalType": "uint256",
          "name": "",
          "type": "uint256"
        }
      ],
      "stateMutability": "view",
      "type": "function"
    },
    {
      "inputs": [
        {
          "internalType": "bytes32",
          "name": "role",
          "type": "bytes32"
        },
        {
          "internalType": "address",
          "name": "account",
          "type": "address"
        }
      ],
      "name": "grantRole",
      "outputs": [],
      "stateMutability": "nonpayable",
      "type": "function"
    },
    {
      "inputs": [
        {
          "internalType": "bytes32",
          "name": "role",
          "type": "bytes32"
        },
        {
          "internalType": "address",
          "name": "account",
          "type": "address"
        }
      ],
      "name": "hasRole",
      "outputs": [
        {
          "internalType": "bool",
          "name": "",
          "type": "bool"
        }
      ],
      "stateMutability": "view",
      "type": "function"
    },
    {
      "inputs": [
        {
          "internalType": "address",
          "name": "_erc20TokenAddress",
          "type": "address"
        }
      ],
      "name": "initialize",
      "outputs": [],
      "stateMutability": "nonpayable",
      "type": "function"
    },
    {
      "inputs": [],
      "name": "pause",
      "outputs": [],
      "stateMutability": "nonpayable",
      "type": "function"
    },
    {
      "inputs": [],
      "name": "paused",
      "outputs": [
        {
          "internalType": "bool",
          "name": "",
          "type": "bool"
        }
      ],
      "stateMutability": "view",
      "type": "function"
    },
    {
      "inputs": [],
      "name": "proxiableUUID",
      "outputs": [
        {
          "internalType": "bytes32",
          "name": "",
          "type": "bytes32"
        }
      ],
      "stateMutability": "view",
      "type": "function"
    },
    {
      "inputs": [
        {
          "internalType": "bytes32",
          "name": "role",
          "type": "bytes32"
        },
        {
          "internalType": "address",
          "name": "callerConfirmation",
          "type": "address"
        }
      ],
      "name": "renounceRole",
      "outputs": [],
      "stateMutability": "nonpayable",
      "type": "function"
    },
    {
      "inputs": [
        {
          "internalType": "bytes32",
          "name": "role",
          "type": "bytes32"
        },
        {
          "internalType": "address",
          "name": "account",
          "type": "address"
        }
      ],
      "name": "revokeRole",
      "outputs": [],
      "stateMutability": "nonpayable",
      "type": "function"
    },
    {
      "inputs": [
        {
          "internalType": "bytes4",
          "name": "interfaceId",
          "type": "bytes4"
        }
      ],
      "name": "supportsInterface",
      "outputs": [
        {
          "internalType": "bool",
          "name": "",
          "type": "bool"
        }
      ],
      "stateMutability": "view",
      "type": "function"
    },
    {
      "inputs": [
        {
          "internalType": "address",
          "name": "_recipient",
          "type": "address"
        },
        {
          "internalType": "uint256",
          "name": "_amount",
          "type": "uint256"
        }
      ],
      "name": "tip",
      "outputs": [],
      "stateMutability": "nonpayable",
      "type": "function"
    },
    {
      "inputs": [
        {
          "internalType": "address",
          "name": "",
          "type": "address"
        }
      ],
      "name": "tipsReceived",
      "outputs": [
        {
          "internalType": "uint256",
          "name": "",
          "type": "uint256"
        }
      ],
      "stateMutability": "view",
      "type": "function"
    },
    {
      "inputs": [],
      "name": "unpause",
      "outputs": [],
      "stateMutability": "nonpayable",
      "type": "function"
    },
    {
      "inputs": [
        {
          "internalType": "address",
          "name": "newImplementation",
          "type": "address"
        },
        {
          "internalType": "bytes",
          "name": "data",
          "type": "bytes"
        }
      ],
      "name": "upgradeToAndCall",
      "outputs": [],
      "stateMutability": "payable",
      "type": "function"
    },
    {
      "inputs": [
        {
          "internalType": "uint256",
          "name": "_amount",
          "type": "uint256"
        }
      ],
      "name": "withdraw",
      "outputs": [],
      "stateMutability": "nonpayable",
      "type": "function"
    }
  ],
  "bytecode": "0x60a0806040523461002a573060805261149a9081610030823960805181818161089201526109750152f35b600080fdfe608060408181526004918236101561001657600080fd5b600092833560e01c91826301ffc9a714610ddd575081632252dc7114610845578163248a9ca314610da55781632a973daf146107dc5781632e1a7d4d14610ca75781632f2ff15d14610c7d57816336568abe14610c375781633f4ba83a14610bbf5781634f1ef286146108f957816352d1902d1461087d57816355cec010146108455781635c975abb146108145781637d995311146107dc5781638456cb59146107745781638a13eea71461074c5781638b6fc4521461064957816391d14854146105f5578163a217fddf146105da578163ad3cb1cc1461056b578163b6b55f251461044d578163c4d66de8146101f5578163d547741f146101a457508063e63ab1e91461016a5763f72c0d8b1461012d57600080fd5b34610166578160031936011261016657602090517f189ab7a9244df0848122154315af71fe140f3db0fe014031783b0946b8c9d2e38152f35b5080fd5b5034610166578160031936011261016657602090517f65d7a28e3265b37a6474929f336521b332c1681b933f6cb9f3376673440d862a8152f35b919050346101f157806003193601126101f1576101ed91356101e860016101c9610e4b565b9383875260008051602061142e83398151915260205286200154611056565b6112e6565b5080f35b8280fd5b9050346101f15760203660031901126101f157610210610e30565b907ff0c57e16840df040f15088dc2f81fe391c3923bec73e23a9662efc9c229c6a009182549160ff83861c16159267ffffffffffffffff9081811680159081610445575b600114908161043b575b159081610432575b506104225767ffffffffffffffff198116600117865584610403575b5085519060608201908111828210176103f057879182918852602781527f496e697469616c697a696e67205469704a6172207769746820746f6b656e206160208201526632323932b9b99d60c91b88820152875161031a816102fc602082019463319af33360e01b86528c60248401526064830190610eb5565b9760018060a01b03169788604483015203601f198101835282610e61565b51906a636f6e736f6c652e6c6f675afa5081156103e2575061033a611369565b610342611369565b61034a611369565b600160008051602061146e83398151915255610364611369565b61036c611369565b84546001600160a01b03191617845561038433611089565b5061038e33611117565b50610398336111c7565b506103a1578280f35b805468ff00000000000000001916905551600181527fc7f505b2f371ae2175ee4913f4499e1f2633a7b5936321eed1cdaeb6115181d290602090a138808280f35b84516376fe282b60e11b8152fd5b634e487b7160e01b885260418352602488fd5b68ffffffffffffffffff19166801000000000000000117855538610282565b865163f92ee8a960e01b81528390fd5b90501538610266565b303b15915061025e565b869150610254565b9050346101f1576020806003193601126105675781359161046c610f81565b610474610fb1565b821561055957845484516323b872dd60e01b815233928101929092523060248301526044820184905282908290606490829089906001600160a01b03165af190811561054f577f2da466a7b24304f47e87fa2e1e5a81b9831ce54fec19055ce277ca2f39ba42c49394916104ef918791610522575b50610f30565b33855260018252808520610504858254610f74565b9055519283523392a2600160008051602061146e8339815191525580f35b6105429150843d8611610548575b61053a8183610e61565b810190610f18565b386104e9565b503d610530565b84513d87823e3d90fd5b8351631f2a200560e01b8152fd5b8380fd5b8383346101665781600319360112610166578051918183019083821067ffffffffffffffff8311176105c757506105c39350815260058252640352e302e360dc1b602083015251918291602083526020830190610eb5565b0390f35b634e487b7160e01b815260418552602490fd5b50503461016657816003193601126101665751908152602090f35b9050346101f157816003193601126101f1578160209360ff92610616610e4b565b9035825260008051602061142e83398151915286528282206001600160a01b039091168252855220549151911615158152f35b919050346101f157806003193601126101f157610664610e30565b9060243591610671610f81565b610679610fb1565b821561073c576001600160a01b03169233841461072e5733855260016020528185205483811061071457505033845260016020528084206106bb838254610ef5565b905582845260026020528084206106d3838254610f74565b9055519081527f91d9aec1bf873fb589194ec67c304522c89e9e1de41ed647cf135fb41226befc60203392a3600160008051602061146e8339815191525580f35b83604493519263cf47918160e01b84528301526024820152fd5b9051635513f0a560e11b8152fd5b8151631f2a200560e01b81528490fd5b505034610166578160031936011261016657905490516001600160a01b039091168152602090f35b50503461016657816003193601126101665760207f62e78cea01bee320cd4e420270b5ea74000d11b0c9f74754ebdbfc544b05a258916107b2610fdc565b6107ba610fb1565b60008051602061144e833981519152805460ff1916600117905551338152a180f35b5050346101665760203660031901126101665760209181906001600160a01b03610804610e30565b1681526001845220549051908152f35b50503461016657816003193601126101665760209060ff60008051602061144e833981519152541690519015158152f35b5050346101665760203660031901126101665760209181906001600160a01b0361086d610e30565b1681526002845220549051908152f35b8284346108f657806003193601126108f657507f00000000000000000000000000000000000000000000000000000000000000006001600160a01b031630036108e957602090517f360894a13ba1a3210667c828492db98dca3e2076cc3735a920a3ca505d382bbc8152f35b5163703e46dd60e11b8152fd5b80fd5b918091506003193601126101f15761090f610e30565b90602493843567ffffffffffffffff81116101665736602382011215610166578085013561093c81610e99565b9461094985519687610e61565b81865260209182870193368a8383010111610bbb578186928b8693018737880101526001600160a01b037f00000000000000000000000000000000000000000000000000000000000000008116308114908115610b8d575b50610b7d577f189ab7a9244df0848122154315af71fe140f3db0fe014031783b0946b8c9d2e380865260008051602061142e8339815191528452868620338752845260ff878720541615610b60575081169585516352d1902d60e01b815283818a818b5afa869181610b2d575b50610a2a575050505050505191634c9c8ce360e01b8352820152fd5b9088888894938c7f360894a13ba1a3210667c828492db98dca3e2076cc3735a920a3ca505d382bbc91828103610b185750853b15610b04575080546001600160a01b031916821790558451889392917fbc7cd75a20ee27fd9adebab32041f755214dbc6bffa90cc0225b39da2e5c2d3b8580a2825115610ae65750506101ed9582915190845af4913d15610adc573d610ace610ac582610e99565b92519283610e61565b81528581943d92013e6113aa565b50606092506113aa565b955095505050505034610af857505080f35b63b398979f60e01b8152fd5b8651634c9c8ce360e01b8152808501849052fd5b8751632a87526960e21b815280860191909152fd5b9091508481813d8311610b59575b610b458183610e61565b81010312610b5557519038610a0e565b8680fd5b503d610b3b565b865163e2517d3f60e01b815233818b0152808b0191909152604490fd5b855163703e46dd60e11b81528890fd5b9050817f360894a13ba1a3210667c828492db98dca3e2076cc3735a920a3ca505d382bbc54161415386109a1565b8580fd5b9050346101f157826003193601126101f157610bd9610fdc565b60008051602061144e8339815191529081549060ff821615610c29575060ff19169055513381527f5db9ee0a495bf2e6ff9c91a7834c1ba4fdd244a5e8aa4e537bd38aeae4b073aa90602090a180f35b8351638dfc202b60e01b8152fd5b838334610166578060031936011261016657610c51610e4b565b90336001600160a01b03831603610c6e57506101ed9192356112e6565b5163334bd91960e11b81528390fd5b919050346101f157806003193601126101f1576101ed9135610ca260016101c9610e4b565b611271565b9050346101f15760208060031936011261056757813591610cc6610f81565b610cce610fb1565b8215610559573385526001825283852054838110610d89575081859133835260018252858320610cff868254610ef5565b90558254865163a9059cbb60e01b81523392810192909252602482018690529092839160449183916001600160a01b03165af190811561054f577f7084f5476618d8e60b11ef0d7d3f06914655adb8793e28ff7f018d4c76d505d5939491610d6d9187916105225750610f30565b519283523392a2600160008051602061146e8339815191525580f35b915091604493519263cf47918160e01b84528301526024820152fd5b9050346101f15760203660031901126101f1578160209360019235815260008051602061142e83398151915285522001549051908152f35b8491346101f15760203660031901126101f1573563ffffffff60e01b81168091036101f15760209250637965db0b60e01b8114908115610e1f575b5015158152f35b6301ffc9a760e01b14905083610e18565b600435906001600160a01b0382168203610e4657565b600080fd5b602435906001600160a01b0382168203610e4657565b90601f8019910116810190811067ffffffffffffffff821117610e8357604052565b634e487b7160e01b600052604160045260246000fd5b67ffffffffffffffff8111610e8357601f01601f191660200190565b919082519283825260005b848110610ee1575050826000602080949584010152601f8019910116010190565b602081830181015184830182015201610ec0565b91908203918211610f0257565b634e487b7160e01b600052601160045260246000fd5b90816020910312610e4657518015158103610e465790565b15610f3757565b60405162461bcd60e51b8152602060048201526015602482015274151bdad95b881d1c985b9cd9995c8819985a5b1959605a1b6044820152606490fd5b91908201809211610f0257565b60008051602061146e8339815191526002815414610f9f5760029055565b604051633ee5aeb560e01b8152600490fd5b60ff60008051602061144e8339815191525416610fca57565b60405163d93c066560e01b8152600490fd5b3360009081527f75442b0a96088b5456bc4ed01394c96a4feec0f883c9494257d76b96ab1c9b6b60205260409020547f65d7a28e3265b37a6474929f336521b332c1681b933f6cb9f3376673440d862a9060ff16156110385750565b6044906040519063e2517d3f60e01b82523360048301526024820152fd5b8060005260008051602061142e83398151915260205260406000203360005260205260ff60406000205416156110385750565b6001600160a01b031660008181527fb7db2dd08fcb62d0c9e08c51941cae53c267786a0b75803fb7960902fc8ef97d602052604081205490919060008051602061142e8339815191529060ff16611112578280526020526040822081835260205260408220600160ff19825416179055339160008051602061140e8339815191528180a4600190565b505090565b6001600160a01b031660008181527f75442b0a96088b5456bc4ed01394c96a4feec0f883c9494257d76b96ab1c9b6b60205260408120549091907f65d7a28e3265b37a6474929f336521b332c1681b933f6cb9f3376673440d862a9060008051602061142e8339815191529060ff166111c1578184526020526040832082845260205260408320600160ff1982541617905560008051602061140e833981519152339380a4600190565b50505090565b6001600160a01b031660008181527fab71e3f32666744d246edff3f96e4bdafee2e9867098cdd118a979a7464786a860205260408120549091907f189ab7a9244df0848122154315af71fe140f3db0fe014031783b0946b8c9d2e39060008051602061142e8339815191529060ff166111c1578184526020526040832082845260205260408320600160ff1982541617905560008051602061140e833981519152339380a4600190565b9060009180835260008051602061142e83398151915280602052604084209260018060a01b03169283855260205260ff604085205416156000146111c1578184526020526040832082845260205260408320600160ff1982541617905560008051602061140e833981519152339380a4600190565b9060009180835260008051602061142e83398151915280602052604084209260018060a01b03169283855260205260ff6040852054166000146111c157818452602052604083208284526020526040832060ff1981541690557ff6391f5c32d9c69d2a47ea670b442974b53935d1edc7fd64eb21e047a839171b339380a4600190565b60ff7ff0c57e16840df040f15088dc2f81fe391c3923bec73e23a9662efc9c229c6a005460401c161561139857565b604051631afcd79f60e31b8152600490fd5b906113d157508051156113bf57602081519101fd5b60405163d6bda27560e01b8152600490fd5b81511580611404575b6113e2575090565b604051639996b31560e01b81526001600160a01b039091166004820152602490fd5b50803b156113da56fe2f8788117e7eff1d82e926ec794901d17c78024a50270940304540a733656f0d02dd7bc7dec4dceedda775e58dd541e08a116c6c53815c0bd028192f7b626800cd5ed15c6e187e77e9aee88184c21f4f2182ab5827cb3b7e07fbedcd63f033009b779b17422d0df92223018b32b4d1fa46e071723d6817e2486d003becc55f00a164736f6c6343000816000a",
  "linkReferences": {},
  "deployedLinkReferences": {}
}