{
  "_format": "hh-sol-artifact-1",
  "contractName": "TokenLauncher",
  "sourceName": "contracts/TokenLauncher.sol",
  "abi": [
    {
      "inputs": [
        {
          "internalType": "address",
          "name": "_tokenManagerCore",
          "type": "address"
        }
      ],
      "stateMutability": "nonpayable",
      "type": "constructor"
    },
    {
      "inputs": [],
      "name": "AccessControlBadConfirmation",
      "type": "error"
    },
    {
      "inputs": [
        {
          "internalType": "address",
          "name": "account",
          "type": "address"
        },
        {
          "internalType": "bytes32",
          "name": "neededRole",
          "type": "bytes32"
        }
      ],
      "name": "AccessControlUnauthorizedAccount",
      "type": "error"
    },
    {
      "inputs": [],
      "name": "AmountMustBeGreaterThanZero",
      "type": "error"
    },
    {
      "inputs": [],
      "name": "EnforcedPause",
      "type": "error"
    },
    {
      "inputs": [],
      "name": "ExpectedPause",
      "type": "error"
    },
    {
      "inputs": [],
      "name": "FlashLoanProtectionActive",
      "type": "error"
    },
    {
      "inputs": [],
      "name": "InsufficientBalance",
      "type": "error"
    },
    {
      "inputs": [],
      "name": "InsufficientPayment",
      "type": "error"
    },
    {
      "inputs": [],
      "name": "InvalidPrice",
      "type": "error"
    },
    {
      "inputs": [],
      "name": "InvalidTimeframe",
      "type": "error"
    },
    {
      "inputs": [],
      "name": "MaxSupplyExceeded",
      "type": "error"
    },
    {
      "inputs": [],
      "name": "MaxTransactionAmountExceeded",
      "type": "error"
    },
    {
      "inputs": [],
      "name": "NotPrivateSaleParticipant",
      "type": "error"
    },
    {
      "inputs": [],
      "name": "NotWhitelisted",
      "type": "error"
    },
    {
      "inputs": [],
      "name": "PrivateSaleEnded",
      "type": "error"
    },
    {
      "inputs": [],
      "name": "PrivateSaleNotActive",
      "type": "error"
    },
    {
      "inputs": [],
      "name": "PrivateSaleNotStarted",
      "type": "error"
    },
    {
      "inputs": [],
      "name": "ReentrancyGuardReentrantCall",
      "type": "error"
    },
    {
      "inputs": [],
      "name": "SlippageExceeded",
      "type": "error"
    },
    {
      "inputs": [],
      "name": "TokenNotLaunched",
      "type": "error"
    },
    {
      "inputs": [],
      "name": "ZeroAddress",
      "type": "error"
    },
    {
      "anonymous": false,
      "inputs": [
        {
          "indexed": true,
          "internalType": "address",
          "name": "token",
          "type": "address"
        },
        {
          "indexed": false,
          "internalType": "uint256",
          "name": "amount",
          "type": "uint256"
        }
      ],
      "name": "EmergencyWithdrawal",
      "type": "event"
    },
    {
      "anonymous": false,
      "inputs": [
        {
          "indexed": false,
          "internalType": "address",
          "name": "account",
          "type": "address"
        }
      ],
      "name": "Paused",
      "type": "event"
    },
    {
      "anonymous": false,
      "inputs": [
        {
          "indexed": true,
          "internalType": "address",
          "name": "token",
          "type": "address"
        },
        {
          "indexed": false,
          "internalType": "uint64",
          "name": "startTime",
          "type": "uint64"
        },
        {
          "indexed": false,
          "internalType": "uint64",
          "name": "endTime",
          "type": "uint64"
        },
        {
          "indexed": false,
          "internalType": "uint128",
          "name": "price",
          "type": "uint128"
        }
      ],
      "name": "PrivateSaleCreated",
      "type": "event"
    },
    {
      "anonymous": false,
      "inputs": [
        {
          "indexed": true,
          "internalType": "bytes32",
          "name": "role",
          "type": "bytes32"
        },
        {
          "indexed": true,
          "internalType": "bytes32",
          "name": "previousAdminRole",
          "type": "bytes32"
        },
        {
          "indexed": true,
          "internalType": "bytes32",
          "name": "newAdminRole",
          "type": "bytes32"
        }
      ],
      "name": "RoleAdminChanged",
      "type": "event"
    },
    {
      "anonymous": false,
      "inputs": [
        {
          "indexed": true,
          "internalType": "bytes32",
          "name": "role",
          "type": "bytes32"
        },
        {
          "indexed": true,
          "internalType": "address",
          "name": "account",
          "type": "address"
        },
        {
          "indexed": true,
          "internalType": "address",
          "name": "sender",
          "type": "address"
        }
      ],
      "name": "RoleGranted",
      "type": "event"
    },
    {
      "anonymous": false,
      "inputs": [
        {
          "indexed": true,
          "internalType": "bytes32",
          "name": "role",
          "type": "bytes32"
        },
        {
          "indexed": true,
          "internalType": "address",
          "name": "account",
          "type": "address"
        },
        {
          "indexed": true,
          "internalType": "address",
          "name": "sender",
          "type": "address"
        }
      ],
      "name": "RoleRevoked",
      "type": "event"
    },
    {
      "anonymous": false,
      "inputs": [
        {
          "indexed": true,
          "internalType": "address",
          "name": "buyer",
          "type": "address"
        },
        {
          "indexed": true,
          "internalType": "address",
          "name": "token",
          "type": "address"
        },
        {
          "indexed": false,
          "internalType": "uint256",
          "name": "amount",
          "type": "uint256"
        },
        {
          "indexed": false,
          "internalType": "uint256",
          "name": "cost",
          "type": "uint256"
        },
        {
          "indexed": false,
          "internalType": "uint256",
          "name": "newPrice",
          "type": "uint256"
        }
      ],
      "name": "TokenPurchased",
      "type": "event"
    },
    {
      "anonymous": false,
      "inputs": [
        {
          "indexed": true,
          "internalType": "address",
          "name": "seller",
          "type": "address"
        },
        {
          "indexed": true,
          "internalType": "address",
          "name": "token",
          "type": "address"
        },
        {
          "indexed": false,
          "internalType": "uint256",
          "name": "amount",
          "type": "uint256"
        },
        {
          "indexed": false,
          "internalType": "uint256",
          "name": "proceeds",
          "type": "uint256"
        },
        {
          "indexed": false,
          "internalType": "uint256",
          "name": "newPrice",
          "type": "uint256"
        }
      ],
      "name": "TokenSold",
      "type": "event"
    },
    {
      "anonymous": false,
      "inputs": [
        {
          "indexed": false,
          "internalType": "address",
          "name": "account",
          "type": "address"
        }
      ],
      "name": "Unpaused",
      "type": "event"
    },
    {
      "anonymous": false,
      "inputs": [
        {
          "indexed": true,
          "internalType": "address",
          "name": "token",
          "type": "address"
        },
        {
          "indexed": true,
          "internalType": "address",
          "name": "user",
          "type": "address"
        },
        {
          "indexed": false,
          "internalType": "bool",
          "name": "whitelisted",
          "type": "bool"
        }
      ],
      "name": "WhitelistUpdated",
      "type": "event"
    },
    {
      "inputs": [],
      "name": "ADMIN_ROLE",
      "outputs": [
        {
          "internalType": "bytes32",
          "name": "",
          "type": "bytes32"
        }
      ],
      "stateMutability": "view",
      "type": "function"
    },
    {
      "inputs": [],
      "name": "DEFAULT_ADMIN_ROLE",
      "outputs": [
        {
          "internalType": "bytes32",
          "name": "",
          "type": "bytes32"
        }
      ],
      "stateMutability": "view",
      "type": "function"
    },
    {
      "inputs": [],
      "name": "FLASH_LOAN_PROTECTION_BLOCKS",
      "outputs": [
        {
          "internalType": "uint256",
          "name": "",
          "type": "uint256"
        }
      ],
      "stateMutability": "view",
      "type": "function"
    },
    {
      "inputs": [],
      "name": "MAX_PRIVATE_SALE_DURATION",
      "outputs": [
        {
          "internalType": "uint256",
          "name": "",
          "type": "uint256"
        }
      ],
      "stateMutability": "view",
      "type": "function"
    },
    {
      "inputs": [],
      "name": "MAX_SUPPLY_PER_TOKEN",
      "outputs": [
        {
          "internalType": "uint256",
          "name": "",
          "type": "uint256"
        }
      ],
      "stateMutability": "view",
      "type": "function"
    },
    {
      "inputs": [],
      "name": "MAX_TRANSACTION_AMOUNT",
      "outputs": [
        {
          "internalType": "uint256",
          "name": "",
          "type": "uint256"
        }
      ],
      "stateMutability": "view",
      "type": "function"
    },
    {
      "inputs": [],
      "name": "PRIVATE_SALE_MANAGER_ROLE",
      "outputs": [
        {
          "internalType": "bytes32",
          "name": "",
          "type": "bytes32"
        }
      ],
      "stateMutability": "view",
      "type": "function"
    },
    {
      "inputs": [],
      "name": "WHITELIST_MANAGER_ROLE",
      "outputs": [
        {
          "internalType": "bytes32",
          "name": "",
          "type": "bytes32"
        }
      ],
      "stateMutability": "view",
      "type": "function"
    },
    {
      "inputs": [
        {
          "internalType": "address",
          "name": "tokenAddress",
          "type": "address"
        },
        {
          "internalType": "uint256",
          "name": "amount",
          "type": "uint256"
        },
        {
          "internalType": "uint256",
          "name": "maxCost",
          "type": "uint256"
        },
        {
          "internalType": "address",
          "name": "referrer",
          "type": "address"
        }
      ],
      "name": "buyToken",
      "outputs": [],
      "stateMutability": "payable",
      "type": "function"
    },
    {
      "inputs": [
        {
          "internalType": "address",
          "name": "tokenAddress",
          "type": "address"
        },
        {
          "internalType": "uint64",
          "name": "startTime",
          "type": "uint64"
        },
        {
          "internalType": "uint64",
          "name": "endTime",
          "type": "uint64"
        },
        {
          "internalType": "uint128",
          "name": "price",
          "type": "uint128"
        },
        {
          "internalType": "address[]",
          "name": "participants",
          "type": "address[]"
        }
      ],
      "name": "createPrivateSale",
      "outputs": [],
      "stateMutability": "nonpayable",
      "type": "function"
    },
    {
      "inputs": [
        {
          "internalType": "address",
          "name": "tokenAddress",
          "type": "address"
        },
        {
          "internalType": "uint256",
          "name": "amount",
          "type": "uint256"
        }
      ],
      "name": "emergencyWithdraw",
      "outputs": [],
      "stateMutability": "nonpayable",
      "type": "function"
    },
    {
      "inputs": [
        {
          "internalType": "address",
          "name": "",
          "type": "address"
        }
      ],
      "name": "emergencyWithdrawableBalance",
      "outputs": [
        {
          "internalType": "uint256",
          "name": "",
          "type": "uint256"
        }
      ],
      "stateMutability": "view",
      "type": "function"
    },
    {
      "inputs": [
        {
          "internalType": "address",
          "name": "tokenAddress",
          "type": "address"
        }
      ],
      "name": "endPrivateSale",
      "outputs": [],
      "stateMutability": "nonpayable",
      "type": "function"
    },
    {
      "inputs": [
        {
          "internalType": "address",
          "name": "tokenAddress",
          "type": "address"
        }
      ],
      "name": "getCurrentPrice",
      "outputs": [
        {
          "internalType": "uint256",
          "name": "",
          "type": "uint256"
        }
      ],
      "stateMutability": "view",
      "type": "function"
    },
    {
      "inputs": [
        {
          "internalType": "bytes32",
          "name": "role",
          "type": "bytes32"
        }
      ],
      "name": "getRoleAdmin",
      "outputs": [
        {
          "internalType": "bytes32",
          "name": "",
          "type": "bytes32"
        }
      ],
      "stateMutability": "view",
      "type": "function"
    },
    {
      "inputs": [
        {
          "internalType": "bytes32",
          "name": "role",
          "type": "bytes32"
        },
        {
          "internalType": "address",
          "name": "account",
          "type": "address"
        }
      ],
      "name": "grantRole",
      "outputs": [],
      "stateMutability": "nonpayable",
      "type": "function"
    },
    {
      "inputs": [
        {
          "internalType": "bytes32",
          "name": "role",
          "type": "bytes32"
        },
        {
          "internalType": "address",
          "name": "account",
          "type": "address"
        }
      ],
      "name": "hasRole",
      "outputs": [
        {
          "internalType": "bool",
          "name": "",
          "type": "bool"
        }
      ],
      "stateMutability": "view",
      "type": "function"
    },
    {
      "inputs": [
        {
          "internalType": "address",
          "name": "",
          "type": "address"
        }
      ],
      "name": "lastTransactionBlock",
      "outputs": [
        {
          "internalType": "uint256",
          "name": "",
          "type": "uint256"
        }
      ],
      "stateMutability": "view",
      "type": "function"
    },
    {
      "inputs": [],
      "name": "pause",
      "outputs": [],
      "stateMutability": "nonpayable",
      "type": "function"
    },
    {
      "inputs": [],
      "name": "paused",
      "outputs": [
        {
          "internalType": "bool",
          "name": "",
          "type": "bool"
        }
      ],
      "stateMutability": "view",
      "type": "function"
    },
    {
      "inputs": [
        {
          "internalType": "address",
          "name": "tokenAddress",
          "type": "address"
        },
        {
          "internalType": "uint256",
          "name": "amount",
          "type": "uint256"
        }
      ],
      "name": "previewBuyCost",
      "outputs": [
        {
          "internalType": "uint256",
          "name": "cost",
          "type": "uint256"
        }
      ],
      "stateMutability": "view",
      "type": "function"
    },
    {
      "inputs": [
        {
          "internalType": "address",
          "name": "tokenAddress",
          "type": "address"
        },
        {
          "internalType": "uint256",
          "name": "amount",
          "type": "uint256"
        }
      ],
      "name": "previewSellProceeds",
      "outputs": [
        {
          "internalType": "uint256",
          "name": "proceeds",
          "type": "uint256"
        }
      ],
      "stateMutability": "view",
      "type": "function"
    },
    {
      "inputs": [
        {
          "internalType": "address",
          "name": "",
          "type": "address"
        },
        {
          "internalType": "address",
          "name": "",
          "type": "address"
        }
      ],
      "name": "privateSaleParticipants",
      "outputs": [
        {
          "internalType": "bool",
          "name": "",
          "type": "bool"
        }
      ],
      "stateMutability": "view",
      "type": "function"
    },
    {
      "inputs": [
        {
          "internalType": "address",
          "name": "",
          "type": "address"
        }
      ],
      "name": "privateSales",
      "outputs": [
        {
          "internalType": "uint64",
          "name": "startTime",
          "type": "uint64"
        },
        {
          "internalType": "uint64",
          "name": "endTime",
          "type": "uint64"
        },
        {
          "internalType": "uint128",
          "name": "price",
          "type": "uint128"
        },
        {
          "internalType": "bool",
          "name": "isActive",
          "type": "bool"
        }
      ],
      "stateMutability": "view",
      "type": "function"
    },
    {
      "inputs": [],
      "name": "referralEngine",
      "outputs": [
        {
          "internalType": "contract IReferralEngine",
          "name": "",
          "type": "address"
        }
      ],
      "stateMutability": "view",
      "type": "function"
    },
    {
      "inputs": [
        {
          "internalType": "bytes32",
          "name": "role",
          "type": "bytes32"
        },
        {
          "internalType": "address",
          "name": "callerConfirmation",
          "type": "address"
        }
      ],
      "name": "renounceRole",
      "outputs": [],
      "stateMutability": "nonpayable",
      "type": "function"
    },
    {
      "inputs": [
        {
          "internalType": "bytes32",
          "name": "role",
          "type": "bytes32"
        },
        {
          "internalType": "address",
          "name": "account",
          "type": "address"
        }
      ],
      "name": "revokeRole",
      "outputs": [],
      "stateMutability": "nonpayable",
      "type": "function"
    },
    {
      "inputs": [
        {
          "internalType": "address",
          "name": "tokenAddress",
          "type": "address"
        },
        {
          "internalType": "uint256",
          "name": "amount",
          "type": "uint256"
        },
        {
          "internalType": "uint256",
          "name": "minProceeds",
          "type": "uint256"
        }
      ],
      "name": "sellToken",
      "outputs": [],
      "stateMutability": "nonpayable",
      "type": "function"
    },
    {
      "inputs": [
        {
          "internalType": "address",
          "name": "_referralEngine",
          "type": "address"
        }
      ],
      "name": "setReferralEngine",
      "outputs": [],
      "stateMutability": "nonpayable",
      "type": "function"
    },
    {
      "inputs": [
        {
          "internalType": "address",
          "name": "tokenAddress",
          "type": "address"
        },
        {
          "internalType": "bool",
          "name": "enabled",
          "type": "bool"
        }
      ],
      "name": "setWhitelistEnabled",
      "outputs": [],
      "stateMutability": "nonpayable",
      "type": "function"
    },
    {
      "inputs": [
        {
          "internalType": "bytes4",
          "name": "interfaceId",
          "type": "bytes4"
        }
      ],
      "name": "supportsInterface",
      "outputs": [
        {
          "internalType": "bool",
          "name": "",
          "type": "bool"
        }
      ],
      "stateMutability": "view",
      "type": "function"
    },
    {
      "inputs": [],
      "name": "tokenManagerCore",
      "outputs": [
        {
          "internalType": "contract ITokenManagerCore",
          "name": "",
          "type": "address"
        }
      ],
      "stateMutability": "view",
      "type": "function"
    },
    {
      "inputs": [
        {
          "internalType": "address",
          "name": "",
          "type": "address"
        }
      ],
      "name": "tokenSupplies",
      "outputs": [
        {
          "internalType": "uint256",
          "name": "",
          "type": "uint256"
        }
      ],
      "stateMutability": "view",
      "type": "function"
    },
    {
      "inputs": [],
      "name": "unpause",
      "outputs": [],
      "stateMutability": "nonpayable",
      "type": "function"
    },
    {
      "inputs": [
        {
          "internalType": "address",
          "name": "tokenAddress",
          "type": "address"
        },
        {
          "internalType": "address[]",
          "name": "users",
          "type": "address[]"
        },
        {
          "internalType": "bool[]",
          "name": "whitelistStatus",
          "type": "bool[]"
        }
      ],
      "name": "updateWhitelist",
      "outputs": [],
      "stateMutability": "nonpayable",
      "type": "function"
    },
    {
      "inputs": [
        {
          "internalType": "address",
          "name": "",
          "type": "address"
        }
      ],
      "name": "whitelistEnabled",
      "outputs": [
        {
          "internalType": "bool",
          "name": "",
          "type": "bool"
        }
      ],
      "stateMutability": "view",
      "type": "function"
    },
    {
      "inputs": [
        {
          "internalType": "address",
          "name": "",
          "type": "address"
        },
        {
          "internalType": "address",
          "name": "",
          "type": "address"
        }
      ],
      "name": "whitelisted",
      "outputs": [
        {
          "internalType": "bool",
          "name": "",
          "type": "bool"
        }
      ],
      "stateMutability": "view",
      "type": "function"
    },
    {
      "stateMutability": "payable",
      "type": "receive"
    }
  ],
  "bytecode": "0x60a034620000c757601f62001feb38819003918201601f19168301916001600160401b03831184841017620000cc57808492602094604052833981010312620000c757516001600160a01b03811690819003620000c75760016002558015620000b5576080526200007033620000e2565b506200007c3362000162565b50620000883362000204565b506200009433620002a1565b50604051611c8c90816200033f823960805181818161029a01526104c60152f35b60405163d92e233d60e01b8152600490fd5b600080fd5b634e487b7160e01b600052604160045260246000fd5b6001600160a01b031660008181527fad3228b676f7d3cd4284a5443f17f1962b36e491b30a40b2405849e597ba5fb5602052604081205490919060ff166200015e57818052816020526040822081835260205260408220600160ff19825416179055339160008051602062001fcb8339815191528180a4600190565b5090565b6001600160a01b031660008181527f7d7ffb7a348e1c6a02869081a26547b49160dd3df72d1d75a570eb9b698292ec60205260408120549091907fa49807205ce4d355092ef5a8a18f56e8913cf4a201fbe287825b095693c217759060ff16620001ff57808352826020526040832082845260205260408320600160ff1982541617905560008051602062001fcb833981519152339380a4600190565b505090565b6001600160a01b031660008181527fb5ba3787543ad6c173598159348a4a928021a98f804854cb89ce97f5d3e2c45e60205260408120549091907f2a3dab589bcc9747970dd85ac3f222668741ae51f2a1bbb8f8355be28dd8a8689060ff16620001ff57808352826020526040832082845260205260408320600160ff1982541617905560008051602062001fcb833981519152339380a4600190565b6001600160a01b031660008181527fe26ce285387574f3c850ddb31888129f8d7676db2f681c031ed76c610d8a72fa60205260408120549091907fc14ae385971117a69e59d3c635f12b6d1a00911ca5d2746b93f93117a2a274429060ff16620001ff57808352826020526040832082845260205260408320600160ff1982541617905560008051602062001fcb833981519152339380a460019056fe6080604081815260049182361015610022575b505050361561002057600080fd5b005b600092833560e01c91826301ffc9a7146116df57508163195a9814146116a9578163248a9ca31461167f5781632f2ff15d1461165557816336568abe1461160f5781633e11741f146113d15781633f4ba83a146113675781634f4244e61461134b578163511e33f9146112fb5781635533ed93146112d25781635c975abb146112ae5781637295ed931461127357816375b238fc1461123857816379c8ffd6146111fa57816381fc24c6146111c05781638456cb591461116657816384cc315b14611126578163873474d614610fc35781638a1dce2914610f9e5781638f29e6f614610f3757816391d1485414610ef25781639494f4fb14610e0c57816395ccea6714610c63578163977233d314610a61578163a03e965214610a1f578163a09c996f1461044d578163a217fddf14610432578163a7076038146103fa578163a9a9a02c146103dc578163ba6c054e146103a4578163bc120fe714610354578163d547741f1461031157508063da997666146102c9578063ec15dfff14610286578063edc1ed311461024c578063f6e4b62b146101f05763f896c48d146101c95780610012565b346101ec57816003193601126101ec576020905169021e19e0c9bab24000008152f35b5080fd5b50346101ec57806003193601126101ec57610209611732565b906024359081151582036102485761024592610223611913565b60018060a01b03168452600860205283209060ff801983541691151516179055565b80f35b8380fd5b50346101ec57816003193601126101ec57602090517fc14ae385971117a69e59d3c635f12b6d1a00911ca5d2746b93f93117a2a274428152f35b50346101ec57816003193601126101ec57517f00000000000000000000000000000000000000000000000000000000000000006001600160a01b03168152602090f35b823461030e57602036600319011261030e576102e3611732565b6102eb611899565b60018060a01b03166bffffffffffffffffffffffff60a01b600354161760035580f35b80fd5b9190503461035057806003193601126103505761034c91356103476001610336611748565b9383875286602052862001546119cb565b611a6f565b5080f35b8280fd5b5050346101ec57806003193601126101ec57602091610371611732565b8261037a611748565b9260018060a01b03809316815260078652209116600052825260ff81600020541690519015158152f35b5050346101ec5760203660031901126101ec5760209181906001600160a01b036103cc611732565b1681526009845220549051908152f35b5050346101ec57816003193601126101ec576020905162278d008152f35b5050346101ec5760203660031901126101ec5760209181906001600160a01b03610422611732565b168152600a845220549051908152f35b5050346101ec57816003193601126101ec5751908152602090f35b838360803660031901126101ec57610463611732565b6001600160a01b03606435818116959260243591879003610a1a578290610488611ae4565b610490611b02565b16958615610a0a5781156109fa5769021e19e0c9bab240000082116109ea578451634176598960e01b81528481018890526020947f0000000000000000000000000000000000000000000000000000000000000000851694918681602481895afa9081156109e05789916109b3575b50156109a557338852600a86528688205460018101809111610992574310610984578888526008865260ff878920541680610968575b61095a57888852808652868820549269d3c21bcecceda1000000610559868661178f565b1161094b5788958a8a52600588528789808c2098815190610579826117e9565b60ff60018c549c8d9567ffffffffffffffff80988189168852870197821c1687528501809e60801c90520154161515806060840152600014610935575051821642106109255751164211610915578a8a5260068852888a2033600052885260ff8960002054161561090557670de0b6b3a76400006106016001600160801b0389511688611886565b04966001915b60443589116108f5578834106108e557918b9c918b808795819f9d9e519889809263f5efbb4f60e01b82525afa80156108db578d998b948e8e93819b8291610884575b509184939161065f89989796948b9a95611886565b61271090049e8b610670868661178f565b918b8452528682205550600014946106d4927f0a9521815fb3c5bc7dd6f4c9f89dc270322e46b945b104c18981f81c3f2cd1aa9661086b57506001600160801b0391505116925b519283923396846040919493926060820195825260208201520152565b0390a3803b15610867578a516340c10f1960e01b8152338382019081526020810198909852968991889182908490829060400103925af195861561085d578896610841575b5081151580610834575b6107d5575b50508215928315806107ca575b610795575b505050505080341161075d575b5050600a90338452524390822055600160025580f35b818061076a8193346117b2565b81811561078c575b3390f115610781578284610747565b5051903d90823e3d90fd5b506108fc610772565b84938493849384926107c0575b1690f1156107b457818680808061073a565b508251903d90823e3d90fd5b6108fc92506107a2565b508282161515610735565b909450826003541690813b1561083057879560448792838d519586948593635603b9f960e01b8552339085015260248401525af1610814575b80610728565b610820909491946117bf565b61082c5784928961080e565b8480fd5b8780fd5b5083600354161515610723565b61084d909691966117bf565b6108595786948b610719565b8680fd5b8a513d8a823e3d90fd5b8880fd5b610879915061087e9261178f565b611bac565b926106b7565b969b505050945099505081813d83116108d4575b6108a28183611805565b810103126108d05780519587871687036108cc57908c01518c988a938f928d9291908f908861064a565b8b80fd5b8a80fd5b503d610898565b81513d8e823e3d90fd5b8a5163cd1c886760e01b81528590fd5b8a51638199f5f360e01b81528590fd5b8851630ae6a25560e41b81528390fd5b88516346c07adf60e11b81528390fd5b8a516334bc93e360e11b81528590fd5b9399925050506109458787611c0d565b97610607565b508651638a164f6360e01b8152fd5b8651630b094f2760e31b8152fd5b506007865286882033600052865260ff87600020541615610535565b86516333cf49b560e11b8152fd5b634e487b7160e01b895260118252602489fd5b865163c79a5b5b60e01b8152fd5b6109d39150873d89116109d9575b6109cb8183611805565b810190611827565b8a6104ff565b503d6109c1565b88513d8b823e3d90fd5b84516331c265c760e11b81528490fd5b8451635e85ae7360e01b81528490fd5b845163d92e233d60e01b81528490fd5b600080fd5b5050346101ec5760203660031901126101ec57600190610a3d611732565b610a4561196f565b828060a01b03168352600560205282200160ff19815416905580f35b919050346103505760a036600319011261035057610a7d611732565b6024359167ffffffffffffffff808416809403610a1a5760443590808216809203610a1a57606435936001600160801b0385168095036108305760843582811161086757610ace903690890161175e565b929091610ad961196f565b6001600160a01b03908116988915610c555785891015610c345762278d004201804211610c42578611610c34578715610c2757509088939291610b908751610b20816117e9565b8a815260018d8b8a6fffffffffffffffff00000000000000008d60209960208801938452818801948552816060890196889f89895281526005602052209751169251901b16916001600160801b0319905160801b16911717835551151591019060ff801983541691151516179055565b8a5b848110610bd3578b8b7fd7c88282ff2b7606d554628435c1ea4fb6a08f80992721757d5a58b46d1015e060608d8d8d8d81519384526020840152820152a280f35b8082610be9610be48994898961183f565b611865565b16610bf5575b01610b92565b8b8d5260068452888d2083610c0e610be4848a8a61183f565b166000528452886000208260ff19825416179055610bef565b865162bfc92160e01b8152fd5b865163a97de69b60e01b8152fd5b634e487b7160e01b8c526011825260248cfd5b865163d92e233d60e01b8152fd5b91905034610350578060031936011261035057610c7e611732565b9060243591610c8b611899565b6001600160a01b03169283610d0957478311610cfb57508380838015610cf1575b8280929181923390f115610ce8577f23d6711a1d031134a36921253c75aa59e967d38e369ac625992824315e204f20916020915b51908152a280f35b513d84823e3d90fd5b6108fc9150610cac565b9051631e9acf1760e31b8152fd5b81516370a0823160e01b81523082820152602091908281602481895afa908115610e02578791610dd5575b508411610dc757825163a9059cbb60e01b8152339181019182526020820185905290829082908190604001038189895af18015610dbd5791602093917f23d6711a1d031134a36921253c75aa59e967d38e369ac625992824315e204f209593610d9f575b5050610ce0565b81610db592903d106109d9576109cb8183611805565b503880610d98565b83513d88823e3d90fd5b8251631e9acf1760e31b8152fd5b90508281813d8311610dfb575b610dec8183611805565b81010312610859575138610d34565b503d610de2565b84513d89823e3d90fd5b90503461035057816003193601126103505760209282610e2a611732565b6001600160a01b03168083526005865281832082519460243594929091606090610e53886117e9565b80549767ffffffffffffffff9060ff6001838c16938484528c8b1c1694858f8501528a84019c60801c8d520154161515938491015282610ee7575b5081610edc575b5015610ec65750505050610ebd906001600160801b03670de0b6b3a764000093511690611886565b04905b51908152f35b610ed69550825286522054611c0d565b90610ec0565b905042111538610e95565b421015915038610e8e565b90503461035057816003193601126103505781602093610f10611748565b92358152808552209060018060a01b0316600052825260ff81600020541690519015158152f35b5050346101ec5760203660031901126101ec5760809181906001600160a01b03610f5f611732565b1681526005602052209081549060ff600167ffffffffffffffff9401541691815193808216855281831c166020850152841c9083015215156060820152f35b5050346101ec57816003193601126101ec576020905169d3c21bcecceda10000008152f35b8383346101ec5760603660031901126101ec57610fde611732565b906024359367ffffffffffffffff9485811161082c57611001903690830161175e565b9190956044359081116111225761101b903690830161175e565b91611024611913565b8284036111145750855b838110611039578680f35b808886848a8a886001978b898060a01b03978861105a610be485858561183f565b1661106f575b5050505050505050500161102e565b6110e66110eb958a6110ae6110a987610be4997fd9c6c3eabe38e3b9a606a66358d8f225489216a59eeba66facefb7d9166352669d61183f565b611879565b9116998a89528060209960078b52208c6110cc610be489898961183f565b1660005289526000209060ff801983541691151516179055565b61183f565b936110fa6110a9878b8b61183f565b948b5195151586521693a38986848a8a88868f8c90611060565b845163a97de69b60e01b8152fd5b8580fd5b9050346103505760203660031901126103505760209261115f918391906001600160a01b03611153611732565b16825285522054611bac565b9051908152f35b5050346101ec57816003193601126101ec5760207f62e78cea01bee320cd4e420270b5ea74000d11b0c9f74754ebdbfc544b05a258916111a4611899565b6111ac611ae4565b600160ff198154161760015551338152a180f35b90503461035057816003193601126103505760209261115f916001600160a01b036111e9611732565b168252845282602435912054611b23565b5050346101ec5760203660031901126101ec5760209160ff9082906001600160a01b03611225611732565b1681526008855220541690519015158152f35b5050346101ec57816003193601126101ec57602090517fa49807205ce4d355092ef5a8a18f56e8913cf4a201fbe287825b095693c217758152f35b5050346101ec57816003193601126101ec57602090517f2a3dab589bcc9747970dd85ac3f222668741ae51f2a1bbb8f8355be28dd8a8688152f35b5050346101ec57816003193601126101ec5760209060ff6001541690519015158152f35b5050346101ec57816003193601126101ec5760035490516001600160a01b039091168152602090f35b5050346101ec57806003193601126101ec57602091611318611732565b82611321611748565b9260018060a01b03809316815260068652209116600052825260ff81600020541690519015158152f35b5050346101ec57816003193601126101ec576020905160018152f35b905034610350578260031936011261035057611381611899565b6001549060ff8216156113c3575060ff1916600155513381527f5db9ee0a495bf2e6ff9c91a7834c1ba4fdd244a5e8aa4e537bd38aeae4b073aa90602090a180f35b8251638dfc202b60e01b8152fd5b905034610350576060366003190112610350576113ec611732565b90602435916113f9611ae4565b611401611b02565b6001600160a01b031680156116005782156115f157338552602092600a845284862054600181018091116115de5743106115ce5781865282845284862054928184106115c0576114518285611b23565b9360443585106115b1578447106115a25790836114876108798585611478828e99986117b2565b858952868c528c8920556117b2565b7f9387a595ac4be9038bbb9751abad8baa3dcf219dd9e19abb81552bd521fe35468951806114c933948b89846040919493926060820195825260208201520152565b0390a386516323b872dd60e01b8152338282015230602482015260448101839052868160648187895af180156115985761157b575b50833b15610350576024908388519586948593630852cd8d60e31b85528401525af180156115715761155e575b508380808093818115611555575b3390f11561078157600a90338452524390822055600160025580f35b506108fc611539565b61156a909491946117bf565b923861152b565b84513d87823e3d90fd5b61159190873d89116109d9576109cb8183611805565b50386114fe565b88513d86823e3d90fd5b508551631e9acf1760e31b8152fd5b508551638199f5f360e01b8152fd5b8551631e9acf1760e31b8152fd5b84516333cf49b560e11b81528390fd5b634e487b7160e01b875260118452602487fd5b508251635e85ae7360e01b8152fd5b50825163d92e233d60e01b8152fd5b8383346101ec57806003193601126101ec57611629611748565b90336001600160a01b03831603611646575061034c919235611a6f565b5163334bd91960e11b81528390fd5b9190503461035057806003193601126103505761034c913561167a6001610336611748565b6119f1565b90503461035057602036600319011261035057816020936001923581528085522001549051908152f35b9050346103505760203660031901126103505760209282916001600160a01b036116d1611732565b168252845220549051908152f35b849134610350576020366003190112610350573563ffffffff60e01b81168091036103505760209250637965db0b60e01b8114908115611721575b5015158152f35b6301ffc9a760e01b1490508361171a565b600435906001600160a01b0382168203610a1a57565b602435906001600160a01b0382168203610a1a57565b9181601f84011215610a1a5782359167ffffffffffffffff8311610a1a576020808501948460051b010111610a1a57565b9190820180921161179c57565b634e487b7160e01b600052601160045260246000fd5b9190820391821161179c57565b67ffffffffffffffff81116117d357604052565b634e487b7160e01b600052604160045260246000fd5b6080810190811067ffffffffffffffff8211176117d357604052565b90601f8019910116810190811067ffffffffffffffff8211176117d357604052565b90816020910312610a1a57518015158103610a1a5790565b919081101561184f5760051b0190565b634e487b7160e01b600052603260045260246000fd5b356001600160a01b0381168103610a1a5790565b358015158103610a1a5790565b8181029291811591840414171561179c57565b3360009081527f7d7ffb7a348e1c6a02869081a26547b49160dd3df72d1d75a570eb9b698292ec60205260409020547fa49807205ce4d355092ef5a8a18f56e8913cf4a201fbe287825b095693c217759060ff16156118f55750565b6044906040519063e2517d3f60e01b82523360048301526024820152fd5b3360009081527fb5ba3787543ad6c173598159348a4a928021a98f804854cb89ce97f5d3e2c45e60205260409020547f2a3dab589bcc9747970dd85ac3f222668741ae51f2a1bbb8f8355be28dd8a8689060ff16156118f55750565b3360009081527fe26ce285387574f3c850ddb31888129f8d7676db2f681c031ed76c610d8a72fa60205260409020547fc14ae385971117a69e59d3c635f12b6d1a00911ca5d2746b93f93117a2a274429060ff16156118f55750565b80600052600060205260406000203360005260205260ff60406000205416156118f55750565b9060009180835282602052604083209160018060a01b03169182845260205260ff60408420541615600014611a6a57808352826020526040832082845260205260408320600160ff198254161790557f2f8788117e7eff1d82e926ec794901d17c78024a50270940304540a733656f0d339380a4600190565b505090565b9060009180835282602052604083209160018060a01b03169182845260205260ff604084205416600014611a6a5780835282602052604083208284526020526040832060ff1981541690557ff6391f5c32d9c69d2a47ea670b442974b53935d1edc7fd64eb21e047a839171b339380a4600190565b60ff60015416611af057565b60405163d93c066560e01b8152600490fd5b6002805414611b115760028055565b604051633ee5aeb560e01b8152600490fd5b90808210611ba557611b3581836117b2565b9064e8d4a510008083029280840482149015171561179c57670de0b6b3a7640000908166038d7ea4c68000940484019485851161179c5781810291818304149015171561179c5704820180921161179c57611b9c611ba192671bc16d674ec800009461178f565b611886565b0490565b5050600090565b7b0119799812dea11197f27f0f6e885c8ba7eb31f476caf7411a863387811115611bd7575060001990565b64e8d4a510009081810291818304149015171561179c57670de0b6b3a764000066038d7ea4c680009104810180911161179c5790565b9064e8d4a51000908183029183830481148415171561179c57670de0b6b3a7640000908166038d7ea4c68000940484019485851161179c5783611c4f9161178f565b81810291818304149015171561179c5704820180921161179c57611b9c611ba192671bc16d674ec800009461178f56fea164736f6c6343000816000a2f8788117e7eff1d82e926ec794901d17c78024a50270940304540a733656f0d",
  "linkReferences": {},
  "deployedLinkReferences": {}
}