{
  "_format": "hh-sol-artifact-1",
  "contractName": "MockMarketplaceCore",
  "sourceName": "contracts/mocks/MockMarketplaceCore.sol",
  "abi": [
    {
      "inputs": [
        {
          "internalType": "uint256",
          "name": "listingId",
          "type": "uint256"
        }
      ],
      "name": "getListing",
      "outputs": [
        {
          "components": [
            {
              "internalType": "uint256",
              "name": "listingId",
              "type": "uint256"
            },
            {
              "internalType": "address",
              "name": "seller",
              "type": "address"
            },
            {
              "internalType": "address",
              "name": "nftContract",
              "type": "address"
            },
            {
              "internalType": "uint256",
              "name": "tokenId",
              "type": "uint256"
            },
            {
              "internalType": "uint256",
              "name": "price",
              "type": "uint256"
            },
            {
              "internalType": "address",
              "name": "paymentToken",
              "type": "address"
            },
            {
              "internalType": "enum MockMarketplaceCore.ListingType",
              "name": "listingType",
              "type": "uint8"
            },
            {
              "internalType": "enum MockMarketplaceCore.ListingStatus",
              "name": "status",
              "type": "uint8"
            },
            {
              "internalType": "uint256",
              "name": "startTime",
              "type": "uint256"
            },
            {
              "internalType": "uint256",
              "name": "endTime",
              "type": "uint256"
            },
            {
              "internalType": "address",
              "name": "highestBidder",
              "type": "address"
            },
            {
              "internalType": "uint256",
              "name": "highestBid",
              "type": "uint256"
            },
            {
              "internalType": "uint256",
              "name": "reservePrice",
              "type": "uint256"
            },
            {
              "internalType": "uint256",
              "name": "buyNowPrice",
              "type": "uint256"
            }
          ],
          "internalType": "struct MockMarketplaceCore.Listing",
          "name": "",
          "type": "tuple"
        }
      ],
      "stateMutability": "view",
      "type": "function"
    },
    {
      "inputs": [
        {
          "internalType": "uint256",
          "name": "",
          "type": "uint256"
        }
      ],
      "name": "listings",
      "outputs": [
        {
          "internalType": "uint256",
          "name": "listingId",
          "type": "uint256"
        },
        {
          "internalType": "address",
          "name": "seller",
          "type": "address"
        },
        {
          "internalType": "address",
          "name": "nftContract",
          "type": "address"
        },
        {
          "internalType": "uint256",
          "name": "tokenId",
          "type": "uint256"
        },
        {
          "internalType": "uint256",
          "name": "price",
          "type": "uint256"
        },
        {
          "internalType": "address",
          "name": "paymentToken",
          "type": "address"
        },
        {
          "internalType": "enum MockMarketplaceCore.ListingType",
          "name": "listingType",
          "type": "uint8"
        },
        {
          "internalType": "enum MockMarketplaceCore.ListingStatus",
          "name": "status",
          "type": "uint8"
        },
        {
          "internalType": "uint256",
          "name": "startTime",
          "type": "uint256"
        },
        {
          "internalType": "uint256",
          "name": "endTime",
          "type": "uint256"
        },
        {
          "internalType": "address",
          "name": "highestBidder",
          "type": "address"
        },
        {
          "internalType": "uint256",
          "name": "highestBid",
          "type": "uint256"
        },
        {
          "internalType": "uint256",
          "name": "reservePrice",
          "type": "uint256"
        },
        {
          "internalType": "uint256",
          "name": "buyNowPrice",
          "type": "uint256"
        }
      ],
      "stateMutability": "view",
      "type": "function"
    },
    {
      "inputs": [
        {
          "internalType": "uint256",
          "name": "listingId",
          "type": "uint256"
        },
        {
          "internalType": "address",
          "name": "seller",
          "type": "address"
        },
        {
          "internalType": "address",
          "name": "nftContract",
          "type": "address"
        },
        {
          "internalType": "uint256",
          "name": "tokenId",
          "type": "uint256"
        },
        {
          "internalType": "uint256",
          "name": "price",
          "type": "uint256"
        },
        {
          "internalType": "address",
          "name": "paymentToken",
          "type": "address"
        },
        {
          "internalType": "enum MockMarketplaceCore.ListingType",
          "name": "listingType",
          "type": "uint8"
        },
        {
          "internalType": "enum MockMarketplaceCore.ListingStatus",
          "name": "status",
          "type": "uint8"
        },
        {
          "internalType": "uint256",
          "name": "startTime",
          "type": "uint256"
        },
        {
          "internalType": "uint256",
          "name": "endTime",
          "type": "uint256"
        },
        {
          "internalType": "address",
          "name": "highestBidder",
          "type": "address"
        },
        {
          "internalType": "uint256",
          "name": "highestBid",
          "type": "uint256"
        },
        {
          "internalType": "uint256",
          "name": "reservePrice",
          "type": "uint256"
        },
        {
          "internalType": "uint256",
          "name": "buyNowPrice",
          "type": "uint256"
        }
      ],
      "name": "setListing",
      "outputs": [],
      "stateMutability": "nonpayable",
      "type": "function"
    }
  ],
  "bytecode": "0x60808060405234610016576105e6908161001c8239f35b600080fdfe6080604052600436101561001257600080fd5b60003560e01c8063107a274a1461036f578063de74e57b146102735763f61e5dfa1461003d57600080fd5b3461026e576101c036600319011261026e576024356001600160a01b0381169081900361026e576044356001600160a01b0381169081900361026e5760a4356001600160a01b0381169081900361026e5760c435600381101561026e5760e43591600383101561026e57610144356001600160a01b038116949085900361026e576100c66105a2565b956004358752602087015260408601526064356060860152608435608086015260a08501526100f481610582565b60c084015261010281610582565b60e0830152610104356101008301526101243561012083015261014082015261016435610160820152610184356101808201526101a4356101a08201526004356000526000602052600b6101a0604060002092805184556001840160018060a01b03602083015116906bffffffffffffffffffffffff60a01b91828254161790556002850160018060a01b036040840151168282541617905560608201516003860155608082015160048601556005850160018060a01b0360a084015116815460c0850151916101d183610582565b6101da83610582565b60e08601516101e881610582565b6101f181610582565b6001600160b01b03199092161760a09290921b60ff60a01b169190911760a89190911b60ff60a81b16179055610100820151600686015561012082015160078601556101408201516008860180549092166001600160a01b03919091161790556101608101516009850155610180810151600a8501550151910155005b600080fd5b3461026e57602036600319011261026e5760043560005260006020526101c0604060002080549060018060a01b036001820154169060018060a01b0360028201541660038201546004830154600584015460ff60068601549160078701549360018060a01b0360088901541695600989015497600b600a8b01549a01549a6040519c8d5260208d015260408c015260608b015260808a015260018060a01b03811660a08a0152610327828260a01c16610582565b818160a01c1660c08a0152610340828260a81c16610582565b60a81c1660e08801526101008701526101208601526101408501526101608401526101808301526101a0820152f35b3461026e57602036600319011261026e5760006101a061038d6105a2565b8281528260208201528260408201528260608201528260808201528260a08201528260c08201528260e08201528261010082015282610120820152826101408201528261016082015282610180820152015260043560005260006020526101c06040600020600b6103fc6105a2565b8254815260018301546001600160a01b0390811660208301526002840154811660408301526003840154606083015260048401546080830152600584015490811660a08084019190915291939160ff919081901c821661045b81610582565b60c086015260a81c1661046d81610582565b60e08401526006810154610100840152600781015461012084015260018060a01b036008820154166101408401526009810154610160840152600a81015461018084015201546101a08201526101a0604051918051835260018060a01b03602082015116602084015260018060a01b036040820151166040840152606081015160608401526080810151608084015260018060a01b0360a08201511660a084015260c081015161051c81610582565b60c084015260e081015161052f81610582565b60e084015261010081015161010084015261012081015161012084015260018060a01b036101408201511661014084015261016081015161016084015261018081015161018084015201516101a0820152f35b6003111561058c57565b634e487b7160e01b600052602160045260246000fd5b604051906101c0820182811067ffffffffffffffff8211176105c357604052565b634e487b7160e01b600052604160045260246000fdfea164736f6c6343000816000a",
  "linkReferences": {},
  "deployedLinkReferences": {}
}