{
  "_format": "hh-sol-artifact-1",
  "contractName": "BondingCurveTest",
  "sourceName": "contracts/test/BondingCurveTest.sol",
  "abi": [
    {
      "inputs": [
        {
          "internalType": "uint256",
          "name": "currentSupply",
          "type": "uint256"
        },
        {
          "internalType": "uint256",
          "name": "amount",
          "type": "uint256"
        }
      ],
      "name": "calculateBuyCost",
      "outputs": [
        {
          "internalType": "uint256",
          "name": "",
          "type": "uint256"
        }
      ],
      "stateMutability": "pure",
      "type": "function"
    },
    {
      "inputs": [
        {
          "internalType": "uint256",
          "name": "currentSupply",
          "type": "uint256"
        },
        {
          "internalType": "uint256",
          "name": "amount",
          "type": "uint256"
        }
      ],
      "name": "calculateSellProceeds",
      "outputs": [
        {
          "internalType": "uint256",
          "name": "",
          "type": "uint256"
        }
      ],
      "stateMutability": "pure",
      "type": "function"
    },
    {
      "inputs": [
        {
          "internalType": "uint256",
          "name": "currentSupply",
          "type": "uint256"
        },
        {
          "internalType": "uint256",
          "name": "ethAmount",
          "type": "uint256"
        }
      ],
      "name": "calculateTokensForEth",
      "outputs": [
        {
          "internalType": "uint256",
          "name": "",
          "type": "uint256"
        }
      ],
      "stateMutability": "pure",
      "type": "function"
    },
    {
      "inputs": [
        {
          "internalType": "uint256",
          "name": "currentSupply",
          "type": "uint256"
        }
      ],
      "name": "getCurrentPrice",
      "outputs": [
        {
          "internalType": "uint256",
          "name": "",
          "type": "uint256"
        }
      ],
      "stateMutability": "pure",
      "type": "function"
    },
    {
      "inputs": [
        {
          "internalType": "uint256",
          "name": "y",
          "type": "uint256"
        }
      ],
      "name": "sqrt",
      "outputs": [
        {
          "internalType": "uint256",
          "name": "",
          "type": "uint256"
        }
      ],
      "stateMutability": "pure",
      "type": "function"
    }
  ],
  "bytecode": "0x60808060405234610016576103e1908161001c8239f35b600080fdfe604060808152600436101561001357600080fd5b600090813560e01c8063271a7be4146101505780632ccb610714610135578063677342ce14610115578063c55d0f561461007b5763d1fb97771461005657600080fd5b346100775760209061007061006a3661016b565b9061035b565b9051908152f35b5080fd5b5034610077576020366003190112610077576004357b0119799812dea11197f27f0f6e885c8ba7eb31f476caf7411a8633878111156100c4575060209150600019905b51908152f35b64e8d4a510009081810291818304149015171561010157670de0b6b3a764000066038d7ea4c68000910481018091116101015760209250906100be565b634e487b7160e01b83526011600452602483fd5b5034610077576020366003190112610077576020906100706004356101a9565b50346100775760209061007061014a3661016b565b906102a6565b5034610077576020906100706101653661016b565b9061022b565b6040906003190112610181576004359060243590565b600080fd5b9190820180921161019357565b634e487b7160e01b600052601160045260246000fd5b600381111561020a57806001908060011c600181018091116101935791905b8383106101d55750505090565b919250908280156101f557806101ec918304610186565b821c91906101c8565b60246000634e487b7160e01b81526012600452fd5b61021357600090565b600190565b8181029291811591840414171561019357565b9064e8d4a51000908183029183830481148415171561019357670de0b6b3a7640000908166038d7ea4c680009404840194858511610193578361026d91610186565b818102918183041490151715610193570482018092116101935761029d6102a292671bc16d674ec8000094610186565b610218565b0490565b811561035457600091670de0b6b3a76400008102670de0b6b3a763ffff19828204016103405766038d7ea4c68000900491905b8284106102e65750505090565b9091926102f38482610186565b6001808201809211610193571c908261030c838661022b565b1161031b5750925b91906102d9565b935060001981019081111561031457634e487b7160e01b600052601160045260246000fd5b634e487b7160e01b84526011600452602484fd5b5050600090565b9080821061035457808203908282116101935764e8d4a510008083029283048114828514171561019357670de0b6b3a7640000908166038d7ea4c68000940484019485851161019357818102918183041490151715610193570482018092116101935761029d6102a292671bc16d674ec800009461018656fea164736f6c6343000816000a",
  "linkReferences": {},
  "deployedLinkReferences": {}
}