{
  "_format": "hh-sol-artifact-1",
  "contractName": "GuildGovernance",
  "sourceName": "contracts/modules/GuildGovernance.sol",
  "abi": [
    {
      "inputs": [],
      "name": "AccessControlBadConfirmation",
      "type": "error"
    },
    {
      "inputs": [
        {
          "internalType": "address",
          "name": "account",
          "type": "address"
        },
        {
          "internalType": "bytes32",
          "name": "neededRole",
          "type": "bytes32"
        }
      ],
      "name": "AccessControlUnauthorizedAccount",
      "type": "error"
    },
    {
      "inputs": [],
      "name": "EnforcedPause",
      "type": "error"
    },
    {
      "inputs": [],
      "name": "ExpectedPause",
      "type": "error"
    },
    {
      "inputs": [],
      "name": "InvalidInitialization",
      "type": "error"
    },
    {
      "inputs": [],
      "name": "NotInitializing",
      "type": "error"
    },
    {
      "inputs": [],
      "name": "ReentrancyGuardReentrantCall",
      "type": "error"
    },
    {
      "anonymous": false,
      "inputs": [
        {
          "indexed": false,
          "internalType": "uint64",
          "name": "version",
          "type": "uint64"
        }
      ],
      "name": "Initialized",
      "type": "event"
    },
    {
      "anonymous": false,
      "inputs": [
        {
          "indexed": false,
          "internalType": "address",
          "name": "account",
          "type": "address"
        }
      ],
      "name": "Paused",
      "type": "event"
    },
    {
      "anonymous": false,
      "inputs": [
        {
          "indexed": true,
          "internalType": "uint256",
          "name": "proposalId",
          "type": "uint256"
        },
        {
          "indexed": true,
          "internalType": "uint256",
          "name": "guildId",
          "type": "uint256"
        },
        {
          "indexed": true,
          "internalType": "address",
          "name": "proposer",
          "type": "address"
        },
        {
          "indexed": false,
          "internalType": "enum IGuildGovernance.ProposalType",
          "name": "proposalType",
          "type": "uint8"
        },
        {
          "indexed": false,
          "internalType": "string",
          "name": "title",
          "type": "string"
        }
      ],
      "name": "ProposalCreated",
      "type": "event"
    },
    {
      "anonymous": false,
      "inputs": [
        {
          "indexed": true,
          "internalType": "uint256",
          "name": "proposalId",
          "type": "uint256"
        },
        {
          "indexed": false,
          "internalType": "bool",
          "name": "successful",
          "type": "bool"
        }
      ],
      "name": "ProposalExecuted",
      "type": "event"
    },
    {
      "anonymous": false,
      "inputs": [
        {
          "indexed": true,
          "internalType": "uint256",
          "name": "proposalId",
          "type": "uint256"
        }
      ],
      "name": "ProposalExpired",
      "type": "event"
    },
    {
      "anonymous": false,
      "inputs": [
        {
          "indexed": true,
          "internalType": "bytes32",
          "name": "role",
          "type": "bytes32"
        },
        {
          "indexed": true,
          "internalType": "bytes32",
          "name": "previousAdminRole",
          "type": "bytes32"
        },
        {
          "indexed": true,
          "internalType": "bytes32",
          "name": "newAdminRole",
          "type": "bytes32"
        }
      ],
      "name": "RoleAdminChanged",
      "type": "event"
    },
    {
      "anonymous": false,
      "inputs": [
        {
          "indexed": true,
          "internalType": "bytes32",
          "name": "role",
          "type": "bytes32"
        },
        {
          "indexed": true,
          "internalType": "address",
          "name": "account",
          "type": "address"
        },
        {
          "indexed": true,
          "internalType": "address",
          "name": "sender",
          "type": "address"
        }
      ],
      "name": "RoleGranted",
      "type": "event"
    },
    {
      "anonymous": false,
      "inputs": [
        {
          "indexed": true,
          "internalType": "bytes32",
          "name": "role",
          "type": "bytes32"
        },
        {
          "indexed": true,
          "internalType": "address",
          "name": "account",
          "type": "address"
        },
        {
          "indexed": true,
          "internalType": "address",
          "name": "sender",
          "type": "address"
        }
      ],
      "name": "RoleRevoked",
      "type": "event"
    },
    {
      "anonymous": false,
      "inputs": [
        {
          "indexed": false,
          "internalType": "address",
          "name": "account",
          "type": "address"
        }
      ],
      "name": "Unpaused",
      "type": "event"
    },
    {
      "anonymous": false,
      "inputs": [
        {
          "indexed": true,
          "internalType": "uint256",
          "name": "proposalId",
          "type": "uint256"
        },
        {
          "indexed": true,
          "internalType": "address",
          "name": "voter",
          "type": "address"
        },
        {
          "indexed": false,
          "internalType": "bool",
          "name": "support",
          "type": "bool"
        },
        {
          "indexed": false,
          "internalType": "uint256",
          "name": "votingPower",
          "type": "uint256"
        }
      ],
      "name": "VoteCast",
      "type": "event"
    },
    {
      "inputs": [],
      "name": "ADMIN_ROLE",
      "outputs": [
        {
          "internalType": "bytes32",
          "name": "",
          "type": "bytes32"
        }
      ],
      "stateMutability": "view",
      "type": "function"
    },
    {
      "inputs": [],
      "name": "DEFAULT_ADMIN_ROLE",
      "outputs": [
        {
          "internalType": "bytes32",
          "name": "",
          "type": "bytes32"
        }
      ],
      "stateMutability": "view",
      "type": "function"
    },
    {
      "inputs": [],
      "name": "GOVERNANCE_ADMIN_ROLE",
      "outputs": [
        {
          "internalType": "bytes32",
          "name": "",
          "type": "bytes32"
        }
      ],
      "stateMutability": "view",
      "type": "function"
    },
    {
      "inputs": [
        {
          "internalType": "uint256",
          "name": "proposalId",
          "type": "uint256"
        }
      ],
      "name": "cancelProposal",
      "outputs": [],
      "stateMutability": "nonpayable",
      "type": "function"
    },
    {
      "inputs": [
        {
          "internalType": "uint256",
          "name": "proposalId",
          "type": "uint256"
        },
        {
          "internalType": "bool",
          "name": "support",
          "type": "bool"
        }
      ],
      "name": "castVote",
      "outputs": [],
      "stateMutability": "nonpayable",
      "type": "function"
    },
    {
      "inputs": [
        {
          "internalType": "uint256",
          "name": "guildId",
          "type": "uint256"
        },
        {
          "internalType": "enum IGuildGovernance.ProposalType",
          "name": "proposalType",
          "type": "uint8"
        },
        {
          "internalType": "string",
          "name": "title",
          "type": "string"
        },
        {
          "internalType": "string",
          "name": "description",
          "type": "string"
        },
        {
          "internalType": "bytes",
          "name": "executionData",
          "type": "bytes"
        },
        {
          "internalType": "uint256",
          "name": "votingDuration",
          "type": "uint256"
        }
      ],
      "name": "createProposal",
      "outputs": [
        {
          "internalType": "uint256",
          "name": "proposalId",
          "type": "uint256"
        }
      ],
      "stateMutability": "nonpayable",
      "type": "function"
    },
    {
      "inputs": [
        {
          "internalType": "uint256",
          "name": "proposalId",
          "type": "uint256"
        }
      ],
      "name": "executeProposal",
      "outputs": [],
      "stateMutability": "nonpayable",
      "type": "function"
    },
    {
      "inputs": [
        {
          "internalType": "uint256",
          "name": "proposalId",
          "type": "uint256"
        }
      ],
      "name": "getProposal",
      "outputs": [
        {
          "components": [
            {
              "internalType": "uint256",
              "name": "proposalId",
              "type": "uint256"
            },
            {
              "internalType": "uint256",
              "name": "guildId",
              "type": "uint256"
            },
            {
              "internalType": "address",
              "name": "proposer",
              "type": "address"
            },
            {
              "internalType": "enum IGuildGovernance.ProposalType",
              "name": "proposalType",
              "type": "uint8"
            },
            {
              "internalType": "enum IGuildGovernance.ProposalStatus",
              "name": "status",
              "type": "uint8"
            },
            {
              "internalType": "string",
              "name": "title",
              "type": "string"
            },
            {
              "internalType": "string",
              "name": "description",
              "type": "string"
            },
            {
              "internalType": "uint256",
              "name": "createdAt",
              "type": "uint256"
            },
            {
              "internalType": "uint256",
              "name": "votingDeadline",
              "type": "uint256"
            },
            {
              "internalType": "uint256",
              "name": "votesFor",
              "type": "uint256"
            },
            {
              "internalType": "uint256",
              "name": "votesAgainst",
              "type": "uint256"
            },
            {
              "internalType": "uint256",
              "name": "totalEligibleVoters",
              "type": "uint256"
            },
            {
              "internalType": "uint256",
              "name": "totalVoters",
              "type": "uint256"
            },
            {
              "internalType": "bytes",
              "name": "executionData",
              "type": "bytes"
            }
          ],
          "internalType": "struct IGuildGovernance.Proposal",
          "name": "",
          "type": "tuple"
        }
      ],
      "stateMutability": "view",
      "type": "function"
    },
    {
      "inputs": [
        {
          "internalType": "uint256",
          "name": "proposalId",
          "type": "uint256"
        }
      ],
      "name": "getProposalResult",
      "outputs": [
        {
          "internalType": "bool",
          "name": "passed",
          "type": "bool"
        },
        {
          "internalType": "bool",
          "name": "executed",
          "type": "bool"
        }
      ],
      "stateMutability": "view",
      "type": "function"
    },
    {
      "inputs": [
        {
          "internalType": "bytes32",
          "name": "role",
          "type": "bytes32"
        }
      ],
      "name": "getRoleAdmin",
      "outputs": [
        {
          "internalType": "bytes32",
          "name": "",
          "type": "bytes32"
        }
      ],
      "stateMutability": "view",
      "type": "function"
    },
    {
      "inputs": [
        {
          "internalType": "uint256",
          "name": "proposalId",
          "type": "uint256"
        },
        {
          "internalType": "address",
          "name": "voter",
          "type": "address"
        }
      ],
      "name": "getVote",
      "outputs": [
        {
          "components": [
            {
              "internalType": "address",
              "name": "voter",
              "type": "address"
            },
            {
              "internalType": "bool",
              "name": "support",
              "type": "bool"
            },
            {
              "internalType": "uint256",
              "name": "votingPower",
              "type": "uint256"
            },
            {
              "internalType": "uint256",
              "name": "timestamp",
              "type": "uint256"
            }
          ],
          "internalType": "struct IGuildGovernance.Vote",
          "name": "",
          "type": "tuple"
        }
      ],
      "stateMutability": "view",
      "type": "function"
    },
    {
      "inputs": [
        {
          "internalType": "uint256",
          "name": "guildId",
          "type": "uint256"
        },
        {
          "internalType": "address",
          "name": "member",
          "type": "address"
        }
      ],
      "name": "getVotingPower",
      "outputs": [
        {
          "internalType": "uint256",
          "name": "",
          "type": "uint256"
        }
      ],
      "stateMutability": "view",
      "type": "function"
    },
    {
      "inputs": [
        {
          "internalType": "bytes32",
          "name": "role",
          "type": "bytes32"
        },
        {
          "internalType": "address",
          "name": "account",
          "type": "address"
        }
      ],
      "name": "grantRole",
      "outputs": [],
      "stateMutability": "nonpayable",
      "type": "function"
    },
    {
      "inputs": [],
      "name": "guildCore",
      "outputs": [
        {
          "internalType": "contract IGuildCore",
          "name": "",
          "type": "address"
        }
      ],
      "stateMutability": "view",
      "type": "function"
    },
    {
      "inputs": [
        {
          "internalType": "bytes32",
          "name": "role",
          "type": "bytes32"
        },
        {
          "internalType": "address",
          "name": "account",
          "type": "address"
        }
      ],
      "name": "hasRole",
      "outputs": [
        {
          "internalType": "bool",
          "name": "",
          "type": "bool"
        }
      ],
      "stateMutability": "view",
      "type": "function"
    },
    {
      "inputs": [
        {
          "internalType": "uint256",
          "name": "proposalId",
          "type": "uint256"
        },
        {
          "internalType": "address",
          "name": "voter",
          "type": "address"
        }
      ],
      "name": "hasVoted",
      "outputs": [
        {
          "internalType": "bool",
          "name": "",
          "type": "bool"
        }
      ],
      "stateMutability": "view",
      "type": "function"
    },
    {
      "inputs": [
        {
          "internalType": "uint256",
          "name": "",
          "type": "uint256"
        },
        {
          "internalType": "address",
          "name": "",
          "type": "address"
        }
      ],
      "name": "hasVotedMap",
      "outputs": [
        {
          "internalType": "bool",
          "name": "",
          "type": "bool"
        }
      ],
      "stateMutability": "view",
      "type": "function"
    },
    {
      "inputs": [
        {
          "internalType": "address",
          "name": "admin",
          "type": "address"
        },
        {
          "internalType": "address",
          "name": "_guildCore",
          "type": "address"
        },
        {
          "internalType": "uint256",
          "name": "_quorumPercentage",
          "type": "uint256"
        }
      ],
      "name": "initialize",
      "outputs": [],
      "stateMutability": "nonpayable",
      "type": "function"
    },
    {
      "inputs": [],
      "name": "maxVotingDuration",
      "outputs": [
        {
          "internalType": "uint256",
          "name": "",
          "type": "uint256"
        }
      ],
      "stateMutability": "view",
      "type": "function"
    },
    {
      "inputs": [],
      "name": "minVotingDuration",
      "outputs": [
        {
          "internalType": "uint256",
          "name": "",
          "type": "uint256"
        }
      ],
      "stateMutability": "view",
      "type": "function"
    },
    {
      "inputs": [],
      "name": "nextProposalId",
      "outputs": [
        {
          "internalType": "uint256",
          "name": "",
          "type": "uint256"
        }
      ],
      "stateMutability": "view",
      "type": "function"
    },
    {
      "inputs": [],
      "name": "pause",
      "outputs": [],
      "stateMutability": "nonpayable",
      "type": "function"
    },
    {
      "inputs": [],
      "name": "paused",
      "outputs": [
        {
          "internalType": "bool",
          "name": "",
          "type": "bool"
        }
      ],
      "stateMutability": "view",
      "type": "function"
    },
    {
      "inputs": [
        {
          "internalType": "uint256",
          "name": "",
          "type": "uint256"
        }
      ],
      "name": "proposals",
      "outputs": [
        {
          "internalType": "uint256",
          "name": "proposalId",
          "type": "uint256"
        },
        {
          "internalType": "uint256",
          "name": "guildId",
          "type": "uint256"
        },
        {
          "internalType": "address",
          "name": "proposer",
          "type": "address"
        },
        {
          "internalType": "enum IGuildGovernance.ProposalType",
          "name": "proposalType",
          "type": "uint8"
        },
        {
          "internalType": "enum IGuildGovernance.ProposalStatus",
          "name": "status",
          "type": "uint8"
        },
        {
          "internalType": "string",
          "name": "title",
          "type": "string"
        },
        {
          "internalType": "string",
          "name": "description",
          "type": "string"
        },
        {
          "internalType": "uint256",
          "name": "createdAt",
          "type": "uint256"
        },
        {
          "internalType": "uint256",
          "name": "votingDeadline",
          "type": "uint256"
        },
        {
          "internalType": "uint256",
          "name": "votesFor",
          "type": "uint256"
        },
        {
          "internalType": "uint256",
          "name": "votesAgainst",
          "type": "uint256"
        },
        {
          "internalType": "uint256",
          "name": "totalEligibleVoters",
          "type": "uint256"
        },
        {
          "internalType": "uint256",
          "name": "totalVoters",
          "type": "uint256"
        },
        {
          "internalType": "bytes",
          "name": "executionData",
          "type": "bytes"
        }
      ],
      "stateMutability": "view",
      "type": "function"
    },
    {
      "inputs": [],
      "name": "quorumPercentage",
      "outputs": [
        {
          "internalType": "uint256",
          "name": "",
          "type": "uint256"
        }
      ],
      "stateMutability": "view",
      "type": "function"
    },
    {
      "inputs": [
        {
          "internalType": "bytes32",
          "name": "role",
          "type": "bytes32"
        },
        {
          "internalType": "address",
          "name": "callerConfirmation",
          "type": "address"
        }
      ],
      "name": "renounceRole",
      "outputs": [],
      "stateMutability": "nonpayable",
      "type": "function"
    },
    {
      "inputs": [
        {
          "internalType": "bytes32",
          "name": "role",
          "type": "bytes32"
        },
        {
          "internalType": "address",
          "name": "account",
          "type": "address"
        }
      ],
      "name": "revokeRole",
      "outputs": [],
      "stateMutability": "nonpayable",
      "type": "function"
    },
    {
      "inputs": [
        {
          "internalType": "uint256",
          "name": "newQuorumPercentage",
          "type": "uint256"
        },
        {
          "internalType": "uint256",
          "name": "newMinVotingDuration",
          "type": "uint256"
        },
        {
          "internalType": "uint256",
          "name": "newMaxVotingDuration",
          "type": "uint256"
        }
      ],
      "name": "setVotingParameters",
      "outputs": [],
      "stateMutability": "nonpayable",
      "type": "function"
    },
    {
      "inputs": [
        {
          "internalType": "bytes4",
          "name": "interfaceId",
          "type": "bytes4"
        }
      ],
      "name": "supportsInterface",
      "outputs": [
        {
          "internalType": "bool",
          "name": "",
          "type": "bool"
        }
      ],
      "stateMutability": "view",
      "type": "function"
    },
    {
      "inputs": [],
      "name": "unpause",
      "outputs": [],
      "stateMutability": "nonpayable",
      "type": "function"
    },
    {
      "inputs": [
        {
          "internalType": "uint256",
          "name": "",
          "type": "uint256"
        }
      ],
      "name": "votedCount",
      "outputs": [
        {
          "internalType": "uint256",
          "name": "",
          "type": "uint256"
        }
      ],
      "stateMutability": "view",
      "type": "function"
    },
    {
      "inputs": [
        {
          "internalType": "uint256",
          "name": "",
          "type": "uint256"
        },
        {
          "internalType": "address",
          "name": "",
          "type": "address"
        }
      ],
      "name": "votes",
      "outputs": [
        {
          "internalType": "address",
          "name": "voter",
          "type": "address"
        },
        {
          "internalType": "bool",
          "name": "support",
          "type": "bool"
        },
        {
          "internalType": "uint256",
          "name": "votingPower",
          "type": "uint256"
        },
        {
          "internalType": "uint256",
          "name": "timestamp",
          "type": "uint256"
        }
      ],
      "stateMutability": "view",
      "type": "function"
    }
  ],
  "bytecode": "0x6080806040523461001657612d5c908161001c8239f35b600080fdfe608080604052600436101561001357600080fd5b60003560e01c908163013cf08b14611b475750806301ffc9a714611af15780630d61b519146119b55780631138dab21461123457806315373e3d14610e5b5780631613193814610e325780631794bb3c14610c84578063221b481b14610c58578063248a9ca314610c1c5780632ab09d1414610bfe5780632f2ff15d14610bb257806336568abe14610b6b5780633f4ba83a14610af45780634385963214610a895780634fa76ec914610ad657806353b7374814610a89578063555f1860146109aa5780635c975abb1461097a5780636df7bab31461095c57806375b238fc1461092157806377fb8d7a146108e65780638456cb591461087f57806391d14854146108255780639d49257c14610807578063a217fddf146107eb578063bc3f931f14610731578063c7f758a8146104d6578063d23254b414610467578063d547741f14610419578063dbdad432146103eb578063e0a8f6f5146102ee5763f91f88f71461017f57600080fd5b346102e95760203660031901126102e9576004358060005260016020526040600020600b6101a06040516101b281611d64565b835481526001840154602082015260028401546001600160a01b038116604083015293610292906101ed60a087901c60ff16606085016120aa565b61020160ff608085019760a81c16876120b6565b60405161021c816102158160038601611cce565b0382611dae565b60a0840152604051610235816102158160048601611cce565b60c0840152600581015460e08401526006810154610100840152600781015461012084015260088101546101408401526009810154610160840152600a81015461018084015261028b6040518096819301611cce565b0384611dae565b015261029d82612376565b905160048110156102d3576102b3604093612af7565b156102ca575b825191151582526001146020820152f35b600091506102b9565b634e487b7160e01b600052602160045260246000fd5b600080fd5b346102e95760203660031901126102e9576004358060005260016020526002604060002001805460ff8160a81c1660048110156102d35761032f9015611e74565b6001600160a01b038116331480156103b3575b1561037d5760ff60a81b1916600360a81b1790557f88e53c486703527139dfc8d97a1e559d9bd93d3f9d52cda4e06564111e7a2643600080a2005b60405162461bcd60e51b815260206004820152600e60248201526d139bdd08185d5d1a1bdc9a5e995960921b6044820152606490fd5b503360009081527fa2d2592ab7d5d49e67a0ec07569252ab6cdb53d434c1cc4ab831f495b657fd59602052604090205460ff16610342565b346102e95760403660031901126102e9576020610411610409611e5e565b600435612118565b604051908152f35b346102e95760403660031901126102e957610465600435610438611e5e565b9080600052600080516020612cf08339815191526020526104606001604060002001546129f5565b612a28565b005b346102e95760403660031901126102e9576080610482611e5e565b6004356000526002602052604060002060018060a01b03809216600052602052604060002080549060ff6002600183015492015492604051948116855260a01c161515602084015260408301526060820152f35b346102e95760203660031901126102e95760606101a06040516104f881611d64565b600081526000602082015260006040820152600083820152600060808201528260a08201528260c0820152600060e0820152600061010082015260006101208201526000610140820152600061016082015260006101808201520152600435600052600160205261072d6040600020600b6106456040519261057984611d64565b805484526001810154602085015260028101546001600160a01b03811660408601526105c29060ff906105b560a082901c8316606089016120aa565b60a81c16608086016120b6565b6040516105d6816102158160038601611cce565b60a08501526040516105ef816102158160048601611cce565b60c0850152600581015460e08501526006810154610100850152600781015461012085015260088101546101408501526009810154610160850152600a8101546101808501526102156040518094819301611cce565b6101a082015260405191829160208352805160208401526020810151604084015260018060a01b03604082015116606084015261068a60608201516080850190611dcf565b61069c608082015160a0850190611ddc565b6101a06106d36106bd60a08401516101c060c08801526101e0870190611e0c565b60c0840151868203601f190160e0880152611e0c565b9160e0810151610100860152610100810151610120860152610120810151610140860152610140810151610160860152610160810151610180860152610180810151828601520151601f19848303016101c0850152611e0c565b0390f35b346102e95760403660031901126102e957608061074c611e5e565b6000606060405161075c81611d80565b82815282602082015282604082015201526004356000526002602052604060002060018060a01b0380921660005260205260406000206040519061079f82611d80565b80549283169283835260ff602084019160a01c16151581526060600260018401549360408601948552015493019283526040519384525115156020840152516040830152516060820152f35b346102e95760003660031901126102e957602060405160008152f35b346102e95760003660031901126102e9576020600854604051908152f35b346102e95760403660031901126102e95761083e611e5e565b600435600052600080516020612cf083398151915260205260406000209060018060a01b0316600052602052602060ff604060002054166040519015158152f35b346102e95760003660031901126102e95761089861297b565b6108a06126f3565b600080516020612d10833981519152600160ff198254161790557f62e78cea01bee320cd4e420270b5ea74000d11b0c9f74754ebdbfc544b05a2586020604051338152a1005b346102e95760003660031901126102e95760206040517fe7e0b301de1c1e268073a6b56ff0876cffca0becba0dca08f945c1394e3e97278152f35b346102e95760003660031901126102e95760206040517fa49807205ce4d355092ef5a8a18f56e8913cf4a201fbe287825b095693c217758152f35b346102e95760003660031901126102e9576020600754604051908152f35b346102e95760003660031901126102e957602060ff600080516020612d1083398151915254166040519015158152f35b346102e95760603660031901126102e9576044356024356004356109cc61297b565b6127108111610a38576109de82612aab565b6109e783612aab565b828210156109fa57600655600755600855005b60405162461bcd60e51b8152602060048201526016602482015275496e76616c6964206475726174696f6e2072616e676560501b6044820152606490fd5b60405162461bcd60e51b815260206004820152602360248201527f56616c69646174696f6e5574696c733a20696e76616c69642070657263656e7460448201526261676560e81b6064820152608490fd5b346102e95760403660031901126102e957610aa2611e5e565b600435600052600360205260406000209060018060a01b0316600052602052602060ff604060002054166040519015158152f35b346102e95760003660031901126102e9576020600654604051908152f35b346102e95760003660031901126102e957610b0d61297b565b600080516020612d10833981519152805460ff811615610b595760ff191690557f5db9ee0a495bf2e6ff9c91a7834c1ba4fdd244a5e8aa4e537bd38aeae4b073aa6020604051338152a1005b604051638dfc202b60e01b8152600490fd5b346102e95760403660031901126102e957610b84611e5e565b336001600160a01b03821603610ba05761046590600435612a28565b60405163334bd91960e11b8152600490fd5b346102e95760403660031901126102e957610465600435610bd1611e5e565b9080600052600080516020612cf0833981519152602052610bf96001604060002001546129f5565b612906565b346102e95760003660031901126102e9576020600554604051908152f35b346102e95760203660031901126102e957600435600052600080516020612cf08339815191526020526020600160406000200154604051908152f35b346102e95760203660031901126102e95760043560005260046020526020604060002054604051908152f35b346102e95760603660031901126102e9576001600160a01b0360043581811681036102e957610cb1611e5e565b917ff0c57e16840df040f15088dc2f81fe391c3923bec73e23a9662efc9c229c6a0092835460ff8160401c1615936001600160401b03821680159081610e2a575b6001149081610e20575b159081610e17575b50610e055767ffffffffffffffff1982166001178655610d709185610de6575b50610d2d612c8e565b610d35612c8e565b610d3d612c8e565b610d45612c8e565b6001600080516020612d3083398151915255610d608161271e565b50610d6a816127ac565b5061285c565b50166bffffffffffffffffffffffff60a01b60005416176000556044356006556201518060075562093a806008556001600555610da957005b68ff00000000000000001981541690557fc7f505b2f371ae2175ee4913f4499e1f2633a7b5936321eed1cdaeb6115181d2602060405160018152a1005b68ffffffffffffffffff19166801000000000000000117865586610d24565b60405163f92ee8a960e01b8152600490fd5b90501587610d04565b303b159150610cfc565b869150610cf2565b346102e95760003660031901126102e9576000546040516001600160a01b039091168152602090f35b346102e95760403660031901126102e957602460043581358015158082036102e957610e856126f3565b610e8d612346565b8260005260019360209285845260406000209060ff600283015460a81c16600481101561121f576111e55760068201544210156111ab578560005260038552604060002033600052855260ff60406000205416611177576000548783015460405163376af5d160e21b8152600481018290523360248201526001600160a01b039290919088908390604490829087165afa91821561116b5760009261112f575b50610f3a610f4192611ec4565b3390612118565b9384156110fa5750600260405191610f5883611d80565b338352878301878152604084019087825260608501924284528b600052848b526040600020336000528b52604060002095511685549160ff60a01b9051151560a01b16916affffffffffffffffffffff60a81b1617178455518a840155519101558560005260038552604060002033600052855260406000208760ff1982541617905585600052600485526040600020610ff28154612078565b9055156110e55760070161100782825461209d565b90555b60405191825282820152827fcbdf6214089cba887ecbf35a0b6a734589959c9763342c756bb2a80ca2bc9f6e60403393a3816000528281526040600020906006820154421015611069575b600080516020612d30833981519152849055005b60027f948f4a9cd986f1118c3fbd459f7a22b23c0693e1ca3ef06a6a8be5aa7d39cc039261109685612376565b156110c65701805460ff60a81b1916600160a81b1790556110b6836124a3565b604051848152a25b818080611055565b01805460ff60a81b1916600160a91b17905560405160008152a26110be565b6008016110f382825461209d565b905561100a565b86600f6064926040519262461bcd60e51b845260048401528201526e2737903b37ba34b733903837bbb2b960891b6044820152fd5b91508782813d8311611164575b6111468183611dae565b810103126102e957610f3a61115d610f4193611eb7565b9250610f2d565b503d61113c565b6040513d6000823e3d90fd5b60405162461bcd60e51b815260048101869052600d818501526c105b1c9958591e481d9bdd1959609a1b6044820152606490fd5b60405162461bcd60e51b81526004810186905260138185015272159bdd1a5b99c81c195c9a5bd908195b991959606a1b6044820152606490fd5b60405162461bcd60e51b8152600481018690526013818501527250726f706f73616c206e6f742061637469766560681b6044820152606490fd5b83634e487b7160e01b60005260216004526000fd5b346102e95760c03660031901126102e957600560243510156102e9576044356001600160401b0381116102e95761126f903690600401611e31565b906064356001600160401b0381116102e95761128f903690600401611e31565b90916084356001600160401b0381116102e9576112b0903690600401611e31565b94906112ba6126f3565b6112c2612346565b60005460405163376af5d160e21b815260048035908201523360248201526001600160a01b0390911696906020816044818b5afa801561116b5760009061197a575b61130e9150611ec4565b611319368486611f1e565b5115611935576007546008549060a43510159081611928575b50156118d75760405163d3e9669360e01b81526004803590820152946000866024818b5afa95861561116b576000966118b2575b5060e08601511561187a57602495600554986113818a612078565b600555602061139260a4354261209d565b91604051998a80926301b387f560e21b825260043560048301525afa91821561116b578a98600093611839575b5061145096979899608061141c92015194600060806040519e8f906113e382611d64565b81526004356020820152336040820152611402602435606083016120aa565b01528c60a0611412368d8f611f1e565b9101523691611f1e565b60c08b01524260e08b01526101008a015260006101208a015260006101408a01526101608901526101808801523691611f1e565b6101a08501528260005260016020526040600020845181556020850151600182015560018060a01b0360408601511660028201549060608701519060058210156102d357608088015160048110156102d35760ff60a81b9060a81b169269ffffffffffffffffffff60b01b16179060ff60a01b9060a01b161717600282015560a08501518051906001600160401b038211611730576114ff826114f66003860154611c94565b600386016120c2565b602090601f83116001146117c7576115309291600091836116bf575b50508160011b916000199060031b1c19161790565b60038201555b60c08501518051906001600160401b038211611730576115668261155d6004860154611c94565b600486016120c2565b602090601f83116001146117515782600b936101a0959361159d936000926117465750508160011b916000199060031b1c19161790565b60048201555b60e087015160058201556101008701516006820155610120870151600782015561014087015160088201556101608701516009820155610180870151600a820155019401519384516001600160401b038111611730576020956116108261160a8554611c94565b856120c2565b8690601f83116001146116ca5761163f9291600091836116bf5750508160011b916000199060031b1c19161790565b90555b806040519261165384602435611dcf565b6040868501528160408501526060840137600060608284010152827fb1d569dc5621a0a51229b7ac0eff81f3e6df70a3f72fe608aa58f74bb69d7bb6339360608160043595601f80199101168101030190a46001600080516020612d3083398151915255604051908152f35b01519050888061151b565b90601f1983169184600052886000209260005b8181106117195750908460019594939210611700575b505050811b019055611642565b015160001960f88460031b161c191690558780806116f3565b92938a6001819287860151815501950193016116dd565b634e487b7160e01b600052604160045260246000fd5b015190508a8061151b565b906004840160005260206000209160005b601f19851681106117af5750926101a09492600192600b9583601f19811610611796575b505050811b0160048201556115a3565b015160001960f88460031b161c19169055898080611786565b91926020600181928685015181550194019201611762565b9190600384016000526020600020906000935b601f198416851061181e576001945083601f19811610611805575b505050811b016003820155611536565b015160001960f88460031b161c191690558780806117f5565b818101518355602094850194600190930192909101906117da565b999697985091506020893d602011611872575b8161185960209383611dae565b810103126102e9579751949789979695916114506113bf565b3d915061184c565b60405162461bcd60e51b815260206004820152601060248201526f4775696c64206e6f742061637469766560801b6044820152606490fd5b6118d09196503d806000833e6118c88183611dae565b810190611fae565b9488611366565b60405162461bcd60e51b815260206004820152602360248201527f56616c69646174696f6e5574696c733a2076616c7565206f7574206f662072616044820152626e676560e81b6064820152608490fd5b905060a435111588611332565b60405162461bcd60e51b815260206004820152601d60248201527f56616c69646174696f6e5574696c733a20656d70747920737472696e670000006044820152606490fd5b506020813d6020116119ad575b8161199460209383611dae565b810103126102e9576119a861130e91611eb7565b611304565b3d9150611987565b346102e95760203660031901126102e9576004356119d1612346565b8060005260016020526040600020600281019081549060ff8260a81c169060048210156102d357611a0460069215611e74565b01544210611ab657611a1583612376565b15611a755750805460ff60a81b1916600160a81b179055611a35816124a3565b7f948f4a9cd986f1118c3fbd459f7a22b23c0693e1ca3ef06a6a8be5aa7d39cc03602060405160018152a25b6001600080516020612d3083398151915255005b60ff60a81b1916600160a91b179055604051600081527f948f4a9cd986f1118c3fbd459f7a22b23c0693e1ca3ef06a6a8be5aa7d39cc0390602090a2611a61565b60405162461bcd60e51b8152602060048201526013602482015272566f74696e67207374696c6c2061637469766560681b6044820152606490fd5b346102e95760203660031901126102e95760043563ffffffff60e01b81168091036102e957602090637965db0b60e01b8114908115611b36575b506040519015158152f35b6301ffc9a760e01b14905082611b2b565b346102e95760203660031901126102e957600435600052600160205260406000209081549160018101549160028201549381806003850190611b8891611cce565b03611b939083611dae565b6040519182611ba58160048701611cce565b03611bb09084611dae565b6005840154926006850154600786015490600887015492600988015494600a8901549660405180600b819c0190611be691611cce565b03611bf1908b611dae565b6040519b8c9b6101c0928d5260208d0152600160a01b60019003811660408d015260608c018160a01c60ff1690611c2791611dcf565b60808c019060a81c60ff1690611c3c91611ddc565b8060a08c01528a01611c4d91611e0c565b89810360c08b0152611c5e91611e0c565b9560e08901526101008801526101208701526101408601526101608501526101808401528281036101a084015261072d91611e0c565b90600182811c92168015611cc4575b6020831014611cae57565b634e487b7160e01b600052602260045260246000fd5b91607f1691611ca3565b805460009392611cdd82611c94565b91828252602093600191600181169081600014611d455750600114611d04575b5050505050565b90939495506000929192528360002092846000945b838610611d3157505050500101903880808080611cfd565b805485870183015294019385908201611d19565b60ff19168685015250505090151560051b010191503880808080611cfd565b6101c081019081106001600160401b0382111761173057604052565b608081019081106001600160401b0382111761173057604052565b6001600160401b03811161173057604052565b90601f801991011681019081106001600160401b0382111761173057604052565b9060058210156102d35752565b9060048210156102d35752565b60005b838110611dfc5750506000910152565b8181015183820152602001611dec565b90602091611e2581518092818552858086019101611de9565b601f01601f1916010190565b9181601f840112156102e9578235916001600160401b0383116102e957602083818601950101116102e957565b602435906001600160a01b03821682036102e957565b15611e7b57565b60405162461bcd60e51b815260206004820152601460248201527350726f706f73616c206e6f742070656e64696e6760601b6044820152606490fd5b519081151582036102e957565b15611ecb57565b60405162461bcd60e51b815260206004820152601060248201526f2737ba1033bab4b6321036b2b6b132b960811b6044820152606490fd5b6001600160401b03811161173057601f01601f191660200190565b929192611f2a82611f03565b91611f386040519384611dae565b8294818452818301116102e9578281602093846000960137010152565b81601f820112156102e9578051611f6b81611f03565b92611f796040519485611dae565b818452602082840101116102e957611f979160208085019101611de9565b90565b51906001600160a01b03821682036102e957565b6020818303126102e95780516001600160401b03918282116102e95701906101209283838203126102e95760405193840184811083821117611730576040528251845260208301518281116102e95781612009918501611f55565b602085015260408301519182116102e957612025918301611f55565b604083015261203660608201611f9a565b60608301526080810151608083015260a081015160a083015260c081015160c083015261206560e08201611eb7565b60e0830152610100809101519082015290565b60001981146120875760010190565b634e487b7160e01b600052601160045260246000fd5b9190820180921161208757565b60058210156102d35752565b60048210156102d35752565b90601f81116120d057505050565b6000916000526020600020906020601f850160051c8301941061210e575b601f0160051c01915b82811061210357505050565b8181556001016120f7565b90925082906120ee565b600080546040805163376af5d160e21b8152600481018590526001600160a01b0386811660248301529396956020959385169492939092918681604481895afa90811561233c578991612303575b50156122fb578351630f33c9cf60e11b8152600481018290526001600160a01b03841660248201529588919082886044818a5afa9788156122f1578398612227575b5050602485518097819363d3e9669360e01b835260048301525afa93841561221d5787611f97979895612200575b50508060606001950151169116146121f7575b6103e891920151049061209d565b600291506121e9565b6122159295503d8091833e6118c88183611dae565b9238806121d6565b83513d89823e3d90fd5b91975091503d808a833e61223b8183611dae565b810182828203126122ed5781516001600160401b03928382116122e957019160a0838303126122e55786519360a08501858110838211176122d15788528b949392919061228784611f9a565b8552808401519085015287830151888501526122a560608401611eb7565b606085015260808301519081116122cd576122c09201611f55565b60808201529538806121a8565b8480fd5b634e487b7160e01b8d52604160045260248dfd5b8a80fd5b8b80fd5b8980fd5b86513d85823e3d90fd5b505050505050565b90508681813d8311612335575b61231a8183611dae565b810103126123315761232b90611eb7565b38612166565b8880fd5b503d612310565b85513d8b823e3d90fd5b600080516020612d3083398151915260028154146123645760029055565b604051633ee5aeb560e01b8152600490fd5b8060005260016020526040906124718260002091600b6101a0855161239a81611d64565b855481526001860154602082015260028601546001600160a01b038116888301526123e29060ff906123d560a082901c8316606086016120aa565b60a81c16608083016120b6565b86516123f5816102158160038b01611cce565b60a0820152865161240d816102158160048b01611cce565b60c0820152600586015460e0820152600686015461010082015261246a600787015496610120830197885261028b60088201549961014085019a8b526009830154610160860152600a830154610180860152518096819301611cce565b0152612af7565b1561247d575190511090565b5050600090565b908160209103126102e957516001600160a01b03811681036102e95790565b906000918252602091600183526040908181209382516124c281611d64565b85548152600186015491808201928352600b6101a060028901549361259560018060a01b039a8b87168a84015261251560ff6060850198612508828260a01c168b6120aa565b60a81c16608085016120b6565b8951612528816102158160038601611cce565b60a08401528951612540816102158160048601611cce565b60c0840152600581015460e08401526006810154610100840152600781015461012084015260088101546101408401526009810154610160840152600a81015461018084015261028b8a518096819301611cce565b01908152825160058110156126df578892919061262d576125c192935051908082518301019101612484565b16948254169051813b15612629578351636be7658b60e01b815260048101919091526001600160a01b0395909516602486015292939281908490604490829084905af191821561261f5750506126145750565b61261d90611d9b565b565b51903d90823e3d90fd5b8280fd5b9150915160058110156126cb5760011461264b575b50505050509050565b86916126609151908082518301019101612484565b16948254169051813b1561262957835163c6033e3560e01b815260048101919091526001600160a01b0395909516602486015292939281908490604490829084905af191821561261f5750506126bc575b808080808594612642565b6126c590611d9b565b386126b1565b634e487b7160e01b85526021600452602485fd5b634e487b7160e01b86526021600452602486fd5b60ff600080516020612d10833981519152541661270c57565b60405163d93c066560e01b8152600490fd5b6001600160a01b031660008181527fb7db2dd08fcb62d0c9e08c51941cae53c267786a0b75803fb7960902fc8ef97d6020526040812054909190600080516020612cf08339815191529060ff166127a7578280526020526040822081835260205260408220600160ff198254161790553391600080516020612cd08339815191528180a4600190565b505090565b6001600160a01b031660008181527fb16e88c42fd4e48df2dd6a2eabd6bc9aec654ec170056b470819f8892cc6431c60205260408120549091907fa49807205ce4d355092ef5a8a18f56e8913cf4a201fbe287825b095693c2177590600080516020612cf08339815191529060ff16612856578184526020526040832082845260205260408320600160ff19825416179055600080516020612cd0833981519152339380a4600190565b50505090565b6001600160a01b031660008181527fa2d2592ab7d5d49e67a0ec07569252ab6cdb53d434c1cc4ab831f495b657fd5960205260408120549091907fe7e0b301de1c1e268073a6b56ff0876cffca0becba0dca08f945c1394e3e972790600080516020612cf08339815191529060ff16612856578184526020526040832082845260205260408320600160ff19825416179055600080516020612cd0833981519152339380a4600190565b90600091808352600080516020612cf083398151915280602052604084209260018060a01b03169283855260205260ff60408520541615600014612856578184526020526040832082845260205260408320600160ff19825416179055600080516020612cd0833981519152339380a4600190565b3360009081527fa2d2592ab7d5d49e67a0ec07569252ab6cdb53d434c1cc4ab831f495b657fd5960205260409020547fe7e0b301de1c1e268073a6b56ff0876cffca0becba0dca08f945c1394e3e97279060ff16156129d75750565b6044906040519063e2517d3f60e01b82523360048301526024820152fd5b80600052600080516020612cf083398151915260205260406000203360005260205260ff60406000205416156129d75750565b90600091808352600080516020612cf083398151915280602052604084209260018060a01b03169283855260205260ff60408520541660001461285657818452602052604083208284526020526040832060ff1981541690557ff6391f5c32d9c69d2a47ea670b442974b53935d1edc7fd64eb21e047a839171b339380a4600190565b15612ab257565b60405162461bcd60e51b815260206004820152601c60248201527f56616c69646174696f6e5574696c733a207a65726f20616d6f756e74000000006044820152606490fd5b600090815260209060018252604090818120825193612b1585611d64565b8154855280612bee600184015493828801948552600281015497612b5560ff60018060a01b039a8b81168b8501526123d5828260a01c16606086016120aa565b8751612b68816102158160038701611cce565b60a08201528751612b80816102158160048701611cce565b60c0820152600582015460e08201526006820154610100820152600b6101a06007840154926101208101938452612be360088601549561014083019687526009810154610160840152600a81015461018084015261028b8d518096819301611cce565b01525190519061209d565b95845416925160248651809581936301b387f560e21b835260048301525afa938415612c8557508293612c51575b505060065491828102928184041490151715612c3d57506127109004111590565b634e487b7160e01b81526011600452602490fd5b9080929350813d8311612c7e575b612c698183611dae565b81010312612c7a5751903880612c1c565b5080fd5b503d612c5f565b513d84823e3d90fd5b60ff7ff0c57e16840df040f15088dc2f81fe391c3923bec73e23a9662efc9c229c6a005460401c1615612cbd57565b604051631afcd79f60e31b8152600490fdfe2f8788117e7eff1d82e926ec794901d17c78024a50270940304540a733656f0d02dd7bc7dec4dceedda775e58dd541e08a116c6c53815c0bd028192f7b626800cd5ed15c6e187e77e9aee88184c21f4f2182ab5827cb3b7e07fbedcd63f033009b779b17422d0df92223018b32b4d1fa46e071723d6817e2486d003becc55f00a164736f6c6343000816000a",
  "linkReferences": {},
  "deployedLinkReferences": {}
}