{
  "_format": "hh-sol-artifact-1",
  "contractName": "ForgeTokenCore",
  "sourceName": "contracts/ForgeTokenCore.sol",
  "abi": [
    {
      "inputs": [],
      "name": "AccessControlBadConfirmation",
      "type": "error"
    },
    {
      "inputs": [
        {
          "internalType": "address",
          "name": "account",
          "type": "address"
        },
        {
          "internalType": "bytes32",
          "name": "neededRole",
          "type": "bytes32"
        }
      ],
      "name": "AccessControlUnauthorizedAccount",
      "type": "error"
    },
    {
      "inputs": [],
      "name": "AccountBlacklisted",
      "type": "error"
    },
    {
      "inputs": [
        {
          "internalType": "address",
          "name": "target",
          "type": "address"
        }
      ],
      "name": "AddressEmptyCode",
      "type": "error"
    },
    {
      "inputs": [],
      "name": "CheckpointUnorderedInsertion",
      "type": "error"
    },
    {
      "inputs": [],
      "name": "DailyMintLimitExceeded",
      "type": "error"
    },
    {
      "inputs": [],
      "name": "ECDSAInvalidSignature",
      "type": "error"
    },
    {
      "inputs": [
        {
          "internalType": "uint256",
          "name": "length",
          "type": "uint256"
        }
      ],
      "name": "ECDSAInvalidSignatureLength",
      "type": "error"
    },
    {
      "inputs": [
        {
          "internalType": "bytes32",
          "name": "s",
          "type": "bytes32"
        }
      ],
      "name": "ECDSAInvalidSignatureS",
      "type": "error"
    },
    {
      "inputs": [
        {
          "internalType": "address",
          "name": "implementation",
          "type": "address"
        }
      ],
      "name": "ERC1967InvalidImplementation",
      "type": "error"
    },
    {
      "inputs": [],
      "name": "ERC1967NonPayable",
      "type": "error"
    },
    {
      "inputs": [
        {
          "internalType": "uint256",
          "name": "increasedSupply",
          "type": "uint256"
        },
        {
          "internalType": "uint256",
          "name": "cap",
          "type": "uint256"
        }
      ],
      "name": "ERC20ExceededSafeSupply",
      "type": "error"
    },
    {
      "inputs": [
        {
          "internalType": "address",
          "name": "spender",
          "type": "address"
        },
        {
          "internalType": "uint256",
          "name": "allowance",
          "type": "uint256"
        },
        {
          "internalType": "uint256",
          "name": "needed",
          "type": "uint256"
        }
      ],
      "name": "ERC20InsufficientAllowance",
      "type": "error"
    },
    {
      "inputs": [
        {
          "internalType": "address",
          "name": "sender",
          "type": "address"
        },
        {
          "internalType": "uint256",
          "name": "balance",
          "type": "uint256"
        },
        {
          "internalType": "uint256",
          "name": "needed",
          "type": "uint256"
        }
      ],
      "name": "ERC20InsufficientBalance",
      "type": "error"
    },
    {
      "inputs": [
        {
          "internalType": "address",
          "name": "approver",
          "type": "address"
        }
      ],
      "name": "ERC20InvalidApprover",
      "type": "error"
    },
    {
      "inputs": [
        {
          "internalType": "address",
          "name": "receiver",
          "type": "address"
        }
      ],
      "name": "ERC20InvalidReceiver",
      "type": "error"
    },
    {
      "inputs": [
        {
          "internalType": "address",
          "name": "sender",
          "type": "address"
        }
      ],
      "name": "ERC20InvalidSender",
      "type": "error"
    },
    {
      "inputs": [
        {
          "internalType": "address",
          "name": "spender",
          "type": "address"
        }
      ],
      "name": "ERC20InvalidSpender",
      "type": "error"
    },
    {
      "inputs": [
        {
          "internalType": "uint256",
          "name": "deadline",
          "type": "uint256"
        }
      ],
      "name": "ERC2612ExpiredSignature",
      "type": "error"
    },
    {
      "inputs": [
        {
          "internalType": "address",
          "name": "signer",
          "type": "address"
        },
        {
          "internalType": "address",
          "name": "owner",
          "type": "address"
        }
      ],
      "name": "ERC2612InvalidSigner",
      "type": "error"
    },
    {
      "inputs": [
        {
          "internalType": "uint256",
          "name": "timepoint",
          "type": "uint256"
        },
        {
          "internalType": "uint48",
          "name": "clock",
          "type": "uint48"
        }
      ],
      "name": "ERC5805FutureLookup",
      "type": "error"
    },
    {
      "inputs": [],
      "name": "ERC6372InconsistentClock",
      "type": "error"
    },
    {
      "inputs": [],
      "name": "EnforcedPause",
      "type": "error"
    },
    {
      "inputs": [],
      "name": "ExceedsMaxSupply",
      "type": "error"
    },
    {
      "inputs": [],
      "name": "ExpectedPause",
      "type": "error"
    },
    {
      "inputs": [],
      "name": "FailedCall",
      "type": "error"
    },
    {
      "inputs": [
        {
          "internalType": "address",
          "name": "account",
          "type": "address"
        },
        {
          "internalType": "uint256",
          "name": "currentNonce",
          "type": "uint256"
        }
      ],
      "name": "InvalidAccountNonce",
      "type": "error"
    },
    {
      "inputs": [],
      "name": "InvalidInitialization",
      "type": "error"
    },
    {
      "inputs": [],
      "name": "InvalidManager",
      "type": "error"
    },
    {
      "inputs": [],
      "name": "NotInitializing",
      "type": "error"
    },
    {
      "inputs": [],
      "name": "ReentrancyGuardReentrantCall",
      "type": "error"
    },
    {
      "inputs": [
        {
          "internalType": "uint8",
          "name": "bits",
          "type": "uint8"
        },
        {
          "internalType": "uint256",
          "name": "value",
          "type": "uint256"
        }
      ],
      "name": "SafeCastOverflowedUintDowncast",
      "type": "error"
    },
    {
      "inputs": [],
      "name": "TradingNotEnabled",
      "type": "error"
    },
    {
      "inputs": [],
      "name": "UUPSUnauthorizedCallContext",
      "type": "error"
    },
    {
      "inputs": [
        {
          "internalType": "bytes32",
          "name": "slot",
          "type": "bytes32"
        }
      ],
      "name": "UUPSUnsupportedProxiableUUID",
      "type": "error"
    },
    {
      "inputs": [],
      "name": "UnauthorizedManager",
      "type": "error"
    },
    {
      "inputs": [
        {
          "internalType": "uint256",
          "name": "expiry",
          "type": "uint256"
        }
      ],
      "name": "VotesExpiredSignature",
      "type": "error"
    },
    {
      "anonymous": false,
      "inputs": [
        {
          "indexed": true,
          "internalType": "address",
          "name": "owner",
          "type": "address"
        },
        {
          "indexed": true,
          "internalType": "address",
          "name": "spender",
          "type": "address"
        },
        {
          "indexed": false,
          "internalType": "uint256",
          "name": "value",
          "type": "uint256"
        }
      ],
      "name": "Approval",
      "type": "event"
    },
    {
      "anonymous": false,
      "inputs": [
        {
          "indexed": true,
          "internalType": "address",
          "name": "delegator",
          "type": "address"
        },
        {
          "indexed": true,
          "internalType": "address",
          "name": "fromDelegate",
          "type": "address"
        },
        {
          "indexed": true,
          "internalType": "address",
          "name": "toDelegate",
          "type": "address"
        }
      ],
      "name": "DelegateChanged",
      "type": "event"
    },
    {
      "anonymous": false,
      "inputs": [
        {
          "indexed": true,
          "internalType": "address",
          "name": "delegate",
          "type": "address"
        },
        {
          "indexed": false,
          "internalType": "uint256",
          "name": "previousVotes",
          "type": "uint256"
        },
        {
          "indexed": false,
          "internalType": "uint256",
          "name": "newVotes",
          "type": "uint256"
        }
      ],
      "name": "DelegateVotesChanged",
      "type": "event"
    },
    {
      "anonymous": false,
      "inputs": [],
      "name": "EIP712DomainChanged",
      "type": "event"
    },
    {
      "anonymous": false,
      "inputs": [
        {
          "indexed": true,
          "internalType": "address",
          "name": "account",
          "type": "address"
        },
        {
          "indexed": false,
          "internalType": "uint8",
          "name": "flags",
          "type": "uint8"
        }
      ],
      "name": "FlagsUpdated",
      "type": "event"
    },
    {
      "anonymous": false,
      "inputs": [
        {
          "indexed": false,
          "internalType": "uint64",
          "name": "version",
          "type": "uint64"
        }
      ],
      "name": "Initialized",
      "type": "event"
    },
    {
      "anonymous": false,
      "inputs": [
        {
          "indexed": true,
          "internalType": "string",
          "name": "managerType",
          "type": "string"
        },
        {
          "indexed": true,
          "internalType": "address",
          "name": "oldManager",
          "type": "address"
        },
        {
          "indexed": true,
          "internalType": "address",
          "name": "newManager",
          "type": "address"
        }
      ],
      "name": "ManagerUpdated",
      "type": "event"
    },
    {
      "anonymous": false,
      "inputs": [
        {
          "indexed": false,
          "internalType": "address",
          "name": "account",
          "type": "address"
        }
      ],
      "name": "Paused",
      "type": "event"
    },
    {
      "anonymous": false,
      "inputs": [
        {
          "indexed": true,
          "internalType": "bytes32",
          "name": "role",
          "type": "bytes32"
        },
        {
          "indexed": true,
          "internalType": "bytes32",
          "name": "previousAdminRole",
          "type": "bytes32"
        },
        {
          "indexed": true,
          "internalType": "bytes32",
          "name": "newAdminRole",
          "type": "bytes32"
        }
      ],
      "name": "RoleAdminChanged",
      "type": "event"
    },
    {
      "anonymous": false,
      "inputs": [
        {
          "indexed": true,
          "internalType": "bytes32",
          "name": "role",
          "type": "bytes32"
        },
        {
          "indexed": true,
          "internalType": "address",
          "name": "account",
          "type": "address"
        },
        {
          "indexed": true,
          "internalType": "address",
          "name": "sender",
          "type": "address"
        }
      ],
      "name": "RoleGranted",
      "type": "event"
    },
    {
      "anonymous": false,
      "inputs": [
        {
          "indexed": true,
          "internalType": "bytes32",
          "name": "role",
          "type": "bytes32"
        },
        {
          "indexed": true,
          "internalType": "address",
          "name": "account",
          "type": "address"
        },
        {
          "indexed": true,
          "internalType": "address",
          "name": "sender",
          "type": "address"
        }
      ],
      "name": "RoleRevoked",
      "type": "event"
    },
    {
      "anonymous": false,
      "inputs": [
        {
          "indexed": false,
          "internalType": "uint256",
          "name": "timestamp",
          "type": "uint256"
        }
      ],
      "name": "TradingEnabled",
      "type": "event"
    },
    {
      "anonymous": false,
      "inputs": [
        {
          "indexed": true,
          "internalType": "address",
          "name": "from",
          "type": "address"
        },
        {
          "indexed": true,
          "internalType": "address",
          "name": "to",
          "type": "address"
        },
        {
          "indexed": false,
          "internalType": "uint256",
          "name": "value",
          "type": "uint256"
        }
      ],
      "name": "Transfer",
      "type": "event"
    },
    {
      "anonymous": false,
      "inputs": [
        {
          "indexed": false,
          "internalType": "address",
          "name": "account",
          "type": "address"
        }
      ],
      "name": "Unpaused",
      "type": "event"
    },
    {
      "anonymous": false,
      "inputs": [
        {
          "indexed": true,
          "internalType": "address",
          "name": "implementation",
          "type": "address"
        }
      ],
      "name": "Upgraded",
      "type": "event"
    },
    {
      "inputs": [],
      "name": "BURNER_ROLE",
      "outputs": [
        {
          "internalType": "bytes32",
          "name": "",
          "type": "bytes32"
        }
      ],
      "stateMutability": "view",
      "type": "function"
    },
    {
      "inputs": [],
      "name": "CLOCK_MODE",
      "outputs": [
        {
          "internalType": "string",
          "name": "",
          "type": "string"
        }
      ],
      "stateMutability": "view",
      "type": "function"
    },
    {
      "inputs": [],
      "name": "DEFAULT_ADMIN_ROLE",
      "outputs": [
        {
          "internalType": "bytes32",
          "name": "",
          "type": "bytes32"
        }
      ],
      "stateMutability": "view",
      "type": "function"
    },
    {
      "inputs": [],
      "name": "DOMAIN_SEPARATOR",
      "outputs": [
        {
          "internalType": "bytes32",
          "name": "",
          "type": "bytes32"
        }
      ],
      "stateMutability": "view",
      "type": "function"
    },
    {
      "inputs": [],
      "name": "FEE_MANAGER_ROLE",
      "outputs": [
        {
          "internalType": "bytes32",
          "name": "",
          "type": "bytes32"
        }
      ],
      "stateMutability": "view",
      "type": "function"
    },
    {
      "inputs": [],
      "name": "INITIAL_SUPPLY",
      "outputs": [
        {
          "internalType": "uint256",
          "name": "",
          "type": "uint256"
        }
      ],
      "stateMutability": "view",
      "type": "function"
    },
    {
      "inputs": [],
      "name": "MAX_DAILY_MINT",
      "outputs": [
        {
          "internalType": "uint256",
          "name": "",
          "type": "uint256"
        }
      ],
      "stateMutability": "view",
      "type": "function"
    },
    {
      "inputs": [],
      "name": "MAX_SUPPLY",
      "outputs": [
        {
          "internalType": "uint256",
          "name": "",
          "type": "uint256"
        }
      ],
      "stateMutability": "view",
      "type": "function"
    },
    {
      "inputs": [],
      "name": "MINTER_ROLE",
      "outputs": [
        {
          "internalType": "bytes32",
          "name": "",
          "type": "bytes32"
        }
      ],
      "stateMutability": "view",
      "type": "function"
    },
    {
      "inputs": [],
      "name": "PAUSER_ROLE",
      "outputs": [
        {
          "internalType": "bytes32",
          "name": "",
          "type": "bytes32"
        }
      ],
      "stateMutability": "view",
      "type": "function"
    },
    {
      "inputs": [],
      "name": "UPGRADE_INTERFACE_VERSION",
      "outputs": [
        {
          "internalType": "string",
          "name": "",
          "type": "string"
        }
      ],
      "stateMutability": "view",
      "type": "function"
    },
    {
      "inputs": [
        {
          "internalType": "address",
          "name": "",
          "type": "address"
        }
      ],
      "name": "addressFlags",
      "outputs": [
        {
          "internalType": "uint8",
          "name": "",
          "type": "uint8"
        }
      ],
      "stateMutability": "view",
      "type": "function"
    },
    {
      "inputs": [
        {
          "internalType": "address",
          "name": "owner",
          "type": "address"
        },
        {
          "internalType": "address",
          "name": "spender",
          "type": "address"
        }
      ],
      "name": "allowance",
      "outputs": [
        {
          "internalType": "uint256",
          "name": "",
          "type": "uint256"
        }
      ],
      "stateMutability": "view",
      "type": "function"
    },
    {
      "inputs": [
        {
          "internalType": "address",
          "name": "spender",
          "type": "address"
        },
        {
          "internalType": "uint256",
          "name": "value",
          "type": "uint256"
        }
      ],
      "name": "approve",
      "outputs": [
        {
          "internalType": "bool",
          "name": "",
          "type": "bool"
        }
      ],
      "stateMutability": "nonpayable",
      "type": "function"
    },
    {
      "inputs": [
        {
          "internalType": "address",
          "name": "account",
          "type": "address"
        }
      ],
      "name": "balanceOf",
      "outputs": [
        {
          "internalType": "uint256",
          "name": "",
          "type": "uint256"
        }
      ],
      "stateMutability": "view",
      "type": "function"
    },
    {
      "inputs": [
        {
          "internalType": "uint256",
          "name": "value",
          "type": "uint256"
        }
      ],
      "name": "burn",
      "outputs": [],
      "stateMutability": "nonpayable",
      "type": "function"
    },
    {
      "inputs": [
        {
          "internalType": "address",
          "name": "from",
          "type": "address"
        },
        {
          "internalType": "uint256",
          "name": "amount",
          "type": "uint256"
        }
      ],
      "name": "burnFrom",
      "outputs": [],
      "stateMutability": "nonpayable",
      "type": "function"
    },
    {
      "inputs": [
        {
          "internalType": "address",
          "name": "account",
          "type": "address"
        },
        {
          "internalType": "uint32",
          "name": "pos",
          "type": "uint32"
        }
      ],
      "name": "checkpoints",
      "outputs": [
        {
          "components": [
            {
              "internalType": "uint48",
              "name": "_key",
              "type": "uint48"
            },
            {
              "internalType": "uint208",
              "name": "_value",
              "type": "uint208"
            }
          ],
          "internalType": "struct Checkpoints.Checkpoint208",
          "name": "",
          "type": "tuple"
        }
      ],
      "stateMutability": "view",
      "type": "function"
    },
    {
      "inputs": [],
      "name": "clock",
      "outputs": [
        {
          "internalType": "uint48",
          "name": "",
          "type": "uint48"
        }
      ],
      "stateMutability": "view",
      "type": "function"
    },
    {
      "inputs": [
        {
          "internalType": "uint256",
          "name": "",
          "type": "uint256"
        }
      ],
      "name": "dailyMintAmount",
      "outputs": [
        {
          "internalType": "uint256",
          "name": "",
          "type": "uint256"
        }
      ],
      "stateMutability": "view",
      "type": "function"
    },
    {
      "inputs": [],
      "name": "decimals",
      "outputs": [
        {
          "internalType": "uint8",
          "name": "",
          "type": "uint8"
        }
      ],
      "stateMutability": "view",
      "type": "function"
    },
    {
      "inputs": [
        {
          "internalType": "address",
          "name": "delegatee",
          "type": "address"
        }
      ],
      "name": "delegate",
      "outputs": [],
      "stateMutability": "nonpayable",
      "type": "function"
    },
    {
      "inputs": [
        {
          "internalType": "address",
          "name": "delegatee",
          "type": "address"
        },
        {
          "internalType": "uint256",
          "name": "nonce",
          "type": "uint256"
        },
        {
          "internalType": "uint256",
          "name": "expiry",
          "type": "uint256"
        },
        {
          "internalType": "uint8",
          "name": "v",
          "type": "uint8"
        },
        {
          "internalType": "bytes32",
          "name": "r",
          "type": "bytes32"
        },
        {
          "internalType": "bytes32",
          "name": "s",
          "type": "bytes32"
        }
      ],
      "name": "delegateBySig",
      "outputs": [],
      "stateMutability": "nonpayable",
      "type": "function"
    },
    {
      "inputs": [
        {
          "internalType": "address",
          "name": "account",
          "type": "address"
        }
      ],
      "name": "delegates",
      "outputs": [
        {
          "internalType": "address",
          "name": "",
          "type": "address"
        }
      ],
      "stateMutability": "view",
      "type": "function"
    },
    {
      "inputs": [],
      "name": "eip712Domain",
      "outputs": [
        {
          "internalType": "bytes1",
          "name": "fields",
          "type": "bytes1"
        },
        {
          "internalType": "string",
          "name": "name",
          "type": "string"
        },
        {
          "internalType": "string",
          "name": "version",
          "type": "string"
        },
        {
          "internalType": "uint256",
          "name": "chainId",
          "type": "uint256"
        },
        {
          "internalType": "address",
          "name": "verifyingContract",
          "type": "address"
        },
        {
          "internalType": "bytes32",
          "name": "salt",
          "type": "bytes32"
        },
        {
          "internalType": "uint256[]",
          "name": "extensions",
          "type": "uint256[]"
        }
      ],
      "stateMutability": "view",
      "type": "function"
    },
    {
      "inputs": [],
      "name": "feeManager",
      "outputs": [
        {
          "internalType": "address",
          "name": "",
          "type": "address"
        }
      ],
      "stateMutability": "view",
      "type": "function"
    },
    {
      "inputs": [],
      "name": "getCurrentDay",
      "outputs": [
        {
          "internalType": "uint256",
          "name": "",
          "type": "uint256"
        }
      ],
      "stateMutability": "view",
      "type": "function"
    },
    {
      "inputs": [
        {
          "internalType": "uint256",
          "name": "day",
          "type": "uint256"
        }
      ],
      "name": "getDailyMintAmount",
      "outputs": [
        {
          "internalType": "uint256",
          "name": "",
          "type": "uint256"
        }
      ],
      "stateMutability": "view",
      "type": "function"
    },
    {
      "inputs": [],
      "name": "getManagers",
      "outputs": [
        {
          "internalType": "address",
          "name": "feeManagerAddr",
          "type": "address"
        },
        {
          "internalType": "address",
          "name": "utilityManagerAddr",
          "type": "address"
        }
      ],
      "stateMutability": "view",
      "type": "function"
    },
    {
      "inputs": [
        {
          "internalType": "uint256",
          "name": "timepoint",
          "type": "uint256"
        }
      ],
      "name": "getPastTotalSupply",
      "outputs": [
        {
          "internalType": "uint256",
          "name": "",
          "type": "uint256"
        }
      ],
      "stateMutability": "view",
      "type": "function"
    },
    {
      "inputs": [
        {
          "internalType": "address",
          "name": "account",
          "type": "address"
        },
        {
          "internalType": "uint256",
          "name": "timepoint",
          "type": "uint256"
        }
      ],
      "name": "getPastVotes",
      "outputs": [
        {
          "internalType": "uint256",
          "name": "",
          "type": "uint256"
        }
      ],
      "stateMutability": "view",
      "type": "function"
    },
    {
      "inputs": [
        {
          "internalType": "bytes32",
          "name": "role",
          "type": "bytes32"
        }
      ],
      "name": "getRoleAdmin",
      "outputs": [
        {
          "internalType": "bytes32",
          "name": "",
          "type": "bytes32"
        }
      ],
      "stateMutability": "view",
      "type": "function"
    },
    {
      "inputs": [
        {
          "internalType": "address",
          "name": "account",
          "type": "address"
        }
      ],
      "name": "getVotes",
      "outputs": [
        {
          "internalType": "uint256",
          "name": "",
          "type": "uint256"
        }
      ],
      "stateMutability": "view",
      "type": "function"
    },
    {
      "inputs": [
        {
          "internalType": "bytes32",
          "name": "role",
          "type": "bytes32"
        },
        {
          "internalType": "address",
          "name": "account",
          "type": "address"
        }
      ],
      "name": "grantRole",
      "outputs": [],
      "stateMutability": "nonpayable",
      "type": "function"
    },
    {
      "inputs": [
        {
          "internalType": "bytes32",
          "name": "role",
          "type": "bytes32"
        },
        {
          "internalType": "address",
          "name": "account",
          "type": "address"
        }
      ],
      "name": "hasRole",
      "outputs": [
        {
          "internalType": "bool",
          "name": "",
          "type": "bool"
        }
      ],
      "stateMutability": "view",
      "type": "function"
    },
    {
      "inputs": [],
      "name": "initialize",
      "outputs": [],
      "stateMutability": "nonpayable",
      "type": "function"
    },
    {
      "inputs": [
        {
          "internalType": "address",
          "name": "account",
          "type": "address"
        }
      ],
      "name": "isBlacklisted",
      "outputs": [
        {
          "internalType": "bool",
          "name": "",
          "type": "bool"
        }
      ],
      "stateMutability": "view",
      "type": "function"
    },
    {
      "inputs": [
        {
          "internalType": "address",
          "name": "account",
          "type": "address"
        }
      ],
      "name": "isExcludedFromFees",
      "outputs": [
        {
          "internalType": "bool",
          "name": "",
          "type": "bool"
        }
      ],
      "stateMutability": "view",
      "type": "function"
    },
    {
      "inputs": [
        {
          "internalType": "address",
          "name": "account",
          "type": "address"
        }
      ],
      "name": "isExcludedFromLimits",
      "outputs": [
        {
          "internalType": "bool",
          "name": "",
          "type": "bool"
        }
      ],
      "stateMutability": "view",
      "type": "function"
    },
    {
      "inputs": [],
      "name": "launchTime",
      "outputs": [
        {
          "internalType": "uint256",
          "name": "",
          "type": "uint256"
        }
      ],
      "stateMutability": "view",
      "type": "function"
    },
    {
      "inputs": [
        {
          "internalType": "address",
          "name": "to",
          "type": "address"
        },
        {
          "internalType": "uint256",
          "name": "amount",
          "type": "uint256"
        }
      ],
      "name": "mint",
      "outputs": [],
      "stateMutability": "nonpayable",
      "type": "function"
    },
    {
      "inputs": [],
      "name": "name",
      "outputs": [
        {
          "internalType": "string",
          "name": "",
          "type": "string"
        }
      ],
      "stateMutability": "view",
      "type": "function"
    },
    {
      "inputs": [
        {
          "internalType": "address",
          "name": "owner",
          "type": "address"
        }
      ],
      "name": "nonces",
      "outputs": [
        {
          "internalType": "uint256",
          "name": "",
          "type": "uint256"
        }
      ],
      "stateMutability": "view",
      "type": "function"
    },
    {
      "inputs": [
        {
          "internalType": "address",
          "name": "account",
          "type": "address"
        }
      ],
      "name": "numCheckpoints",
      "outputs": [
        {
          "internalType": "uint32",
          "name": "",
          "type": "uint32"
        }
      ],
      "stateMutability": "view",
      "type": "function"
    },
    {
      "inputs": [],
      "name": "pause",
      "outputs": [],
      "stateMutability": "nonpayable",
      "type": "function"
    },
    {
      "inputs": [],
      "name": "paused",
      "outputs": [
        {
          "internalType": "bool",
          "name": "",
          "type": "bool"
        }
      ],
      "stateMutability": "view",
      "type": "function"
    },
    {
      "inputs": [
        {
          "internalType": "address",
          "name": "owner",
          "type": "address"
        },
        {
          "internalType": "address",
          "name": "spender",
          "type": "address"
        },
        {
          "internalType": "uint256",
          "name": "value",
          "type": "uint256"
        },
        {
          "internalType": "uint256",
          "name": "deadline",
          "type": "uint256"
        },
        {
          "internalType": "uint8",
          "name": "v",
          "type": "uint8"
        },
        {
          "internalType": "bytes32",
          "name": "r",
          "type": "bytes32"
        },
        {
          "internalType": "bytes32",
          "name": "s",
          "type": "bytes32"
        }
      ],
      "name": "permit",
      "outputs": [],
      "stateMutability": "nonpayable",
      "type": "function"
    },
    {
      "inputs": [],
      "name": "proxiableUUID",
      "outputs": [
        {
          "internalType": "bytes32",
          "name": "",
          "type": "bytes32"
        }
      ],
      "stateMutability": "view",
      "type": "function"
    },
    {
      "inputs": [
        {
          "internalType": "bytes32",
          "name": "role",
          "type": "bytes32"
        },
        {
          "internalType": "address",
          "name": "callerConfirmation",
          "type": "address"
        }
      ],
      "name": "renounceRole",
      "outputs": [],
      "stateMutability": "nonpayable",
      "type": "function"
    },
    {
      "inputs": [
        {
          "internalType": "bytes32",
          "name": "role",
          "type": "bytes32"
        },
        {
          "internalType": "address",
          "name": "account",
          "type": "address"
        }
      ],
      "name": "revokeRole",
      "outputs": [],
      "stateMutability": "nonpayable",
      "type": "function"
    },
    {
      "inputs": [
        {
          "internalType": "address",
          "name": "account",
          "type": "address"
        },
        {
          "internalType": "uint8",
          "name": "flags",
          "type": "uint8"
        }
      ],
      "name": "setAddressFlags",
      "outputs": [],
      "stateMutability": "nonpayable",
      "type": "function"
    },
    {
      "inputs": [
        {
          "internalType": "string",
          "name": "managerType",
          "type": "string"
        },
        {
          "internalType": "address",
          "name": "manager",
          "type": "address"
        }
      ],
      "name": "setManager",
      "outputs": [],
      "stateMutability": "nonpayable",
      "type": "function"
    },
    {
      "inputs": [
        {
          "internalType": "bool",
          "name": "enabled",
          "type": "bool"
        }
      ],
      "name": "setTradingEnabled",
      "outputs": [],
      "stateMutability": "nonpayable",
      "type": "function"
    },
    {
      "inputs": [
        {
          "internalType": "bytes4",
          "name": "interfaceId",
          "type": "bytes4"
        }
      ],
      "name": "supportsInterface",
      "outputs": [
        {
          "internalType": "bool",
          "name": "",
          "type": "bool"
        }
      ],
      "stateMutability": "view",
      "type": "function"
    },
    {
      "inputs": [],
      "name": "symbol",
      "outputs": [
        {
          "internalType": "string",
          "name": "",
          "type": "string"
        }
      ],
      "stateMutability": "view",
      "type": "function"
    },
    {
      "inputs": [],
      "name": "totalSupply",
      "outputs": [
        {
          "internalType": "uint256",
          "name": "",
          "type": "uint256"
        }
      ],
      "stateMutability": "view",
      "type": "function"
    },
    {
      "inputs": [],
      "name": "tradingEnabled",
      "outputs": [
        {
          "internalType": "bool",
          "name": "",
          "type": "bool"
        }
      ],
      "stateMutability": "view",
      "type": "function"
    },
    {
      "inputs": [
        {
          "internalType": "address",
          "name": "to",
          "type": "address"
        },
        {
          "internalType": "uint256",
          "name": "value",
          "type": "uint256"
        }
      ],
      "name": "transfer",
      "outputs": [
        {
          "internalType": "bool",
          "name": "",
          "type": "bool"
        }
      ],
      "stateMutability": "nonpayable",
      "type": "function"
    },
    {
      "inputs": [
        {
          "internalType": "address",
          "name": "from",
          "type": "address"
        },
        {
          "internalType": "address",
          "name": "to",
          "type": "address"
        },
        {
          "internalType": "uint256",
          "name": "value",
          "type": "uint256"
        }
      ],
      "name": "transferFrom",
      "outputs": [
        {
          "internalType": "bool",
          "name": "",
          "type": "bool"
        }
      ],
      "stateMutability": "nonpayable",
      "type": "function"
    },
    {
      "inputs": [],
      "name": "unpause",
      "outputs": [],
      "stateMutability": "nonpayable",
      "type": "function"
    },
    {
      "inputs": [
        {
          "internalType": "address",
          "name": "newImplementation",
          "type": "address"
        },
        {
          "internalType": "bytes",
          "name": "data",
          "type": "bytes"
        }
      ],
      "name": "upgradeToAndCall",
      "outputs": [],
      "stateMutability": "payable",
      "type": "function"
    },
    {
      "inputs": [],
      "name": "utilityManager",
      "outputs": [
        {
          "internalType": "address",
          "name": "",
          "type": "address"
        }
      ],
      "stateMutability": "view",
      "type": "function"
    }
  ],
  "bytecode": "0x60a0806040523461002a573060805261476e90816100308239608051818181610df60152610f6c0152f35b600080fdfe6080604052600436101561001257600080fd5b60003560e01c806301ffc9a7146103f257806305db2f41146103ed57806306fdde03146103e8578063095ea7b3146103e357806318160ddd146103de57806323b872dd146103d9578063248a9ca3146103d4578063282c51f3146103cf5780632f2ff15d146103ca5780632ff2e9dc146103c5578063313ce567146103c0578063320711a5146103bb57806332cb6b0c146103b65780633644e515146103b157806336568abe146103ac5780633a46b1a8146103a75780633e6968b6146103a25780633f4ba83a1461039d57806340c10f191461039857806342966c68146103935780634ada218b1461038e5780634bf5d7e9146103895780634f1ef286146103845780634fbee1931461037f57806352d1902d1461037a578063587cde1e146103755780635923f705146103705780635c19a95c1461036b5780635c975abb146103665780635cce86cd146103615780636fcfff451461035c578063709ce10a1461032057806370a0823114610357578063790ca4131461035257806379cc67901461034d5780637ecebe00146103485780638129fc1c146103435780638456cb591461033e57806384b0196e146103395780638e539e8c1461033457806391d148541461032f57806391ddadf41461032a57806395d89b4114610325578063963f7d0f146103205780639ab24eb01461031b578063a217fddf14610316578063a8d088bb14610311578063a9059cbb1461030c578063ad3cb1cc14610307578063c2e5ec0414610302578063c3cda520146102fd578063c82e29ef146102f8578063cb4c1005146102f3578063d0d58748146102ee578063d0fb0203146102e9578063d505accf146102e4578063d5391393146102df578063d547741f146102da578063dd62ed3e146102d5578063e63ab1e9146102d0578063f1127ed8146102cb5763fe575a87146102c657600080fd5b611f54565b611ec1565b611e86565b611e4e565b611e02565b611dc7565b611c74565b611c4b565b611add565b611aa0565b6119cc565b611903565b61189d565b611857565b611831565b6117fd565b6117e1565b6117aa565b611106565b6116f6565b6116ca565b61166b565b61158e565b6114bd565b6113ce565b6112ab565b611252565b6111a8565b61118a565b611132565b6110b1565b611072565b611042565b611020565b610ffa565b610fb2565b610f59565b610f11565b610da6565b610c41565b610c1e565b610c01565b610b2e565b610ab7565b610a97565b6109be565b610977565b610954565b61092d565b6107ca565b61077e565b610758565b61070a565b6106cf565b610693565b61065b565b610630565b6105ff565b6104dc565b61044d565b346104485760203660031901126104485760043563ffffffff60e01b811680910361044857602090637965db0b60e01b8114908115610437575b506040519015158152f35b6301ffc9a760e01b1490503861042c565b600080fd5b346104485760003660031901126104485760206040517f6c0757dc3e6b28b2580c03fd9e96c274acf4f99d91fbec9b418fa1d70604ff1c8152f35b919082519283825260005b8481106104b4575050826000602080949584010152601f8019910116010190565b602081830181015184830182015201610493565b9060206104d9928181520190610488565b90565b34610448576000806003193601126105d05760405190806000805160206145c2833981519152805461050d81611f92565b808652926020926001928084169081156105a1575060011461054a575b6105468761053a81890382610d24565b604051918291826104c8565b0390f35b815293507f2ae08a8e29253f69ac5d979a101956ab8f8d9d7ded63fa7a83b16fc47648eab05b83851061058e5750505050810160200161053a82610546388061052a565b8054868601840152938201938101610570565b9150508695506105469693506020925061053a94915060ff191682840152151560051b8201019293388061052a565b80fd5b600435906001600160a01b038216820361044857565b602435906001600160a01b038216820361044857565b346104485760403660031901126104485761062561061b6105d3565b602435903361323f565b602060405160018152f35b3461044857600036600319011261044857602060008051602061462283398151915254604051908152f35b34610448576060366003190112610448576106256106776105d3565b61067f6105e9565b6044359161068e833383612436565b6124ef565b34610448576020366003190112610448576004356000526000805160206146c28339815191526020526020600160406000200154604051908152f35b346104485760003660031901126104485760206040517f3c11d16cbaffd01df69ce1c404f6340ee057498f5f00246190ea54220576a8488152f35b34610448576040366003190112610448576107566004356107296105e9565b90806000526000805160206146c28339815191526020526107516001604060002001546127ea565b612afa565b005b346104485760003660031901126104485760206040516a52b7d2dcc80cd2e40000008152f35b3461044857600036600319011261044857602060405160128152f35b6024359060ff8216820361044857565b6064359060ff8216820361044857565b6084359060ff8216820361044857565b34610448576040366003190112610448576107e36105d3565b6107eb61079a565b600080526000805160206146c28339815191526020529061085061084c610845337fb7db2dd08fcb62d0c9e08c51941cae53c267786a0b75803fb7960902fc8ef97d5b9060018060a01b0316600052602052604060002090565b5460ff1690565b1590565b8061090f575b806108e9575b6108d7576108d2816108b4846108a57f5fe92cf4e1466072d24e4b74a9ecde5ac9f401f5131624149d683c4d77e525829560018060a01b03166000526003602052604060002090565b9060ff1660ff19825416179055565b60405160ff90941684526001600160a01b0316929081906020820190565b0390a2005b60405163d22434fd60e01b8152600490fd5b50600154610907906001600160a01b03165b6001600160a01b031690565b33141561085c565b50600054610925906001600160a01b03166108fb565b331415610856565b346104485760003660031901126104485760206040516b033b2e3c9fd0803ce80000008152f35b3461044857600036600319011261044857602061096f613297565b604051908152f35b34610448576040366003190112610448576109906105e9565b336001600160a01b038216036109ac5761075690600435612b34565b60405163334bd91960e11b8152600490fd5b34610448576040366003190112610448576109df6109da6105d3565b6119f5565b6109ea602435612bcc565b8154906000829160058411610a41575b610a059350846134df565b9081610a24575050602060005b6040516001600160d01b039091168152f35b610a2f602092612c0d565b9060005281600020015460301c610a12565b9192610a4c8161333e565b8103908111610a9257610a05938560005265ffffffffffff8083602060002001541690851610600014610a805750916109fa565b929150610a8c90612187565b906109fa565b612151565b346104485760003660031901126104485760206040516201518042048152f35b3461044857600036600319011261044857610ad06126be565b6000805160206146e2833981519152805460ff811615610b1c5760ff191690557f5db9ee0a495bf2e6ff9c91a7834c1ba4fdd244a5e8aa4e537bd38aeae4b073aa6020604051338152a1005b604051638dfc202b60e01b8152600490fd5b3461044857604036600319011261044857610b476105d3565b602435610b5261273a565b60008051602061462283398151915254818101809111610a92576b033b2e3c9fd0803ce800000010610bef57620151804204916a084595161401484a000000610baf83610ba9866000526002602052604060002090565b54612195565b11610bdd57610bcb610756936000526002602052604060002090565b610bd6838254612195565b9055612cdf565b6040516304888a9d60e41b8152600490fd5b60405163c30436e960e01b8152600490fd5b346104485760203660031901126104485761075660043533612d84565b3461044857600036600319011261044857602060ff600454166040519015158152f35b3461044857600036600319011261044857610c5b4361330c565b65ffffffffffff80610c6c4361330c565b16911603610cc157610546604051610c8381610ce9565b601d81527f6d6f64653d626c6f636b6e756d6265722666726f6d3d64656661756c740000006020820152604051918291602083526020830190610488565b6040516301bfc1c560e61b8152600490fd5b634e487b7160e01b600052604160045260246000fd5b604081019081106001600160401b03821117610d0457604052565b610cd3565b60a081019081106001600160401b03821117610d0457604052565b90601f801991011681019081106001600160401b03821117610d0457604052565b60405190610d5282610ce9565b565b6001600160401b038111610d0457601f01601f191660200190565b929192610d7b82610d54565b91610d896040519384610d24565b829481845281830111610448578281602093846000960137010152565b604036600319011261044857610dba6105d3565b6024356001600160401b038111610448573660238201121561044857610dea903690602481600401359101610d6f565b6001600160a01b0391907f00000000000000000000000000000000000000000000000000000000000000008316308114908115610ef5575b50610ee3576020600493610e34612792565b6040516352d1902d60e01b8152948591829086165afa60009381610eb2575b50610e7957604051634c9c8ce360e01b81526001600160a01b0383166004820152602490fd5b906000805160206146628339815191528303610e99576107569250613540565b604051632a87526960e21b815260048101849052602490fd5b610ed591945060203d602011610edc575b610ecd8183610d24565b810190612e8b565b9238610e53565b503d610ec3565b60405163703e46dd60e11b8152600490fd5b9050836000805160206146628339815191525416141538610e22565b34610448576020366003190112610448576020610f4f610f2f6105d3565b6001600160a01b0316600090815260036020526040902054600116151590565b6040519015158152f35b34610448576000366003190112610448577f00000000000000000000000000000000000000000000000000000000000000006001600160a01b03163003610ee35760206040516000805160206146628339815191528152f35b346104485760203660031901126104485760206001600160a01b0380610fd66105d3565b166000526000805160206145a2833981519152825260406000205416604051908152f35b346104485760003660031901126104485760206040516a084595161401484a0000008152f35b346104485760203660031901126104485761075661103c6105d3565b33612e9a565b3461044857600036600319011261044857602060ff6000805160206146e283398151915254166040519015158152f35b34610448576020366003190112610448576001600160a01b036110936105d3565b16600052600360205260206002604060002054161515604051908152f35b34610448576020366003190112610448576110cd6109da6105d3565b5463ffffffff908181116110e75760209160405191168152f35b604490604051906306dfcc6560e41b8252602060048301526024820152fd5b346104485760203660031901126104485760043560005260026020526020604060002054604051908152f35b3461044857602036600319011261044857602061096f6111506105d3565b6001600160a01b031660009081527f52c63247e1f47db19d5ce0460030c497f067ca4cebf71ba98eeadabe20bace00602052604090205490565b34610448576000366003190112610448576020600554604051908152f35b34610448576040366003190112610448576111c16105d3565b3360009081527ffcf1b2032b1187d9f2a29150c4a608b3b6f0bdf8dd007801f86a276af50cad9260205260409020547f3c11d16cbaffd01df69ce1c404f6340ee057498f5f00246190ea54220576a848916024359160ff161561123357610756925061122e823383612436565b612d84565b60405163e2517d3f60e01b815233600482015260248101849052604490fd5b34610448576020366003190112610448576001600160a01b036112736105d3565b166000527f5ab42ced628888259c08ac98db1eb0cf702fc1501344311d8b100cd1bfe4bb006020526020604060002054604051908152f35b3461044857600036600319011261044857600080516020614702833981519152546001600160401b0360ff8260401c16159116801590816113c6575b60011490816113bc575b1590816113b3575b506113a157600080516020614702833981519152805467ffffffffffffffff191660011790558061137c575b61132d6121c9565b61133357005b600080516020614702833981519152805460ff60401b19169055604051600181527fc7f505b2f371ae2175ee4913f4499e1f2633a7b5936321eed1cdaeb6115181d290602090a1005b600080516020614702833981519152805460ff60401b1916600160401b179055611325565b60405163f92ee8a960e01b8152600490fd5b905015386112f9565b303b1591506112f1565b8291506112e7565b34610448576000366003190112610448576113e76126be565b6113ef613b04565b6000805160206146e2833981519152600160ff198254161790557f62e78cea01bee320cd4e420270b5ea74000d11b0c9f74754ebdbfc544b05a2586020604051338152a1005b9161146990949194600f60f81b845261145b60209660e0602087015260e0860190610488565b908482036040860152610488565b92606083015260018060a01b03166080820152600060a082015260c08183039101526020808451928381520193019160005b8281106114a9575050505090565b83518552938101939281019260010161149b565b34610448576000366003190112610448577fa16a46d94261c7517cc8ff89f61c0ce93598e3c849801011dee649a6a557d100541580611565575b1561152857611504611fcc565b61150c6120a2565b906105466115186123e0565b6040519384933091469186611435565b60405162461bcd60e51b81526020600482015260156024820152741152540dcc4c8e88155b9a5b9a5d1a585b1a5e9959605a1b6044820152606490fd5b507fa16a46d94261c7517cc8ff89f61c0ce93598e3c849801011dee649a6a557d10154156114f7565b34610448576020366003190112610448576115aa600435612bcc565b600080516020614682833981519152908154906000829160058411611610575b6115d49350613469565b90816115e857505060405160008152602090f35b6115f3602092612c0d565b90600052600080516020614722833981519152015460301c610a12565b919261161b8161333e565b8103908111610a92576115d4938560005265ffffffffffff8083600080516020614722833981519152015416908516106000146116595750916115ca565b92915061166590612187565b906115ca565b3461044857604036600319011261044857602060ff6116be61168b6105e9565b6004356000526000805160206146c2833981519152845260406000209060018060a01b0316600052602052604060002090565b54166040519015158152f35b346104485760003660031901126104485760206116e64361330c565b65ffffffffffff60405191168152f35b34610448576000806003193601126105d0576040519080600080516020614602833981519152805461172781611f92565b808652926020926001928084169081156105a15750600114611753576105468761053a81890382610d24565b815293507f46a2803e59a4de4e7a4c574b1243f25977ac4c77d5a1a4a609b5394cebb4a2aa5b8385106117975750505050810160200161053a82610546388061052a565b8054868601840152938201938101611779565b346104485760203660031901126104485760206001600160d01b036117d86117d36109da6105d3565b613160565b16604051908152f35b3461044857600036600319011261044857602060405160008152f35b3461044857600036600319011261044857600054600154604080516001600160a01b03938416815292909116602083015290f35b346104485760403660031901126104485761062561184d6105d3565b60243590336124ef565b346104485760003660031901126104485761054660405161187781610ce9565b60058152640352e302e360dc1b6020820152604051918291602083526020830190610488565b3461044857602036600319011261044857600435801515808203610448576118c3612792565b60ff8019600454169116176004556118d757005b7fb3da2db3dfc3778f99852546c6e9ab39ec253f9de7b0847afec61bd27878e9236020604051428152a1005b346104485760c03660031901126104485761191c6105d3565b6044359060243561192b6107aa565b8342116119b3576119a7610756946119ae926040519060208201927fe48329057bfd03d55e49b547132e39cffd9c1820ad7b9d4c5307691425d15adf845260018060a01b038816604084015286606084015260808301526080825261198f82610d09565b6119a260a435936084359351902061318c565b6131b2565b91826131ca565b612e9a565b604051632341d78760e11b815260048101859052602490fd5b34610448576000366003190112610448576001546040516001600160a01b039091168152602090f35b6001600160a01b031660009081527fe8b26c30fad74198956032a3533d903385d56dd795af560196f9c78d4af40d016020526040902090565b6001600160a01b031660009081527f52c63247e1f47db19d5ce0460030c497f067ca4cebf71ba98eeadabe20bace016020526040902090565b6001600160a01b031660009081527f52c63247e1f47db19d5ce0460030c497f067ca4cebf71ba98eeadabe20bace006020526040902090565b34610448576020366003190112610448576001600160a01b03611ac16105d3565b166000526003602052602060ff60406000205416604051908152f35b34610448576040366003190112610448576004356001600160401b038082116104485736602383011215610448578160040135908111610448576024820191602482369201011161044857611b306105e9565b90611b39612792565b611b44368285610d6f565b602081519101207f833b9f6abf0b529613680afe2a00fa663cc95cbdc47d726d85a044462eabbf028114600014611be95750600054611bb291906001600160a01b0316600080546001600160a01b0319166001600160a01b03861617905593611bac84612a89565b50612408565b6001600160a01b0391821692909116907f70e25fa8b9cfbb09beb890e85484efba2129684536d96beb8cee6e2d61172e26600080a4005b7f20df53475fd7b7020074adf58069aab4290d483e50796a3eb7a312b08e0a21c003611c3957600180546001600160a01b038481166001600160a01b03198316179092551692611bb29190612408565b604051631a7387bd60e11b8152600490fd5b34610448576000366003190112610448576000546040516001600160a01b039091168152602090f35b346104485760e036600319011261044857611c8d6105d3565b611c956105e9565b60443590606435611ca46107ba565b814211611dae576001600160a01b0385811660008181527f5ab42ced628888259c08ac98db1eb0cf702fc1501344311d8b100cd1bfe4bb00602090815260409182902080546001810190915582517f6e71edae12b1b97f4d1f60370fef10105fa2faae0126114a169c64845d6126c99281019283529283019390935292861660608201526080810187905260a081019190915260c080820194909452928352611d67929091611d5460e083610d24565b6119a260c4359360a4359351902061318c565b6001600160a01b0384811690821603611d8457506107569261323f565b6040516325c0072360e11b81526001600160a01b0391821660048201529084166024820152604490fd5b60405163313c898160e11b815260048101839052602490fd5b346104485760003660031901126104485760206040517f9f2df0fed2c77648de5860a4cc508cd0818c85b8b8a1ab4ceeef8d981c8956a68152f35b3461044857604036600319011261044857610756600435611e216105e9565b90806000526000805160206146c2833981519152602052611e496001604060002001546127ea565b612b34565b34610448576040366003190112610448576020611e7d611e6c6105d3565b61082e611e776105e9565b91611a2e565b54604051908152f35b346104485760003660031901126104485760206040517f65d7a28e3265b37a6474929f336521b332c1681b933f6cb9f3376673440d862a8152f35b3461044857604036600319011261044857611eda6105d3565b6024359063ffffffff8216820361044857604091611f0c611f1a92611efd61241d565b50611f0661241d565b506119f5565b611f1461241d565b50613c6c565b50815190611f2782610ce9565b54602065ffffffffffff821692838152019060301c8152825191825260018060d01b039051166020820152f35b34610448576020366003190112610448576020610f4f611f726105d3565b6001600160a01b0316600090815260036020526040902054600416151590565b90600182811c92168015611fc2575b6020831014611fac57565b634e487b7160e01b600052602260045260246000fd5b91607f1691611fa1565b604051906000826000805160206145e283398151915291825492611fef84611f92565b8084529360209160019182811690811561207c575060011461201b575b505050610d5292500383610d24565b60009081527f42ad5d3e1f2e6e70edcf6d991b8a3023d3fca8047a131592f9edb9fd9b89d57d9590935091905b8284106120645750610d5294505050810160200138808061200c565b85548885018301529485019487945092810192612048565b9250505060209250610d5294915060ff191682840152151560051b82010138808061200c565b60405190600082600080516020614642833981519152918254926120c584611f92565b8084529360209160019182811690811561207c57506001146120f057505050610d5292500383610d24565b60009081527f5f9ce34815f8e11431c7bb75a8e6886a91478f7ffc1dbb0a98dc240fddd76b759590935091905b8284106121395750610d5294505050810160200138808061200c565b8554888501830152948501948794509281019261211d565b634e487b7160e01b600052601160045260246000fd5b8115612171570490565b634e487b7160e01b600052601260045260246000fd5b9060018201809211610a9257565b91908201809211610a9257565b604051906121af82610ce9565b600b82526a2337b933b2902a37b5b2b760a91b6020830152565b6121d16121a2565b906040516121de81610ce9565b60058152602064464f52474560d81b60208301526121fa6136f7565b6122026136f7565b83516001600160401b038111610d04576000805160206145c283398151915291612235826122308554611f92565b613726565b602090601f83116001146123425750908061226c926122739697600092612337575b50508160011b916000199060031b1c19161790565b9055613922565b61227b6136f7565b6122836136f7565b61229361228e6121a2565b612f49565b61229b6136f7565b6122a36136f7565b6122ab6130d5565b6122b433612818565b506122be336128cd565b506122c8336129a7565b506122d233612a18565b506122dc33612a89565b503360009081526003602052604090206122fe905b805460ff19166003179055565b306000908152600360205260409020612316906122f1565b61231f33612c1c565b61232842600555565b610d5260ff1960045416600455565b015190503880612257565b90601f198316966123826000805160206145c28339815191526000527f2ae08a8e29253f69ac5d979a101956ab8f8d9d7ded63fa7a83b16fc47648eab090565b926000905b8982106123c8575050908392916001946122739899106123af575b505050811b019055613922565b015160001960f88460031b161c191690553880806123a2565b80600185968294968601518155019501930190612387565b604051602081018181106001600160401b03821117610d045760405260008152906000368137565b81604051928392833781016000815203902090565b6040519061242a82610ce9565b60006020838281520152565b91906124458161082e85611a2e565b546000198110612456575b50505050565b8281106124bf576001600160a01b03848116156124a65782161561248d576124839261082e910393611a2e565b5538808080612450565b604051634a1406b160e11b815260006004820152602490fd5b60405163e602df0560e01b815260006004820152602490fd5b604051637dc7a0d960e11b81526001600160a01b0392909216600483015260248201526044810191909152606490fd5b6001600160a01b039190828116156126a5578282161561268c576001600160a01b03811660009081526003602052604090205460041615158015612668575b6126565761254161084c60045460ff1690565b80612633575b80612610575b6125fe57600054610d529493849161256d906001600160a01b03166108fb565b8061257b575b505050613c9a565b60405163400dbdf760e11b81526001600160a01b038581166004830152861660248201526044810184905293955091929160209183916064918391600091165af1600091816125dd575b506125d55750915b388080612573565b9050916125cd565b6125f791925060203d602011610edc57610ecd8183610d24565b90386125c5565b6040516312f1f92360e01b8152600490fd5b506001600160a01b0382166000908152600360205260409020546001161561254d565b506001600160a01b03811660009081526003602052604090205460011615612547565b604051637d28af3f60e01b8152600490fd5b506001600160a01b038216600090815260036020526040902054600416151561252e565b60405163ec442f0560e01b815260006004820152602490fd5b604051634b637e8f60e11b815260006004820152602490fd5b3360009081527f75442b0a96088b5456bc4ed01394c96a4feec0f883c9494257d76b96ab1c9b6b602052604090207f65d7a28e3265b37a6474929f336521b332c1681b933f6cb9f3376673440d862a9060ff905b54161561271c5750565b6044906040519063e2517d3f60e01b82523360048301526024820152fd5b3360009081527f549fe2656c81d2947b3b913f0a53b9ea86c71e049f3a1b8aa23c09a8a05cb8d4602052604090207f9f2df0fed2c77648de5860a4cc508cd0818c85b8b8a1ab4ceeef8d981c8956a69060ff90612712565b3360009081527fb7db2dd08fcb62d0c9e08c51941cae53c267786a0b75803fb7960902fc8ef97d602052604090205460ff16156127cb57565b60405163e2517d3f60e01b815233600482015260006024820152604490fd5b60008181526000805160206146c283398151915260209081526040808320338452909152902060ff90612712565b6001600160a01b03811660009081527fb7db2dd08fcb62d0c9e08c51941cae53c267786a0b75803fb7960902fc8ef97d60205260408120546000805160206146c28339815191529060ff166128c757818052602090815260408083206001600160a01b038516600090815292529020805460ff1916600117905533916001600160a01b0316907f2f8788117e7eff1d82e926ec794901d17c78024a50270940304540a733656f0d8180a4600190565b50905090565b6001600160a01b03811660009081527f549fe2656c81d2947b3b913f0a53b9ea86c71e049f3a1b8aa23c09a8a05cb8d4602052604081207f9f2df0fed2c77648de5860a4cc508cd0818c85b8b8a1ab4ceeef8d981c8956a6906000805160206146c28339815191529060ff905b54166129a057818352602090815260408084206001600160a01b038616600090815292529020805460ff1916600117905533926001600160a01b0316917f2f8788117e7eff1d82e926ec794901d17c78024a50270940304540a733656f0d9080a4600190565b5050905090565b6001600160a01b03811660009081527ffcf1b2032b1187d9f2a29150c4a608b3b6f0bdf8dd007801f86a276af50cad92602052604081207f3c11d16cbaffd01df69ce1c404f6340ee057498f5f00246190ea54220576a848906000805160206146c28339815191529060ff9061293a565b6001600160a01b03811660009081527f75442b0a96088b5456bc4ed01394c96a4feec0f883c9494257d76b96ab1c9b6b602052604081207f65d7a28e3265b37a6474929f336521b332c1681b933f6cb9f3376673440d862a906000805160206146c28339815191529060ff9061293a565b6001600160a01b03811660009081527f294f263e68a44628370ca7eca46e11f3043892ee36ff7375f356adc9c8117805602052604081207f6c0757dc3e6b28b2580c03fd9e96c274acf4f99d91fbec9b418fa1d70604ff1c906000805160206146c28339815191529060ff9061293a565b60008181526000805160206146c2833981519152602081815260408084206001600160a01b0387168552909152822091929160ff9061293a565b60008181526000805160206146c2833981519152602081815260408084206001600160a01b038716855290915282205491929160ff16156129a057818352602090815260408084206001600160a01b038616600090815292529020805460ff1916905533926001600160a01b0316917ff6391f5c32d9c69d2a47ea670b442974b53935d1edc7fd64eb21e047a839171b9080a4600190565b65ffffffffffff612bdc4361330c565b1680821015612bef57506104d99061330c565b6044925060405191637669fc0f60e11b835260048301526024820152fd5b600019810191908211610a9257565b6001600160a01b038116801561268c57612c34613b04565b6000805160206146228339815191529081546a52b7d2dcc80cd2e400000090818101809111610a92578355612c6884611a67565b90815401905560006000805160206146a283398151915260405180612c9c81906a52b7d2dcc80cd2e4000000602083019252565b0390a3546001600160d01b038111612cb85750610d5290613f8a565b604051630e58ae9360e11b815260048101919091526001600160d01b036024820152604490fd5b91906001600160a01b038316801561268c57612cf9613b04565b600080516020614622833981519152908154838101809111610a92578255612d2085611a67565b8054840190556040518381526000906000805160206146a283398151915290602090a354926001600160d01b038411612d5e57610d52929350614101565b604051630e58ae9360e11b8152600481018590526001600160d01b036024820152604490fd5b6001600160a01b03808216929183156126a557612d9f613b04565b612da881611a67565b54838110612e5c5790612dc084602094930391611a67565b55600080516020614622833981519152838154039055604051838152846000805160206146a28339815191526000948593a3612dfb83613ee7565b93612e054361330c565b6001600160d01b03958680612e1861310b565b1691169003958611610a9257610d5295612e31916143e2565b505082526000805160206145a2833981519152602052604081818420541692808052205416906135e7565b60405163391434e360e21b81526001600160a01b03929092166004830152602482015260448101839052606490fd5b90816020910312610448575190565b6001600160a01b0381811660008181526000805160206145a28339815191526020526040812080548685166001600160a01b031982168117909255610d5296941694612f439390928691907f3134e8a2e6d97e929a7e54011ea5485d7d196dd5f0ba4d4ef95803e8e3fc257f9080a46001600160a01b031660009081527f52c63247e1f47db19d5ce0460030c497f067ca4cebf71ba98eeadabe20bace00602052604090205490565b916135e7565b90612f526136f7565b604051612f5e81610ce9565b6001808252602090603160f81b6020840152612f786136f7565b8451906001600160401b038211610d04576000805160206145e283398151915292612fac83612fa78654611f92565b6137a5565b602091601f841160011461303c5750509080612fe392612fea96976000926123375750508160011b916000199060031b1c19161790565b9055613a22565b61301360007fa16a46d94261c7517cc8ff89f61c0ce93598e3c849801011dee649a6a557d10055565b610d5260007fa16a46d94261c7517cc8ff89f61c0ce93598e3c849801011dee649a6a557d10155565b6000805160206145e28339815191526000908152601f198516987f42ad5d3e1f2e6e70edcf6d991b8a3023d3fca8047a131592f9edb9fd9b89d57d949390925b8a83106130be5750505090839291600194612fea9899106130a5575b505050811b019055613a22565b015160001960f88460031b161c19169055388080613098565b83850151865594850194938101939181019161307c565b6130dd6136f7565b6130e56136f7565b60017f9b779b17422d0df92223018b32b4d1fa46e071723d6817e2486d003becc55f0055565b600080516020614682833981519152805480613128575050600090565b80600019810111610a92577f88c46c62109817164d0ae1873830d4299a82e5daf552a3d8e989b27638fcf74791600052015460301c90565b80548061316e575050600090565b600019918183810111610a9257600052602060002001015460301c90565b604290613197613297565b906040519161190160f01b8352600283015260228201522090565b916104d993916131c193613b2f565b90929192613bdf565b6001600160a01b03811660009081527f5ab42ced628888259c08ac98db1eb0cf702fc1501344311d8b100cd1bfe4bb00602052604090208054600181019091559091819003613217575050565b6040516301d4b62360e61b81526001600160a01b039092166004830152602482015260449150fd5b6001600160a01b0380821692919083156124a657821693841561248d578061328d7f8c5be1e5ebec7d5bd14f71427d1e84f3dd0314c0f7b2291e5b200ac8c7c3b9259461082e602095611a2e565b55604051908152a3565b61329f613df2565b6132a7613e5c565b6040519060208201927f8b73c3c69bb8fe3d512ecc4cf759cc79239f7b179b0ffacaa9a75d522b39400f8452604083015260608201524660808201523060a082015260a0815260c081018181106001600160401b03821117610d045760405251902090565b65ffffffffffff9081811161331f571690565b604490604051906306dfcc6560e41b8252603060048301526024820152fd5b60018111156104d957600181600160801b811015613457575b6133ff6133f56133eb6133e16133d76133cd61340b97600488600160401b6134069a101561344a575b64010000000081101561343d575b62010000811015613430575b610100811015613424575b6010811015613418575b1015613410575b60030260011c6133c6818b612167565b0160011c90565b6133c6818a612167565b6133c68189612167565b6133c68188612167565b6133c68187612167565b6133c68186612167565b8093612167565b821190565b900390565b60011b6133b6565b811c9160021b916133af565b60081c91811b916133a5565b60101c9160081b9161339a565b60201c9160101b9161338e565b60401c9160201b91613380565b50600160401b9050608082901c613357565b905b82811061347757505090565b90918082169080831860011c8201809211610a925760008051602061468283398151915260005265ffffffffffff8083600080516020614722833981519152015416908516106000146134cd5750915b9061346b565b9291506134d990612187565b906134c7565b91905b8382106134ef5750505090565b9091928083169080841860011c8201809211610a925760008581526020902082015465ffffffffffff908116908416101561352e5750925b91906134e2565b93925061353a90612187565b91613527565b90813b156135c65760008051602061466283398151915280546001600160a01b0319166001600160a01b0384169081179091557fbc7cd75a20ee27fd9adebab32041f755214dbc6bffa90cc0225b39da2e5c2d3b600080a28051156135ab576135a891613ea1565b50565b5050346135b457565b60405163b398979f60e01b8152600490fd5b604051634c9c8ce360e01b81526001600160a01b0383166004820152602490fd5b6001600160a01b038083169392919081169081851415806136ee575b61360f575b5050505050565b81613672575b505082613624575b8080613608565b6000805160206147428339815191529161364961364361364f936119f5565b91613ee7565b90613f58565b604080516001600160d01b039384168152919092166020820152a238808061361d565b61367b906119f5565b61368484613ee7565b61368d4361330c565b6001600160d01b039182806136a186613160565b169116900392828411610a9257600080516020614742833981519152936136e4926136cb926144e5565b6040805192851683529316602082015291829190820190565b0390a23880613615565b50831515613603565b60ff6000805160206147028339815191525460401c161561371457565b604051631afcd79f60e31b8152600490fd5b601f8111613732575050565b6000906000805160206145c28339815191526000527f2ae08a8e29253f69ac5d979a101956ab8f8d9d7ded63fa7a83b16fc47648eab0906020601f850160051c8301941061379b575b601f0160051c01915b82811061379057505050565b818155600101613784565b909250829061377b565b601f81116137b1575050565b6000906000805160206145e28339815191526000527f42ad5d3e1f2e6e70edcf6d991b8a3023d3fca8047a131592f9edb9fd9b89d57d906020601f850160051c8301941061381a575b601f0160051c01915b82811061380f57505050565b818155600101613803565b90925082906137fa565b601f8111613830575050565b6000906000805160206146028339815191526000527f46a2803e59a4de4e7a4c574b1243f25977ac4c77d5a1a4a609b5394cebb4a2aa906020601f850160051c83019410613899575b601f0160051c01915b82811061388e57505050565b818155600101613882565b9092508290613879565b601f81116138af575050565b6000906000805160206146428339815191526000527f5f9ce34815f8e11431c7bb75a8e6886a91478f7ffc1dbb0a98dc240fddd76b75906020601f850160051c83019410613918575b601f0160051c01915b82811061390d57505050565b818155600101613901565b90925082906138f8565b9081516001600160401b038111610d045760008051602061460283398151915290613956816139518454611f92565b613824565b602080601f831160011461398d575081906139899394956000926123375750508160011b916000199060031b1c19161790565b9055565b90601f198316956139cd6000805160206146028339815191526000527f46a2803e59a4de4e7a4c574b1243f25977ac4c77d5a1a4a609b5394cebb4a2aa90565b926000905b888210613a0a575050836001959697106139f1575b505050811b019055565b015160001960f88460031b161c191690553880806139e7565b806001859682949686015181550195019301906139d2565b9081516001600160401b038111610d045760008051602061464283398151915290613a5681613a518454611f92565b6138a3565b602080601f8311600114613a89575081906139899394956000926123375750508160011b916000199060031b1c19161790565b90601f19831695613ac96000805160206146428339815191526000527f5f9ce34815f8e11431c7bb75a8e6886a91478f7ffc1dbb0a98dc240fddd76b7590565b926000905b888210613aec575050836001959697106139f157505050811b019055565b80600185968294968601518155019501930190613ace565b60ff6000805160206146e28339815191525416613b1d57565b60405163d93c066560e01b8152600490fd5b91907f7fffffffffffffffffffffffffffffff5d576e7357a4501ddfe92f46681b20a08411613bb357926020929160ff608095604051948552168484015260408301526060820152600092839182805260015afa15613ba75780516001600160a01b03811615613b9e57918190565b50809160019190565b604051903d90823e3d90fd5b50505060009160039190565b60041115613bc957565b634e487b7160e01b600052602160045260246000fd5b613be881613bbf565b80613bf1575050565b613bfa81613bbf565b60018103613c145760405163f645eedf60e01b8152600490fd5b613c1d81613bbf565b60028103613c3e5760405163fce698f760e01b815260048101839052602490fd5b80613c4a600392613bbf565b14613c525750565b6040516335e2f38360e21b81526004810191909152602490fd5b8054821015613c845760005260206000200190600090565b634e487b7160e01b600052603260045260246000fd5b929190613ca5613b04565b6001600160a01b038481168015918215613d9f57613ce7613cd58660008051602061462283398151915254612195565b60008051602061462283398151915255565b83169081613d8b57613d1685600080516020614622833981519152540360008051602061462283398151915255565b6040518581526000805160206146a283398151915290602090a3613d3f575b610d5292936141db565b60008051602061462283398151915254936001600160d01b038511613d65579350613d35565b604051630e58ae9360e11b8152600481018690526001600160d01b036024820152604490fd5b613d9484611a67565b858154019055613d16565b613da887611a67565b54858110613dc257859003613dbc88611a67565b55613ce7565b60405163391434e360e21b81526001600160a01b0389166004820152602481019190915260448101869052606490fd5b613dfa611fcc565b8051908115613e0a576020012090565b50507fa16a46d94261c7517cc8ff89f61c0ce93598e3c849801011dee649a6a557d100548015613e375790565b507fc5d2460186f7233c927e7db2dcc703c0e500b653ca82273b7bfad8045d85a47090565b613e646120a2565b8051908115613e74576020012090565b50507fa16a46d94261c7517cc8ff89f61c0ce93598e3c849801011dee649a6a557d101548015613e375790565b6000806104d993602081519101845af43d15613edf573d91613ec283610d54565b92613ed06040519485610d24565b83523d6000602085013e6142b9565b6060916142b9565b6001600160d01b0390818111613efb571690565b604490604051906306dfcc6560e41b825260d060048301526024820152fd5b613f234361330c565b6001600160d01b03906a52b7d2dcc80cd2e400000082613f4285613160565b1601918211610a9257613f54926144e5565b9091565b90613f624361330c565b6001600160d01b03918280613f7686613160565b16911601918211610a9257613f54926144e5565b613f934361330c565b6001600160d01b03906a52b7d2dcc80cd2e400000082613fb161310b565b1601828111610a9257613fc3916143e2565b50506001600160a01b039182169182156140c9575b6000805160206145a28339815191526020527fd4fb29e10204005f1a39963c6862b79a755e22f0177c53f05cdc3786c702f9745460009384526040909320548116921682811415806140c1575b61402e57505050565b80614067575b508161403e575050565b600080516020614742833981519152906140626136cb61405d856119f5565b613f1a565b0390a2565b614070816119f5565b6140794361330c565b6a52b7d2dcc80cd2e3ffffff198461409084613160565b160190848211610a92576136cb85926140b892600080516020614742833981519152956144e5565b0390a238614034565b506001614025565b6140d24361330c565b6a52b7d2dcc80cd2e3ffffff19836140e861310b565b1601838111610a92576140fa916143e2565b5050613fd8565b9061410b81613ee7565b916141154361330c565b6001600160d01b0393848061412861310b565b16911601848111610a925761413c916143e2565b50506001600160a01b0390811690811561419e575b6000805160206145a28339815191526020527fd4fb29e10204005f1a39963c6862b79a755e22f0177c53f05cdc3786c702f974546000928352604090922054610d529450811691166135e7565b6141a783613ee7565b6141b04361330c565b9085806141bb61310b565b1691169003948511610a9257610d52946141d4916143e2565b5050614151565b6001600160a01b03908116929181908415614274575b1690811561422c575b610d52936000526000805160206145a283398151915260205280604060002054169160005260406000205416906135e7565b61423583613ee7565b9361423f4361330c565b6001600160d01b0395868061425261310b565b1691169003958611610a9257610d529561426b916143e2565b505093506141fa565b905061427f83613ee7565b906142894361330c565b6001600160d01b0392838061429c61310b565b16911601928311610a925783926142b2916143e2565b50506141f1565b906142e057508051156142ce57602081519101fd5b60405163d6bda27560e01b8152600490fd5b81511580614313575b6142f1575090565b604051639996b31560e01b81526001600160a01b039091166004820152602490fd5b50803b156142e9565b600080516020614682833981519152908154600160401b811015610d045760018101808455811015613c8457600092909252805160209091015160301b65ffffffffffff191665ffffffffffff91909116176000805160206147228339815191529190910155565b8054600160401b811015610d04576143a191600182018155613c6c565b6143cc57815160209092015160301b65ffffffffffff191665ffffffffffff92909216919091179055565b634e487b7160e01b600052600060045260246000fd5b6000805160206146828339815191525491929180156144bb5761440761442c91612c0d565b6000805160206146828339815191526000526000805160206147228339815191520190565b9081549165ffffffffffff908184169183168083116144a9578692036144715761446a92509065ffffffffffff82549181199060301b169116179055565b60301c9190565b50506144a490614490614482610d45565b65ffffffffffff9092168252565b6001600160d01b038516602082015261431c565b61446a565b604051632520601d60e01b8152600490fd5b506144df906144cb614482610d45565b6001600160d01b038416602082015261431c565b60009190565b8054929392801561457c576144fc61450991612c0d565b8260005260206000200190565b9182549265ffffffffffff918285169281168084116144a957879303614548575061446a92509065ffffffffffff82549181199060301b169116179055565b9150506144a49161456861455a610d45565b65ffffffffffff9093168352565b6001600160d01b0386166020830152614384565b50906144df9161458d61455a610d45565b6001600160d01b038516602083015261438456fee8b26c30fad74198956032a3533d903385d56dd795af560196f9c78d4af40d0052c63247e1f47db19d5ce0460030c497f067ca4cebf71ba98eeadabe20bace03a16a46d94261c7517cc8ff89f61c0ce93598e3c849801011dee649a6a557d10252c63247e1f47db19d5ce0460030c497f067ca4cebf71ba98eeadabe20bace0452c63247e1f47db19d5ce0460030c497f067ca4cebf71ba98eeadabe20bace02a16a46d94261c7517cc8ff89f61c0ce93598e3c849801011dee649a6a557d103360894a13ba1a3210667c828492db98dca3e2076cc3735a920a3ca505d382bbce8b26c30fad74198956032a3533d903385d56dd795af560196f9c78d4af40d02ddf252ad1be2c89b69c2b068fc378daa952ba7f163c4a11628f55a4df523b3ef02dd7bc7dec4dceedda775e58dd541e08a116c6c53815c0bd028192f7b626800cd5ed15c6e187e77e9aee88184c21f4f2182ab5827cb3b7e07fbedcd63f03300f0c57e16840df040f15088dc2f81fe391c3923bec73e23a9662efc9c229c6a0088c46c62109817164d0ae1873830d4299a82e5daf552a3d8e989b27638fcf748dec2bacdd2f05b59de34da9b523dff8be42e5e38e818c82fdb0bae774387a724a164736f6c6343000816000a",
  "linkReferences": {},
  "deployedLinkReferences": {}
}