{
  "_format": "hh-sol-artifact-1",
  "contractName": "MockBadgeMinter",
  "sourceName": "contracts/mocks/MockBadgeMinter.sol",
  "abi": [
    {
      "inputs": [],
      "stateMutability": "nonpayable",
      "type": "constructor"
    },
    {
      "inputs": [],
      "name": "AccessControlBadConfirmation",
      "type": "error"
    },
    {
      "inputs": [
        {
          "internalType": "address",
          "name": "account",
          "type": "address"
        },
        {
          "internalType": "bytes32",
          "name": "neededRole",
          "type": "bytes32"
        }
      ],
      "name": "AccessControlUnauthorizedAccount",
      "type": "error"
    },
    {
      "inputs": [
        {
          "internalType": "address",
          "name": "sender",
          "type": "address"
        },
        {
          "internalType": "uint256",
          "name": "tokenId",
          "type": "uint256"
        },
        {
          "internalType": "address",
          "name": "owner",
          "type": "address"
        }
      ],
      "name": "ERC721IncorrectOwner",
      "type": "error"
    },
    {
      "inputs": [
        {
          "internalType": "address",
          "name": "operator",
          "type": "address"
        },
        {
          "internalType": "uint256",
          "name": "tokenId",
          "type": "uint256"
        }
      ],
      "name": "ERC721InsufficientApproval",
      "type": "error"
    },
    {
      "inputs": [
        {
          "internalType": "address",
          "name": "approver",
          "type": "address"
        }
      ],
      "name": "ERC721InvalidApprover",
      "type": "error"
    },
    {
      "inputs": [
        {
          "internalType": "address",
          "name": "operator",
          "type": "address"
        }
      ],
      "name": "ERC721InvalidOperator",
      "type": "error"
    },
    {
      "inputs": [
        {
          "internalType": "address",
          "name": "owner",
          "type": "address"
        }
      ],
      "name": "ERC721InvalidOwner",
      "type": "error"
    },
    {
      "inputs": [
        {
          "internalType": "address",
          "name": "receiver",
          "type": "address"
        }
      ],
      "name": "ERC721InvalidReceiver",
      "type": "error"
    },
    {
      "inputs": [
        {
          "internalType": "address",
          "name": "sender",
          "type": "address"
        }
      ],
      "name": "ERC721InvalidSender",
      "type": "error"
    },
    {
      "inputs": [
        {
          "internalType": "uint256",
          "name": "tokenId",
          "type": "uint256"
        }
      ],
      "name": "ERC721NonexistentToken",
      "type": "error"
    },
    {
      "anonymous": false,
      "inputs": [
        {
          "indexed": true,
          "internalType": "address",
          "name": "owner",
          "type": "address"
        },
        {
          "indexed": true,
          "internalType": "address",
          "name": "approved",
          "type": "address"
        },
        {
          "indexed": true,
          "internalType": "uint256",
          "name": "tokenId",
          "type": "uint256"
        }
      ],
      "name": "Approval",
      "type": "event"
    },
    {
      "anonymous": false,
      "inputs": [
        {
          "indexed": true,
          "internalType": "address",
          "name": "owner",
          "type": "address"
        },
        {
          "indexed": true,
          "internalType": "address",
          "name": "operator",
          "type": "address"
        },
        {
          "indexed": false,
          "internalType": "bool",
          "name": "approved",
          "type": "bool"
        }
      ],
      "name": "ApprovalForAll",
      "type": "event"
    },
    {
      "anonymous": false,
      "inputs": [
        {
          "indexed": false,
          "internalType": "uint256",
          "name": "_fromTokenId",
          "type": "uint256"
        },
        {
          "indexed": false,
          "internalType": "uint256",
          "name": "_toTokenId",
          "type": "uint256"
        }
      ],
      "name": "BatchMetadataUpdate",
      "type": "event"
    },
    {
      "anonymous": false,
      "inputs": [
        {
          "indexed": false,
          "internalType": "uint256",
          "name": "_tokenId",
          "type": "uint256"
        }
      ],
      "name": "MetadataUpdate",
      "type": "event"
    },
    {
      "anonymous": false,
      "inputs": [
        {
          "indexed": true,
          "internalType": "bytes32",
          "name": "role",
          "type": "bytes32"
        },
        {
          "indexed": true,
          "internalType": "bytes32",
          "name": "previousAdminRole",
          "type": "bytes32"
        },
        {
          "indexed": true,
          "internalType": "bytes32",
          "name": "newAdminRole",
          "type": "bytes32"
        }
      ],
      "name": "RoleAdminChanged",
      "type": "event"
    },
    {
      "anonymous": false,
      "inputs": [
        {
          "indexed": true,
          "internalType": "bytes32",
          "name": "role",
          "type": "bytes32"
        },
        {
          "indexed": true,
          "internalType": "address",
          "name": "account",
          "type": "address"
        },
        {
          "indexed": true,
          "internalType": "address",
          "name": "sender",
          "type": "address"
        }
      ],
      "name": "RoleGranted",
      "type": "event"
    },
    {
      "anonymous": false,
      "inputs": [
        {
          "indexed": true,
          "internalType": "bytes32",
          "name": "role",
          "type": "bytes32"
        },
        {
          "indexed": true,
          "internalType": "address",
          "name": "account",
          "type": "address"
        },
        {
          "indexed": true,
          "internalType": "address",
          "name": "sender",
          "type": "address"
        }
      ],
      "name": "RoleRevoked",
      "type": "event"
    },
    {
      "anonymous": false,
      "inputs": [
        {
          "indexed": true,
          "internalType": "address",
          "name": "from",
          "type": "address"
        },
        {
          "indexed": true,
          "internalType": "address",
          "name": "to",
          "type": "address"
        },
        {
          "indexed": true,
          "internalType": "uint256",
          "name": "tokenId",
          "type": "uint256"
        }
      ],
      "name": "Transfer",
      "type": "event"
    },
    {
      "inputs": [],
      "name": "DEFAULT_ADMIN_ROLE",
      "outputs": [
        {
          "internalType": "bytes32",
          "name": "",
          "type": "bytes32"
        }
      ],
      "stateMutability": "view",
      "type": "function"
    },
    {
      "inputs": [],
      "name": "MINTER_ROLE",
      "outputs": [
        {
          "internalType": "bytes32",
          "name": "",
          "type": "bytes32"
        }
      ],
      "stateMutability": "view",
      "type": "function"
    },
    {
      "inputs": [
        {
          "internalType": "address",
          "name": "to",
          "type": "address"
        },
        {
          "internalType": "uint256",
          "name": "tokenId",
          "type": "uint256"
        }
      ],
      "name": "approve",
      "outputs": [],
      "stateMutability": "nonpayable",
      "type": "function"
    },
    {
      "inputs": [
        {
          "internalType": "address",
          "name": "owner",
          "type": "address"
        }
      ],
      "name": "balanceOf",
      "outputs": [
        {
          "internalType": "uint256",
          "name": "",
          "type": "uint256"
        }
      ],
      "stateMutability": "view",
      "type": "function"
    },
    {
      "inputs": [
        {
          "internalType": "uint256",
          "name": "tokenId",
          "type": "uint256"
        }
      ],
      "name": "getApproved",
      "outputs": [
        {
          "internalType": "address",
          "name": "",
          "type": "address"
        }
      ],
      "stateMutability": "view",
      "type": "function"
    },
    {
      "inputs": [
        {
          "internalType": "bytes32",
          "name": "role",
          "type": "bytes32"
        }
      ],
      "name": "getRoleAdmin",
      "outputs": [
        {
          "internalType": "bytes32",
          "name": "",
          "type": "bytes32"
        }
      ],
      "stateMutability": "view",
      "type": "function"
    },
    {
      "inputs": [
        {
          "internalType": "bytes32",
          "name": "role",
          "type": "bytes32"
        },
        {
          "internalType": "address",
          "name": "account",
          "type": "address"
        }
      ],
      "name": "grantRole",
      "outputs": [],
      "stateMutability": "nonpayable",
      "type": "function"
    },
    {
      "inputs": [
        {
          "internalType": "address",
          "name": "user",
          "type": "address"
        }
      ],
      "name": "hasBadge",
      "outputs": [
        {
          "internalType": "bool",
          "name": "",
          "type": "bool"
        }
      ],
      "stateMutability": "view",
      "type": "function"
    },
    {
      "inputs": [
        {
          "internalType": "bytes32",
          "name": "role",
          "type": "bytes32"
        },
        {
          "internalType": "address",
          "name": "account",
          "type": "address"
        }
      ],
      "name": "hasRole",
      "outputs": [
        {
          "internalType": "bool",
          "name": "",
          "type": "bool"
        }
      ],
      "stateMutability": "view",
      "type": "function"
    },
    {
      "inputs": [
        {
          "internalType": "address",
          "name": "owner",
          "type": "address"
        },
        {
          "internalType": "address",
          "name": "operator",
          "type": "address"
        }
      ],
      "name": "isApprovedForAll",
      "outputs": [
        {
          "internalType": "bool",
          "name": "",
          "type": "bool"
        }
      ],
      "stateMutability": "view",
      "type": "function"
    },
    {
      "inputs": [
        {
          "internalType": "address",
          "name": "to",
          "type": "address"
        },
        {
          "internalType": "uint256",
          "name": "tokenId",
          "type": "uint256"
        },
        {
          "internalType": "string",
          "name": "tokenURI",
          "type": "string"
        }
      ],
      "name": "mint",
      "outputs": [],
      "stateMutability": "nonpayable",
      "type": "function"
    },
    {
      "inputs": [
        {
          "internalType": "address",
          "name": "to",
          "type": "address"
        },
        {
          "internalType": "string",
          "name": "tokenURI",
          "type": "string"
        }
      ],
      "name": "mintBadge",
      "outputs": [
        {
          "internalType": "uint256",
          "name": "",
          "type": "uint256"
        }
      ],
      "stateMutability": "nonpayable",
      "type": "function"
    },
    {
      "inputs": [],
      "name": "name",
      "outputs": [
        {
          "internalType": "string",
          "name": "",
          "type": "string"
        }
      ],
      "stateMutability": "view",
      "type": "function"
    },
    {
      "inputs": [
        {
          "internalType": "uint256",
          "name": "tokenId",
          "type": "uint256"
        }
      ],
      "name": "ownerOf",
      "outputs": [
        {
          "internalType": "address",
          "name": "",
          "type": "address"
        }
      ],
      "stateMutability": "view",
      "type": "function"
    },
    {
      "inputs": [
        {
          "internalType": "bytes32",
          "name": "role",
          "type": "bytes32"
        },
        {
          "internalType": "address",
          "name": "callerConfirmation",
          "type": "address"
        }
      ],
      "name": "renounceRole",
      "outputs": [],
      "stateMutability": "nonpayable",
      "type": "function"
    },
    {
      "inputs": [
        {
          "internalType": "bytes32",
          "name": "role",
          "type": "bytes32"
        },
        {
          "internalType": "address",
          "name": "account",
          "type": "address"
        }
      ],
      "name": "revokeRole",
      "outputs": [],
      "stateMutability": "nonpayable",
      "type": "function"
    },
    {
      "inputs": [
        {
          "internalType": "address",
          "name": "from",
          "type": "address"
        },
        {
          "internalType": "address",
          "name": "to",
          "type": "address"
        },
        {
          "internalType": "uint256",
          "name": "tokenId",
          "type": "uint256"
        }
      ],
      "name": "safeTransferFrom",
      "outputs": [],
      "stateMutability": "nonpayable",
      "type": "function"
    },
    {
      "inputs": [
        {
          "internalType": "address",
          "name": "from",
          "type": "address"
        },
        {
          "internalType": "address",
          "name": "to",
          "type": "address"
        },
        {
          "internalType": "uint256",
          "name": "tokenId",
          "type": "uint256"
        },
        {
          "internalType": "bytes",
          "name": "data",
          "type": "bytes"
        }
      ],
      "name": "safeTransferFrom",
      "outputs": [],
      "stateMutability": "nonpayable",
      "type": "function"
    },
    {
      "inputs": [
        {
          "internalType": "address",
          "name": "operator",
          "type": "address"
        },
        {
          "internalType": "bool",
          "name": "approved",
          "type": "bool"
        }
      ],
      "name": "setApprovalForAll",
      "outputs": [],
      "stateMutability": "nonpayable",
      "type": "function"
    },
    {
      "inputs": [
        {
          "internalType": "bool",
          "name": "revertIndeed",
          "type": "bool"
        }
      ],
      "name": "setRevertOwnerOf",
      "outputs": [],
      "stateMutability": "nonpayable",
      "type": "function"
    },
    {
      "inputs": [
        {
          "internalType": "bytes4",
          "name": "interfaceId",
          "type": "bytes4"
        }
      ],
      "name": "supportsInterface",
      "outputs": [
        {
          "internalType": "bool",
          "name": "",
          "type": "bool"
        }
      ],
      "stateMutability": "view",
      "type": "function"
    },
    {
      "inputs": [],
      "name": "symbol",
      "outputs": [
        {
          "internalType": "string",
          "name": "",
          "type": "string"
        }
      ],
      "stateMutability": "view",
      "type": "function"
    },
    {
      "inputs": [
        {
          "internalType": "uint256",
          "name": "tokenId",
          "type": "uint256"
        }
      ],
      "name": "tokenURI",
      "outputs": [
        {
          "internalType": "string",
          "name": "",
          "type": "string"
        }
      ],
      "stateMutability": "view",
      "type": "function"
    },
    {
      "inputs": [],
      "name": "totalMinted",
      "outputs": [
        {
          "internalType": "uint256",
          "name": "",
          "type": "uint256"
        }
      ],
      "stateMutability": "view",
      "type": "function"
    },
    {
      "inputs": [
        {
          "internalType": "address",
          "name": "from",
          "type": "address"
        },
        {
          "internalType": "address",
          "name": "to",
          "type": "address"
        },
        {
          "internalType": "uint256",
          "name": "tokenId",
          "type": "uint256"
        }
      ],
      "name": "transferFrom",
      "outputs": [],
      "stateMutability": "nonpayable",
      "type": "function"
    }
  ],
  "bytecode": "0x608034620003195760406001600160401b03828201818111848210176200022e578252600a8352602090694d6f636b20426164676560b01b82850152825193838501858110838211176200022e57845260038552624d424760e81b838601528051928284116200022e576001938454928584811c941680156200030e575b838510146200020d578190601f94858111620002b8575b508390858311600114620002505760009262000244575b5050600019600383901b1c191690851b1784555b85519283116200022e576002548481811c9116801562000223575b828210146200020d57828111620001c1575b5080918311600114620001565750819293946000926200014a575b5050600019600383901b1c191690821b176002555b600b556200012a336200031e565b5062000136336200039e565b506000600a55516113d69081620004418239f35b01519050388062000107565b90601f19831695600260005282600020926000905b888210620001a957505083859697106200018f575b505050811b016002556200011c565b015160001960f88460031b161c1916905538808062000180565b8087859682949686015181550195019301906200016b565b6002600052816000208380860160051c82019284871062000203575b0160051c019085905b828110620001f6575050620000ec565b60008155018590620001e6565b92508192620001dd565b634e487b7160e01b600052602260045260246000fd5b90607f1690620000da565b634e487b7160e01b600052604160045260246000fd5b015190503880620000ab565b90879350601f1983169184600052856000209260005b87828210620002a1575050841162000287575b505050811b018455620000bf565b015160001960f88460031b161c1916905538808062000279565b8385015186558b9790950194938401930162000266565b90915086600052836000208580850160051c82019286861062000304575b918991869594930160051c01915b828110620002f457505062000094565b60008155859450899101620002e4565b92508192620002d6565b93607f16936200007d565b600080fd5b6001600160a01b031660008181527fad3228b676f7d3cd4284a5443f17f1962b36e491b30a40b2405849e597ba5fb5602052604081205490919060ff166200039a57818052816020526040822081835260205260408220600160ff198254161790553391600080516020620018178339815191528180a4600190565b5090565b6001600160a01b031660008181527f0781d7cac9c378efa22a7481e4d4d29704a680ddf504b3bc50b517700ee11e6c60205260408120549091907f9f2df0fed2c77648de5860a4cc508cd0818c85b8b8a1ab4ceeef8d981c8956a69060ff166200043b57808352826020526040832082845260205260408320600160ff1982541617905560008051602062001817833981519152339380a4600190565b50509056fe608060408181526004918236101561001657600080fd5b600092833560e01c91826301ffc9a714610a125750816306fdde031461095e578163081812fc14610921578163095ea7b31461083e57816323b872dd14610826578163248a9ca3146107fc5781632f2ff15d146107d257816336568abe1461078c57816342842e0e146107635781635e50864f146107395781636352211e146106b05781636b2bafc81461063457816370a082311461060757816391d14854146105c157816395d89b41146104d4578163a217fddf146104b9578163a22cb4651461041b578163a2309ff8146103fc578163b88d4fde14610398578163c87b56dd146102a1578163cd7dacbf14610272578163d3fc986414610206578163d5391393146101cb578163d547741f14610188575063e985e9c51461013857600080fd5b3461018457806003193601126101845760ff81602093610156610af1565b61015e610b0c565b6001600160a01b0391821683526006875283832091168252855220549151911615158152f35b5080fd5b919050346101c757806003193601126101c7576101c391356101be60016101ad610b0c565b93838752866020528620015461105d565b611101565b5080f35b8280fd5b505034610184578160031936011261018457602090517f9f2df0fed2c77648de5860a4cc508cd0818c85b8b8a1ab4ceeef8d981c8956a68152f35b83903461018457606036600319011261018457610221610af1565b60243560443567ffffffffffffffff811161026e578161024a61025d9561025893369101610bfe565b93610253610fe3565b611176565b611253565b610268600a54610df5565b600a5580f35b8480fd5b83903461018457602036600319011261018457358015158091036101845760ff80196009541691161760095580f35b919050346101c7576020918260031936011261039457356102c181610fa8565b508352600782528083209281518094829080546102dd81610c1c565b918285526001918860018216918260001461036d57505060011461032f575b50505061032b939291610310910386610b89565b815161031b81610b57565b5251928284938452830190610ab1565b0390f35b8552868520879350859291905b828410610355575050508201018161031061032b6102fc565b8054848b01860152899550889490930192810161033c565b60ff19168782015293151560051b86019093019350849250610310915061032b90506102fc565b8380fd5b839034610184576080366003190112610184576103b3610af1565b6103bb610b0c565b9060643567ffffffffffffffff811161026e573660238201121561026e576103f9938160246103ef93369301359101610bc7565b9160443591610e53565b80f35b505034610184578160031936011261018457602090600a549051908152f35b919050346101c757806003193601126101c757610436610af1565b906024359182151580930361026e576001600160a01b03169283156104a45750338452600660205280842083855260205280842060ff1981541660ff8416179055519081527f17307eab39ab6107e8899845ad3d59bd9653f200f220920489ca2b5937696c3160203392a380f35b836024925191630b61174360e31b8352820152fd5b50503461018457816003193601126101845751908152602090f35b8284346105be57806003193601126105be5781519182826002546104f781610c1c565b908184526020956001918760018216918260001461059757505060011461053b575b50505061032b929161052c910385610b89565b51928284938452830190610ab1565b9190869350600283527f405787fa12a823e0f2b7631cc41b3ba8828b3321ca811111fa75cd3aa3bb5ace5b82841061057f575050508201018161052c61032b610519565b8054848a018601528895508794909301928101610566565b60ff19168782015293151560051b8601909301935084925061052c915061032b9050610519565b80fd5b9050346101c757816003193601126101c7578160209360ff926105e2610b0c565b903582528186528282206001600160a01b039091168252855220549151911615158152f35b5050346101845760203660031901126101845760209061062d610628610af1565b610e1a565b9051908152f35b83833461018457806003193601126101845761064e610af1565b916024359067ffffffffffffffff82116105be575061067560209461069c92369101610bfe565b61067d610fe3565b610696600b54809561068e82610df5565b600b55611176565b83611253565b6106a7600a54610df5565b600a5551908152f35b905082346105be5760203660031901126105be575060ff600954166106ed57906106dc60209235610fa8565b90516001600160a01b039091168152f35b6020608492519162461bcd60e51b8352820152602160248201527f4d6f636b42616467654d696e7465723a206f776e65724f6620726576657274656044820152601960fa1b6064820152fd5b5050346101845760203660031901126101845760209061075a610628610af1565b15159051908152f35b505034610184576103f99061077736610b22565b9192519261078484610b57565b858452610e53565b8383346101845780600319360112610184576107a6610b0c565b90336001600160a01b038316036107c357506101c3919235611101565b5163334bd91960e11b81528390fd5b919050346101c757806003193601126101c7576101c391356107f760016101ad610b0c565b611083565b9050346101c75760203660031901126101c757816020936001923581528085522001549051908152f35b83346105be576103f961083836610b22565b91610c56565b919050346101c757806003193601126101c757610859610af1565b916024359061086782610fa8565b903315158061090e575b806108e5575b6108ce57506001600160a01b039384169382918591167f8c5be1e5ebec7d5bd14f71427d1e84f3dd0314c0f7b2291e5b200ac8c7c3b9258780a483526005602052822080546001600160a01b031916909117905580f35b60249084519063a9fbf51f60e01b82523390820152fd5b506001600160a01b03821686526006602090815284872033885290528386205460ff1615610877565b506001600160a01b038216331415610871565b9050346101c75760203660031901126101c757916020923561094281610fa8565b508152600583528190205490516001600160a01b039091168152f35b8284346105be57806003193601126105be5781519182826001936001549461098586610c1c565b91828552602096876001821691826000146105975750506001146109b65750505061032b929161052c910385610b89565b9190869350600183527fb10e2d527612073b26eecdfd717e6a320cf44b4afac2b0732d9fcbe2b7fa0cf65b8284106109fa575050508201018161052c61032b610519565b8054848a0186015288955087949093019281016109e1565b8491346101c75760203660031901126101c7573563ffffffff60e01b81168091036101c75760209250632483248360e11b8114908115610a54575b5015158152f35b6380ac58cd60e01b811491508115610aa0575b8115610a75575b5083610a4d565b637965db0b60e01b811491508115610a8f575b5083610a6e565b6301ffc9a760e01b14905083610a88565b635b5e139f60e01b81149150610a67565b919082519283825260005b848110610add575050826000602080949584010152601f8019910116010190565b602081830181015184830182015201610abc565b600435906001600160a01b0382168203610b0757565b600080fd5b602435906001600160a01b0382168203610b0757565b6060906003190112610b07576001600160a01b03906004358281168103610b0757916024359081168103610b07579060443590565b6020810190811067ffffffffffffffff821117610b7357604052565b634e487b7160e01b600052604160045260246000fd5b90601f8019910116810190811067ffffffffffffffff821117610b7357604052565b67ffffffffffffffff8111610b7357601f01601f191660200190565b929192610bd382610bab565b91610be16040519384610b89565b829481845281830111610b07578281602093846000960137010152565b9080601f83011215610b0757816020610c1993359101610bc7565b90565b90600182811c92168015610c4c575b6020831014610c3657565b634e487b7160e01b600052602260045260246000fd5b91607f1691610c2b565b6001600160a01b039182169290918315610ddc57600092828452826020956003875260409684888820541696879133151580610d46575b509060037fddf252ad1be2c89b69c2b068fc378daa952ba7f163c4a11628f55a4df523b3ef9284610d13575b858352600481528b8320805460010190558683525289812080546001600160a01b0319168517905580a41692838303610cf25750505050565b6064945051926364283d7b60e01b8452600484015260248301526044820152fd5b600087815260056020526040902080546001600160a01b0319169055848352600481528b83208054600019019055610cb9565b91939450915080610d9b575b15610d6257859291879138610c8d565b878688610d7f576024915190637e27328960e01b82526004820152fd5b604491519063177e802f60e01b82523360048301526024820152fd5b503387148015610dc0575b80610d525750858252600581523385898420541614610d52565b5086825260068152878220338352815260ff8883205416610da6565b604051633250574960e11b815260006004820152602490fd5b6000198114610e045760010190565b634e487b7160e01b600052601160045260246000fd5b6001600160a01b03168015610e3a57600052600460205260406000205490565b6040516322718ad960e21b815260006004820152602490fd5b929092610e61838583610c56565b833b610e6e575b50505050565b604051630a85bd0160e11b8082523360048301526001600160a01b0392831660248301526044820194909452608060648201529493169260209290918590610eba906084830190610ab1565b039483816000978189895af1869181610f64575b50610f2f575050503d600014610f26573d610ee881610bab565b90610ef66040519283610b89565b81528093823d92013e5b82519283610f2157604051633250574960e11b815260048101849052602490fd5b019050fd5b60609250610f00565b919450915063ffffffff60e01b1603610f4c575038808080610e68565b60249060405190633250574960e11b82526004820152fd5b9091508481813d8311610fa1575b610f7c8183610b89565b81010312610f9d57516001600160e01b031981168103610f9d579038610ece565b8680fd5b503d610f72565b6000818152600360205260409020546001600160a01b0316908115610fcb575090565b60249060405190637e27328960e01b82526004820152fd5b3360009081527f0781d7cac9c378efa22a7481e4d4d29704a680ddf504b3bc50b517700ee11e6c60205260409020547f9f2df0fed2c77648de5860a4cc508cd0818c85b8b8a1ab4ceeef8d981c8956a69060ff161561103f5750565b6044906040519063e2517d3f60e01b82523360048301526024820152fd5b80600052600060205260406000203360005260205260ff604060002054161561103f5750565b9060009180835282602052604083209160018060a01b03169182845260205260ff604084205416156000146110fc57808352826020526040832082845260205260408320600160ff198254161790557f2f8788117e7eff1d82e926ec794901d17c78024a50270940304540a733656f0d339380a4600190565b505090565b9060009180835282602052604083209160018060a01b03169182845260205260ff6040842054166000146110fc5780835282602052604083208284526020526040832060ff1981541690557ff6391f5c32d9c69d2a47ea670b442974b53935d1edc7fd64eb21e047a839171b339380a4600190565b6001600160a01b0391908216908115610ddc57600092818452600360205260408420541691821515928361121e575b81855260046020526040852060018154019055828552600360205260408520826bffffffffffffffffffffffff60a01b8254161790557fddf252ad1be2c89b69c2b068fc378daa952ba7f163c4a11628f55a4df523b3ef8580a46112065750565b602490604051906339e3563760e11b82526004820152fd5b600083815260056020526040902080546001600160a01b031916905580855260046020526040852080546000190190556111a5565b91909160009080825260209160078352604081209085519067ffffffffffffffff82116113b5576112848354610c1c565b601f8111611372575b508490601f83116001146112ee57907ff8e1a15aba9398e019f0b49df1a4fde98ee17ae345cb5f6b5e2c27f5033e8ce79697836112e3575b50508160011b916000199060031b1c19161790555b604051908152a1565b0151905038806112c5565b9196601f198816848452868420935b81811061135b57509160019391897ff8e1a15aba9398e019f0b49df1a4fde98ee17ae345cb5f6b5e2c27f5033e8ce7999a9410611342575b505050811b0190556112da565b015160001960f88460031b161c19169055388080611335565b9293876001819287860151815501950193016112fd565b838252858220601f840160051c8101918785106113ab575b601f0160051c01905b8181106113a0575061128d565b828155600101611393565b909150819061138a565b634e487b7160e01b81526041600452602490fdfea164736f6c6343000816000a2f8788117e7eff1d82e926ec794901d17c78024a50270940304540a733656f0d",
  "linkReferences": {},
  "deployedLinkReferences": {}
}