{
  "_format": "hh-sol-artifact-1",
  "contractName": "StreakRewards",
  "sourceName": "contracts/StreakRewards.sol",
  "abi": [
    {
      "inputs": [],
      "name": "AccessControlBadConfirmation",
      "type": "error"
    },
    {
      "inputs": [
        {
          "internalType": "address",
          "name": "account",
          "type": "address"
        },
        {
          "internalType": "bytes32",
          "name": "neededRole",
          "type": "bytes32"
        }
      ],
      "name": "AccessControlUnauthorizedAccount",
      "type": "error"
    },
    {
      "inputs": [
        {
          "internalType": "address",
          "name": "target",
          "type": "address"
        }
      ],
      "name": "AddressEmptyCode",
      "type": "error"
    },
    {
      "inputs": [],
      "name": "AlreadyClaimed",
      "type": "error"
    },
    {
      "inputs": [
        {
          "internalType": "address",
          "name": "implementation",
          "type": "address"
        }
      ],
      "name": "ERC1967InvalidImplementation",
      "type": "error"
    },
    {
      "inputs": [],
      "name": "ERC1967NonPayable",
      "type": "error"
    },
    {
      "inputs": [],
      "name": "EnforcedPause",
      "type": "error"
    },
    {
      "inputs": [],
      "name": "ExpectedPause",
      "type": "error"
    },
    {
      "inputs": [],
      "name": "FailedCall",
      "type": "error"
    },
    {
      "inputs": [],
      "name": "InsufficientStreak",
      "type": "error"
    },
    {
      "inputs": [],
      "name": "InvalidInitialization",
      "type": "error"
    },
    {
      "inputs": [],
      "name": "InvalidStreakType",
      "type": "error"
    },
    {
      "inputs": [],
      "name": "InvalidThreshold",
      "type": "error"
    },
    {
      "inputs": [],
      "name": "NoRewardsAvailable",
      "type": "error"
    },
    {
      "inputs": [],
      "name": "NotInitializing",
      "type": "error"
    },
    {
      "inputs": [],
      "name": "ReentrancyGuardReentrantCall",
      "type": "error"
    },
    {
      "inputs": [],
      "name": "RewardNotActive",
      "type": "error"
    },
    {
      "inputs": [],
      "name": "UUPSUnauthorizedCallContext",
      "type": "error"
    },
    {
      "inputs": [
        {
          "internalType": "bytes32",
          "name": "slot",
          "type": "bytes32"
        }
      ],
      "name": "UUPSUnsupportedProxiableUUID",
      "type": "error"
    },
    {
      "anonymous": false,
      "inputs": [
        {
          "indexed": true,
          "internalType": "address",
          "name": "user",
          "type": "address"
        },
        {
          "indexed": false,
          "internalType": "uint32",
          "name": "totalXP",
          "type": "uint32"
        },
        {
          "indexed": false,
          "internalType": "uint256[]",
          "name": "badgeIds",
          "type": "uint256[]"
        }
      ],
      "name": "BatchRewardsClaimed",
      "type": "event"
    },
    {
      "anonymous": false,
      "inputs": [
        {
          "indexed": false,
          "internalType": "uint64",
          "name": "version",
          "type": "uint64"
        }
      ],
      "name": "Initialized",
      "type": "event"
    },
    {
      "anonymous": false,
      "inputs": [
        {
          "indexed": true,
          "internalType": "address",
          "name": "user",
          "type": "address"
        },
        {
          "indexed": true,
          "internalType": "uint8",
          "name": "streakType",
          "type": "uint8"
        },
        {
          "indexed": false,
          "internalType": "uint32",
          "name": "multiplier",
          "type": "uint32"
        },
        {
          "indexed": false,
          "internalType": "uint32",
          "name": "bonusXP",
          "type": "uint32"
        }
      ],
      "name": "MultiplierApplied",
      "type": "event"
    },
    {
      "anonymous": false,
      "inputs": [
        {
          "indexed": false,
          "internalType": "address",
          "name": "account",
          "type": "address"
        }
      ],
      "name": "Paused",
      "type": "event"
    },
    {
      "anonymous": false,
      "inputs": [
        {
          "indexed": true,
          "internalType": "address",
          "name": "user",
          "type": "address"
        },
        {
          "indexed": true,
          "internalType": "uint8",
          "name": "streakType",
          "type": "uint8"
        },
        {
          "indexed": false,
          "internalType": "uint32",
          "name": "threshold",
          "type": "uint32"
        },
        {
          "indexed": false,
          "internalType": "uint32",
          "name": "xpReward",
          "type": "uint32"
        },
        {
          "indexed": false,
          "internalType": "uint256",
          "name": "badgeId",
          "type": "uint256"
        }
      ],
      "name": "RewardClaimed",
      "type": "event"
    },
    {
      "anonymous": false,
      "inputs": [
        {
          "indexed": true,
          "internalType": "uint8",
          "name": "streakType",
          "type": "uint8"
        },
        {
          "indexed": false,
          "internalType": "uint32",
          "name": "threshold",
          "type": "uint32"
        },
        {
          "indexed": false,
          "internalType": "uint32",
          "name": "xpReward",
          "type": "uint32"
        },
        {
          "indexed": false,
          "internalType": "uint32",
          "name": "multiplier",
          "type": "uint32"
        }
      ],
      "name": "RewardConfigured",
      "type": "event"
    },
    {
      "anonymous": false,
      "inputs": [
        {
          "indexed": true,
          "internalType": "bytes32",
          "name": "role",
          "type": "bytes32"
        },
        {
          "indexed": true,
          "internalType": "bytes32",
          "name": "previousAdminRole",
          "type": "bytes32"
        },
        {
          "indexed": true,
          "internalType": "bytes32",
          "name": "newAdminRole",
          "type": "bytes32"
        }
      ],
      "name": "RoleAdminChanged",
      "type": "event"
    },
    {
      "anonymous": false,
      "inputs": [
        {
          "indexed": true,
          "internalType": "bytes32",
          "name": "role",
          "type": "bytes32"
        },
        {
          "indexed": true,
          "internalType": "address",
          "name": "account",
          "type": "address"
        },
        {
          "indexed": true,
          "internalType": "address",
          "name": "sender",
          "type": "address"
        }
      ],
      "name": "RoleGranted",
      "type": "event"
    },
    {
      "anonymous": false,
      "inputs": [
        {
          "indexed": true,
          "internalType": "bytes32",
          "name": "role",
          "type": "bytes32"
        },
        {
          "indexed": true,
          "internalType": "address",
          "name": "account",
          "type": "address"
        },
        {
          "indexed": true,
          "internalType": "address",
          "name": "sender",
          "type": "address"
        }
      ],
      "name": "RoleRevoked",
      "type": "event"
    },
    {
      "anonymous": false,
      "inputs": [
        {
          "indexed": false,
          "internalType": "address",
          "name": "account",
          "type": "address"
        }
      ],
      "name": "Unpaused",
      "type": "event"
    },
    {
      "anonymous": false,
      "inputs": [
        {
          "indexed": true,
          "internalType": "address",
          "name": "implementation",
          "type": "address"
        }
      ],
      "name": "Upgraded",
      "type": "event"
    },
    {
      "inputs": [],
      "name": "DEFAULT_ADMIN_ROLE",
      "outputs": [
        {
          "internalType": "bytes32",
          "name": "",
          "type": "bytes32"
        }
      ],
      "stateMutability": "view",
      "type": "function"
    },
    {
      "inputs": [],
      "name": "REWARD_MANAGER_ROLE",
      "outputs": [
        {
          "internalType": "bytes32",
          "name": "",
          "type": "bytes32"
        }
      ],
      "stateMutability": "view",
      "type": "function"
    },
    {
      "inputs": [],
      "name": "UPGRADE_INTERFACE_VERSION",
      "outputs": [
        {
          "internalType": "string",
          "name": "",
          "type": "string"
        }
      ],
      "stateMutability": "view",
      "type": "function"
    },
    {
      "inputs": [
        {
          "internalType": "address",
          "name": "",
          "type": "address"
        },
        {
          "internalType": "uint8",
          "name": "",
          "type": "uint8"
        }
      ],
      "name": "activeMultipliers",
      "outputs": [
        {
          "internalType": "uint32",
          "name": "",
          "type": "uint32"
        }
      ],
      "stateMutability": "view",
      "type": "function"
    },
    {
      "inputs": [
        {
          "internalType": "address",
          "name": "user",
          "type": "address"
        },
        {
          "internalType": "uint8",
          "name": "streakType",
          "type": "uint8"
        },
        {
          "internalType": "uint32",
          "name": "baseXP",
          "type": "uint32"
        }
      ],
      "name": "applyBonusXP",
      "outputs": [],
      "stateMutability": "nonpayable",
      "type": "function"
    },
    {
      "inputs": [],
      "name": "badgeMinter",
      "outputs": [
        {
          "internalType": "contract IBadgeMinter",
          "name": "",
          "type": "address"
        }
      ],
      "stateMutability": "view",
      "type": "function"
    },
    {
      "inputs": [
        {
          "internalType": "uint8",
          "name": "streakType",
          "type": "uint8"
        }
      ],
      "name": "claimAllRewards",
      "outputs": [],
      "stateMutability": "nonpayable",
      "type": "function"
    },
    {
      "inputs": [
        {
          "internalType": "uint8",
          "name": "streakType",
          "type": "uint8"
        },
        {
          "internalType": "uint32",
          "name": "threshold",
          "type": "uint32"
        }
      ],
      "name": "claimReward",
      "outputs": [],
      "stateMutability": "nonpayable",
      "type": "function"
    },
    {
      "inputs": [
        {
          "internalType": "address",
          "name": "",
          "type": "address"
        },
        {
          "internalType": "uint8",
          "name": "",
          "type": "uint8"
        },
        {
          "internalType": "uint32",
          "name": "",
          "type": "uint32"
        }
      ],
      "name": "claimedRewards",
      "outputs": [
        {
          "internalType": "bool",
          "name": "",
          "type": "bool"
        }
      ],
      "stateMutability": "view",
      "type": "function"
    },
    {
      "inputs": [
        {
          "internalType": "uint8",
          "name": "streakType",
          "type": "uint8"
        },
        {
          "internalType": "uint32",
          "name": "threshold",
          "type": "uint32"
        },
        {
          "internalType": "uint32",
          "name": "xpReward",
          "type": "uint32"
        },
        {
          "internalType": "uint32",
          "name": "multiplier",
          "type": "uint32"
        },
        {
          "internalType": "string",
          "name": "badgeURI",
          "type": "string"
        }
      ],
      "name": "configureReward",
      "outputs": [],
      "stateMutability": "nonpayable",
      "type": "function"
    },
    {
      "inputs": [
        {
          "internalType": "address",
          "name": "user",
          "type": "address"
        },
        {
          "internalType": "uint8",
          "name": "streakType",
          "type": "uint8"
        }
      ],
      "name": "getAvailableRewards",
      "outputs": [
        {
          "internalType": "uint32[]",
          "name": "availableThresholds",
          "type": "uint32[]"
        }
      ],
      "stateMutability": "view",
      "type": "function"
    },
    {
      "inputs": [
        {
          "internalType": "uint8",
          "name": "streakType",
          "type": "uint8"
        }
      ],
      "name": "getRewardThresholds",
      "outputs": [
        {
          "internalType": "uint32[]",
          "name": "",
          "type": "uint32[]"
        }
      ],
      "stateMutability": "view",
      "type": "function"
    },
    {
      "inputs": [
        {
          "internalType": "bytes32",
          "name": "role",
          "type": "bytes32"
        }
      ],
      "name": "getRoleAdmin",
      "outputs": [
        {
          "internalType": "bytes32",
          "name": "",
          "type": "bytes32"
        }
      ],
      "stateMutability": "view",
      "type": "function"
    },
    {
      "inputs": [
        {
          "internalType": "bytes32",
          "name": "role",
          "type": "bytes32"
        },
        {
          "internalType": "address",
          "name": "account",
          "type": "address"
        }
      ],
      "name": "grantRole",
      "outputs": [],
      "stateMutability": "nonpayable",
      "type": "function"
    },
    {
      "inputs": [
        {
          "internalType": "bytes32",
          "name": "role",
          "type": "bytes32"
        },
        {
          "internalType": "address",
          "name": "account",
          "type": "address"
        }
      ],
      "name": "hasRole",
      "outputs": [
        {
          "internalType": "bool",
          "name": "",
          "type": "bool"
        }
      ],
      "stateMutability": "view",
      "type": "function"
    },
    {
      "inputs": [
        {
          "internalType": "address",
          "name": "_xpEngineAddress",
          "type": "address"
        },
        {
          "internalType": "address",
          "name": "_badgeMinterAddress",
          "type": "address"
        },
        {
          "internalType": "address",
          "name": "_streakCoreAddress",
          "type": "address"
        }
      ],
      "name": "initialize",
      "outputs": [],
      "stateMutability": "nonpayable",
      "type": "function"
    },
    {
      "inputs": [],
      "name": "pause",
      "outputs": [],
      "stateMutability": "nonpayable",
      "type": "function"
    },
    {
      "inputs": [],
      "name": "paused",
      "outputs": [
        {
          "internalType": "bool",
          "name": "",
          "type": "bool"
        }
      ],
      "stateMutability": "view",
      "type": "function"
    },
    {
      "inputs": [],
      "name": "proxiableUUID",
      "outputs": [
        {
          "internalType": "bytes32",
          "name": "",
          "type": "bytes32"
        }
      ],
      "stateMutability": "view",
      "type": "function"
    },
    {
      "inputs": [
        {
          "internalType": "bytes32",
          "name": "role",
          "type": "bytes32"
        },
        {
          "internalType": "address",
          "name": "callerConfirmation",
          "type": "address"
        }
      ],
      "name": "renounceRole",
      "outputs": [],
      "stateMutability": "nonpayable",
      "type": "function"
    },
    {
      "inputs": [
        {
          "internalType": "bytes32",
          "name": "role",
          "type": "bytes32"
        },
        {
          "internalType": "address",
          "name": "account",
          "type": "address"
        }
      ],
      "name": "revokeRole",
      "outputs": [],
      "stateMutability": "nonpayable",
      "type": "function"
    },
    {
      "inputs": [
        {
          "internalType": "uint8",
          "name": "",
          "type": "uint8"
        },
        {
          "internalType": "uint32",
          "name": "",
          "type": "uint32"
        }
      ],
      "name": "rewardBadgeURIs",
      "outputs": [
        {
          "internalType": "string",
          "name": "",
          "type": "string"
        }
      ],
      "stateMutability": "view",
      "type": "function"
    },
    {
      "inputs": [
        {
          "internalType": "uint8",
          "name": "",
          "type": "uint8"
        },
        {
          "internalType": "uint256",
          "name": "",
          "type": "uint256"
        }
      ],
      "name": "rewardThresholds",
      "outputs": [
        {
          "internalType": "uint32",
          "name": "",
          "type": "uint32"
        }
      ],
      "stateMutability": "view",
      "type": "function"
    },
    {
      "inputs": [],
      "name": "streakCore",
      "outputs": [
        {
          "internalType": "contract IStreakCore",
          "name": "",
          "type": "address"
        }
      ],
      "stateMutability": "view",
      "type": "function"
    },
    {
      "inputs": [
        {
          "internalType": "uint8",
          "name": "",
          "type": "uint8"
        },
        {
          "internalType": "uint32",
          "name": "",
          "type": "uint32"
        }
      ],
      "name": "streakRewards",
      "outputs": [
        {
          "internalType": "uint32",
          "name": "threshold",
          "type": "uint32"
        },
        {
          "internalType": "uint32",
          "name": "xpReward",
          "type": "uint32"
        },
        {
          "internalType": "uint32",
          "name": "multiplier",
          "type": "uint32"
        },
        {
          "internalType": "bool",
          "name": "isActive",
          "type": "bool"
        }
      ],
      "stateMutability": "view",
      "type": "function"
    },
    {
      "inputs": [
        {
          "internalType": "bytes4",
          "name": "interfaceId",
          "type": "bytes4"
        }
      ],
      "name": "supportsInterface",
      "outputs": [
        {
          "internalType": "bool",
          "name": "",
          "type": "bool"
        }
      ],
      "stateMutability": "view",
      "type": "function"
    },
    {
      "inputs": [],
      "name": "unpause",
      "outputs": [],
      "stateMutability": "nonpayable",
      "type": "function"
    },
    {
      "inputs": [
        {
          "internalType": "address",
          "name": "newImplementation",
          "type": "address"
        },
        {
          "internalType": "bytes",
          "name": "data",
          "type": "bytes"
        }
      ],
      "name": "upgradeToAndCall",
      "outputs": [],
      "stateMutability": "payable",
      "type": "function"
    },
    {
      "inputs": [],
      "name": "xpEngine",
      "outputs": [
        {
          "internalType": "contract IXPEngine",
          "name": "",
          "type": "address"
        }
      ],
      "stateMutability": "view",
      "type": "function"
    }
  ],
  "bytecode": "0x60a0806040523461002a5730608052613f1a90816100308239608051818181612d250152612e0a0152f35b600080fdfe608080604052600436101561001357600080fd5b60009060e08235811c91826301ffc9a71461325857508163248a9ca31461321e5781632f2ff15d146131d357816336568abe1461318b5781633f4ba83a14613113578163400bbf00146130bf5781634b813482146130575781634da2b44f14612fe65781634f1ef28614612d8f57816352d1902d14612d125781635316f5b4146128ec5781635a13d275146126f75781635c975abb146126c757816364f500e5146126705781636d750d80146126355781636e131ad61461260e578163750385b5146125e05781638456cb591461257857816389a87d2a146123ac57816391d1485414612353578163a217fddf14612337578163ad3cb1cc146122f1578163adbadee214611cf157508063adcf5ce314611cc8578063b5e449771461194e578063c0c53b8b14610242578063d547741f146101f3578063f1bd2fd71461018d5763fdcacdb31461016257600080fd5b3461018a578060031936011261018a576001546040516001600160a01b039091168152602090f35b80fd5b503461018a57604036600319011261018a5763ffffffff60406101ae6132e9565b9260ff6101b961330c565b9416815260046020522091166000526020526101ef6101db6040600020613499565b60405191829160208352602083019061341f565b0390f35b503461018a57604036600319011261018a5761023e6004356102136132ad565b90808452600080516020613eae8339815191526020526102396001604086200154613a6d565b613c89565b5080f35b503461018a57606036600319011261018a5761025c6132c3565b6102646132ad565b6001600160a01b03916044358381169190829003611949577ff0c57e16840df040f15088dc2f81fe391c3923bec73e23a9662efc9c229c6a00938454936001600160401b03851680159081611939575b600114908161192f575b159081611926575b506119145760016001600160401b0319861617865560ff8560401c16156118f5575b6102f0613e09565b6102f8613e09565b610300613e09565b610308613e09565b6001600080516020613eee8339815191525561032333613aa0565b5061032d33613b40565b50816bffffffffffffffffffffffff60a01b9316838854161787551681600154161760015560025416176002556040516103668161334d565b601781527f4461696c79204c6f67696e2033204461792042616467650000000000000000006020808301919091527fca07daebd4861e9083886162c0d902195fff5f971189091bcaa9991b136a86ab80546001600160681b0319166c010000006e000000640000000317905560036000527f17ef568e3e12ab5b9c7254a8d58478811de00f9e6eb34345acd53bf8fd09d3ec905280517fee69c65cdda9eb329ced9262963bb8486a7a0b875d65ea6fea5d6082f29d26d8916001600160401b0382116113c8576104408261043a855461345f565b8561353e565b602090601f8311600114611889576104719291600091836113de575b50508160011b916000199060031b1c19161790565b90555b6000805260056020527f05b8ccbb9d4d8fb16ea74ce3c29a41f1b461fbdaff4714a0d9a8eb05499746bc8054600160401b8110156113c8576104bb916001820181556133a4565b81549060031b9063ffffffff6003831b921b19161790556040516104de8161334d565b60168152754461696c79204c6f67696e205765656b20426164676560501b6020808301919091527f3623840a252a7c15db4ec244b2d1032b39f3c0961cebb93d08372f1f0961021c80546001600160681b0319166c01000000780000012c0000000717905560076000527f17ef568e3e12ab5b9c7254a8d58478811de00f9e6eb34345acd53bf8fd09d3ec905280517faf0fca14528dd0f92084e0b53d45b3666ff8f11dddf309eaf0e42fc7102834d2916001600160401b0382116113c8576105ab8261043a855461345f565b602090601f831160011461181d576105db9291600091836113de5750508160011b916000199060031b1c19161790565b90555b6000805260056020526106107f05b8ccbb9d4d8fb16ea74ce3c29a41f1b461fbdaff4714a0d9a8eb05499746bc613d0c565b60405161061c8161334d565b601781527f4461696c79204c6f67696e204d6f6e74682042616467650000000000000000006020808301919091527f0494d549135110b596d012d4bc0578d141ef390e2bc62146d2388398ef035ea580546001600160681b0319166c0100000096000003e80000001e179055601e6000527f17ef568e3e12ab5b9c7254a8d58478811de00f9e6eb34345acd53bf8fd09d3ec905280517f517e8acb50a4f997b263b755eeea09c884d32e874bb3c636fa16cf6c2513d404916001600160401b0382116113c8576106f08261043a855461345f565b602090601f83116001146117b1576107209291600091836113de5750508160011b916000199060031b1c19161790565b90555b6000805260056020527f05b8ccbb9d4d8fb16ea74ce3c29a41f1b461fbdaff4714a0d9a8eb05499746bc8054600160401b8110156113c85761076a916001820181556133a4565b81549060031b9063ffffffff601e831b921b191617905560405161078d8161334d565b601c81527f517565737420436f6d706c6574696f6e203520446179204261646765000000006020808301919091527f28e9ee75ff7f20824c25d4723851092a869ffac611a3eb059570d6e187e595ac80546001600160681b0319166c010000006e000000c80000000517905560056000527fabd6e7cb50984ff9c2f3e18a2660c3353dadf4e3291deeb275dae2cd1e44fe05905280517f9417635565144f98cdc337db16e3960dc472d5f2cec7490e80b187b96956e239916001600160401b0382116113c8576108618261043a855461345f565b602090601f8311600114611745576108919291600091836113de5750508160011b916000199060031b1c19161790565b90555b600160005260056020526108c77f1471eb6eb2c5e789fc3de43f8ce62938c7d1836ec861730447e2ada8fd81017b613d42565b6040516108d38161334d565b601d81527f517565737420436f6d706c6574696f6e203130204461792042616467650000006020808301919091527f9c6cb49fe837733732422cbf78e691b7621d2296ecdede56054c20b9beb86d9780546001600160681b0319166c010000007d000001f40000000a179055600a6000527fabd6e7cb50984ff9c2f3e18a2660c3353dadf4e3291deeb275dae2cd1e44fe05905280517f5d7e765428361d4e7a78b0b374bdccc39f20abe22627b725bef43630bbedcfbf916001600160401b0382116113c8576109a78261043a855461345f565b602090601f83116001146116d9576109d79291600091836113de5750508160011b916000199060031b1c19161790565b90555b60016000526005602052610a0d7f1471eb6eb2c5e789fc3de43f8ce62938c7d1836ec861730447e2ada8fd81017b613d78565b604051610a198161334d565b601d81527f517565737420436f6d706c6574696f6e203235204461792042616467650000006020808301919091527f4b6b63c4b464d56e9b3df0e89683782944f6db0267d5b0b0a97728403952367c80546001600160681b0319166c01000000a0000005dc0000001917905560196000527fabd6e7cb50984ff9c2f3e18a2660c3353dadf4e3291deeb275dae2cd1e44fe05905280517f79146039dfa805d5df81eaa0ebcebcbf8aa554ebbf02d3cf63833741a42a3899916001600160401b0382116113c857610aed8261043a855461345f565b602090601f831160011461166d57610b1d9291600091836113de5750508160011b916000199060031b1c19161790565b90555b600160005260056020527f1471eb6eb2c5e789fc3de43f8ce62938c7d1836ec861730447e2ada8fd81017b8054600160401b8110156113c857610b68916001820181556133a4565b81549060031b9063ffffffff6019831b921b1916179055604051610b8b8161334d565b601281527154726164696e67205765656b20426164676560701b6020808301919091527f12c53b7dfecb6f34e40fe42497c12ecc8c3c5ff824562a2c63180d8345f3139980546001600160681b0319166c0100000073000001900000000717905560076000527f91da3fd0782e51c6b3986e9e672fd566868e71f3dbc2d6c2cd6fbb3e361af2a7905280517fd578452560b625e0d9dc415d440a70e3eee78e1dd08881eca9cb59090162127f916001600160401b0382116113c857610c548261043a855461345f565b602090601f831160011461160157610c849291600091836113de5750508160011b916000199060031b1c19161790565b90555b60026000526005602052610cba7f89832631fb3c3307a103ba2c84ab569c64d6182a18893dcd163f0f1c2090733a613d0c565b604051610cc68161334d565b601481527354726164696e672033205765656b20426164676560601b6020808301919091527fcbf47e890cfe0ea7649b26e3dca152c8aec09c2d94287c2b17cc314c9bead3cc80546001600160681b0319166c010000008c000004b00000001517905560156000527f91da3fd0782e51c6b3986e9e672fd566868e71f3dbc2d6c2cd6fbb3e361af2a7905280517f30bf2cdc0bd3bd15342b4c3621753318ebd65a12a4903e9f564cab7fda9f6ed2916001600160401b0382116113c857610d918261043a855461345f565b602090601f831160011461159557610dc19291600091836113de5750508160011b916000199060031b1c19161790565b90555b600260005260056020527f89832631fb3c3307a103ba2c84ab569c64d6182a18893dcd163f0f1c2090733a8054600160401b8110156113c857610e0c916001820181556133a4565b81549060031b9063ffffffff6015831b921b1916179055604051610e2f8161334d565b6016815275476f7665726e616e636520352044617920426164676560501b6020808301919091527f1894fd0e41d99b56d28c1f24fb97a9b497e57dc1fd6819d17002662649ea3b4880546001600160681b0319166c01000000780000012c0000000517905560056000527f2e174c10e159ea99b867ce3205125c24a42d128804e4070ed6fcc8cc98166aa0905280517fec281f185d823a12129c16fc96d4e0a64e04204d9f68fa9ab19c2164a51ab2f9916001600160401b0382116113c857610efc8261043a855461345f565b602090601f831160011461152957610f2c9291600091836113de5750508160011b916000199060031b1c19161790565b90555b60036000526005602052610f627fa9bc9a3a348c357ba16b37005d7e6b3236198c0e939f4af8c5f19b8deeb8ebc0613d42565b604051610f6e8161334d565b601781527f476f7665726e616e6365203135204461792042616467650000000000000000006020808301919091527f5d5e865b803136fd1e79b1efdb09f3340c7f6fe5b06a13297b9fdd3b3329572a80546001600160681b0319166c0100000087000003200000000f179055600f6000527f2e174c10e159ea99b867ce3205125c24a42d128804e4070ed6fcc8cc98166aa0905280517fdefc5b1bd30d1dbf195238cfd3e1e386ecf97db0626aafe7cf625076a7d8621d916001600160401b0382116113c8576110428261043a855461345f565b602090601f83116001146114bd576110729291600091836113de5750508160011b916000199060031b1c19161790565b90555b600360005260056020527fa9bc9a3a348c357ba16b37005d7e6b3236198c0e939f4af8c5f19b8deeb8ebc08054600160401b8110156113c8576110bd916001820181556133a4565b81549060031b9063ffffffff600f831b921b19161790556040516110e08161334d565b6013815272536f6369616c2031302044617920426164676560681b6020808301919091527fcd537826f2e0ab32f2dd0b9011ec179120b6d7ed2ab0f6d436842a1f2a2abed080546001600160681b0319166c010000006e000000fa0000000a179055600a6000527f1a1e6821cde7d0159c0d293177871e09677b4e42307c7db3ba94f8648a5a050f905280517fe18a141aaa21ca210100d9dd633d433ab4284ac70d807d70b876a56d38e38ecf916001600160401b0382116113c8576111aa8261043a855461345f565b602090601f8311600114611451576111da9291600091836113de5750508160011b916000199060031b1c19161790565b90555b600460005260056020526112107f3eec716f11ba9e820c81ca75eb978ffb45831ef8b7a53e5e422c26008e1ca6d5613d78565b60405161121c8161334d565b6013815272536f6369616c2032302044617920426164676560681b6020808301919091527f21c1c1ea788d65569fa1e0e79d17d143f08490bb64c89336ce53a4fad25fabf780546001600160681b0319166c0100000082000002580000001417905560146000527f1a1e6821cde7d0159c0d293177871e09677b4e42307c7db3ba94f8648a5a050f905280517fa7f543e1a33a87a4feaa9fa5af750099a442df4c09f3d2ddce01056081cd1207916001600160401b0382116113c8576112e68261043a855461345f565b602090601f83116001146113e9576113169291600091836113de5750508160011b916000199060031b1c19161790565b90555b600460005260056020527f3eec716f11ba9e820c81ca75eb978ffb45831ef8b7a53e5e422c26008e1ca6d580549190600160401b8310156113c8578261136691600160ff950181556133a4565b81549060031b9063ffffffff6014831b921b191617905560401c161561138a575080f35b68ff00000000000000001981541690557fc7f505b2f371ae2175ee4913f4499e1f2633a7b5936321eed1cdaeb6115181d2602060405160018152a180f35b634e487b7160e01b600052604160045260246000fd5b01519050388061045c565b90601f198316918460005260206000209260005b8181106114395750908460019594939210611420575b505050811b019055611319565b015160001960f88460031b161c19169055388080611413565b929360206001819287860151815501950193016113fd565b9190836000526020600020906000935b601f19841685106114a2576001945083601f19811610611489575b505050811b0190556111dd565b015160001960f88460031b161c1916905538808061147c565b81810151835560209485019460019093019290910190611461565b9190836000526020600020906000935b601f198416851061150e576001945083601f198116106114f5575b505050811b019055611075565b015160001960f88460031b161c191690553880806114e8565b818101518355602094850194600190930192909101906114cd565b9190836000526020600020906000935b601f198416851061157a576001945083601f19811610611561575b505050811b019055610f2f565b015160001960f88460031b161c19169055388080611554565b81810151835560209485019460019093019290910190611539565b9190836000526020600020906000935b601f19841685106115e6576001945083601f198116106115cd575b505050811b019055610dc4565b015160001960f88460031b161c191690553880806115c0565b818101518355602094850194600190930192909101906115a5565b9190836000526020600020906000935b601f1984168510611652576001945083601f19811610611639575b505050811b019055610c87565b015160001960f88460031b161c1916905538808061162c565b81810151835560209485019460019093019290910190611611565b9190836000526020600020906000935b601f19841685106116be576001945083601f198116106116a5575b505050811b019055610b20565b015160001960f88460031b161c19169055388080611698565b8181015183556020948501946001909301929091019061167d565b9190836000526020600020906000935b601f198416851061172a576001945083601f19811610611711575b505050811b0190556109da565b015160001960f88460031b161c19169055388080611704565b818101518355602094850194600190930192909101906116e9565b9190836000526020600020906000935b601f1984168510611796576001945083601f1981161061177d575b505050811b019055610894565b015160001960f88460031b161c19169055388080611770565b81810151835560209485019460019093019290910190611755565b9190836000526020600020906000935b601f1984168510611802576001945083601f198116106117e9575b505050811b019055610723565b015160001960f88460031b161c191690553880806117dc565b818101518355602094850194600190930192909101906117c1565b9190836000526020600020906000935b601f198416851061186e576001945083601f19811610611855575b505050811b0190556105de565b015160001960f88460031b161c19169055388080611848565b8181015183556020948501946001909301929091019061182d565b9190836000526020600020906000935b601f19841685106118da576001945083601f198116106118c1575b505050811b019055610474565b015160001960f88460031b161c191690553880806118b4565b81810151835560209485019460019093019290910190611899565b68ffffffffffffffffff198516680100000000000000011786556102e8565b60405163f92ee8a960e01b8152600490fd5b905015386102c6565b303b1591506102be565b604087901c60ff161591506102b4565b600080fd5b503461018a57604036600319011261018a576119686132e9565b61197061330c565b611978613dae565b611980613dd9565b60ff82169160048311611cb6573384526020600681526040852084600052815260406000209263ffffffff8091169384600052825260ff60406000205416611ca45784865260038252604086208460005282526040600020604051906119e582613332565b548281168252838201918382861c16835260ff6040820192858160401c16845260601c16159060608215910152611c925760025460405163e58b21c360e01b815233600482015260ff9690961660248701526001600160a01b0395908590829060449082908a165afa908115611c8757879185918b91611c5a575b501610611c4857338852600684526040882087600052845260406000208660005284526040600020600160ff198254161790558780958484511680611bd4575b508882526004865260408220886000528652611abf6040600020613499565b908151611b4d575b5050508290511660648111611b24575b5051169060405193845283015260408201527fb2c109330fbb53a49ac28d45562a563f660109afe207598d9e5b6379debe0f5960603392a36001600080516020613eee8339815191525580f35b338852600784526040882087600052845260406000209063ffffffff1982541617905538611ad7565b869293975090611b79916001541690604051948580948193630d6575f960e31b83523360048401613a0e565b03925af18015611bc95783918991611b98575b50949050873880611ac7565b809250858092503d8311611bc2575b611bb18183613368565b810103126119495782905138611b8c565b503d611ba7565b6040513d8a823e3d90fd5b81835416803b15611c4457604051630c4f349360e01b815233600482015263ffffffff92909216602483015283908290604490829084905af1908115611c39578391611c21575b50611aa0565b611c2a9061331f565b611c35578138611c1b565b5080fd5b6040513d85823e3d90fd5b8380fd5b60405163135c159360e01b8152600490fd5b611c7a9150873d8911611c80575b611c728183613368565b8101906135dd565b38611a60565b503d611c68565b6040513d8b823e3d90fd5b60405163f6dc03f760e01b8152600490fd5b604051630c8d9eab60e31b8152600490fd5b6040516310612f4b60e01b8152600490fd5b503461018a578060031936011261018a576002546040516001600160a01b039091168152602090f35b905034611c35576020918260031936011261018a57611d0e6132e9565b92611d17613dae565b611d1f613dd9565b60ff9060ff85169160048311611cb65760025460405163e58b21c360e01b815233600482015260ff9790971660248801526001600160a01b039083908890604490829085165afa9687156122e65785976122c7575b5083855260058352604085209560405184819889928282549182815201918a52828a20948a915b80600784011061225457611df69654928582821061223e575b828210612226575b82821061220d575b8282106121f4575b8282106121db575b8282106121c2575b8282106121a9575b501061219c575b505090500387613368565b84611e0187516135ab565b918698875b895181101561203f5763ffffffff80611e1f838d6135f9565b511680828516101580612014575b80611ff2575b611e42575b5050600101611e06565b898b526003895260408b20816000528952604060002060405190611e6582613332565b549183831682528a82019184848d1c1683526040810193858160401c1685528b606091821c161515910152338d5260068b5260408d208c6000528b526040600020816000528b52836040600020926001938460ff19825416179055511680611fcb575b508b8d5260048b5260408d20906000528a52611ee76040600020613499565b908151611f31575b505051600192911660648111611f08575b819250611e38565b338b526007895260408b208a600052895260406000209063ffffffff1982541617905538611f00565b611f5e929e9493928d92888d93541690604051948580948193630d6575f960e31b83523360048401613a0e565b03925af1908115611fc0578c91611f92575b5083611f8891611f826001968b6135f9565b5261360d565b9c90919238611eef565b90508981813d8311611fb9575b611fa98183613368565b8101031261194957516001611f70565b503d611f9f565b6040513d8e823e3d90fd5b9097841601838111611fde579638611ec8565b634e487b7160e01b8d52601160045260248dfd5b50898b526003895260408b208160005289528760406000205460601c16611e33565b50338b526006895260408b208a60005289526040600020816000528952876040600020541615611e2d565b88858863ffffffff87168e811589898280612194575b61218257879215612112575b50505061206d816135ab565b93855b8281106120f35750505090604051916040830190835260408284015283518091528160608401940191855b8281106120df5786337f7ba70f706a3e2f61c8f68fc0c6238061340ed7e51e8598774654727a827fa7dc87890388a26001600080516020613eee8339815191525580f35b83518652948101949281019260010161209b565b80612100600192846135f9565b5161210b82896135f9565b5201612070565b825416803b1561217e57604051630c4f349360e01b815233600482015263ffffffff92909216602483015282908290604490829084905af180156121735761215b575b80612061565b6121649061331f565b61216f578486612155565b8480fd5b6040513d84823e3d90fd5b8280fd5b60405163afb0be3360e01b8152600490fd5b508315612055565b1c81520185903880611deb565b6001919563ffffffff8660c01c16815201940185611de4565b6001919563ffffffff8660a01c16815201940185611ddc565b6001919563ffffffff8660801c16815201940185611dd4565b6001919563ffffffff8660601c16815201940185611dcc565b6001919563ffffffff8660401c16815201940185611dc4565b6001919563ffffffff86831c16815201940185611dbc565b6001919563ffffffff8616815201940185611db4565b9260089295506001919450610100908754808c63ffffffff91829182821686521c168d840152808260401c16604084015260608183821c169084015260808183821c169084015260a08183821c169084015260c09082821c1690830152861c86820152019501930187928b949592611d9b565b6122df919750833d8511611c8057611c728183613368565b9538611d74565b6040513d87823e3d90fd5b823461018a578060031936011261018a576101ef6040516123118161334d565b60058152640352e302e360dc1b602082015260405191829160208352602083019061341f565b823461018a578060031936011261018a57602090604051908152f35b823461018a57604036600319011261018a57604061236f6132ad565b916004358152600080516020613eae833981519152602052209060018060a01b0316600052602052602060ff604060002054166040519015158152f35b905034611c35576020918260031936011261018a5760ff6123cb6132e9565b168152600583526040812090604051928385845491828152019383528583205b81600785011061251257926101ef969261244f959287955492858282106124fc575b8282106124e4575b8282106124cb575b8282106124b2575b828210612499575b828210612480575b828210612467575b501061245b575b505090500382613368565b604051918291826133dd565b1c815201803880612444565b6001919563ffffffff8660c01c1681520194018561243d565b6001919563ffffffff8660a01c16815201940185612435565b6001919563ffffffff8660801c1681520194018561242d565b6001919563ffffffff8660601c16815201940185612425565b6001919563ffffffff8660401c1681520194018561241d565b6001919563ffffffff86831c16815201940185612415565b6001919563ffffffff861681520194018561240d565b936001610100600892875463ffffffff808216835280828d1c168c840152808260401c16604084015260608183821c169084015260808183821c169084015260a08183821c169084015260c09082821c1690830152861c868201520195019301926123eb565b823461018a578060031936011261018a57612591613a33565b612599613dae565b600080516020613ece833981519152600160ff198254161790557f62e78cea01bee320cd4e420270b5ea74000d11b0c9f74754ebdbfc544b05a2586020604051338152a180f35b823461018a57604036600319011261018a576101ef61244f6126006132c3565b6126086132d9565b90613632565b823461018a578060031936011261018a57546040516001600160a01b039091168152602090f35b823461018a578060031936011261018a5760206040517f0f51adb3f49e4a9bbb17b3783f025995eaf8c24be2c8eefff214bdfda05ef94d8152f35b823461018a57604036600319011261018a5761268a6132e9565b60ff1681526005602052604081208054602435929083101561018a57602063ffffffff6126b785856133a4565b9190546040519260031b1c168152f35b823461018a578060031936011261018a57602060ff600080516020613ece83398151915254166040519015158152f35b823461018a57606036600319011261018a576127116132c3565b6127196132d9565b906127226132f9565b7f0f51adb3f49e4a9bbb17b3783f025995eaf8c24be2c8eefff214bdfda05ef94d808552600080516020613eae8339815191526020526040852033865260205260ff604086205416156128ce5750612778613dae565b60018060a01b039182811692838652600760205260ff6040872095169485875260205263ffffffff918260408820541693606485116127b5578780f35b60631985018481116128ba57848091169116028381169081036128a65760648891049281541691823b15611c3557604051630c4f349360e01b81526001600160a01b0391909116600482015263ffffffff84166024820152918290604490829084905af1801561289b57612861575b5060408051938452911660208301527f075f66147d964e6e40d6fea3ac80467340f620d406dd102f52a3af7e3e27d53a91a3818080808080808780f35b917f075f66147d964e6e40d6fea3ac80467340f620d406dd102f52a3af7e3e27d53a93919661289160409461331f565b9691935091612824565b6040513d89823e3d90fd5b634e487b7160e01b88526011600452602488fd5b634e487b7160e01b89526011600452602489fd5b6044906040519063e2517d3f60e01b82523360048301526024820152fd5b823461018a5760a036600319011261018a576129066132e9565b61290e61330c565b6129166132f9565b63ffffffff6064351660643503611c44576001600160401b03806084351161216f5736602360843501121561216f576084356004013511611c445760249236846084356004013560843501011161216f5760ff90612972613a33565b169260048411611cb65763ffffffff831615612d005783855260036020526040852063ffffffff841686526020526040852063ffffffff81541615612bbf575b600160601b63ffffffff85166cffffffffffffffffffffffffff198354161767ffffffff000000008560201b16176bffffffff000000000000000060643560401b161717905560843560040135612a4f575b507f7b2e448349712f12d6f93bd08860e7e3f9ed122c253d78643c71ba2b1095053a9163ffffffff606092816040519316835216602082015263ffffffff606435166040820152a280f35b83855260046020526040852063ffffffff841686526020526040852090612a8660843560040135612a80845461345f565b8461353e565b8590601f6084356004013511600114612b0f57927f7b2e448349712f12d6f93bd08860e7e3f9ed122c253d78643c71ba2b1095053a9492612af463ffffffff936060968a9160843560040135612b00575b505060843560040135908160011b916000199060031b1c19161790565b90555b92505091612a04565b60843501013590508a80612ad7565b82875260208720919060046084350135601f1916885b818110612ba3575092606095927f7b2e448349712f12d6f93bd08860e7e3f9ed122c253d78643c71ba2b1095053a97959263ffffffff956084356004013511612b7f575b505050600160843560040135811b019055612af7565b60001960f86084356004013560031b161c1991608435010135169055888080612b69565b9293602060018192858860843501013581550195019301612b25565b84865260056020526040862080549081885b818110612cce575b50600160401b811015612cbb57806001612bf692018355826133a4565b63ffffffff82549160031b1b19169055805460001990818101908111612c9557908792915b848111612c52575050612c4d92612c31916133a4565b90919063ffffffff8084549260031b9316831b921b1916179055565b6129b2565b90809293508101818111612ca85763ffffffff612c72612c8492866133a4565b90549060031b1c16612c3183866133a4565b8015612c9557810190879291612c1b565b634e487b7160e01b8a526011600452858afd5b634e487b7160e01b8b526011600452868bfd5b634e487b7160e01b895260416004528489fd5b63ffffffff612cdd82856133a4565b828b9392931692549060031b1c1611612cf857600101612bd1565b925089612bd9565b60405163aabd5a0960e01b8152600490fd5b823461018a578060031936011261018a577f00000000000000000000000000000000000000000000000000000000000000006001600160a01b03163003612d7d5760206040517f360894a13ba1a3210667c828492db98dca3e2076cc3735a920a3ca505d382bbc8152f35b60405163703e46dd60e11b8152600490fd5b82604036600319011261018a57612da46132c3565b60249182356001600160401b038111611c355736602382011215611c35578060040135612dd081613389565b93612dde6040519586613368565b8185526020918286019336888383010111612fe257818692898693018737870101526001600160a01b037f00000000000000000000000000000000000000000000000000000000000000008116308114908115612fb4575b50612d7d57612e43613a33565b8116946040516352d1902d60e01b815283816004818a5afa869181612f81575b50612e8057604051634c9c8ce360e01b8152600481018890528890fd5b8690887f360894a13ba1a3210667c828492db98dca3e2076cc3735a920a3ca505d382bbc91828103612f6c5750843b15612f56575080546001600160a01b031916821790556040518692917fbc7cd75a20ee27fd9adebab32041f755214dbc6bffa90cc0225b39da2e5c2d3b8480a2815115612f38575061023e9482915190845af4903d15612f2f573d612f1381613389565b90612f216040519283613368565b81528581943d92013e613e4a565b60609250613e4a565b94505050505034612f47575080f35b63b398979f60e01b8152600490fd5b604051634c9c8ce360e01b815260048101849052fd5b60405190632a87526960e21b82526004820152fd5b9091508481813d8311612fad575b612f998183613368565b81010312612fa957519089612e63565b8680fd5b503d612f8f565b9050817f360894a13ba1a3210667c828492db98dca3e2076cc3735a920a3ca505d382bbc5416141588612e36565b8580fd5b823461018a57604036600319011261018a5760809060ff60406130076132e9565b928261301161330c565b94168152600360205281812063ffffffff80951682526020522054604051928082168452808260201c1660208501528160401c16604084015260601c1615156060820152f35b823461018a57606036600319011261018a5760ff60406020926130786132c3565b6130806132d9565b6130886132f9565b6001600160a01b039092168352600686528383209085168352855282822063ffffffff909116825284522054604051911615158152f35b823461018a57604036600319011261018a5763ffffffff60406020926130e36132c3565b6130eb6132d9565b6001600160a01b0390911682526007855282822060ff90911682528452205460405191168152f35b823461018a578060031936011261018a5761312c613a33565b600080516020613ece833981519152805460ff8116156131795760ff191690557f5db9ee0a495bf2e6ff9c91a7834c1ba4fdd244a5e8aa4e537bd38aeae4b073aa6020604051338152a180f35b604051638dfc202b60e01b8152600490fd5b823461018a57604036600319011261018a576131a56132ad565b336001600160a01b038216036131c15761023e90600435613c89565b60405163334bd91960e11b8152600490fd5b823461018a57604036600319011261018a5761023e6004356131f36132ad565b90808452600080516020613eae8339815191526020526132196001604086200154613a6d565b613c02565b823461018a57602036600319011261018a57600160406020926004358152600080516020613eae8339815191528452200154604051908152f35b839034611c35576020366003190112611c355760043563ffffffff60e01b811680910361217e5760209250637965db0b60e01b811490811561329c575b5015158152f35b6301ffc9a760e01b14905083613295565b602435906001600160a01b038216820361194957565b600435906001600160a01b038216820361194957565b6024359060ff8216820361194957565b6004359060ff8216820361194957565b6044359063ffffffff8216820361194957565b6024359063ffffffff8216820361194957565b6001600160401b0381116113c857604052565b608081019081106001600160401b038211176113c857604052565b604081019081106001600160401b038211176113c857604052565b90601f801991011681019081106001600160401b038211176113c857604052565b6001600160401b0381116113c857601f01601f191660200190565b91909180548310156133c757600052601c60206000208360031c019260021b1690565b634e487b7160e01b600052603260045260246000fd5b602090602060408183019282815285518094520193019160005b828110613405575050505090565b835163ffffffff16855293810193928101926001016133f7565b919082519283825260005b84811061344b575050826000602080949584010152601f8019910116010190565b60208183018101518483018201520161342a565b90600182811c9216801561348f575b602083101461347957565b634e487b7160e01b600052602260045260246000fd5b91607f169161346e565b906040519182600082546134ac8161345f565b9081845260209460019160018116908160001461351c57506001146134dd575b5050506134db92500383613368565b565b600090815285812095935091905b8183106135045750506134db93508201013880806134cc565b855488840185015294850194879450918301916134eb565b925050506134db94925060ff191682840152151560051b8201013880806134cc565b90601f811161354c57505050565b6000916000526020600020906020601f850160051c8301941061358a575b601f0160051c01915b82811061357f57505050565b818155600101613573565b909250829061356a565b6001600160401b0381116113c85760051b60200190565b906135b582613594565b6135c26040519182613368565b82815280926135d3601f1991613594565b0190602036910137565b90816020910312611949575163ffffffff811681036119495790565b80518210156133c75760209160051b010190565b600019811461361c5760010190565b634e487b7160e01b600052601160045260246000fd5b919060ff9260ff821693600485116139e1576002546040805163e58b21c360e01b81526001600160a01b03858116600483015260ff969096166024820152969091602091908290899060449082908a165afa9788156139d6576000986139b7575b508195816000526005835283600020845190819881818b935494858152019060005281600020936000905b8060078301106139455761371a9554918482821061392f575b828210613917575b8b8383106138fe575b508282106138e5575b8282106138cc575b8282106138b3575b82821061389a575b501061388c575b5090500388613368565b60009660005b81518110156137c25763ffffffff8061373983856135f9565b511680918d1610159081613794575b81613770575b5061375c575b600101613720565b9761376860019161360d565b989050613754565b905084600052600386528660002090600052855286866000205460601c163861374e565b9050838916600052600686528660002085600052865286600020816000528652878760002054161590613748565b509598966137cf906135ab565b9660009660005b815181101561387f5763ffffffff8a816137f084866135f9565b511680928616101580613851575b8061382d575b613813575b50506001016137d6565b9961382591611f82826001959d6135f9565b98908a613809565b50508560005260038752876000208160005287528a89896000205460601c16613804565b5050848d166000526006875287600020866000528752876000208160005287528a89896000205416156137fe565b5050505050505050509150565b60e01c815201859038613710565b6001919463ffffffff8560c01c16815201930184613709565b6001919463ffffffff8560a01c16815201930184613701565b6001919463ffffffff8560801c168152019301846136f9565b6001919463ffffffff8560601c168152019301846136f1565b9463ffffffff85600194971c168152019301848b6136e8565b6001919463ffffffff85831c168152019301846136df565b6001919463ffffffff85168152019301846136d7565b92509250600161010060089286548b8b8263ffffffff92839283831687528383821c16908701521c168d84015260608183821c169084015260808183821c169084015260a08183821c169084015260c09082821c169083015260e090811c908201520194019201928a929387926136be565b6139cf919850823d8411611c8057611c728183613368565b9638613693565b83513d6000823e3d90fd5b5050509050604051602081018181106001600160401b038211176113c85760405260008152600036813790565b6001600160a01b039091168152604060208201819052613a309291019061341f565b90565b3360009081527fb7db2dd08fcb62d0c9e08c51941cae53c267786a0b75803fb7960902fc8ef97d602052604081205460ff16156128ce5750565b80600052600080516020613eae83398151915260205260406000203360005260205260ff60406000205416156128ce5750565b6001600160a01b031660008181527fb7db2dd08fcb62d0c9e08c51941cae53c267786a0b75803fb7960902fc8ef97d6020526040812054909190600080516020613eae8339815191529060ff16613b3b578280526020526040822081835260205260408220600160ff1982541617905533917f2f8788117e7eff1d82e926ec794901d17c78024a50270940304540a733656f0d8180a4600190565b505090565b6001600160a01b031660008181527f98dafdfbfb28cc7383b6dba209d26804e020844a26b28880cd6eded2cf7b5d3560205260408120549091907f0f51adb3f49e4a9bbb17b3783f025995eaf8c24be2c8eefff214bdfda05ef94d90600080516020613eae8339815191529060ff16613bfc578184526020526040832082845260205260408320600160ff198254161790557f2f8788117e7eff1d82e926ec794901d17c78024a50270940304540a733656f0d339380a4600190565b50505090565b90600091808352600080516020613eae83398151915280602052604084209260018060a01b03169283855260205260ff60408520541615600014613bfc578184526020526040832082845260205260408320600160ff198254161790557f2f8788117e7eff1d82e926ec794901d17c78024a50270940304540a733656f0d339380a4600190565b90600091808352600080516020613eae83398151915280602052604084209260018060a01b03169283855260205260ff604085205416600014613bfc57818452602052604083208284526020526040832060ff1981541690557ff6391f5c32d9c69d2a47ea670b442974b53935d1edc7fd64eb21e047a839171b339380a4600190565b8054600160401b8110156113c857613d29916001820181556133a4565b81549060031b9063ffffffff6007831b921b1916179055565b8054600160401b8110156113c857613d5f916001820181556133a4565b81549060031b9063ffffffff6005831b921b1916179055565b8054600160401b8110156113c857613d95916001820181556133a4565b81549060031b9063ffffffff600a831b921b1916179055565b60ff600080516020613ece8339815191525416613dc757565b60405163d93c066560e01b8152600490fd5b600080516020613eee8339815191526002815414613df75760029055565b604051633ee5aeb560e01b8152600490fd5b60ff7ff0c57e16840df040f15088dc2f81fe391c3923bec73e23a9662efc9c229c6a005460401c1615613e3857565b604051631afcd79f60e31b8152600490fd5b90613e715750805115613e5f57602081519101fd5b60405163d6bda27560e01b8152600490fd5b81511580613ea4575b613e82575090565b604051639996b31560e01b81526001600160a01b039091166004820152602490fd5b50803b15613e7a56fe02dd7bc7dec4dceedda775e58dd541e08a116c6c53815c0bd028192f7b626800cd5ed15c6e187e77e9aee88184c21f4f2182ab5827cb3b7e07fbedcd63f033009b779b17422d0df92223018b32b4d1fa46e071723d6817e2486d003becc55f00a164736f6c6343000816000a",
  "linkReferences": {},
  "deployedLinkReferences": {}
}