{
  "_format": "hh-sol-artifact-1",
  "contractName": "MockBatchOperations",
  "sourceName": "contracts/test/MockBatchOperations.sol",
  "abi": [
    {
      "inputs": [],
      "name": "ArrayLengthMismatch",
      "type": "error"
    },
    {
      "inputs": [
        {
          "internalType": "uint256",
          "name": "maxAllowed",
          "type": "uint256"
        },
        {
          "internalType": "uint256",
          "name": "current",
          "type": "uint256"
        }
      ],
      "name": "BatchSizeExceeded",
      "type": "error"
    },
    {
      "inputs": [],
      "name": "EmptyArrays",
      "type": "error"
    },
    {
      "inputs": [
        {
          "internalType": "uint256[]",
          "name": "data",
          "type": "uint256[]"
        },
        {
          "internalType": "uint256",
          "name": "gasPerItem",
          "type": "uint256"
        }
      ],
      "name": "testCalculateBatchProcessingParams",
      "outputs": [
        {
          "internalType": "uint256",
          "name": "totalItems",
          "type": "uint256"
        },
        {
          "internalType": "uint256",
          "name": "optimalBatchSize",
          "type": "uint256"
        },
        {
          "internalType": "uint256",
          "name": "estimatedGas",
          "type": "uint256"
        }
      ],
      "stateMutability": "view",
      "type": "function"
    },
    {
      "inputs": [
        {
          "internalType": "uint256[]",
          "name": "amounts",
          "type": "uint256[]"
        }
      ],
      "name": "testCalculateBatchSum",
      "outputs": [
        {
          "internalType": "uint256",
          "name": "",
          "type": "uint256"
        },
        {
          "internalType": "bool",
          "name": "",
          "type": "bool"
        }
      ],
      "stateMutability": "pure",
      "type": "function"
    },
    {
      "inputs": [
        {
          "internalType": "uint256",
          "name": "totalItems",
          "type": "uint256"
        },
        {
          "internalType": "uint256",
          "name": "gasPerItem",
          "type": "uint256"
        },
        {
          "internalType": "uint256",
          "name": "gasLimit",
          "type": "uint256"
        }
      ],
      "name": "testCalculateOptimalBatchSize",
      "outputs": [
        {
          "internalType": "uint256",
          "name": "",
          "type": "uint256"
        }
      ],
      "stateMutability": "pure",
      "type": "function"
    },
    {
      "inputs": [
        {
          "internalType": "address[]",
          "name": "addresses",
          "type": "address[]"
        }
      ],
      "name": "testHasDuplicateAddresses",
      "outputs": [
        {
          "internalType": "bool",
          "name": "",
          "type": "bool"
        }
      ],
      "stateMutability": "pure",
      "type": "function"
    },
    {
      "inputs": [
        {
          "internalType": "address[]",
          "name": "users",
          "type": "address[]"
        },
        {
          "internalType": "uint256[]",
          "name": "values1",
          "type": "uint256[]"
        },
        {
          "internalType": "uint256[]",
          "name": "values2",
          "type": "uint256[]"
        },
        {
          "internalType": "uint32[]",
          "name": "flags",
          "type": "uint32[]"
        }
      ],
      "name": "testPackBatchUserData",
      "outputs": [
        {
          "internalType": "bytes",
          "name": "",
          "type": "bytes"
        }
      ],
      "stateMutability": "pure",
      "type": "function"
    },
    {
      "inputs": [
        {
          "internalType": "bytes",
          "name": "packedData",
          "type": "bytes"
        }
      ],
      "name": "testUnpackBatchUserData",
      "outputs": [
        {
          "components": [
            {
              "internalType": "address",
              "name": "user",
              "type": "address"
            },
            {
              "internalType": "uint256",
              "name": "value1",
              "type": "uint256"
            },
            {
              "internalType": "uint256",
              "name": "value2",
              "type": "uint256"
            },
            {
              "internalType": "uint32",
              "name": "flags",
              "type": "uint32"
            }
          ],
          "internalType": "struct BatchOperations.BatchUserData[]",
          "name": "",
          "type": "tuple[]"
        }
      ],
      "stateMutability": "pure",
      "type": "function"
    },
    {
      "inputs": [
        {
          "internalType": "address[]",
          "name": "addresses",
          "type": "address[]"
        }
      ],
      "name": "testValidateAddressBatch",
      "outputs": [
        {
          "internalType": "bool",
          "name": "",
          "type": "bool"
        }
      ],
      "stateMutability": "pure",
      "type": "function"
    },
    {
      "inputs": [
        {
          "internalType": "uint256[]",
          "name": "amounts",
          "type": "uint256[]"
        },
        {
          "internalType": "uint256",
          "name": "minAmount",
          "type": "uint256"
        },
        {
          "internalType": "uint256",
          "name": "maxAmount",
          "type": "uint256"
        }
      ],
      "name": "testValidateAmountBatch",
      "outputs": [
        {
          "internalType": "bool",
          "name": "",
          "type": "bool"
        }
      ],
      "stateMutability": "pure",
      "type": "function"
    },
    {
      "inputs": [
        {
          "internalType": "uint256",
          "name": "length",
          "type": "uint256"
        },
        {
          "internalType": "uint256",
          "name": "maxSize",
          "type": "uint256"
        }
      ],
      "name": "testValidateArray",
      "outputs": [],
      "stateMutability": "pure",
      "type": "function"
    },
    {
      "inputs": [
        {
          "internalType": "uint256",
          "name": "length1",
          "type": "uint256"
        },
        {
          "internalType": "uint256",
          "name": "length2",
          "type": "uint256"
        },
        {
          "internalType": "uint256",
          "name": "maxSize",
          "type": "uint256"
        }
      ],
      "name": "testValidateArrays",
      "outputs": [],
      "stateMutability": "pure",
      "type": "function"
    },
    {
      "inputs": [
        {
          "components": [
            {
              "internalType": "address",
              "name": "to",
              "type": "address"
            },
            {
              "internalType": "uint256",
              "name": "amount",
              "type": "uint256"
            }
          ],
          "internalType": "struct BatchOperations.BatchTransfer[]",
          "name": "transfers",
          "type": "tuple[]"
        }
      ],
      "name": "testValidateBatchTransfers",
      "outputs": [
        {
          "components": [
            {
              "internalType": "uint256",
              "name": "successCount",
              "type": "uint256"
            },
            {
              "internalType": "uint256",
              "name": "failureCount",
              "type": "uint256"
            },
            {
              "internalType": "uint256",
              "name": "totalGasUsed",
              "type": "uint256"
            },
            {
              "internalType": "bytes[]",
              "name": "errors",
              "type": "bytes[]"
            }
          ],
          "internalType": "struct BatchOperations.BatchResult",
          "name": "",
          "type": "tuple"
        }
      ],
      "stateMutability": "view",
      "type": "function"
    }
  ],
  "bytecode": "0x6080806040523461001657610c5e908161001c8239f35b600080fdfe6080604052600436101561001257600080fd5b60003560e01c806327822837146100c75780633d3ae778146100c25780634d71bc46146100bd5780634ed5dc68146100b857806369a563bc146100b35780636f9b915b146100ae578063731b90e1146100a95780637997e51e146100a45780637cb684b01461009f578063d8e07b361461009a5763eb2954011461009557600080fd5b61065c565b6105f6565b6104d3565b6103f0565b6103cf565b6103a9565b61033a565b6102e2565b610265565b6101d4565b610102565b9181601f840112156100fd5782359167ffffffffffffffff83116100fd576020808501948460051b0101116100fd57565b600080fd5b346100fd5760403660031901126100fd5760043567ffffffffffffffff81116100fd576101339036906004016100cc565b60243591508015610193575a60508102908082046050149015171561018e5761016d610166606461018a93048585610a9c565b9383610834565b604051938493846040919493926060820195825260208201520152565b0390f35b610808565b60405163a600c81d60e01b8152600490fd5b60206003198201126100fd576004359067ffffffffffffffff82116100fd576101d0916004016100cc565b9091565b346100fd5760206101ed6101e7366101a5565b9061089c565b6040519015158152f35b60208082019080835283518092528060408094019401926000905b83821061022157505050505090565b845180516001600160a01b031687528084015187850152808201518783015260609081015163ffffffff169087015260809095019493820193600190910190610212565b346100fd5760203660031901126100fd5767ffffffffffffffff6004358181116100fd57366023820112156100fd5780600401359182116100fd5736602483830101116100fd5761018a9160246102bc92016109cc565b604051918291826101f7565b60609060031901126100fd57600435906024359060443590565b346100fd576102f0366102c8565b9082156101935782036103285780821161030657005b60405163f80a484560e01b815260048101919091526024810191909152604490fd5b60405163512509d360e11b8152600490fd5b346100fd57610348366101a5565b600061035382610a8b565b906000906000935b818510610374575b604080518581528415156020820152f35b9091928460051b820135810190808210610397575060019094019392919061035b565b93505050506040915060013880610363565b346100fd5760403660031901126100fd5760043560243581156101935780821161030657005b346100fd5760206103e86103e2366102c8565b91610a9c565b604051908152f35b346100fd5760603660031901126100fd5760043567ffffffffffffffff81116100fd576104219036906004016100cc565b906024359160443561043282610a8b565b60019360019360005b848110610450575b6040518615158152602090f35b8060051b8201358385821191101761046957860161043b565b5050505050505061018a60003880808080610443565b919082519283825260005b8481106104ab575050826000602080949584010152601f8019910116010190565b60208183018101518483018201520161048a565b9060206104d092818152019061047f565b90565b346100fd5760803660031901126100fd5767ffffffffffffffff6004358181116100fd576105059036906004016100cc565b6024929192358281116100fd576105209036906004016100cc565b6044949194358481116100fd5761053b9036906004016100cc565b916064359586116100fd5761018a9661055b6105639736906004016100cc565b969095610b23565b604051918291826104bf565b602091828252606060a0830191805185850152848101516040850152604081015182850152015192608080840152835180925260c08301928160c08460051b8301019501936000915b8483106105c85750505050505090565b90919293949584806105e660019360bf198682030187528a5161047f565b98019301930191949392906105b8565b346100fd5760203660031901126100fd5767ffffffffffffffff6004358181116100fd57366023820112156100fd5780600401359182116100fd573660248360061b830101116100fd5761018a916024610650920161073a565b6040519182918261056f565b346100fd5761066a366101a5565b9061067482610a8b565b60019160019160005b828110610692575b6020846040519015158152f35b8060051b820135156106a557840161067d565b505050505060206000388080610685565b634e487b7160e01b600052604160045260246000fd5b604051906080820182811067ffffffffffffffff8211176106ec57604052565b6106b6565b6040519190601f01601f1916820167ffffffffffffffff8111838210176106ec57604052565b61071f6106cc565b90600082526000602083015260006040830152606080830152565b610742610717565b5061074b610717565b9061075583610a8b565b61075e83610c11565b60608301525a90600090819082905b8682106107b8575b50508352602083015260005b838110806107ad575b1561079757600101610781565b506107a59192505a90610847565b604082015290565b5061c3505a1161078a565b909161c3505a10610802578260061b82018035156107f45760200135156107e7576001809101925b019061076d565b91926001809101936107e0565b5091926001809101936107e0565b91610775565b634e487b7160e01b600052601160045260246000fd5b9060588202918083046058149015171561018e57565b8181029291811591840414171561018e57565b9190820391821161018e57565b906001820180921161018e57565b91908110156108725760051b0190565b634e487b7160e01b600052603260045260246000fd5b356001600160a01b03811681036100fd5790565b6001916001811115610949576000939291825b6108bd575b50600093505050565b600019820182811161018e57851015610944576108d985610854565b8281106108eb575093820193826108af565b6109036108fe8785859998969799610862565b610888565b6109206109146108fe848887610862565b6001600160a01b031690565b6001600160a01b039091161461093c57850192919394926108d9565b509092505050565b6108b4565b505050600090565b67ffffffffffffffff81116106ec5760051b60200190565b9061097b61097683610951565b6106f1565b828152809261098c601f1991610951565b019060005b82811061099d57505050565b6020906109a86106cc565b60008152826000818301526000604083015260006060830152828501015201610991565b60589291839004906109dd82610969565b9360005b8381106109ee5750505050565b808260019202840160808260071b89019160608135811c602085015260148201356040850152603482013590840152605781013560001a60181b90605681013560001a60101b906054605582013560001a60081b91013560001a171717910152016109e1565b9081156101935781036103285760c88111610a6c5750565b6044906040519063f80a484560e01b825260c860048301526024820152fd5b80156101935760c88111610a6c5750565b92918115610ad757049160c88311610ace575b808311610ac6575b508115610ac057565b60019150565b915038610ab7565b60c89250610aaf565b5060c8925050565b67ffffffffffffffff81116106ec57601f01601f191660200190565b90610b0861097683610adf565b8281528092610b19601f1991610adf565b0190602036910137565b939796909592610b479295610b3b610b419289610a54565b87610a54565b85610a54565b610b58610b538561081e565b610afb565b9560005b858110610b6b57505050505050565b6058810288018160051b9081860135918088013581860135918701359360005b60148110610bfe57505060005b60208110610beb57505060005b60208110610bd857505060005b60048110610bc557505050600101610b5c565b80836001921a6074828501015301610bb2565b80826001921a6054828601015301610ba5565b80826001921a6034828701015301610b98565b80826001921a6020828801015301610b8b565b90610c1e61097683610951565b8281528092610c2f601f1991610951565b019060005b828110610c4057505050565b806060602080938501015201610c3456fea164736f6c6343000816000a",
  "linkReferences": {},
  "deployedLinkReferences": {}
}