{
  "_format": "hh-sol-artifact-1",
  "contractName": "XPEngine",
  "sourceName": "contracts/XPEngine.sol",
  "abi": [
    {
      "inputs": [],
      "stateMutability": "nonpayable",
      "type": "constructor"
    },
    {
      "inputs": [],
      "name": "AccessControlBadConfirmation",
      "type": "error"
    },
    {
      "inputs": [
        {
          "internalType": "address",
          "name": "account",
          "type": "address"
        },
        {
          "internalType": "bytes32",
          "name": "neededRole",
          "type": "bytes32"
        }
      ],
      "name": "AccessControlUnauthorizedAccount",
      "type": "error"
    },
    {
      "inputs": [
        {
          "internalType": "address",
          "name": "target",
          "type": "address"
        }
      ],
      "name": "AddressEmptyCode",
      "type": "error"
    },
    {
      "inputs": [],
      "name": "ArrayLengthMismatch",
      "type": "error"
    },
    {
      "inputs": [
        {
          "internalType": "uint256",
          "name": "maxAllowed",
          "type": "uint256"
        },
        {
          "internalType": "uint256",
          "name": "current",
          "type": "uint256"
        }
      ],
      "name": "BatchSizeExceeded",
      "type": "error"
    },
    {
      "inputs": [
        {
          "internalType": "address",
          "name": "implementation",
          "type": "address"
        }
      ],
      "name": "ERC1967InvalidImplementation",
      "type": "error"
    },
    {
      "inputs": [],
      "name": "ERC1967NonPayable",
      "type": "error"
    },
    {
      "inputs": [],
      "name": "EmptyArrays",
      "type": "error"
    },
    {
      "inputs": [],
      "name": "EnforcedPause",
      "type": "error"
    },
    {
      "inputs": [],
      "name": "ExpectedPause",
      "type": "error"
    },
    {
      "inputs": [],
      "name": "FailedCall",
      "type": "error"
    },
    {
      "inputs": [
        {
          "internalType": "uint256",
          "name": "currentXP",
          "type": "uint256"
        },
        {
          "internalType": "uint256",
          "name": "requestedXP",
          "type": "uint256"
        }
      ],
      "name": "InsufficientXP",
      "type": "error"
    },
    {
      "inputs": [],
      "name": "InvalidInitialization",
      "type": "error"
    },
    {
      "inputs": [],
      "name": "NotInitializing",
      "type": "error"
    },
    {
      "inputs": [],
      "name": "ReentrancyGuardReentrantCall",
      "type": "error"
    },
    {
      "inputs": [],
      "name": "UUPSUnauthorizedCallContext",
      "type": "error"
    },
    {
      "inputs": [
        {
          "internalType": "bytes32",
          "name": "slot",
          "type": "bytes32"
        }
      ],
      "name": "UUPSUnsupportedProxiableUUID",
      "type": "error"
    },
    {
      "inputs": [],
      "name": "ZeroAddressUser",
      "type": "error"
    },
    {
      "inputs": [],
      "name": "ZeroXPAmount",
      "type": "error"
    },
    {
      "anonymous": false,
      "inputs": [
        {
          "indexed": false,
          "internalType": "uint64",
          "name": "version",
          "type": "uint64"
        }
      ],
      "name": "Initialized",
      "type": "event"
    },
    {
      "anonymous": false,
      "inputs": [
        {
          "indexed": false,
          "internalType": "address",
          "name": "account",
          "type": "address"
        }
      ],
      "name": "Paused",
      "type": "event"
    },
    {
      "anonymous": false,
      "inputs": [
        {
          "indexed": true,
          "internalType": "bytes32",
          "name": "role",
          "type": "bytes32"
        },
        {
          "indexed": true,
          "internalType": "bytes32",
          "name": "previousAdminRole",
          "type": "bytes32"
        },
        {
          "indexed": true,
          "internalType": "bytes32",
          "name": "newAdminRole",
          "type": "bytes32"
        }
      ],
      "name": "RoleAdminChanged",
      "type": "event"
    },
    {
      "anonymous": false,
      "inputs": [
        {
          "indexed": true,
          "internalType": "bytes32",
          "name": "role",
          "type": "bytes32"
        },
        {
          "indexed": true,
          "internalType": "address",
          "name": "account",
          "type": "address"
        },
        {
          "indexed": true,
          "internalType": "address",
          "name": "sender",
          "type": "address"
        }
      ],
      "name": "RoleGranted",
      "type": "event"
    },
    {
      "anonymous": false,
      "inputs": [
        {
          "indexed": true,
          "internalType": "bytes32",
          "name": "role",
          "type": "bytes32"
        },
        {
          "indexed": true,
          "internalType": "address",
          "name": "account",
          "type": "address"
        },
        {
          "indexed": true,
          "internalType": "address",
          "name": "sender",
          "type": "address"
        }
      ],
      "name": "RoleRevoked",
      "type": "event"
    },
    {
      "anonymous": false,
      "inputs": [
        {
          "indexed": false,
          "internalType": "address",
          "name": "account",
          "type": "address"
        }
      ],
      "name": "Unpaused",
      "type": "event"
    },
    {
      "anonymous": false,
      "inputs": [
        {
          "indexed": true,
          "internalType": "address",
          "name": "implementation",
          "type": "address"
        }
      ],
      "name": "Upgraded",
      "type": "event"
    },
    {
      "anonymous": false,
      "inputs": [
        {
          "indexed": true,
          "internalType": "address",
          "name": "user",
          "type": "address"
        },
        {
          "indexed": false,
          "internalType": "uint256",
          "name": "amount",
          "type": "uint256"
        },
        {
          "indexed": true,
          "internalType": "address",
          "name": "awarder",
          "type": "address"
        }
      ],
      "name": "XPAwarded",
      "type": "event"
    },
    {
      "anonymous": false,
      "inputs": [
        {
          "indexed": true,
          "internalType": "address",
          "name": "user",
          "type": "address"
        },
        {
          "indexed": false,
          "internalType": "uint256",
          "name": "amount",
          "type": "uint256"
        }
      ],
      "name": "XPSpent",
      "type": "event"
    },
    {
      "inputs": [],
      "name": "DEFAULT_ADMIN_ROLE",
      "outputs": [
        {
          "internalType": "bytes32",
          "name": "",
          "type": "bytes32"
        }
      ],
      "stateMutability": "view",
      "type": "function"
    },
    {
      "inputs": [],
      "name": "MAX_BATCH_SIZE",
      "outputs": [
        {
          "internalType": "uint256",
          "name": "",
          "type": "uint256"
        }
      ],
      "stateMutability": "view",
      "type": "function"
    },
    {
      "inputs": [],
      "name": "PAUSER_ROLE",
      "outputs": [
        {
          "internalType": "bytes32",
          "name": "",
          "type": "bytes32"
        }
      ],
      "stateMutability": "view",
      "type": "function"
    },
    {
      "inputs": [],
      "name": "UPGRADER_ROLE",
      "outputs": [
        {
          "internalType": "bytes32",
          "name": "",
          "type": "bytes32"
        }
      ],
      "stateMutability": "view",
      "type": "function"
    },
    {
      "inputs": [],
      "name": "UPGRADE_INTERFACE_VERSION",
      "outputs": [
        {
          "internalType": "string",
          "name": "",
          "type": "string"
        }
      ],
      "stateMutability": "view",
      "type": "function"
    },
    {
      "inputs": [],
      "name": "XP_AWARDER_ROLE",
      "outputs": [
        {
          "internalType": "bytes32",
          "name": "",
          "type": "bytes32"
        }
      ],
      "stateMutability": "view",
      "type": "function"
    },
    {
      "inputs": [],
      "name": "XP_GRANTER_ROLE",
      "outputs": [
        {
          "internalType": "bytes32",
          "name": "",
          "type": "bytes32"
        }
      ],
      "stateMutability": "view",
      "type": "function"
    },
    {
      "inputs": [
        {
          "internalType": "address",
          "name": "_user",
          "type": "address"
        },
        {
          "internalType": "uint256",
          "name": "_amount",
          "type": "uint256"
        }
      ],
      "name": "awardXP",
      "outputs": [],
      "stateMutability": "nonpayable",
      "type": "function"
    },
    {
      "inputs": [
        {
          "internalType": "address[]",
          "name": "_users",
          "type": "address[]"
        },
        {
          "internalType": "uint256[]",
          "name": "_amounts",
          "type": "uint256[]"
        }
      ],
      "name": "awardXpBatch",
      "outputs": [],
      "stateMutability": "nonpayable",
      "type": "function"
    },
    {
      "inputs": [
        {
          "internalType": "address",
          "name": "_user",
          "type": "address"
        }
      ],
      "name": "getLevel",
      "outputs": [
        {
          "internalType": "uint256",
          "name": "",
          "type": "uint256"
        }
      ],
      "stateMutability": "view",
      "type": "function"
    },
    {
      "inputs": [
        {
          "internalType": "bytes32",
          "name": "role",
          "type": "bytes32"
        }
      ],
      "name": "getRoleAdmin",
      "outputs": [
        {
          "internalType": "bytes32",
          "name": "",
          "type": "bytes32"
        }
      ],
      "stateMutability": "view",
      "type": "function"
    },
    {
      "inputs": [
        {
          "internalType": "address",
          "name": "_user",
          "type": "address"
        }
      ],
      "name": "getXP",
      "outputs": [
        {
          "internalType": "uint256",
          "name": "",
          "type": "uint256"
        }
      ],
      "stateMutability": "view",
      "type": "function"
    },
    {
      "inputs": [
        {
          "internalType": "bytes32",
          "name": "role",
          "type": "bytes32"
        },
        {
          "internalType": "address",
          "name": "account",
          "type": "address"
        }
      ],
      "name": "grantRole",
      "outputs": [],
      "stateMutability": "nonpayable",
      "type": "function"
    },
    {
      "inputs": [
        {
          "internalType": "bytes32",
          "name": "role",
          "type": "bytes32"
        },
        {
          "internalType": "address",
          "name": "account",
          "type": "address"
        }
      ],
      "name": "hasRole",
      "outputs": [
        {
          "internalType": "bool",
          "name": "",
          "type": "bool"
        }
      ],
      "stateMutability": "view",
      "type": "function"
    },
    {
      "inputs": [],
      "name": "initialize",
      "outputs": [],
      "stateMutability": "nonpayable",
      "type": "function"
    },
    {
      "inputs": [],
      "name": "pause",
      "outputs": [],
      "stateMutability": "nonpayable",
      "type": "function"
    },
    {
      "inputs": [],
      "name": "paused",
      "outputs": [
        {
          "internalType": "bool",
          "name": "",
          "type": "bool"
        }
      ],
      "stateMutability": "view",
      "type": "function"
    },
    {
      "inputs": [],
      "name": "proxiableUUID",
      "outputs": [
        {
          "internalType": "bytes32",
          "name": "",
          "type": "bytes32"
        }
      ],
      "stateMutability": "view",
      "type": "function"
    },
    {
      "inputs": [
        {
          "internalType": "bytes32",
          "name": "role",
          "type": "bytes32"
        },
        {
          "internalType": "address",
          "name": "callerConfirmation",
          "type": "address"
        }
      ],
      "name": "renounceRole",
      "outputs": [],
      "stateMutability": "nonpayable",
      "type": "function"
    },
    {
      "inputs": [
        {
          "internalType": "bytes32",
          "name": "role",
          "type": "bytes32"
        },
        {
          "internalType": "address",
          "name": "account",
          "type": "address"
        }
      ],
      "name": "revokeRole",
      "outputs": [],
      "stateMutability": "nonpayable",
      "type": "function"
    },
    {
      "inputs": [
        {
          "internalType": "uint256",
          "name": "_amount",
          "type": "uint256"
        }
      ],
      "name": "spendXP",
      "outputs": [],
      "stateMutability": "nonpayable",
      "type": "function"
    },
    {
      "inputs": [
        {
          "internalType": "bytes4",
          "name": "interfaceId",
          "type": "bytes4"
        }
      ],
      "name": "supportsInterface",
      "outputs": [
        {
          "internalType": "bool",
          "name": "",
          "type": "bool"
        }
      ],
      "stateMutability": "view",
      "type": "function"
    },
    {
      "inputs": [],
      "name": "totalXPAwarded",
      "outputs": [
        {
          "internalType": "uint256",
          "name": "",
          "type": "uint256"
        }
      ],
      "stateMutability": "view",
      "type": "function"
    },
    {
      "inputs": [],
      "name": "unpause",
      "outputs": [],
      "stateMutability": "nonpayable",
      "type": "function"
    },
    {
      "inputs": [
        {
          "internalType": "address",
          "name": "newImplementation",
          "type": "address"
        },
        {
          "internalType": "bytes",
          "name": "data",
          "type": "bytes"
        }
      ],
      "name": "upgradeToAndCall",
      "outputs": [],
      "stateMutability": "payable",
      "type": "function"
    },
    {
      "inputs": [
        {
          "internalType": "address",
          "name": "",
          "type": "address"
        }
      ],
      "name": "userXP",
      "outputs": [
        {
          "internalType": "uint256",
          "name": "",
          "type": "uint256"
        }
      ],
      "stateMutability": "view",
      "type": "function"
    }
  ],
  "bytecode": "0x60c080604052346100e15730608052606460a0527ff0c57e16840df040f15088dc2f81fe391c3923bec73e23a9662efc9c229c6a009081549060ff8260401c166100d257506001600160401b036002600160401b03198282160161008d575b60405161176f90816100e7823960805181818161098c0152610aaa015260a0518181816102a4015261049c0152f35b6001600160401b031990911681179091556040519081527fc7f505b2f371ae2175ee4913f4499e1f2633a7b5936321eed1cdaeb6115181d290602090a138808061005e565b63f92ee8a960e01b8152600490fd5b600080fdfe608060408181526004918236101561001657600080fd5b600092833560e01c91826301ffc9a714610f27575081630c4f349314610e10578163239322301461090f578163248a9ca314610dd85781632f2ff15d14610dae57816336568abe14610d685781633f4ba83a14610cf05781634f1ef28614610a2e578163511b9ba3146109f357816352d1902d146109775781635c975abb14610946578163639487f41461090f5781638129fc1c1461077e578163817c8966146107515781638456cb59146106e9578163893b5513146106ca57816391d1485414610676578163a217fddf1461065b578163a49ea5de1461055e578163ad3cb1cc146104bf578163cfdbf25414610484578163d547741f14610437578163e1c10353146101f457508063e3619e2d146101ba578063e63ab1e9146101805763f72c0d8b1461014357600080fd5b3461017c578160031936011261017c57602090517f189ab7a9244df0848122154315af71fe140f3db0fe014031783b0946b8c9d2e38152f35b5080fd5b503461017c578160031936011261017c57602090517f65d7a28e3265b37a6474929f336521b332c1681b933f6cb9f3376673440d862a8152f35b503461017c578160031936011261017c57602090517fe8e20673873883db432ebefddb52e10b31320d08e3e080adf1283a61858fb44d8152f35b9190503461043357806003193601126104335767ffffffffffffffff90823582811161042f576102279036908501610fff565b91909260243590811161042b576102419036908601610fff565b7fe8e20673873883db432ebefddb52e10b31320d08e3e080adf1283a61858fb44d93919391828852602092600080516020611723833981519152602052848920338a5260205260ff858a2054161561040d575061029c61119f565b80156103fd577f00000000000000000000000000000000000000000000000000000000000000008082116103e157508181036103d157875b8181106102df578880f35b6001600160a01b03806102fb6102f684868c6110b8565b6110de565b16156103c15761030c8285896110b8565b35156103b1579081886001936103336102f6858861032c828f8d906110b8565b35956110b8565b168c528b8752610347888d20918254611030565b905561035482868a6110b8565b3561036184918254611030565b90556103716102f683868c6110b8565b907ff47619a035b234d06595061278acb28d3c0a51ff4cc7f2c611eafb84cdf0f25c8761039f85898d6110b8565b35928a5193845233941692a3016102d4565b85516330473a1360e01b81528990fd5b8551639c89d57f60e01b81528990fd5b835163512509d360e11b81528790fd5b604491889186519263f80a484560e01b84528301526024820152fd5b835163a600c81d60e01b81528790fd5b845163e2517d3f60e01b815233818a01526024810191909152604490fd5b8580fd5b8480fd5b8280fd5b91905034610433578060031936011261043357610480913561047b600161045c610f95565b938387526000805160206117238339815191526020528620015461116c565b61157b565b5080f35b50503461017c578160031936011261017c57602090517f00000000000000000000000000000000000000000000000000000000000000008152f35b9050346104335782600319360112610433578151908282019082821067ffffffffffffffff83111761054b5750825260058152602090640352e302e360dc1b6020820152825193849260208452825192836020860152825b84811061053557505050828201840152601f01601f19168101030190f35b8181018301518882018801528795508201610517565b634e487b7160e01b855260419052602484fd5b83833461017c57602036600319011261017c57823561057b61119f565b7f9b779b17422d0df92223018b32b4d1fa46e071723d6817e2486d003becc55f0091600283541461064c5760028355811561063d57338452836020528084205482811061062157503384528360205280842080549083820391821161060e57600195965055519081527fa39db0f4c28a2cbc81d3576e9b24cc882f346eef0d15d549b9cbf674d8e60d2760203392a25580f35b634e487b7160e01b865260118752602486fd5b91604492869251926392762df360e01b84528301526024820152fd5b516330473a1360e01b81528490fd5b51633ee5aeb560e01b81528490fd5b50503461017c578160031936011261017c5751908152602090f35b9050346104335781600319360112610433578160209360ff92610697610f95565b9035825260008051602061172383398151915286528282206001600160a01b039091168252855220549151911615158152f35b50503461017c578160031936011261017c576020906001549051908152f35b50503461017c578160031936011261017c5760207f62e78cea01bee320cd4e420270b5ea74000d11b0c9f74754ebdbfc544b05a258916107276110f2565b61072f61119f565b600080516020611743833981519152805460ff1916600117905551338152a180f35b50503461017c57602036600319011261017c57602090610777610772610f7a565b611053565b9051908152f35b9050346104335782600319360112610433577ff0c57e16840df040f15088dc2f81fe391c3923bec73e23a9662efc9c229c6a0090815460ff81851c16159167ffffffffffffffff821680159081610907575b60011490816108fd575b1590816108f4575b506108e6575067ffffffffffffffff1981166001178355816108c7575b5061080861165e565b61081061165e565b61081861165e565b61082061165e565b60017f9b779b17422d0df92223018b32b4d1fa46e071723d6817e2486d003becc55f005561084c61165e565b610855336111ca565b5061085f33611258565b5061086933611308565b50610873336113b2565b5061087d3361145c565b50610886578280f35b805468ff00000000000000001916905551600181527fc7f505b2f371ae2175ee4913f4499e1f2633a7b5936321eed1cdaeb6115181d290602090a138808280f35b68ffffffffffffffffff191668010000000000000001178255386107ff565b845163f92ee8a960e01b8152fd5b905015386107e2565b303b1591506107da565b8491506107d0565b50503461017c57602036600319011261017c5760209181906001600160a01b03610937610f7a565b16815280845220549051908152f35b50503461017c578160031936011261017c5760209060ff600080516020611743833981519152541690519015158152f35b8284346109f057806003193601126109f057507f00000000000000000000000000000000000000000000000000000000000000006001600160a01b031630036109e357602090517f360894a13ba1a3210667c828492db98dca3e2076cc3735a920a3ca505d382bbc8152f35b5163703e46dd60e11b8152fd5b80fd5b50503461017c578160031936011261017c57602090517f88325e7770f0fc313d0f367dd082b9a7a94028470d7b2f2610429bc45e06fb018152f35b9180915060031936011261043357610a44610f7a565b90602493843567ffffffffffffffff811161017c573660238201121561017c5780850135610a7181610fe3565b94610a7e85519687610fab565b81865260209182870193368a838301011161042b578186928b8693018737880101526001600160a01b037f00000000000000000000000000000000000000000000000000000000000000008116308114908115610cc2575b50610cb2577f189ab7a9244df0848122154315af71fe140f3db0fe014031783b0946b8c9d2e38086526000805160206117238339815191528452868620338752845260ff878720541615610c95575081169585516352d1902d60e01b815283818a818b5afa869181610c62575b50610b5f575050505050505191634c9c8ce360e01b8352820152fd5b9088888894938c7f360894a13ba1a3210667c828492db98dca3e2076cc3735a920a3ca505d382bbc91828103610c4d5750853b15610c39575080546001600160a01b031916821790558451889392917fbc7cd75a20ee27fd9adebab32041f755214dbc6bffa90cc0225b39da2e5c2d3b8580a2825115610c1b5750506104809582915190845af4913d15610c11573d610c03610bfa82610fe3565b92519283610fab565b81528581943d92013e61169f565b506060925061169f565b955095505050505034610c2d57505080f35b63b398979f60e01b8152fd5b8651634c9c8ce360e01b8152808501849052fd5b8751632a87526960e21b815280860191909152fd5b9091508481813d8311610c8e575b610c7a8183610fab565b81010312610c8a57519038610b43565b8680fd5b503d610c70565b865163e2517d3f60e01b815233818b0152808b0191909152604490fd5b855163703e46dd60e11b81528890fd5b9050817f360894a13ba1a3210667c828492db98dca3e2076cc3735a920a3ca505d382bbc5416141538610ad6565b905034610433578260031936011261043357610d0a6110f2565b6000805160206117438339815191529081549060ff821615610d5a575060ff19169055513381527f5db9ee0a495bf2e6ff9c91a7834c1ba4fdd244a5e8aa4e537bd38aeae4b073aa90602090a180f35b8351638dfc202b60e01b8152fd5b83833461017c578060031936011261017c57610d82610f95565b90336001600160a01b03831603610d9f575061048091923561157b565b5163334bd91960e11b81528390fd5b919050346104335780600319360112610433576104809135610dd3600161045c610f95565b611506565b905034610433576020366003190112610433578160209360019235815260008051602061172383398151915285522001549051908152f35b905034610433578160031936011261043357610e2a610f7a565b91602435927f88325e7770f0fc313d0f367dd082b9a7a94028470d7b2f2610429bc45e06fb0180865260008051602061172383398151915260205282862033875260205260ff838720541615610f095750610e8361119f565b6001600160a01b0316918215610efb578315610eed575081845283602052808420610eaf848254611030565b9055610ebd83600154611030565b600155519182527ff47619a035b234d06595061278acb28d3c0a51ff4cc7f2c611eafb84cdf0f25c60203393a380f35b90516330473a1360e01b8152fd5b9051639c89d57f60e01b8152fd5b825163e2517d3f60e01b815233818601526024810191909152604490fd5b849134610433576020366003190112610433573563ffffffff60e01b81168091036104335760209250637965db0b60e01b8114908115610f69575b5015158152f35b6301ffc9a760e01b14905083610f62565b600435906001600160a01b0382168203610f9057565b600080fd5b602435906001600160a01b0382168203610f9057565b90601f8019910116810190811067ffffffffffffffff821117610fcd57604052565b634e487b7160e01b600052604160045260246000fd5b67ffffffffffffffff8111610fcd57601f01601f191660200190565b9181601f84011215610f905782359167ffffffffffffffff8311610f90576020808501948460051b010111610f9057565b9190820180921161103d57565b634e487b7160e01b600052601160045260246000fd5b6001600160a01b031660009081526020819052604081205480156110b1576103e861107e91046115fe565b600101908160011161109d5750606481111561109a5750606490565b90565b634e487b7160e01b81526011600452602490fd5b5050600190565b91908110156110c85760051b0190565b634e487b7160e01b600052603260045260246000fd5b356001600160a01b0381168103610f905790565b3360009081527f75442b0a96088b5456bc4ed01394c96a4feec0f883c9494257d76b96ab1c9b6b60205260409020547f65d7a28e3265b37a6474929f336521b332c1681b933f6cb9f3376673440d862a9060ff161561114e5750565b6044906040519063e2517d3f60e01b82523360048301526024820152fd5b8060005260008051602061172383398151915260205260406000203360005260205260ff604060002054161561114e5750565b60ff60008051602061174383398151915254166111b857565b60405163d93c066560e01b8152600490fd5b6001600160a01b031660008181527fb7db2dd08fcb62d0c9e08c51941cae53c267786a0b75803fb7960902fc8ef97d60205260408120549091906000805160206117238339815191529060ff16611253578280526020526040822081835260205260408220600160ff1982541617905533916000805160206117038339815191528180a4600190565b505090565b6001600160a01b031660008181527f75442b0a96088b5456bc4ed01394c96a4feec0f883c9494257d76b96ab1c9b6b60205260408120549091907f65d7a28e3265b37a6474929f336521b332c1681b933f6cb9f3376673440d862a906000805160206117238339815191529060ff16611302578184526020526040832082845260205260408320600160ff19825416179055600080516020611703833981519152339380a4600190565b50505090565b6001600160a01b031660008181527fab71e3f32666744d246edff3f96e4bdafee2e9867098cdd118a979a7464786a860205260408120549091907f189ab7a9244df0848122154315af71fe140f3db0fe014031783b0946b8c9d2e3906000805160206117238339815191529060ff16611302578184526020526040832082845260205260408320600160ff19825416179055600080516020611703833981519152339380a4600190565b6001600160a01b031660008181527f734d54bae40142c2bdea6cb2819bf4be75952560418453f2ba5c997c31bcba0a60205260408120549091907f88325e7770f0fc313d0f367dd082b9a7a94028470d7b2f2610429bc45e06fb01906000805160206117238339815191529060ff16611302578184526020526040832082845260205260408320600160ff19825416179055600080516020611703833981519152339380a4600190565b6001600160a01b031660008181527f08483d94b98298e8ebb3cb571a58bdae8faeb1e689ed24e75a46b00482009d6360205260408120549091907fe8e20673873883db432ebefddb52e10b31320d08e3e080adf1283a61858fb44d906000805160206117238339815191529060ff16611302578184526020526040832082845260205260408320600160ff19825416179055600080516020611703833981519152339380a4600190565b9060009180835260008051602061172383398151915280602052604084209260018060a01b03169283855260205260ff60408520541615600014611302578184526020526040832082845260205260408320600160ff19825416179055600080516020611703833981519152339380a4600190565b9060009180835260008051602061172383398151915280602052604084209260018060a01b03169283855260205260ff60408520541660001461130257818452602052604083208284526020526040832060ff1981541690557ff6391f5c32d9c69d2a47ea670b442974b53935d1edc7fd64eb21e047a839171b339380a4600190565b801561165857600180820180831161103d5760011c90825b8383106116235750505090565b91925090828015611643578061163a918304611030565b821c9190611616565b60246000634e487b7160e01b81526012600452fd5b50600090565b60ff7ff0c57e16840df040f15088dc2f81fe391c3923bec73e23a9662efc9c229c6a005460401c161561168d57565b604051631afcd79f60e31b8152600490fd5b906116c657508051156116b457602081519101fd5b60405163d6bda27560e01b8152600490fd5b815115806116f9575b6116d7575090565b604051639996b31560e01b81526001600160a01b039091166004820152602490fd5b50803b156116cf56fe2f8788117e7eff1d82e926ec794901d17c78024a50270940304540a733656f0d02dd7bc7dec4dceedda775e58dd541e08a116c6c53815c0bd028192f7b626800cd5ed15c6e187e77e9aee88184c21f4f2182ab5827cb3b7e07fbedcd63f03300a164736f6c6343000816000a",
  "linkReferences": {},
  "deployedLinkReferences": {}
}