{
  "_format": "hh-sol-artifact-1",
  "contractName": "ProfileRegistry",
  "sourceName": "contracts/ProfileRegistry.sol",
  "abi": [
    {
      "inputs": [],
      "stateMutability": "nonpayable",
      "type": "constructor"
    },
    {
      "inputs": [],
      "name": "AccessControlBadConfirmation",
      "type": "error"
    },
    {
      "inputs": [
        {
          "internalType": "address",
          "name": "account",
          "type": "address"
        },
        {
          "internalType": "bytes32",
          "name": "neededRole",
          "type": "bytes32"
        }
      ],
      "name": "AccessControlUnauthorizedAccount",
      "type": "error"
    },
    {
      "inputs": [
        {
          "internalType": "address",
          "name": "target",
          "type": "address"
        }
      ],
      "name": "AddressEmptyCode",
      "type": "error"
    },
    {
      "inputs": [
        {
          "internalType": "uint256",
          "name": "tokenId",
          "type": "uint256"
        }
      ],
      "name": "BadgeAlreadyOnProfile",
      "type": "error"
    },
    {
      "inputs": [
        {
          "internalType": "uint256",
          "name": "tokenId",
          "type": "uint256"
        }
      ],
      "name": "BadgeNotOnProfile",
      "type": "error"
    },
    {
      "inputs": [
        {
          "internalType": "uint256",
          "name": "tokenId",
          "type": "uint256"
        }
      ],
      "name": "BadgeNotOwned",
      "type": "error"
    },
    {
      "inputs": [
        {
          "internalType": "address",
          "name": "implementation",
          "type": "address"
        }
      ],
      "name": "ERC1967InvalidImplementation",
      "type": "error"
    },
    {
      "inputs": [],
      "name": "ERC1967NonPayable",
      "type": "error"
    },
    {
      "inputs": [],
      "name": "FailedCall",
      "type": "error"
    },
    {
      "inputs": [],
      "name": "InvalidCharacter",
      "type": "error"
    },
    {
      "inputs": [],
      "name": "InvalidInitialization",
      "type": "error"
    },
    {
      "inputs": [],
      "name": "NotInitializing",
      "type": "error"
    },
    {
      "inputs": [],
      "name": "ReentrancyGuardReentrantCall",
      "type": "error"
    },
    {
      "inputs": [],
      "name": "UUPSUnauthorizedCallContext",
      "type": "error"
    },
    {
      "inputs": [
        {
          "internalType": "bytes32",
          "name": "slot",
          "type": "bytes32"
        }
      ],
      "name": "UUPSUnsupportedProxiableUUID",
      "type": "error"
    },
    {
      "inputs": [
        {
          "internalType": "string",
          "name": "username",
          "type": "string"
        }
      ],
      "name": "UsernameAlreadyTaken",
      "type": "error"
    },
    {
      "inputs": [],
      "name": "UsernameCannotBeEmpty",
      "type": "error"
    },
    {
      "inputs": [],
      "name": "UsernameTooLong",
      "type": "error"
    },
    {
      "anonymous": false,
      "inputs": [
        {
          "indexed": true,
          "internalType": "address",
          "name": "user",
          "type": "address"
        },
        {
          "indexed": true,
          "internalType": "uint256",
          "name": "tokenId",
          "type": "uint256"
        }
      ],
      "name": "BadgeAddedToProfile",
      "type": "event"
    },
    {
      "anonymous": false,
      "inputs": [
        {
          "indexed": true,
          "internalType": "address",
          "name": "user",
          "type": "address"
        },
        {
          "indexed": true,
          "internalType": "uint256",
          "name": "tokenId",
          "type": "uint256"
        }
      ],
      "name": "BadgeRemovedFromProfile",
      "type": "event"
    },
    {
      "anonymous": false,
      "inputs": [
        {
          "indexed": false,
          "internalType": "uint64",
          "name": "version",
          "type": "uint64"
        }
      ],
      "name": "Initialized",
      "type": "event"
    },
    {
      "anonymous": false,
      "inputs": [
        {
          "indexed": true,
          "internalType": "bytes32",
          "name": "role",
          "type": "bytes32"
        },
        {
          "indexed": true,
          "internalType": "bytes32",
          "name": "previousAdminRole",
          "type": "bytes32"
        },
        {
          "indexed": true,
          "internalType": "bytes32",
          "name": "newAdminRole",
          "type": "bytes32"
        }
      ],
      "name": "RoleAdminChanged",
      "type": "event"
    },
    {
      "anonymous": false,
      "inputs": [
        {
          "indexed": true,
          "internalType": "bytes32",
          "name": "role",
          "type": "bytes32"
        },
        {
          "indexed": true,
          "internalType": "address",
          "name": "account",
          "type": "address"
        },
        {
          "indexed": true,
          "internalType": "address",
          "name": "sender",
          "type": "address"
        }
      ],
      "name": "RoleGranted",
      "type": "event"
    },
    {
      "anonymous": false,
      "inputs": [
        {
          "indexed": true,
          "internalType": "bytes32",
          "name": "role",
          "type": "bytes32"
        },
        {
          "indexed": true,
          "internalType": "address",
          "name": "account",
          "type": "address"
        },
        {
          "indexed": true,
          "internalType": "address",
          "name": "sender",
          "type": "address"
        }
      ],
      "name": "RoleRevoked",
      "type": "event"
    },
    {
      "anonymous": false,
      "inputs": [
        {
          "indexed": true,
          "internalType": "address",
          "name": "implementation",
          "type": "address"
        }
      ],
      "name": "Upgraded",
      "type": "event"
    },
    {
      "anonymous": false,
      "inputs": [
        {
          "indexed": true,
          "internalType": "address",
          "name": "user",
          "type": "address"
        },
        {
          "indexed": false,
          "internalType": "string",
          "name": "newUsername",
          "type": "string"
        }
      ],
      "name": "UsernameUpdated",
      "type": "event"
    },
    {
      "inputs": [],
      "name": "DEFAULT_ADMIN_ROLE",
      "outputs": [
        {
          "internalType": "bytes32",
          "name": "",
          "type": "bytes32"
        }
      ],
      "stateMutability": "view",
      "type": "function"
    },
    {
      "inputs": [],
      "name": "UPGRADER_ROLE",
      "outputs": [
        {
          "internalType": "bytes32",
          "name": "",
          "type": "bytes32"
        }
      ],
      "stateMutability": "view",
      "type": "function"
    },
    {
      "inputs": [],
      "name": "UPGRADE_INTERFACE_VERSION",
      "outputs": [
        {
          "internalType": "string",
          "name": "",
          "type": "string"
        }
      ],
      "stateMutability": "view",
      "type": "function"
    },
    {
      "inputs": [
        {
          "internalType": "uint256",
          "name": "_tokenId",
          "type": "uint256"
        }
      ],
      "name": "addBadgeToProfile",
      "outputs": [],
      "stateMutability": "nonpayable",
      "type": "function"
    },
    {
      "inputs": [
        {
          "internalType": "string",
          "name": "username",
          "type": "string"
        }
      ],
      "name": "addressForUsername",
      "outputs": [
        {
          "internalType": "address",
          "name": "",
          "type": "address"
        }
      ],
      "stateMutability": "view",
      "type": "function"
    },
    {
      "inputs": [],
      "name": "badgeMinter",
      "outputs": [
        {
          "internalType": "contract BadgeMinter",
          "name": "",
          "type": "address"
        }
      ],
      "stateMutability": "view",
      "type": "function"
    },
    {
      "inputs": [
        {
          "internalType": "address",
          "name": "_user",
          "type": "address"
        }
      ],
      "name": "cleanupInvalidBadges",
      "outputs": [],
      "stateMutability": "nonpayable",
      "type": "function"
    },
    {
      "inputs": [
        {
          "internalType": "address",
          "name": "_user",
          "type": "address"
        }
      ],
      "name": "getProfile",
      "outputs": [
        {
          "internalType": "string",
          "name": "username",
          "type": "string"
        },
        {
          "internalType": "uint256[]",
          "name": "badgeIds",
          "type": "uint256[]"
        }
      ],
      "stateMutability": "view",
      "type": "function"
    },
    {
      "inputs": [
        {
          "internalType": "bytes32",
          "name": "role",
          "type": "bytes32"
        }
      ],
      "name": "getRoleAdmin",
      "outputs": [
        {
          "internalType": "bytes32",
          "name": "",
          "type": "bytes32"
        }
      ],
      "stateMutability": "view",
      "type": "function"
    },
    {
      "inputs": [
        {
          "internalType": "address",
          "name": "_user",
          "type": "address"
        }
      ],
      "name": "getUserBadges",
      "outputs": [
        {
          "internalType": "uint256[]",
          "name": "",
          "type": "uint256[]"
        }
      ],
      "stateMutability": "view",
      "type": "function"
    },
    {
      "inputs": [
        {
          "internalType": "address",
          "name": "_user",
          "type": "address"
        }
      ],
      "name": "getVerifiedUserBadges",
      "outputs": [
        {
          "internalType": "uint256[]",
          "name": "validBadges",
          "type": "uint256[]"
        }
      ],
      "stateMutability": "view",
      "type": "function"
    },
    {
      "inputs": [
        {
          "internalType": "bytes32",
          "name": "role",
          "type": "bytes32"
        },
        {
          "internalType": "address",
          "name": "account",
          "type": "address"
        }
      ],
      "name": "grantRole",
      "outputs": [],
      "stateMutability": "nonpayable",
      "type": "function"
    },
    {
      "inputs": [
        {
          "internalType": "bytes32",
          "name": "role",
          "type": "bytes32"
        },
        {
          "internalType": "address",
          "name": "account",
          "type": "address"
        }
      ],
      "name": "hasRole",
      "outputs": [
        {
          "internalType": "bool",
          "name": "",
          "type": "bool"
        }
      ],
      "stateMutability": "view",
      "type": "function"
    },
    {
      "inputs": [
        {
          "internalType": "address",
          "name": "_badgeMinterAddress",
          "type": "address"
        }
      ],
      "name": "initialize",
      "outputs": [],
      "stateMutability": "nonpayable",
      "type": "function"
    },
    {
      "inputs": [],
      "name": "proxiableUUID",
      "outputs": [
        {
          "internalType": "bytes32",
          "name": "",
          "type": "bytes32"
        }
      ],
      "stateMutability": "view",
      "type": "function"
    },
    {
      "inputs": [
        {
          "internalType": "uint256",
          "name": "_tokenId",
          "type": "uint256"
        }
      ],
      "name": "removeBadgeFromProfile",
      "outputs": [],
      "stateMutability": "nonpayable",
      "type": "function"
    },
    {
      "inputs": [
        {
          "internalType": "bytes32",
          "name": "role",
          "type": "bytes32"
        },
        {
          "internalType": "address",
          "name": "callerConfirmation",
          "type": "address"
        }
      ],
      "name": "renounceRole",
      "outputs": [],
      "stateMutability": "nonpayable",
      "type": "function"
    },
    {
      "inputs": [
        {
          "internalType": "bytes32",
          "name": "role",
          "type": "bytes32"
        },
        {
          "internalType": "address",
          "name": "account",
          "type": "address"
        }
      ],
      "name": "revokeRole",
      "outputs": [],
      "stateMutability": "nonpayable",
      "type": "function"
    },
    {
      "inputs": [
        {
          "internalType": "string",
          "name": "_username",
          "type": "string"
        }
      ],
      "name": "setUsername",
      "outputs": [],
      "stateMutability": "nonpayable",
      "type": "function"
    },
    {
      "inputs": [
        {
          "internalType": "bytes4",
          "name": "interfaceId",
          "type": "bytes4"
        }
      ],
      "name": "supportsInterface",
      "outputs": [
        {
          "internalType": "bool",
          "name": "",
          "type": "bool"
        }
      ],
      "stateMutability": "view",
      "type": "function"
    },
    {
      "inputs": [
        {
          "internalType": "address",
          "name": "newImplementation",
          "type": "address"
        },
        {
          "internalType": "bytes",
          "name": "data",
          "type": "bytes"
        }
      ],
      "name": "upgradeToAndCall",
      "outputs": [],
      "stateMutability": "payable",
      "type": "function"
    },
    {
      "inputs": [
        {
          "internalType": "address",
          "name": "",
          "type": "address"
        },
        {
          "internalType": "uint256",
          "name": "",
          "type": "uint256"
        }
      ],
      "name": "userBadges",
      "outputs": [
        {
          "internalType": "uint256",
          "name": "",
          "type": "uint256"
        }
      ],
      "stateMutability": "view",
      "type": "function"
    },
    {
      "inputs": [
        {
          "internalType": "address",
          "name": "",
          "type": "address"
        }
      ],
      "name": "usernames",
      "outputs": [
        {
          "internalType": "string",
          "name": "",
          "type": "string"
        }
      ],
      "stateMutability": "view",
      "type": "function"
    }
  ],
  "bytecode": "0x60a080604052346100cc57306080527ff0c57e16840df040f15088dc2f81fe391c3923bec73e23a9662efc9c229c6a009081549060ff8260401c166100bd57506001600160401b036002600160401b031982821601610078575b604051611ce390816100d28239608051818181610ee90152610f9e0152f35b6001600160401b031990911681179091556040519081527fc7f505b2f371ae2175ee4913f4499e1f2633a7b5936321eed1cdaeb6115181d290602090a1388080610059565b63f92ee8a960e01b8152600490fd5b600080fdfe6080604081815260048036101561001557600080fd5b600092833560e01c90816301ffc9a71461156c575080630dfa0cd1146113fe5780630f53a4701461135a578063248a9ca3146113235780632f2ff15d146112fa57806336568abe146112b357806337c245fe1461122d5780634759d557146111e65780634f1ef28614610f4d57806352d1902d14610ed457806391d1485414610e81578063a217fddf14610e66578063ad3cb1cc14610dfa578063bb05adb414610c72578063c4d66de814610af4578063d547741f14610aa8578063df91cc2314610a4f578063eb1d421114610846578063ed59313a14610348578063ee91877c146102f7578063f72c0d8b146102b8578063f7c335231461014a5763fdcacdb31461012057600080fd5b346101465782600319360112610146575490516001600160a01b03909116815260209150f35b8280fd5b50903461014657602090816003193601126102b45782359161016a611905565b33855260039360038252828620848752825260ff83872054161561029d5733865260028252828620908154956000198088019288841161028a575090885b88811061025a575b50506101c9939495965081810361021c575b5050611888565b338452600381528184209083855252822060ff198154169055337fd2b3532a1ad1acd75f644acac1270475b0892f3ed9a83d6285752175a41ecebb8380a36001600080516020611cb78339815191525580f35b61023a61022c6102539385611737565b90549060031b1c9184611737565b90919082549060031b91821b91600019901b1916179055565b38806101c2565b876102658287611737565b905490841b1c14610278576001016101a8565b969750879691506101c99050386101b0565b634e487b7160e01b8a5260119052602489fd5b82516353d1115960e11b8152908101849052602490fd5b8380fd5b5050346102f357816003193601126102f357602090517f189ab7a9244df0848122154315af71fe140f3db0fe014031783b0946b8c9d2e38152f35b5080fd5b5050346102f35760203660031901126102f357610344916103319082906001600160a01b036103246115c0565b168152806020522061179f565b9051918291602083526020830190611614565b0390f35b509190346102f357610359366116f8565b610361611905565b8051156108365760208082511161082657835b8251811015610438576001600160f81b031961039082856118f4565b5116600360fc1b8110158061042a575b159081610405575b816103e0575b816103d1575b506103c157600101610374565b83516318954fab60e11b81528690fd5b605f60f81b14159050386103b4565b9050606160f81b811015806103f7575b15906103ae565b50603d60f91b8111156103f0565b9050604160f81b8110158061041c575b15906103a8565b50602d60f91b811115610415565b50603960f81b8111156103a0565b5091929080519261046061044b856116a5565b946104588751968761166d565b8086526116a5565b94818501601f19809701368237845b84518110156105265761048281866118f4565b51604160f891821c10158061050f575b156104e457846104a283886118f4565b51821c0160ff81116104d157600192911b6001600160f81b031916871a6104c9828a6118f4565b535b0161046f565b634e487b7160e01b885260118b52602488fd5b506001906001600160f81b03196104fb82886118f4565b5116871a610509828a6118f4565b536104cb565b50605a61051c83886118f4565b51821c1115610492565b8589858986868d825195845161053d8189866115f1565b60019088018181528890038701909720546001600160a01b0316801515908161081b575b506107f75733885287865283882086815461057b81611765565b610767575b5050503388528786528388209185519167ffffffffffffffff831161075457509082916105af88959454611765565b601f81116106fe575b508490601f831160011461067257509261062092827f1af4cc3acb57f067d1d582e3932be6692a4c9a31d8b3a8567dfc1c340a02d53498969361065198968d91610667575b50600019600383901b1c1916908b1b1790555b83518093819287519283916115f1565b810189815203019020336bffffffffffffffffffffffff60a01b825416179055519182918583523395830190611614565b0390a2600080516020611cb78339815191525580f35b90508701518d6105fd565b838b52858b208a9392909183168c5b8181106106e657509261062095927f1af4cc3acb57f067d1d582e3932be6692a4c9a31d8b3a8567dfc1c340a02d5349a989592826106519b9996106106cd575b5050811b019055610610565b89015160001960f88460031b161c191690558d806106c1565b828b015184558b988d96909401939283019201610681565b909192809495508a52878a20601f840160051c81019189851061074a575b89969594939291601f8c920160051c01915b82811061073c5750506105b8565b8c81558a97508b910161072e565b909150819061071c565b634e487b7160e01b8a5260419052602489fd5b86519283918c9161077782611765565b918d81169081156107e057506001146107aa575b50508a81520301902080546001600160a01b0319169055888681610580565b9091508c52828c208b8d915b8383106107c95750505081018c8061078b565b8054878401528c95879550909201918d91016107b6565b60ff19168552505080151502820190508c8061078b565b8351637848a5eb60e01b8152908101869052806108176024820187611614565b0390fd5b905033141589610561565b8251637dcc042f60e11b81528590fd5b8151635d728ced60e11b81528490fd5b5034610146576020806003193601126102b4579091906001600160a01b038061086d6115c0565b16918286526002815283862095845180978891848254918281520191845284842090845b818110610a3857505050906108a791038861166d565b8094819084885416915b895181101561094b5786866108c6838d6118c8565b518451906331a9108f60e11b82528c8201528781602481895afa87918161091c575b506108f9575b5050506001016108b1565b1614610908575b8686386108ee565b96610914600191611863565b979050610900565b61093d919250893d8b11610944575b610935818361166d565b810190611844565b90386108e8565b503d61092b565b509597949392919061095c896118dc565b9861096988519a8b61166d565b808a52610978601f19916118dc565b0136848b01378196825b8751811015610a26578a87878c610999858d6118c8565b5186516331a9108f60e11b81529182015288816024818a5afa889181610a07575b506109cc575b50505050600101610982565b16146109db575b8787386109c0565b896109fe916109f8849c6109f16001968e6118c8565b51926118c8565b52611863565b9890508a6109d3565b610a1f9192508a3d8c1161094457610935818361166d565b90386109ba565b8151858152806103448188018e611639565b825484528b94509286019260019283019201610891565b5050346102f357806003193601126102f357610a696115c0565b6001600160a01b03168252600260205280822080546024359390841015610aa55750602092610a9791611737565b91905490519160031b1c8152f35b80fd5b509034610146578060031936011261014657610af09135610aeb6001610acc6115db565b93838752600080516020611c9783398151915260205286200154611935565b611b6f565b5080f35b503461014657602036600319011261014657610b0e6115c0565b7ff0c57e16840df040f15088dc2f81fe391c3923bec73e23a9662efc9c229c6a009182549160ff83861c16159267ffffffffffffffff811680159081610c6a575b6001149081610c60575b159081610c57575b50610c475767ffffffffffffffff198116600117855583610c28575b50610b86611bf2565b610b8e611bf2565b610b96611bf2565b6001600080516020611cb783398151915255610bb0611bf2565b610bb933611986565b50610bc333611a26565b5081546001600160a01b0319166001600160a01b0391909116179055610be7578280f35b805468ff00000000000000001916905551600181527fc7f505b2f371ae2175ee4913f4499e1f2633a7b5936321eed1cdaeb6115181d290602090a138808280f35b68ffffffffffffffffff19166801000000000000000117845538610b7d565b855163f92ee8a960e01b81528390fd5b90501538610b61565b303b159150610b59565b859150610b4f565b509034610146576020806003193601126102b457610c8e6115c0565b610c96611905565b6001600160a01b0390811680865260028352838620938693919291845b8654861015610dc957610cc68688611737565b9054600391821b1c8a87878c838886602485855416948d5195869384926331a9108f60e11b84528301525afa909181610daa575b50610d93575b505050600014610d4c575081610d20918860019403610d29575b50611863565b955b0194610cb3565b610d4690610d378a8c611737565b9054911b1c61023a838c611737565b38610d1a565b6001929791878c528452848b20818c528452848b2060ff198154169055867fd2b3532a1ad1acd75f644acac1270475b0892f3ed9a83d6285752175a41ecebb8c80a3610d22565b1614610da2575b878738610d00565b506001610d9a565b610dc2919250893d8b1161094457610935818361166d565b9038610cfa565b8689915b8082541115610de457610ddf82611888565b610dcd565b826001600080516020611cb78339815191525580f35b509190346102f357816003193601126102f3578051918183019083821067ffffffffffffffff831117610e5357506103449350815260058252640352e302e360dc1b602083015251918291602083526020830190611614565b634e487b7160e01b815260418552602490fd5b5050346102f357816003193601126102f35751908152602090f35b50346101465781600319360112610146578160209360ff92610ea16115db565b90358252600080516020611c9783398151915286528282206001600160a01b039091168252855220549151911615158152f35b509134610aa55780600319360112610aa557507f00000000000000000000000000000000000000000000000000000000000000006001600160a01b03163003610f4057602090517f360894a13ba1a3210667c828492db98dca3e2076cc3735a920a3ca505d382bbc8152f35b5163703e46dd60e11b8152fd5b50908060031936011261014657610f626115c0565b90602493843567ffffffffffffffff81116102f357366023820112156102f357610f94903690878188013591016116c1565b6001600160a01b037f000000000000000000000000000000000000000000000000000000000000000081163081149081156111b8575b506111a8577f189ab7a9244df0848122154315af71fe140f3db0fe014031783b0946b8c9d2e390818452602091600080516020611c978339815191528352858520338652835260ff86862054161561118b575085169484516352d1902d60e01b8152828189818a5afa859181611158575b506110565750505050505191634c9c8ce360e01b8352820152fd5b90878787938b7f360894a13ba1a3210667c828492db98dca3e2076cc3735a920a3ca505d382bbc918281036111435750843b1561112f575080546001600160a01b0319168217905583518792917fbc7cd75a20ee27fd9adebab32041f755214dbc6bffa90cc0225b39da2e5c2d3b8480a2865115611112575050808585610af097519101845af4913d15611108573d6110fa6110f1826116a5565b9251928361166d565b81528581943d92013e611c33565b5060609250611c33565b945094505050503461112357505080f35b63b398979f60e01b8152fd5b8551634c9c8ce360e01b8152808501849052fd5b8651632a87526960e21b815280860191909152fd5b9091508381813d8311611184575b611170818361166d565b810103126111805751903861103b565b8580fd5b503d611166565b855163e2517d3f60e01b815233818a0152808a0191909152604490fd5b835163703e46dd60e11b81528690fd5b9050817f360894a13ba1a3210667c828492db98dca3e2076cc3735a920a3ca505d382bbc5416141538610fca565b5050346102f3576020906111f9366116f8565b8261120c835192838151938492016115f1565b6001908201908152819003830190205490516001600160a01b039091168152f35b5050346102f35760209081600319360112610146576001600160a01b036112526115c0565b16835260028252808320815190819485928583549182815201928252858220915b8682821061129c5785906103448861128d8489038561166d565b51928284938452830190611639565b835485528895509093019260019283019201611273565b509190346102f357806003193601126102f3576112ce6115db565b90336001600160a01b038316036112eb5750610af0919235611b6f565b5163334bd91960e11b81528390fd5b509034610146578060031936011261014657610af0913561131e6001610acc6115db565b611ae8565b50346101465760203660031901126101465781602093600192358152600080516020611c9783398151915285522001549051908152f35b5050346102f357602080600319360112610146576001600160a01b0361137e6115c0565b169283815280825261139183822061179f565b93815260028252828120835191828483549182815201928252848220915b8181106113ea57505050906113ca816103449493038261166d565b6113dd8451958587968752860190611614565b9184830390850152611639565b8254845292850192600192830192016113af565b509034610146576020806003193601126102b45782359261141d611905565b805483516331a9108f60e11b8152808301869052906001600160a01b039084908390602490829085165afa918215611562578792611543575b503391160361152c5733855260038252828520848652825260ff8386205416611515573385526002825282852080549168010000000000000000831015611502575061023a82869260016114ac95018155611737565b3384526003815281842090838552528220600160ff19825416179055337f39b71768057731b61544ffd71f740ea7c802434fdeb553cc7cd9f5b2841a1aca8380a36001600080516020611cb78339815191525580f35b634e487b7160e01b875260419052602486fd5b825163f3ee6e4160e01b8152908101849052602490fd5b8251631f0b895d60e21b8152908101849052602490fd5b61155b919250843d861161094457610935818361166d565b9038611456565b85513d89823e3d90fd5b92505034610146576020366003190112610146573563ffffffff60e01b81168091036101465760209250637965db0b60e01b81149081156115af575b5015158152f35b6301ffc9a760e01b149050386115a8565b600435906001600160a01b03821682036115d657565b600080fd5b602435906001600160a01b03821682036115d657565b60005b8381106116045750506000910152565b81810151838201526020016115f4565b9060209161162d815180928185528580860191016115f1565b601f01601f1916010190565b90815180825260208080930193019160005b828110611659575050505090565b83518552938101939281019260010161164b565b90601f8019910116810190811067ffffffffffffffff82111761168f57604052565b634e487b7160e01b600052604160045260246000fd5b67ffffffffffffffff811161168f57601f01601f191660200190565b9291926116cd826116a5565b916116db604051938461166d565b8294818452818301116115d6578281602093846000960137010152565b60206003198201126115d6576004359067ffffffffffffffff82116115d657806023830112156115d657816024611734936004013591016116c1565b90565b805482101561174f5760005260206000200190600090565b634e487b7160e01b600052603260045260246000fd5b90600182811c92168015611795575b602083101461177f57565b634e487b7160e01b600052602260045260246000fd5b91607f1691611774565b906040519182600082546117b281611765565b9081845260209460019160018116908160001461182257506001146117e3575b5050506117e19250038361166d565b565b600090815285812095935091905b81831061180a5750506117e193508201013880806117d2565b855488840185015294850194879450918301916117f1565b925050506117e194925060ff191682840152151560051b8201013880806117d2565b908160209103126115d657516001600160a01b03811681036115d65790565b60001981146118725760010190565b634e487b7160e01b600052601160045260246000fd5b80549081156118b257600019918201916118a28383611737565b909182549160031b1b1916905555565b634e487b7160e01b600052603160045260246000fd5b805182101561174f5760209160051b010190565b67ffffffffffffffff811161168f5760051b60200190565b90815181101561174f570160200190565b600080516020611cb783398151915260028154146119235760029055565b604051633ee5aeb560e01b8152600490fd5b80600052600080516020611c9783398151915260205260406000203360005260205260ff60406000205416156119685750565b6044906040519063e2517d3f60e01b82523360048301526024820152fd5b6001600160a01b031660008181527fb7db2dd08fcb62d0c9e08c51941cae53c267786a0b75803fb7960902fc8ef97d6020526040812054909190600080516020611c978339815191529060ff16611a21578280526020526040822081835260205260408220600160ff1982541617905533917f2f8788117e7eff1d82e926ec794901d17c78024a50270940304540a733656f0d8180a4600190565b505090565b6001600160a01b031660008181527fab71e3f32666744d246edff3f96e4bdafee2e9867098cdd118a979a7464786a860205260408120549091907f189ab7a9244df0848122154315af71fe140f3db0fe014031783b0946b8c9d2e390600080516020611c978339815191529060ff16611ae2578184526020526040832082845260205260408320600160ff198254161790557f2f8788117e7eff1d82e926ec794901d17c78024a50270940304540a733656f0d339380a4600190565b50505090565b90600091808352600080516020611c9783398151915280602052604084209260018060a01b03169283855260205260ff60408520541615600014611ae2578184526020526040832082845260205260408320600160ff198254161790557f2f8788117e7eff1d82e926ec794901d17c78024a50270940304540a733656f0d339380a4600190565b90600091808352600080516020611c9783398151915280602052604084209260018060a01b03169283855260205260ff604085205416600014611ae257818452602052604083208284526020526040832060ff1981541690557ff6391f5c32d9c69d2a47ea670b442974b53935d1edc7fd64eb21e047a839171b339380a4600190565b60ff7ff0c57e16840df040f15088dc2f81fe391c3923bec73e23a9662efc9c229c6a005460401c1615611c2157565b604051631afcd79f60e31b8152600490fd5b90611c5a5750805115611c4857602081519101fd5b60405163d6bda27560e01b8152600490fd5b81511580611c8d575b611c6b575090565b604051639996b31560e01b81526001600160a01b039091166004820152602490fd5b50803b15611c6356fe02dd7bc7dec4dceedda775e58dd541e08a116c6c53815c0bd028192f7b6268009b779b17422d0df92223018b32b4d1fa46e071723d6817e2486d003becc55f00a164736f6c6343000816000a",
  "linkReferences": {},
  "deployedLinkReferences": {}
}