{
  "_format": "hh-sol-artifact-1",
  "contractName": "SecurityIntegrationTest",
  "sourceName": "contracts/test/SecurityIntegrationTest.sol",
  "abi": [
    {
      "inputs": [],
      "name": "AccessControlBadConfirmation",
      "type": "error"
    },
    {
      "inputs": [
        {
          "internalType": "address",
          "name": "account",
          "type": "address"
        },
        {
          "internalType": "bytes32",
          "name": "neededRole",
          "type": "bytes32"
        }
      ],
      "name": "AccessControlUnauthorizedAccount",
      "type": "error"
    },
    {
      "inputs": [],
      "name": "EnforcedPause",
      "type": "error"
    },
    {
      "inputs": [],
      "name": "ExpectedPause",
      "type": "error"
    },
    {
      "inputs": [],
      "name": "InvalidAddress",
      "type": "error"
    },
    {
      "inputs": [],
      "name": "InvalidAmount",
      "type": "error"
    },
    {
      "inputs": [],
      "name": "InvalidInitialization",
      "type": "error"
    },
    {
      "inputs": [],
      "name": "NotInitializing",
      "type": "error"
    },
    {
      "inputs": [],
      "name": "ReentrancyGuardReentrantCall",
      "type": "error"
    },
    {
      "inputs": [],
      "name": "StringTooLong",
      "type": "error"
    },
    {
      "inputs": [],
      "name": "StringTooShort",
      "type": "error"
    },
    {
      "anonymous": false,
      "inputs": [
        {
          "indexed": true,
          "internalType": "bytes4",
          "name": "selector",
          "type": "bytes4"
        },
        {
          "indexed": false,
          "internalType": "string",
          "name": "securityType",
          "type": "string"
        },
        {
          "indexed": false,
          "internalType": "bool",
          "name": "enabled",
          "type": "bool"
        }
      ],
      "name": "FunctionSecurityUpdated",
      "type": "event"
    },
    {
      "anonymous": false,
      "inputs": [
        {
          "indexed": false,
          "internalType": "uint64",
          "name": "version",
          "type": "uint64"
        }
      ],
      "name": "Initialized",
      "type": "event"
    },
    {
      "anonymous": false,
      "inputs": [
        {
          "indexed": false,
          "internalType": "address",
          "name": "account",
          "type": "address"
        }
      ],
      "name": "Paused",
      "type": "event"
    },
    {
      "anonymous": false,
      "inputs": [
        {
          "indexed": true,
          "internalType": "bytes32",
          "name": "role",
          "type": "bytes32"
        },
        {
          "indexed": true,
          "internalType": "bytes32",
          "name": "previousAdminRole",
          "type": "bytes32"
        },
        {
          "indexed": true,
          "internalType": "bytes32",
          "name": "newAdminRole",
          "type": "bytes32"
        }
      ],
      "name": "RoleAdminChanged",
      "type": "event"
    },
    {
      "anonymous": false,
      "inputs": [
        {
          "indexed": true,
          "internalType": "bytes32",
          "name": "role",
          "type": "bytes32"
        },
        {
          "indexed": true,
          "internalType": "address",
          "name": "account",
          "type": "address"
        },
        {
          "indexed": true,
          "internalType": "address",
          "name": "sender",
          "type": "address"
        }
      ],
      "name": "RoleGranted",
      "type": "event"
    },
    {
      "anonymous": false,
      "inputs": [
        {
          "indexed": true,
          "internalType": "bytes32",
          "name": "role",
          "type": "bytes32"
        },
        {
          "indexed": true,
          "internalType": "address",
          "name": "account",
          "type": "address"
        },
        {
          "indexed": true,
          "internalType": "address",
          "name": "sender",
          "type": "address"
        }
      ],
      "name": "RoleRevoked",
      "type": "event"
    },
    {
      "anonymous": false,
      "inputs": [
        {
          "indexed": false,
          "internalType": "string",
          "name": "feature",
          "type": "string"
        },
        {
          "indexed": false,
          "internalType": "bool",
          "name": "enabled",
          "type": "bool"
        }
      ],
      "name": "SecurityFeatureToggled",
      "type": "event"
    },
    {
      "anonymous": false,
      "inputs": [
        {
          "indexed": true,
          "internalType": "address",
          "name": "system",
          "type": "address"
        },
        {
          "indexed": false,
          "internalType": "string",
          "name": "systemType",
          "type": "string"
        }
      ],
      "name": "SecuritySystemUpdated",
      "type": "event"
    },
    {
      "anonymous": false,
      "inputs": [
        {
          "indexed": false,
          "internalType": "address",
          "name": "account",
          "type": "address"
        }
      ],
      "name": "Unpaused",
      "type": "event"
    },
    {
      "inputs": [],
      "name": "ADMIN_ROLE",
      "outputs": [
        {
          "internalType": "bytes32",
          "name": "",
          "type": "bytes32"
        }
      ],
      "stateMutability": "view",
      "type": "function"
    },
    {
      "inputs": [],
      "name": "DEFAULT_ADMIN_ROLE",
      "outputs": [
        {
          "internalType": "bytes32",
          "name": "",
          "type": "bytes32"
        }
      ],
      "stateMutability": "view",
      "type": "function"
    },
    {
      "inputs": [],
      "name": "SECURITY_MANAGER_ROLE",
      "outputs": [
        {
          "internalType": "bytes32",
          "name": "",
          "type": "bytes32"
        }
      ],
      "stateMutability": "view",
      "type": "function"
    },
    {
      "inputs": [
        {
          "internalType": "bytes4[]",
          "name": "selectors",
          "type": "bytes4[]"
        },
        {
          "internalType": "bool[]",
          "name": "requiresRateLimit",
          "type": "bool[]"
        },
        {
          "internalType": "bool[]",
          "name": "requiresMultiSig",
          "type": "bool[]"
        }
      ],
      "name": "bulkConfigureFunctionSecurity",
      "outputs": [],
      "stateMutability": "nonpayable",
      "type": "function"
    },
    {
      "inputs": [
        {
          "internalType": "bytes4",
          "name": "selector",
          "type": "bytes4"
        },
        {
          "internalType": "bool",
          "name": "requiresRateLimit",
          "type": "bool"
        },
        {
          "internalType": "bool",
          "name": "requiresMultiSig",
          "type": "bool"
        }
      ],
      "name": "configureFunctionSecurity",
      "outputs": [],
      "stateMutability": "nonpayable",
      "type": "function"
    },
    {
      "inputs": [],
      "name": "emergencyPause",
      "outputs": [],
      "stateMutability": "nonpayable",
      "type": "function"
    },
    {
      "inputs": [],
      "name": "emergencySystem",
      "outputs": [
        {
          "internalType": "contract EmergencySystem",
          "name": "",
          "type": "address"
        }
      ],
      "stateMutability": "view",
      "type": "function"
    },
    {
      "inputs": [],
      "name": "emergencyUnpause",
      "outputs": [],
      "stateMutability": "nonpayable",
      "type": "function"
    },
    {
      "inputs": [
        {
          "internalType": "bytes4",
          "name": "selector",
          "type": "bytes4"
        }
      ],
      "name": "getFunctionSecurity",
      "outputs": [
        {
          "internalType": "bool",
          "name": "hasRateLimit",
          "type": "bool"
        },
        {
          "internalType": "bool",
          "name": "hasMultiSig",
          "type": "bool"
        }
      ],
      "stateMutability": "view",
      "type": "function"
    },
    {
      "inputs": [
        {
          "internalType": "bytes32",
          "name": "role",
          "type": "bytes32"
        }
      ],
      "name": "getRoleAdmin",
      "outputs": [
        {
          "internalType": "bytes32",
          "name": "",
          "type": "bytes32"
        }
      ],
      "stateMutability": "view",
      "type": "function"
    },
    {
      "inputs": [],
      "name": "getSecurityStatus",
      "outputs": [
        {
          "internalType": "bool",
          "name": "featuresEnabled",
          "type": "bool"
        },
        {
          "internalType": "address",
          "name": "multiSigAddress",
          "type": "address"
        },
        {
          "internalType": "address",
          "name": "rateLimiterAddress",
          "type": "address"
        },
        {
          "internalType": "address",
          "name": "emergencySystemAddress",
          "type": "address"
        }
      ],
      "stateMutability": "view",
      "type": "function"
    },
    {
      "inputs": [
        {
          "internalType": "bytes32",
          "name": "role",
          "type": "bytes32"
        },
        {
          "internalType": "address",
          "name": "account",
          "type": "address"
        }
      ],
      "name": "grantRole",
      "outputs": [],
      "stateMutability": "nonpayable",
      "type": "function"
    },
    {
      "inputs": [
        {
          "internalType": "bytes32",
          "name": "role",
          "type": "bytes32"
        },
        {
          "internalType": "address",
          "name": "account",
          "type": "address"
        }
      ],
      "name": "hasRole",
      "outputs": [
        {
          "internalType": "bool",
          "name": "",
          "type": "bool"
        }
      ],
      "stateMutability": "view",
      "type": "function"
    },
    {
      "inputs": [
        {
          "internalType": "address payable",
          "name": "_multiSigGuard",
          "type": "address"
        },
        {
          "internalType": "address",
          "name": "_rateLimiter",
          "type": "address"
        },
        {
          "internalType": "address",
          "name": "_emergencySystem",
          "type": "address"
        }
      ],
      "name": "initialize",
      "outputs": [],
      "stateMutability": "nonpayable",
      "type": "function"
    },
    {
      "inputs": [],
      "name": "multiSigGuard",
      "outputs": [
        {
          "internalType": "contract MultiSigGuard",
          "name": "",
          "type": "address"
        }
      ],
      "stateMutability": "view",
      "type": "function"
    },
    {
      "inputs": [
        {
          "internalType": "bytes4",
          "name": "",
          "type": "bytes4"
        }
      ],
      "name": "multiSigRequiredFunctions",
      "outputs": [
        {
          "internalType": "bool",
          "name": "",
          "type": "bool"
        }
      ],
      "stateMutability": "view",
      "type": "function"
    },
    {
      "inputs": [],
      "name": "pause",
      "outputs": [],
      "stateMutability": "nonpayable",
      "type": "function"
    },
    {
      "inputs": [],
      "name": "paused",
      "outputs": [
        {
          "internalType": "bool",
          "name": "",
          "type": "bool"
        }
      ],
      "stateMutability": "view",
      "type": "function"
    },
    {
      "inputs": [
        {
          "internalType": "bytes4",
          "name": "",
          "type": "bytes4"
        }
      ],
      "name": "rateLimitedFunctions",
      "outputs": [
        {
          "internalType": "bool",
          "name": "",
          "type": "bool"
        }
      ],
      "stateMutability": "view",
      "type": "function"
    },
    {
      "inputs": [],
      "name": "rateLimiter",
      "outputs": [
        {
          "internalType": "contract RateLimiter",
          "name": "",
          "type": "address"
        }
      ],
      "stateMutability": "view",
      "type": "function"
    },
    {
      "inputs": [
        {
          "internalType": "bytes32",
          "name": "role",
          "type": "bytes32"
        },
        {
          "internalType": "address",
          "name": "callerConfirmation",
          "type": "address"
        }
      ],
      "name": "renounceRole",
      "outputs": [],
      "stateMutability": "nonpayable",
      "type": "function"
    },
    {
      "inputs": [
        {
          "internalType": "bytes32",
          "name": "role",
          "type": "bytes32"
        },
        {
          "internalType": "address",
          "name": "account",
          "type": "address"
        }
      ],
      "name": "revokeRole",
      "outputs": [],
      "stateMutability": "nonpayable",
      "type": "function"
    },
    {
      "inputs": [],
      "name": "securityFeaturesEnabled",
      "outputs": [
        {
          "internalType": "bool",
          "name": "",
          "type": "bool"
        }
      ],
      "stateMutability": "view",
      "type": "function"
    },
    {
      "inputs": [
        {
          "internalType": "bytes4",
          "name": "interfaceId",
          "type": "bytes4"
        }
      ],
      "name": "supportsInterface",
      "outputs": [
        {
          "internalType": "bool",
          "name": "",
          "type": "bool"
        }
      ],
      "stateMutability": "view",
      "type": "function"
    },
    {
      "inputs": [],
      "name": "testEmergencyFunction",
      "outputs": [],
      "stateMutability": "nonpayable",
      "type": "function"
    },
    {
      "inputs": [],
      "name": "testFullSecurityFunction",
      "outputs": [],
      "stateMutability": "nonpayable",
      "type": "function"
    },
    {
      "inputs": [],
      "name": "testMultiSigFunction",
      "outputs": [],
      "stateMutability": "nonpayable",
      "type": "function"
    },
    {
      "inputs": [],
      "name": "testPausableFunction",
      "outputs": [],
      "stateMutability": "nonpayable",
      "type": "function"
    },
    {
      "inputs": [],
      "name": "testRateLimitedFunction",
      "outputs": [],
      "stateMutability": "nonpayable",
      "type": "function"
    },
    {
      "inputs": [],
      "name": "testRecordFailure",
      "outputs": [],
      "stateMutability": "nonpayable",
      "type": "function"
    },
    {
      "inputs": [],
      "name": "testSecureExecution",
      "outputs": [
        {
          "internalType": "bool",
          "name": "",
          "type": "bool"
        }
      ],
      "stateMutability": "nonpayable",
      "type": "function"
    },
    {
      "inputs": [
        {
          "internalType": "address",
          "name": "_address",
          "type": "address"
        },
        {
          "internalType": "uint256",
          "name": "_amount",
          "type": "uint256"
        },
        {
          "internalType": "string",
          "name": "_message",
          "type": "string"
        }
      ],
      "name": "testValidationFunction",
      "outputs": [],
      "stateMutability": "nonpayable",
      "type": "function"
    },
    {
      "inputs": [],
      "name": "testValue",
      "outputs": [
        {
          "internalType": "uint256",
          "name": "",
          "type": "uint256"
        }
      ],
      "stateMutability": "view",
      "type": "function"
    },
    {
      "inputs": [
        {
          "internalType": "bool",
          "name": "enabled",
          "type": "bool"
        }
      ],
      "name": "toggleSecurityFeatures",
      "outputs": [],
      "stateMutability": "nonpayable",
      "type": "function"
    },
    {
      "inputs": [],
      "name": "unpause",
      "outputs": [],
      "stateMutability": "nonpayable",
      "type": "function"
    },
    {
      "inputs": [
        {
          "internalType": "address payable",
          "name": "_multiSigGuard",
          "type": "address"
        },
        {
          "internalType": "address",
          "name": "_rateLimiter",
          "type": "address"
        },
        {
          "internalType": "address",
          "name": "_emergencySystem",
          "type": "address"
        }
      ],
      "name": "updateSecuritySystem",
      "outputs": [],
      "stateMutability": "nonpayable",
      "type": "function"
    },
    {
      "inputs": [
        {
          "internalType": "address",
          "name": "",
          "type": "address"
        }
      ],
      "name": "userBalances",
      "outputs": [
        {
          "internalType": "uint256",
          "name": "",
          "type": "uint256"
        }
      ],
      "stateMutability": "view",
      "type": "function"
    }
  ],
  "bytecode": "0x6080806040523461001657611fe2908161001c8239f35b600080fdfe608060408181526004918236101561001657600080fd5b60009283358060e01c92836301ffc9a7146117b5575082630a1cb38e146117795782630dacf41d146116e757826316c4fd7f14611540578263248a9ca31461150757826326224c64146114ce57826326d44685146114a45782632f2ff15d1461147a578263327fe62c1461122657826336568abe146111df5782633ece3b6a146111af5782633f4ba83a1461110357826347424d371461111f5782634a4e3bd51461110357826351858e2714610f9757826353d4fe3314610f6d5782635c975abb14610f3b578483636727f6b214610e79575082636def71c914610d5e57826373efc9f214610d155782637450919f14610ab257826375b238fc14610a885782638090506814610a4c5782638456cb59146109e35782638af5de72146109c357826391d148541461096f5782639735af0314610836578263a217fddf1461081a578263a2758898146107f1578263ac1cc2ef146107b4578263b1d271d4146106a6578263c0c53b8b146104e2578263c2d651ba146104ba578263d547741f14610469578263da2f80811461037457508163e388426114610322575063ea9e04ac146101c057600080fd5b3461031e576101ce366118cf565b90916101d8611b9e565b6001600160a01b039283918216806102c0575b501680610262575b501690816101ff578280f35b60607fe13818718d55a6a822ed6fa7864ea09df0bb9365fa82bd02b8428dd058e7fbc991836001600160601b0360a01b60025416176002556e456d657267656e637953797374656d60881b81519160208352600f6020840152820152a238808280f35b806001600160601b0360a01b60015416176001557fe13818718d55a6a822ed6fa7864ea09df0bb9365fa82bd02b8428dd058e7fbc96060855160208152600b60208201526a2930ba32a634b6b4ba32b960a91b87820152a2386101f3565b806001600160601b0360a01b8854161787557fe13818718d55a6a822ed6fa7864ea09df0bb9365fa82bd02b8428dd058e7fbc96060875160208152600d60208201526c135d5b1d1a54da59d1dd585c99609a1b89820152a2386101eb565b5080fd5b905082346103715760203660031901126103715760ff9083906001600160e01b031961034c611807565b1681526003602052828282205416936020522054168251911515825215156020820152f35b80fd5b90915034610465578360031936011261046557836002549160ff8360a01c1680610453575b6103cc575b505050905060055490600a82018092116103b9575060055580f35b634e487b7160e01b835260119052602482fd5b8451634576b34560e11b81526001600160e01b03199091168482015291829060249082906001600160a01b03165afa9081156104465761041892935084908592610421575b5015611ade565b8038838161039e565b905061043f91503d8086833e610437818361187b565b810190611a6d565b9038610411565b50505051903d90823e3d90fd5b506001600160a01b0383161515610399565b8380fd5b848285346104b657806003193601126104b6576104b291356104ad600161048e611834565b93838752600080516020611f7683398151915260205286200154611be8565b611e66565b5080f35b8280fd5b5050503461031e578160031936011261031e5760209060ff60025460a01c1690519015158152f35b509050346104b6576104f3366118cf565b7ff0c57e16840df040f15088dc2f81fe391c3923bec73e23a9662efc9c229c6a0093929184549260ff84881c16159367ffffffffffffffff81169586158061069f575b60018098149081610695575b15908161068c575b5061067e575067ffffffffffffffff198116861787558461065f575b5061056f611f14565b610577611f14565b61057f611f14565b610587611f14565b847f9b779b17422d0df92223018b32b4d1fa46e071723d6817e2486d003becc55f00556105b2611f14565b6105bb33611c1b565b506105c533611ca9565b506105cf33611d47565b5087546001600160a01b03199081166001600160a01b03928316178955855416918116919091178455600280546001600160a81b0319169290911691909117600160a01b17905561061e578380f35b7fc7f505b2f371ae2175ee4913f4499e1f2633a7b5936321eed1cdaeb6115181d29260209268ff000000000000000019815416905551908152a13880808380f35b68ffffffffffffffffff19166801000000000000000117865538610566565b885163f92ee8a960e01b8152fd5b9050153861054a565b303b159150610542565b5085610536565b509050346104b65760603660031901126104b6576106c261181e565b91602435926044359067ffffffffffffffff82116107b057366023830112156107b0578582850135926106f4846118b3565b936107018651958661187b565b80855236602482840101116104b6578060246020930183870137840101526001600160a01b03169081156107a1578415610792575160018110610783576064106107755784526006602052832090815492830180931161076057505580f35b601190634e487b7160e01b6000525260246000fd5b5051631623655b60e31b8152fd5b50505163b42a8bfb60e01b8152fd5b50505163162908e360e11b8152fd5b50505163e6c4247b60e01b8152fd5b8580fd5b5050503461031e57602036600319011261031e5760ff8160209363ffffffff60e01b6107de611807565b1681526003855220541690519015158152f35b5050503461031e578160031936011261031e57905490516001600160a01b039091168152602090f35b5050503461031e578160031936011261031e5751908152602090f35b838591346104b657826003193601126104b65790829160ff60025460a01c1680610950575b8061093c575b610891575b505050600554600019811461087e5760010160055580f35b506011602492634e487b7160e01b835252fd5b60015482516362090c2760e11b8152338782019081526001600160e01b03199093166020848101919091529094909285926001600160a01b0316918391829060400103925af1908115610933575082906108f8575b6108f09150611a08565b808380610866565b506020813d60201161092b575b816109126020938361187b565b8101031261031e576109266108f0916119fb565b6108e6565b3d9150610905565b513d84823e3d90fd5b506001546001600160a01b03161515610861565b506001600160e01b03198116835260036020528183205460ff1661085b565b509050346104b657816003193601126104b6578160209361098e611834565b92358152600080516020611f768339815191528552209060018060a01b0316600052825260ff81600020541690519015158152f35b5050503461031e578160031936011261031e576020906005549051908152f35b5050503461031e578160031936011261031e5760207f62e78cea01bee320cd4e420270b5ea74000d11b0c9f74754ebdbfc544b05a25891610a22611b9e565b610a2a611ee9565b600080516020611f96833981519152805460ff1916600117905551338152a180f35b509050346104b65760203660031901126104b6578160209360ff9263ffffffff60e01b610a77611807565b168252855220541690519015158152f35b5050503461031e578160031936011261031e5760209051600080516020611fb68339815191528152f35b838591346104b657826003193601126104b65760ff60025460a01c1680610cf6575b80610ce2575b610c47575b6002549060ff8260a01c169184838094610c35575b610bbf575b505081610ba0575b5080610b8d575b610b74575b7f9b779b17422d0df92223018b32b4d1fa46e071723d6817e2486d003becc55f00906002825414610b6557506005546103e88101809111610b52576005556001905580f35b634e487b7160e01b835260118452602483fd5b51633ee5aeb560e01b81528390fd5b610b8860018060a01b03835416331461190c565b610b0d565b5081546001600160a01b03161515610b08565b6001600160e01b03191683525060208390528082205460ff1684610b01565b8451634576b34560e11b81526001600160e01b031984168882015291829060249082906001600160a01b03165afa908115610c2b57610c079186918291610c0e575015611ade565b8584610af9565b9050610c2491503d8088833e610437818361187b565b9088610411565b84513d87823e3d90fd5b506001600160a01b0382161515610af4565b60015482516362090c2760e11b8152338682019081526001600160e01b031984166020808301919091529192839182900360400190829088906001600160a01b03165af18015610446578490610ca7575b610ca29150611a08565b610adf565b506020813d602011610cda575b81610cc16020938361187b565b8101031261046557610cd5610ca2916119fb565b610c98565b3d9150610cb4565b506001546001600160a01b03161515610ada565b506001600160e01b03198116835260036020528183205460ff16610ad4565b5050503461031e578160031936011261031e5760809160025460018060a01b03809254169282600154169080519460ff8460a01c16151586526020860152840152166060820152f35b509050346104b65760603660031901126104b657610d7a611807565b602435928315158403610e7457604435908115158203610e7457610e3c93610e6e93610da4611b24565b6001600160e01b0319168088526003602052828820805460ff191660ff89151516179055958691602052610de684848a209060ff801983541691151516179055565b8251807f1cffc81175a4818de5b88c87f22e6146451daefe09351b372014f054f537c7f19788938291909160408152600960408201526814985d19531a5b5a5d60ba1b6060820152602060808201931515910152565b0390a2516040808252600890820152674d756c746953696760c01b606082015290151560208201529081906080820190565b0390a280f35b600080fd5b93925034610f365783600319360112610f365760025460ff8160a01c1680610f24575b610ea4578480f35b6001600160a01b0316803b15610f20576024859285519687938492632af5b50f60e11b845263ffffffff60e01b16878401525af18015610f1657610eea575b8084938480f35b67ffffffffffffffff8311610f03575052388080610ee3565b634e487b7160e01b845260419052602483fd5b82513d86823e3d90fd5b8480fd5b506001600160a01b0381161515610e9c565b505050fd5b5050503461031e578160031936011261031e5760209060ff600080516020611f96833981519152541690519015158152f35b5050503461031e578160031936011261031e5760015490516001600160a01b039091168152602090f35b8385833461031e578160031936011261031e57600080516020611fb68339815191528252602090600080516020611f768339815191528252838320338452825260ff848420541680156110ef575b801561105e575b1561101d57507f62e78cea01bee320cd4e420270b5ea74000d11b0c9f74754ebdbfc544b05a2589192610a2a611ee9565b60649184519162461bcd60e51b8352820152601c60248201527f556e617574686f72697a656420656d657267656e6379207061757365000000006044820152fd5b506002546001600160a01b03168015159083908261107e575b5050610fec565b865163c7a04c1560e01b815233858201529250829060249082905afa9081156110e55784916110b0575b508286611077565b90508281813d83116110de575b6110c7818361187b565b81010312610465576110d8906119fb565b856110a8565b503d6110bd565b85513d86823e3d90fd5b506002546001600160a01b03163314610fe5565b843461037157806003193601126103715761111c611995565b80f35b509050346104b65760203660031901126104b657358015158091036104b6577ff60338eedf967f1d51000923f714e24c4904232547accbf926fb46bf3206d8799160809161116b611b9e565b6002805460ff60a01b191660a083901b60ff60a01b161790558151828152600b928101929092526a416c6c466561747572657360a81b60608301526020820152a180f35b84823461031e578160031936011261031e576111c9611ee9565b60055490600582018092116103b9575060055580f35b5083833461031e578060031936011261031e576111fa611834565b90336001600160a01b0383160361121757506104b2919235611e66565b5163334bd91960e11b81528390fd5b848285346104b65760603660031901126104b65767ffffffffffffffff918035838111610f205761125a903690830161184a565b9060243585811161147657611272903690850161184a565b9190956044359081116114725761128c903690860161184a565b939092611297611b24565b80821480611469575b1561142e57885b8281106112b2578980f35b6112bd81838b61194d565b6112c690611973565b6001600160e01b031990816112dc84878961194d565b6112e590611980565b168c52602090600382528a8d2090611308919060ff801983541691151516179055565b88611314848a8a61194d565b61131d90611973565b918d8461132b878a8c61194d565b61133490611980565b16905252898c2090611351919060ff801983541691151516179055565b80838b8461136081898b61194d565b61136990611980565b926113739261194d565b61137c90611973565b8b5160408082526009908201526814985d19531a5b5a5d60ba1b606082015290151560208201527f1cffc81175a4818de5b88c87f22e6146451daefe09351b372014f054f537c7f19291909116908290608090a26113db83868861194d565b6113e490611980565b916113f0848a8a61194d565b6113f990611973565b8b516040808252600890820152674d756c746953696760c01b60608201529015156020820152921691608090a26001016112a7565b865162461bcd60e51b81526020818801526015602482015274082e4e4c2f240d8cadccee8d040dad2e6dac2e8c6d605b1b6044820152606490fd5b508482146112a0565b8780fd5b8680fd5b848285346104b657806003193601126104b6576104b2913561149f600161048e611834565b611df1565b5050503461031e578160031936011261031e5760025490516001600160a01b039091168152602090f35b5050503461031e57602036600319011261031e5760209181906001600160a01b036114f761181e565b1681526006845220549051908152f35b509050346104b65760203660031901126104b65781602093600192358152600080516020611f7683398151915285522001549051908152f35b9091503461046557836003193601126104655763ffffffff60e01b1660ff60025460a01c16806116d2575b806116be575b611623575b6002549160ff8360a01c1680611611575b611596575b6020845160018152f35b8351634576b34560e11b815290810191909152908390829060249082906001600160a01b03165afa9081156116055790836115de926020959180936115e6575b505015611ade565b38808061158c565b9091506115fd92503d8091833e610437818361187b565b9038806115d6565b505051903d90823e3d90fd5b506001600160a01b0383161515611587565b60015483516362090c2760e11b8152338482019081526001600160e01b031984166020808301919091529192839182900360400190829089906001600160a01b03165af18015610c2b578590611683575b61167e9150611a08565b611576565b506020813d6020116116b6575b8161169d6020938361187b565b81010312610f20576116b161167e916119fb565b611674565b3d9150611690565b506001546001600160a01b03161515611571565b50808452600360205260ff838520541661156b565b9150913461046557836003193601126104655760ff60025460a01c169182611759575b505080611746575b61172d575b60055490606482018092116103b9575060055580f35b61174160018060a01b03835416331461190c565b611717565b5081546001600160a01b03161515611712565b6001600160e01b0319168452602083905283205460ff169050388061170a565b5050503461031e578160031936011261031e57602090517f88105101a15b6e9875df50bc22b8d91915d0f59639253ed3bdbcdc22bf25d9298152f35b85903461031e57602036600319011261031e576020906001600160e01b03196117dc611807565b16637965db0b60e01b81149081156117f6575b5015158152f35b6301ffc9a760e01b149050836117ef565b600435906001600160e01b031982168203610e7457565b600435906001600160a01b0382168203610e7457565b602435906001600160a01b0382168203610e7457565b9181601f84011215610e745782359167ffffffffffffffff8311610e74576020808501948460051b010111610e7457565b90601f8019910116810190811067ffffffffffffffff82111761189d57604052565b634e487b7160e01b600052604160045260246000fd5b67ffffffffffffffff811161189d57601f01601f191660200190565b6060906003190112610e74576001600160a01b036004358181168103610e7457916024358281168103610e7457916044359081168103610e745790565b1561191357565b60405162461bcd60e51b8152602060048201526012602482015271135d5b1d1a4b5cda59c81c995c5d5a5c995960721b6044820152606490fd5b919081101561195d5760051b0190565b634e487b7160e01b600052603260045260246000fd5b358015158103610e745790565b356001600160e01b031981168103610e745790565b61199d611b9e565b600080516020611f96833981519152805460ff8116156119e95760ff191690557f5db9ee0a495bf2e6ff9c91a7834c1ba4fdd244a5e8aa4e537bd38aeae4b073aa6020604051338152a1565b604051638dfc202b60e01b8152600490fd5b51908115158203610e7457565b15611a0f57565b60405162461bcd60e51b815260206004820152601360248201527214985d19481b1a5b5a5d08195e18d959591959606a1b6044820152606490fd5b60005b838110611a5d5750506000910152565b8181015183820152602001611a4d565b9190604083820312610e7457611a82836119fb565b9260208101519067ffffffffffffffff8211610e74570181601f82011215610e74578051611aaf816118b3565b92611abd604051948561187b565b81845260208284010111610e7457611adb9160208085019101611a4a565b90565b15611ae65750565b6044604051809262461bcd60e51b825260206004830152611b168151809281602486015260208686019101611a4a565b601f01601f19168101030190fd5b3360009081527ffe56dc9fdf108d4d9bc517b92133a27c1b56932347b856c2bfe7e0f811aaf3bc60205260409020547f88105101a15b6e9875df50bc22b8d91915d0f59639253ed3bdbcdc22bf25d9299060ff1615611b805750565b6044906040519063e2517d3f60e01b82523360048301526024820152fd5b3360009081527fb16e88c42fd4e48df2dd6a2eabd6bc9aec654ec170056b470819f8892cc6431c6020526040902054600080516020611fb68339815191529060ff1615611b805750565b80600052600080516020611f7683398151915260205260406000203360005260205260ff6040600020541615611b805750565b6001600160a01b031660008181527fb7db2dd08fcb62d0c9e08c51941cae53c267786a0b75803fb7960902fc8ef97d6020526040812054909190600080516020611f768339815191529060ff16611ca4578280526020526040822081835260205260408220600160ff198254161790553391600080516020611f568339815191528180a4600190565b505090565b6001600160a01b031660008181527fb16e88c42fd4e48df2dd6a2eabd6bc9aec654ec170056b470819f8892cc6431c6020526040812054909190600080516020611fb683398151915290600080516020611f768339815191529060ff16611d41578184526020526040832082845260205260408320600160ff19825416179055600080516020611f56833981519152339380a4600190565b50505090565b6001600160a01b031660008181527ffe56dc9fdf108d4d9bc517b92133a27c1b56932347b856c2bfe7e0f811aaf3bc60205260408120549091907f88105101a15b6e9875df50bc22b8d91915d0f59639253ed3bdbcdc22bf25d92990600080516020611f768339815191529060ff16611d41578184526020526040832082845260205260408320600160ff19825416179055600080516020611f56833981519152339380a4600190565b90600091808352600080516020611f7683398151915280602052604084209260018060a01b03169283855260205260ff60408520541615600014611d41578184526020526040832082845260205260408320600160ff19825416179055600080516020611f56833981519152339380a4600190565b90600091808352600080516020611f7683398151915280602052604084209260018060a01b03169283855260205260ff604085205416600014611d4157818452602052604083208284526020526040832060ff1981541690557ff6391f5c32d9c69d2a47ea670b442974b53935d1edc7fd64eb21e047a839171b339380a4600190565b60ff600080516020611f968339815191525416611f0257565b60405163d93c066560e01b8152600490fd5b60ff7ff0c57e16840df040f15088dc2f81fe391c3923bec73e23a9662efc9c229c6a005460401c1615611f4357565b604051631afcd79f60e31b8152600490fdfe2f8788117e7eff1d82e926ec794901d17c78024a50270940304540a733656f0d02dd7bc7dec4dceedda775e58dd541e08a116c6c53815c0bd028192f7b626800cd5ed15c6e187e77e9aee88184c21f4f2182ab5827cb3b7e07fbedcd63f03300a49807205ce4d355092ef5a8a18f56e8913cf4a201fbe287825b095693c21775a164736f6c6343000816000a",
  "linkReferences": {},
  "deployedLinkReferences": {}
}