{
  "_format": "hh-sol-artifact-1",
  "contractName": "VestingWalletFactory",
  "sourceName": "contracts/VestingWalletFactory.sol",
  "abi": [
    {
      "inputs": [],
      "stateMutability": "nonpayable",
      "type": "constructor"
    },
    {
      "inputs": [],
      "name": "AccessControlBadConfirmation",
      "type": "error"
    },
    {
      "inputs": [
        {
          "internalType": "address",
          "name": "account",
          "type": "address"
        },
        {
          "internalType": "bytes32",
          "name": "neededRole",
          "type": "bytes32"
        }
      ],
      "name": "AccessControlUnauthorizedAccount",
      "type": "error"
    },
    {
      "inputs": [],
      "name": "EnforcedPause",
      "type": "error"
    },
    {
      "inputs": [],
      "name": "ExpectedPause",
      "type": "error"
    },
    {
      "inputs": [],
      "name": "ReentrancyGuardReentrantCall",
      "type": "error"
    },
    {
      "anonymous": false,
      "inputs": [
        {
          "indexed": false,
          "internalType": "address",
          "name": "account",
          "type": "address"
        }
      ],
      "name": "Paused",
      "type": "event"
    },
    {
      "anonymous": false,
      "inputs": [
        {
          "indexed": true,
          "internalType": "bytes32",
          "name": "role",
          "type": "bytes32"
        },
        {
          "indexed": true,
          "internalType": "bytes32",
          "name": "previousAdminRole",
          "type": "bytes32"
        },
        {
          "indexed": true,
          "internalType": "bytes32",
          "name": "newAdminRole",
          "type": "bytes32"
        }
      ],
      "name": "RoleAdminChanged",
      "type": "event"
    },
    {
      "anonymous": false,
      "inputs": [
        {
          "indexed": true,
          "internalType": "bytes32",
          "name": "role",
          "type": "bytes32"
        },
        {
          "indexed": true,
          "internalType": "address",
          "name": "account",
          "type": "address"
        },
        {
          "indexed": true,
          "internalType": "address",
          "name": "sender",
          "type": "address"
        }
      ],
      "name": "RoleGranted",
      "type": "event"
    },
    {
      "anonymous": false,
      "inputs": [
        {
          "indexed": true,
          "internalType": "bytes32",
          "name": "role",
          "type": "bytes32"
        },
        {
          "indexed": true,
          "internalType": "address",
          "name": "account",
          "type": "address"
        },
        {
          "indexed": true,
          "internalType": "address",
          "name": "sender",
          "type": "address"
        }
      ],
      "name": "RoleRevoked",
      "type": "event"
    },
    {
      "anonymous": false,
      "inputs": [
        {
          "indexed": false,
          "internalType": "address",
          "name": "account",
          "type": "address"
        }
      ],
      "name": "Unpaused",
      "type": "event"
    },
    {
      "anonymous": false,
      "inputs": [
        {
          "indexed": true,
          "internalType": "address",
          "name": "beneficiary",
          "type": "address"
        },
        {
          "indexed": false,
          "internalType": "uint256",
          "name": "start",
          "type": "uint256"
        },
        {
          "indexed": false,
          "internalType": "uint256",
          "name": "duration",
          "type": "uint256"
        },
        {
          "indexed": false,
          "internalType": "address",
          "name": "vestingWallet",
          "type": "address"
        }
      ],
      "name": "VestingWalletCreated",
      "type": "event"
    },
    {
      "inputs": [],
      "name": "DEFAULT_ADMIN_ROLE",
      "outputs": [
        {
          "internalType": "bytes32",
          "name": "",
          "type": "bytes32"
        }
      ],
      "stateMutability": "view",
      "type": "function"
    },
    {
      "inputs": [],
      "name": "PAUSER_ROLE",
      "outputs": [
        {
          "internalType": "bytes32",
          "name": "",
          "type": "bytes32"
        }
      ],
      "stateMutability": "view",
      "type": "function"
    },
    {
      "inputs": [],
      "name": "WALLET_CREATOR_ROLE",
      "outputs": [
        {
          "internalType": "bytes32",
          "name": "",
          "type": "bytes32"
        }
      ],
      "stateMutability": "view",
      "type": "function"
    },
    {
      "inputs": [
        {
          "internalType": "address",
          "name": "_beneficiary",
          "type": "address"
        },
        {
          "internalType": "uint64",
          "name": "_start",
          "type": "uint64"
        },
        {
          "internalType": "uint64",
          "name": "_duration",
          "type": "uint64"
        }
      ],
      "name": "createVestingWallet",
      "outputs": [
        {
          "internalType": "address",
          "name": "",
          "type": "address"
        }
      ],
      "stateMutability": "nonpayable",
      "type": "function"
    },
    {
      "inputs": [
        {
          "internalType": "bytes32",
          "name": "role",
          "type": "bytes32"
        }
      ],
      "name": "getRoleAdmin",
      "outputs": [
        {
          "internalType": "bytes32",
          "name": "",
          "type": "bytes32"
        }
      ],
      "stateMutability": "view",
      "type": "function"
    },
    {
      "inputs": [
        {
          "internalType": "bytes32",
          "name": "role",
          "type": "bytes32"
        },
        {
          "internalType": "address",
          "name": "account",
          "type": "address"
        }
      ],
      "name": "grantRole",
      "outputs": [],
      "stateMutability": "nonpayable",
      "type": "function"
    },
    {
      "inputs": [
        {
          "internalType": "bytes32",
          "name": "role",
          "type": "bytes32"
        },
        {
          "internalType": "address",
          "name": "account",
          "type": "address"
        }
      ],
      "name": "hasRole",
      "outputs": [
        {
          "internalType": "bool",
          "name": "",
          "type": "bool"
        }
      ],
      "stateMutability": "view",
      "type": "function"
    },
    {
      "inputs": [],
      "name": "pause",
      "outputs": [],
      "stateMutability": "nonpayable",
      "type": "function"
    },
    {
      "inputs": [],
      "name": "paused",
      "outputs": [
        {
          "internalType": "bool",
          "name": "",
          "type": "bool"
        }
      ],
      "stateMutability": "view",
      "type": "function"
    },
    {
      "inputs": [
        {
          "internalType": "bytes32",
          "name": "role",
          "type": "bytes32"
        },
        {
          "internalType": "address",
          "name": "callerConfirmation",
          "type": "address"
        }
      ],
      "name": "renounceRole",
      "outputs": [],
      "stateMutability": "nonpayable",
      "type": "function"
    },
    {
      "inputs": [
        {
          "internalType": "bytes32",
          "name": "role",
          "type": "bytes32"
        },
        {
          "internalType": "address",
          "name": "account",
          "type": "address"
        }
      ],
      "name": "revokeRole",
      "outputs": [],
      "stateMutability": "nonpayable",
      "type": "function"
    },
    {
      "inputs": [
        {
          "internalType": "bytes4",
          "name": "interfaceId",
          "type": "bytes4"
        }
      ],
      "name": "supportsInterface",
      "outputs": [
        {
          "internalType": "bool",
          "name": "",
          "type": "bool"
        }
      ],
      "stateMutability": "view",
      "type": "function"
    },
    {
      "inputs": [],
      "name": "unpause",
      "outputs": [],
      "stateMutability": "nonpayable",
      "type": "function"
    }
  ],
  "bytecode": "0x60806040523461003a57600180556100163361003f565b50610020336100bd565b5061002a3361015d565b5060405161109490816101f98239f35b600080fd5b6001600160a01b031660008181527fad3228b676f7d3cd4284a5443f17f1962b36e491b30a40b2405849e597ba5fb5602052604081205490919060ff166100b957818052816020526040822081835260205260408220600160ff19825416179055339160008051602061128d8339815191528180a4600190565b5090565b6001600160a01b031660008181527ff7c9542c591017a21c74b6f3fab6263c7952fc0aaf9db4c22a2a04ddc7f8674f60205260408120549091907f65d7a28e3265b37a6474929f336521b332c1681b933f6cb9f3376673440d862a9060ff1661015857808352826020526040832082845260205260408320600160ff1982541617905560008051602061128d833981519152339380a4600190565b505090565b6001600160a01b031660008181527feb2322cf9c11ae137873d66e1c92135837664f9da677826b3258f5d5070b56e060205260408120549091907f5de6176eec7aa0c538043c011e6ed29b9ba3f58ed7e80c745990cbc86f2ed08d9060ff1661015857808352826020526040832082845260205260408320600160ff1982541617905560008051602061128d833981519152339380a460019056fe608060408181526004918236101561001657600080fd5b600092833560e01c91826301ffc9a7146104c5575081630a5023371461048a578163248a9ca3146104605781632f2ff15d1461043657816336568abe146103f05781633f4ba83a146103865781633f66ff36146102145781635c975abb146101f05781638456cb591461019557816391d148541461014f578163a217fddf14610134578163d547741f146100f1575063e63ab1e9146100b457600080fd5b346100ed57816003193601126100ed57602090517f65d7a28e3265b37a6474929f336521b332c1681b933f6cb9f3376673440d862a8152f35b5080fd5b9190503461013057806003193601126101305761012c91356101276001610116610518565b9383875286602052862001546105ad565b610651565b5080f35b8280fd5b5050346100ed57816003193601126100ed5751908152602090f35b9050346101305781600319360112610130578160209360ff92610170610518565b903582528186528282206001600160a01b039091168252855220549151911615158152f35b5050346100ed57816003193601126100ed5760207f62e78cea01bee320cd4e420270b5ea74000d11b0c9f74754ebdbfc544b05a258916101d3610533565b6101db6106c6565b600160ff19600254161760025551338152a180f35b5050346100ed57816003193601126100ed5760209060ff6002541690519015158152f35b919050346101305760603660031901126101305781356001600160a01b0381811691829003610382576024359467ffffffffffffffff948587168097036100ed5760443595808716809703610130577f5de6176eec7aa0c538043c011e6ed29b9ba3f58ed7e80c745990cbc86f2ed08d8084528360205286842033855260205260ff87852054161561036457506002600154146103555760026001556102b86106c6565b8551916109a3908184019284841090841117610342575060609183916106e58339868152896020820152888882015203019082f090811561033757506020957f455409aedecbd48d4a146135863a2b7fd43b050bfb65a65e24358ebe53c95b0b9260609216958551918252878201528585820152a26001805551908152f35b8451903d90823e3d90fd5b634e487b7160e01b855260419052602484fd5b508451633ee5aeb560e01b8152fd5b865163e2517d3f60e01b815233818501526024810191909152604490fd5b8480fd5b9050346101305782600319360112610130576103a0610533565b6002549060ff8216156103e2575060ff1916600255513381527f5db9ee0a495bf2e6ff9c91a7834c1ba4fdd244a5e8aa4e537bd38aeae4b073aa90602090a180f35b8251638dfc202b60e01b8152fd5b8383346100ed57806003193601126100ed5761040a610518565b90336001600160a01b03831603610427575061012c919235610651565b5163334bd91960e11b81528390fd5b9190503461013057806003193601126101305761012c913561045b6001610116610518565b6105d3565b90503461013057602036600319011261013057816020936001923581528085522001549051908152f35b5050346100ed57816003193601126100ed57602090517f5de6176eec7aa0c538043c011e6ed29b9ba3f58ed7e80c745990cbc86f2ed08d8152f35b849134610130576020366003190112610130573563ffffffff60e01b81168091036101305760209250637965db0b60e01b8114908115610507575b5015158152f35b6301ffc9a760e01b14905083610500565b602435906001600160a01b038216820361052e57565b600080fd5b3360009081527ff7c9542c591017a21c74b6f3fab6263c7952fc0aaf9db4c22a2a04ddc7f8674f60205260409020547f65d7a28e3265b37a6474929f336521b332c1681b933f6cb9f3376673440d862a9060ff161561058f5750565b6044906040519063e2517d3f60e01b82523360048301526024820152fd5b80600052600060205260406000203360005260205260ff604060002054161561058f5750565b9060009180835282602052604083209160018060a01b03169182845260205260ff6040842054161560001461064c57808352826020526040832082845260205260408320600160ff198254161790557f2f8788117e7eff1d82e926ec794901d17c78024a50270940304540a733656f0d339380a4600190565b505090565b9060009180835282602052604083209160018060a01b03169182845260205260ff60408420541660001461064c5780835282602052604083208284526020526040832060ff1981541690557ff6391f5c32d9c69d2a47ea670b442974b53935d1edc7fd64eb21e047a839171b339380a4600190565b60ff600254166106d257565b60405163d93c066560e01b8152600490fdfe60c03461010957601f6109a338819003918201601f19168301916001600160401b0383118484101761010e578084926060946040528339810103126101095780516001600160a01b0391828216918290036101095761006c604061006560208401610124565b9201610124565b9180156100f057600080546001600160a01b03198116831782556040519516907f8be0079c531659141344cd1fd0a4f28419497f9722a3daafe3b4186f6b6457e09080a360805260a05261086a908161013982396080518181816101d40152818161075a015261078e015260a0518181816105760152818161073701526107f00152f35b604051631e4fbdf760e01b815260006004820152602490fd5b600080fd5b634e487b7160e01b600052604160045260246000fd5b51906001600160401b03821682036101095756fe60406080815260049081361015610020575b5050361561001e57600080fd5b005b600091823560e01c9081630a17b06b1461059a5781630fb5a6b4146105555781631916558714610447578163715018a6146103ed578163810ec23b146103ae57816386d1a69f1461029d5781638da5cb5b1461027557816396132521146102565781639852595c1461021e578163a3f8eace146101f8578163be9a6555146101b3578163efbe1c1c14610196578163f2fde38b1461010b575063fbccedae036100115734610107578160031936011261010757602090610100476100fb600154916100f68367ffffffffffffffff4216926105ef565b61077f565b6106e3565b9051908152f35b5080fd5b905034610192576020366003190112610192576101266105d4565b9061012f610831565b6001600160a01b0391821692831561017c57505082546001600160a01b0319811683178455167f8be0079c531659141344cd1fd0a4f28419497f9722a3daafe3b4186f6b6457e08380a380f35b51631e4fbdf760e01b8152908101849052602490fd5b8280fd5b505034610107578160031936011261010757602090610100610728565b5050346101075781600319360112610107576020905167ffffffffffffffff7f0000000000000000000000000000000000000000000000000000000000000000168152f35b505034610107576020366003190112610107576020906101006102196105d4565b6106f0565b5050346101075760203660031901126101075760209181906001600160a01b036102466105d4565b1681526002845220549051908152f35b5050346101075781600319360112610107576020906001549051908152f35b505034610107578160031936011261010757905490516001600160a01b039091168152602090f35b90503461019257826003193601126101925760015467ffffffffffffffff92906102db6102d4826100fb4288166100f683476105ef565b80926105ef565b6001557fda9d4e5f101b8b9b1c5b76d0c5a9f7923571acfc02376aa076b75a8c080c956b60208351838152a184546001600160a01b0316478211610391578580809381935af13d15610388573d93841161037557815193610346601f8201601f191660200186610612565b84523d85602086013e5b15610359578380f35b82511561036857825160208401fd5b5163d6bda27560e01b8152fd5b634e487b7160e01b855260418352602485fd5b60609350610350565b50604492914790519263cf47918160e01b84528301526024820152fd5b5050346101075780600319360112610107576103c86105d4565b6024359267ffffffffffffffff841684036103ea57506020926101009161064a565b80fd5b83346103ea57806003193601126103ea57610406610831565b80546001600160a01b03198116825581906001600160a01b03167f8be0079c531659141344cd1fd0a4f28419497f9722a3daafe3b4186f6b6457e08280a380f35b91905034610192576020366003190112610192576104636105d4565b9061046d826106f0565b60018060a01b0380931692838652600260205282862061048e8382546105ef565b9055837fc0e523490dd523c33b1878c9eb14ff46991e3f5b2cd33710918618f2a39cba1b60208551858152a285541690825190602082019263a9059cbb60e01b845260248301526044820152604481526080810181811067ffffffffffffffff8211176105425783525160209186919082865af1156105395783513d6105305750813b155b61051b578380f35b51635274afe760e01b81529182015260249150fd5b60011415610513565b513d84823e3d90fd5b634e487b7160e01b875260418652602487fd5b5050346101075781600319360112610107576020905167ffffffffffffffff7f0000000000000000000000000000000000000000000000000000000000000000168152f35b90503461019257602036600319011261019257359167ffffffffffffffff831683036103ea57506101006020926100f647600154906105ef565b600435906001600160a01b03821682036105ea57565b600080fd5b919082018092116105fc57565b634e487b7160e01b600052601160045260246000fd5b90601f8019910116810190811067ffffffffffffffff82111761063457604052565b634e487b7160e01b600052604160045260246000fd5b6040516370a0823160e01b81523060048201526001600160a01b03919091169190602081602481865afa9081156106d7576000916106a3575b506100f6906106a0936000526002602052604060002054906105ef565b90565b90506020813d6020116106cf575b816106be60209383610612565b810103126105ea57516106a0610683565b3d91506106b1565b6040513d6000823e3d90fd5b919082039182116105fc57565b6106a09061070867ffffffffffffffff42168261064a565b6001600160a01b03909116600090815260026020526040902054906106e3565b6106a067ffffffffffffffff807f000000000000000000000000000000000000000000000000000000000000000016907f0000000000000000000000000000000000000000000000000000000000000000166105ef565b9067ffffffffffffffff9081167f00000000000000000000000000000000000000000000000000000000000000008216808210156107c05750505050600090565b6107c8610728565b82106107d45750505090565b6107dd916106e3565b918281029281840414901517156105fc577f00000000000000000000000000000000000000000000000000000000000000001690811561081b570490565b634e487b7160e01b600052601260045260246000fd5b6000546001600160a01b0316330361084557565b60405163118cdaa760e01b8152336004820152602490fdfea164736f6c6343000816000aa164736f6c6343000816000a2f8788117e7eff1d82e926ec794901d17c78024a50270940304540a733656f0d",
  "linkReferences": {},
  "deployedLinkReferences": {}
}