{
  "_format": "hh-sol-artifact-1",
  "contractName": "StreakEngineMinimal",
  "sourceName": "contracts/StreakEngineMinimal.sol",
  "abi": [
    {
      "inputs": [],
      "name": "AccessControlBadConfirmation",
      "type": "error"
    },
    {
      "inputs": [
        {
          "internalType": "address",
          "name": "account",
          "type": "address"
        },
        {
          "internalType": "bytes32",
          "name": "neededRole",
          "type": "bytes32"
        }
      ],
      "name": "AccessControlUnauthorizedAccount",
      "type": "error"
    },
    {
      "inputs": [
        {
          "internalType": "address",
          "name": "target",
          "type": "address"
        }
      ],
      "name": "AddressEmptyCode",
      "type": "error"
    },
    {
      "inputs": [
        {
          "internalType": "address",
          "name": "implementation",
          "type": "address"
        }
      ],
      "name": "ERC1967InvalidImplementation",
      "type": "error"
    },
    {
      "inputs": [],
      "name": "ERC1967NonPayable",
      "type": "error"
    },
    {
      "inputs": [],
      "name": "EnforcedPause",
      "type": "error"
    },
    {
      "inputs": [],
      "name": "ExpectedPause",
      "type": "error"
    },
    {
      "inputs": [],
      "name": "FailedCall",
      "type": "error"
    },
    {
      "inputs": [],
      "name": "InvalidInitialization",
      "type": "error"
    },
    {
      "inputs": [],
      "name": "NotInitializing",
      "type": "error"
    },
    {
      "inputs": [],
      "name": "ReentrancyGuardReentrantCall",
      "type": "error"
    },
    {
      "inputs": [],
      "name": "UUPSUnauthorizedCallContext",
      "type": "error"
    },
    {
      "inputs": [
        {
          "internalType": "bytes32",
          "name": "slot",
          "type": "bytes32"
        }
      ],
      "name": "UUPSUnsupportedProxiableUUID",
      "type": "error"
    },
    {
      "anonymous": false,
      "inputs": [
        {
          "indexed": false,
          "internalType": "uint64",
          "name": "version",
          "type": "uint64"
        }
      ],
      "name": "Initialized",
      "type": "event"
    },
    {
      "anonymous": false,
      "inputs": [
        {
          "indexed": false,
          "internalType": "address",
          "name": "account",
          "type": "address"
        }
      ],
      "name": "Paused",
      "type": "event"
    },
    {
      "anonymous": false,
      "inputs": [
        {
          "indexed": true,
          "internalType": "bytes32",
          "name": "role",
          "type": "bytes32"
        },
        {
          "indexed": true,
          "internalType": "bytes32",
          "name": "previousAdminRole",
          "type": "bytes32"
        },
        {
          "indexed": true,
          "internalType": "bytes32",
          "name": "newAdminRole",
          "type": "bytes32"
        }
      ],
      "name": "RoleAdminChanged",
      "type": "event"
    },
    {
      "anonymous": false,
      "inputs": [
        {
          "indexed": true,
          "internalType": "bytes32",
          "name": "role",
          "type": "bytes32"
        },
        {
          "indexed": true,
          "internalType": "address",
          "name": "account",
          "type": "address"
        },
        {
          "indexed": true,
          "internalType": "address",
          "name": "sender",
          "type": "address"
        }
      ],
      "name": "RoleGranted",
      "type": "event"
    },
    {
      "anonymous": false,
      "inputs": [
        {
          "indexed": true,
          "internalType": "bytes32",
          "name": "role",
          "type": "bytes32"
        },
        {
          "indexed": true,
          "internalType": "address",
          "name": "account",
          "type": "address"
        },
        {
          "indexed": true,
          "internalType": "address",
          "name": "sender",
          "type": "address"
        }
      ],
      "name": "RoleRevoked",
      "type": "event"
    },
    {
      "anonymous": false,
      "inputs": [
        {
          "indexed": true,
          "internalType": "address",
          "name": "user",
          "type": "address"
        },
        {
          "indexed": false,
          "internalType": "enum StreakEngineMinimal.StreakType",
          "name": "streakType",
          "type": "uint8"
        },
        {
          "indexed": false,
          "internalType": "uint256",
          "name": "finalStreak",
          "type": "uint256"
        }
      ],
      "name": "StreakBroken",
      "type": "event"
    },
    {
      "anonymous": false,
      "inputs": [
        {
          "indexed": true,
          "internalType": "address",
          "name": "user",
          "type": "address"
        },
        {
          "indexed": false,
          "internalType": "enum StreakEngineMinimal.StreakType",
          "name": "streakType",
          "type": "uint8"
        },
        {
          "indexed": false,
          "internalType": "uint256",
          "name": "newStreak",
          "type": "uint256"
        }
      ],
      "name": "StreakIncreased",
      "type": "event"
    },
    {
      "anonymous": false,
      "inputs": [
        {
          "indexed": false,
          "internalType": "address",
          "name": "account",
          "type": "address"
        }
      ],
      "name": "Unpaused",
      "type": "event"
    },
    {
      "anonymous": false,
      "inputs": [
        {
          "indexed": true,
          "internalType": "address",
          "name": "implementation",
          "type": "address"
        }
      ],
      "name": "Upgraded",
      "type": "event"
    },
    {
      "inputs": [],
      "name": "ADMIN_ROLE",
      "outputs": [
        {
          "internalType": "bytes32",
          "name": "",
          "type": "bytes32"
        }
      ],
      "stateMutability": "view",
      "type": "function"
    },
    {
      "inputs": [],
      "name": "DEFAULT_ADMIN_ROLE",
      "outputs": [
        {
          "internalType": "bytes32",
          "name": "",
          "type": "bytes32"
        }
      ],
      "stateMutability": "view",
      "type": "function"
    },
    {
      "inputs": [],
      "name": "STREAK_MANAGER_ROLE",
      "outputs": [
        {
          "internalType": "bytes32",
          "name": "",
          "type": "bytes32"
        }
      ],
      "stateMutability": "view",
      "type": "function"
    },
    {
      "inputs": [],
      "name": "UPGRADER_ROLE",
      "outputs": [
        {
          "internalType": "bytes32",
          "name": "",
          "type": "bytes32"
        }
      ],
      "stateMutability": "view",
      "type": "function"
    },
    {
      "inputs": [],
      "name": "UPGRADE_INTERFACE_VERSION",
      "outputs": [
        {
          "internalType": "string",
          "name": "",
          "type": "string"
        }
      ],
      "stateMutability": "view",
      "type": "function"
    },
    {
      "inputs": [
        {
          "internalType": "bytes32",
          "name": "role",
          "type": "bytes32"
        }
      ],
      "name": "getRoleAdmin",
      "outputs": [
        {
          "internalType": "bytes32",
          "name": "",
          "type": "bytes32"
        }
      ],
      "stateMutability": "view",
      "type": "function"
    },
    {
      "inputs": [
        {
          "internalType": "address",
          "name": "user",
          "type": "address"
        }
      ],
      "name": "getUserStreaks",
      "outputs": [
        {
          "internalType": "uint256",
          "name": "dailyLogin",
          "type": "uint256"
        },
        {
          "internalType": "uint256",
          "name": "questCompletion",
          "type": "uint256"
        },
        {
          "internalType": "uint256",
          "name": "trading",
          "type": "uint256"
        },
        {
          "internalType": "uint256",
          "name": "governance",
          "type": "uint256"
        },
        {
          "internalType": "uint256",
          "name": "social",
          "type": "uint256"
        },
        {
          "internalType": "uint256",
          "name": "lastLogin",
          "type": "uint256"
        },
        {
          "internalType": "uint256",
          "name": "lastQuest",
          "type": "uint256"
        },
        {
          "internalType": "uint256",
          "name": "lastTrading",
          "type": "uint256"
        },
        {
          "internalType": "uint256",
          "name": "lastGov",
          "type": "uint256"
        },
        {
          "internalType": "uint256",
          "name": "lastSocial",
          "type": "uint256"
        }
      ],
      "stateMutability": "view",
      "type": "function"
    },
    {
      "inputs": [
        {
          "internalType": "bytes32",
          "name": "role",
          "type": "bytes32"
        },
        {
          "internalType": "address",
          "name": "account",
          "type": "address"
        }
      ],
      "name": "grantRole",
      "outputs": [],
      "stateMutability": "nonpayable",
      "type": "function"
    },
    {
      "inputs": [
        {
          "internalType": "bytes32",
          "name": "role",
          "type": "bytes32"
        },
        {
          "internalType": "address",
          "name": "account",
          "type": "address"
        }
      ],
      "name": "hasRole",
      "outputs": [
        {
          "internalType": "bool",
          "name": "",
          "type": "bool"
        }
      ],
      "stateMutability": "view",
      "type": "function"
    },
    {
      "inputs": [
        {
          "internalType": "address",
          "name": "_rewardManager",
          "type": "address"
        },
        {
          "internalType": "address",
          "name": "_milestoneManager",
          "type": "address"
        },
        {
          "internalType": "address",
          "name": "_statsManager",
          "type": "address"
        }
      ],
      "name": "initialize",
      "outputs": [],
      "stateMutability": "nonpayable",
      "type": "function"
    },
    {
      "inputs": [],
      "name": "milestoneManager",
      "outputs": [
        {
          "internalType": "contract IStreakMilestoneManager",
          "name": "",
          "type": "address"
        }
      ],
      "stateMutability": "view",
      "type": "function"
    },
    {
      "inputs": [],
      "name": "pause",
      "outputs": [],
      "stateMutability": "nonpayable",
      "type": "function"
    },
    {
      "inputs": [],
      "name": "paused",
      "outputs": [
        {
          "internalType": "bool",
          "name": "",
          "type": "bool"
        }
      ],
      "stateMutability": "view",
      "type": "function"
    },
    {
      "inputs": [],
      "name": "proxiableUUID",
      "outputs": [
        {
          "internalType": "bytes32",
          "name": "",
          "type": "bytes32"
        }
      ],
      "stateMutability": "view",
      "type": "function"
    },
    {
      "inputs": [],
      "name": "recordDailyLogin",
      "outputs": [],
      "stateMutability": "nonpayable",
      "type": "function"
    },
    {
      "inputs": [],
      "name": "recordGovernanceParticipation",
      "outputs": [],
      "stateMutability": "nonpayable",
      "type": "function"
    },
    {
      "inputs": [],
      "name": "recordQuestCompletion",
      "outputs": [],
      "stateMutability": "nonpayable",
      "type": "function"
    },
    {
      "inputs": [],
      "name": "recordSocialInteraction",
      "outputs": [],
      "stateMutability": "nonpayable",
      "type": "function"
    },
    {
      "inputs": [],
      "name": "recordTradingActivity",
      "outputs": [],
      "stateMutability": "nonpayable",
      "type": "function"
    },
    {
      "inputs": [
        {
          "internalType": "bytes32",
          "name": "role",
          "type": "bytes32"
        },
        {
          "internalType": "address",
          "name": "callerConfirmation",
          "type": "address"
        }
      ],
      "name": "renounceRole",
      "outputs": [],
      "stateMutability": "nonpayable",
      "type": "function"
    },
    {
      "inputs": [
        {
          "internalType": "bytes32",
          "name": "role",
          "type": "bytes32"
        },
        {
          "internalType": "address",
          "name": "account",
          "type": "address"
        }
      ],
      "name": "revokeRole",
      "outputs": [],
      "stateMutability": "nonpayable",
      "type": "function"
    },
    {
      "inputs": [],
      "name": "rewardManager",
      "outputs": [
        {
          "internalType": "contract IStreakRewardManager",
          "name": "",
          "type": "address"
        }
      ],
      "stateMutability": "view",
      "type": "function"
    },
    {
      "inputs": [
        {
          "internalType": "address",
          "name": "_rewardManager",
          "type": "address"
        },
        {
          "internalType": "address",
          "name": "_milestoneManager",
          "type": "address"
        },
        {
          "internalType": "address",
          "name": "_statsManager",
          "type": "address"
        }
      ],
      "name": "setManagers",
      "outputs": [],
      "stateMutability": "nonpayable",
      "type": "function"
    },
    {
      "inputs": [],
      "name": "statsManager",
      "outputs": [
        {
          "internalType": "contract IStreakStatisticsManager",
          "name": "",
          "type": "address"
        }
      ],
      "stateMutability": "view",
      "type": "function"
    },
    {
      "inputs": [
        {
          "internalType": "bytes4",
          "name": "interfaceId",
          "type": "bytes4"
        }
      ],
      "name": "supportsInterface",
      "outputs": [
        {
          "internalType": "bool",
          "name": "",
          "type": "bool"
        }
      ],
      "stateMutability": "view",
      "type": "function"
    },
    {
      "inputs": [],
      "name": "unpause",
      "outputs": [],
      "stateMutability": "nonpayable",
      "type": "function"
    },
    {
      "inputs": [
        {
          "internalType": "address",
          "name": "newImplementation",
          "type": "address"
        },
        {
          "internalType": "bytes",
          "name": "data",
          "type": "bytes"
        }
      ],
      "name": "upgradeToAndCall",
      "outputs": [],
      "stateMutability": "payable",
      "type": "function"
    },
    {
      "inputs": [
        {
          "internalType": "address",
          "name": "",
          "type": "address"
        }
      ],
      "name": "userStreaks",
      "outputs": [
        {
          "internalType": "uint128",
          "name": "dailyLogin",
          "type": "uint128"
        },
        {
          "internalType": "uint128",
          "name": "questCompletion",
          "type": "uint128"
        },
        {
          "internalType": "uint128",
          "name": "trading",
          "type": "uint128"
        },
        {
          "internalType": "uint128",
          "name": "governance",
          "type": "uint128"
        },
        {
          "internalType": "uint128",
          "name": "social",
          "type": "uint128"
        },
        {
          "internalType": "uint32",
          "name": "lastLoginDate",
          "type": "uint32"
        },
        {
          "internalType": "uint32",
          "name": "lastQuestDate",
          "type": "uint32"
        },
        {
          "internalType": "uint32",
          "name": "lastTradingDate",
          "type": "uint32"
        },
        {
          "internalType": "uint32",
          "name": "lastGovernanceDate",
          "type": "uint32"
        },
        {
          "internalType": "uint32",
          "name": "lastSocialDate",
          "type": "uint32"
        }
      ],
      "stateMutability": "view",
      "type": "function"
    }
  ],
  "bytecode": "0x60a0806040523461002a5730608052611ef7908161003082396080518181816107e801526108c80152f35b600080fdfe608060408181526004918236101561001657600080fd5b600092833560e01c91826301ffc9a714610ce857508163042e952814610cad5781630b7d662f14610c845781630f4ef8a614610c5c5781631f644b1a14610c32578163248a9ca314610bfa5781632f2ff15d14610bd057816336568abe14610b8a5781633f4ba83a14610b125781634f1ef2861461084c57816352d1902d146107d35781635c975abb146107a25781635d03999f1461073657816375b238fc146106fb5781638456cb59146106935781638ed0150e1461066957816391d1485414610615578163a217fddf146105fa578163ad3cb1cc1461055b578163bd9391c514610531578163c0c53b8b14610363578163cf13b7b614610339578163d291d1f214610310578163d547741f146102bf57508063d652bfdf14610212578063f4428446146101be578063f580a1b9146101965763f72c0d8b1461015957600080fd5b34610192578160031936011261019257602090517f189ab7a9244df0848122154315af71fe140f3db0fe014031783b0946b8c9d2e38152f35b5080fd5b503461019257816003193601126101925760025490516001600160a01b039091168152602090f35b823461020f578060031936011261020f576101d7610dea565b6101df610e15565b6101e8336117db565b60017f9b779b17422d0df92223018b32b4d1fa46e071723d6817e2486d003becc55f005580f35b80fd5b5034610192576020366003190112610192576101409181906001600160a01b0361023a610d56565b1681526003602052209081549160036001600160801b03600183015460028401549363ffffffff93849101541694805196838116885260801c60208801528282169087015260801c606086015282166080850152808260801c1660a0850152808260a01c1660c08501528160c01c1660e084015260e01c610100830152610120820152f35b9190503461030c578060031936011261030c57610308913561030360016102e4610d3b565b93838752600080516020611e8b83398151915260205286200154611a93565b611d23565b5080f35b8280fd5b505034610192576020366003190112610192576101409181906001600160a01b0361023a610d56565b833461020f578060031936011261020f57610352610dea565b61035a610e15565b6101e8336115b7565b90503461030c57606036600319011261030c5761037e610d56565b90610387610d3b565b91610390610d6c565b907ff0c57e16840df040f15088dc2f81fe391c3923bec73e23a9662efc9c229c6a009384549260ff84881c16159367ffffffffffffffff81169586158061052a575b60018098149081610520575b159081610517575b50610509575067ffffffffffffffff19811686178755846104ea575b5061040b611da6565b610413611da6565b61041b611da6565b610423611da6565b847f9b779b17422d0df92223018b32b4d1fa46e071723d6817e2486d003becc55f005561044e611da6565b61045733611ac6565b5061046133611b76565b5061046b33611c04565b5060018060a01b038092816bffffffffffffffffffffffff60a01b9516858b5416178a551683865416178555169060025416176002556104a9578380f35b7fc7f505b2f371ae2175ee4913f4499e1f2633a7b5936321eed1cdaeb6115181d29260209268ff000000000000000019815416905551908152a13880808380f35b68ffffffffffffffffff19166801000000000000000117865538610402565b885163f92ee8a960e01b8152fd5b905015386103e6565b303b1591506103de565b50856103d2565b833461020f578060031936011261020f5761054a610dea565b610552610e15565b6101e833611397565b90503461030c578260031936011261030c578151908282019082821067ffffffffffffffff8311176105e75750825260058152602090640352e302e360dc1b6020820152825193849260208452825192836020860152825b8481106105d157505050828201840152601f01601f19168101030190f35b81810183015188820188015287955082016105b3565b634e487b7160e01b855260419052602484fd5b50503461019257816003193601126101925751908152602090f35b90503461030c578160031936011261030c578160209360ff92610636610d3b565b90358252600080516020611e8b83398151915286528282206001600160a01b039091168252855220549151911615158152f35b833461020f578060031936011261020f57610682610dea565b61068a610e15565b6101e833611117565b50503461019257816003193601126101925760207f62e78cea01bee320cd4e420270b5ea74000d11b0c9f74754ebdbfc544b05a258916106d1611a19565b6106d9610dea565b600080516020611eab833981519152805460ff1916600117905551338152a180f35b505034610192578160031936011261019257602090517fa49807205ce4d355092ef5a8a18f56e8913cf4a201fbe287825b095693c217758152f35b833461020f57606036600319011261020f57610750610d56565b610758610d3b565b610760610d6c565b610768611a19565b60018060a01b038092816bffffffffffffffffffffffff60a01b951685875416178655168360015416176001551690600254161760025580f35b50503461019257816003193601126101925760209060ff600080516020611eab833981519152541690519015158152f35b82843461020f578060031936011261020f57507f00000000000000000000000000000000000000000000000000000000000000006001600160a01b0316300361083f57602090517f360894a13ba1a3210667c828492db98dca3e2076cc3735a920a3ca505d382bbc8152f35b5163703e46dd60e11b8152fd5b9180915060031936011261030c57610862610d56565b90602493843567ffffffffffffffff81116101925736602382011215610192578085013561088f81610dce565b9461089c85519687610dac565b81865260209182870193368a8383010111610b0e578186928b8693018737880101526001600160a01b037f00000000000000000000000000000000000000000000000000000000000000008116308114908115610ae0575b50610ad0577f189ab7a9244df0848122154315af71fe140f3db0fe014031783b0946b8c9d2e3808652600080516020611e8b8339815191528452868620338752845260ff878720541615610ab3575081169585516352d1902d60e01b815283818a818b5afa869181610a80575b5061097d575050505050505191634c9c8ce360e01b8352820152fd5b9088888894938c7f360894a13ba1a3210667c828492db98dca3e2076cc3735a920a3ca505d382bbc91828103610a6b5750853b15610a57575080546001600160a01b031916821790558451889392917fbc7cd75a20ee27fd9adebab32041f755214dbc6bffa90cc0225b39da2e5c2d3b8580a2825115610a395750506103089582915190845af4913d15610a2f573d610a21610a1882610dce565b92519283610dac565b81528581943d92013e611de7565b5060609250611de7565b955095505050505034610a4b57505080f35b63b398979f60e01b8152fd5b8651634c9c8ce360e01b8152808501849052fd5b8751632a87526960e21b815280860191909152fd5b9091508481813d8311610aac575b610a988183610dac565b81010312610aa857519038610961565b8680fd5b503d610a8e565b865163e2517d3f60e01b815233818b0152808b0191909152604490fd5b855163703e46dd60e11b81528890fd5b9050817f360894a13ba1a3210667c828492db98dca3e2076cc3735a920a3ca505d382bbc54161415386108f4565b8580fd5b90503461030c578260031936011261030c57610b2c611a19565b600080516020611eab8339815191529081549060ff821615610b7c575060ff19169055513381527f5db9ee0a495bf2e6ff9c91a7834c1ba4fdd244a5e8aa4e537bd38aeae4b073aa90602090a180f35b8351638dfc202b60e01b8152fd5b838334610192578060031936011261019257610ba4610d3b565b90336001600160a01b03831603610bc15750610308919235611d23565b5163334bd91960e11b81528390fd5b9190503461030c578060031936011261030c576103089135610bf560016102e4610d3b565b611cae565b90503461030c57602036600319011261030c5781602093600192358152600080516020611e8b83398151915285522001549051908152f35b833461020f578060031936011261020f57610c4b610dea565b610c53610e15565b6101e833610e92565b505034610192578160031936011261019257905490516001600160a01b039091168152602090f35b50503461019257816003193601126101925760015490516001600160a01b039091168152602090f35b505034610192578160031936011261019257602090517fe7f159bef681f2008ba223c40037edab35f05fc2683288867060bd08604f7ba08152f35b84913461030c57602036600319011261030c573563ffffffff60e01b811680910361030c5760209250637965db0b60e01b8114908115610d2a575b5015158152f35b6301ffc9a760e01b14905083610d23565b602435906001600160a01b0382168203610d5157565b600080fd5b600435906001600160a01b0382168203610d5157565b604435906001600160a01b0382168203610d5157565b67ffffffffffffffff8111610d9657604052565b634e487b7160e01b600052604160045260246000fd5b90601f8019910116810190811067ffffffffffffffff821117610d9657604052565b67ffffffffffffffff8111610d9657601f01601f191660200190565b60ff600080516020611eab8339815191525416610e0357565b60405163d93c066560e01b8152600490fd5b7f9b779b17422d0df92223018b32b4d1fa46e071723d6817e2486d003becc55f006002815414610e455760029055565b604051633ee5aeb560e01b8152600490fd5b91908201809211610e6457565b634e487b7160e01b600052601160045260246000fd5b6001600160801b03809116908114610e645760010190565b60009060018060a01b03809116908183526003602052604091828420906201518042049490600383019263ffffffff938481541694600195868101808211610e64578a81036110c2575050600283018054906001600160801b03610ef7818416610e7a565b1680926001600160801b031916179055985b1663ffffffff1982541617905585519382600080516020611e6b833981519152886004978881528b6020820152a28560005416803b15610d51576000809160648b8b519485938492634fbc43a560e11b84528a8d8501528c602485015260448401525af180156110b7576110a3575b5085815416803b1561109f57908480939260448b8b519687938492634061f1b160e11b84528a8d85015260248401525af180156110955790859291611079575b6110039293506002610ff9835492610fef610fe16001600160801b0395868160801c9116610e57565b918601549185831690610e57565b9060801c90610e57565b9201541690610e57565b9460025416926110665750813b15610d51576000608492819587519889968795631a0bb1fd60e31b8752818701526024860152604485015260648401525af190811561105c57506110515750565b61105a90610d82565b565b513d6000823e3d90fd5b634e487b7160e01b815260218452602490fd5b91909261108590610d82565b61109157818491610fb8565b8380fd5b88513d87823e3d90fd5b8480fd5b6110ae919450610d82565b60009238610f78565b88513d6000823e3d90fd5b8a919a1160001461110b5760028401876001600160801b0319825416179055869915610f095784600080516020611ecb8339815191528a8051600481528a6020820152a2610f09565b50505050505050505050565b6001600160a01b039081166000818152600360205260408082206002810180546201518042049693959394600194909390929160a01c63ffffffff16808601808211610e645789810361133557505061119f611176825460801c610e7a565b82546001600160801b031660809190911b6fffffffffffffffffffffffffffffffff1916178255565b805460801c975b825463ffffffff60a01b191660a09190911b63ffffffff60a01b161782558651858152602081018990528390600080516020611e6b833981519152908990a28560005416803b15610d51576000809160648b8b519485938492634fbc43a560e11b84528a60048501528c602485015260448401525af180156110b757611321575b5085855416803b1561109f57908480939260448b8b519687938492634061f1b160e11b84528a600485015260248401525af180156110955790859291611309575b6112a692935061129d815491610fef896112906001600160801b0395868160801c9116610e57565b9201549184831690610e57565b91541690610e57565b9460025416926112f55750813b15610d51576000608492819587519889968795631a0bb1fd60e31b875260048701526024860152604485015260648401525af190811561105c57506110515750565b634e487b7160e01b81526021600452602490fd5b91909261131590610d82565b61109157818491611268565b61132c919450610d82565b60009238611227565b8991991160001461138c5783600160801b6001600160801b038454161780845589889b611365575b5050506111a6565b600080516020611ecb833981519152918151908a825260801c6020820152a283388961135d565b505050505050505050565b6001600160a01b0390811660008181526003602052604080822060028101805492949362015180420493909260019160801c63ffffffff16808301808211610e645786810361157257505080546001600160801b036113f7818316610e7a565b1680916001600160801b031916178255945b835463ffffffff60801b191660809190911b63ffffffff60801b16178355865160008152602081018690528690600080516020611e6b833981519152908990a28760005416803b15610d51576000809160648a5180948193634fbc43a560e11b83528c60048401528160248401528b60448401525af180156110b75761155e575b5087825416803b1561109f5784809160448a5180948193634061f1b160e11b83528c60048401528b60248401525af1801561109557908594939291611542575b509061129d82610fef6114f2959454936112906001600160801b0395868160801c9116610e57565b9560025416916112f55750803b15610d51576000928360849286519788958694631a0bb1fd60e31b86526004860152836024860152604485015260648401525af190811561105c57506110515750565b611550909491929394610d82565b6110915790839291386114ca565b611569919450610d82565b6000923861148a565b8691961160001461138c57826001600160801b03198354161782558295156114095786600080516020611ecb83398151915289805160008152866020820152a2611409565b6001600160a01b0390811660008181526003602052604080822060028101805492949362015180420493909260019160e01c808301808211610e645786810361178057505081810161160f611176825460801c610e7a565b5460801c945b83546001600160e01b031660e09190911b6001600160e01b031916178355865160038152602081018690528690600080516020611e6b833981519152908990a28760005416803b15610d51576000809160648a5180948193634fbc43a560e11b83528c6004840152600360248401528b60448401525af180156110b75761176c575b5087825416803b1561109f5784809160448a5180948193634061f1b160e11b83528c60048401528b60248401525af1801561109557908594939291611750575b509061129d82610fef6116ff959454936112906001600160801b0395868160801c9116610e57565b9560025416916112f55750803b15610d51576000928360849286519788958694631a0bb1fd60e31b8652600486015260036024860152604485015260648401525af190811561105c57506110515750565b61175e909491929394610d82565b6110915790839291386116d7565b611777919450610d82565b60009238611697565b8691961160001461138c5786838301600160801b6001600160801b03825416178091558985986117b3575b505050611615565b600080516020611ecb833981519152918151906003825260801c6020820152a28638896117ab565b6001600160a01b039081166000818152600360205260408082206002808201805462015180420497949694959294929360019160c01c63ffffffff16808301808211610e64578a81036119d25750508181018054906001600160801b03611843818416610e7a565b1680926001600160801b031916179055985b835463ffffffff60c01b191660c09190911b63ffffffff60c01b161783558751868152602081018a90528490600080516020611e6b833981519152908a90a28660005416803b15610d51576000809160648c8c519485938492634fbc43a560e11b84528b60048501528d602485015260448401525af180156119c7576119b3575b5086825416803b15610b0e5785809160448c8c519485938492634061f1b160e11b84528b600485015260248401525af180156119a95790869493929161198d575b509061129d82610fef61193f959454936112906001600160801b0395868160801c9116610e57565b94845416926112f55750813b15610d51576000608492819587519889968795631a0bb1fd60e31b875260048701526024860152604485015260648401525af190811561105c57506110515750565b61199b909491929394610d82565b61109f579084929138611917565b89513d88823e3d90fd5b6119be919550610d82565b600093386118d6565b89513d6000823e3d90fd5b8a919a1160001461110b57828201836001600160801b03198254161790558299156118555784600080516020611ecb8339815191528a80518a8152866020820152a2611855565b3360009081527fb16e88c42fd4e48df2dd6a2eabd6bc9aec654ec170056b470819f8892cc6431c60205260409020547fa49807205ce4d355092ef5a8a18f56e8913cf4a201fbe287825b095693c217759060ff1615611a755750565b6044906040519063e2517d3f60e01b82523360048301526024820152fd5b80600052600080516020611e8b83398151915260205260406000203360005260205260ff6040600020541615611a755750565b6001600160a01b031660008181527fb16e88c42fd4e48df2dd6a2eabd6bc9aec654ec170056b470819f8892cc6431c60205260408120549091907fa49807205ce4d355092ef5a8a18f56e8913cf4a201fbe287825b095693c2177590600080516020611e8b8339815191529060ff16611b70578184526020526040832082845260205260408320600160ff19825416179055600080516020611e4b833981519152339380a4600190565b50505090565b6001600160a01b031660008181527fb7db2dd08fcb62d0c9e08c51941cae53c267786a0b75803fb7960902fc8ef97d6020526040812054909190600080516020611e8b8339815191529060ff16611bff578280526020526040822081835260205260408220600160ff198254161790553391600080516020611e4b8339815191528180a4600190565b505090565b6001600160a01b031660008181527fab71e3f32666744d246edff3f96e4bdafee2e9867098cdd118a979a7464786a860205260408120549091907f189ab7a9244df0848122154315af71fe140f3db0fe014031783b0946b8c9d2e390600080516020611e8b8339815191529060ff16611b70578184526020526040832082845260205260408320600160ff19825416179055600080516020611e4b833981519152339380a4600190565b90600091808352600080516020611e8b83398151915280602052604084209260018060a01b03169283855260205260ff60408520541615600014611b70578184526020526040832082845260205260408320600160ff19825416179055600080516020611e4b833981519152339380a4600190565b90600091808352600080516020611e8b83398151915280602052604084209260018060a01b03169283855260205260ff604085205416600014611b7057818452602052604083208284526020526040832060ff1981541690557ff6391f5c32d9c69d2a47ea670b442974b53935d1edc7fd64eb21e047a839171b339380a4600190565b60ff7ff0c57e16840df040f15088dc2f81fe391c3923bec73e23a9662efc9c229c6a005460401c1615611dd557565b604051631afcd79f60e31b8152600490fd5b90611e0e5750805115611dfc57602081519101fd5b60405163d6bda27560e01b8152600490fd5b81511580611e41575b611e1f575090565b604051639996b31560e01b81526001600160a01b039091166004820152602490fd5b50803b15611e1756fe2f8788117e7eff1d82e926ec794901d17c78024a50270940304540a733656f0d27a46de68e618e01c909d10b01db1bf9cb508ac9f755d837a1c1263e58d3855a02dd7bc7dec4dceedda775e58dd541e08a116c6c53815c0bd028192f7b626800cd5ed15c6e187e77e9aee88184c21f4f2182ab5827cb3b7e07fbedcd63f03300170d50a67be29f4c351d74ad1563cc84a1572bab3803adb6b61fdf09506458b3a164736f6c6343000816000a",
  "linkReferences": {},
  "deployedLinkReferences": {}
}