{
  "_format": "hh-sol-artifact-1",
  "contractName": "StreakCore",
  "sourceName": "contracts/StreakCore.sol",
  "abi": [
    {
      "inputs": [],
      "name": "AccessControlBadConfirmation",
      "type": "error"
    },
    {
      "inputs": [
        {
          "internalType": "address",
          "name": "account",
          "type": "address"
        },
        {
          "internalType": "bytes32",
          "name": "neededRole",
          "type": "bytes32"
        }
      ],
      "name": "AccessControlUnauthorizedAccount",
      "type": "error"
    },
    {
      "inputs": [
        {
          "internalType": "address",
          "name": "target",
          "type": "address"
        }
      ],
      "name": "AddressEmptyCode",
      "type": "error"
    },
    {
      "inputs": [],
      "name": "AlreadyRecordedToday",
      "type": "error"
    },
    {
      "inputs": [
        {
          "internalType": "address",
          "name": "implementation",
          "type": "address"
        }
      ],
      "name": "ERC1967InvalidImplementation",
      "type": "error"
    },
    {
      "inputs": [],
      "name": "ERC1967NonPayable",
      "type": "error"
    },
    {
      "inputs": [],
      "name": "EnforcedPause",
      "type": "error"
    },
    {
      "inputs": [],
      "name": "ExpectedPause",
      "type": "error"
    },
    {
      "inputs": [],
      "name": "FailedCall",
      "type": "error"
    },
    {
      "inputs": [],
      "name": "InvalidInitialization",
      "type": "error"
    },
    {
      "inputs": [],
      "name": "InvalidStreakType",
      "type": "error"
    },
    {
      "inputs": [],
      "name": "NoFreezesAvailable",
      "type": "error"
    },
    {
      "inputs": [],
      "name": "NotInitializing",
      "type": "error"
    },
    {
      "inputs": [],
      "name": "ReentrancyGuardReentrantCall",
      "type": "error"
    },
    {
      "inputs": [],
      "name": "StreakNotActive",
      "type": "error"
    },
    {
      "inputs": [],
      "name": "UUPSUnauthorizedCallContext",
      "type": "error"
    },
    {
      "inputs": [
        {
          "internalType": "bytes32",
          "name": "slot",
          "type": "bytes32"
        }
      ],
      "name": "UUPSUnsupportedProxiableUUID",
      "type": "error"
    },
    {
      "anonymous": false,
      "inputs": [
        {
          "indexed": true,
          "internalType": "address",
          "name": "user",
          "type": "address"
        },
        {
          "indexed": true,
          "internalType": "uint8",
          "name": "streakType",
          "type": "uint8"
        },
        {
          "indexed": false,
          "internalType": "bool",
          "name": "streakContinued",
          "type": "bool"
        }
      ],
      "name": "ActivityRecorded",
      "type": "event"
    },
    {
      "anonymous": false,
      "inputs": [
        {
          "indexed": false,
          "internalType": "uint64",
          "name": "version",
          "type": "uint64"
        }
      ],
      "name": "Initialized",
      "type": "event"
    },
    {
      "anonymous": false,
      "inputs": [
        {
          "indexed": false,
          "internalType": "address",
          "name": "account",
          "type": "address"
        }
      ],
      "name": "Paused",
      "type": "event"
    },
    {
      "anonymous": false,
      "inputs": [
        {
          "indexed": true,
          "internalType": "bytes32",
          "name": "role",
          "type": "bytes32"
        },
        {
          "indexed": true,
          "internalType": "bytes32",
          "name": "previousAdminRole",
          "type": "bytes32"
        },
        {
          "indexed": true,
          "internalType": "bytes32",
          "name": "newAdminRole",
          "type": "bytes32"
        }
      ],
      "name": "RoleAdminChanged",
      "type": "event"
    },
    {
      "anonymous": false,
      "inputs": [
        {
          "indexed": true,
          "internalType": "bytes32",
          "name": "role",
          "type": "bytes32"
        },
        {
          "indexed": true,
          "internalType": "address",
          "name": "account",
          "type": "address"
        },
        {
          "indexed": true,
          "internalType": "address",
          "name": "sender",
          "type": "address"
        }
      ],
      "name": "RoleGranted",
      "type": "event"
    },
    {
      "anonymous": false,
      "inputs": [
        {
          "indexed": true,
          "internalType": "bytes32",
          "name": "role",
          "type": "bytes32"
        },
        {
          "indexed": true,
          "internalType": "address",
          "name": "account",
          "type": "address"
        },
        {
          "indexed": true,
          "internalType": "address",
          "name": "sender",
          "type": "address"
        }
      ],
      "name": "RoleRevoked",
      "type": "event"
    },
    {
      "anonymous": false,
      "inputs": [
        {
          "indexed": true,
          "internalType": "address",
          "name": "user",
          "type": "address"
        },
        {
          "indexed": true,
          "internalType": "uint8",
          "name": "streakType",
          "type": "uint8"
        },
        {
          "indexed": false,
          "internalType": "uint32",
          "name": "finalStreak",
          "type": "uint32"
        }
      ],
      "name": "StreakBroken",
      "type": "event"
    },
    {
      "anonymous": false,
      "inputs": [
        {
          "indexed": true,
          "internalType": "address",
          "name": "user",
          "type": "address"
        },
        {
          "indexed": true,
          "internalType": "uint8",
          "name": "streakType",
          "type": "uint8"
        },
        {
          "indexed": false,
          "internalType": "uint32",
          "name": "frozenStreak",
          "type": "uint32"
        }
      ],
      "name": "StreakFrozen",
      "type": "event"
    },
    {
      "anonymous": false,
      "inputs": [
        {
          "indexed": true,
          "internalType": "address",
          "name": "user",
          "type": "address"
        },
        {
          "indexed": true,
          "internalType": "uint8",
          "name": "streakType",
          "type": "uint8"
        },
        {
          "indexed": false,
          "internalType": "uint32",
          "name": "newStreak",
          "type": "uint32"
        }
      ],
      "name": "StreakIncreased",
      "type": "event"
    },
    {
      "anonymous": false,
      "inputs": [
        {
          "indexed": false,
          "internalType": "address",
          "name": "account",
          "type": "address"
        }
      ],
      "name": "Unpaused",
      "type": "event"
    },
    {
      "anonymous": false,
      "inputs": [
        {
          "indexed": true,
          "internalType": "address",
          "name": "implementation",
          "type": "address"
        }
      ],
      "name": "Upgraded",
      "type": "event"
    },
    {
      "inputs": [],
      "name": "DEFAULT_ADMIN_ROLE",
      "outputs": [
        {
          "internalType": "bytes32",
          "name": "",
          "type": "bytes32"
        }
      ],
      "stateMutability": "view",
      "type": "function"
    },
    {
      "inputs": [],
      "name": "STREAK_MANAGER_ROLE",
      "outputs": [
        {
          "internalType": "bytes32",
          "name": "",
          "type": "bytes32"
        }
      ],
      "stateMutability": "view",
      "type": "function"
    },
    {
      "inputs": [],
      "name": "UPGRADER_ROLE",
      "outputs": [
        {
          "internalType": "bytes32",
          "name": "",
          "type": "bytes32"
        }
      ],
      "stateMutability": "view",
      "type": "function"
    },
    {
      "inputs": [],
      "name": "UPGRADE_INTERFACE_VERSION",
      "outputs": [
        {
          "internalType": "string",
          "name": "",
          "type": "string"
        }
      ],
      "stateMutability": "view",
      "type": "function"
    },
    {
      "inputs": [
        {
          "internalType": "address",
          "name": "user",
          "type": "address"
        },
        {
          "internalType": "uint8",
          "name": "streakType",
          "type": "uint8"
        },
        {
          "internalType": "uint32",
          "name": "amount",
          "type": "uint32"
        }
      ],
      "name": "addStreakFreezes",
      "outputs": [],
      "stateMutability": "nonpayable",
      "type": "function"
    },
    {
      "inputs": [
        {
          "internalType": "address",
          "name": "user",
          "type": "address"
        },
        {
          "internalType": "uint8",
          "name": "streakType",
          "type": "uint8"
        }
      ],
      "name": "getCurrentStreak",
      "outputs": [
        {
          "internalType": "uint32",
          "name": "",
          "type": "uint32"
        }
      ],
      "stateMutability": "view",
      "type": "function"
    },
    {
      "inputs": [
        {
          "internalType": "address",
          "name": "user",
          "type": "address"
        },
        {
          "internalType": "uint8",
          "name": "streakType",
          "type": "uint8"
        }
      ],
      "name": "getLongestStreak",
      "outputs": [
        {
          "internalType": "uint32",
          "name": "",
          "type": "uint32"
        }
      ],
      "stateMutability": "view",
      "type": "function"
    },
    {
      "inputs": [
        {
          "internalType": "bytes32",
          "name": "role",
          "type": "bytes32"
        }
      ],
      "name": "getRoleAdmin",
      "outputs": [
        {
          "internalType": "bytes32",
          "name": "",
          "type": "bytes32"
        }
      ],
      "stateMutability": "view",
      "type": "function"
    },
    {
      "inputs": [
        {
          "internalType": "bytes32",
          "name": "role",
          "type": "bytes32"
        },
        {
          "internalType": "address",
          "name": "account",
          "type": "address"
        }
      ],
      "name": "grantRole",
      "outputs": [],
      "stateMutability": "nonpayable",
      "type": "function"
    },
    {
      "inputs": [
        {
          "internalType": "address",
          "name": "user",
          "type": "address"
        },
        {
          "internalType": "uint8",
          "name": "streakType",
          "type": "uint8"
        }
      ],
      "name": "hasRecordedToday",
      "outputs": [
        {
          "internalType": "bool",
          "name": "",
          "type": "bool"
        }
      ],
      "stateMutability": "view",
      "type": "function"
    },
    {
      "inputs": [
        {
          "internalType": "bytes32",
          "name": "role",
          "type": "bytes32"
        },
        {
          "internalType": "address",
          "name": "account",
          "type": "address"
        }
      ],
      "name": "hasRole",
      "outputs": [
        {
          "internalType": "bool",
          "name": "",
          "type": "bool"
        }
      ],
      "stateMutability": "view",
      "type": "function"
    },
    {
      "inputs": [],
      "name": "initialize",
      "outputs": [],
      "stateMutability": "nonpayable",
      "type": "function"
    },
    {
      "inputs": [],
      "name": "pause",
      "outputs": [],
      "stateMutability": "nonpayable",
      "type": "function"
    },
    {
      "inputs": [],
      "name": "paused",
      "outputs": [
        {
          "internalType": "bool",
          "name": "",
          "type": "bool"
        }
      ],
      "stateMutability": "view",
      "type": "function"
    },
    {
      "inputs": [],
      "name": "proxiableUUID",
      "outputs": [
        {
          "internalType": "bytes32",
          "name": "",
          "type": "bytes32"
        }
      ],
      "stateMutability": "view",
      "type": "function"
    },
    {
      "inputs": [
        {
          "internalType": "address",
          "name": "user",
          "type": "address"
        },
        {
          "internalType": "uint8",
          "name": "streakType",
          "type": "uint8"
        }
      ],
      "name": "recordActivity",
      "outputs": [],
      "stateMutability": "nonpayable",
      "type": "function"
    },
    {
      "inputs": [],
      "name": "recordDailyLogin",
      "outputs": [],
      "stateMutability": "nonpayable",
      "type": "function"
    },
    {
      "inputs": [],
      "name": "recordGovernanceParticipation",
      "outputs": [],
      "stateMutability": "nonpayable",
      "type": "function"
    },
    {
      "inputs": [],
      "name": "recordQuestCompletion",
      "outputs": [],
      "stateMutability": "nonpayable",
      "type": "function"
    },
    {
      "inputs": [],
      "name": "recordSocialInteraction",
      "outputs": [],
      "stateMutability": "nonpayable",
      "type": "function"
    },
    {
      "inputs": [],
      "name": "recordTradingActivity",
      "outputs": [],
      "stateMutability": "nonpayable",
      "type": "function"
    },
    {
      "inputs": [
        {
          "internalType": "bytes32",
          "name": "role",
          "type": "bytes32"
        },
        {
          "internalType": "address",
          "name": "callerConfirmation",
          "type": "address"
        }
      ],
      "name": "renounceRole",
      "outputs": [],
      "stateMutability": "nonpayable",
      "type": "function"
    },
    {
      "inputs": [
        {
          "internalType": "bytes32",
          "name": "role",
          "type": "bytes32"
        },
        {
          "internalType": "address",
          "name": "account",
          "type": "address"
        }
      ],
      "name": "revokeRole",
      "outputs": [],
      "stateMutability": "nonpayable",
      "type": "function"
    },
    {
      "inputs": [
        {
          "internalType": "address",
          "name": "",
          "type": "address"
        },
        {
          "internalType": "uint8",
          "name": "",
          "type": "uint8"
        }
      ],
      "name": "streakFreezes",
      "outputs": [
        {
          "internalType": "uint32",
          "name": "",
          "type": "uint32"
        }
      ],
      "stateMutability": "view",
      "type": "function"
    },
    {
      "inputs": [
        {
          "internalType": "bytes4",
          "name": "interfaceId",
          "type": "bytes4"
        }
      ],
      "name": "supportsInterface",
      "outputs": [
        {
          "internalType": "bool",
          "name": "",
          "type": "bool"
        }
      ],
      "stateMutability": "view",
      "type": "function"
    },
    {
      "inputs": [],
      "name": "unpause",
      "outputs": [],
      "stateMutability": "nonpayable",
      "type": "function"
    },
    {
      "inputs": [
        {
          "internalType": "address",
          "name": "newImplementation",
          "type": "address"
        },
        {
          "internalType": "bytes",
          "name": "data",
          "type": "bytes"
        }
      ],
      "name": "upgradeToAndCall",
      "outputs": [],
      "stateMutability": "payable",
      "type": "function"
    },
    {
      "inputs": [
        {
          "internalType": "uint8",
          "name": "streakType",
          "type": "uint8"
        }
      ],
      "name": "useStreakFreeze",
      "outputs": [],
      "stateMutability": "nonpayable",
      "type": "function"
    },
    {
      "inputs": [
        {
          "internalType": "address",
          "name": "",
          "type": "address"
        },
        {
          "internalType": "uint8",
          "name": "",
          "type": "uint8"
        }
      ],
      "name": "userStreaks",
      "outputs": [
        {
          "internalType": "uint32",
          "name": "currentStreak",
          "type": "uint32"
        },
        {
          "internalType": "uint32",
          "name": "longestStreak",
          "type": "uint32"
        },
        {
          "internalType": "uint32",
          "name": "lastActivityDay",
          "type": "uint32"
        },
        {
          "internalType": "uint32",
          "name": "freezesUsed",
          "type": "uint32"
        }
      ],
      "stateMutability": "view",
      "type": "function"
    }
  ],
  "bytecode": "0x60a0806040523461002a5730608052612279908161003082396080518181816113df01526114c00152f35b600080fdfe608060408181526004908136101561001657600080fd5b600092833560e01c90816301ffc9a714611b0557508063042e952814611aca5780631f644b1a14611858578063248a9ca31461182057806324d9b0a5146117ed5780632f2ff15d146117c557806336568abe1461177e5780633f4ba83a146117065780634f1ef2861461144657806352d1902d146113ca5780635c975abb146113995780638129fc1c1461122e5780638456cb59146111c65780638ea4bcac146111565780638ed0150e14610eda57806391d1485414610e86578063a217fddf14610e6b578063aafdfd2414610cfd578063ad3cb1cc14610c5e578063bd9391c5146109e1578063c0add5b4146109aa578063cd2bf1e0146106d3578063cf13b7b6146105a4578063d547741f14610559578063e58b21c31461051e578063f1e4f2c6146104cc578063f442844614610255578063f72c0d8b146102165763faba8f881461016357600080fd5b346102125760603660031901126102125761017c611b59565b90610185611b8a565b906044359263ffffffff9283851680950361020e5760ff906101a5611d7d565b16908582116101fe576001600160a01b031686526001602090815282872091875252842080549093909282841601908282116101eb5750169063ffffffff191617905580f35b634e487b7160e01b865260119052602485fd5b82516310612f4b60e01b81528690fd5b8680fd5b8280fd5b838234610251578160031936011261025157602090517f189ab7a9244df0848122154315af71fe140f3db0fe014031783b0946b8c9d2e38152f35b5080fd5b50829034610251578160031936011261025157610270611cf6565b610278611d21565b33825260209082825280832060028452825280832063ffffffff806201518042041682548281861c16908282146104bc5787600298995090821560001461033d57505050916000805160206121cd83398151915293916102f5959364010000000167ffffffffffffffff1984541617835560019687915b84611c5b565b61031a575b50505192151583523392a3600160008051602061224d8339815191525580f35b8691541682519081526000805160206121ed833981519152843392a386806102fa565b8461034785611d51565b1683036103be57505050916000805160206121cd83398151915293916102f5959382548280610377818416611c30565b16809263ffffffff191617808655871c16811161039a575b5060019687916102ef565b835463ffffffff60201b191660209190911b63ffffffff60201b161783558961038f565b846103cf8593989694999795611d51565b1688106103f4575b50859650946102f56000805160206121cd833981519152966102ef565b6000805160206121cd833981519152965088836104146102f59a85611d67565b161115806104ae575b1561047d575082548280610432818416611c30565b16809263ffffffff191617808655871c168111610459575b5060019687915b9196506103d7565b835463ffffffff60201b191660209190911b63ffffffff60201b161783558961044a565b60019089865185831681526000805160206121ad833981519152893392a363ffffffff191617835588968791610451565b50828160601c16151561041d565b855163767b4fa760e11b81528990fd5b83823461025157806003193601126102515763ffffffff816020936104ef611b59565b6104f7611b8a565b6001600160a01b0390911682526001865282822060ff909116825285522054915191168152f35b83823461025157806003193601126102515760209063ffffffff610551610543611b59565b61054b611b8a565b90611cc0565b915191168152f35b50346102125780600319360112610212576105a0913561059b600161057c611b74565b9383875260008051602061220d83398151915260205286200154611dd5565b612065565b5080f35b508290346102515781600319360112610251576105bf611cf6565b6105c7611d21565b33825260209082825280832060038452825280832063ffffffff806201518042041682548281861c16908282146104bc5787600398995090821560001461064357505050916000805160206121cd83398151915293916102f5959364010000000167ffffffffffffffff19845416178355600196879184611c5b565b8461064d85611d51565b16830361067d57505050916000805160206121cd83398151915293916102f5959382548280610377818416611c30565b8461068e8593989694999795611d51565b1688106106b25750859650946102f56000805160206121cd833981519152966102ef565b6000805160206121cd83398151915296506002836104146102f59a85611d67565b50346102125780600319360112610212576106ec611b59565b916106f5611b8a565b907fe7f159bef681f2008ba223c40037edab35f05fc2683288867060bd08604f7ba09182865260209260008051602061220d8339815191528452848720338852845260ff85882054161561098c575060ff9061074f611cf6565b610757611d21565b169381851161097d5760018060a01b031692838652858352808620858752835280862063ffffffff806201518042041682548281861c169582871461096f57509286899389936000805160206121cd833981519152999897968d98801560001461082c575050835467ffffffffffffffff19166401000000011784556001975087906107e4905b85611c5b565b61080a575b5050505050519015158152a3600160008051602061224d8339815191525580f35b6000805160206121ed8339815191529254168551908152a385853885816107e9565b8361083684611d51565b16810361089a5750506107e4975083548280610853818416611c30565b16809263ffffffff191617808755851c168111610876575b5060019788916107de565b845463ffffffff60201b191660209190911b63ffffffff60201b161784553861086b565b836108a484611d51565b1681106108b8575b50506107e488916107de565b6107e49950836108ca60029285611d67565b16111580610961575b156109315750835482806108e8818416611c30565b16809263ffffffff191617808755851c16811161090d575b5060019788915b916108ac565b845463ffffffff60201b191660209190911b63ffffffff60201b1617845538610900565b60019087876000805160206121ad833981519152878c518886168152a363ffffffff19161784558c978891610907565b50828160601c1615156108d3565b855163767b4fa760e11b8152fd5b5082516310612f4b60e01b8152fd5b845163e2517d3f60e01b815233818501526024810191909152604490fd5b8382346102515780600319360112610251576020906109d86109ca611b59565b6109d2611b8a565b90611c7b565b90519015158152f35b508290346102515781600319360112610251576109fc611cf6565b610a04611d21565b338252602082815281832083805281528183209363ffffffff9081620151804204169086548381871c1691838314610c5057509186979187949385908215600014610ace57505050916000805160206121cd833981519152949391610a86969364010000000167ffffffffffffffff1983541617825560019788915b83611c5b565b610aac575b5050505192151583523392a3600160008051602061224d8339815191525580f35b541682519081526000805160206121ed833981519152843392a3848780610a8b565b85610ad885611d51565b168303610b50575050509181610a8696936000805160206121cd833981519152969593548380610b09818416611c30565b16809263ffffffff191617808555881c168111610b2c575b506001978891610a80565b825463ffffffff60201b191660209190911b63ffffffff60201b161782558a610b21565b85610b628593999896949a9795611d51565b168910610b87575b5086975095610a866000805160206121cd83398151915297610a80565b6000805160206121cd8339815191529750600284610ba8610a869b85611d67565b16111580610c42575b15610c11575081548380610bc6818416611c30565b16809263ffffffff191617808555881c168111610bed575b5060019788915b919750610b6a565b825463ffffffff60201b191660209190911b63ffffffff60201b161782558a610bde565b60019085875186831681526000805160206121ad8339815191528a3392a363ffffffff191617825583978891610be5565b50838160601c161515610bb1565b865163767b4fa760e11b8152fd5b5090346102125782600319360112610212578151908282019082821067ffffffffffffffff831117610cea5750825260058152602090640352e302e360dc1b6020820152825193849260208452825192836020860152825b848110610cd457505050828201840152601f01601f19168101030190f35b8181018301518882018801528795508201610cb6565b634e487b7160e01b855260419052602484fd5b5082903461025157602090816003193601126102125783359160ff8316809303610e6757610d29611cf6565b848311610e575733845260018152818420838552815263ffffffff80838620541615610e475733855284825282852084865282528285208181541615610e375733865260018352838620858752835283862080548381168015610e245760001901841663ffffffff1991909116179055805463ffffffff60601b610db2606083901c8516611c30565b60601b169063ffffffff60601b19161781556002826201518042041601828111610e115790610e047fc24622e816921f66da24458ac64043b8a39270edd997bed860d56ff77a7dc57394939282611c5b565b541692519283523392a380f35b634e487b7160e01b875260118852602487fd5b634e487b7160e01b895260118a52602489fd5b835163367d9e8960e21b81528790fd5b82516359e238df60e01b81528690fd5b81516310612f4b60e01b81528590fd5b8380fd5b83823461025157816003193601126102515751908152602090f35b5090346102125781600319360112610212578160209360ff92610ea7611b74565b9035825260008051602061220d83398151915286528282206001600160a01b039091168252855220549151911615158152f35b50919034610251578160031936011261025157610ef5611cf6565b610efd611d21565b3382526020908282528383209160019283855281528484209463ffffffff9586620151804204169381548881851c16918683146111485750918798918798938894918015600014610fc957505050906000805160206121cd83398151915294939291610f839664010000000167ffffffffffffffff198354161782558397889183611c5b565b610fa7575b5050505192151583523392a360008051602061224d8339815191525580f35b541682519081526000805160206121ed833981519152843392a3843880610f88565b84610fd38a611d51565b16810361104a575050509081610f83966000805160206121cd83398151915296959493548380611004818416611c30565b16809263ffffffff191617808555881c168111611026575b5083978891610a80565b825463ffffffff60201b191660209190911b63ffffffff60201b161782553861101c565b8461105b8a99989796959499611d51565b16811061107f575b505085610f836000805160206121cd8339815191529798610a80565b6000805160206121cd833981519152975088916002856110a38894610f839d611d67565b1611158061113a575b1561110c575050815483806110c2818416611c30565b16809263ffffffff191617808555881c1681116110e8575b50839788915b989750611063565b825463ffffffff60201b191660209190911b63ffffffff60201b16178255386110da565b81875186831681526000805160206121ad8339815191528a3392a363ffffffff19161782558a9788916110e0565b50848160601c1615156110ac565b845163767b4fa760e11b8152fd5b83823461025157806003193601126102515780608092611174611b59565b61117c611b8a565b9060018060a01b031682528160205260ff83832091168252602052205463ffffffff908251928282168452828260201c1660208501528282821c169084015260601c166060820152f35b83823461025157816003193601126102515760207f62e78cea01bee320cd4e420270b5ea74000d11b0c9f74754ebdbfc544b05a25891611204611d7d565b61120c611cf6565b60008051602061222d833981519152805460ff1916600117905551338152a180f35b5090346102125782600319360112610212577ff0c57e16840df040f15088dc2f81fe391c3923bec73e23a9662efc9c229c6a0090815460ff81851c16159167ffffffffffffffff821680159081611391575b6001149081611387575b15908161137e575b50611370575067ffffffffffffffff198116600117835581611351575b506112b86120e8565b6112c06120e8565b6112c86120e8565b6112d06120e8565b600160008051602061224d833981519152556112ea6120e8565b6112f333611e08565b506112fd33611e96565b5061130733611f46565b50611310578280f35b805468ff00000000000000001916905551600181527fc7f505b2f371ae2175ee4913f4499e1f2633a7b5936321eed1cdaeb6115181d290602090a138808280f35b68ffffffffffffffffff191668010000000000000001178255386112af565b845163f92ee8a960e01b8152fd5b90501538611292565b303b15915061128a565b849150611280565b83823461025157816003193601126102515760209060ff60008051602061222d833981519152541690519015158152f35b508234611443578060031936011261144357507f00000000000000000000000000000000000000000000000000000000000000006001600160a01b0316300361143657602090517f360894a13ba1a3210667c828492db98dca3e2076cc3735a920a3ca505d382bbc8152f35b5163703e46dd60e11b8152fd5b80fd5b50806003193601126102125761145a611b59565b90602493843567ffffffffffffffff81116102515736602382011215610251578085013561148781611bd2565b9461149485519687611b9a565b81865260209182870193368a8383010111611702578186928b8693018737880101526001600160a01b037f000000000000000000000000000000000000000000000000000000000000000081163081149081156116d4575b506116c4577f189ab7a9244df0848122154315af71fe140f3db0fe014031783b0946b8c9d2e380865260008051602061220d8339815191528452868620338752845260ff8787205416156116a7575081169585516352d1902d60e01b815283818a818b5afa869181611678575b50611575575050505050505191634c9c8ce360e01b8352820152fd5b9088888894938c7f360894a13ba1a3210667c828492db98dca3e2076cc3735a920a3ca505d382bbc918281036116635750853b1561164f575080546001600160a01b031916821790558451889392917fbc7cd75a20ee27fd9adebab32041f755214dbc6bffa90cc0225b39da2e5c2d3b8580a28251156116315750506105a09582915190845af4913d15611627573d61161961161082611bd2565b92519283611b9a565b81528581943d92013e612129565b5060609250612129565b95509550505050503461164357505080f35b63b398979f60e01b8152fd5b8651634c9c8ce360e01b8152808501849052fd5b8751632a87526960e21b815280860191909152fd5b9091508481813d83116116a0575b6116908183611b9a565b8101031261020e57519038611559565b503d611686565b865163e2517d3f60e01b815233818b0152808b0191909152604490fd5b855163703e46dd60e11b81528890fd5b9050817f360894a13ba1a3210667c828492db98dca3e2076cc3735a920a3ca505d382bbc54161415386114ec565b8580fd5b509034610212578260031936011261021257611720611d7d565b60008051602061222d8339815191529081549060ff821615611770575060ff19169055513381527f5db9ee0a495bf2e6ff9c91a7834c1ba4fdd244a5e8aa4e537bd38aeae4b073aa90602090a180f35b8351638dfc202b60e01b8152fd5b50829034610251578060031936011261025157611799611b74565b90336001600160a01b038316036117b657506105a0919235612065565b5163334bd91960e11b81528390fd5b50346102125780600319360112610212576105a091356117e8600161057c611b74565b611ff0565b83823461025157806003193601126102515760209063ffffffff610551611812611b59565b61181a611b8a565b90611bee565b509034610212576020366003190112610212578160209360019235815260008051602061220d83398151915285522001549051908152f35b5034610212578260031936011261021257611871611cf6565b611879611d21565b3383526020838152818420838552815281842063ffffffff90816201518042041681548381871c1690828214611aba5787949392919089908261193957505050916000805160206121cd8339815191529493916118f2969364010000000167ffffffffffffffff19835416178255600197889183611c5b565b611917575050505192151583523392a3600160008051602061224d8339815191525580f35b541682519081526000805160206121ed833981519152843392a3843880610a8b565b8561194385611d51565b1683036119ba5750505091816118f296936000805160206121cd833981519152969593548380611974818416611c30565b16809263ffffffff191617808555881c16811161199657506001978891610a80565b825463ffffffff60201b191660209190911b63ffffffff60201b1617825538610b21565b856119cc8593999896949a9795611d51565b1689106119f1575b50869750956118f26000805160206121cd83398151915297610a80565b6000805160206121cd8339815191529750600284611a126118f29b85611d67565b16111580611aac575b15611a7b575081548380611a30818416611c30565b16809263ffffffff191617808555881c168111611a57575b5060019788915b9197506119d4565b825463ffffffff60201b191660209190911b63ffffffff60201b1617825538611a48565b60019085875186831681526000805160206121ad8339815191528a3392a363ffffffff191617825589978891611a4f565b50838160601c161515611a1b565b865163767b4fa760e11b81528890fd5b838234610251578160031936011261025157602090517fe7f159bef681f2008ba223c40037edab35f05fc2683288867060bd08604f7ba08152f35b84908434610212576020366003190112610212573563ffffffff60e01b81168091036102125760209250637965db0b60e01b8114908115611b48575b5015158152f35b6301ffc9a760e01b14905083611b41565b600435906001600160a01b0382168203611b6f57565b600080fd5b602435906001600160a01b0382168203611b6f57565b6024359060ff82168203611b6f57565b90601f8019910116810190811067ffffffffffffffff821117611bbc57604052565b634e487b7160e01b600052604160045260246000fd5b67ffffffffffffffff8111611bbc57601f01601f191660200190565b9060ff169060048211611c295760018060a01b0316600052600060205260406000209060005260205263ffffffff60406000205460201c1690565b5050600090565b63ffffffff809116908114611c455760010190565b634e487b7160e01b600052601160045260246000fd5b9063ffffffff60401b82549160401b169063ffffffff60401b1916179055565b9060ff169060048211611c295760018060a01b0316600052600060205260406000209060005260205263ffffffff8060406000205460401c1690620151804204161490565b9060ff169060048211611c29576001600160a01b0316600090815260208181526040808320938352929052205463ffffffff1690565b60ff60008051602061222d8339815191525416611d0f57565b60405163d93c066560e01b8152600490fd5b60008051602061224d8339815191526002815414611d3f5760029055565b604051633ee5aeb560e01b8152600490fd5b63ffffffff9081166000190191908211611c4557565b63ffffffff9182169082160391908211611c4557565b3360009081527fb7db2dd08fcb62d0c9e08c51941cae53c267786a0b75803fb7960902fc8ef97d602052604081205460ff1615611db75750565b6044906040519063e2517d3f60e01b82523360048301526024820152fd5b8060005260008051602061220d83398151915260205260406000203360005260205260ff6040600020541615611db75750565b6001600160a01b031660008181527fb7db2dd08fcb62d0c9e08c51941cae53c267786a0b75803fb7960902fc8ef97d602052604081205490919060008051602061220d8339815191529060ff16611e91578280526020526040822081835260205260408220600160ff19825416179055339160008051602061218d8339815191528180a4600190565b505090565b6001600160a01b031660008181527f34a5d646319baff23b6ede998a118d6eb46a49b849dd8029f52dca59fb840b9660205260408120549091907fe7f159bef681f2008ba223c40037edab35f05fc2683288867060bd08604f7ba09060008051602061220d8339815191529060ff16611f40578184526020526040832082845260205260408320600160ff1982541617905560008051602061218d833981519152339380a4600190565b50505090565b6001600160a01b031660008181527fab71e3f32666744d246edff3f96e4bdafee2e9867098cdd118a979a7464786a860205260408120549091907f189ab7a9244df0848122154315af71fe140f3db0fe014031783b0946b8c9d2e39060008051602061220d8339815191529060ff16611f40578184526020526040832082845260205260408320600160ff1982541617905560008051602061218d833981519152339380a4600190565b9060009180835260008051602061220d83398151915280602052604084209260018060a01b03169283855260205260ff60408520541615600014611f40578184526020526040832082845260205260408320600160ff1982541617905560008051602061218d833981519152339380a4600190565b9060009180835260008051602061220d83398151915280602052604084209260018060a01b03169283855260205260ff604085205416600014611f4057818452602052604083208284526020526040832060ff1981541690557ff6391f5c32d9c69d2a47ea670b442974b53935d1edc7fd64eb21e047a839171b339380a4600190565b60ff7ff0c57e16840df040f15088dc2f81fe391c3923bec73e23a9662efc9c229c6a005460401c161561211757565b604051631afcd79f60e31b8152600490fd5b90612150575080511561213e57602081519101fd5b60405163d6bda27560e01b8152600490fd5b81511580612183575b612161575090565b604051639996b31560e01b81526001600160a01b039091166004820152602490fd5b50803b1561215956fe2f8788117e7eff1d82e926ec794901d17c78024a50270940304540a733656f0dd5d5c5b8950b764b133f30b9272cf5ec250baa3deec54d9afc3d098ccf5eac7d608db549383578f2ba3500393dcfcd8a374da188c224f6f83d71b276bcb19ccd0f9ed30437325a565d496eaad093c7b9041a72b8359e1a76b75d4d60882ba18b02dd7bc7dec4dceedda775e58dd541e08a116c6c53815c0bd028192f7b626800cd5ed15c6e187e77e9aee88184c21f4f2182ab5827cb3b7e07fbedcd63f033009b779b17422d0df92223018b32b4d1fa46e071723d6817e2486d003becc55f00a164736f6c6343000816000a",
  "linkReferences": {},
  "deployedLinkReferences": {}
}