{
  "_format": "hh-sol-artifact-1",
  "contractName": "StreakMilestoneManager",
  "sourceName": "contracts/StreakMilestoneManager.sol",
  "abi": [
    {
      "inputs": [],
      "name": "AccessControlBadConfirmation",
      "type": "error"
    },
    {
      "inputs": [
        {
          "internalType": "address",
          "name": "account",
          "type": "address"
        },
        {
          "internalType": "bytes32",
          "name": "neededRole",
          "type": "bytes32"
        }
      ],
      "name": "AccessControlUnauthorizedAccount",
      "type": "error"
    },
    {
      "inputs": [],
      "name": "EnforcedPause",
      "type": "error"
    },
    {
      "inputs": [],
      "name": "ExpectedPause",
      "type": "error"
    },
    {
      "inputs": [],
      "name": "InvalidInitialization",
      "type": "error"
    },
    {
      "inputs": [],
      "name": "InvalidMilestoneDay",
      "type": "error"
    },
    {
      "inputs": [],
      "name": "MilestoneAlreadyAchieved",
      "type": "error"
    },
    {
      "inputs": [],
      "name": "MilestoneAlreadyExists",
      "type": "error"
    },
    {
      "inputs": [],
      "name": "MilestoneNotActive",
      "type": "error"
    },
    {
      "inputs": [],
      "name": "NotInitializing",
      "type": "error"
    },
    {
      "inputs": [],
      "name": "ReentrancyGuardReentrantCall",
      "type": "error"
    },
    {
      "anonymous": false,
      "inputs": [
        {
          "indexed": false,
          "internalType": "uint64",
          "name": "version",
          "type": "uint64"
        }
      ],
      "name": "Initialized",
      "type": "event"
    },
    {
      "anonymous": false,
      "inputs": [
        {
          "indexed": true,
          "internalType": "address",
          "name": "user",
          "type": "address"
        },
        {
          "indexed": false,
          "internalType": "uint256",
          "name": "day",
          "type": "uint256"
        },
        {
          "indexed": false,
          "internalType": "string",
          "name": "title",
          "type": "string"
        },
        {
          "indexed": false,
          "internalType": "uint256",
          "name": "specialReward",
          "type": "uint256"
        },
        {
          "indexed": false,
          "internalType": "uint256",
          "name": "badgeId",
          "type": "uint256"
        }
      ],
      "name": "MilestoneAchieved",
      "type": "event"
    },
    {
      "anonymous": false,
      "inputs": [
        {
          "indexed": false,
          "internalType": "uint256",
          "name": "day",
          "type": "uint256"
        },
        {
          "indexed": false,
          "internalType": "string",
          "name": "title",
          "type": "string"
        },
        {
          "indexed": false,
          "internalType": "string",
          "name": "description",
          "type": "string"
        },
        {
          "indexed": false,
          "internalType": "uint256",
          "name": "specialReward",
          "type": "uint256"
        },
        {
          "indexed": false,
          "internalType": "string",
          "name": "specialBadgeURI",
          "type": "string"
        }
      ],
      "name": "MilestoneConfigured",
      "type": "event"
    },
    {
      "anonymous": false,
      "inputs": [
        {
          "indexed": false,
          "internalType": "address",
          "name": "account",
          "type": "address"
        }
      ],
      "name": "Paused",
      "type": "event"
    },
    {
      "anonymous": false,
      "inputs": [
        {
          "indexed": true,
          "internalType": "bytes32",
          "name": "role",
          "type": "bytes32"
        },
        {
          "indexed": true,
          "internalType": "bytes32",
          "name": "previousAdminRole",
          "type": "bytes32"
        },
        {
          "indexed": true,
          "internalType": "bytes32",
          "name": "newAdminRole",
          "type": "bytes32"
        }
      ],
      "name": "RoleAdminChanged",
      "type": "event"
    },
    {
      "anonymous": false,
      "inputs": [
        {
          "indexed": true,
          "internalType": "bytes32",
          "name": "role",
          "type": "bytes32"
        },
        {
          "indexed": true,
          "internalType": "address",
          "name": "account",
          "type": "address"
        },
        {
          "indexed": true,
          "internalType": "address",
          "name": "sender",
          "type": "address"
        }
      ],
      "name": "RoleGranted",
      "type": "event"
    },
    {
      "anonymous": false,
      "inputs": [
        {
          "indexed": true,
          "internalType": "bytes32",
          "name": "role",
          "type": "bytes32"
        },
        {
          "indexed": true,
          "internalType": "address",
          "name": "account",
          "type": "address"
        },
        {
          "indexed": true,
          "internalType": "address",
          "name": "sender",
          "type": "address"
        }
      ],
      "name": "RoleRevoked",
      "type": "event"
    },
    {
      "anonymous": false,
      "inputs": [
        {
          "indexed": false,
          "internalType": "address",
          "name": "account",
          "type": "address"
        }
      ],
      "name": "Unpaused",
      "type": "event"
    },
    {
      "inputs": [],
      "name": "ADMIN_ROLE",
      "outputs": [
        {
          "internalType": "bytes32",
          "name": "",
          "type": "bytes32"
        }
      ],
      "stateMutability": "view",
      "type": "function"
    },
    {
      "inputs": [],
      "name": "DEFAULT_ADMIN_ROLE",
      "outputs": [
        {
          "internalType": "bytes32",
          "name": "",
          "type": "bytes32"
        }
      ],
      "stateMutability": "view",
      "type": "function"
    },
    {
      "inputs": [],
      "name": "STREAK_MANAGER_ROLE",
      "outputs": [
        {
          "internalType": "bytes32",
          "name": "",
          "type": "bytes32"
        }
      ],
      "stateMutability": "view",
      "type": "function"
    },
    {
      "inputs": [
        {
          "internalType": "address",
          "name": "",
          "type": "address"
        },
        {
          "internalType": "uint256",
          "name": "",
          "type": "uint256"
        }
      ],
      "name": "achievedMilestones",
      "outputs": [
        {
          "internalType": "bool",
          "name": "",
          "type": "bool"
        }
      ],
      "stateMutability": "view",
      "type": "function"
    },
    {
      "inputs": [],
      "name": "badgeMinter",
      "outputs": [
        {
          "internalType": "contract IBadgeMinter",
          "name": "",
          "type": "address"
        }
      ],
      "stateMutability": "view",
      "type": "function"
    },
    {
      "inputs": [
        {
          "internalType": "address",
          "name": "user",
          "type": "address"
        },
        {
          "internalType": "uint256",
          "name": "streakLength",
          "type": "uint256"
        }
      ],
      "name": "checkMilestones",
      "outputs": [],
      "stateMutability": "nonpayable",
      "type": "function"
    },
    {
      "inputs": [
        {
          "internalType": "address",
          "name": "user",
          "type": "address"
        },
        {
          "internalType": "uint256",
          "name": "streakLength",
          "type": "uint256"
        }
      ],
      "name": "getEligibleMilestonesCount",
      "outputs": [
        {
          "internalType": "uint256",
          "name": "count",
          "type": "uint256"
        }
      ],
      "stateMutability": "view",
      "type": "function"
    },
    {
      "inputs": [],
      "name": "getMilestoneDays",
      "outputs": [
        {
          "internalType": "uint256[]",
          "name": "",
          "type": "uint256[]"
        }
      ],
      "stateMutability": "view",
      "type": "function"
    },
    {
      "inputs": [
        {
          "internalType": "uint256",
          "name": "day",
          "type": "uint256"
        }
      ],
      "name": "getMilestoneInfo",
      "outputs": [
        {
          "components": [
            {
              "internalType": "uint256",
              "name": "day",
              "type": "uint256"
            },
            {
              "internalType": "string",
              "name": "title",
              "type": "string"
            },
            {
              "internalType": "string",
              "name": "description",
              "type": "string"
            },
            {
              "internalType": "uint256",
              "name": "specialReward",
              "type": "uint256"
            },
            {
              "internalType": "string",
              "name": "specialBadgeURI",
              "type": "string"
            },
            {
              "internalType": "bool",
              "name": "isActive",
              "type": "bool"
            }
          ],
          "internalType": "struct StreakMilestoneManager.StreakMilestone",
          "name": "milestone",
          "type": "tuple"
        }
      ],
      "stateMutability": "view",
      "type": "function"
    },
    {
      "inputs": [
        {
          "internalType": "bytes32",
          "name": "role",
          "type": "bytes32"
        }
      ],
      "name": "getRoleAdmin",
      "outputs": [
        {
          "internalType": "bytes32",
          "name": "",
          "type": "bytes32"
        }
      ],
      "stateMutability": "view",
      "type": "function"
    },
    {
      "inputs": [
        {
          "internalType": "bytes32",
          "name": "role",
          "type": "bytes32"
        },
        {
          "internalType": "address",
          "name": "account",
          "type": "address"
        }
      ],
      "name": "grantRole",
      "outputs": [],
      "stateMutability": "nonpayable",
      "type": "function"
    },
    {
      "inputs": [
        {
          "internalType": "address",
          "name": "user",
          "type": "address"
        },
        {
          "internalType": "uint256",
          "name": "day",
          "type": "uint256"
        }
      ],
      "name": "hasAchievedMilestone",
      "outputs": [
        {
          "internalType": "bool",
          "name": "achieved",
          "type": "bool"
        }
      ],
      "stateMutability": "view",
      "type": "function"
    },
    {
      "inputs": [
        {
          "internalType": "bytes32",
          "name": "role",
          "type": "bytes32"
        },
        {
          "internalType": "address",
          "name": "account",
          "type": "address"
        }
      ],
      "name": "hasRole",
      "outputs": [
        {
          "internalType": "bool",
          "name": "",
          "type": "bool"
        }
      ],
      "stateMutability": "view",
      "type": "function"
    },
    {
      "inputs": [
        {
          "internalType": "address",
          "name": "_xpEngineAddress",
          "type": "address"
        },
        {
          "internalType": "address",
          "name": "_badgeMinterAddress",
          "type": "address"
        }
      ],
      "name": "initialize",
      "outputs": [],
      "stateMutability": "nonpayable",
      "type": "function"
    },
    {
      "inputs": [
        {
          "internalType": "uint256",
          "name": "",
          "type": "uint256"
        }
      ],
      "name": "milestoneDays",
      "outputs": [
        {
          "internalType": "uint256",
          "name": "",
          "type": "uint256"
        }
      ],
      "stateMutability": "view",
      "type": "function"
    },
    {
      "inputs": [
        {
          "internalType": "uint256",
          "name": "",
          "type": "uint256"
        }
      ],
      "name": "milestones",
      "outputs": [
        {
          "internalType": "uint256",
          "name": "day",
          "type": "uint256"
        },
        {
          "internalType": "string",
          "name": "title",
          "type": "string"
        },
        {
          "internalType": "string",
          "name": "description",
          "type": "string"
        },
        {
          "internalType": "uint256",
          "name": "specialReward",
          "type": "uint256"
        },
        {
          "internalType": "string",
          "name": "specialBadgeURI",
          "type": "string"
        },
        {
          "internalType": "bool",
          "name": "isActive",
          "type": "bool"
        }
      ],
      "stateMutability": "view",
      "type": "function"
    },
    {
      "inputs": [],
      "name": "pause",
      "outputs": [],
      "stateMutability": "nonpayable",
      "type": "function"
    },
    {
      "inputs": [],
      "name": "paused",
      "outputs": [
        {
          "internalType": "bool",
          "name": "",
          "type": "bool"
        }
      ],
      "stateMutability": "view",
      "type": "function"
    },
    {
      "inputs": [
        {
          "internalType": "bytes32",
          "name": "role",
          "type": "bytes32"
        },
        {
          "internalType": "address",
          "name": "callerConfirmation",
          "type": "address"
        }
      ],
      "name": "renounceRole",
      "outputs": [],
      "stateMutability": "nonpayable",
      "type": "function"
    },
    {
      "inputs": [
        {
          "internalType": "bytes32",
          "name": "role",
          "type": "bytes32"
        },
        {
          "internalType": "address",
          "name": "account",
          "type": "address"
        }
      ],
      "name": "revokeRole",
      "outputs": [],
      "stateMutability": "nonpayable",
      "type": "function"
    },
    {
      "inputs": [
        {
          "internalType": "uint256",
          "name": "day",
          "type": "uint256"
        },
        {
          "internalType": "string",
          "name": "title",
          "type": "string"
        },
        {
          "internalType": "string",
          "name": "description",
          "type": "string"
        },
        {
          "internalType": "uint256",
          "name": "specialReward",
          "type": "uint256"
        },
        {
          "internalType": "string",
          "name": "specialBadgeURI",
          "type": "string"
        },
        {
          "internalType": "bool",
          "name": "isActive",
          "type": "bool"
        }
      ],
      "name": "setMilestone",
      "outputs": [],
      "stateMutability": "nonpayable",
      "type": "function"
    },
    {
      "inputs": [
        {
          "internalType": "bytes4",
          "name": "interfaceId",
          "type": "bytes4"
        }
      ],
      "name": "supportsInterface",
      "outputs": [
        {
          "internalType": "bool",
          "name": "",
          "type": "bool"
        }
      ],
      "stateMutability": "view",
      "type": "function"
    },
    {
      "inputs": [],
      "name": "unpause",
      "outputs": [],
      "stateMutability": "nonpayable",
      "type": "function"
    },
    {
      "inputs": [
        {
          "internalType": "address",
          "name": "_badgeMinterAddress",
          "type": "address"
        }
      ],
      "name": "updateBadgeMinter",
      "outputs": [],
      "stateMutability": "nonpayable",
      "type": "function"
    },
    {
      "inputs": [
        {
          "internalType": "address",
          "name": "_xpEngineAddress",
          "type": "address"
        }
      ],
      "name": "updateXPEngine",
      "outputs": [],
      "stateMutability": "nonpayable",
      "type": "function"
    },
    {
      "inputs": [],
      "name": "xpEngine",
      "outputs": [
        {
          "internalType": "contract IXPEngine",
          "name": "",
          "type": "address"
        }
      ],
      "stateMutability": "view",
      "type": "function"
    }
  ],
  "bytecode": "0x60808060405234610016576133f5908161001c8239f35b600080fdfe608080604052600436101561001357600080fd5b60003560e01c908162ff3b9214612b6a5750806301ffc9a714612b14578063042e952814612ad957806306c697451461243c57806314c9c79f1461016a578063248a9ca31461240057806325f40ed81461234a5780632f2ff15d146122fe57806336568abe146122b75780633f4ba83a14612240578063485cc9551461098a57806359a033b9146109525780635c975abb146109225780636e131ad6146108f957806375b238fc146108be57806380c3e362146105005780638456cb591461049957806391d148541461043f578063a217fddf14610423578063a8f6abde146103d6578063d0674ff314610389578063d547741f1461033b578063e89e4ed614610294578063f4931935146101b7578063fd1c6c421461016a5763fdcacdb31461013c57600080fd5b34610165576000366003190112610165576001546040516001600160a01b039091168152602090f35b600080fd5b34610165576040366003190112610165576001600160a01b0361018b612cf0565b1660005260046020526040600020602435600052602052602060ff604060002054166040519015158152f35b34610165576040366003190112610165576101d0612cf0565b602480359060009260009260038054945b8581106101f357602087604051908152f35b6101fc81612d1c565b905490831b1c808410159081610265575b81610249575b50610221575b6001016101e1565b9560001981146102345760010195610219565b84634e487b7160e01b60005260116004526000fd5b9050600052600260205260ff6005604060002001541688610213565b6001600160a01b038616600090815260046020908152604080832084845290915290205460ff1615915061020d565b34610165576020366003190112610165576004356000526002602052604060002080546102c360018301612e15565b9161032f6102d360028301612e15565b9160038101549061031c60ff60056102ed60048501612e15565b930154169461030e604051988998895260c060208a015260c0890190612c83565b908782036040890152612c83565b9160608601528482036080860152612c83565b90151560a08301520390f35b346101655760403660031901126101655761038760043561035a612d06565b9080600052600080516020613349833981519152602052610382600160406000200154612fbb565b61324b565b005b34610165576020366003190112610165576103a2612cf0565b6103aa612f5f565b6001600160a01b03166103be811515612f21565b6001600160601b0360a01b6001541617600155600080f35b34610165576020366003190112610165576103ef612cf0565b6103f7612f5f565b6001600160a01b031661040b811515612f21565b6001600160601b0360a01b6000541617600055600080f35b3461016557600036600319011261016557602060405160008152f35b3461016557604036600319011261016557610458612d06565b60043560005260008051602061334983398151915260205260406000209060018060a01b0316600052602052602060ff604060002054166040519015158152f35b34610165576000366003190112610165576104b2612f5f565b6104ba6132ce565b600080516020613369833981519152600160ff198254161790557f62e78cea01bee320cd4e420270b5ea74000d11b0c9f74754ebdbfc544b05a2586020604051338152a1005b3461016557604036600319011261016557610519612cf0565b3360009081527f34a5d646319baff23b6ede998a118d6eb46a49b849dd8029f52dca59fb840b9660205260409020547fe7f159bef681f2008ba223c40037edab35f05fc2683288867060bd08604f7ba09060ff16156108a0575061057b6132ce565b6002600080516020613389833981519152541461088e5760026000805160206133898339815191525560005b600390815481101561087a576105bc81612d1c565b905490831b1c918260243510158061084d575b6105e0575b50600191505b016105a7565b82600052600260205260ff60056040600020604051936105ff85612da3565b8154855261060f60018301612e15565b602086015261062060028301612e15565b6040860152810154606085015261063960048201612e15565b608085015201541615801560a08301526108435760018060a01b03841660005260046020526040600020836000526020526040600020600160ff198254161790556000926060820151806107ca575b50608082015180516106fe575b507fc66362505092bf5efe482902a8480adf8d22d209ff32d8763bc797939af1a2b0906001946106e06060602086015195015194604051938452608060208501526080840190612c83565b936040830152606082015280858060a01b038716930390a2836105d4565b60015460408051630d6575f960e31b81526001600160a01b0389811660048301526024820192909252926020928492169082906000908290610744906044830190612c83565b03925af16000918161078f575b50947fc66362505092bf5efe482902a8480adf8d22d209ff32d8763bc797939af1a2b09291600196610787575b50945090610695565b90508761077e565b929150946020833d6020116107c2575b816107ac60209383612df4565b8101031261016557915191949091906001610751565b3d915061079f565b6000546001600160a01b031690813b1561016557604051630c4f349360e01b81526001600160a01b03881660048201526024810191909152906000908290604490829084905af115610688576001600160401b03811161082d5760405285610688565b634e487b7160e01b600052604160045260246000fd5b50600191506105da565b5060018060a01b038416600052600460205260406000208360005260205260ff60406000205416156105cf565b600160008051602061338983398151915255005b604051633ee5aeb560e01b8152600490fd5b6044906040519063e2517d3f60e01b82523360048301526024820152fd5b346101655760003660031901126101655760206040517fa49807205ce4d355092ef5a8a18f56e8913cf4a201fbe287825b095693c217758152f35b34610165576000366003190112610165576000546040516001600160a01b039091168152602090f35b3461016557600036600319011261016557602060ff60008051602061336983398151915254166040519015158152f35b34610165576020366003190112610165576004356003548110156101655761097b602091612d1c565b90549060031b1c604051908152f35b34610165576040366003190112610165576109a3612cf0565b6109ab612d06565b906000805160206133c983398151915254916001600160401b03831680159081612230575b6001149081612226575b15908161221d575b5061220b5760016001600160401b03198416176000805160206133c98339815191525560ff8360401c16156121de575b610a1a6132f9565b610a226132f9565b610a2a6132f9565b610a326132f9565b600160008051602061338983398151915255610a4d33612fee565b50610a573361307c565b50610a613361312c565b5060018060a01b0390816001600160601b0360a01b931683600054161760005516906001541617600155604051610a9781612da3565b6007815260405190610aa882612dbe565b600c82526b2bb2b2b5902bb0b93934b7b960a11b602083015260208101918252604051610ad481612dd9565b602a81527f4d61696e7461696e656420612073747265616b20666f72203720636f6e7365636020820152697574697665206461797360b01b6040820152604082015260646060820152604051610b2981612dd9565b602b81526000805160206133a983398151915260208201526a6573746f6e652d7765656b60a81b60408201526080820152600160a08201526007600052600260205260406000209181518355519283516001600160401b03811161082d57610b946001850154612d69565b601f8111612197575b506020601f821160011461212857819293949560009261211d575b50508160011b916000199060031b1c19161760018401555b60408201519283516001600160401b03811161082d57610bf36002830154612d69565b601f81116120d6575b506020601f821160011461206757819293949560009261205c575b50508160011b916000199060031b1c19161760028201555b6060830151600382015560808301519283516001600160401b03811161082d57610c5c6004840154612d69565b601f8111612015575b506020601f8211600114611fb757918160a092600594610cb797986000926116f6575b50508160011b916000199060031b1c19161760048501555b0151151591019060ff801983541691151516179055565b600354600160401b81101561082d57806001610cd69201600355612d1c565b815460078260031b1b916000199060031b1b1916179055604051610cf981612da3565b601e815260405190610d0a82612dbe565b600c82526b26b7b73a341026b0b9ba32b960a11b602083015260208101918252604051610d3681612dd9565b602b81527f4d61696e7461696e656420612073747265616b20666f7220333020636f6e736560208201526a637574697665206461797360a81b604082015260408201526101f46060820152604051610d8d81612dd9565b602c81526000805160206133a983398151915260208201526b0cae6e8dedcca5adadedce8d60a31b60408201526080820152600160a0820152601e600052600260205260406000209181518355519283516001600160401b03811161082d57610df96001850154612d69565b601f8111611f70575b506020601f8211600114611f01578192939495600092611ef6575b50508160011b916000199060031b1c19161760018401555b60408201519283516001600160401b03811161082d57610e586002830154612d69565b601f8111611eaf575b506020601f8211600114611e40578192939495600092611e35575b50508160011b916000199060031b1c19161760028201555b6060830151600382015560808301519283516001600160401b03811161082d57610ec16004840154612d69565b601f8111611dee575b506020601f8211600114611d9057918160a092600594610f1a97986000926116f65750508160011b916000199060031b1c19161760048501550151151591019060ff801983541691151516179055565b600354600160401b81101561082d57806001610f399201600355612d1c565b81549060031b90601e821b91600019901b1916179055604051610f5b81612da3565b605a815260405190610f6c82612dbe565b601182527028bab0b93a32b91021b7b738bab2b937b960791b602083015260208101918252604051610f9d81612dd9565b602b81527f4d61696e7461696e656420612073747265616b20666f7220393020636f6e736560208201526a637574697665206461797360a81b604082015260408201526105dc6060820152604051610ff481612dd9565b602e81526000805160206133a983398151915260208201526d32b9ba37b73296b8bab0b93a32b960911b60408201526080820152600160a0820152605a600052600260205260406000209181518355519283516001600160401b03811161082d576110626001850154612d69565b601f8111611d49575b506020601f8211600114611cda578192939495600092611ccf575b50508160011b916000199060031b1c19161760018401555b60408201519283516001600160401b03811161082d576110c16002830154612d69565b601f8111611c88575b506020601f8211600114611c19578192939495600092611c0e575b50508160011b916000199060031b1c19161760028201555b6060830151600382015560808301519283516001600160401b03811161082d5761112a6004840154612d69565b601f8111611bc7575b506020601f8211600114611b6957918160a09260059461118397986000926116f65750508160011b916000199060031b1c19161760048501550151151591019060ff801983541691151516179055565b600354600160401b81101561082d578060016111a29201600355612d1c565b81549060031b90605a821b91600019901b19161790556040516111c481612da3565b61016d8152604051906111d682612dbe565b600d82526c2cb2b0b91021b430b6b834b7b760991b60208301526020810191825260405161120381612dd9565b602c81527f4d61696e7461696e656420612073747265616b20666f722033363520636f6e7360208201526b65637574697665206461797360a01b60408201526040820152611388606082015260405161125b81612dd9565b602b81526000805160206133a983398151915260208201526a32b9ba37b73296bcb2b0b960a91b60408201526080820152600160a082015261016d600052600260205260406000209181518355519283516001600160401b03811161082d576112c76001850154612d69565b601f8111611b22575b506020601f8211600114611ab3578192939495600092611aa8575b50508160011b916000199060031b1c19161760018401555b60408201519283516001600160401b03811161082d576113266002830154612d69565b601f8111611a61575b506020601f82116001146119f25781929394956000926119e7575b50508160011b916000199060031b1c19161760028201555b6060830151600382015560808301519283516001600160401b03811161082d5761138f6004840154612d69565b601f81116119a0575b506020601f821160011461194257918160a0926005946113e897986000926116f65750508160011b916000199060031b1c19161760048501550151151591019060ff801983541691151516179055565b600354600160401b81101561082d578060016114079201600355612d1c565b81549060031b9061016d821b91600019901b191617905560405161142a81612da3565b6103e881526040519061143c82612dbe565b60128252712632b3b2b73230b93c9029ba3932b0b5b2b960711b60208301526020810191825260405161146e81612dd9565b602d81527f4d61696e7461696e656420612073747265616b20666f72203130303020636f6e60208201526c7365637574697665206461797360981b6040820152604082015261271060608201526040516114c781612dd9565b603081526000805160206133a983398151915260208201526f6573746f6e652d6c6567656e6461727960801b60408201526080820152600160a08201526103e8600052600260205260406000209181518355519283516001600160401b03811161082d576115386001850154612d69565b601f81116118fb575b506020601f821160011461188c578192939495600092611881575b50508160011b916000199060031b1c19161760018401555b60408201519283516001600160401b03811161082d576115976002830154612d69565b601f811161183a575b506020601f82116001146117cb5781929394956000926117c0575b50508160011b916000199060031b1c19161760028201555b6060830151600382015560808301519283516001600160401b03811161082d576116006004840154612d69565b601f8111611779575b506020601f821160011461170157918160a09260059461165997986000926116f65750508160011b916000199060031b1c19161760048501550151151591019060ff801983541691151516179055565b60035490600160401b82101561082d5761167b82600160ff9401600355612d1c565b81549060031b906103e8821b91600019901b191617905560401c161561169d57005b68ff0000000000000000196000805160206133c983398151915254166000805160206133c9833981519152557fc7f505b2f371ae2175ee4913f4499e1f2633a7b5936321eed1cdaeb6115181d2602060405160018152a1005b015190508880610c88565b6004840160005260206000209560005b601f198416811061176157508261165996976005959360019360a096601f19811610611748575b505050811b016004850155610ca0565b015160001960f88460031b161c19169055888080611738565b82820151885560019097019660209283019201611711565b600484016000526020600020601f830160051c8101602084106117b9575b601f830160051c820181106117ad575050611609565b60008155600101611797565b5080611797565b0151905085806115bb565b6002830160005260206000209060005b601f1984168110611822575060019394959683601f19811610611809575b505050811b0160028201556115d3565b015160001960f88460031b161c191690558580806117f9565b9091602060018192858b0151815501930191016117db565b600283016000526020600020601f830160051c81016020841061187a575b601f830160051c8201811061186e5750506115a0565b60008155600101611858565b5080611858565b01519050858061155c565b6001850160005260206000209060005b601f19841681106118e3575060019394959683601f198116106118ca575b505050811b016001840155611574565b015160001960f88460031b161c191690558580806118ba565b9091602060018192858b01518155019301910161189c565b600185016000526020600020601f830160051c81016020841061193b575b601f830160051c8201811061192f575050611541565b60008155600101611919565b5080611919565b6004840160005260206000209560005b601f19841681106119885750826113e896976005959360019360a096601f1981161061174857505050811b016004850155610ca0565b82820151885560019097019660209283019201611952565b600484016000526020600020601f830160051c8101602084106119e0575b601f830160051c820181106119d4575050611398565b600081556001016119be565b50806119be565b01519050858061134a565b6002830160005260206000209060005b601f1984168110611a49575060019394959683601f19811610611a30575b505050811b016002820155611362565b015160001960f88460031b161c19169055858080611a20565b9091602060018192858b015181550193019101611a02565b600283016000526020600020601f830160051c810160208410611aa1575b601f830160051c82018110611a9557505061132f565b60008155600101611a7f565b5080611a7f565b0151905085806112eb565b6001850160005260206000209060005b601f1984168110611b0a575060019394959683601f19811610611af1575b505050811b016001840155611303565b015160001960f88460031b161c19169055858080611ae1565b9091602060018192858b015181550193019101611ac3565b600185016000526020600020601f830160051c810160208410611b62575b601f830160051c82018110611b565750506112d0565b60008155600101611b40565b5080611b40565b6004840160005260206000209560005b601f1984168110611baf57508261118396976005959360019360a096601f1981161061174857505050811b016004850155610ca0565b82820151885560019097019660209283019201611b79565b600484016000526020600020601f830160051c810160208410611c07575b601f830160051c82018110611bfb575050611133565b60008155600101611be5565b5080611be5565b0151905085806110e5565b6002830160005260206000209060005b601f1984168110611c70575060019394959683601f19811610611c57575b505050811b0160028201556110fd565b015160001960f88460031b161c19169055858080611c47565b9091602060018192858b015181550193019101611c29565b600283016000526020600020601f830160051c810160208410611cc8575b601f830160051c82018110611cbc5750506110ca565b60008155600101611ca6565b5080611ca6565b015190508580611086565b6001850160005260206000209060005b601f1984168110611d31575060019394959683601f19811610611d18575b505050811b01600184015561109e565b015160001960f88460031b161c19169055858080611d08565b9091602060018192858b015181550193019101611cea565b600185016000526020600020601f830160051c810160208410611d89575b601f830160051c82018110611d7d57505061106b565b60008155600101611d67565b5080611d67565b6004840160005260206000209560005b601f1984168110611dd6575082610f1a96976005959360019360a096601f1981161061174857505050811b016004850155610ca0565b82820151885560019097019660209283019201611da0565b600484016000526020600020601f830160051c810160208410611e2e575b601f830160051c82018110611e22575050610eca565b60008155600101611e0c565b5080611e0c565b015190508580610e7c565b6002830160005260206000209060005b601f1984168110611e97575060019394959683601f19811610611e7e575b505050811b016002820155610e94565b015160001960f88460031b161c19169055858080611e6e565b9091602060018192858b015181550193019101611e50565b600283016000526020600020601f830160051c810160208410611eef575b601f830160051c82018110611ee3575050610e61565b60008155600101611ecd565b5080611ecd565b015190508580610e1d565b6001850160005260206000209060005b601f1984168110611f58575060019394959683601f19811610611f3f575b505050811b016001840155610e35565b015160001960f88460031b161c19169055858080611f2f565b9091602060018192858b015181550193019101611f11565b600185016000526020600020601f830160051c810160208410611fb0575b601f830160051c82018110611fa4575050610e02565b60008155600101611f8e565b5080611f8e565b6004840160005260206000209560005b601f1984168110611ffd575082610cb796976005959360019360a096601f1981161061174857505050811b016004850155610ca0565b82820151885560019097019660209283019201611fc7565b600484016000526020600020601f830160051c810160208410612055575b601f830160051c82018110612049575050610c65565b60008155600101612033565b5080612033565b015190508580610c17565b6002830160005260206000209060005b601f19841681106120be575060019394959683601f198116106120a5575b505050811b016002820155610c2f565b015160001960f88460031b161c19169055858080612095565b9091602060018192858b015181550193019101612077565b600283016000526020600020601f830160051c810160208410612116575b601f830160051c8201811061210a575050610bfc565b600081556001016120f4565b50806120f4565b015190508580610bb8565b6001850160005260206000209060005b601f198416811061217f575060019394959683601f19811610612166575b505050811b016001840155610bd0565b015160001960f88460031b161c19169055858080612156565b9091602060018192858b015181550193019101612138565b600185016000526020600020601f830160051c8101602084106121d7575b601f830160051c820181106121cb575050610b9d565b600081556001016121b5565b50806121b5565b68ffffffffffffffffff19831668010000000000000001176000805160206133c983398151915255610a12565b60405163f92ee8a960e01b8152600490fd5b905015846109e2565b303b1591506109da565b604085901c60ff161591506109d0565b3461016557600036600319011261016557612259612f5f565b600080516020613369833981519152805460ff8116156122a55760ff191690557f5db9ee0a495bf2e6ff9c91a7834c1ba4fdd244a5e8aa4e537bd38aeae4b073aa6020604051338152a1005b604051638dfc202b60e01b8152600490fd5b34610165576040366003190112610165576122d0612d06565b336001600160a01b038216036122ec576103879060043561324b565b60405163334bd91960e11b8152600490fd5b346101655760403660031901126101655761038760043561231d612d06565b9080600052600080516020613349833981519152602052612345600160406000200154612fbb565b6131d6565b3461016557600036600319011261016557604051806003548083526020809301809160036000527fc2575a0e9e593c00f959f8c92f12db2869c3395a3b0502d05e2516446f71f85b9060005b868282106123ec5786866123ac82880383612df4565b604051928392818401908285525180915260408401929160005b8281106123d557505050500390f35b8351855286955093810193928101926001016123c6565b835485529093019260019283019201612396565b34610165576020366003190112610165576004356000526000805160206133498339815191526020526020600160406000200154604051908152f35b346101655760c0366003190112610165576024356001600160401b0381116101655761246c903690600401612cc3565b906044356001600160401b0381116101655761248c903690600401612cc3565b92906084356001600160401b038111610165576124ad903690600401612cc3565b91909460a4358015158103610165576124c4612f5f565b60043515612ac7576003546000805b828110612a9d575b5015612990575b506040516124ef81612da3565b60043581526124ff368789612eba565b9160208201928352612512368587612eba565b6040830152606435606083015261252a36878b612eba565b6080830152151560a0820152600435600052600260205260406000209181518355518051906001600160401b03821161082d57819061256c6001860154612d69565b601f811161293d575b50602090601f83116001146128cb576000926128c0575b50508160011b916000199060031b1c19161760018301555b60408101518051906001600160401b03821161082d5781906125c96002860154612d69565b601f811161286d575b50602090601f83116001146127fb576000926127f0575b50508160011b916000199060031b1c19161760028301555b6060810151600383015560808101518051906001600160401b03821161082d5761262e6004850154612d69565b601f81116127a9575b50602090601f83116001146127065793600560a07f8ede4ef94e01e6410bb6dea1aaa966e773d4d4afa81e49c425255a5f036a40299c9895856126f69b99966126b3966126e09a6000926126fb5750508160011b916000199060031b1c19161760048501550151151591019060ff801983541691151516179055565b6126d26040519889986004358a5260a060208b015260a08a0191612f00565b918783036040890152612f00565b9160643560608601528483036080860152612f00565b0390a1005b015190503880610c88565b906004850160005260206000209160005b601f1985168110612791575060a07f8ede4ef94e01e6410bb6dea1aaa966e773d4d4afa81e49c425255a5f036a40299c98956001866126b3966126e09a966005966126f69f9d9a601f1981161061277857505050811b016004850155610ca0565b015160001960f88460031b161c19169055388080611738565b91926020600181928685015181550194019201612717565b600485016000526020600020601f840160051c8101602085106127e9575b601f830160051c820181106127dd575050612637565b600081556001016127c7565b50806127c7565b015190508a806125e9565b9250600285016000526020600020906000935b601f1984168510612852576001945083601f19811610612839575b505050811b016002830155612601565b015160001960f88460031b161c191690558a8080612829565b8181015183556020948501946001909301929091019061280e565b909150600285016000526020600020601f840160051c8101602085106128b9575b90849392915b601f830160051c820181106128aa5750506125d2565b60008155859450600101612894565b508061288e565b015190508a8061258c565b9250600185016000526020600020906000935b601f1984168510612922576001945083601f19811610612909575b505050811b0160018301556125a4565b015160001960f88460031b161c191690558a80806128f9565b818101518355602094850194600190930192909101906128de565b909150600185016000526020600020601f840160051c810160208510612989575b90849392915b601f830160051c8201811061297a575050612575565b60008155859450600101612964565b508061295e565b600160401b81101561082d576129af8160016129c99301600355612d1c565b6004359082549060031b91821b91600019901b1916179055565b60035480600019810111612a825760001901805b156124e2576129eb81612d1c565b90549060031b1c81600019810111612a8257612a0a6000198301612d1c565b90549060031b1c11600014612a9857612a72612a2582612d1c565b90549060031b1c612a65612a3c6000198501612d1c565b90549060031b1c612a4c85612d1c565b90919082549060031b91821b91600019901b1916179055565b612a4c6000198401612d1c565b8015612a825760001901806129dd565b634e487b7160e01b600052601160045260246000fd5b6124e2565b612aa681612d1c565b60043591549060031b1c14612abd576001016124d3565b50506001896124db565b6040516306d18b0760e51b8152600490fd5b346101655760003660031901126101655760206040517fe7f159bef681f2008ba223c40037edab35f05fc2683288867060bd08604f7ba08152f35b346101655760203660031901126101655760043563ffffffff60e01b811680910361016557602090637965db0b60e01b8114908115612b59575b506040519015158152f35b6301ffc9a760e01b14905082612b4e565b34610165576020908160031936011261016557612b8681612da3565b60008152600060a060609283858201528360408201528284820152836080820152015260043560005260028252604060002090612c7660405192612bc984612da3565b80548452612bd960018201612e15565b92858501938452612bec60028301612e15565b9160408601928352612c5f600382015493838801948552612c4b60ff6005612c1660048701612e15565b9560808c019687520154169760a08a0198151589526040519a8b9a818c5251908b01525160c060408b015260e08a0190612c83565b9051601f1994858a840301908a0152612c83565b9251608087015251908583030160a0860152612c83565b9051151560c08301520390f35b919082519283825260005b848110612caf575050826000602080949584010152601f8019910116010190565b602081830181015184830182015201612c8e565b9181601f84011215610165578235916001600160401b038311610165576020838186019501011161016557565b600435906001600160a01b038216820361016557565b602435906001600160a01b038216820361016557565b600354811015612d535760036000527fc2575a0e9e593c00f959f8c92f12db2869c3395a3b0502d05e2516446f71f85b0190600090565b634e487b7160e01b600052603260045260246000fd5b90600182811c92168015612d99575b6020831014612d8357565b634e487b7160e01b600052602260045260246000fd5b91607f1691612d78565b60c081019081106001600160401b0382111761082d57604052565b604081019081106001600160401b0382111761082d57604052565b606081019081106001600160401b0382111761082d57604052565b90601f801991011681019081106001600160401b0382111761082d57604052565b90604051918260008254612e2881612d69565b90818452602094600191600181169081600014612e985750600114612e59575b505050612e5792500383612df4565b565b600090815285812095935091905b818310612e80575050612e579350820101388080612e48565b85548884018501529485019487945091830191612e67565b92505050612e5794925060ff191682840152151560051b820101388080612e48565b9291926001600160401b03821161082d5760405191612ee3601f8201601f191660200184612df4565b829481845281830111610165578281602093846000960137010152565b908060209392818452848401376000828201840152601f01601f1916010190565b15612f2857565b60405162461bcd60e51b815260206004820152600f60248201526e496e76616c6964206164647265737360881b6044820152606490fd5b3360009081527fb16e88c42fd4e48df2dd6a2eabd6bc9aec654ec170056b470819f8892cc6431c60205260409020547fa49807205ce4d355092ef5a8a18f56e8913cf4a201fbe287825b095693c217759060ff16156108a05750565b8060005260008051602061334983398151915260205260406000203360005260205260ff60406000205416156108a05750565b6001600160a01b031660008181527fb7db2dd08fcb62d0c9e08c51941cae53c267786a0b75803fb7960902fc8ef97d60205260408120549091906000805160206133498339815191529060ff16613077578280526020526040822081835260205260408220600160ff1982541617905533916000805160206133298339815191528180a4600190565b505090565b6001600160a01b031660008181527fb16e88c42fd4e48df2dd6a2eabd6bc9aec654ec170056b470819f8892cc6431c60205260408120549091907fa49807205ce4d355092ef5a8a18f56e8913cf4a201fbe287825b095693c21775906000805160206133498339815191529060ff16613126578184526020526040832082845260205260408320600160ff19825416179055600080516020613329833981519152339380a4600190565b50505090565b6001600160a01b031660008181527f34a5d646319baff23b6ede998a118d6eb46a49b849dd8029f52dca59fb840b9660205260408120549091907fe7f159bef681f2008ba223c40037edab35f05fc2683288867060bd08604f7ba0906000805160206133498339815191529060ff16613126578184526020526040832082845260205260408320600160ff19825416179055600080516020613329833981519152339380a4600190565b9060009180835260008051602061334983398151915280602052604084209260018060a01b03169283855260205260ff60408520541615600014613126578184526020526040832082845260205260408320600160ff19825416179055600080516020613329833981519152339380a4600190565b9060009180835260008051602061334983398151915280602052604084209260018060a01b03169283855260205260ff60408520541660001461312657818452602052604083208284526020526040832060ff1981541690557ff6391f5c32d9c69d2a47ea670b442974b53935d1edc7fd64eb21e047a839171b339380a4600190565b60ff60008051602061336983398151915254166132e757565b60405163d93c066560e01b8152600490fd5b60ff6000805160206133c98339815191525460401c161561331657565b604051631afcd79f60e31b8152600490fdfe2f8788117e7eff1d82e926ec794901d17c78024a50270940304540a733656f0d02dd7bc7dec4dceedda775e58dd541e08a116c6c53815c0bd028192f7b626800cd5ed15c6e187e77e9aee88184c21f4f2182ab5827cb3b7e07fbedcd63f033009b779b17422d0df92223018b32b4d1fa46e071723d6817e2486d003becc55f0068747470733a2f2f6261646765732e61766178666f7267652e636f6d2f6d696cf0c57e16840df040f15088dc2f81fe391c3923bec73e23a9662efc9c229c6a00a164736f6c6343000816000a",
  "linkReferences": {},
  "deployedLinkReferences": {}
}