{
  "_format": "hh-sol-artifact-1",
  "contractName": "MockForgeTokenCore",
  "sourceName": "contracts/mocks/MockForgeTokenCore.sol",
  "abi": [
    {
      "inputs": [],
      "stateMutability": "nonpayable",
      "type": "constructor"
    },
    {
      "inputs": [
        {
          "internalType": "address",
          "name": "spender",
          "type": "address"
        },
        {
          "internalType": "uint256",
          "name": "allowance",
          "type": "uint256"
        },
        {
          "internalType": "uint256",
          "name": "needed",
          "type": "uint256"
        }
      ],
      "name": "ERC20InsufficientAllowance",
      "type": "error"
    },
    {
      "inputs": [
        {
          "internalType": "address",
          "name": "sender",
          "type": "address"
        },
        {
          "internalType": "uint256",
          "name": "balance",
          "type": "uint256"
        },
        {
          "internalType": "uint256",
          "name": "needed",
          "type": "uint256"
        }
      ],
      "name": "ERC20InsufficientBalance",
      "type": "error"
    },
    {
      "inputs": [
        {
          "internalType": "address",
          "name": "approver",
          "type": "address"
        }
      ],
      "name": "ERC20InvalidApprover",
      "type": "error"
    },
    {
      "inputs": [
        {
          "internalType": "address",
          "name": "receiver",
          "type": "address"
        }
      ],
      "name": "ERC20InvalidReceiver",
      "type": "error"
    },
    {
      "inputs": [
        {
          "internalType": "address",
          "name": "sender",
          "type": "address"
        }
      ],
      "name": "ERC20InvalidSender",
      "type": "error"
    },
    {
      "inputs": [
        {
          "internalType": "address",
          "name": "spender",
          "type": "address"
        }
      ],
      "name": "ERC20InvalidSpender",
      "type": "error"
    },
    {
      "inputs": [],
      "name": "EnforcedPause",
      "type": "error"
    },
    {
      "inputs": [],
      "name": "ExpectedPause",
      "type": "error"
    },
    {
      "anonymous": false,
      "inputs": [
        {
          "indexed": true,
          "internalType": "address",
          "name": "owner",
          "type": "address"
        },
        {
          "indexed": true,
          "internalType": "address",
          "name": "spender",
          "type": "address"
        },
        {
          "indexed": false,
          "internalType": "uint256",
          "name": "value",
          "type": "uint256"
        }
      ],
      "name": "Approval",
      "type": "event"
    },
    {
      "anonymous": false,
      "inputs": [
        {
          "indexed": false,
          "internalType": "address",
          "name": "account",
          "type": "address"
        }
      ],
      "name": "Paused",
      "type": "event"
    },
    {
      "anonymous": false,
      "inputs": [
        {
          "indexed": true,
          "internalType": "address",
          "name": "from",
          "type": "address"
        },
        {
          "indexed": true,
          "internalType": "address",
          "name": "to",
          "type": "address"
        },
        {
          "indexed": false,
          "internalType": "uint256",
          "name": "value",
          "type": "uint256"
        }
      ],
      "name": "Transfer",
      "type": "event"
    },
    {
      "anonymous": false,
      "inputs": [
        {
          "indexed": false,
          "internalType": "address",
          "name": "account",
          "type": "address"
        }
      ],
      "name": "Unpaused",
      "type": "event"
    },
    {
      "inputs": [
        {
          "internalType": "address",
          "name": "owner",
          "type": "address"
        },
        {
          "internalType": "address",
          "name": "spender",
          "type": "address"
        }
      ],
      "name": "allowance",
      "outputs": [
        {
          "internalType": "uint256",
          "name": "",
          "type": "uint256"
        }
      ],
      "stateMutability": "view",
      "type": "function"
    },
    {
      "inputs": [
        {
          "internalType": "address",
          "name": "spender",
          "type": "address"
        },
        {
          "internalType": "uint256",
          "name": "value",
          "type": "uint256"
        }
      ],
      "name": "approve",
      "outputs": [
        {
          "internalType": "bool",
          "name": "",
          "type": "bool"
        }
      ],
      "stateMutability": "nonpayable",
      "type": "function"
    },
    {
      "inputs": [
        {
          "internalType": "address",
          "name": "account",
          "type": "address"
        }
      ],
      "name": "balanceOf",
      "outputs": [
        {
          "internalType": "uint256",
          "name": "",
          "type": "uint256"
        }
      ],
      "stateMutability": "view",
      "type": "function"
    },
    {
      "inputs": [
        {
          "internalType": "uint256",
          "name": "amount",
          "type": "uint256"
        }
      ],
      "name": "burn",
      "outputs": [],
      "stateMutability": "nonpayable",
      "type": "function"
    },
    {
      "inputs": [
        {
          "internalType": "address",
          "name": "account",
          "type": "address"
        },
        {
          "internalType": "uint256",
          "name": "value",
          "type": "uint256"
        }
      ],
      "name": "burnFrom",
      "outputs": [],
      "stateMutability": "nonpayable",
      "type": "function"
    },
    {
      "inputs": [],
      "name": "decimals",
      "outputs": [
        {
          "internalType": "uint8",
          "name": "",
          "type": "uint8"
        }
      ],
      "stateMutability": "view",
      "type": "function"
    },
    {
      "inputs": [
        {
          "internalType": "address",
          "name": "account",
          "type": "address"
        }
      ],
      "name": "isExcludedFromFees",
      "outputs": [
        {
          "internalType": "bool",
          "name": "",
          "type": "bool"
        }
      ],
      "stateMutability": "view",
      "type": "function"
    },
    {
      "inputs": [
        {
          "internalType": "string",
          "name": "",
          "type": "string"
        }
      ],
      "name": "managers",
      "outputs": [
        {
          "internalType": "address",
          "name": "",
          "type": "address"
        }
      ],
      "stateMutability": "view",
      "type": "function"
    },
    {
      "inputs": [
        {
          "internalType": "address",
          "name": "to",
          "type": "address"
        },
        {
          "internalType": "uint256",
          "name": "amount",
          "type": "uint256"
        }
      ],
      "name": "mint",
      "outputs": [],
      "stateMutability": "nonpayable",
      "type": "function"
    },
    {
      "inputs": [],
      "name": "name",
      "outputs": [
        {
          "internalType": "string",
          "name": "",
          "type": "string"
        }
      ],
      "stateMutability": "view",
      "type": "function"
    },
    {
      "inputs": [],
      "name": "pause",
      "outputs": [],
      "stateMutability": "nonpayable",
      "type": "function"
    },
    {
      "inputs": [],
      "name": "paused",
      "outputs": [
        {
          "internalType": "bool",
          "name": "",
          "type": "bool"
        }
      ],
      "stateMutability": "view",
      "type": "function"
    },
    {
      "inputs": [
        {
          "internalType": "address",
          "name": "account",
          "type": "address"
        },
        {
          "internalType": "uint8",
          "name": "flags",
          "type": "uint8"
        }
      ],
      "name": "setAddressFlags",
      "outputs": [],
      "stateMutability": "nonpayable",
      "type": "function"
    },
    {
      "inputs": [
        {
          "internalType": "address",
          "name": "account",
          "type": "address"
        },
        {
          "internalType": "bool",
          "name": "isExcluded",
          "type": "bool"
        }
      ],
      "name": "setExcludedFromFees",
      "outputs": [],
      "stateMutability": "nonpayable",
      "type": "function"
    },
    {
      "inputs": [
        {
          "internalType": "string",
          "name": "managerType",
          "type": "string"
        },
        {
          "internalType": "address",
          "name": "manager",
          "type": "address"
        }
      ],
      "name": "setManager",
      "outputs": [],
      "stateMutability": "nonpayable",
      "type": "function"
    },
    {
      "inputs": [
        {
          "internalType": "bool",
          "name": "enabled",
          "type": "bool"
        }
      ],
      "name": "setTradingEnabled",
      "outputs": [],
      "stateMutability": "nonpayable",
      "type": "function"
    },
    {
      "inputs": [],
      "name": "symbol",
      "outputs": [
        {
          "internalType": "string",
          "name": "",
          "type": "string"
        }
      ],
      "stateMutability": "view",
      "type": "function"
    },
    {
      "inputs": [],
      "name": "totalSupply",
      "outputs": [
        {
          "internalType": "uint256",
          "name": "",
          "type": "uint256"
        }
      ],
      "stateMutability": "view",
      "type": "function"
    },
    {
      "inputs": [],
      "name": "tradingEnabled",
      "outputs": [
        {
          "internalType": "bool",
          "name": "",
          "type": "bool"
        }
      ],
      "stateMutability": "view",
      "type": "function"
    },
    {
      "inputs": [
        {
          "internalType": "address",
          "name": "to",
          "type": "address"
        },
        {
          "internalType": "uint256",
          "name": "value",
          "type": "uint256"
        }
      ],
      "name": "transfer",
      "outputs": [
        {
          "internalType": "bool",
          "name": "",
          "type": "bool"
        }
      ],
      "stateMutability": "nonpayable",
      "type": "function"
    },
    {
      "inputs": [
        {
          "internalType": "address",
          "name": "from",
          "type": "address"
        },
        {
          "internalType": "address",
          "name": "to",
          "type": "address"
        },
        {
          "internalType": "uint256",
          "name": "value",
          "type": "uint256"
        }
      ],
      "name": "transferFrom",
      "outputs": [
        {
          "internalType": "bool",
          "name": "",
          "type": "bool"
        }
      ],
      "stateMutability": "nonpayable",
      "type": "function"
    },
    {
      "inputs": [],
      "name": "unpause",
      "outputs": [],
      "stateMutability": "nonpayable",
      "type": "function"
    }
  ],
  "bytecode": "0x608034620003bb576040906001600160401b0381830181811183821017620002bb5783526010825260206f26b7b1b5902337b933b2902a37b5b2b760811b8184015283519184830183811082821117620002bb57855260068352654d464f52474560d01b828401528351818111620002bb576003908154906001968783811c93168015620003b0575b868410146200039a578190601f9384811162000344575b508690848311600114620002dd57600092620002d1575b505060001982851b1c191690871b1782555b8451928311620002bb5760049485548781811c91168015620002b0575b868210146200029b57908183869594931162000241575b5085918411600114620001d657600093620001ca575b505082861b92600019911b1c19161782555b3315620001b35760025469d3c21bcecceda1000000928382018092116200019e57506000917fddf252ad1be2c89b69c2b068fc378daa952ba7f163c4a11628f55a4df523b3ef9160025533835282815285832084815401905585519384523393a360ff19600854161760085551610c329081620003c18239f35b601190634e487b7160e01b6000525260246000fd5b835163ec442f0560e01b8152600081840152602490fd5b01519150388062000112565b9190879450601f1984169287600052866000209360005b888282106200022a57505085116200020f575b50505050811b01825562000124565b01519060f884600019921b161c191690553880808062000200565b8385015187558b98909601959384019301620001ed565b909192935086600052856000208380870160051c82019288881062000291575b918a918897969594930160051c01915b82811062000281575050620000fc565b600081558796508a910162000271565b9250819262000261565b602287634e487b7160e01b6000525260246000fd5b90607f1690620000e5565b634e487b7160e01b600052604160045260246000fd5b015190503880620000b6565b90899350601f1983169186600052886000209260005b8a8282106200032d575050841162000314575b505050811b018255620000c8565b015160001983871b60f8161c1916905538808062000306565b8385015186558d97909501949384019301620002f3565b90915084600052866000208480850160051c82019289861062000390575b918b91869594930160051c01915b828110620003805750506200009f565b600081558594508b910162000370565b9250819262000362565b634e487b7160e01b600052602260045260246000fd5b92607f169262000088565b600080fdfe608060408181526004918236101561001657600080fd5b600092833560e01c91826306fdde031461082c57508163095ea7b31461078257816318160ddd1461076357816323b872dd14610726578163313ce5671461070a578163320711a5146106e15781633f4ba83a1461067f57816340c10f19146105d757816342966c68146105b95781634ada218b146105955781634fbee19314610557578163590ffdce1461050d5781635c975abb146104e957816370a08231146104b257816379cc67901461047f5781638456cb591461041b57816395d89b4114610316578163a9059cbb146102e5578163b0739e2714610227578163c2e5ec04146101f8578163d0d5874814610162575063dd62ed3e1461011757600080fd5b3461015e578060031936011261015e578060209261013361096c565b61013b610987565b6001600160a01b0391821683526001865283832091168252845220549051908152f35b5080fd5b9050346101f457816003193601126101f45780359067ffffffffffffffff908183116101f057366023840112156101f0578201359081116101ec5736602482840101116101ec57602491816020926101b8610987565b9551948593018337810160078152030190209060018060a01b03166bffffffffffffffffffffffff60a01b82541617905580f35b8380fd5b8480fd5b8280fd5b83903461015e57602036600319011261015e573580151580910361015e5760ff80196008541691161760085580f35b8284346102e2576020928360031936011261015e5780359167ffffffffffffffff9182841161015e573660238501121561015e57838101359283116102cf575083519161027d601f8201601f191687018461099d565b8083528583019336602483830101116101f457908060248893018637830101526102ae83519283925192839161091d565b6007908201908152819003830190205490516001600160a01b039091168152f35b634e487b7160e01b825260419052602490fd5b80fd5b50503461015e578060031936011261015e5760209061030f61030561096c565b6024359033610aa8565b5160018152f35b83833461015e578160031936011261015e5780519180938054916001908360011c9260018516948515610411575b60209586861081146103fe578589529081156103da5750600114610382575b61037e8787610374828c038361099d565b5191829182610940565b0390f35b81529295507f8a35acfbc15ff81a39ae7d344fd709f28e8600b4aa8c65c6b64bfe7fe36bd19b5b8284106103c7575050508261037e9461037492820101948680610363565b80548685018801529286019281016103a9565b60ff19168887015250505050151560051b83010192506103748261037e8680610363565b634e487b7160e01b845260228352602484fd5b93607f1693610344565b9050346101f457826003193601126101f4576005549060ff8216610471575060ff1916600117600555513381527f62e78cea01bee320cd4e420270b5ea74000d11b0c9f74754ebdbfc544b05a25890602090a180f35b825163d93c066560e01b8152fd5b50503461015e573660031901126102e2576104af61049b61096c565b602435906104aa8233836109d5565b610b86565b80f35b50503461015e57602036600319011261015e5760209181906001600160a01b036104da61096c565b16815280845220549051908152f35b50503461015e578160031936011261015e5760209060ff6005541690519015158152f35b50503461015e578060031936011261015e5761052761096c565b90602435918215158093036101ec5760018060a01b03168352600660205282209060ff8019835416911617905580f35b50503461015e57602036600319011261015e5760209160ff9082906001600160a01b0361058261096c565b1681526006855220541690519015158152f35b50503461015e578160031936011261015e5760209060ff6008541690519015158152f35b83903461015e57602036600319011261015e576104af903533610b86565b919050346101f457806003193601126101f4576105f261096c565b6001600160a01b0316916024359190831561066a5760025490838201809211610657575084927fddf252ad1be2c89b69c2b068fc378daa952ba7f163c4a11628f55a4df523b3ef9260209260025585855284835280852082815401905551908152a380f35b634e487b7160e01b865260119052602485fd5b84602492519163ec442f0560e01b8352820152fd5b9050346101f457826003193601126101f4576005549060ff8216156106d3575060ff1916600555513381527f5db9ee0a495bf2e6ff9c91a7834c1ba4fdd244a5e8aa4e537bd38aeae4b073aa90602090a180f35b8251638dfc202b60e01b8152fd5b50503461015e573660031901126102e2576106fa61096c565b5060243560ff8116036102e25780f35b50503461015e578160031936011261015e576020905160128152f35b50503461015e57606036600319011261015e5760209061030f61074761096c565b61074f610987565b6044359161075e8333836109d5565b610aa8565b50503461015e578160031936011261015e576020906002549051908152f35b9050346101f457816003193601126101f45761079c61096c565b602435903315610815576001600160a01b03169182156107fe57508083602095338152600187528181208582528752205582519081527f8c5be1e5ebec7d5bd14f71427d1e84f3dd0314c0f7b2291e5b200ac8c7c3b925843392a35160018152f35b8351634a1406b160e11b8152908101859052602490fd5b835163e602df0560e01b8152808401869052602490fd5b929150346101ec57836003193601126101ec57600354600181811c9186908281168015610913575b602095868610821461090057508488529081156108de5750600114610885575b61037e8686610374828b038361099d565b929550600383527fc2575a0e9e593c00f959f8c92f12db2869c3395a3b0502d05e2516446f71f85b5b8284106108cb575050508261037e94610374928201019438610874565b80548685018801529286019281016108ae565b60ff191687860152505050151560051b83010192506103748261037e38610874565b634e487b7160e01b845260229052602483fd5b93607f1693610854565b60005b8381106109305750506000910152565b8181015183820152602001610920565b60409160208252610960815180928160208601526020868601910161091d565b601f01601f1916010190565b600435906001600160a01b038216820361098257565b600080fd5b602435906001600160a01b038216820361098257565b90601f8019910116810190811067ffffffffffffffff8211176109bf57604052565b634e487b7160e01b600052604160045260246000fd5b9160018060a01b038093169160009383855260016020526040938486209183169182875260205284862054926000198410610a14575b50505050505050565b848410610a7857508015610a60578115610a4857855260016020528385209085526020520391205538808080808080610a0b565b8451634a1406b160e11b815260048101879052602490fd5b845163e602df0560e01b815260048101879052602490fd5b8551637dc7a0d960e11b81526001600160a01b039190911660048201526024810184905260448101859052606490fd5b916001600160a01b03808416928315610b6d5716928315610b545760009083825281602052604082205490838210610b22575091604082827fddf252ad1be2c89b69c2b068fc378daa952ba7f163c4a11628f55a4df523b3ef958760209652828652038282205586815220818154019055604051908152a3565b60405163391434e360e21b81526001600160a01b03919091166004820152602481019190915260448101839052606490fd5b60405163ec442f0560e01b815260006004820152602490fd5b604051634b637e8f60e11b815260006004820152602490fd5b906001600160a01b038216908115610b6d5760009282845283602052604084205490828210610bf35750817fddf252ad1be2c89b69c2b068fc378daa952ba7f163c4a11628f55a4df523b3ef926020928587528684520360408620558060025403600255604051908152a3565b60405163391434e360e21b81526001600160a01b03919091166004820152602481019190915260448101829052606490fdfea164736f6c6343000816000a",
  "linkReferences": {},
  "deployedLinkReferences": {}
}