{
  "_format": "hh-sol-artifact-1",
  "contractName": "StreakMilestones",
  "sourceName": "contracts/StreakMilestones.sol",
  "abi": [
    {
      "inputs": [],
      "name": "AccessControlBadConfirmation",
      "type": "error"
    },
    {
      "inputs": [
        {
          "internalType": "address",
          "name": "account",
          "type": "address"
        },
        {
          "internalType": "bytes32",
          "name": "neededRole",
          "type": "bytes32"
        }
      ],
      "name": "AccessControlUnauthorizedAccount",
      "type": "error"
    },
    {
      "inputs": [
        {
          "internalType": "address",
          "name": "target",
          "type": "address"
        }
      ],
      "name": "AddressEmptyCode",
      "type": "error"
    },
    {
      "inputs": [
        {
          "internalType": "address",
          "name": "implementation",
          "type": "address"
        }
      ],
      "name": "ERC1967InvalidImplementation",
      "type": "error"
    },
    {
      "inputs": [],
      "name": "ERC1967NonPayable",
      "type": "error"
    },
    {
      "inputs": [],
      "name": "EnforcedPause",
      "type": "error"
    },
    {
      "inputs": [],
      "name": "ExpectedPause",
      "type": "error"
    },
    {
      "inputs": [],
      "name": "FailedCall",
      "type": "error"
    },
    {
      "inputs": [],
      "name": "InsufficientStreak",
      "type": "error"
    },
    {
      "inputs": [],
      "name": "InvalidInitialization",
      "type": "error"
    },
    {
      "inputs": [],
      "name": "InvalidMilestoneId",
      "type": "error"
    },
    {
      "inputs": [],
      "name": "MilestoneAlreadyAchieved",
      "type": "error"
    },
    {
      "inputs": [],
      "name": "MilestoneNotActive",
      "type": "error"
    },
    {
      "inputs": [],
      "name": "NoMilestonesAvailable",
      "type": "error"
    },
    {
      "inputs": [],
      "name": "NotInitializing",
      "type": "error"
    },
    {
      "inputs": [],
      "name": "ReentrancyGuardReentrantCall",
      "type": "error"
    },
    {
      "inputs": [],
      "name": "UUPSUnauthorizedCallContext",
      "type": "error"
    },
    {
      "inputs": [
        {
          "internalType": "bytes32",
          "name": "slot",
          "type": "bytes32"
        }
      ],
      "name": "UUPSUnsupportedProxiableUUID",
      "type": "error"
    },
    {
      "anonymous": false,
      "inputs": [
        {
          "indexed": true,
          "internalType": "address",
          "name": "user",
          "type": "address"
        },
        {
          "indexed": false,
          "internalType": "uint32[]",
          "name": "milestoneIds",
          "type": "uint32[]"
        },
        {
          "indexed": false,
          "internalType": "uint32",
          "name": "totalReward",
          "type": "uint32"
        }
      ],
      "name": "BatchMilestonesAchieved",
      "type": "event"
    },
    {
      "anonymous": false,
      "inputs": [
        {
          "indexed": false,
          "internalType": "uint64",
          "name": "version",
          "type": "uint64"
        }
      ],
      "name": "Initialized",
      "type": "event"
    },
    {
      "anonymous": false,
      "inputs": [
        {
          "indexed": true,
          "internalType": "address",
          "name": "user",
          "type": "address"
        },
        {
          "indexed": false,
          "internalType": "uint32",
          "name": "totalDays",
          "type": "uint32"
        }
      ],
      "name": "LegendaryStreakAchieved",
      "type": "event"
    },
    {
      "anonymous": false,
      "inputs": [
        {
          "indexed": true,
          "internalType": "address",
          "name": "user",
          "type": "address"
        },
        {
          "indexed": true,
          "internalType": "uint32",
          "name": "milestoneId",
          "type": "uint32"
        },
        {
          "indexed": false,
          "internalType": "string",
          "name": "title",
          "type": "string"
        },
        {
          "indexed": false,
          "internalType": "uint32",
          "name": "specialReward",
          "type": "uint32"
        },
        {
          "indexed": false,
          "internalType": "uint256",
          "name": "badgeId",
          "type": "uint256"
        }
      ],
      "name": "MilestoneAchieved",
      "type": "event"
    },
    {
      "anonymous": false,
      "inputs": [
        {
          "indexed": true,
          "internalType": "uint32",
          "name": "milestoneId",
          "type": "uint32"
        },
        {
          "indexed": false,
          "internalType": "string",
          "name": "title",
          "type": "string"
        },
        {
          "indexed": false,
          "internalType": "uint32",
          "name": "day",
          "type": "uint32"
        },
        {
          "indexed": false,
          "internalType": "uint32",
          "name": "specialReward",
          "type": "uint32"
        }
      ],
      "name": "MilestoneConfigured",
      "type": "event"
    },
    {
      "anonymous": false,
      "inputs": [
        {
          "indexed": false,
          "internalType": "address",
          "name": "account",
          "type": "address"
        }
      ],
      "name": "Paused",
      "type": "event"
    },
    {
      "anonymous": false,
      "inputs": [
        {
          "indexed": true,
          "internalType": "bytes32",
          "name": "role",
          "type": "bytes32"
        },
        {
          "indexed": true,
          "internalType": "bytes32",
          "name": "previousAdminRole",
          "type": "bytes32"
        },
        {
          "indexed": true,
          "internalType": "bytes32",
          "name": "newAdminRole",
          "type": "bytes32"
        }
      ],
      "name": "RoleAdminChanged",
      "type": "event"
    },
    {
      "anonymous": false,
      "inputs": [
        {
          "indexed": true,
          "internalType": "bytes32",
          "name": "role",
          "type": "bytes32"
        },
        {
          "indexed": true,
          "internalType": "address",
          "name": "account",
          "type": "address"
        },
        {
          "indexed": true,
          "internalType": "address",
          "name": "sender",
          "type": "address"
        }
      ],
      "name": "RoleGranted",
      "type": "event"
    },
    {
      "anonymous": false,
      "inputs": [
        {
          "indexed": true,
          "internalType": "bytes32",
          "name": "role",
          "type": "bytes32"
        },
        {
          "indexed": true,
          "internalType": "address",
          "name": "account",
          "type": "address"
        },
        {
          "indexed": true,
          "internalType": "address",
          "name": "sender",
          "type": "address"
        }
      ],
      "name": "RoleRevoked",
      "type": "event"
    },
    {
      "anonymous": false,
      "inputs": [
        {
          "indexed": true,
          "internalType": "address",
          "name": "user",
          "type": "address"
        },
        {
          "indexed": false,
          "internalType": "uint32",
          "name": "newTotal",
          "type": "uint32"
        }
      ],
      "name": "TotalStreakUpdated",
      "type": "event"
    },
    {
      "anonymous": false,
      "inputs": [
        {
          "indexed": false,
          "internalType": "address",
          "name": "account",
          "type": "address"
        }
      ],
      "name": "Unpaused",
      "type": "event"
    },
    {
      "anonymous": false,
      "inputs": [
        {
          "indexed": true,
          "internalType": "address",
          "name": "implementation",
          "type": "address"
        }
      ],
      "name": "Upgraded",
      "type": "event"
    },
    {
      "inputs": [],
      "name": "DEFAULT_ADMIN_ROLE",
      "outputs": [
        {
          "internalType": "bytes32",
          "name": "",
          "type": "bytes32"
        }
      ],
      "stateMutability": "view",
      "type": "function"
    },
    {
      "inputs": [],
      "name": "MILESTONE_MANAGER_ROLE",
      "outputs": [
        {
          "internalType": "bytes32",
          "name": "",
          "type": "bytes32"
        }
      ],
      "stateMutability": "view",
      "type": "function"
    },
    {
      "inputs": [],
      "name": "UPGRADE_INTERFACE_VERSION",
      "outputs": [
        {
          "internalType": "string",
          "name": "",
          "type": "string"
        }
      ],
      "stateMutability": "view",
      "type": "function"
    },
    {
      "inputs": [
        {
          "internalType": "address",
          "name": "",
          "type": "address"
        },
        {
          "internalType": "uint32",
          "name": "",
          "type": "uint32"
        }
      ],
      "name": "achievedMilestones",
      "outputs": [
        {
          "internalType": "bool",
          "name": "",
          "type": "bool"
        }
      ],
      "stateMutability": "view",
      "type": "function"
    },
    {
      "inputs": [
        {
          "internalType": "uint256",
          "name": "",
          "type": "uint256"
        }
      ],
      "name": "activeMilestones",
      "outputs": [
        {
          "internalType": "uint32",
          "name": "",
          "type": "uint32"
        }
      ],
      "stateMutability": "view",
      "type": "function"
    },
    {
      "inputs": [],
      "name": "badgeMinter",
      "outputs": [
        {
          "internalType": "contract IBadgeMinter",
          "name": "",
          "type": "address"
        }
      ],
      "stateMutability": "view",
      "type": "function"
    },
    {
      "inputs": [],
      "name": "claimAllMilestones",
      "outputs": [],
      "stateMutability": "nonpayable",
      "type": "function"
    },
    {
      "inputs": [
        {
          "internalType": "uint32",
          "name": "milestoneId",
          "type": "uint32"
        }
      ],
      "name": "claimMilestone",
      "outputs": [],
      "stateMutability": "nonpayable",
      "type": "function"
    },
    {
      "inputs": [
        {
          "internalType": "uint32",
          "name": "milestoneId",
          "type": "uint32"
        },
        {
          "internalType": "uint32",
          "name": "day",
          "type": "uint32"
        },
        {
          "internalType": "string",
          "name": "title",
          "type": "string"
        },
        {
          "internalType": "string",
          "name": "description",
          "type": "string"
        },
        {
          "internalType": "uint32",
          "name": "specialReward",
          "type": "uint32"
        },
        {
          "internalType": "string",
          "name": "badgeURI",
          "type": "string"
        },
        {
          "internalType": "bool",
          "name": "isGlobal",
          "type": "bool"
        }
      ],
      "name": "configureMilestone",
      "outputs": [],
      "stateMutability": "nonpayable",
      "type": "function"
    },
    {
      "inputs": [],
      "name": "getActiveMilestones",
      "outputs": [
        {
          "internalType": "uint32[]",
          "name": "",
          "type": "uint32[]"
        }
      ],
      "stateMutability": "view",
      "type": "function"
    },
    {
      "inputs": [
        {
          "internalType": "address",
          "name": "user",
          "type": "address"
        }
      ],
      "name": "getAvailableMilestones",
      "outputs": [
        {
          "internalType": "uint32[]",
          "name": "availableMilestoneIds",
          "type": "uint32[]"
        }
      ],
      "stateMutability": "view",
      "type": "function"
    },
    {
      "inputs": [
        {
          "internalType": "uint32",
          "name": "milestoneId",
          "type": "uint32"
        }
      ],
      "name": "getMilestoneDetails",
      "outputs": [
        {
          "internalType": "uint32",
          "name": "day",
          "type": "uint32"
        },
        {
          "internalType": "string",
          "name": "title",
          "type": "string"
        },
        {
          "internalType": "string",
          "name": "description",
          "type": "string"
        },
        {
          "internalType": "uint32",
          "name": "specialReward",
          "type": "uint32"
        },
        {
          "internalType": "string",
          "name": "badgeURI",
          "type": "string"
        },
        {
          "internalType": "bool",
          "name": "isActive",
          "type": "bool"
        },
        {
          "internalType": "bool",
          "name": "isGlobal",
          "type": "bool"
        }
      ],
      "stateMutability": "view",
      "type": "function"
    },
    {
      "inputs": [
        {
          "internalType": "bytes32",
          "name": "role",
          "type": "bytes32"
        }
      ],
      "name": "getRoleAdmin",
      "outputs": [
        {
          "internalType": "bytes32",
          "name": "",
          "type": "bytes32"
        }
      ],
      "stateMutability": "view",
      "type": "function"
    },
    {
      "inputs": [
        {
          "internalType": "bytes32",
          "name": "role",
          "type": "bytes32"
        },
        {
          "internalType": "address",
          "name": "account",
          "type": "address"
        }
      ],
      "name": "grantRole",
      "outputs": [],
      "stateMutability": "nonpayable",
      "type": "function"
    },
    {
      "inputs": [
        {
          "internalType": "address",
          "name": "",
          "type": "address"
        }
      ],
      "name": "hasEpicStreak",
      "outputs": [
        {
          "internalType": "bool",
          "name": "",
          "type": "bool"
        }
      ],
      "stateMutability": "view",
      "type": "function"
    },
    {
      "inputs": [
        {
          "internalType": "address",
          "name": "",
          "type": "address"
        }
      ],
      "name": "hasLegendaryStreak",
      "outputs": [
        {
          "internalType": "bool",
          "name": "",
          "type": "bool"
        }
      ],
      "stateMutability": "view",
      "type": "function"
    },
    {
      "inputs": [
        {
          "internalType": "bytes32",
          "name": "role",
          "type": "bytes32"
        },
        {
          "internalType": "address",
          "name": "account",
          "type": "address"
        }
      ],
      "name": "hasRole",
      "outputs": [
        {
          "internalType": "bool",
          "name": "",
          "type": "bool"
        }
      ],
      "stateMutability": "view",
      "type": "function"
    },
    {
      "inputs": [
        {
          "internalType": "address",
          "name": "_xpEngineAddress",
          "type": "address"
        },
        {
          "internalType": "address",
          "name": "_badgeMinterAddress",
          "type": "address"
        },
        {
          "internalType": "address",
          "name": "_streakCoreAddress",
          "type": "address"
        }
      ],
      "name": "initialize",
      "outputs": [],
      "stateMutability": "nonpayable",
      "type": "function"
    },
    {
      "inputs": [
        {
          "internalType": "uint32",
          "name": "",
          "type": "uint32"
        }
      ],
      "name": "milestoneBadgeURIs",
      "outputs": [
        {
          "internalType": "string",
          "name": "",
          "type": "string"
        }
      ],
      "stateMutability": "view",
      "type": "function"
    },
    {
      "inputs": [
        {
          "internalType": "address",
          "name": "",
          "type": "address"
        }
      ],
      "name": "milestoneCount",
      "outputs": [
        {
          "internalType": "uint32",
          "name": "",
          "type": "uint32"
        }
      ],
      "stateMutability": "view",
      "type": "function"
    },
    {
      "inputs": [
        {
          "internalType": "uint32",
          "name": "",
          "type": "uint32"
        }
      ],
      "name": "milestoneDescriptions",
      "outputs": [
        {
          "internalType": "string",
          "name": "",
          "type": "string"
        }
      ],
      "stateMutability": "view",
      "type": "function"
    },
    {
      "inputs": [
        {
          "internalType": "uint32",
          "name": "",
          "type": "uint32"
        }
      ],
      "name": "milestoneTitles",
      "outputs": [
        {
          "internalType": "string",
          "name": "",
          "type": "string"
        }
      ],
      "stateMutability": "view",
      "type": "function"
    },
    {
      "inputs": [
        {
          "internalType": "uint32",
          "name": "",
          "type": "uint32"
        }
      ],
      "name": "milestones",
      "outputs": [
        {
          "internalType": "uint32",
          "name": "day",
          "type": "uint32"
        },
        {
          "internalType": "uint32",
          "name": "specialReward",
          "type": "uint32"
        },
        {
          "internalType": "bool",
          "name": "isActive",
          "type": "bool"
        },
        {
          "internalType": "bool",
          "name": "isGlobal",
          "type": "bool"
        }
      ],
      "stateMutability": "view",
      "type": "function"
    },
    {
      "inputs": [],
      "name": "pause",
      "outputs": [],
      "stateMutability": "nonpayable",
      "type": "function"
    },
    {
      "inputs": [],
      "name": "paused",
      "outputs": [
        {
          "internalType": "bool",
          "name": "",
          "type": "bool"
        }
      ],
      "stateMutability": "view",
      "type": "function"
    },
    {
      "inputs": [],
      "name": "proxiableUUID",
      "outputs": [
        {
          "internalType": "bytes32",
          "name": "",
          "type": "bytes32"
        }
      ],
      "stateMutability": "view",
      "type": "function"
    },
    {
      "inputs": [
        {
          "internalType": "bytes32",
          "name": "role",
          "type": "bytes32"
        },
        {
          "internalType": "address",
          "name": "callerConfirmation",
          "type": "address"
        }
      ],
      "name": "renounceRole",
      "outputs": [],
      "stateMutability": "nonpayable",
      "type": "function"
    },
    {
      "inputs": [
        {
          "internalType": "bytes32",
          "name": "role",
          "type": "bytes32"
        },
        {
          "internalType": "address",
          "name": "account",
          "type": "address"
        }
      ],
      "name": "revokeRole",
      "outputs": [],
      "stateMutability": "nonpayable",
      "type": "function"
    },
    {
      "inputs": [],
      "name": "streakCore",
      "outputs": [
        {
          "internalType": "contract IStreakCore",
          "name": "",
          "type": "address"
        }
      ],
      "stateMutability": "view",
      "type": "function"
    },
    {
      "inputs": [
        {
          "internalType": "bytes4",
          "name": "interfaceId",
          "type": "bytes4"
        }
      ],
      "name": "supportsInterface",
      "outputs": [
        {
          "internalType": "bool",
          "name": "",
          "type": "bool"
        }
      ],
      "stateMutability": "view",
      "type": "function"
    },
    {
      "inputs": [
        {
          "internalType": "address",
          "name": "",
          "type": "address"
        }
      ],
      "name": "totalStreakDays",
      "outputs": [
        {
          "internalType": "uint32",
          "name": "",
          "type": "uint32"
        }
      ],
      "stateMutability": "view",
      "type": "function"
    },
    {
      "inputs": [],
      "name": "unpause",
      "outputs": [],
      "stateMutability": "nonpayable",
      "type": "function"
    },
    {
      "inputs": [
        {
          "internalType": "address",
          "name": "user",
          "type": "address"
        }
      ],
      "name": "updateTotalStreakDays",
      "outputs": [],
      "stateMutability": "nonpayable",
      "type": "function"
    },
    {
      "inputs": [
        {
          "internalType": "address",
          "name": "newImplementation",
          "type": "address"
        },
        {
          "internalType": "bytes",
          "name": "data",
          "type": "bytes"
        }
      ],
      "name": "upgradeToAndCall",
      "outputs": [],
      "stateMutability": "payable",
      "type": "function"
    },
    {
      "inputs": [],
      "name": "xpEngine",
      "outputs": [
        {
          "internalType": "contract IXPEngine",
          "name": "",
          "type": "address"
        }
      ],
      "stateMutability": "view",
      "type": "function"
    }
  ],
  "bytecode": "0x60a0806040523461002a57306080526145dc9081610030823960805181818161335001526134350152f35b600080fdfe608080604052600436101561001357600080fd5b60009060e08235811c91826301ffc9a714613aea575081630690b14c14613aaa5781630b0e702914613a745781630b5b202714613a34578163248a9ca3146139fa5781632d58b482146139bf5781632f2ff15d1461397457816336568abe1461392c57816339c14eff146136855781633f4ba83a1461360d5781634f1ef286146133ba57816352d1902d1461333d5781635c975abb1461330d5781635d794478146132ae5781636ad67585146132785781636e131ad614613251578163786d172e14612dba5781637d74450f14612d7a5781638456cb5914612d125781638aa47a8814612c0e5781638dfd8c4914612bcf57816391d1485414612b765781639e4f27eb14612851578163a217fddf14612835578163ad1b4930146127eb578163ad3cb1cc146127a5578163adcf5ce31461277c578163b8cf0cd414612476578163baca0ee714612437578163c0c53b8b1461049f578163d547741f14610450578163dd24727c1461026457508063e53c7cd91461020c578063fdcacdb3146101e35763feccdde8146101a457600080fd5b346101e05760203660031901126101e0576101dc6101c86101c3613d44565b613fae565b604051918291602083526020830190613db8565b0390f35b80fd5b50346101e057806003193601126101e0576001546040516001600160a01b039091168152602090f35b50346101e05760403660031901126101e05763ffffffff604061022d613d44565b92610236613ba8565b9360018060a01b031681526007602052209116600052602052602060ff604060002054166040519015158152f35b90503461044c578160031936011261044c5760405191828093600954938482526020948580930191600986527f6e1540171b6c0c960b71a7020d9f60077f6af931a8bbf590da0223dacf75c7af95915b8060078401106103db5761030f965492858282106103c5575b8282106103ad575b828210610394575b82821061037b575b828210610362575b828210610349575b828210610330575b5010610323575b505090500383613c3e565b6101dc604051928284938452830190613db8565b1c81520183903880610304565b6001919563ffffffff8660c01c168152019401856102fd565b6001919563ffffffff8660a01c168152019401856102f5565b6001919563ffffffff8660801c168152019401856102ed565b6001919563ffffffff8660601c168152019401856102e5565b6001919563ffffffff8660401c168152019401856102dd565b6001919563ffffffff86831c168152019401856102d5565b6001919563ffffffff86168152019401856102cd565b926008929550600191945061010090875463ffffffff808216835280828c1c168b840152808260401c16604084015260608183821c169084015260808183821c169084015260a08183821c169084015260c09082821c1690830152861c8682015201950193018592879495926102b4565b5080fd5b82346101e05760403660031901126101e05761049b600435610470613d5a565b9080845260008051602061457083398151915260205261049660016040862001546141d1565b6143ed565b5080f35b82346101e05760603660031901126101e0576104b9613d44565b6104c1613d5a565b6001600160a01b03916044358381169190829003612432577ff0c57e16840df040f15088dc2f81fe391c3923bec73e23a9662efc9c229c6a00938454936001600160401b03851680159081612422575b6001149081612418575b15908161240f575b506123fd5760016001600160401b0319861617865560ff8560401c16156123de575b61054d6144cb565b6105556144cb565b61055d6144cb565b6105656144cb565b60016000805160206145b08339815191525561058033614204565b5061058a336142a4565b50816bffffffffffffffffffffffff60a01b9316838854161787551681600154161760015560025416176002556040516105c381613c23565b600b81526a466972737420537465707360a81b60208201526040516105e781613c23565b601e81527f436f6d706c6574656420313020746f74616c2073747265616b2064617973000060208201526040519161061e83613c23565b6011835270466972737420537465707320426164676560781b60208085019190915260016000527fa15bc60c955c405d20d9149c709e2460f1c2d9a497496a7f46004d1772c3054c80546001600160501b031916690101000001f40000000a1790556004905280517fabd6e7cb50984ff9c2f3e18a2660c3353dadf4e3291deeb275dae2cd1e44fe05916001600160401b03821161198f576106ca826106c48554613bbb565b85613df2565b602090601f8311600114612376576106fb929160009183611a8f575b50508160011b916000199060031b1c19161790565b90555b6001600052600560205280517f1471eb6eb2c5e789fc3de43f8ce62938c7d1836ec861730447e2ada8fd81017b916001600160401b03821161198f57610748826106c48554613bbb565b602090601f831160011461230a57610778929160009183611a185750508160011b916000199060031b1c19161790565b90555b6001600052600660205280517f3e5fec24aa4dc4e5aee2e025e51e1392c72a2500577559fae9665c6d52bd6a31916001600160401b03821161198f576107c5826106c48554613bbb565b602090601f831160011461229e576107f59291600091836119a55750508160011b916000199060031b1c19161790565b90555b600954600160401b81101561198f578060016108179201600955613b3f565b815463ffffffff60018360031b1b9260031b1b191617905560405161083b81613c23565b600f81526e11d95d1d1a5b99c814dd185c9d1959608a1b602082015260405161086381613c23565b601e81527f436f6d706c6574656420323520746f74616c2073747265616b2064617973000060208201526040519161089a83613c23565b601583527447657474696e67205374617274656420426164676560581b60208085019190915260026000527fc3a24b0501bd2c13a7e57f2db4369ec4c223447539fc0724a9d55ac4a06ebd4d80546001600160501b031916690101000003e8000000191790556004905280517f91da3fd0782e51c6b3986e9e672fd566868e71f3dbc2d6c2cd6fbb3e361af2a7916001600160401b03821161198f57610944826106c48554613bbb565b602090601f831160011461223257610974929160009183611a8f5750508160011b916000199060031b1c19161790565b90555b6002600052600560205280517f89832631fb3c3307a103ba2c84ab569c64d6182a18893dcd163f0f1c2090733a916001600160401b03821161198f576109c1826106c48554613bbb565b602090601f83116001146121c6576109f1929160009183611a185750508160011b916000199060031b1c19161790565b90555b6002600052600660205280517f8819ef417987f8ae7a81f42cdfb18815282fe989326fbff903d13cf0e03ace29916001600160401b03821161198f57610a3e826106c48554613bbb565b602090601f831160011461215a57610a6e9291600091836119a55750508160011b916000199060031b1c19161790565b90555b600954600160401b81101561198f57806001610a909201600955613b3f565b81549060031b9063ffffffff6002831b921b1916179055604051610ab381613c23565b600981526810dbdb5b5a5d1d195960ba1b6020820152604051610ad581613c23565b601e81527f436f6d706c6574656420353020746f74616c2073747265616b20646179730000602082015260405191610b0c83613c23565b600f83526e436f6d6d697474656420426164676560881b60208085019190915260036000527fcbc4e5fb02c3d1de23a9f1e014b4d2ee5aeaea9505df5e855c9210bf472495af80546001600160501b031916690101000007d0000000321790556004905280517f2e174c10e159ea99b867ce3205125c24a42d128804e4070ed6fcc8cc98166aa0916001600160401b03821161198f57610bb0826106c48554613bbb565b602090601f83116001146120ee57610be0929160009183611a8f5750508160011b916000199060031b1c19161790565b90555b6003600052600560205280517fa9bc9a3a348c357ba16b37005d7e6b3236198c0e939f4af8c5f19b8deeb8ebc0916001600160401b03821161198f57610c2d826106c48554613bbb565b602090601f831160011461208257610c5d929160009183611a185750508160011b916000199060031b1c19161790565b90555b6003600052600660205280517f75f96ab15d697e93042dc45b5c896c4b27e89bb6eaf39475c5c371cb2513f7d2916001600160401b03821161198f57610caa826106c48554613bbb565b602090601f831160011461201657610cda9291600091836119a55750508160011b916000199060031b1c19161790565b90555b600954600160401b81101561198f57806001610cfc9201600955613b3f565b81549060031b9063ffffffff6003831b921b1916179055604051610d1f81613c23565b600d81526c22b834b19020b1b434b2bb32b960991b6020820152604051610d4581613c23565b601f81527f436f6d706c657465642031303020746f74616c2073747265616b206461797300602082015260405191610d7c83613c23565b60138352724570696320416368696576657220426164676560681b602080850191909152600460008190527f83ec6a1f0257b830b5e016457c9cf1435391bf56cc98f369a58a54fe9377246580546001600160501b0319166901010000138800000064179055905280517f1a1e6821cde7d0159c0d293177871e09677b4e42307c7db3ba94f8648a5a050f916001600160401b03821161198f57610e24826106c48554613bbb565b602090601f8311600114611faa57610e54929160009183611a8f5750508160011b916000199060031b1c19161790565b90555b6004600052600560205280517f3eec716f11ba9e820c81ca75eb978ffb45831ef8b7a53e5e422c26008e1ca6d5916001600160401b03821161198f57610ea1826106c48554613bbb565b602090601f8311600114611f3e57610ed1929160009183611a185750508160011b916000199060031b1c19161790565b90555b6004600052600660205280517fc5069e24aaadb2addc3e52e868fcf3f4f8acf5a87e24300992fd4540c2a87eed916001600160401b03821161198f57610f1e826106c48554613bbb565b602090601f8311600114611ed257610f4e9291600091836119a55750508160011b916000199060031b1c19161790565b90555b600954600160401b81101561198f57806001610f709201600955613b3f565b81549060031b9063ffffffff6004831b921b1916179055604051610f9381613c23565b600d81526c29ba3932b0b59026b0b9ba32b960991b6020820152604051610fb981613c23565b601f81527f436f6d706c657465642032303020746f74616c2073747265616b206461797300602082015260405191610ff083613c23565b601383527253747265616b204d617374657220426164676560681b60208085019190915260056000527f405aad32e1adbac89bb7f176e338b8fc6e994ca210c9bb7bdca249b46594225080546001600160501b03191669010100002710000000c81790556004905280517f04cde762ef08b6b6c5ded8e8c4c0b3f4e5c9ad7342c88fcc93681b4588b73f05916001600160401b03821161198f57611098826106c48554613bbb565b602090601f8311600114611e66576110c8929160009183611a8f5750508160011b916000199060031b1c19161790565b90555b6005600081905260205280517f458b30c2d72bfd2c6317304a4594ecbafe5f729d3111b65fdc3a33bd48e5432d916001600160401b03821161198f57611115826106c48554613bbb565b602090601f8311600114611dfa57611145929160009183611a185750508160011b916000199060031b1c19161790565b90555b6005600052600660205280517fbfd358e93f18da3ed276c3afdbdba00b8f0b6008a03476a6a86bd6320ee6938b916001600160401b03821161198f57611192826106c48554613bbb565b602090601f8311600114611d8e576111c29291600091836119a55750508160011b916000199060031b1c19161790565b90555b600954600160401b81101561198f578060016111e49201600955613b3f565b81549060031b9063ffffffff6005831b921b191617905560405161120781613c23565b60098152684c6567656e6461727960b81b602082015260405161122981613c23565b601f81527f436f6d706c657465642033363520746f74616c2073747265616b20646179730060208201526040519161126083613c23565b600f83526e4c6567656e6461727920426164676560881b60208085019190915260066000527fc69056f16cbaa3c616b828e333ab7d3a32310765507f8f58359e99ebb7a885f380546001600160501b031916690101000061a80000016d1790556004905280517fc59312466997bb42aaaf719ece141047820e6b34531e1670dc1852a453648f0f916001600160401b03821161198f57611304826106c48554613bbb565b602090601f8311600114611d2257611334929160009183611a8f5750508160011b916000199060031b1c19161790565b90555b6006600052600560205280517f069400f22b28c6c362558d92f66163cec5671cba50b61abd2eecfcd0eaeac518916001600160401b03821161198f57611381826106c48554613bbb565b602090601f8311600114611cb6576113b1929160009183611a185750508160011b916000199060031b1c19161790565b90555b6006600081905260205280517f697b2bd7bb2984c4e0dc14c79c987d37818484a62958b9c45a0e8b962f20650f916001600160401b03821161198f576113fe826106c48554613bbb565b602090601f8311600114611c4a5761142e9291600091836119a55750508160011b916000199060031b1c19161790565b90555b600954600160401b81101561198f578060016114509201600955613b3f565b81549060031b9063ffffffff6006831b921b191617905560405161147381613c23565b600b81526a556e73746f707061626c6560a81b602082015260405161149781613c23565b601f81527f436f6d706c657465642035303020746f74616c2073747265616b2064617973006020820152604051916114ce83613c23565b6011835270556e73746f707061626c6520426164676560781b60208085019190915260076000527ff2c49132ed1cee2a7e75bde50d332a2f81f1d01e5456d8a19d1df09bd561dbd280546001600160501b0319166901010000c350000001f41790556004905280517fbeb3bad75134cb432e5707980e3245c52c5998a1125ee30f2f0dbf3925b1e551916001600160401b03821161198f57611574826106c48554613bbb565b602090601f8311600114611bde576115a4929160009183611a8f5750508160011b916000199060031b1c19161790565b90555b6007600052600560205280517feddb6698d7c569ff62ff64f1f1492bf14a54594835ba0faac91f84b4f5d81460916001600160401b03821161198f576115f1826106c48554613bbb565b602090601f8311600114611b7257611621929160009183611a185750508160011b916000199060031b1c19161790565b90555b6007600052600660205280517f4ced6d0d36392b04cc5d8761b1327b3bbba6e1089c77f60a9a9ca18e05e4f00e916001600160401b03821161198f5761166e826106c48554613bbb565b602090601f8311600114611b065761169e9291600091836119a55750508160011b916000199060031b1c19161790565b90555b600954600160401b81101561198f578060016116c09201600955613b3f565b81549060031b9063ffffffff6007831b921b19161790556040516116e381613c23565b6008815267135e5d1a1a58d85b60c21b602082015260405161170481613c23565b602081527f436f6d706c65746564203130303020746f74616c2073747265616b206461797360208201526040519161173b83613c23565b600e83526d4d7974686963616c20426164676560901b60208085019190915260086000527f85aaa47b6dc46495bb8824fad4583769726fea36efd831a35556690b830a8fbe80546001600160501b031916690101000186a0000003e81790556004905280517f2645749a946633740611cfc8178319f0958659d6922e4bf7e3a08b44789f53a4916001600160401b03821161198f576117de826106c48554613bbb565b602090601f8311600114611a9a5761180e929160009183611a8f5750508160011b916000199060031b1c19161790565b90555b6008600052600560205280517ffb33122aa9f93cc639ebe80a7bc4784c11e6053dde89c6f4f7e268c6a623da1e916001600160401b03821161198f5761185b826106c48554613bbb565b602090601f8311600114611a235761188b929160009183611a185750508160011b916000199060031b1c19161790565b90555b6008600052600660205280517fb8d683c9d414f481826f3e7fe14b3ac6ae8c73450778287390c4bb8cb9f2e80b916001600160401b03821161198f576118d8826106c48554613bbb565b602090601f83116001146119b0576119089291600091836119a55750508160011b916000199060031b1c19161790565b90555b60095490600160401b82101561198f5761192d82600160ff9401600955613b3f565b81549060031b9063ffffffff6008831b921b191617905560401c1615611951575080f35b68ff00000000000000001981541690557fc7f505b2f371ae2175ee4913f4499e1f2633a7b5936321eed1cdaeb6115181d2602060405160018152a180f35b634e487b7160e01b600052604160045260246000fd5b0151905087806106e6565b90601f198316918460005260206000209260005b818110611a0057509084600195949392106119e7575b505050811b01905561190b565b015160001960f88460031b161c191690558680806119da565b929360206001819287860151815501950193016119c4565b0151905088806106e6565b9190836000526020600020906000935b601f1984168510611a74576001945083601f19811610611a5b575b505050811b01905561188e565b015160001960f88460031b161c19169055878080611a4e565b81810151835560209485019460019093019290910190611a33565b0151905089806106e6565b9190836000526020600020906000935b601f1984168510611aeb576001945083601f19811610611ad2575b505050811b019055611811565b015160001960f88460031b161c19169055888080611ac5565b81810151835560209485019460019093019290910190611aaa565b9190836000526020600020906000935b601f1984168510611b57576001945083601f19811610611b3e575b505050811b0190556116a1565b015160001960f88460031b161c19169055868080611b31565b81810151835560209485019460019093019290910190611b16565b9190836000526020600020906000935b601f1984168510611bc3576001945083601f19811610611baa575b505050811b019055611624565b015160001960f88460031b161c19169055878080611b9d565b81810151835560209485019460019093019290910190611b82565b9190836000526020600020906000935b601f1984168510611c2f576001945083601f19811610611c16575b505050811b0190556115a7565b015160001960f88460031b161c19169055888080611c09565b81810151835560209485019460019093019290910190611bee565b9190836000526020600020906000935b601f1984168510611c9b576001945083601f19811610611c82575b505050811b019055611431565b015160001960f88460031b161c19169055868080611c75565b81810151835560209485019460019093019290910190611c5a565b9190836000526020600020906000935b601f1984168510611d07576001945083601f19811610611cee575b505050811b0190556113b4565b015160001960f88460031b161c19169055878080611ce1565b81810151835560209485019460019093019290910190611cc6565b9190836000526020600020906000935b601f1984168510611d73576001945083601f19811610611d5a575b505050811b019055611337565b015160001960f88460031b161c19169055888080611d4d565b81810151835560209485019460019093019290910190611d32565b9190836000526020600020906000935b601f1984168510611ddf576001945083601f19811610611dc6575b505050811b0190556111c5565b015160001960f88460031b161c19169055868080611db9565b81810151835560209485019460019093019290910190611d9e565b9190836000526020600020906000935b601f1984168510611e4b576001945083601f19811610611e32575b505050811b019055611148565b015160001960f88460031b161c19169055878080611e25565b81810151835560209485019460019093019290910190611e0a565b9190836000526020600020906000935b601f1984168510611eb7576001945083601f19811610611e9e575b505050811b0190556110cb565b015160001960f88460031b161c19169055888080611e91565b81810151835560209485019460019093019290910190611e76565b9190836000526020600020906000935b601f1984168510611f23576001945083601f19811610611f0a575b505050811b019055610f51565b015160001960f88460031b161c19169055868080611efd565b81810151835560209485019460019093019290910190611ee2565b9190836000526020600020906000935b601f1984168510611f8f576001945083601f19811610611f76575b505050811b019055610ed4565b015160001960f88460031b161c19169055878080611f69565b81810151835560209485019460019093019290910190611f4e565b9190836000526020600020906000935b601f1984168510611ffb576001945083601f19811610611fe2575b505050811b019055610e57565b015160001960f88460031b161c19169055888080611fd5565b81810151835560209485019460019093019290910190611fba565b9190836000526020600020906000935b601f1984168510612067576001945083601f1981161061204e575b505050811b019055610cdd565b015160001960f88460031b161c19169055868080612041565b81810151835560209485019460019093019290910190612026565b9190836000526020600020906000935b601f19841685106120d3576001945083601f198116106120ba575b505050811b019055610c60565b015160001960f88460031b161c191690558780806120ad565b81810151835560209485019460019093019290910190612092565b9190836000526020600020906000935b601f198416851061213f576001945083601f19811610612126575b505050811b019055610be3565b015160001960f88460031b161c19169055888080612119565b818101518355602094850194600190930192909101906120fe565b9190836000526020600020906000935b601f19841685106121ab576001945083601f19811610612192575b505050811b019055610a71565b015160001960f88460031b161c19169055868080612185565b8181015183556020948501946001909301929091019061216a565b9190836000526020600020906000935b601f1984168510612217576001945083601f198116106121fe575b505050811b0190556109f4565b015160001960f88460031b161c191690558780806121f1565b818101518355602094850194600190930192909101906121d6565b9190836000526020600020906000935b601f1984168510612283576001945083601f1981161061226a575b505050811b019055610977565b015160001960f88460031b161c1916905588808061225d565b81810151835560209485019460019093019290910190612242565b9190836000526020600020906000935b601f19841685106122ef576001945083601f198116106122d6575b505050811b0190556107f8565b015160001960f88460031b161c191690558680806122c9565b818101518355602094850194600190930192909101906122ae565b9190836000526020600020906000935b601f198416851061235b576001945083601f19811610612342575b505050811b01905561077b565b015160001960f88460031b161c19169055878080612335565b8181015183556020948501946001909301929091019061231a565b90601f198316918460005260206000209260005b8181106123c657509084600195949392106123ad575b505050811b0190556106fe565b015160001960f88460031b161c191690558880806123a0565b9293602060018192878601518155019501930161238a565b68ffffffffffffffffff19851668010000000000000001178655610545565b60405163f92ee8a960e01b8152600490fd5b90501588610523565b303b15915061051b565b604087901c60ff16159150610511565b600080fd5b82346101e05760203660031901126101e05760209060ff906040906001600160a01b03612462613d44565b168152600b84522054166040519015158152f35b82346101e057806003193601126101e05761248f614470565b61249761449b565b6124a033613fae565b80511561276a5781825b82518110156126915763ffffffff90816124c48286613e48565b51168086526020600381526040872090604051916124e183613bf5565b549185831681526060828201938781851c16855260ff90818160401c161515604085015260481c16151591015233885260078152604088208360005281526040600020946001958660ff19825416179055338952600c82526040892080548261254b818316613e5c565b169063ffffffff19161790558083511680612680575b508389526006825261257560408a20613c5f565b9189809380516125d0575b50600197507f7b9e752406424e7867a50a8845225facb65e3ad36b4f9c3133932d267d22b1c093929186600492525260408a209351166125c7604051928392339684613ec4565b0390a3016124aa565b9754604051630d6575f960e31b81529398929450849284926001600160a01b039092169183918290612606903360048401613e9f565b03925af1908115612675578991612645575b506001959091897f7b9e752406424e7867a50a8845225facb65e3ad36b4f9c3133932d267d22b1c0612580565b9180915082813d831161266e575b61265d8183613c3e565b810103126124325790516001612618565b503d612653565b6040513d8b823e3d90fd5b61268a9197613e87565b9589612561565b50908263ffffffff831692836126fc575b50507f9d11c8c8663fc0d7205733858b53f414210b9f63f090811650fda23a6e2ae9c1906126db60405191604083526040830190613db8565b9260208201528033930390a260016000805160206145b08339815191525580f35b81546001600160a01b0316803b1561275b57604051630c4f349360e01b815233600482015263ffffffff92909216602483015282908290604490829084905af1801561275f57156126a25761275090613c10565b61275b5782846126a2565b8280fd5b6040513d84823e3d90fd5b6040516323afe66360e01b8152600490fd5b82346101e057806003193601126101e0576002546040516001600160a01b039091168152602090f35b82346101e057806003193601126101e0576101dc6040516127c581613c23565b60058152640352e302e360dc1b6020820152604051918291602083526020830190613d04565b82346101e05760203660031901126101e05761282160406101dc9263ffffffff612813613b95565b168152600560205220613c5f565b604051918291602083526020830190613d04565b82346101e057806003193601126101e057602090604051908152f35b82346101e05760208060031936011261044c5761286c613d44565b907fa3a2c0788fca84104c8a174fd5021fe337cdd81ef2dab39dfed0f397582c2efb92836000526000805160206145708339815191528252604060002033600052825260ff93846040600020541615612b585750916128c9614470565b6002546001600160a01b039182169391829116815b868416906005821015612984576040519163e58b21c360e01b835287600484015260248301528582604481865afa91821561297957908892918592612934575b5060019161292b91613e87565b940116926128de565b87809294508193503d8311612972575b61294e8183613c3e565b8101031261296e575163ffffffff8116810361296e57879161292b61291e565b8380fd5b503d612944565b6040513d86823e3d90fd5b8787878693828552600882526040852080549063ffffffff8093169083831682036129ad578780f35b8160649363ffffffff1916179055847f427de989fb830d064767867c7846e287072c5ca4a69104f8fb4e2a42a206946785604051848152a261016d81101580612b43575b612afe575b101580612ae9575b612ace575b8285526008825280604086205416918594600954955b868110612a24578780f35b83612a2e82613b3f565b919054600392831b1c1690818a5284528460408a2060405190612a5082613bf5565b549282841682528284881c168783015285808560401c1615159485604085015260481c161515606083015283612aa8575b5082612a9a575b5050612a9657600101612a19565b8780f35b51168610159050848a612a88565b91509150878a526007855260408a2090600052845284836040600020541615918b612a81565b828552600b825260408520805460ff19166001179055612a03565b50828552600b825283604086205416156129fe565b848752600a845260408720600160ff19825416179055847f68399ed6fe2ca0525eab53a1bb2c6e7422353d9fb77354fc182b6526a2c8adac85604051848152a26129f6565b50848752600a845285604088205416156129f1565b6044906040519063e2517d3f60e01b82523360048301526024820152fd5b82346101e05760403660031901126101e0576040612b92613d5a565b916004358152600080516020614570833981519152602052209060018060a01b0316600052602052602060ff604060002054166040519015158152f35b82346101e05760203660031901126101e05760209060ff906040906001600160a01b03612bfa613d44565b168152600a84522054166040519015158152f35b90503461044c57602091826003193601126101e05763ffffffff80612c31613b95565b169283835260038552604083209260405193612c4c85613bf5565b5493838516958682528782019085878a1c16825260408301928760401c60ff16151584526060019660481c60ff161515875283526004885260408320946005895260408420915116926006895260409020915115159551151594612caf90613c5f565b90612cb990613c5f565b91612cc390613c5f565b9380604051998a998a528901528701612cdb91613d04565b8681036040880152612cec91613d04565b9060608601528481036080860152612d0391613d04565b9160a084015260c08301520390f35b82346101e057806003193601126101e057612d2b614197565b612d33614470565b600080516020614590833981519152600160ff198254161790557f62e78cea01bee320cd4e420270b5ea74000d11b0c9f74754ebdbfc544b05a2586020604051338152a180f35b82346101e05760203660031901126101e05760209063ffffffff906040906001600160a01b03612da8613d44565b168152600c8452205416604051908152f35b90503461044c573660031901126101e057612dd3613b95565b612ddb613ba8565b6044356001600160401b03811161296e57612dfa903690600401613d8b565b9290916064356001600160401b03811161324d57612e1c903690600401613d8b565b9063ffffffff60843516608435036124325760a4356001600160401b03811161324957612e4d903690600401613d8b565b91909260c435801515810361324557612e64614197565b63ffffffff87168a52600360205260408a209063ffffffff82541615613201575b600160401b9069ff000000000000000000835491151560481b169063ffffffff89169069ffffffffffffffffffff19161767ffffffff0000000060843560201b16171717905563ffffffff861689526004602052604089206001600160401b03891161317c57612eff89612ef98354613bbb565b83613df2565b8989601f811160011461319b5780612f2c928d91613190575b508160011b916000199060031b1c19161790565b90555b63ffffffff86168952600560205260408920916001600160401b03821161317c57612f5e826106c48554613bbb565b8990601f831160011461311857612f8c92918b91836130635750508160011b916000199060031b1c19161790565b90555b63ffffffff84168752600660205260408720916001600160401b03821161310457908291612fc4826106c48a98979654613bbb565b889089601f841160011461306e5793613022846080989563ffffffff97957fe93e813b09aa8dcce24458c83483e812be9eddebf776ddd164a680d4ea5e585a9c99958997926130635750508160011b916000199060031b1c19161790565b90555b604051968795606087528160608801528787013784890186018a9052166020840152608435821660408401521694601f01601f19168101030190a280f35b0135905038806106e6565b50838a5260208a2091601f1984168b5b8181106130e957508463ffffffff9692947fe93e813b09aa8dcce24458c83483e812be9eddebf776ddd164a680d4ea5e585a9b9894889660809b98600195106130cf575b505050811b019055613025565b0135600019600384901b60f8161c191690553880806130c2565b8284013585558b99506001909401936020928301920161307e565b634e487b7160e01b88526041600452602488fd5b838b5260208b2091601f1984168c5b818110613164575090846001959493921061314a575b505050811b019055612f8f565b0135600019600384901b60f8161c1916905538808061313d565b91936020600181928787013581550195019201613127565b634e487b7160e01b8a52604160045260248afd5b90508a013538612f18565b50818b5260208b20908b5b8a601f198d1682106131e95750508a601f198116106131cf575b5050600189811b019055612f2f565b89013560001960038c901b60f8161c1916905538806131c0565b600183946020939484930135815501930191016131a6565b60095490600160401b82101561198f57613226826001600160401b9401600955613b3f565b81549060031b9063ffffffff808d16831b921b19161790559050612e85565b8980fd5b8780fd5b8580fd5b82346101e057806003193601126101e057546040516001600160a01b039091168152602090f35b82346101e05760203660031901126101e05761282160406101dc9263ffffffff6132a0613b95565b168152600460205220613c5f565b82346101e05760203660031901126101e05760809060ff604063ffffffff92836132d6613b95565b168152600360205220546040519280821684528160201c166020840152818160401c161515604084015260481c1615156060820152f35b82346101e057806003193601126101e057602060ff60008051602061459083398151915254166040519015158152f35b82346101e057806003193601126101e0577f00000000000000000000000000000000000000000000000000000000000000006001600160a01b031630036133a85760206040517f360894a13ba1a3210667c828492db98dca3e2076cc3735a920a3ca505d382bbc8152f35b60405163703e46dd60e11b8152600490fd5b8260403660031901126101e0576133cf613d44565b60249182356001600160401b03811161044c573660238201121561044c5780600401356133fb81613d70565b936134096040519586613c3e565b818552602091828601933688838301011161324d57818692898693018737870101526001600160a01b037f000000000000000000000000000000000000000000000000000000000000000081163081149081156135df575b506133a85761346e614197565b8116946040516352d1902d60e01b815283816004818a5afa8691816135ac575b506134ab57604051634c9c8ce360e01b8152600481018890528890fd5b8690887f360894a13ba1a3210667c828492db98dca3e2076cc3735a920a3ca505d382bbc918281036135975750843b15613581575080546001600160a01b031916821790556040518692917fbc7cd75a20ee27fd9adebab32041f755214dbc6bffa90cc0225b39da2e5c2d3b8480a2815115613563575061049b9482915190845af4903d1561355a573d61353e81613d70565b9061354c6040519283613c3e565b81528581943d92013e61450c565b6060925061450c565b94505050505034613572575080f35b63b398979f60e01b8152600490fd5b604051634c9c8ce360e01b815260048101849052fd5b60405190632a87526960e21b82526004820152fd5b9091508481813d83116135d8575b6135c48183613c3e565b810103126135d45751908961348e565b8680fd5b503d6135ba565b9050817f360894a13ba1a3210667c828492db98dca3e2076cc3735a920a3ca505d382bbc5416141588613461565b82346101e057806003193601126101e057613626614197565b600080516020614590833981519152805460ff8116156136735760ff191690557f5db9ee0a495bf2e6ff9c91a7834c1ba4fdd244a5e8aa4e537bd38aeae4b073aa6020604051338152a180f35b604051638dfc202b60e01b8152600490fd5b82346101e05760208060031936011261044c576136a0613b95565b906136a9614470565b6136b161449b565b33835260078152604083209163ffffffff80911692838552825260ff60408520541661391a57828452600382526040842091604051926136f084613bf5565b54928284168152818101938381841c16855260ff808260401c1615918215604085015260481c161515606083015261390857338652600882528280604088205416915116116138f65784913383526007825260408320858452825260408320600160ff19825416179055338352600c825260408320805482613773818316613e5c565b169063ffffffff19161790558084511680613888575b508483526006825261379d60408420613c5f565b9183928051613800575b50600490867f7b9e752406424e7867a50a8845225facb65e3ad36b4f9c3133932d267d22b1c0955252604086209351166137e8604051928392339684613ec4565b0390a360016000805160206145b08339815191525580f35b8193506138309060018060a01b036001541690604051968780948193630d6575f960e31b83523360048401613e9f565b03925af192831561387d57869361384d575b5085929160046137a7565b92508183813d8311613876575b6138648183613c3e565b81010312612432579151916004613842565b503d61385a565b6040513d88823e3d90fd5b8354929391926001600160a01b031690813b1561275b57604051630c4f349360e01b815233600482015263ffffffff91909116602482015291908290604490829084905af1801561387d576138e1575b90859291613789565b6138ee9095919295613c10565b9390856138d8565b60405163135c159360e01b8152600490fd5b604051631f7db60360e11b8152600490fd5b604051633385ebe760e21b8152600490fd5b82346101e05760403660031901126101e057613946613d5a565b336001600160a01b038216036139625761049b906004356143ed565b60405163334bd91960e11b8152600490fd5b82346101e05760403660031901126101e05761049b600435613994613d5a565b908084526000805160206145708339815191526020526139ba60016040862001546141d1565b614366565b82346101e057806003193601126101e05760206040517fa3a2c0788fca84104c8a174fd5021fe337cdd81ef2dab39dfed0f397582c2efb8152f35b82346101e05760203660031901126101e0576001604060209260043581526000805160206145708339815191528452200154604051908152f35b82346101e05760203660031901126101e05760209063ffffffff906040906001600160a01b03613a62613d44565b16815260088452205416604051908152f35b82346101e05760203660031901126101e05761282160406101dc9263ffffffff613a9c613b95565b168152600660205220613c5f565b82346101e05760203660031901126101e057600435906009548210156101e057602063ffffffff613ada84613b3f565b9190546040519260031b1c168152f35b83903461044c57602036600319011261044c5760043563ffffffff60e01b811680910361275b5760209250637965db0b60e01b8114908115613b2e575b5015158152f35b6301ffc9a760e01b14905083613b27565b90600954821015613b7f576009600052601c8260031c7f6e1540171b6c0c960b71a7020d9f60077f6af931a8bbf590da0223dacf75c7af019260021b1690565b634e487b7160e01b600052603260045260246000fd5b6004359063ffffffff8216820361243257565b6024359063ffffffff8216820361243257565b90600182811c92168015613beb575b6020831014613bd557565b634e487b7160e01b600052602260045260246000fd5b91607f1691613bca565b608081019081106001600160401b0382111761198f57604052565b6001600160401b03811161198f57604052565b604081019081106001600160401b0382111761198f57604052565b90601f801991011681019081106001600160401b0382111761198f57604052565b90604051918260008254613c7281613bbb565b90818452602094600191600181169081600014613ce25750600114613ca3575b505050613ca192500383613c3e565b565b600090815285812095935091905b818310613cca575050613ca19350820101388080613c92565b85548884018501529485019487945091830191613cb1565b92505050613ca194925060ff191682840152151560051b820101388080613c92565b919082519283825260005b848110613d30575050826000602080949584010152601f8019910116010190565b602081830181015184830182015201613d0f565b600435906001600160a01b038216820361243257565b602435906001600160a01b038216820361243257565b6001600160401b03811161198f57601f01601f191660200190565b9181601f84011215612432578235916001600160401b038311612432576020838186019501011161243257565b90815180825260208080930193019160005b828110613dd8575050505090565b835163ffffffff1685529381019392810192600101613dca565b90601f8111613e0057505050565b6000916000526020600020906020601f850160051c83019410613e3e575b601f0160051c01915b828110613e3357505050565b818155600101613e27565b9092508290613e1e565b8051821015613b7f5760209160051b010190565b63ffffffff809116908114613e715760010190565b634e487b7160e01b600052601160045260246000fd5b91909163ffffffff80809416911601918211613e7157565b6001600160a01b039091168152604060208201819052613ec192910190613d04565b90565b909392919360608252600090805490613edc82613bbb565b91826060860152608091600191600181169081600014613f5b5750600114613f17575b505050509063ffffffff604092951660208201520152565b6000908152602080822091955092905b848610613f485750505050908201608001905063ffffffff60403880613eff565b8054878701830152948301948201613f27565b91505060409594506080925063ffffffff93915060ff191682850152151560051b83010191923880613eff565b6000198114613e715760010190565b6001600160401b03811161198f5760051b60200190565b6001600160a01b0316600081815260086020908152604080832054600954949594939263ffffffff91821684805b8781106140e45750613fed86613f97565b95613ffa86519788613c3e565b808752614009601f1991613f97565b01368488013785988195825b8981106140285750505050505050505050565b8661403282613b3f565b919054600392831b1c169081865287528285208884519161405283613bf5565b5491818316815281838b1c168a82015260ff808085891c16151594858985015260481c1615156060830152836140c7575b50826140b9575b505061409a575b50600101614015565b886140b2916140ac6001949b8d613e48565b52613f88565b9790614091565b51168710159050883861408a565b87895260078b52868920858a528b52868920541615925038614083565b846140ee82613b3f565b919054600392831b1c169081845285528587842088519061410e82613bf5565b549282841682528284891c168883015260ff908180868d1c16151595868d86015260481c161515606084015284614179575b50508261416b575b5050614157575b600101613fdc565b95614163600191613f88565b96905061414f565b511684101590508538614148565b8e8752600789528a8720908752885289862054161592503880614140565b3360009081527fb7db2dd08fcb62d0c9e08c51941cae53c267786a0b75803fb7960902fc8ef97d602052604081205460ff1615612b585750565b8060005260008051602061457083398151915260205260406000203360005260205260ff6040600020541615612b585750565b6001600160a01b031660008181527fb7db2dd08fcb62d0c9e08c51941cae53c267786a0b75803fb7960902fc8ef97d60205260408120549091906000805160206145708339815191529060ff1661429f578280526020526040822081835260205260408220600160ff1982541617905533917f2f8788117e7eff1d82e926ec794901d17c78024a50270940304540a733656f0d8180a4600190565b505090565b6001600160a01b031660008181527fb253c1ba1fa3a75619dcd613f1a4e95a23775b249a09bd51121c7f1cffaf5b2560205260408120549091907fa3a2c0788fca84104c8a174fd5021fe337cdd81ef2dab39dfed0f397582c2efb906000805160206145708339815191529060ff16614360578184526020526040832082845260205260408320600160ff198254161790557f2f8788117e7eff1d82e926ec794901d17c78024a50270940304540a733656f0d339380a4600190565b50505090565b9060009180835260008051602061457083398151915280602052604084209260018060a01b03169283855260205260ff60408520541615600014614360578184526020526040832082845260205260408320600160ff198254161790557f2f8788117e7eff1d82e926ec794901d17c78024a50270940304540a733656f0d339380a4600190565b9060009180835260008051602061457083398151915280602052604084209260018060a01b03169283855260205260ff60408520541660001461436057818452602052604083208284526020526040832060ff1981541690557ff6391f5c32d9c69d2a47ea670b442974b53935d1edc7fd64eb21e047a839171b339380a4600190565b60ff600080516020614590833981519152541661448957565b60405163d93c066560e01b8152600490fd5b6000805160206145b083398151915260028154146144b95760029055565b604051633ee5aeb560e01b8152600490fd5b60ff7ff0c57e16840df040f15088dc2f81fe391c3923bec73e23a9662efc9c229c6a005460401c16156144fa57565b604051631afcd79f60e31b8152600490fd5b90614533575080511561452157602081519101fd5b60405163d6bda27560e01b8152600490fd5b81511580614566575b614544575090565b604051639996b31560e01b81526001600160a01b039091166004820152602490fd5b50803b1561453c56fe02dd7bc7dec4dceedda775e58dd541e08a116c6c53815c0bd028192f7b626800cd5ed15c6e187e77e9aee88184c21f4f2182ab5827cb3b7e07fbedcd63f033009b779b17422d0df92223018b32b4d1fa46e071723d6817e2486d003becc55f00a164736f6c6343000816000a",
  "linkReferences": {},
  "deployedLinkReferences": {}
}