{
  "_format": "hh-sol-artifact-1",
  "contractName": "OfferManager",
  "sourceName": "contracts/modules/OfferManager.sol",
  "abi": [
    {
      "inputs": [],
      "name": "AccessControlBadConfirmation",
      "type": "error"
    },
    {
      "inputs": [
        {
          "internalType": "address",
          "name": "account",
          "type": "address"
        },
        {
          "internalType": "bytes32",
          "name": "neededRole",
          "type": "bytes32"
        }
      ],
      "name": "AccessControlUnauthorizedAccount",
      "type": "error"
    },
    {
      "inputs": [],
      "name": "EnforcedPause",
      "type": "error"
    },
    {
      "inputs": [],
      "name": "ExpectedPause",
      "type": "error"
    },
    {
      "inputs": [],
      "name": "InvalidInitialization",
      "type": "error"
    },
    {
      "inputs": [],
      "name": "NotInitializing",
      "type": "error"
    },
    {
      "inputs": [],
      "name": "ReentrancyGuardReentrantCall",
      "type": "error"
    },
    {
      "inputs": [
        {
          "internalType": "address",
          "name": "token",
          "type": "address"
        }
      ],
      "name": "SafeERC20FailedOperation",
      "type": "error"
    },
    {
      "anonymous": false,
      "inputs": [
        {
          "indexed": false,
          "internalType": "uint64",
          "name": "version",
          "type": "uint64"
        }
      ],
      "name": "Initialized",
      "type": "event"
    },
    {
      "anonymous": false,
      "inputs": [
        {
          "indexed": true,
          "internalType": "uint256",
          "name": "offerId",
          "type": "uint256"
        },
        {
          "indexed": true,
          "internalType": "uint256",
          "name": "listingId",
          "type": "uint256"
        },
        {
          "indexed": true,
          "internalType": "address",
          "name": "seller",
          "type": "address"
        },
        {
          "indexed": false,
          "internalType": "address",
          "name": "offerer",
          "type": "address"
        },
        {
          "indexed": false,
          "internalType": "uint256",
          "name": "amount",
          "type": "uint256"
        }
      ],
      "name": "OfferAccepted",
      "type": "event"
    },
    {
      "anonymous": false,
      "inputs": [
        {
          "indexed": true,
          "internalType": "uint256",
          "name": "offerId",
          "type": "uint256"
        },
        {
          "indexed": true,
          "internalType": "address",
          "name": "offerer",
          "type": "address"
        }
      ],
      "name": "OfferCancelled",
      "type": "event"
    },
    {
      "anonymous": false,
      "inputs": [
        {
          "indexed": true,
          "internalType": "uint256",
          "name": "offerId",
          "type": "uint256"
        }
      ],
      "name": "OfferExpired",
      "type": "event"
    },
    {
      "anonymous": false,
      "inputs": [
        {
          "indexed": true,
          "internalType": "uint256",
          "name": "offerId",
          "type": "uint256"
        },
        {
          "indexed": true,
          "internalType": "uint256",
          "name": "listingId",
          "type": "uint256"
        },
        {
          "indexed": true,
          "internalType": "address",
          "name": "offerer",
          "type": "address"
        },
        {
          "indexed": false,
          "internalType": "uint256",
          "name": "amount",
          "type": "uint256"
        },
        {
          "indexed": false,
          "internalType": "address",
          "name": "paymentToken",
          "type": "address"
        },
        {
          "indexed": false,
          "internalType": "uint256",
          "name": "expiration",
          "type": "uint256"
        }
      ],
      "name": "OfferMade",
      "type": "event"
    },
    {
      "anonymous": false,
      "inputs": [
        {
          "indexed": false,
          "internalType": "address",
          "name": "account",
          "type": "address"
        }
      ],
      "name": "Paused",
      "type": "event"
    },
    {
      "anonymous": false,
      "inputs": [
        {
          "indexed": true,
          "internalType": "bytes32",
          "name": "role",
          "type": "bytes32"
        },
        {
          "indexed": true,
          "internalType": "bytes32",
          "name": "previousAdminRole",
          "type": "bytes32"
        },
        {
          "indexed": true,
          "internalType": "bytes32",
          "name": "newAdminRole",
          "type": "bytes32"
        }
      ],
      "name": "RoleAdminChanged",
      "type": "event"
    },
    {
      "anonymous": false,
      "inputs": [
        {
          "indexed": true,
          "internalType": "bytes32",
          "name": "role",
          "type": "bytes32"
        },
        {
          "indexed": true,
          "internalType": "address",
          "name": "account",
          "type": "address"
        },
        {
          "indexed": true,
          "internalType": "address",
          "name": "sender",
          "type": "address"
        }
      ],
      "name": "RoleGranted",
      "type": "event"
    },
    {
      "anonymous": false,
      "inputs": [
        {
          "indexed": true,
          "internalType": "bytes32",
          "name": "role",
          "type": "bytes32"
        },
        {
          "indexed": true,
          "internalType": "address",
          "name": "account",
          "type": "address"
        },
        {
          "indexed": true,
          "internalType": "address",
          "name": "sender",
          "type": "address"
        }
      ],
      "name": "RoleRevoked",
      "type": "event"
    },
    {
      "anonymous": false,
      "inputs": [
        {
          "indexed": false,
          "internalType": "address",
          "name": "account",
          "type": "address"
        }
      ],
      "name": "Unpaused",
      "type": "event"
    },
    {
      "inputs": [],
      "name": "DEFAULT_ADMIN_ROLE",
      "outputs": [
        {
          "internalType": "bytes32",
          "name": "",
          "type": "bytes32"
        }
      ],
      "stateMutability": "view",
      "type": "function"
    },
    {
      "inputs": [],
      "name": "OFFER_ADMIN_ROLE",
      "outputs": [
        {
          "internalType": "bytes32",
          "name": "",
          "type": "bytes32"
        }
      ],
      "stateMutability": "view",
      "type": "function"
    },
    {
      "inputs": [],
      "name": "UPGRADER_ROLE",
      "outputs": [
        {
          "internalType": "bytes32",
          "name": "",
          "type": "bytes32"
        }
      ],
      "stateMutability": "view",
      "type": "function"
    },
    {
      "inputs": [
        {
          "internalType": "uint256",
          "name": "offerId",
          "type": "uint256"
        }
      ],
      "name": "acceptOffer",
      "outputs": [],
      "stateMutability": "nonpayable",
      "type": "function"
    },
    {
      "inputs": [
        {
          "internalType": "uint256",
          "name": "offerId",
          "type": "uint256"
        }
      ],
      "name": "cancelOffer",
      "outputs": [],
      "stateMutability": "nonpayable",
      "type": "function"
    },
    {
      "inputs": [
        {
          "internalType": "uint256[]",
          "name": "offerIds",
          "type": "uint256[]"
        }
      ],
      "name": "cleanupExpiredOffers",
      "outputs": [],
      "stateMutability": "nonpayable",
      "type": "function"
    },
    {
      "inputs": [
        {
          "internalType": "uint256",
          "name": "offerId",
          "type": "uint256"
        }
      ],
      "name": "getOffer",
      "outputs": [
        {
          "components": [
            {
              "internalType": "uint256",
              "name": "offerId",
              "type": "uint256"
            },
            {
              "internalType": "uint256",
              "name": "listingId",
              "type": "uint256"
            },
            {
              "internalType": "address",
              "name": "offerer",
              "type": "address"
            },
            {
              "internalType": "uint256",
              "name": "amount",
              "type": "uint256"
            },
            {
              "internalType": "address",
              "name": "paymentToken",
              "type": "address"
            },
            {
              "internalType": "uint256",
              "name": "expiration",
              "type": "uint256"
            },
            {
              "internalType": "bool",
              "name": "isActive",
              "type": "bool"
            }
          ],
          "internalType": "struct IOfferManager.Offer",
          "name": "",
          "type": "tuple"
        }
      ],
      "stateMutability": "view",
      "type": "function"
    },
    {
      "inputs": [
        {
          "internalType": "uint256",
          "name": "listingId",
          "type": "uint256"
        }
      ],
      "name": "getOffersForListing",
      "outputs": [
        {
          "internalType": "uint256[]",
          "name": "",
          "type": "uint256[]"
        }
      ],
      "stateMutability": "view",
      "type": "function"
    },
    {
      "inputs": [
        {
          "internalType": "bytes32",
          "name": "role",
          "type": "bytes32"
        }
      ],
      "name": "getRoleAdmin",
      "outputs": [
        {
          "internalType": "bytes32",
          "name": "",
          "type": "bytes32"
        }
      ],
      "stateMutability": "view",
      "type": "function"
    },
    {
      "inputs": [
        {
          "internalType": "address",
          "name": "user",
          "type": "address"
        }
      ],
      "name": "getUserOffers",
      "outputs": [
        {
          "internalType": "uint256[]",
          "name": "",
          "type": "uint256[]"
        }
      ],
      "stateMutability": "view",
      "type": "function"
    },
    {
      "inputs": [
        {
          "internalType": "bytes32",
          "name": "role",
          "type": "bytes32"
        },
        {
          "internalType": "address",
          "name": "account",
          "type": "address"
        }
      ],
      "name": "grantRole",
      "outputs": [],
      "stateMutability": "nonpayable",
      "type": "function"
    },
    {
      "inputs": [
        {
          "internalType": "bytes32",
          "name": "role",
          "type": "bytes32"
        },
        {
          "internalType": "address",
          "name": "account",
          "type": "address"
        }
      ],
      "name": "hasRole",
      "outputs": [
        {
          "internalType": "bool",
          "name": "",
          "type": "bool"
        }
      ],
      "stateMutability": "view",
      "type": "function"
    },
    {
      "inputs": [
        {
          "internalType": "address",
          "name": "admin",
          "type": "address"
        },
        {
          "internalType": "address",
          "name": "_marketplaceCore",
          "type": "address"
        },
        {
          "internalType": "uint256",
          "name": "_maxOfferDuration",
          "type": "uint256"
        }
      ],
      "name": "initialize",
      "outputs": [],
      "stateMutability": "nonpayable",
      "type": "function"
    },
    {
      "inputs": [
        {
          "internalType": "uint256",
          "name": "",
          "type": "uint256"
        },
        {
          "internalType": "uint256",
          "name": "",
          "type": "uint256"
        }
      ],
      "name": "listingOffers",
      "outputs": [
        {
          "internalType": "uint256",
          "name": "",
          "type": "uint256"
        }
      ],
      "stateMutability": "view",
      "type": "function"
    },
    {
      "inputs": [
        {
          "internalType": "uint256",
          "name": "listingId",
          "type": "uint256"
        },
        {
          "internalType": "uint256",
          "name": "amount",
          "type": "uint256"
        },
        {
          "internalType": "address",
          "name": "paymentToken",
          "type": "address"
        },
        {
          "internalType": "uint256",
          "name": "duration",
          "type": "uint256"
        }
      ],
      "name": "makeOffer",
      "outputs": [
        {
          "internalType": "uint256",
          "name": "offerId",
          "type": "uint256"
        }
      ],
      "stateMutability": "payable",
      "type": "function"
    },
    {
      "inputs": [],
      "name": "marketplaceCore",
      "outputs": [
        {
          "internalType": "contract IMarketplaceCore",
          "name": "",
          "type": "address"
        }
      ],
      "stateMutability": "view",
      "type": "function"
    },
    {
      "inputs": [],
      "name": "maxOfferDuration",
      "outputs": [
        {
          "internalType": "uint256",
          "name": "",
          "type": "uint256"
        }
      ],
      "stateMutability": "view",
      "type": "function"
    },
    {
      "inputs": [],
      "name": "nextOfferId",
      "outputs": [
        {
          "internalType": "uint256",
          "name": "",
          "type": "uint256"
        }
      ],
      "stateMutability": "view",
      "type": "function"
    },
    {
      "inputs": [
        {
          "internalType": "uint256",
          "name": "",
          "type": "uint256"
        }
      ],
      "name": "offers",
      "outputs": [
        {
          "internalType": "uint256",
          "name": "offerId",
          "type": "uint256"
        },
        {
          "internalType": "uint256",
          "name": "listingId",
          "type": "uint256"
        },
        {
          "internalType": "address",
          "name": "offerer",
          "type": "address"
        },
        {
          "internalType": "uint256",
          "name": "amount",
          "type": "uint256"
        },
        {
          "internalType": "address",
          "name": "paymentToken",
          "type": "address"
        },
        {
          "internalType": "uint256",
          "name": "expiration",
          "type": "uint256"
        },
        {
          "internalType": "bool",
          "name": "isActive",
          "type": "bool"
        }
      ],
      "stateMutability": "view",
      "type": "function"
    },
    {
      "inputs": [],
      "name": "paused",
      "outputs": [
        {
          "internalType": "bool",
          "name": "",
          "type": "bool"
        }
      ],
      "stateMutability": "view",
      "type": "function"
    },
    {
      "inputs": [
        {
          "internalType": "bytes32",
          "name": "role",
          "type": "bytes32"
        },
        {
          "internalType": "address",
          "name": "callerConfirmation",
          "type": "address"
        }
      ],
      "name": "renounceRole",
      "outputs": [],
      "stateMutability": "nonpayable",
      "type": "function"
    },
    {
      "inputs": [
        {
          "internalType": "bytes32",
          "name": "role",
          "type": "bytes32"
        },
        {
          "internalType": "address",
          "name": "account",
          "type": "address"
        }
      ],
      "name": "revokeRole",
      "outputs": [],
      "stateMutability": "nonpayable",
      "type": "function"
    },
    {
      "inputs": [
        {
          "internalType": "uint256",
          "name": "newMaxDuration",
          "type": "uint256"
        }
      ],
      "name": "setMaxOfferDuration",
      "outputs": [],
      "stateMutability": "nonpayable",
      "type": "function"
    },
    {
      "inputs": [
        {
          "internalType": "bytes4",
          "name": "interfaceId",
          "type": "bytes4"
        }
      ],
      "name": "supportsInterface",
      "outputs": [
        {
          "internalType": "bool",
          "name": "",
          "type": "bool"
        }
      ],
      "stateMutability": "view",
      "type": "function"
    },
    {
      "inputs": [
        {
          "internalType": "address",
          "name": "",
          "type": "address"
        },
        {
          "internalType": "uint256",
          "name": "",
          "type": "uint256"
        }
      ],
      "name": "userOffers",
      "outputs": [
        {
          "internalType": "uint256",
          "name": "",
          "type": "uint256"
        }
      ],
      "stateMutability": "view",
      "type": "function"
    }
  ],
  "bytecode": "0x6080806040523461001657611a30908161001c8239f35b600080fdfe608060408181526004918236101561001657600080fd5b600092833560e01c91826301ffc9a7146110da575081631794bb3c14610f4657816320e33db814610f0057816323babefa14610dc9578163248a9ca314610d91578163287b19ed14610d695781632f2ff15d14610d3f57816336568abe14610cf95781634158ce0b1461091c5781634579268a146108305781635c975abb146107ed5781635f5d0655146107cf578163661d2c2c146107575781638a72ea6a146106e057816391d148541461068c578163a217fddf14610671578163bd27defe14610636578163bd5fec65146105dd578163c815729d14610409578163d547741f146103bc578163da1a200e1461039d578163ec636aa614610322578163ef706adf14610209578163f28199c314610175575063f72c0d8b1461013857600080fd5b34610171578160031936011261017157602090517f189ab7a9244df0848122154315af71fe140f3db0fe014031783b0946b8c9d2e38152f35b5080fd5b905034610205576020366003190112610205578035917f51fcffda4faa5e5c480c1f008e0ef403cf7eb6240d28a914647cc176f3dccb4d908185526000805160206119e483398151915260205280852033865260205260ff8186205416156101e9575050506101e38161179b565b60055580f35b60449350519163e2517d3f60e01b835233908301526024820152fd5b8280fd5b9050346102055760203660031901126102055780359161022761176b565b82845260016020528084206002810180546001600160a01b039491939085169291903384036102ed5750849060068301805461026560ff8216611351565b60ff191690558201541691826102c6575061028a9150600384845416910154906115ba565b5416907f1f51377b3e685a0e2419f9bb4ba7c07ec54936353ba3d0fb3c6538dab67662228380a36001600080516020611a048339815191525580f35b906003015490816102da575b50505061028a565b6102e59230906118c0565b3880806102d2565b906020606492519162461bcd60e51b8352820152600f60248201526e2737ba1037b33332b91037bbb732b960891b6044820152fd5b9190503461020557602091602060031936011261039957358352600260205280832092815180936020865492838152019583526020832092905b8282106103825761037e8686610374828b03836111fa565b519182918261118c565b0390f35b83548752958601956001938401939091019061035c565b8380fd5b5050346101715781600319360112610171576020906005549051908152f35b91905034610205578060031936011261020557610405913561040060016103e1611148565b938387526000805160206119e483398151915260205286200154611697565b6116e8565b5080f35b90503461020557602036600319011261020557803561042661176b565b8084526001602052828420926006840180549061044560ff8316611351565b60058601544210156105aa5760018060a01b039182885416956001880154968551809163083d13a560e11b825289848301528160246101c09485935afa9182156105a0578b92610573575b505084602082015116330361053c5760e0015190808210156105295750927f537afea1137614386dde2e3f3f603a09e8ba6fbcd0a9d59b286a6f7e5fc9384894926003926104e16105119615611390565b60ff1916905560028801549190970154915196166001600160a01b03168652602086015233949081906040820190565b0390a46001600080516020611a048339815191525580f35b634e487b7160e01b8a5260219052602489fd5b855162461bcd60e51b815260208184015260116024820152702737ba103634b9ba34b7339037bbb732b960791b6044820152606490fd5b6105929250803d10610599575b61058a81836111fa565b810190611230565b3880610490565b503d610580565b87513d8d823e3d90fd5b825162461bcd60e51b8152602081870152600d60248201526c13d999995c88195e1c1a5c9959609a1b6044820152606490fd5b5050346101715780600319360112610171576105f761112d565b6001600160a01b0316825260036020528082208054602435939084101561063357506020926106259161115e565b90549060031b1c9051908152f35b80fd5b505034610171578160031936011261017157602090517f51fcffda4faa5e5c480c1f008e0ef403cf7eb6240d28a914647cc176f3dccb4d8152f35b50503461017157816003193601126101715751908152602090f35b9050346102055781600319360112610205578160209360ff926106ad611148565b903582526000805160206119e483398151915286528282206001600160a01b039091168252855220549151911615158152f35b905034610205576020366003190112610205578160e0938235815260016020522080549260018201549260018060a01b038060028501541690600385015492850154169260ff600660058701549601541695815197885260208801528601526060850152608084015260a0830152151560c0820152f35b505034610171576020906020600319360112610205576001600160a01b0361077d61112d565b168352600360205280832092815180936020865492838152019583526020832092905b8282106107b85761037e8686610374828b03836111fa565b8354875295860195600193840193909101906107a0565b90503461020557826003193601126102055760209250549051908152f35b50503461017157816003193601126101715760209060ff7fcd5ed15c6e187e77e9aee88184c21f4f2182ab5827cb3b7e07fbedcd63f03300541690519015158152f35b9190503461020557602036600319011261020557808360e09460c08351610856816111c8565b82815282602082015282858201528260608201528260808201528260a082015201528335815260016020522081519161088e836111c8565b8154938484526001830154906020850191825260018060a01b039283806002870154168288019081528160038801549460608a0195865288015416946080890195865260c060ff600660058b01549a60a08d019b8c52015416990198151589528351998a525160208a0152511690870152516060860152511660808401525160a083015251151560c0820152f35b91905060803660031901126102055760249182356001600160a01b0360443581811690819003610cf5576064359160ff7fcd5ed15c6e187e77e9aee88184c21f4f2182ab5827cb3b7e07fbedcd63f033005416610ce55761097b61176b565b808854168651809163083d13a560e11b8252873588830152818a6101c09485935afa918215610cdb578a92610cbe575b505060e081015186811015610cac57906109c760c09215611390565b01516003811015610c9a57600114610c58576109e28461179b565b600554610e108410159081610c4d575b5015610bff5781610b9d57833403610b50575b8454966000198814610b3f576001880186558342014211610b3f57508686602099610aef9360068351610a37816111c8565b858152888a8f8d9084019581358752888501913383526060860193845260808601938d855260a08701954201865260c087019860018a528c8b526020600190528b8b20975188555160018801558260028801945116936bffffffffffffffffffffffff60a01b9485825416179055516003870155850192511690825416179055516005820155019051151560ff801983541691161790558735815260028b52610ae283838320611317565b33815260038b5220611317565b845192835286830152420183820152837f0db40b7594c298d275253ebec4d6a3e8a08b7fdd40b815b65cf6879b0ceb99aa606033943593a46001600080516020611a048339815191525551908152f35b634e487b7160e01b89526011865288fd5b855162461bcd60e51b81526020818701526022818901527f5061796d656e745574696c733a20696e636f72726563742045544820616d6f756044820152611b9d60f21b6064820152608490fd5b34610bb357610bae843033856118c0565b610a05565b855162461bcd60e51b81526020818701526021818901527f5061796d656e745574696c733a20756e6578706563746564204554482073656e6044820152601d60fa1b6064820152608490fd5b855162461bcd60e51b81526020818701526023818901527f56616c69646174696f6e5574696c733a2076616c7565206f7574206f662072616044820152626e676560e81b6064820152608490fd5b9050831115386109f2565b855162461bcd60e51b81526020818701526017818901527f43616e6e6f74206f66666572206f6e2061756374696f6e0000000000000000006044820152606490fd5b634e487b7160e01b8952602186528789fd5b634e487b7160e01b8a5260218752888afd5b610cd49250803d106105995761058a81836111fa565b38806109ab565b88513d8c823e3d90fd5b855163d93c066560e01b81528590fd5b8680fd5b838334610171578060031936011261017157610d13611148565b90336001600160a01b03831603610d3057506104059192356116e8565b5163334bd91960e11b81528390fd5b919050346102055780600319360112610205576104059135610d6460016103e1611148565b611533565b505034610171578160031936011261017157905490516001600160a01b039091168152602090f35b90503461020557602036600319011261020557816020936001923581526000805160206119e483398151915285522001549051908152f35b9050346102055760209060206003193601126103995780359067ffffffffffffffff93848311610efc5736602384011215610efc5782820135948511610efc5760246005933660248860051b83010111610ef857875b878110610e2a578880f35b8083600192881b84010135808b52828952858b2060068101805460ff811680610eeb575b610e5d575b5050505001610e1f565b60ff19169055838060a01b03908189820154168015600014610ebc57506003610e8f92600283015416910154906115ba565b7f48e57f5f7de6743b5c1c749447ff980262d36d0ad5142c942523d48dc821a1718b80a238808080610e53565b916003906002830154169101549081610ed8575b505050610e8f565b610ee39230906118c0565b388080610ed0565b508a830154421015610e4e565b8780fd5b8580fd5b8284346106335781600319360112610633576024359235815260026020528181209081548410156106335750602092610f389161115e565b91905490519160031b1c8152f35b90503461020557606036600319011261020557610f6161112d565b610f69611148565b917ff0c57e16840df040f15088dc2f81fe391c3923bec73e23a9662efc9c229c6a009283549260ff84871c16159367ffffffffffffffff8116801590816110d2575b60011490816110c8575b1590816110bf575b506110af57600193929161102291868667ffffffffffffffff198316178955611090575b50610fea6117e7565b610ff26117e7565b610ffa6117e7565b6110026117e7565b84600080516020611a048339815191525561101c816113d1565b50611471565b50828060a01b03166bffffffffffffffffffffffff60a01b8754161786556044356005555561104f578280f35b805468ff00000000000000001916905551600181527fc7f505b2f371ae2175ee4913f4499e1f2633a7b5936321eed1cdaeb6115181d290602090a138808280f35b68ffffffffffffffffff19166801000000000000000117875538610fe1565b865163f92ee8a960e01b81528490fd5b90501538610fbd565b303b159150610fb5565b869150610fab565b849134610205576020366003190112610205573563ffffffff60e01b81168091036102055760209250637965db0b60e01b811490811561111c575b5015158152f35b6301ffc9a760e01b14905083611115565b600435906001600160a01b038216820361114357565b600080fd5b602435906001600160a01b038216820361114357565b80548210156111765760005260206000200190600090565b634e487b7160e01b600052603260045260246000fd5b602090602060408183019282815285518094520193019160005b8281106111b4575050505090565b8351855293810193928101926001016111a6565b60e0810190811067ffffffffffffffff8211176111e457604052565b634e487b7160e01b600052604160045260246000fd5b90601f8019910116810190811067ffffffffffffffff8211176111e457604052565b51906001600160a01b038216820361114357565b80916101c092839103126111435760405191820182811067ffffffffffffffff8211176111e4576040528051825261126a6020820161121c565b602083015261127b6040820161121c565b604083015260608101516060830152608081015160808301526112a060a0820161121c565b60a083015260c081015160038110156111435760c083015260e081015160048110156111435760e0830152610100808201519083015261012080820151908301526101406112ef81830161121c565b90830152610160808201519083015261018080820151908301526101a0809101519082015290565b8054680100000000000000008110156111e4576113399160018201815561115e565b819291549060031b91821b91600019901b1916179055565b1561135857565b60405162461bcd60e51b815260206004820152601060248201526f4f66666572206e6f742061637469766560801b6044820152606490fd5b1561139757565b60405162461bcd60e51b81526020600482015260126024820152714c697374696e67206e6f742061637469766560701b6044820152606490fd5b6001600160a01b031660008181527fb7db2dd08fcb62d0c9e08c51941cae53c267786a0b75803fb7960902fc8ef97d60205260408120549091906000805160206119e48339815191529060ff1661146c578280526020526040822081835260205260408220600160ff1982541617905533917f2f8788117e7eff1d82e926ec794901d17c78024a50270940304540a733656f0d8180a4600190565b505090565b6001600160a01b031660008181527f5f8868f9c0799047ce47b350e7ff5396c09951e10801a27d53b962f9f92a769b60205260408120549091907f51fcffda4faa5e5c480c1f008e0ef403cf7eb6240d28a914647cc176f3dccb4d906000805160206119e48339815191529060ff1661152d578184526020526040832082845260205260408320600160ff198254161790557f2f8788117e7eff1d82e926ec794901d17c78024a50270940304540a733656f0d339380a4600190565b50505090565b906000918083526000805160206119e483398151915280602052604084209260018060a01b03169283855260205260ff6040852054161560001461152d578184526020526040832082845260205260408320600160ff198254161790557f2f8788117e7eff1d82e926ec794901d17c78024a50270940304540a733656f0d339380a4600190565b811515806115c757505050565b6115d090611828565b6001600160a01b03166115e4811515611874565b60008080809481945af1903d15611691573d9067ffffffffffffffff821161167d576040519161161e601f8201601f1916602001846111fa565b825260203d92013e5b1561162e57565b60405162461bcd60e51b815260206004820152602160248201527f5061796d656e745574696c733a20455448207472616e73666572206661696c656044820152601960fa1b6064820152608490fd5b634e487b7160e01b81526041600452602490fd5b50611627565b806000526000805160206119e483398151915260205260406000203360005260205260ff60406000205416156116ca5750565b6044906040519063e2517d3f60e01b82523360048301526024820152fd5b906000918083526000805160206119e483398151915280602052604084209260018060a01b03169283855260205260ff60408520541660001461152d57818452602052604083208284526020526040832060ff1981541690557ff6391f5c32d9c69d2a47ea670b442974b53935d1edc7fd64eb21e047a839171b339380a4600190565b600080516020611a0483398151915260028154146117895760029055565b604051633ee5aeb560e01b8152600490fd5b156117a257565b60405162461bcd60e51b815260206004820152601c60248201527f56616c69646174696f6e5574696c733a207a65726f20616d6f756e74000000006044820152606490fd5b60ff7ff0c57e16840df040f15088dc2f81fe391c3923bec73e23a9662efc9c229c6a005460401c161561181657565b604051631afcd79f60e31b8152600490fd5b1561182f57565b60405162461bcd60e51b815260206004820152601960248201527f5061796d656e745574696c733a207a65726f20616d6f756e74000000000000006044820152606490fd5b1561187b57565b60405162461bcd60e51b815260206004820152601c60248201527f5061796d656e745574696c733a207a65726f20726563697069656e74000000006044820152606490fd5b9291906118ce831515611828565b6001600160a01b03828116916118e5831515611874565b169030820361193357505060405163a9059cbb60e01b60208201526001600160a01b039190911660248201526044808201929092529081526119319161192c6064836111fa565b61197b565b565b90929150604051926323b872dd60e01b60208501526024840152604483015260648201526064815260a081019181831067ffffffffffffffff8411176111e457611931926040525b906000602091828151910182855af1156119d7576000513d6119ce57506001600160a01b0381163b155b6119ac5750565b604051635274afe760e01b81526001600160a01b039091166004820152602490fd5b600114156119a5565b6040513d6000823e3d90fdfe02dd7bc7dec4dceedda775e58dd541e08a116c6c53815c0bd028192f7b6268009b779b17422d0df92223018b32b4d1fa46e071723d6817e2486d003becc55f00a164736f6c6343000816000a",
  "linkReferences": {},
  "deployedLinkReferences": {}
}