{
  "_format": "hh-sol-artifact-1",
  "contractName": "CommunityRewards",
  "sourceName": "contracts/CommunityRewards.sol",
  "abi": [
    {
      "inputs": [
        {
          "internalType": "address",
          "name": "_rewardTokenAddress",
          "type": "address"
        },
        {
          "internalType": "address",
          "name": "_vestingWalletFactoryAddress",
          "type": "address"
        }
      ],
      "stateMutability": "nonpayable",
      "type": "constructor"
    },
    {
      "inputs": [],
      "name": "AccessControlBadConfirmation",
      "type": "error"
    },
    {
      "inputs": [
        {
          "internalType": "address",
          "name": "account",
          "type": "address"
        },
        {
          "internalType": "bytes32",
          "name": "neededRole",
          "type": "bytes32"
        }
      ],
      "name": "AccessControlUnauthorizedAccount",
      "type": "error"
    },
    {
      "inputs": [
        {
          "internalType": "uint256",
          "name": "required",
          "type": "uint256"
        },
        {
          "internalType": "uint256",
          "name": "available",
          "type": "uint256"
        }
      ],
      "name": "InsufficientFunds",
      "type": "error"
    },
    {
      "inputs": [],
      "name": "ReentrancyGuardReentrantCall",
      "type": "error"
    },
    {
      "inputs": [],
      "name": "ZeroAddressBeneficiary",
      "type": "error"
    },
    {
      "inputs": [],
      "name": "ZeroAmount",
      "type": "error"
    },
    {
      "inputs": [],
      "name": "ZeroDuration",
      "type": "error"
    },
    {
      "anonymous": false,
      "inputs": [
        {
          "indexed": true,
          "internalType": "address",
          "name": "depositor",
          "type": "address"
        },
        {
          "indexed": false,
          "internalType": "uint256",
          "name": "amount",
          "type": "uint256"
        }
      ],
      "name": "RewardsDeposited",
      "type": "event"
    },
    {
      "anonymous": false,
      "inputs": [
        {
          "indexed": true,
          "internalType": "bytes32",
          "name": "role",
          "type": "bytes32"
        },
        {
          "indexed": true,
          "internalType": "bytes32",
          "name": "previousAdminRole",
          "type": "bytes32"
        },
        {
          "indexed": true,
          "internalType": "bytes32",
          "name": "newAdminRole",
          "type": "bytes32"
        }
      ],
      "name": "RoleAdminChanged",
      "type": "event"
    },
    {
      "anonymous": false,
      "inputs": [
        {
          "indexed": true,
          "internalType": "bytes32",
          "name": "role",
          "type": "bytes32"
        },
        {
          "indexed": true,
          "internalType": "address",
          "name": "account",
          "type": "address"
        },
        {
          "indexed": true,
          "internalType": "address",
          "name": "sender",
          "type": "address"
        }
      ],
      "name": "RoleGranted",
      "type": "event"
    },
    {
      "anonymous": false,
      "inputs": [
        {
          "indexed": true,
          "internalType": "bytes32",
          "name": "role",
          "type": "bytes32"
        },
        {
          "indexed": true,
          "internalType": "address",
          "name": "account",
          "type": "address"
        },
        {
          "indexed": true,
          "internalType": "address",
          "name": "sender",
          "type": "address"
        }
      ],
      "name": "RoleRevoked",
      "type": "event"
    },
    {
      "anonymous": false,
      "inputs": [
        {
          "indexed": true,
          "internalType": "address",
          "name": "beneficiary",
          "type": "address"
        },
        {
          "indexed": false,
          "internalType": "uint256",
          "name": "amount",
          "type": "uint256"
        },
        {
          "indexed": false,
          "internalType": "uint256",
          "name": "duration",
          "type": "uint256"
        },
        {
          "indexed": false,
          "internalType": "address",
          "name": "vestingWalletAddress",
          "type": "address"
        }
      ],
      "name": "VestedRewardsDistributed",
      "type": "event"
    },
    {
      "inputs": [],
      "name": "DEFAULT_ADMIN_ROLE",
      "outputs": [
        {
          "internalType": "bytes32",
          "name": "",
          "type": "bytes32"
        }
      ],
      "stateMutability": "view",
      "type": "function"
    },
    {
      "inputs": [],
      "name": "REWARD_DEPOSITOR_ROLE",
      "outputs": [
        {
          "internalType": "bytes32",
          "name": "",
          "type": "bytes32"
        }
      ],
      "stateMutability": "view",
      "type": "function"
    },
    {
      "inputs": [],
      "name": "REWARD_DISTRIBUTOR_ROLE",
      "outputs": [
        {
          "internalType": "bytes32",
          "name": "",
          "type": "bytes32"
        }
      ],
      "stateMutability": "view",
      "type": "function"
    },
    {
      "inputs": [
        {
          "internalType": "uint256",
          "name": "_amount",
          "type": "uint256"
        }
      ],
      "name": "depositRewards",
      "outputs": [],
      "stateMutability": "nonpayable",
      "type": "function"
    },
    {
      "inputs": [
        {
          "internalType": "address",
          "name": "_beneficiary",
          "type": "address"
        },
        {
          "internalType": "uint256",
          "name": "_amount",
          "type": "uint256"
        },
        {
          "internalType": "uint256",
          "name": "_duration",
          "type": "uint256"
        }
      ],
      "name": "distributeVestedRewards",
      "outputs": [],
      "stateMutability": "nonpayable",
      "type": "function"
    },
    {
      "inputs": [
        {
          "internalType": "bytes32",
          "name": "role",
          "type": "bytes32"
        }
      ],
      "name": "getRoleAdmin",
      "outputs": [
        {
          "internalType": "bytes32",
          "name": "",
          "type": "bytes32"
        }
      ],
      "stateMutability": "view",
      "type": "function"
    },
    {
      "inputs": [
        {
          "internalType": "bytes32",
          "name": "role",
          "type": "bytes32"
        },
        {
          "internalType": "address",
          "name": "account",
          "type": "address"
        }
      ],
      "name": "grantRole",
      "outputs": [],
      "stateMutability": "nonpayable",
      "type": "function"
    },
    {
      "inputs": [
        {
          "internalType": "bytes32",
          "name": "role",
          "type": "bytes32"
        },
        {
          "internalType": "address",
          "name": "account",
          "type": "address"
        }
      ],
      "name": "hasRole",
      "outputs": [
        {
          "internalType": "bool",
          "name": "",
          "type": "bool"
        }
      ],
      "stateMutability": "view",
      "type": "function"
    },
    {
      "inputs": [
        {
          "internalType": "bytes32",
          "name": "role",
          "type": "bytes32"
        },
        {
          "internalType": "address",
          "name": "callerConfirmation",
          "type": "address"
        }
      ],
      "name": "renounceRole",
      "outputs": [],
      "stateMutability": "nonpayable",
      "type": "function"
    },
    {
      "inputs": [
        {
          "internalType": "bytes32",
          "name": "role",
          "type": "bytes32"
        },
        {
          "internalType": "address",
          "name": "account",
          "type": "address"
        }
      ],
      "name": "revokeRole",
      "outputs": [],
      "stateMutability": "nonpayable",
      "type": "function"
    },
    {
      "inputs": [],
      "name": "rewardToken",
      "outputs": [
        {
          "internalType": "contract IERC20",
          "name": "",
          "type": "address"
        }
      ],
      "stateMutability": "view",
      "type": "function"
    },
    {
      "inputs": [
        {
          "internalType": "bytes4",
          "name": "interfaceId",
          "type": "bytes4"
        }
      ],
      "name": "supportsInterface",
      "outputs": [
        {
          "internalType": "bool",
          "name": "",
          "type": "bool"
        }
      ],
      "stateMutability": "view",
      "type": "function"
    },
    {
      "inputs": [],
      "name": "totalRewardsDistributed",
      "outputs": [
        {
          "internalType": "uint256",
          "name": "",
          "type": "uint256"
        }
      ],
      "stateMutability": "view",
      "type": "function"
    },
    {
      "inputs": [],
      "name": "vestingWalletFactory",
      "outputs": [
        {
          "internalType": "contract VestingWalletFactory",
          "name": "",
          "type": "address"
        }
      ],
      "stateMutability": "view",
      "type": "function"
    }
  ],
  "bytecode": "0x6080346100a557601f610bef38819003918201601f19168301916001600160401b038311848410176100aa5780849260409485528339810103126100a557610052602061004b836100c0565b92016100c0565b6001805561005f336100d4565b5061006933610152565b50600280546001600160a01b039384166001600160a01b031991821617909155600380549290931691161790556040516109dc90816101f38239f35b600080fd5b634e487b7160e01b600052604160045260246000fd5b51906001600160a01b03821682036100a557565b6001600160a01b031660008181527fad3228b676f7d3cd4284a5443f17f1962b36e491b30a40b2405849e597ba5fb5602052604081205490919060ff1661014e57818052816020526040822081835260205260408220600160ff198254161790553391600080516020610bcf8339815191528180a4600190565b5090565b6001600160a01b031660008181527f9e607de338c7d6508550727646d2998939f27517879a7dd916362b3520e3948760205260408120549091907fb814ff4a26ea3ec5cd1fa579daad86324826254265f3acfec78303a19845b4499060ff166101ed57808352826020526040832082845260205260408320600160ff19825416179055600080516020610bcf833981519152339380a4600190565b50509056fe608060408181526004918236101561001657600080fd5b600092833560e01c91826301ffc9a7146107da57508163248a9ca3146107b05781632f2ff15d1461078657816332e4bb0a1461074b57816336568abe1461070557816341229081146106dc5781638bdf67f21461057a5781638d77ca571461053f57816391d14854146104f9578163a217fddf146104de578163a5d37e4f1461014b578163d547741f1461010c578163ee172546146100ea575063f7c618c1146100bf57600080fd5b346100e657816003193601126100e65760025490516001600160a01b039091168152602090f35b5080fd5b90503461010857826003193601126101085760209250549051908152f35b8280fd5b919050346101085780600319360112610108576101479135610142600161013161082d565b938387528660205286200154610898565b61095a565b5080f35b905034610108576060366003190112610108576001600160a01b039181358381169291908390036104da576024918235926044908135927fb814ff4a26ea3ec5cd1fa579daad86324826254265f3acfec78303a19845b44992838a526020938a8552868b20338c52855260ff878c205416156104c157506002600154146104b257600260015587156104a357861561049457841561048557886002541686516370a0823160e01b90818152308582015286818781865afa908d821561047a57908b92610445575b50106103c6575050898960035416998567ffffffffffffffff89519c8d91631fb37f9b60e11b83528d88840152804216898401528a168683015281855a92606493f180156103bc57899a9b8391610380575b50908387928260025416948b51958694859363a9059cbb60e01b8552169d8e8a8501528a8401525af1908115610376578b91610349575b50156102fa57508054918783018093116102e957505582519485528401528201527f61215439467ac4742e8fcad5f5d9acc216dae04391b591649dbebdb4e67aaca990606090a26001805580f35b634e487b7160e01b8a526011825289fd5b60277f546f6b656e207472616e7366657220746f2076657374696e672077616c6c6574929360849588519562461bcd60e51b8752860152840152820152660819985a5b195960ca1b6064820152fd5b6103699150853d871161036f575b6103618183610848565b810190610880565b3861029b565b503d610357565b87513d8d823e3d90fd5b80929a50878092503d83116103b5575b61039a8183610848565b810103126100e6575188811681036100e65789989083610264565b503d610390565b88513d84823e3d90fd5b88939650858c91868a959a51809581938252308c8301525afa958615610439578196610403575b505050519362fae2d560e21b8552840152820152fd5b909180939650813d8311610432575b61041c8183610848565b8101031261042f575051928680806103ed565b80fd5b503d610412565b508251903d90823e3d90fd5b809250888092503d8311610473575b61045e8183610848565b8101031261046f5789905138610212565b8c80fd5b503d610454565b8a51903d90823e3d90fd5b50845163346ab43760e11b8152fd5b508451631f2a200560e01b8152fd5b508451638ebde67560e01b8152fd5b508451633ee5aeb560e01b8152fd5b909286519263e2517d3f60e01b84523390840152820152fd5b8480fd5b5050346100e657816003193601126100e65751908152602090f35b9050346101085781600319360112610108578160209360ff9261051a61082d565b903582528186528282206001600160a01b039091168252855220549151911615158152f35b5050346100e657816003193601126100e657602090517f2b3b34d8f2cbfb9866f3463c0bc43f6d821c949e95f5ca06701a7756b45ebc8e8152f35b9190503461010857602090816003193601126106d8578235927f2b3b34d8f2cbfb9866f3463c0bc43f6d821c949e95f5ca06701a7756b45ebc8e808652858452828620338752845260ff8387205416156106bd575083156106af5760025482516323b872dd60e01b8152338382015230602482015260448101869052908490829060649082908a906001600160a01b03165af19081156106a5578691610688575b501561064f5750907fb8b27d0db504fa5d914f1fd330347096e88d5ff94b6c612d32797e7c12a8f66f91519283523392a280f35b82606492519162461bcd60e51b83528201526015602482015274151bdad95b881d1c985b9cd9995c8819985a5b1959605a1b6044820152fd5b61069f9150843d861161036f576103618183610848565b3861061b565b83513d88823e3d90fd5b9051631f2a200560e01b8152fd5b604492519163e2517d3f60e01b835233908301526024820152fd5b8380fd5b5050346100e657816003193601126100e65760035490516001600160a01b039091168152602090f35b8383346100e657806003193601126100e65761071f61082d565b90336001600160a01b0383160361073c575061014791923561095a565b5163334bd91960e11b81528390fd5b5050346100e657816003193601126100e657602090517fb814ff4a26ea3ec5cd1fa579daad86324826254265f3acfec78303a19845b4498152f35b9190503461010857806003193601126101085761014791356107ab600161013161082d565b6108dc565b90503461010857602036600319011261010857816020936001923581528085522001549051908152f35b849134610108576020366003190112610108573563ffffffff60e01b81168091036101085760209250637965db0b60e01b811490811561081c575b5015158152f35b6301ffc9a760e01b14905083610815565b602435906001600160a01b038216820361084357565b600080fd5b90601f8019910116810190811067ffffffffffffffff82111761086a57604052565b634e487b7160e01b600052604160045260246000fd5b90816020910312610843575180151581036108435790565b80600052600060205260406000203360005260205260ff60406000205416156108be5750565b6044906040519063e2517d3f60e01b82523360048301526024820152fd5b9060009180835282602052604083209160018060a01b03169182845260205260ff6040842054161560001461095557808352826020526040832082845260205260408320600160ff198254161790557f2f8788117e7eff1d82e926ec794901d17c78024a50270940304540a733656f0d339380a4600190565b505090565b9060009180835282602052604083209160018060a01b03169182845260205260ff6040842054166000146109555780835282602052604083208284526020526040832060ff1981541690557ff6391f5c32d9c69d2a47ea670b442974b53935d1edc7fd64eb21e047a839171b339380a460019056fea164736f6c6343000816000a2f8788117e7eff1d82e926ec794901d17c78024a50270940304540a733656f0d",
  "linkReferences": {},
  "deployedLinkReferences": {}
}