{
  "_format": "hh-sol-artifact-1",
  "contractName": "XPEngineOptimized",
  "sourceName": "contracts/optimized/XPEngineOptimized.sol",
  "abi": [
    {
      "inputs": [],
      "stateMutability": "nonpayable",
      "type": "constructor"
    },
    {
      "inputs": [],
      "name": "AccessControlBadConfirmation",
      "type": "error"
    },
    {
      "inputs": [
        {
          "internalType": "address",
          "name": "account",
          "type": "address"
        },
        {
          "internalType": "bytes32",
          "name": "neededRole",
          "type": "bytes32"
        }
      ],
      "name": "AccessControlUnauthorizedAccount",
      "type": "error"
    },
    {
      "inputs": [],
      "name": "ArrayLengthMismatch",
      "type": "error"
    },
    {
      "inputs": [
        {
          "internalType": "uint256",
          "name": "maxAllowed",
          "type": "uint256"
        },
        {
          "internalType": "uint256",
          "name": "current",
          "type": "uint256"
        }
      ],
      "name": "BatchSizeExceeded",
      "type": "error"
    },
    {
      "inputs": [],
      "name": "EmptyArrays",
      "type": "error"
    },
    {
      "inputs": [],
      "name": "EnforcedPause",
      "type": "error"
    },
    {
      "inputs": [],
      "name": "ExpectedPause",
      "type": "error"
    },
    {
      "inputs": [
        {
          "internalType": "uint256",
          "name": "currentXP",
          "type": "uint256"
        },
        {
          "internalType": "uint256",
          "name": "requestedXP",
          "type": "uint256"
        }
      ],
      "name": "InsufficientXP",
      "type": "error"
    },
    {
      "inputs": [],
      "name": "InvalidInitialization",
      "type": "error"
    },
    {
      "inputs": [],
      "name": "NotInitializing",
      "type": "error"
    },
    {
      "inputs": [],
      "name": "ReentrancyGuardReentrantCall",
      "type": "error"
    },
    {
      "inputs": [
        {
          "internalType": "uint256",
          "name": "limit",
          "type": "uint256"
        }
      ],
      "name": "XPLimitExceeded",
      "type": "error"
    },
    {
      "inputs": [],
      "name": "ZeroAddressUser",
      "type": "error"
    },
    {
      "inputs": [],
      "name": "ZeroXPAmount",
      "type": "error"
    },
    {
      "anonymous": false,
      "inputs": [
        {
          "indexed": true,
          "internalType": "address[]",
          "name": "users",
          "type": "address[]"
        },
        {
          "indexed": false,
          "internalType": "uint256[]",
          "name": "amounts",
          "type": "uint256[]"
        },
        {
          "indexed": true,
          "internalType": "address",
          "name": "awarder",
          "type": "address"
        }
      ],
      "name": "BatchXPAwarded",
      "type": "event"
    },
    {
      "anonymous": false,
      "inputs": [
        {
          "indexed": false,
          "internalType": "uint64",
          "name": "version",
          "type": "uint64"
        }
      ],
      "name": "Initialized",
      "type": "event"
    },
    {
      "anonymous": false,
      "inputs": [
        {
          "indexed": true,
          "internalType": "address",
          "name": "user",
          "type": "address"
        },
        {
          "indexed": false,
          "internalType": "uint32",
          "name": "newLevel",
          "type": "uint32"
        }
      ],
      "name": "LevelUp",
      "type": "event"
    },
    {
      "anonymous": false,
      "inputs": [
        {
          "indexed": false,
          "internalType": "address",
          "name": "account",
          "type": "address"
        }
      ],
      "name": "Paused",
      "type": "event"
    },
    {
      "anonymous": false,
      "inputs": [
        {
          "indexed": true,
          "internalType": "bytes32",
          "name": "role",
          "type": "bytes32"
        },
        {
          "indexed": true,
          "internalType": "bytes32",
          "name": "previousAdminRole",
          "type": "bytes32"
        },
        {
          "indexed": true,
          "internalType": "bytes32",
          "name": "newAdminRole",
          "type": "bytes32"
        }
      ],
      "name": "RoleAdminChanged",
      "type": "event"
    },
    {
      "anonymous": false,
      "inputs": [
        {
          "indexed": true,
          "internalType": "bytes32",
          "name": "role",
          "type": "bytes32"
        },
        {
          "indexed": true,
          "internalType": "address",
          "name": "account",
          "type": "address"
        },
        {
          "indexed": true,
          "internalType": "address",
          "name": "sender",
          "type": "address"
        }
      ],
      "name": "RoleGranted",
      "type": "event"
    },
    {
      "anonymous": false,
      "inputs": [
        {
          "indexed": true,
          "internalType": "bytes32",
          "name": "role",
          "type": "bytes32"
        },
        {
          "indexed": true,
          "internalType": "address",
          "name": "account",
          "type": "address"
        },
        {
          "indexed": true,
          "internalType": "address",
          "name": "sender",
          "type": "address"
        }
      ],
      "name": "RoleRevoked",
      "type": "event"
    },
    {
      "anonymous": false,
      "inputs": [
        {
          "indexed": false,
          "internalType": "address",
          "name": "account",
          "type": "address"
        }
      ],
      "name": "Unpaused",
      "type": "event"
    },
    {
      "anonymous": false,
      "inputs": [
        {
          "indexed": true,
          "internalType": "address",
          "name": "user",
          "type": "address"
        },
        {
          "indexed": false,
          "internalType": "uint256",
          "name": "amount",
          "type": "uint256"
        },
        {
          "indexed": true,
          "internalType": "address",
          "name": "awarder",
          "type": "address"
        }
      ],
      "name": "XPAwarded",
      "type": "event"
    },
    {
      "anonymous": false,
      "inputs": [
        {
          "indexed": true,
          "internalType": "address",
          "name": "user",
          "type": "address"
        },
        {
          "indexed": false,
          "internalType": "uint256",
          "name": "amount",
          "type": "uint256"
        }
      ],
      "name": "XPSpent",
      "type": "event"
    },
    {
      "inputs": [],
      "name": "DEFAULT_ADMIN_ROLE",
      "outputs": [
        {
          "internalType": "bytes32",
          "name": "",
          "type": "bytes32"
        }
      ],
      "stateMutability": "view",
      "type": "function"
    },
    {
      "inputs": [],
      "name": "MAX_BATCH_SIZE",
      "outputs": [
        {
          "internalType": "uint256",
          "name": "",
          "type": "uint256"
        }
      ],
      "stateMutability": "view",
      "type": "function"
    },
    {
      "inputs": [],
      "name": "PAUSER_ROLE",
      "outputs": [
        {
          "internalType": "bytes32",
          "name": "",
          "type": "bytes32"
        }
      ],
      "stateMutability": "view",
      "type": "function"
    },
    {
      "inputs": [],
      "name": "XP_AWARDER_ROLE",
      "outputs": [
        {
          "internalType": "bytes32",
          "name": "",
          "type": "bytes32"
        }
      ],
      "stateMutability": "view",
      "type": "function"
    },
    {
      "inputs": [],
      "name": "XP_GRANTER_ROLE",
      "outputs": [
        {
          "internalType": "bytes32",
          "name": "",
          "type": "bytes32"
        }
      ],
      "stateMutability": "view",
      "type": "function"
    },
    {
      "inputs": [
        {
          "internalType": "address",
          "name": "user",
          "type": "address"
        },
        {
          "internalType": "uint128",
          "name": "newBalance",
          "type": "uint128"
        }
      ],
      "name": "adjustUserXP",
      "outputs": [],
      "stateMutability": "nonpayable",
      "type": "function"
    },
    {
      "inputs": [
        {
          "internalType": "address",
          "name": "user",
          "type": "address"
        },
        {
          "internalType": "uint256",
          "name": "amount",
          "type": "uint256"
        }
      ],
      "name": "awardXP",
      "outputs": [],
      "stateMutability": "nonpayable",
      "type": "function"
    },
    {
      "inputs": [
        {
          "internalType": "address[]",
          "name": "users",
          "type": "address[]"
        },
        {
          "internalType": "uint256[]",
          "name": "amounts",
          "type": "uint256[]"
        }
      ],
      "name": "batchAwardXP",
      "outputs": [],
      "stateMutability": "nonpayable",
      "type": "function"
    },
    {
      "inputs": [
        {
          "internalType": "address[]",
          "name": "users",
          "type": "address[]"
        }
      ],
      "name": "batchGetXP",
      "outputs": [
        {
          "internalType": "uint128[]",
          "name": "xpBalances",
          "type": "uint128[]"
        }
      ],
      "stateMutability": "view",
      "type": "function"
    },
    {
      "inputs": [],
      "name": "getGlobalStats",
      "outputs": [
        {
          "internalType": "uint128",
          "name": "totalXPAwarded",
          "type": "uint128"
        },
        {
          "internalType": "uint32",
          "name": "totalUsers",
          "type": "uint32"
        },
        {
          "internalType": "uint64",
          "name": "lastUpdateTimestamp",
          "type": "uint64"
        }
      ],
      "stateMutability": "view",
      "type": "function"
    },
    {
      "inputs": [
        {
          "internalType": "address",
          "name": "user",
          "type": "address"
        }
      ],
      "name": "getLevel",
      "outputs": [
        {
          "internalType": "uint32",
          "name": "",
          "type": "uint32"
        }
      ],
      "stateMutability": "view",
      "type": "function"
    },
    {
      "inputs": [
        {
          "internalType": "bytes32",
          "name": "role",
          "type": "bytes32"
        }
      ],
      "name": "getRoleAdmin",
      "outputs": [
        {
          "internalType": "bytes32",
          "name": "",
          "type": "bytes32"
        }
      ],
      "stateMutability": "view",
      "type": "function"
    },
    {
      "inputs": [
        {
          "internalType": "address",
          "name": "user",
          "type": "address"
        }
      ],
      "name": "getUserStats",
      "outputs": [
        {
          "internalType": "uint128",
          "name": "xpBalance",
          "type": "uint128"
        },
        {
          "internalType": "uint32",
          "name": "level",
          "type": "uint32"
        },
        {
          "internalType": "uint32",
          "name": "activityCount",
          "type": "uint32"
        },
        {
          "internalType": "uint64",
          "name": "lastActivityTime",
          "type": "uint64"
        }
      ],
      "stateMutability": "view",
      "type": "function"
    },
    {
      "inputs": [
        {
          "internalType": "address",
          "name": "user",
          "type": "address"
        }
      ],
      "name": "getXP",
      "outputs": [
        {
          "internalType": "uint256",
          "name": "",
          "type": "uint256"
        }
      ],
      "stateMutability": "view",
      "type": "function"
    },
    {
      "inputs": [
        {
          "internalType": "bytes32",
          "name": "role",
          "type": "bytes32"
        },
        {
          "internalType": "address",
          "name": "account",
          "type": "address"
        }
      ],
      "name": "grantRole",
      "outputs": [],
      "stateMutability": "nonpayable",
      "type": "function"
    },
    {
      "inputs": [
        {
          "internalType": "bytes32",
          "name": "role",
          "type": "bytes32"
        },
        {
          "internalType": "address",
          "name": "account",
          "type": "address"
        }
      ],
      "name": "hasRole",
      "outputs": [
        {
          "internalType": "bool",
          "name": "",
          "type": "bool"
        }
      ],
      "stateMutability": "view",
      "type": "function"
    },
    {
      "inputs": [],
      "name": "initialize",
      "outputs": [],
      "stateMutability": "nonpayable",
      "type": "function"
    },
    {
      "inputs": [],
      "name": "pause",
      "outputs": [],
      "stateMutability": "nonpayable",
      "type": "function"
    },
    {
      "inputs": [],
      "name": "paused",
      "outputs": [
        {
          "internalType": "bool",
          "name": "",
          "type": "bool"
        }
      ],
      "stateMutability": "view",
      "type": "function"
    },
    {
      "inputs": [
        {
          "internalType": "bytes32",
          "name": "role",
          "type": "bytes32"
        },
        {
          "internalType": "address",
          "name": "callerConfirmation",
          "type": "address"
        }
      ],
      "name": "renounceRole",
      "outputs": [],
      "stateMutability": "nonpayable",
      "type": "function"
    },
    {
      "inputs": [
        {
          "internalType": "bytes32",
          "name": "role",
          "type": "bytes32"
        },
        {
          "internalType": "address",
          "name": "account",
          "type": "address"
        }
      ],
      "name": "revokeRole",
      "outputs": [],
      "stateMutability": "nonpayable",
      "type": "function"
    },
    {
      "inputs": [
        {
          "internalType": "address",
          "name": "user",
          "type": "address"
        },
        {
          "internalType": "uint256",
          "name": "amount",
          "type": "uint256"
        }
      ],
      "name": "spendXP",
      "outputs": [],
      "stateMutability": "nonpayable",
      "type": "function"
    },
    {
      "inputs": [
        {
          "internalType": "bytes4",
          "name": "interfaceId",
          "type": "bytes4"
        }
      ],
      "name": "supportsInterface",
      "outputs": [
        {
          "internalType": "bool",
          "name": "",
          "type": "bool"
        }
      ],
      "stateMutability": "view",
      "type": "function"
    },
    {
      "inputs": [],
      "name": "unpause",
      "outputs": [],
      "stateMutability": "nonpayable",
      "type": "function"
    }
  ],
  "bytecode": "0x608080604052346100b8577ff0c57e16840df040f15088dc2f81fe391c3923bec73e23a9662efc9c229c6a009081549060ff8260401c166100a957506001600160401b036002600160401b031982821601610064575b60405161178d90816100be8239f35b6001600160401b031990911681179091556040519081527fc7f505b2f371ae2175ee4913f4499e1f2633a7b5936321eed1cdaeb6115181d290602090a1388080610055565b63f92ee8a960e01b8152600490fd5b600080fdfe6080604052600436101561001257600080fd5b60003560e01c806301ffc9a7146101975780630c4f349314610192578063248a9ca31461018d5780632f2ff15d1461018857806336568abe1461018357806338e089cd1461017e5780633f4ba83a1461017957806345f0912c146101745780634e43603a1461016f578063511b9ba31461016a5780635c975abb14610165578063639487f4146101605780636b4169c31461015b5780638129fc1c14610156578063817c8966146101515780638456cb591461014c57806391d14854146101475780639be7022214610142578063a217fddf1461013d578063c1442fff14610138578063cfdbf25414610133578063d547741f1461012e578063e3619e2d146101295763e63ab1e91461012457600080fd5b610e00565b610dc5565b610d76565b610d5a565b610c62565b610c46565b610b71565b610ac9565b610a62565b610a2d565b610904565b6108bb565b610875565b610845565b61080a565b61079a565b6105b6565b61050e565b61038c565b610341565b6102f0565b6102b4565b610222565b346101ed5760203660031901126101ed5760043563ffffffff60e01b81168091036101ed57602090637965db0b60e01b81149081156101dc575b506040519015158152f35b6301ffc9a760e01b149050386101d1565b600080fd5b6001600160a01b038116036101ed57565b60409060031901126101ed5760043561021b816101f2565b9060243590565b346101ed5761023036610203565b906102396110a9565b610241611203565b6001600160a01b0381169081156102a2578215610290578261026291611250565b6040519182527ff47619a035b234d06595061278acb28d3c0a51ff4cc7f2c611eafb84cdf0f25c60203393a3005b6040516330473a1360e01b8152600490fd5b604051639c89d57f60e01b8152600490fd5b346101ed5760203660031901126101ed576004356000526000805160206117218339815191526020526020600160406000200154604051908152f35b346101ed5760403660031901126101ed5761033f602435600435610313826101f2565b8060005260008051602061172183398151915260205261033a6001604060002001546111d5565b6115c4565b005b346101ed5760403660031901126101ed5760243561035e816101f2565b336001600160a01b0382160361037a5761033f906004356115fe565b60405163334bd91960e11b8152600490fd5b346101ed5760403660031901126101ed576004356103a9816101f2565b6024356001600160801b03808216918281036101ed576104de926103cb611125565b60009460018060a01b03168552600160205260408520928084541680926104088587906001600160801b03166001600160801b0319825416179055565b855467ffffffffffffffff60801b191642608081901b67ffffffffffffffff60801b1691909117875567ffffffffffffffff16956104699061044983611696565b81546001600160e01b031660e09190911b6001600160e01b031916179055565b11156104e15750610480610495916104b193610e51565b85546001600160801b0316610e6f565b610e6f565b6001600160801b03166001600160801b03196000541617600055565b6000805467ffffffffffffffff60801b191660809290921b67ffffffffffffffff60801b16919091179055565b80f35b916104eb91610e51565b906104fa855492828416610e51565b16906001600160801b0319161783556104b1565b346101ed5760003660031901126101ed5761052761117d565b600080516020611741833981519152805460ff8116156105735760ff191690557f5db9ee0a495bf2e6ff9c91a7834c1ba4fdd244a5e8aa4e537bd38aeae4b073aa6020604051338152a1005b604051638dfc202b60e01b8152600490fd5b9181601f840112156101ed5782359167ffffffffffffffff83116101ed576020808501948460051b0101116101ed57565b346101ed576040806003193601126101ed5760049067ffffffffffffffff82358181116101ed576105ea9036908501610585565b90916024359081116101ed576106039036908601610585565b92909461060e6110a9565b610616611203565b7f9b779b17422d0df92223018b32b4d1fa46e071723d6817e2486d003becc55f00600281541461078b5760029055821561077d5783830361076f576064831161074957610661610ecb565b5060005b83811061071257505060005b8281106106e15750916106a86106b5927ffd594ac32b4196ce9a824dc61a6000ba99ace895faef16638a8d4cd7fbf18f9994610f53565b9351918291339683610f9b565b0390a361033f60017f9b779b17422d0df92223018b32b4d1fa46e071723d6817e2486d003becc55f0055565b8061070c6106fa6106f56001948787610f36565b610f46565b61070583888b610f36565b3590611250565b01610671565b8060051b808401351561073c578701351561072f57600101610665565b50631f2a2ac2600052601cfd5b82633f2a2ce2600052601cfd5b845163f80a484560e01b8152606491810191825260208201939093528291506040010390fd5b845163512509d360e11b8152fd5b845163a600c81d60e01b8152fd5b508451633ee5aeb560e01b8152fd5b346101ed5760203660031901126101ed576004356107b7816101f2565b60018060a01b03166000526001602052608060406000205467ffffffffffffffff604051916001600160801b03811683528060e01c602084015263ffffffff8160c01c166040840152831c166060820152f35b346101ed5760003660031901126101ed5760206040517f88325e7770f0fc313d0f367dd082b9a7a94028470d7b2f2610429bc45e06fb018152f35b346101ed5760003660031901126101ed57602060ff60008051602061174183398151915254166040519015158152f35b346101ed5760203660031901126101ed57600435610892816101f2565b60018060a01b0316600052600160205260206001600160801b0360406000205416604051908152f35b346101ed5760003660031901126101ed57606060005467ffffffffffffffff604051916001600160801b038116835263ffffffff8160c01c16602084015260801c166040820152f35b346101ed5760003660031901126101ed576000805160206117618339815191525467ffffffffffffffff60ff8260401c1615911680159081610a25575b6001149081610a1b575b159081610a12575b50610a0057600080516020611761833981519152805467ffffffffffffffff19166001179055806109d6575b610987610fc4565b61098d57005b600080516020611761833981519152805460ff60401b19169055604051600181527fc7f505b2f371ae2175ee4913f4499e1f2633a7b5936321eed1cdaeb6115181d290602090a1005b600080516020611761833981519152805460ff60401b19166801000000000000000017905561097f565b60405163f92ee8a960e01b8152600490fd5b90501538610953565b303b15915061094b565b829150610941565b346101ed5760203660031901126101ed576020610a54600435610a4f816101f2565b611044565b63ffffffff60405191168152f35b346101ed5760003660031901126101ed57610a7b61117d565b610a83611203565b600080516020611741833981519152600160ff198254161790557f62e78cea01bee320cd4e420270b5ea74000d11b0c9f74754ebdbfc544b05a2586020604051338152a1005b346101ed5760403660031901126101ed57602060ff610b20602435610aed816101f2565b600435600052600080516020611721833981519152845260406000209060018060a01b0316600052602052604060002090565b54166040519015158152f35b602090602060408183019282815285518094520193019160005b828110610b54575050505090565b83516001600160801b031685529381019392810192600101610b46565b346101ed576020806003193601126101ed5760043567ffffffffffffffff81116101ed57610ba3903690600401610585565b9190610bb6610bb184611091565b610ea0565b83815291601f19610bc685611091565b0136602085013760009360005b818110610bec5760405180610be88782610b2c565b0390f35b610bf7818386610f36565b35610c01816101f2565b60018060a01b031686526001908184526001600160801b036040882054168651821015610c41576001600160801b0316600582901b870185015201610bd3565b610f20565b346101ed5760003660031901126101ed57602060405160008152f35b346101ed57610c7036610203565b90610c796110a9565b610c81611203565b60018060a01b03169081600052600160205260406000206001600160801b038082541690838210610d3c57610d3792610d01610ce58694610d27947fa39db0f4c28a2cbc81d3576e9b24cc882f346eef0d15d549b9cbf674d8e60d27981690610e51565b82546001600160801b0319166001600160801b03909116178255565b805467ffffffffffffffff60801b19164260801b67ffffffffffffffff60801b16179055565b6040519081529081906020820190565b0390a2005b60448285604051916392762df360e01b835260048301526024820152fd5b346101ed5760003660031901126101ed57602060405160648152f35b346101ed5760403660031901126101ed5761033f602435600435610d99826101f2565b80600052600080516020611721833981519152602052610dc06001604060002001546111d5565b6115fe565b346101ed5760003660031901126101ed5760206040517fe8e20673873883db432ebefddb52e10b31320d08e3e080adf1283a61858fb44d8152f35b346101ed5760003660031901126101ed5760206040517f65d7a28e3265b37a6474929f336521b332c1681b933f6cb9f3376673440d862a8152f35b634e487b7160e01b600052601160045260246000fd5b6001600160801b039182169082160391908211610e6a57565b610e3b565b9190916001600160801b0380809416911601918211610e6a57565b634e487b7160e01b600052604160045260246000fd5b6040519190601f01601f1916820167ffffffffffffffff811183821017610ec657604052565b610e8a565b60405167ffffffffffffffff91906080810183811182821017610ec65760405260608193600054906001600160801b03821684528160801c16602084015263ffffffff8160c01c16604084015260e01c910152565b634e487b7160e01b600052603260045260246000fd5b9190811015610c415760051b0190565b35610f50816101f2565b90565b604051918291829160005b818110610f6e5750505003902090565b919350916001908435610f80816101f2565b828060a01b0316815260208091019401910191849392610f5e565b602080825281018390526001600160fb1b0383116101ed5760409260051b809284830137010190565b610fcc6116f1565b610fd46116f1565b610fdc6116f1565b610fe46116f1565b60017f9b779b17422d0df92223018b32b4d1fa46e071723d6817e2486d003becc55f005561101133611435565b5061101b336114ea565b506000805467ffffffffffffffff60801b19164260801b67ffffffffffffffff60801b16179055565b60018060a01b0316600052600160205260406000205467ffffffffffffffff8160801c164203428111610e6a57610e101161108b576001600160801b03610f509116611696565b60e01c90565b67ffffffffffffffff8111610ec65760051b60200190565b3360009081527f08483d94b98298e8ebb3cb571a58bdae8faeb1e689ed24e75a46b00482009d63602052604090207fe8e20673873883db432ebefddb52e10b31320d08e3e080adf1283a61858fb44d9060ff905b5416156111075750565b6044906040519063e2517d3f60e01b82523360048301526024820152fd5b3360009081527fb7db2dd08fcb62d0c9e08c51941cae53c267786a0b75803fb7960902fc8ef97d602052604090205460ff161561115e57565b60405163e2517d3f60e01b815233600482015260006024820152604490fd5b3360009081527f75442b0a96088b5456bc4ed01394c96a4feec0f883c9494257d76b96ab1c9b6b602052604090207f65d7a28e3265b37a6474929f336521b332c1681b933f6cb9f3376673440d862a9060ff906110fd565b600081815260008051602061172183398151915260209081526040808320338452909152902060ff906110fd565b60ff600080516020611741833981519152541661121c57565b60405163d93c066560e01b8152600490fd5b91908201809211610e6a57565b90600163ffffffff80931601918211610e6a57565b6001600160a01b0381166000908152600160205260409020916001600160801b038061128385546001600160801b031690565b169061128f838361122e565b928184116114165785546001600160801b0319166001600160801b0385841616178655611379916104b19061049590885467ffffffffffffffff60801b191642608081901b67ffffffffffffffff60801b16919091178a5567ffffffffffffffff169361132f61130f61130a8c5463ffffffff9060c01c1690565b61123b565b8b5463ffffffff60c01b191660c09190911b63ffffffff60c01b16178b55565b6113666113466113408c5460e01c90565b99611696565b8b546001600160e01b031660e082901b6001600160e01b03191617909b55565b166104906000546001600160801b031690565b156113d3575b63ffffffff80911690831611611393575050565b60405163ffffffff9290921682526001600160a01b0316907f1d8ed0d9fe58f54d4b33312b362a91844a992e6eac548cc29a0950ebc03eeeab90602090a2565b6114116113ec61130a60005463ffffffff9060c01c1690565b6000805463ffffffff60c01b191660c09290921b63ffffffff60c01b16919091179055565b61137f565b604051631c0f3e1960e01b81526001600160801b036004820152602490fd5b6001600160a01b03811660009081527fb7db2dd08fcb62d0c9e08c51941cae53c267786a0b75803fb7960902fc8ef97d60205260408120546000805160206117218339815191529060ff166114e457818052602090815260408083206001600160a01b038516600090815292529020805460ff1916600117905533916001600160a01b0316907f2f8788117e7eff1d82e926ec794901d17c78024a50270940304540a733656f0d8180a4600190565b50905090565b6001600160a01b03811660009081527f75442b0a96088b5456bc4ed01394c96a4feec0f883c9494257d76b96ab1c9b6b602052604081207f65d7a28e3265b37a6474929f336521b332c1681b933f6cb9f3376673440d862a906000805160206117218339815191529060ff905b54166115bd57818352602090815260408084206001600160a01b038616600090815292529020805460ff1916600117905533926001600160a01b0316917f2f8788117e7eff1d82e926ec794901d17c78024a50270940304540a733656f0d9080a4600190565b5050905090565b6000818152600080516020611721833981519152602081815260408084206001600160a01b0387168552909152822091929160ff90611557565b6000818152600080516020611721833981519152602081815260408084206001600160a01b038716855290915282205491929160ff16156115bd57818352602090815260408084206001600160a01b038616600090815292529020805460ff1916905533926001600160a01b0316917ff6391f5c32d9c69d2a47ea670b442974b53935d1edc7fd64eb21e047a839171b9080a4600190565b606481106116eb57606490049081600180840160011c915b8483106116db57505050816103e88091116116d3575b5081156116cd57565b60019150565b9150386116c4565b9193508382048401811c916116ae565b50600190565b60ff6000805160206117618339815191525460401c161561170e57565b604051631afcd79f60e31b8152600490fdfe02dd7bc7dec4dceedda775e58dd541e08a116c6c53815c0bd028192f7b626800cd5ed15c6e187e77e9aee88184c21f4f2182ab5827cb3b7e07fbedcd63f03300f0c57e16840df040f15088dc2f81fe391c3923bec73e23a9662efc9c229c6a00a164736f6c6343000816000a",
  "linkReferences": {},
  "deployedLinkReferences": {}
}