{
  "_format": "hh-sol-artifact-1",
  "contractName": "MockGuildCore",
  "sourceName": "contracts/mocks/MockGuildCore.sol",
  "abi": [
    {
      "inputs": [],
      "name": "_lastContributionUpdate",
      "outputs": [
        {
          "internalType": "uint256",
          "name": "",
          "type": "uint256"
        }
      ],
      "stateMutability": "view",
      "type": "function"
    },
    {
      "inputs": [],
      "name": "_lastUpdatedMember",
      "outputs": [
        {
          "internalType": "address",
          "name": "",
          "type": "address"
        }
      ],
      "stateMutability": "view",
      "type": "function"
    },
    {
      "inputs": [
        {
          "internalType": "uint256",
          "name": "guildId",
          "type": "uint256"
        }
      ],
      "name": "getGuild",
      "outputs": [
        {
          "components": [
            {
              "internalType": "uint256",
              "name": "guildId",
              "type": "uint256"
            },
            {
              "internalType": "string",
              "name": "name",
              "type": "string"
            },
            {
              "internalType": "string",
              "name": "description",
              "type": "string"
            },
            {
              "internalType": "address",
              "name": "leader",
              "type": "address"
            },
            {
              "internalType": "uint256",
              "name": "memberCount",
              "type": "uint256"
            },
            {
              "internalType": "uint256",
              "name": "createdAt",
              "type": "uint256"
            },
            {
              "internalType": "uint256",
              "name": "requiredXP",
              "type": "uint256"
            },
            {
              "internalType": "bool",
              "name": "isActive",
              "type": "bool"
            },
            {
              "internalType": "uint256",
              "name": "totalContributions",
              "type": "uint256"
            }
          ],
          "internalType": "struct Guild",
          "name": "",
          "type": "tuple"
        }
      ],
      "stateMutability": "view",
      "type": "function"
    },
    {
      "inputs": [
        {
          "internalType": "uint256",
          "name": "guildId",
          "type": "uint256"
        }
      ],
      "name": "getGuildMembers",
      "outputs": [
        {
          "internalType": "address[]",
          "name": "",
          "type": "address[]"
        }
      ],
      "stateMutability": "view",
      "type": "function"
    },
    {
      "inputs": [
        {
          "internalType": "uint256",
          "name": "guildId",
          "type": "uint256"
        },
        {
          "internalType": "address",
          "name": "memberAddress",
          "type": "address"
        }
      ],
      "name": "getMember",
      "outputs": [
        {
          "components": [
            {
              "internalType": "address",
              "name": "memberAddress",
              "type": "address"
            },
            {
              "internalType": "uint256",
              "name": "joinedAt",
              "type": "uint256"
            },
            {
              "internalType": "uint256",
              "name": "contributionScore",
              "type": "uint256"
            },
            {
              "internalType": "bool",
              "name": "isActive",
              "type": "bool"
            },
            {
              "internalType": "string",
              "name": "role",
              "type": "string"
            }
          ],
          "internalType": "struct Member",
          "name": "",
          "type": "tuple"
        }
      ],
      "stateMutability": "view",
      "type": "function"
    },
    {
      "inputs": [
        {
          "internalType": "uint256",
          "name": "guildId",
          "type": "uint256"
        },
        {
          "internalType": "address",
          "name": "memberAddress",
          "type": "address"
        }
      ],
      "name": "getMemberInfo",
      "outputs": [
        {
          "components": [
            {
              "internalType": "address",
              "name": "memberAddress",
              "type": "address"
            },
            {
              "internalType": "uint256",
              "name": "joinedAt",
              "type": "uint256"
            },
            {
              "internalType": "uint256",
              "name": "contributionScore",
              "type": "uint256"
            },
            {
              "internalType": "bool",
              "name": "isActive",
              "type": "bool"
            },
            {
              "internalType": "string",
              "name": "role",
              "type": "string"
            }
          ],
          "internalType": "struct Member",
          "name": "",
          "type": "tuple"
        }
      ],
      "stateMutability": "view",
      "type": "function"
    },
    {
      "inputs": [
        {
          "internalType": "uint256",
          "name": "guildId",
          "type": "uint256"
        }
      ],
      "name": "getTotalVotingPower",
      "outputs": [
        {
          "internalType": "uint256",
          "name": "",
          "type": "uint256"
        }
      ],
      "stateMutability": "view",
      "type": "function"
    },
    {
      "inputs": [
        {
          "internalType": "uint256",
          "name": "guildId",
          "type": "uint256"
        },
        {
          "internalType": "address",
          "name": "account",
          "type": "address"
        }
      ],
      "name": "isGuildMember",
      "outputs": [
        {
          "internalType": "bool",
          "name": "",
          "type": "bool"
        }
      ],
      "stateMutability": "view",
      "type": "function"
    },
    {
      "inputs": [],
      "name": "lastContributionUpdate",
      "outputs": [
        {
          "internalType": "uint256",
          "name": "",
          "type": "uint256"
        }
      ],
      "stateMutability": "view",
      "type": "function"
    },
    {
      "inputs": [],
      "name": "lastUpdatedMember",
      "outputs": [
        {
          "internalType": "address",
          "name": "",
          "type": "address"
        }
      ],
      "stateMutability": "view",
      "type": "function"
    },
    {
      "inputs": [
        {
          "internalType": "uint256",
          "name": "guildId",
          "type": "uint256"
        },
        {
          "internalType": "address[]",
          "name": "members",
          "type": "address[]"
        }
      ],
      "name": "setGuildMembers",
      "outputs": [],
      "stateMutability": "nonpayable",
      "type": "function"
    },
    {
      "inputs": [
        {
          "internalType": "uint256",
          "name": "guildId",
          "type": "uint256"
        },
        {
          "internalType": "address",
          "name": "memberAddress",
          "type": "address"
        },
        {
          "internalType": "bool",
          "name": "isMember",
          "type": "bool"
        }
      ],
      "name": "setGuildMembership",
      "outputs": [],
      "stateMutability": "nonpayable",
      "type": "function"
    },
    {
      "inputs": [
        {
          "internalType": "uint256",
          "name": "guildId",
          "type": "uint256"
        },
        {
          "components": [
            {
              "internalType": "uint256",
              "name": "guildId",
              "type": "uint256"
            },
            {
              "internalType": "string",
              "name": "name",
              "type": "string"
            },
            {
              "internalType": "string",
              "name": "description",
              "type": "string"
            },
            {
              "internalType": "address",
              "name": "leader",
              "type": "address"
            },
            {
              "internalType": "uint256",
              "name": "memberCount",
              "type": "uint256"
            },
            {
              "internalType": "uint256",
              "name": "createdAt",
              "type": "uint256"
            },
            {
              "internalType": "uint256",
              "name": "requiredXP",
              "type": "uint256"
            },
            {
              "internalType": "bool",
              "name": "isActive",
              "type": "bool"
            },
            {
              "internalType": "uint256",
              "name": "totalContributions",
              "type": "uint256"
            }
          ],
          "internalType": "struct Guild",
          "name": "guild",
          "type": "tuple"
        }
      ],
      "name": "setMockGuild",
      "outputs": [],
      "stateMutability": "nonpayable",
      "type": "function"
    },
    {
      "inputs": [
        {
          "internalType": "uint256",
          "name": "guildId",
          "type": "uint256"
        },
        {
          "internalType": "address",
          "name": "memberAddress",
          "type": "address"
        },
        {
          "components": [
            {
              "internalType": "address",
              "name": "memberAddress",
              "type": "address"
            },
            {
              "internalType": "uint256",
              "name": "joinedAt",
              "type": "uint256"
            },
            {
              "internalType": "uint256",
              "name": "contributionScore",
              "type": "uint256"
            },
            {
              "internalType": "bool",
              "name": "isActive",
              "type": "bool"
            },
            {
              "internalType": "string",
              "name": "role",
              "type": "string"
            }
          ],
          "internalType": "struct Member",
          "name": "member",
          "type": "tuple"
        }
      ],
      "name": "setMockMember",
      "outputs": [],
      "stateMutability": "nonpayable",
      "type": "function"
    },
    {
      "inputs": [
        {
          "internalType": "uint256",
          "name": "guildId",
          "type": "uint256"
        },
        {
          "internalType": "uint256",
          "name": "power",
          "type": "uint256"
        }
      ],
      "name": "setTotalVotingPower",
      "outputs": [],
      "stateMutability": "nonpayable",
      "type": "function"
    },
    {
      "inputs": [
        {
          "internalType": "uint256",
          "name": "guildId",
          "type": "uint256"
        },
        {
          "internalType": "address",
          "name": "member",
          "type": "address"
        },
        {
          "internalType": "uint256",
          "name": "contributionPoints",
          "type": "uint256"
        }
      ],
      "name": "updateMemberContribution",
      "outputs": [],
      "stateMutability": "nonpayable",
      "type": "function"
    }
  ],
  "bytecode": "0x6080806040523461001657610e7a908161001c8239f35b600080fdfe6040608081526004908136101561001557600080fd5b600091823560e01c90816306ce1fd414610b005781631295e3c714610add5781631e67939e146104f4578163240479a8146108cf5781634a1440d2146105615781634e3a16261461052257816351d09347146104f95781637186617b146104f95781638b4968cf146104f4578163ad8a1b7e14610440578163b44c4d0e14610318578163c8d3e636146102f9578163cd8d6f3d14610298578163d3e966931461013f578163ddabd744146100f4575063f0c2ff91146100d357600080fd5b346100f057816003193601126100f0576020906006549051908152f35b5080fd5b90503461013b578160031936011261013b578160209360ff92610115610b27565b90358252600286528282206001600160a01b039091168252855220549151911615158152f35b8280fd5b90503461013b5760209182600319360112610294578080519461016186610caf565b80865284860160609052818601606090528060608701528060808701528060a08701528060c08701528060e0870152806101008097015283358152808552208151946101ac86610caf565b815486526101bc60018301610db1565b868601908152916101cf60028201610db1565b848801908152600160a01b60019003806003840154169660608a0197885283015460808a0190815260058401549160a08b0192835260068501549360c08c01948552600786015460ff169560e08d0196151587526008015497878d019889528b8a519d8e9d8e5251908d015251610120809a8d01526101408c0161025291610b56565b90518b8203601f190160608d015261026a9190610b56565b98511660808a01525160a08901525160c08801525160e08701525115159085015251908301520390f35b8380fd5b9190503461013b57606036600319011261013b576102b4610b27565b906044359182151583036102f5576102f29335855260026020528185209060018060a01b0316855260205283209060ff801983541691151516179055565b80f35b8480fd5b5050346100f057816003193601126100f0576020906006549051908152f35b90503461013b578160031936011261013b5760249182359067ffffffffffffffff9384831161043c573660238401121561043c57828401359385851161040f578460051b9260209481519661036f87870189610ccc565b8752858701848196830101913683116104385785889101915b838310610420575050505081358852600385528720945195861161040f5768010000000000000000861161040f57505082548484558085106103f5575b5091845280842090845b8481106103da578580f35b83516001600160a01b031683820155928101926001016103cf565b838652828620610409918101908601610e56565b386103c5565b634e487b7160e01b87526041905285fd5b819061042b84610b42565b8152019101908790610388565b8a80fd5b8580fd5b905082346104f157602091826003193601126100f05792919235815260038352818120908251808584549182815201908194845286842090845b8181106104d45750505081610490910382610ccc565b83519485948186019282875251809352850193925b8281106104b457505050500390f35b83516001600160a01b0316855286955093810193928101926001016104a5565b82546001600160a01b03168452928801926001928301920161047a565b80fd5b610b96565b5050346100f057816003193601126100f05760055490516001600160a01b039091168152602090f35b83346104f15760603660031901126104f1576001600160a01b03610544610b27565b166001600160601b0360a01b600554161760055560443560065580f35b90503461013b57600319918083360112610294576024359167ffffffffffffffff9384841161043c576101209084360301126102f5578151936105a385610caf565b83820135855260248401358181116108cb576105c490833691870101610cfb565b9160209182870193845260448601358181116108c7576105e990369088018401610cfb565b8786019081526105fb60648801610b42565b906060890191825260808901926084890135845260a08a019560a48a0135875260c08b019760c48b0135895260e48b0161063490610cee565b9960e08d019a8b526101008d019b61010401358c528d883590528d83528d209b518c55600191828d0191519182518581116108b3578f81906106768454610d77565b95601f96878111610887575b508591878411600114610828579261081d575b5050600019600383901b1c191690851b1790555b60028d01945190815194851161080a578e906106c58754610d77565b8481116107d4575b508093861160011461076157509360089c9b999795938193829361074f9d9b999794610756575b50501b916000199060031b1c19161790555b60038a019060018060a01b039051166001600160601b0360a01b8254161790555190880155516005870155516006860155511515600785019060ff801983541691151516179055565b5191015580f35b0151925038806106f4565b868252808220949594939291601f198616915b8282106107bd5750509161074f9b99979593918560089f9e9c9a989694106107a4575b505050811b019055610706565b015160001960f88460031b161c19169055388080610797565b808886978294978701518155019601940190610774565b6107fb9088845282842086808a0160051c820192858b10610801575b0160051c0190610e56565b386106cd565b925081926107f0565b634e487b7160e01b8f526041895260248ffd5b015190503880610695565b9190889450601f198416868452878420935b888282106108715750508411610858575b505050811b0190556106a9565b015160001960f88460031b161c1916905538808061084b565b8385015186558b9790950194938401930161083a565b6108ad908684528784208980870160051c8201928a8810610801570160051c0190610e56565b38610682565b50634e487b7160e01b8f526041895260248ffd5b8880fd5b8680fd5b9190503461013b57600319606036820112610294576108ec610b27565b926044359067ffffffffffffffff928383116108cb5760a090833603011261043c5783519161091a83610c7d565b610925818301610b42565b835260209283810191602481013583528682016044820135815261094b60648301610cee565b9060608401918252608483013594888611610ad9576109736109d19488809836920101610cfb565b9a608086019b8c5286358d5260019a8b8a528d8181209060018060a01b0380941690528a528d209551166001600160601b0360a01b8654161785555189850155516002840155511515600383019060ff801983541691151516179055565b019451908151938411610ac657506109e98554610d77565b601f8111610a8d575b5081601f8411600114610a2c57509282939183928794610a21575b50501b916000199060031b1c191617905580f35b015192503880610a0d565b919083601f1981168789528489209489905b88838310610a735750505010610a5a575b505050811b01905580f35b015160001960f88460031b161c19169055388080610a4f565b858701518855909601959485019487935090810190610a3e565b610ab690868852838820601f860160051c810191858710610abc575b601f0160051c0190610e56565b386109f2565b9091508190610aa9565b634e487b7160e01b875260419052602486fd5b8b80fd5b90503461013b578160031936011261013b57803583526020526024359082205580f35b8284346104f15760203660031901126104f15750610b2060209235610d52565b9051908152f35b602435906001600160a01b0382168203610b3d57565b600080fd5b35906001600160a01b0382168203610b3d57565b919082519283825260005b848110610b82575050826000602080949584010152601f8019910116010190565b602081830181015184830182015201610b61565b34610b3d57604080600319360112610b3d57610bb0610b27565b90610c798151610bbf81610c7d565b82600080835260606080602094838682015283858201528383820152015260043581526001835281812060018060a01b038097168252835220835193610c0485610c7d565b858254168552600182015490838601918252600283015491818701928352610c3f600460ff6003870154169560608a01961515875201610db1565b94608088019586528251988998828a52511690880152519086015251606085015251151560808401525160a08084015260c0830190610b56565b0390f35b60a0810190811067ffffffffffffffff821117610c9957604052565b634e487b7160e01b600052604160045260246000fd5b610120810190811067ffffffffffffffff821117610c9957604052565b90601f8019910116810190811067ffffffffffffffff821117610c9957604052565b35908115158203610b3d57565b81601f82011215610b3d5780359067ffffffffffffffff8211610c995760405192610d30601f8401601f191660200185610ccc565b82845260208383010111610b3d57816000926020809301838601378301015290565b600052600460205260406000205480610d745750600360205260406000205490565b90565b90600182811c92168015610da7575b6020831014610d9157565b634e487b7160e01b600052602260045260246000fd5b91607f1691610d86565b90604051918260008254610dc481610d77565b90818452602094600191600181169081600014610e345750600114610df5575b505050610df392500383610ccc565b565b600090815285812095935091905b818310610e1c575050610df39350820101388080610de4565b85548884018501529485019487945091830191610e03565b92505050610df394925060ff191682840152151560051b820101388080610de4565b818110610e61575050565b60008155600101610e5656fea164736f6c6343000816000a",
  "linkReferences": {},
  "deployedLinkReferences": {}
}