{
  "_format": "hh-sol-artifact-1",
  "contractName": "ProfileRegistryV2",
  "sourceName": "contracts/ProfileRegistryV2.sol",
  "abi": [
    {
      "inputs": [],
      "stateMutability": "nonpayable",
      "type": "constructor"
    },
    {
      "inputs": [],
      "name": "AccessControlBadConfirmation",
      "type": "error"
    },
    {
      "inputs": [
        {
          "internalType": "address",
          "name": "account",
          "type": "address"
        },
        {
          "internalType": "bytes32",
          "name": "neededRole",
          "type": "bytes32"
        }
      ],
      "name": "AccessControlUnauthorizedAccount",
      "type": "error"
    },
    {
      "inputs": [
        {
          "internalType": "address",
          "name": "target",
          "type": "address"
        }
      ],
      "name": "AddressEmptyCode",
      "type": "error"
    },
    {
      "inputs": [
        {
          "internalType": "uint256",
          "name": "tokenId",
          "type": "uint256"
        }
      ],
      "name": "BadgeAlreadyOnProfile",
      "type": "error"
    },
    {
      "inputs": [
        {
          "internalType": "uint256",
          "name": "tokenId",
          "type": "uint256"
        }
      ],
      "name": "BadgeNotOnProfile",
      "type": "error"
    },
    {
      "inputs": [
        {
          "internalType": "uint256",
          "name": "tokenId",
          "type": "uint256"
        }
      ],
      "name": "BadgeNotOwned",
      "type": "error"
    },
    {
      "inputs": [
        {
          "internalType": "address",
          "name": "implementation",
          "type": "address"
        }
      ],
      "name": "ERC1967InvalidImplementation",
      "type": "error"
    },
    {
      "inputs": [],
      "name": "ERC1967NonPayable",
      "type": "error"
    },
    {
      "inputs": [],
      "name": "FailedCall",
      "type": "error"
    },
    {
      "inputs": [],
      "name": "InvalidCharacter",
      "type": "error"
    },
    {
      "inputs": [],
      "name": "InvalidInitialization",
      "type": "error"
    },
    {
      "inputs": [],
      "name": "NotInitializing",
      "type": "error"
    },
    {
      "inputs": [],
      "name": "ReentrancyGuardReentrantCall",
      "type": "error"
    },
    {
      "inputs": [],
      "name": "UUPSUnauthorizedCallContext",
      "type": "error"
    },
    {
      "inputs": [
        {
          "internalType": "bytes32",
          "name": "slot",
          "type": "bytes32"
        }
      ],
      "name": "UUPSUnsupportedProxiableUUID",
      "type": "error"
    },
    {
      "inputs": [
        {
          "internalType": "string",
          "name": "username",
          "type": "string"
        }
      ],
      "name": "UsernameAlreadyTaken",
      "type": "error"
    },
    {
      "inputs": [],
      "name": "UsernameCannotBeEmpty",
      "type": "error"
    },
    {
      "inputs": [],
      "name": "UsernameTooLong",
      "type": "error"
    },
    {
      "anonymous": false,
      "inputs": [
        {
          "indexed": true,
          "internalType": "address",
          "name": "user",
          "type": "address"
        },
        {
          "indexed": true,
          "internalType": "uint256",
          "name": "tokenId",
          "type": "uint256"
        }
      ],
      "name": "BadgeAddedToProfile",
      "type": "event"
    },
    {
      "anonymous": false,
      "inputs": [
        {
          "indexed": true,
          "internalType": "address",
          "name": "user",
          "type": "address"
        },
        {
          "indexed": true,
          "internalType": "uint256",
          "name": "tokenId",
          "type": "uint256"
        }
      ],
      "name": "BadgeRemovedFromProfile",
      "type": "event"
    },
    {
      "anonymous": false,
      "inputs": [
        {
          "indexed": false,
          "internalType": "uint64",
          "name": "version",
          "type": "uint64"
        }
      ],
      "name": "Initialized",
      "type": "event"
    },
    {
      "anonymous": false,
      "inputs": [
        {
          "indexed": true,
          "internalType": "bytes32",
          "name": "role",
          "type": "bytes32"
        },
        {
          "indexed": true,
          "internalType": "bytes32",
          "name": "previousAdminRole",
          "type": "bytes32"
        },
        {
          "indexed": true,
          "internalType": "bytes32",
          "name": "newAdminRole",
          "type": "bytes32"
        }
      ],
      "name": "RoleAdminChanged",
      "type": "event"
    },
    {
      "anonymous": false,
      "inputs": [
        {
          "indexed": true,
          "internalType": "bytes32",
          "name": "role",
          "type": "bytes32"
        },
        {
          "indexed": true,
          "internalType": "address",
          "name": "account",
          "type": "address"
        },
        {
          "indexed": true,
          "internalType": "address",
          "name": "sender",
          "type": "address"
        }
      ],
      "name": "RoleGranted",
      "type": "event"
    },
    {
      "anonymous": false,
      "inputs": [
        {
          "indexed": true,
          "internalType": "bytes32",
          "name": "role",
          "type": "bytes32"
        },
        {
          "indexed": true,
          "internalType": "address",
          "name": "account",
          "type": "address"
        },
        {
          "indexed": true,
          "internalType": "address",
          "name": "sender",
          "type": "address"
        }
      ],
      "name": "RoleRevoked",
      "type": "event"
    },
    {
      "anonymous": false,
      "inputs": [
        {
          "indexed": true,
          "internalType": "address",
          "name": "user",
          "type": "address"
        },
        {
          "indexed": false,
          "internalType": "string",
          "name": "newTwitterHandle",
          "type": "string"
        }
      ],
      "name": "TwitterHandleUpdated",
      "type": "event"
    },
    {
      "anonymous": false,
      "inputs": [
        {
          "indexed": true,
          "internalType": "address",
          "name": "implementation",
          "type": "address"
        }
      ],
      "name": "Upgraded",
      "type": "event"
    },
    {
      "anonymous": false,
      "inputs": [
        {
          "indexed": true,
          "internalType": "address",
          "name": "user",
          "type": "address"
        },
        {
          "indexed": false,
          "internalType": "string",
          "name": "newUsername",
          "type": "string"
        }
      ],
      "name": "UsernameUpdated",
      "type": "event"
    },
    {
      "inputs": [],
      "name": "DEFAULT_ADMIN_ROLE",
      "outputs": [
        {
          "internalType": "bytes32",
          "name": "",
          "type": "bytes32"
        }
      ],
      "stateMutability": "view",
      "type": "function"
    },
    {
      "inputs": [],
      "name": "UPGRADER_ROLE",
      "outputs": [
        {
          "internalType": "bytes32",
          "name": "",
          "type": "bytes32"
        }
      ],
      "stateMutability": "view",
      "type": "function"
    },
    {
      "inputs": [],
      "name": "UPGRADE_INTERFACE_VERSION",
      "outputs": [
        {
          "internalType": "string",
          "name": "",
          "type": "string"
        }
      ],
      "stateMutability": "view",
      "type": "function"
    },
    {
      "inputs": [
        {
          "internalType": "uint256",
          "name": "_tokenId",
          "type": "uint256"
        }
      ],
      "name": "addBadgeToProfile",
      "outputs": [],
      "stateMutability": "nonpayable",
      "type": "function"
    },
    {
      "inputs": [
        {
          "internalType": "string",
          "name": "username",
          "type": "string"
        }
      ],
      "name": "addressForUsername",
      "outputs": [
        {
          "internalType": "address",
          "name": "",
          "type": "address"
        }
      ],
      "stateMutability": "view",
      "type": "function"
    },
    {
      "inputs": [],
      "name": "badgeMinter",
      "outputs": [
        {
          "internalType": "contract BadgeMinter",
          "name": "",
          "type": "address"
        }
      ],
      "stateMutability": "view",
      "type": "function"
    },
    {
      "inputs": [
        {
          "internalType": "address",
          "name": "_user",
          "type": "address"
        }
      ],
      "name": "cleanupInvalidBadges",
      "outputs": [],
      "stateMutability": "nonpayable",
      "type": "function"
    },
    {
      "inputs": [
        {
          "internalType": "address",
          "name": "_user",
          "type": "address"
        }
      ],
      "name": "getProfile",
      "outputs": [
        {
          "internalType": "string",
          "name": "username",
          "type": "string"
        },
        {
          "internalType": "uint256[]",
          "name": "badgeIds",
          "type": "uint256[]"
        },
        {
          "internalType": "string",
          "name": "twitterHandle",
          "type": "string"
        }
      ],
      "stateMutability": "view",
      "type": "function"
    },
    {
      "inputs": [
        {
          "internalType": "bytes32",
          "name": "role",
          "type": "bytes32"
        }
      ],
      "name": "getRoleAdmin",
      "outputs": [
        {
          "internalType": "bytes32",
          "name": "",
          "type": "bytes32"
        }
      ],
      "stateMutability": "view",
      "type": "function"
    },
    {
      "inputs": [
        {
          "internalType": "address",
          "name": "_user",
          "type": "address"
        }
      ],
      "name": "getUserBadges",
      "outputs": [
        {
          "internalType": "uint256[]",
          "name": "",
          "type": "uint256[]"
        }
      ],
      "stateMutability": "view",
      "type": "function"
    },
    {
      "inputs": [
        {
          "internalType": "address",
          "name": "_user",
          "type": "address"
        }
      ],
      "name": "getVerifiedUserBadges",
      "outputs": [
        {
          "internalType": "uint256[]",
          "name": "validBadges",
          "type": "uint256[]"
        }
      ],
      "stateMutability": "view",
      "type": "function"
    },
    {
      "inputs": [
        {
          "internalType": "bytes32",
          "name": "role",
          "type": "bytes32"
        },
        {
          "internalType": "address",
          "name": "account",
          "type": "address"
        }
      ],
      "name": "grantRole",
      "outputs": [],
      "stateMutability": "nonpayable",
      "type": "function"
    },
    {
      "inputs": [
        {
          "internalType": "bytes32",
          "name": "role",
          "type": "bytes32"
        },
        {
          "internalType": "address",
          "name": "account",
          "type": "address"
        }
      ],
      "name": "hasRole",
      "outputs": [
        {
          "internalType": "bool",
          "name": "",
          "type": "bool"
        }
      ],
      "stateMutability": "view",
      "type": "function"
    },
    {
      "inputs": [
        {
          "internalType": "address",
          "name": "_badgeMinterAddress",
          "type": "address"
        }
      ],
      "name": "initialize",
      "outputs": [],
      "stateMutability": "nonpayable",
      "type": "function"
    },
    {
      "inputs": [],
      "name": "proxiableUUID",
      "outputs": [
        {
          "internalType": "bytes32",
          "name": "",
          "type": "bytes32"
        }
      ],
      "stateMutability": "view",
      "type": "function"
    },
    {
      "inputs": [
        {
          "internalType": "uint256",
          "name": "_tokenId",
          "type": "uint256"
        }
      ],
      "name": "removeBadgeFromProfile",
      "outputs": [],
      "stateMutability": "nonpayable",
      "type": "function"
    },
    {
      "inputs": [
        {
          "internalType": "bytes32",
          "name": "role",
          "type": "bytes32"
        },
        {
          "internalType": "address",
          "name": "callerConfirmation",
          "type": "address"
        }
      ],
      "name": "renounceRole",
      "outputs": [],
      "stateMutability": "nonpayable",
      "type": "function"
    },
    {
      "inputs": [
        {
          "internalType": "bytes32",
          "name": "role",
          "type": "bytes32"
        },
        {
          "internalType": "address",
          "name": "account",
          "type": "address"
        }
      ],
      "name": "revokeRole",
      "outputs": [],
      "stateMutability": "nonpayable",
      "type": "function"
    },
    {
      "inputs": [
        {
          "internalType": "string",
          "name": "_twitterHandle",
          "type": "string"
        }
      ],
      "name": "setTwitterHandle",
      "outputs": [],
      "stateMutability": "nonpayable",
      "type": "function"
    },
    {
      "inputs": [
        {
          "internalType": "string",
          "name": "_username",
          "type": "string"
        }
      ],
      "name": "setUsername",
      "outputs": [],
      "stateMutability": "nonpayable",
      "type": "function"
    },
    {
      "inputs": [
        {
          "internalType": "bytes4",
          "name": "interfaceId",
          "type": "bytes4"
        }
      ],
      "name": "supportsInterface",
      "outputs": [
        {
          "internalType": "bool",
          "name": "",
          "type": "bool"
        }
      ],
      "stateMutability": "view",
      "type": "function"
    },
    {
      "inputs": [
        {
          "internalType": "address",
          "name": "",
          "type": "address"
        }
      ],
      "name": "twitterHandles",
      "outputs": [
        {
          "internalType": "string",
          "name": "",
          "type": "string"
        }
      ],
      "stateMutability": "view",
      "type": "function"
    },
    {
      "inputs": [
        {
          "internalType": "address",
          "name": "newImplementation",
          "type": "address"
        },
        {
          "internalType": "bytes",
          "name": "data",
          "type": "bytes"
        }
      ],
      "name": "upgradeToAndCall",
      "outputs": [],
      "stateMutability": "payable",
      "type": "function"
    },
    {
      "inputs": [
        {
          "internalType": "address",
          "name": "",
          "type": "address"
        },
        {
          "internalType": "uint256",
          "name": "",
          "type": "uint256"
        }
      ],
      "name": "userBadges",
      "outputs": [
        {
          "internalType": "uint256",
          "name": "",
          "type": "uint256"
        }
      ],
      "stateMutability": "view",
      "type": "function"
    },
    {
      "inputs": [
        {
          "internalType": "address",
          "name": "",
          "type": "address"
        }
      ],
      "name": "usernames",
      "outputs": [
        {
          "internalType": "string",
          "name": "",
          "type": "string"
        }
      ],
      "stateMutability": "view",
      "type": "function"
    }
  ],
  "bytecode": "0x60a080604052346100cc57306080527ff0c57e16840df040f15088dc2f81fe391c3923bec73e23a9662efc9c229c6a009081549060ff8260401c166100bd57506001600160401b036002600160401b031982821601610078575b604051611efb90816100d28239608051818181610eff0152610fb40152f35b6001600160401b031990911681179091556040519081527fc7f505b2f371ae2175ee4913f4499e1f2633a7b5936321eed1cdaeb6115181d290602090a1388080610059565b63f92ee8a960e01b8152600490fd5b600080fdfe6080604081815260048036101561001557600080fd5b600092833560e01c90816301ffc9a714611784575080630dfa0cd1146116295780630f53a4701461155b57806313a5cede14611520578063248a9ca3146114e95780632f2ff15d146114c05780632f57741c1461131057806336568abe146112c957806337c245fe146112435780634759d557146111fc5780634f1ef28614610f6357806352d1902d14610eea57806391d1485414610e97578063a217fddf14610e7c578063ad3cb1cc14610e10578063bb05adb414610c88578063c4d66de814610b0a578063d547741f14610abe578063df91cc2314610a65578063eb1d42111461085c578063ed59313a1461035e578063ee91877c1461030d578063f72c0d8b146102ce578063f7c33523146101605763fdcacdb31461013657600080fd5b3461015c578260031936011261015c575490516001600160a01b03909116815260209150f35b8280fd5b50903461015c57602090816003193601126102ca57823591610180611b1d565b33855260039360038252828620848752825260ff8387205416156102b3573386526002825282862090815495600019808801928884116102a0575090885b888110610270575b50506101df9394959650818103610232575b5050611aa0565b338452600381528184209083855252822060ff198154169055337fd2b3532a1ad1acd75f644acac1270475b0892f3ed9a83d6285752175a41ecebb8380a36001600080516020611ecf8339815191525580f35b6102506102426102699385611a2e565b90549060031b1c9184611a2e565b90919082549060031b91821b91600019901b1916179055565b38806101d8565b8761027b8287611a2e565b905490841b1c1461028e576001016101be565b969750879691506101df9050386101c6565b634e487b7160e01b8a5260119052602489fd5b82516353d1115960e11b8152908101849052602490fd5b8380fd5b505034610309578160031936011261030957602090517f189ab7a9244df0848122154315af71fe140f3db0fe014031783b0946b8c9d2e38152f35b5080fd5b5050346103095760203660031901126103095761035a916103479082906001600160a01b0361033a6117d8565b16815280602052206118f7565b905191829160208352602083019061182c565b0390f35b509190346103095761036f366119ef565b610377611b1d565b80511561084c5760208082511161083c57835b825181101561044e576001600160f81b03196103a68285611b0c565b5116600360fc1b81101580610440575b15908161041b575b816103f6575b816103e7575b506103d75760010161038a565b83516318954fab60e11b81528690fd5b605f60f81b14159050386103ca565b9050606160f81b8110158061040d575b15906103c4565b50603d60f91b811115610406565b9050604160f81b81101580610432575b15906103be565b50602d60f91b81111561042b565b50603960f81b8111156103b6565b509192908051926104766104618561199c565b9461046e875196876118bf565b80865261199c565b94818501601f19809701368237845b845181101561053c576104988186611b0c565b51604160f891821c101580610525575b156104fa57846104b88388611b0c565b51821c0160ff81116104e757600192911b6001600160f81b031916871a6104df828a611b0c565b535b01610485565b634e487b7160e01b885260118b52602488fd5b506001906001600160f81b03196105118288611b0c565b5116871a61051f828a611b0c565b536104e1565b50605a6105328388611b0c565b51821c11156104a8565b8589858986868d8251958451610553818986611809565b60019088018181528890038701909720546001600160a01b03168015159081610831575b5061080d5733885287865283882086815461059181611885565b61077d575b5050503388528786528388209185519167ffffffffffffffff831161076a57509082916105c588959454611885565b601f8111610714575b508490601f831160011461068857509261063692827f1af4cc3acb57f067d1d582e3932be6692a4c9a31d8b3a8567dfc1c340a02d53498969361066798968d9161067d575b50600019600383901b1c1916908b1b1790555b8351809381928751928391611809565b810189815203019020336bffffffffffffffffffffffff60a01b82541617905551918291858352339583019061182c565b0390a2600080516020611ecf8339815191525580f35b90508701518d610613565b838b52858b208a9392909183168c5b8181106106fc57509261063695927f1af4cc3acb57f067d1d582e3932be6692a4c9a31d8b3a8567dfc1c340a02d5349a989592826106679b9996106106e3575b5050811b019055610626565b89015160001960f88460031b161c191690558d806106d7565b828b015184558b988d96909401939283019201610697565b909192809495508a52878a20601f840160051c810191898510610760575b89969594939291601f8c920160051c01915b8281106107525750506105ce565b8c81558a97508b9101610744565b9091508190610732565b634e487b7160e01b8a5260419052602489fd5b86519283918c9161078d82611885565b918d81169081156107f657506001146107c0575b50508a81520301902080546001600160a01b0319169055888681610596565b9091508c52828c208b8d915b8383106107df5750505081018c806107a1565b8054878401528c95879550909201918d91016107cc565b60ff19168552505080151502820190508c806107a1565b8351637848a5eb60e01b81529081018690528061082d602482018761182c565b0390fd5b905033141589610577565b8251637dcc042f60e11b81528590fd5b8151635d728ced60e11b81528490fd5b503461015c576020806003193601126102ca579091906001600160a01b03806108836117d8565b16918286526002815283862095845180978891848254918281520191845284842090845b818110610a4e57505050906108bd9103886118bf565b8094819084885416915b89518110156109615786866108dc838d611ae0565b518451906331a9108f60e11b82528c8201528781602481895afa879181610932575b5061090f575b5050506001016108c7565b161461091e575b868638610904565b9661092a600191611a7b565b979050610916565b610953919250893d8b1161095a575b61094b81836118bf565b810190611a5c565b90386108fe565b503d610941565b509597949392919061097289611af4565b9861097f88519a8b6118bf565b808a5261098e601f1991611af4565b0136848b01378196825b8751811015610a3c578a87878c6109af858d611ae0565b5186516331a9108f60e11b81529182015288816024818a5afa889181610a1d575b506109e2575b50505050600101610998565b16146109f1575b8787386109d6565b89610a1491610a0e849c610a076001968e611ae0565b5192611ae0565b52611a7b565b9890508a6109e9565b610a359192508a3d8c1161095a5761094b81836118bf565b90386109d0565b81518581528061035a8188018e611851565b825484528b945092860192600192830192016108a7565b505034610309578060031936011261030957610a7f6117d8565b6001600160a01b03168252600260205280822080546024359390841015610abb5750602092610aad91611a2e565b91905490519160031b1c8152f35b80fd5b50903461015c578060031936011261015c57610b069135610b016001610ae26117f3565b93838752600080516020611eaf83398151915260205286200154611b4d565b611d87565b5080f35b503461015c57602036600319011261015c57610b246117d8565b7ff0c57e16840df040f15088dc2f81fe391c3923bec73e23a9662efc9c229c6a009182549160ff83861c16159267ffffffffffffffff811680159081610c80575b6001149081610c76575b159081610c6d575b50610c5d5767ffffffffffffffff198116600117855583610c3e575b50610b9c611e0a565b610ba4611e0a565b610bac611e0a565b6001600080516020611ecf83398151915255610bc6611e0a565b610bcf33611b9e565b50610bd933611c3e565b5081546001600160a01b0319166001600160a01b0391909116179055610bfd578280f35b805468ff00000000000000001916905551600181527fc7f505b2f371ae2175ee4913f4499e1f2633a7b5936321eed1cdaeb6115181d290602090a138808280f35b68ffffffffffffffffff19166801000000000000000117845538610b93565b855163f92ee8a960e01b81528390fd5b90501538610b77565b303b159150610b6f565b859150610b65565b50903461015c576020806003193601126102ca57610ca46117d8565b610cac611b1d565b6001600160a01b0390811680865260028352838620938693919291845b8654861015610ddf57610cdc8688611a2e565b9054600391821b1c8a87878c838886602485855416948d5195869384926331a9108f60e11b84528301525afa909181610dc0575b50610da9575b505050600014610d62575081610d36918860019403610d3f575b50611a7b565b955b0194610cc9565b610d5c90610d4d8a8c611a2e565b9054911b1c610250838c611a2e565b38610d30565b6001929791878c528452848b20818c528452848b2060ff198154169055867fd2b3532a1ad1acd75f644acac1270475b0892f3ed9a83d6285752175a41ecebb8c80a3610d38565b1614610db8575b878738610d16565b506001610db0565b610dd8919250893d8b1161095a5761094b81836118bf565b9038610d10565b8689915b8082541115610dfa57610df582611aa0565b610de3565b826001600080516020611ecf8339815191525580f35b509190346103095781600319360112610309578051918183019083821067ffffffffffffffff831117610e69575061035a9350815260058252640352e302e360dc1b60208301525191829160208352602083019061182c565b634e487b7160e01b815260418552602490fd5b50503461030957816003193601126103095751908152602090f35b503461015c578160031936011261015c578160209360ff92610eb76117f3565b90358252600080516020611eaf83398151915286528282206001600160a01b039091168252855220549151911615158152f35b509134610abb5780600319360112610abb57507f00000000000000000000000000000000000000000000000000000000000000006001600160a01b03163003610f5657602090517f360894a13ba1a3210667c828492db98dca3e2076cc3735a920a3ca505d382bbc8152f35b5163703e46dd60e11b8152fd5b50908060031936011261015c57610f786117d8565b90602493843567ffffffffffffffff8111610309573660238201121561030957610faa903690878188013591016119b8565b6001600160a01b037f000000000000000000000000000000000000000000000000000000000000000081163081149081156111ce575b506111be577f189ab7a9244df0848122154315af71fe140f3db0fe014031783b0946b8c9d2e390818452602091600080516020611eaf8339815191528352858520338652835260ff8686205416156111a1575085169484516352d1902d60e01b8152828189818a5afa85918161116e575b5061106c5750505050505191634c9c8ce360e01b8352820152fd5b90878787938b7f360894a13ba1a3210667c828492db98dca3e2076cc3735a920a3ca505d382bbc918281036111595750843b15611145575080546001600160a01b0319168217905583518792917fbc7cd75a20ee27fd9adebab32041f755214dbc6bffa90cc0225b39da2e5c2d3b8480a2865115611128575050808585610b0697519101845af4913d1561111e573d6111106111078261199c565b925192836118bf565b81528581943d92013e611e4b565b5060609250611e4b565b945094505050503461113957505080f35b63b398979f60e01b8152fd5b8551634c9c8ce360e01b8152808501849052fd5b8651632a87526960e21b815280860191909152fd5b9091508381813d831161119a575b61118681836118bf565b8101031261119657519038611051565b8580fd5b503d61117c565b855163e2517d3f60e01b815233818a0152808a0191909152604490fd5b835163703e46dd60e11b81528690fd5b9050817f360894a13ba1a3210667c828492db98dca3e2076cc3735a920a3ca505d382bbc5416141538610fe0565b5050346103095760209061120f366119ef565b8261122283519283815193849201611809565b6001908201908152819003830190205490516001600160a01b039091168152f35b505034610309576020908160031936011261015c576001600160a01b036112686117d8565b16835260028252808320815190819485928583549182815201928252858220915b868282106112b257859061035a886112a3848903856118bf565b51928284938452830190611851565b835485528895509093019260019283019201611289565b509190346103095780600319360112610309576112e46117f3565b90336001600160a01b038316036113015750610b06919235611d87565b5163334bd91960e11b81528390fd5b50903461015c57611320366119ef565b90611329611b1d565b338452602092600584528185209083519067ffffffffffffffff82116114ad57506113548254611885565b601f811161146a575b5084601f82116001146113e35791816113c094927f8c336f0d3f81167bb573ec2ae392a4ae4cd4f3d2d180fedbf34fd9d6e8853886969489916113d8575b508160011b916000199060031b1c19161790555b51918291858352339583019061182c565b0390a26001600080516020611ecf8339815191525580f35b90508401513861139b565b82875285872090601f198316885b88828210611454575050927f8c336f0d3f81167bb573ec2ae392a4ae4cd4f3d2d180fedbf34fd9d6e8853886969492600192826113c098961061143b575b5050811b0190556113af565b86015160001960f88460031b161c19169055388061142f565b600184958293958b0151815501940192016113f1565b828752858720601f830160051c8101918784106114a3575b601f0160051c01905b818110611498575061135d565b87815560010161148b565b9091508190611482565b634e487b7160e01b875260419052602486fd5b50903461015c578060031936011261015c57610b0691356114e46001610ae26117f3565b611d00565b503461015c57602036600319011261015c5781602093600192358152600080516020611eaf83398151915285522001549051908152f35b5050346103095760203660031901126103095761035a916103479082906001600160a01b0361154d6117d8565b1681526005602052206118f7565b505034610309576020908160031936011261015c576001600160a01b036115806117d8565b168084528383526115928285206118f7565b92818552600281528285209483519283838854918281520197835283832090835b81811061161557505050916115e7856116089386956115db61035a99986115fb9c03886118bf565b815260058452206118f7565b92845197889760608952606089019061182c565b9187830390880152611851565b918483039085015261182c565b82548a5298850198600192830192016115b3565b50903461015c576020806003193601126102ca57823592611648611b1d565b805483516331a9108f60e11b8152808301869052906001600160a01b039084908390602490829085165afa91821561177a57879261175b575b50339116036117445733855260038252828520848652825260ff838620541661172d5733855260028252828520805491680100000000000000008310156114ad575061025082869260016116d795018155611a2e565b3384526003815281842090838552528220600160ff19825416179055337f39b71768057731b61544ffd71f740ea7c802434fdeb553cc7cd9f5b2841a1aca8380a36001600080516020611ecf8339815191525580f35b825163f3ee6e4160e01b8152908101849052602490fd5b8251631f0b895d60e21b8152908101849052602490fd5b611773919250843d861161095a5761094b81836118bf565b9038611681565b85513d89823e3d90fd5b9250503461015c57602036600319011261015c573563ffffffff60e01b811680910361015c5760209250637965db0b60e01b81149081156117c7575b5015158152f35b6301ffc9a760e01b149050386117c0565b600435906001600160a01b03821682036117ee57565b600080fd5b602435906001600160a01b03821682036117ee57565b60005b83811061181c5750506000910152565b818101518382015260200161180c565b9060209161184581518092818552858086019101611809565b601f01601f1916010190565b90815180825260208080930193019160005b828110611871575050505090565b835185529381019392810192600101611863565b90600182811c921680156118b5575b602083101461189f57565b634e487b7160e01b600052602260045260246000fd5b91607f1691611894565b90601f8019910116810190811067ffffffffffffffff8211176118e157604052565b634e487b7160e01b600052604160045260246000fd5b9060405191826000825461190a81611885565b9081845260209460019160018116908160001461197a575060011461193b575b505050611939925003836118bf565b565b600090815285812095935091905b818310611962575050611939935082010138808061192a565b85548884018501529485019487945091830191611949565b9250505061193994925060ff191682840152151560051b82010138808061192a565b67ffffffffffffffff81116118e157601f01601f191660200190565b9291926119c48261199c565b916119d260405193846118bf565b8294818452818301116117ee578281602093846000960137010152565b60206003198201126117ee576004359067ffffffffffffffff82116117ee57806023830112156117ee57816024611a2b936004013591016119b8565b90565b8054821015611a465760005260206000200190600090565b634e487b7160e01b600052603260045260246000fd5b908160209103126117ee57516001600160a01b03811681036117ee5790565b6000198114611a8a5760010190565b634e487b7160e01b600052601160045260246000fd5b8054908115611aca5760001991820191611aba8383611a2e565b909182549160031b1b1916905555565b634e487b7160e01b600052603160045260246000fd5b8051821015611a465760209160051b010190565b67ffffffffffffffff81116118e15760051b60200190565b908151811015611a46570160200190565b600080516020611ecf8339815191526002815414611b3b5760029055565b604051633ee5aeb560e01b8152600490fd5b80600052600080516020611eaf83398151915260205260406000203360005260205260ff6040600020541615611b805750565b6044906040519063e2517d3f60e01b82523360048301526024820152fd5b6001600160a01b031660008181527fb7db2dd08fcb62d0c9e08c51941cae53c267786a0b75803fb7960902fc8ef97d6020526040812054909190600080516020611eaf8339815191529060ff16611c39578280526020526040822081835260205260408220600160ff1982541617905533917f2f8788117e7eff1d82e926ec794901d17c78024a50270940304540a733656f0d8180a4600190565b505090565b6001600160a01b031660008181527fab71e3f32666744d246edff3f96e4bdafee2e9867098cdd118a979a7464786a860205260408120549091907f189ab7a9244df0848122154315af71fe140f3db0fe014031783b0946b8c9d2e390600080516020611eaf8339815191529060ff16611cfa578184526020526040832082845260205260408320600160ff198254161790557f2f8788117e7eff1d82e926ec794901d17c78024a50270940304540a733656f0d339380a4600190565b50505090565b90600091808352600080516020611eaf83398151915280602052604084209260018060a01b03169283855260205260ff60408520541615600014611cfa578184526020526040832082845260205260408320600160ff198254161790557f2f8788117e7eff1d82e926ec794901d17c78024a50270940304540a733656f0d339380a4600190565b90600091808352600080516020611eaf83398151915280602052604084209260018060a01b03169283855260205260ff604085205416600014611cfa57818452602052604083208284526020526040832060ff1981541690557ff6391f5c32d9c69d2a47ea670b442974b53935d1edc7fd64eb21e047a839171b339380a4600190565b60ff7ff0c57e16840df040f15088dc2f81fe391c3923bec73e23a9662efc9c229c6a005460401c1615611e3957565b604051631afcd79f60e31b8152600490fd5b90611e725750805115611e6057602081519101fd5b60405163d6bda27560e01b8152600490fd5b81511580611ea5575b611e83575090565b604051639996b31560e01b81526001600160a01b039091166004820152602490fd5b50803b15611e7b56fe02dd7bc7dec4dceedda775e58dd541e08a116c6c53815c0bd028192f7b6268009b779b17422d0df92223018b32b4d1fa46e071723d6817e2486d003becc55f00a164736f6c6343000816000a",
  "linkReferences": {},
  "deployedLinkReferences": {}
}