{
  "_format": "hh-sol-artifact-1",
  "contractName": "ForgeUtilityManager",
  "sourceName": "contracts/ForgeUtilityManager.sol",
  "abi": [
    {
      "inputs": [],
      "name": "AccessControlBadConfirmation",
      "type": "error"
    },
    {
      "inputs": [
        {
          "internalType": "address",
          "name": "account",
          "type": "address"
        },
        {
          "internalType": "bytes32",
          "name": "neededRole",
          "type": "bytes32"
        }
      ],
      "name": "AccessControlUnauthorizedAccount",
      "type": "error"
    },
    {
      "inputs": [],
      "name": "EnforcedPause",
      "type": "error"
    },
    {
      "inputs": [],
      "name": "ExpectedPause",
      "type": "error"
    },
    {
      "inputs": [],
      "name": "FeatureDisabled",
      "type": "error"
    },
    {
      "inputs": [],
      "name": "InsufficientBalance",
      "type": "error"
    },
    {
      "inputs": [],
      "name": "InvalidConfiguration",
      "type": "error"
    },
    {
      "inputs": [],
      "name": "InvalidInitialization",
      "type": "error"
    },
    {
      "inputs": [],
      "name": "InvalidTierLevel",
      "type": "error"
    },
    {
      "inputs": [],
      "name": "NotInitializing",
      "type": "error"
    },
    {
      "inputs": [],
      "name": "ReentrancyGuardReentrantCall",
      "type": "error"
    },
    {
      "inputs": [],
      "name": "UnauthorizedToken",
      "type": "error"
    },
    {
      "anonymous": false,
      "inputs": [
        {
          "indexed": true,
          "internalType": "address",
          "name": "user",
          "type": "address"
        },
        {
          "indexed": false,
          "internalType": "uint256",
          "name": "participationScore",
          "type": "uint256"
        }
      ],
      "name": "GovernanceParticipation",
      "type": "event"
    },
    {
      "anonymous": false,
      "inputs": [
        {
          "indexed": false,
          "internalType": "uint64",
          "name": "version",
          "type": "uint64"
        }
      ],
      "name": "Initialized",
      "type": "event"
    },
    {
      "anonymous": false,
      "inputs": [
        {
          "indexed": false,
          "internalType": "address",
          "name": "account",
          "type": "address"
        }
      ],
      "name": "Paused",
      "type": "event"
    },
    {
      "anonymous": false,
      "inputs": [
        {
          "indexed": true,
          "internalType": "address",
          "name": "user",
          "type": "address"
        },
        {
          "indexed": false,
          "internalType": "bool",
          "name": "isPremium",
          "type": "bool"
        },
        {
          "indexed": false,
          "internalType": "uint8",
          "name": "tierLevel",
          "type": "uint8"
        }
      ],
      "name": "PremiumStatusChanged",
      "type": "event"
    },
    {
      "anonymous": false,
      "inputs": [
        {
          "indexed": true,
          "internalType": "uint8",
          "name": "tier",
          "type": "uint8"
        },
        {
          "indexed": false,
          "internalType": "uint256",
          "name": "requiredBalance",
          "type": "uint256"
        },
        {
          "indexed": false,
          "internalType": "uint32",
          "name": "stakingBonus",
          "type": "uint32"
        },
        {
          "indexed": false,
          "internalType": "uint32",
          "name": "governanceBonus",
          "type": "uint32"
        }
      ],
      "name": "PremiumTierUpdated",
      "type": "event"
    },
    {
      "anonymous": false,
      "inputs": [
        {
          "indexed": true,
          "internalType": "bytes32",
          "name": "role",
          "type": "bytes32"
        },
        {
          "indexed": true,
          "internalType": "bytes32",
          "name": "previousAdminRole",
          "type": "bytes32"
        },
        {
          "indexed": true,
          "internalType": "bytes32",
          "name": "newAdminRole",
          "type": "bytes32"
        }
      ],
      "name": "RoleAdminChanged",
      "type": "event"
    },
    {
      "anonymous": false,
      "inputs": [
        {
          "indexed": true,
          "internalType": "bytes32",
          "name": "role",
          "type": "bytes32"
        },
        {
          "indexed": true,
          "internalType": "address",
          "name": "account",
          "type": "address"
        },
        {
          "indexed": true,
          "internalType": "address",
          "name": "sender",
          "type": "address"
        }
      ],
      "name": "RoleGranted",
      "type": "event"
    },
    {
      "anonymous": false,
      "inputs": [
        {
          "indexed": true,
          "internalType": "bytes32",
          "name": "role",
          "type": "bytes32"
        },
        {
          "indexed": true,
          "internalType": "address",
          "name": "account",
          "type": "address"
        },
        {
          "indexed": true,
          "internalType": "address",
          "name": "sender",
          "type": "address"
        }
      ],
      "name": "RoleRevoked",
      "type": "event"
    },
    {
      "anonymous": false,
      "inputs": [
        {
          "indexed": false,
          "internalType": "uint256",
          "name": "baseStakingPower",
          "type": "uint256"
        },
        {
          "indexed": false,
          "internalType": "uint256",
          "name": "premiumBonusRate",
          "type": "uint256"
        },
        {
          "indexed": false,
          "internalType": "uint256",
          "name": "governanceBonusRate",
          "type": "uint256"
        }
      ],
      "name": "StakingConfigUpdated",
      "type": "event"
    },
    {
      "anonymous": false,
      "inputs": [
        {
          "indexed": false,
          "internalType": "address",
          "name": "account",
          "type": "address"
        }
      ],
      "name": "Unpaused",
      "type": "event"
    },
    {
      "anonymous": false,
      "inputs": [
        {
          "indexed": true,
          "internalType": "address",
          "name": "user",
          "type": "address"
        },
        {
          "indexed": false,
          "internalType": "uint32",
          "name": "stakingPower",
          "type": "uint32"
        },
        {
          "indexed": false,
          "internalType": "uint32",
          "name": "governancePower",
          "type": "uint32"
        },
        {
          "indexed": false,
          "internalType": "uint8",
          "name": "premiumTier",
          "type": "uint8"
        }
      ],
      "name": "UtilityUpdated",
      "type": "event"
    },
    {
      "inputs": [],
      "name": "DEFAULT_ADMIN_ROLE",
      "outputs": [
        {
          "internalType": "bytes32",
          "name": "",
          "type": "bytes32"
        }
      ],
      "stateMutability": "view",
      "type": "function"
    },
    {
      "inputs": [],
      "name": "GOVERNANCE_ROLE",
      "outputs": [
        {
          "internalType": "bytes32",
          "name": "",
          "type": "bytes32"
        }
      ],
      "stateMutability": "view",
      "type": "function"
    },
    {
      "inputs": [],
      "name": "STAKING_MANAGER_ROLE",
      "outputs": [
        {
          "internalType": "bytes32",
          "name": "",
          "type": "bytes32"
        }
      ],
      "stateMutability": "view",
      "type": "function"
    },
    {
      "inputs": [],
      "name": "UTILITY_ADMIN_ROLE",
      "outputs": [
        {
          "internalType": "bytes32",
          "name": "",
          "type": "bytes32"
        }
      ],
      "stateMutability": "view",
      "type": "function"
    },
    {
      "inputs": [],
      "name": "forgeToken",
      "outputs": [
        {
          "internalType": "contract IForgeTokenCore",
          "name": "",
          "type": "address"
        }
      ],
      "stateMutability": "view",
      "type": "function"
    },
    {
      "inputs": [
        {
          "internalType": "uint8",
          "name": "tierLevel",
          "type": "uint8"
        }
      ],
      "name": "getPremiumTier",
      "outputs": [
        {
          "internalType": "uint256",
          "name": "requiredBalance",
          "type": "uint256"
        },
        {
          "internalType": "uint32",
          "name": "stakingBonus",
          "type": "uint32"
        },
        {
          "internalType": "uint32",
          "name": "governanceBonus",
          "type": "uint32"
        },
        {
          "internalType": "uint8",
          "name": "feeDiscount",
          "type": "uint8"
        }
      ],
      "stateMutability": "view",
      "type": "function"
    },
    {
      "inputs": [
        {
          "internalType": "bytes32",
          "name": "role",
          "type": "bytes32"
        }
      ],
      "name": "getRoleAdmin",
      "outputs": [
        {
          "internalType": "bytes32",
          "name": "",
          "type": "bytes32"
        }
      ],
      "stateMutability": "view",
      "type": "function"
    },
    {
      "inputs": [
        {
          "internalType": "address",
          "name": "user",
          "type": "address"
        }
      ],
      "name": "getUserUtility",
      "outputs": [
        {
          "internalType": "uint32",
          "name": "stakingPower",
          "type": "uint32"
        },
        {
          "internalType": "uint32",
          "name": "governancePower",
          "type": "uint32"
        },
        {
          "internalType": "uint8",
          "name": "premiumTier",
          "type": "uint8"
        },
        {
          "internalType": "bool",
          "name": "isPremium",
          "type": "bool"
        }
      ],
      "stateMutability": "view",
      "type": "function"
    },
    {
      "inputs": [],
      "name": "getUtilityStats",
      "outputs": [
        {
          "internalType": "uint256",
          "name": "totalPremium",
          "type": "uint256"
        },
        {
          "internalType": "uint256",
          "name": "totalStaking",
          "type": "uint256"
        }
      ],
      "stateMutability": "view",
      "type": "function"
    },
    {
      "inputs": [],
      "name": "governanceFeaturesEnabled",
      "outputs": [
        {
          "internalType": "bool",
          "name": "",
          "type": "bool"
        }
      ],
      "stateMutability": "view",
      "type": "function"
    },
    {
      "inputs": [
        {
          "internalType": "address",
          "name": "",
          "type": "address"
        }
      ],
      "name": "governanceParticipation",
      "outputs": [
        {
          "internalType": "uint256",
          "name": "",
          "type": "uint256"
        }
      ],
      "stateMutability": "view",
      "type": "function"
    },
    {
      "inputs": [
        {
          "internalType": "bytes32",
          "name": "role",
          "type": "bytes32"
        },
        {
          "internalType": "address",
          "name": "account",
          "type": "address"
        }
      ],
      "name": "grantRole",
      "outputs": [],
      "stateMutability": "nonpayable",
      "type": "function"
    },
    {
      "inputs": [
        {
          "internalType": "bytes32",
          "name": "role",
          "type": "bytes32"
        },
        {
          "internalType": "address",
          "name": "account",
          "type": "address"
        }
      ],
      "name": "hasRole",
      "outputs": [
        {
          "internalType": "bool",
          "name": "",
          "type": "bool"
        }
      ],
      "stateMutability": "view",
      "type": "function"
    },
    {
      "inputs": [
        {
          "internalType": "address",
          "name": "_forgeToken",
          "type": "address"
        }
      ],
      "name": "initialize",
      "outputs": [],
      "stateMutability": "nonpayable",
      "type": "function"
    },
    {
      "inputs": [
        {
          "internalType": "address",
          "name": "",
          "type": "address"
        }
      ],
      "name": "lastGovernanceActivity",
      "outputs": [
        {
          "internalType": "uint256",
          "name": "",
          "type": "uint256"
        }
      ],
      "stateMutability": "view",
      "type": "function"
    },
    {
      "inputs": [],
      "name": "pause",
      "outputs": [],
      "stateMutability": "nonpayable",
      "type": "function"
    },
    {
      "inputs": [],
      "name": "paused",
      "outputs": [
        {
          "internalType": "bool",
          "name": "",
          "type": "bool"
        }
      ],
      "stateMutability": "view",
      "type": "function"
    },
    {
      "inputs": [],
      "name": "premiumFeaturesEnabled",
      "outputs": [
        {
          "internalType": "bool",
          "name": "",
          "type": "bool"
        }
      ],
      "stateMutability": "view",
      "type": "function"
    },
    {
      "inputs": [
        {
          "internalType": "uint8",
          "name": "",
          "type": "uint8"
        }
      ],
      "name": "premiumTiers",
      "outputs": [
        {
          "internalType": "uint256",
          "name": "requiredBalance",
          "type": "uint256"
        },
        {
          "internalType": "uint32",
          "name": "stakingBonus",
          "type": "uint32"
        },
        {
          "internalType": "uint32",
          "name": "governanceBonus",
          "type": "uint32"
        },
        {
          "internalType": "uint8",
          "name": "feeDiscount",
          "type": "uint8"
        },
        {
          "internalType": "bool",
          "name": "isActive",
          "type": "bool"
        }
      ],
      "stateMutability": "view",
      "type": "function"
    },
    {
      "inputs": [
        {
          "internalType": "address",
          "name": "user",
          "type": "address"
        },
        {
          "internalType": "uint256",
          "name": "participationWeight",
          "type": "uint256"
        }
      ],
      "name": "recordGovernanceParticipation",
      "outputs": [],
      "stateMutability": "nonpayable",
      "type": "function"
    },
    {
      "inputs": [
        {
          "internalType": "bytes32",
          "name": "role",
          "type": "bytes32"
        },
        {
          "internalType": "address",
          "name": "callerConfirmation",
          "type": "address"
        }
      ],
      "name": "renounceRole",
      "outputs": [],
      "stateMutability": "nonpayable",
      "type": "function"
    },
    {
      "inputs": [
        {
          "internalType": "bytes32",
          "name": "role",
          "type": "bytes32"
        },
        {
          "internalType": "address",
          "name": "account",
          "type": "address"
        }
      ],
      "name": "revokeRole",
      "outputs": [],
      "stateMutability": "nonpayable",
      "type": "function"
    },
    {
      "inputs": [
        {
          "internalType": "bool",
          "name": "enabled",
          "type": "bool"
        }
      ],
      "name": "setGovernanceFeaturesEnabled",
      "outputs": [],
      "stateMutability": "nonpayable",
      "type": "function"
    },
    {
      "inputs": [
        {
          "internalType": "bool",
          "name": "enabled",
          "type": "bool"
        }
      ],
      "name": "setPremiumFeaturesEnabled",
      "outputs": [],
      "stateMutability": "nonpayable",
      "type": "function"
    },
    {
      "inputs": [
        {
          "internalType": "bool",
          "name": "enabled",
          "type": "bool"
        }
      ],
      "name": "setStakingEnabled",
      "outputs": [],
      "stateMutability": "nonpayable",
      "type": "function"
    },
    {
      "inputs": [],
      "name": "stakingConfig",
      "outputs": [
        {
          "internalType": "uint256",
          "name": "baseStakingPower",
          "type": "uint256"
        },
        {
          "internalType": "uint256",
          "name": "premiumBonusRate",
          "type": "uint256"
        },
        {
          "internalType": "uint256",
          "name": "governanceBonusRate",
          "type": "uint256"
        },
        {
          "internalType": "bool",
          "name": "stakingEnabled",
          "type": "bool"
        },
        {
          "internalType": "uint256",
          "name": "balanceBonusRate",
          "type": "uint256"
        }
      ],
      "stateMutability": "view",
      "type": "function"
    },
    {
      "inputs": [
        {
          "internalType": "bytes4",
          "name": "interfaceId",
          "type": "bytes4"
        }
      ],
      "name": "supportsInterface",
      "outputs": [
        {
          "internalType": "bool",
          "name": "",
          "type": "bool"
        }
      ],
      "stateMutability": "view",
      "type": "function"
    },
    {
      "inputs": [],
      "name": "totalPremiumUsers",
      "outputs": [
        {
          "internalType": "uint256",
          "name": "",
          "type": "uint256"
        }
      ],
      "stateMutability": "view",
      "type": "function"
    },
    {
      "inputs": [],
      "name": "totalStakingPower",
      "outputs": [
        {
          "internalType": "uint256",
          "name": "",
          "type": "uint256"
        }
      ],
      "stateMutability": "view",
      "type": "function"
    },
    {
      "inputs": [],
      "name": "unpause",
      "outputs": [],
      "stateMutability": "nonpayable",
      "type": "function"
    },
    {
      "inputs": [
        {
          "internalType": "uint8",
          "name": "tierLevel",
          "type": "uint8"
        },
        {
          "internalType": "uint256",
          "name": "requiredBalance",
          "type": "uint256"
        },
        {
          "internalType": "uint32",
          "name": "stakingBonus",
          "type": "uint32"
        },
        {
          "internalType": "uint32",
          "name": "governanceBonus",
          "type": "uint32"
        },
        {
          "internalType": "uint8",
          "name": "feeDiscount",
          "type": "uint8"
        }
      ],
      "name": "updatePremiumTier",
      "outputs": [],
      "stateMutability": "nonpayable",
      "type": "function"
    },
    {
      "inputs": [
        {
          "internalType": "uint256",
          "name": "baseStakingPower",
          "type": "uint256"
        },
        {
          "internalType": "uint256",
          "name": "premiumBonusRate",
          "type": "uint256"
        },
        {
          "internalType": "uint256",
          "name": "governanceBonusRate",
          "type": "uint256"
        }
      ],
      "name": "updateStakingConfig",
      "outputs": [],
      "stateMutability": "nonpayable",
      "type": "function"
    },
    {
      "inputs": [
        {
          "internalType": "address",
          "name": "user",
          "type": "address"
        }
      ],
      "name": "updateUserUtility",
      "outputs": [],
      "stateMutability": "nonpayable",
      "type": "function"
    },
    {
      "inputs": [
        {
          "internalType": "address",
          "name": "",
          "type": "address"
        }
      ],
      "name": "userUtilities",
      "outputs": [
        {
          "internalType": "uint32",
          "name": "stakingPower",
          "type": "uint32"
        },
        {
          "internalType": "uint32",
          "name": "governancePower",
          "type": "uint32"
        },
        {
          "internalType": "uint8",
          "name": "premiumTierLevel",
          "type": "uint8"
        },
        {
          "internalType": "uint8",
          "name": "governanceLevel",
          "type": "uint8"
        },
        {
          "internalType": "uint32",
          "name": "lastActivity",
          "type": "uint32"
        },
        {
          "internalType": "bool",
          "name": "isPremiumActive",
          "type": "bool"
        }
      ],
      "stateMutability": "view",
      "type": "function"
    }
  ],
  "bytecode": "0x608080604052346100165761208f908161001c8239f35b600080fdfe608080604052600436101561001357600080fd5b600090813560e01c90816301ffc9a714611588575080630602a15c1461154f57806314885134146113d65780631518900c1461139e578063248a9ca3146113645780632f2ff15d1461131957806332be8302146112f4578063340e1a4d146112d657806336568abe1461128e57806336829dfc146112495780633937c0b31461120e5780633e93065e146111eb5780633f4ba83a1461117357806342cb108e146110e75780635c975abb146110b75780637561a15d14610d5d5780637f8d4a3e14610d1e5780638456cb5914610cb65780638b6de93714610c5057806391d1485414610bf75780639a8efe7e14610bbe578063a217fddf14610ba2578063a2cbf3f314610b7c578063a8e4a49414610b41578063ac5b617e146109d0578063b0163862146109b2578063b3ab1654146108eb578063bb9ed1b1146108c4578063bce8567e14610888578063bebd1d761461080d578063c4d66de81461028b578063d547741f1461023c578063ea1e8d61146101d45763f36c8f5c1461019757600080fd5b346101d157806003193601126101d15760206040517f71840dc4906352362b0cdaf79870196c8e42acafade72d5d5a6d59291253ceb18152f35b80fd5b50346101d15760203660031901126101d157604060a09160ff6101f5611609565b16815260076020522060ff6001825492015463ffffffff60405193845280821660208501528160201c166040840152818160401c16606084015260481c1615156080820152f35b50346101d15760403660031901126101d15761028760043561025c6115f3565b908084526000805160206120438339815191526020526102826001604086200154611724565b611b27565b5080f35b50346101d15760203660031901126101d1576102a56115dd565b7ff0c57e16840df040f15088dc2f81fe391c3923bec73e23a9662efc9c229c6a009081549060ff8260401c16159167ffffffffffffffff811680159081610805575b60011490816107fb575b1590816107f2575b506107e05767ffffffffffffffff1981166001178455826107c1575b5061031e611fe1565b610326611fe1565b61032e611fe1565b610336611fe1565b60017f9b779b17422d0df92223018b32b4d1fa46e071723d6817e2486d003becc55f005561036333611820565b5061036d336118ae565b506103773361195e565b5061038133611a08565b5083546001600160a01b0319166001600160a01b03919091161783556040516005906080906103af81611650565b606481526019602082015260326040820152600160608201520152606460015560196002556032600355600160ff196004541617600455600580556040516103f681611650565b69021e19e0c9bab24000008152600a60208201526005604082015260196060820152600160808201526001845260076020526001608060408620928051845563ffffffff60208201511663ffffffff198486015416178385015561048163ffffffff6040830151168486019063ffffffff60201b82549160201b169063ffffffff60201b1916179055565b6104a960ff6060830151168486019060ff60401b82549160401b169060ff60401b1916179055565b0151151560ff60481b828401549160481b169060ff60481b1916179101556040516104d381611650565b690a968163f0a57b40000081528361056c60ff60208401936019855261055263ffffffff60408301600f81528160016060860195603287526040608082019a838c5260028152600760205220905181550198511682198954161788555116869063ffffffff60201b82549160201b169063ffffffff60201b1916179055565b51845460ff60401b1916911660401b60ff60401b16178355565b51815460ff60481b191690151560481b60ff60481b1617905560405161059181611650565b69152d02c7e14af680000081528361061060ff60208401936032855261055263ffffffff60408301601e81528160016060860195604b87526040608082019a838c5260038152600760205220905181550198511682198954161788555116869063ffffffff60201b82549160201b169063ffffffff60201b1916179055565b51815460ff60481b191690151560481b60ff60481b1617905560405161063581611650565b6969e10de76676d08000008152836106b460ff60208401936064855261055263ffffffff60408301603281528160016060860195605a87526040608082019a838c5260048152600760205220905181550198511682198954161788555116869063ffffffff60201b82549160201b169063ffffffff60201b1916179055565b51815460ff60481b191690151560481b60ff60481b161790556040516106d981611650565b69d3c21bcecceda100000081528361075860ff602084019360c8855261055263ffffffff60408301606481528160016060860195606487526040608082019a838c5260058152600760205220905181550198511682198954161788555116869063ffffffff60201b82549160201b169063ffffffff60201b1916179055565b51815460ff60481b191690151560481b60ff60481b16179055600a805461ffff1916610101179055610788575080f35b60ff60401b1981541690557fc7f505b2f371ae2175ee4913f4499e1f2633a7b5936321eed1cdaeb6115181d2602060405160018152a180f35b68ffffffffffffffffff19166801000000000000000117835538610315565b60405163f92ee8a960e01b8152600490fd5b905015386102f9565b303b1591506102f1565b8491506102e7565b50346101d15760203660031901126101d15760c0906040906001600160a01b036108356115dd565b1681526006602052205460ff63ffffffff91604051928082168452808260201c166020850152828260401c166040850152828260481c1660608501528160501c16608084015260701c16151560a0820152f35b50346101d15760203660031901126101d1576004358015158091036108c0576108af61168e565b60ff80196004541691161760045580f35b5080fd5b50346101d157806003193601126101d157546040516001600160a01b039091168152602090f35b50346101d15760203660031901126101d1576040906001600160a01b036109106115dd565b16815260066020522060405160c0810181811067ffffffffffffffff82111761099c5760809260a0916040525463ffffffff908181169384815260ff838360201c1692836020840152818160401c1694856040850152828260481c1660608501528160501c168884015260701c1615159384910152604051938452602084015260408301526060820152f35b634e487b7160e01b600052604160045260246000fd5b50346101d157806003193601126101d1576020600b54604051908152f35b50346101d15760a03660031901126101d1576109ea611609565b602435906044359163ffffffff90818416809403610b3c57606435828116809103610b3c576084359360ff8516809503610b3c5760ff90610a2961168e565b169485158015610b32575b610b205760648511610b0e578686610ae060ff7f3bfb90f89fa550b1dc6d17d6469fb4153a0ca839fa3254bcfadf8b75f11f618398610552898860609b6001604051610a7f81611650565b8d81526040602082019b8d8d5281830195865260608301988952608083019b848d528152600760205220905181550198511663ffffffff198954161788555116869063ffffffff60201b82549160201b169063ffffffff60201b1916179055565b51151560ff60481b82549160481b169060ff60481b191617905560405192835260208301526040820152a280f35b60405163c52a9bd360e01b8152600490fd5b60405163f7b78f0b60e01b8152600490fd5b5060058611610a34565b600080fd5b50346101d157806003193601126101d15760206040517fa02ae98d11f613731d338b52510eb1e74a53ba36371a60b9a66aa66f7e19e9708152f35b50346101d157806003193601126101d157602060ff600a5460081c166040519015158152f35b50346101d157806003193601126101d157602090604051908152f35b50346101d15760203660031901126101d1576020906040906001600160a01b03610be66115dd565b168152600983522054604051908152f35b50346101d15760403660031901126101d1576040610c136115f3565b916004358152600080516020612043833981519152602052209060018060a01b0316600052602052602060ff604060002054166040519015158152f35b50346101d15760603660031901126101d1577f0afbd250fee3e164527f8ba451d02ed0d99352fe5aa3eee233b3e7b462f28c946060600435604435602435610c9661168e565b82600155806002558160035560405192835260208301526040820152a180f35b50346101d157806003193601126101d157610ccf6116ea565b610cd7611757565b600080516020612063833981519152600160ff198254161790557f62e78cea01bee320cd4e420270b5ea74000d11b0c9f74754ebdbfc544b05a2586020604051338152a180f35b50346101d15760203660031901126101d1576004358015158091036108c057610d4561168e565b61ff00600a549160081b169061ff00191617600a5580f35b50346101d1576020806003193601126108c057610d786115dd565b90610d81611757565b7f9b779b17422d0df92223018b32b4d1fa46e071723d6817e2486d003becc55f009060028254146110a55760028255602460018060a01b0380851692838752600681526040872091878282825416604051968780926370a0823160e01b82528a60048301525afa9182156110985788958293611062575b509060ff91610e0684611baa565b8654968482169788151595869160701c16151514159182610ff1575b815460ff60401b1916604082901b60ff60401b16178255610e6790825497610e61828260ff60701b8b60701b169e8f8d60ff60701b1916178855611c80565b9e611e13565b602081901b63ffffffff60201b1663ffffffff9d8e166dffffffff0000ffffffff00000000199b909b166effffffffff0000ffffffffffffffff1998909816979097178a17969096174260501b63ffffffff60501b16179055610f07575b505050917fc765651e89a2506ff9dbbac22baaad1e1b92ad0dc1aad5017aa68bf5842f72a6939160019760609460405194855216908301526040820152a25580f35b8215610fea576001905b825416803b15610fe65760ff9160448a858094604051968795869463320711a560e01b865260048601521660248401525af18015610fdb57610fb9575b50509160019760609492877ff17a81827d8607a2dcaa87c2bd39627477b7145c6459be604d7ae90cb842351560407fc765651e89a2506ff9dbbac22baaad1e1b92ad0dc1aad5017aa68bf5842f72a6999781519081528787820152a292948a91995082949650610ec5565b610fc89096949295939661163c565b610fd757919390928838610f4e565b8880fd5b6040513d84823e3d90fd5b8280fd5b8190610f11565b919350919380959697985060001461103f57600b54600019811461102b5791610e678d949260018e9b9a9998979501600b555b9050610e22565b634e487b7160e01b8d52601160045260248dfd5b600b54801561102b5791610e678d94928d9a999897969460001901600b55611024565b95509150508184813d8311611091575b61107c818361166c565b81010312610b3c5792518693889060ff610df8565b503d611072565b50604051903d90823e3d90fd5b604051633ee5aeb560e01b8152600490fd5b50346101d157806003193601126101d157602060ff60008051602061206383398151915254166040519015158152f35b50346101d15760203660031901126101d157604060809160ff611108611609565b16815260076020522060405161111d81611650565b600182549283835201549063ffffffff808316908160208401528360201c16918260408201528560ff808660401c169586606085015260481c161515910152604051938452602084015260408301526060820152f35b50346101d157806003193601126101d15761118c6116ea565b600080516020612063833981519152805460ff8116156111d95760ff191690557f5db9ee0a495bf2e6ff9c91a7834c1ba4fdd244a5e8aa4e537bd38aeae4b073aa6020604051338152a180f35b604051638dfc202b60e01b8152600490fd5b50346101d157806003193601126101d157602060ff600a54166040519015158152f35b50346101d157806003193601126101d15760206040517fa6b5d83d32632203555cb9b2c2f68a8d94da48cadd9266ac0d17babedb52ea5b8152f35b50346101d157806003193601126101d15760a060015460025460035460ff60045416906005549260405194855260208501526040840152151560608301526080820152f35b50346101d15760403660031901126101d1576112a86115f3565b336001600160a01b038216036112c45761028790600435611b27565b60405163334bd91960e11b8152600490fd5b50346101d157806003193601126101d1576020600c54604051908152f35b50346101d157806003193601126101d1576040600b54600c5482519182526020820152f35b50346101d15760403660031901126101d1576102876004356113396115f3565b9080845260008051602061204383398151915260205261135f6001604086200154611724565b611ab2565b50346101d15760203660031901126101d1576001604060209260043581526000805160206120438339815191528452200154604051908152f35b50346101d15760203660031901126101d1576004358015158091036108c0576113c561168e565b60ff8019600a5416911617600a5580f35b50346101d15760403660031901126101d1576113f06115dd565b6024357f71840dc4906352362b0cdaf79870196c8e42acafade72d5d5a6d59291253ceb191828452602092600080516020612043833981519152845260408520338652845260ff60408620541615611531575061144b611757565b60ff600a5460081c161561151f577f0c795e49a26085481658ecbb990934062e1c5a9134d94cd373748d0e1d3491f39060018060a01b0316928392838652600882526040862061149c828254611619565b9055838652600982524260408720556006825260408620600883526114c46040882054611782565b60ff60481b82549160481b169060ff60481b1916179055604051908152a2303b156108c05760405190637561a15d60e01b82526004820152818160248183305af18015610fdb57611513575080f35b61151c9061163c565b80f35b60405163562fb04960e11b8152600490fd5b6044906040519063e2517d3f60e01b82523360048301526024820152fd5b50346101d15760203660031901126101d1576020906040906001600160a01b036115776115dd565b168152600883522054604051908152f35b9050346108c05760203660031901126108c05760043563ffffffff60e01b8116809103610fe65760209250637965db0b60e01b81149081156115cc575b5015158152f35b6301ffc9a760e01b149050386115c5565b600435906001600160a01b0382168203610b3c57565b602435906001600160a01b0382168203610b3c57565b6004359060ff82168203610b3c57565b9190820180921161162657565b634e487b7160e01b600052601160045260246000fd5b67ffffffffffffffff811161099c57604052565b60a0810190811067ffffffffffffffff82111761099c57604052565b90601f8019910116810190811067ffffffffffffffff82111761099c57604052565b3360009081527fa848f35d70819c39da2bab179714b68410b7d5ed2542ea77dba7a9b6304bbe3460205260409020547fa02ae98d11f613731d338b52510eb1e74a53ba36371a60b9a66aa66f7e19e9709060ff16156115315750565b3360009081527fb7db2dd08fcb62d0c9e08c51941cae53c267786a0b75803fb7960902fc8ef97d602052604081205460ff16156115315750565b8060005260008051602061204383398151915260205260406000203360005260205260ff60406000205416156115315750565b60ff600080516020612063833981519152541661177057565b60405163d93c066560e01b8152600490fd5b61271081101561181a57611388811015611814576109c481101561180e576103e8811015611808576101f48110156118025760fa8110156117fc5760648110156117f65760328110156117f05760198110156117ea57600a11156117e557600090565b600190565b50600290565b50600390565b50600490565b50600590565b50600690565b50600790565b50600890565b50600990565b50600a90565b6001600160a01b031660008181527fb7db2dd08fcb62d0c9e08c51941cae53c267786a0b75803fb7960902fc8ef97d60205260408120549091906000805160206120438339815191529060ff166118a9578280526020526040822081835260205260408220600160ff1982541617905533916000805160206120238339815191528180a4600190565b505090565b6001600160a01b031660008181527fa848f35d70819c39da2bab179714b68410b7d5ed2542ea77dba7a9b6304bbe3460205260408120549091907fa02ae98d11f613731d338b52510eb1e74a53ba36371a60b9a66aa66f7e19e970906000805160206120438339815191529060ff16611958578184526020526040832082845260205260408320600160ff19825416179055600080516020612023833981519152339380a4600190565b50505090565b6001600160a01b031660008181527fc5abc2d863e77a76627fe1702320d3afc3f93a9ad30aebcafab5d12854da5c0f60205260408120549091907fa6b5d83d32632203555cb9b2c2f68a8d94da48cadd9266ac0d17babedb52ea5b906000805160206120438339815191529060ff16611958578184526020526040832082845260205260408320600160ff19825416179055600080516020612023833981519152339380a4600190565b6001600160a01b031660008181527f25f7f44d2cbb35948a0ec4a3daca6d9fef225ba74483a7793ae48fcb0272bb0c60205260408120549091907f71840dc4906352362b0cdaf79870196c8e42acafade72d5d5a6d59291253ceb1906000805160206120438339815191529060ff16611958578184526020526040832082845260205260408320600160ff19825416179055600080516020612023833981519152339380a4600190565b9060009180835260008051602061204383398151915280602052604084209260018060a01b03169283855260205260ff60408520541615600014611958578184526020526040832082845260205260408320600160ff19825416179055600080516020612023833981519152339380a4600190565b9060009180835260008051602061204383398151915280602052604084209260018060a01b03169283855260205260ff60408520541660001461195857818452602052604083208284526020526040832060ff1981541690557ff6391f5c32d9c69d2a47ea670b442974b53935d1edc7fd64eb21e047a839171b339380a4600190565b60ff9160ff600a541615611c655760055b8381168015611c5b5760809060009081526020600781528660408093209281815193611be685611650565b600186549687875201549283918263ffffffff91828216818a01521c16818701521c16606084015260481c161515928391015281611c50575b50611c4a5783168015611c355760001901611bbb565b60246000634e487b7160e01b81526011600452fd5b92509050565b905083101538611c1f565b5050915050600090565b915050600090565b8181029291811591840414171561162657565b929160ff6004541615611e0b576001549160ff83921680151580611ded575b611dbe575b5060009460018060a01b031685526008602052604085205480611d48575b506005549081151580611d3f575b611d18575b5050600581029080820460051490151715611d045763ffffffff929350808211611cfe57501690565b90501690565b634e487b7160e01b84526011600452602484fd5b611d30611d37939492670de0b6b3a764000092611c6d565b0490611619565b903880611cd5565b50801515611cd0565b9092611d71612710611d69600354946064611d638787611c6d565b04611c6d565b049282611c6d565b8060011b9080820460021490151715611daa57906064611d9b939204808311611da2575b50611619565b9138611cc2565b915038611d95565b634e487b7160e01b87526011600452602487fd5b92611de6919360005260076020526064611d3063ffffffff6001604060002001541683611c6d565b9138611ca4565b5080600052600760205260ff60016040600020015460481c16611c9f565b506064925050565b929160ff600a5460081c1615611e0b5760ff6064911680151580611fc3575b611f64575b509060018060a01b03806000951685526008602052604085205480611f46575b506020600491865416604051928380926318160ddd60e01b82525afa908115611f3b578591611f05575b508015918215611ea6575b50505063ffffffff91925061012c808211611cfe57501690565b6103e8939284820291808304861490151715611daa57611ef15763ffffffff9495500491600a8311611edd575b8493829350611e8c565b611d30611eea9383611c6d565b8038611ed3565b634e487b7160e01b86526012600452602486fd5b90506020813d602011611f33575b81611f206020938361166c565b81010312611f2f575138611e81565b8480fd5b3d9150611f13565b6040513d87823e3d90fd5b611f5c84612710611d3060209460049698611c6d565b939150611e57565b6000908152600760205263ffffffff600160408320015460201c168281810204809103611faf578201809211611f9b575038611e37565b634e487b7160e01b81526011600452602490fd5b634e487b7160e01b82526011600452602482fd5b5080600052600760205260ff60016040600020015460481c16611e32565b60ff7ff0c57e16840df040f15088dc2f81fe391c3923bec73e23a9662efc9c229c6a005460401c161561201057565b604051631afcd79f60e31b8152600490fdfe2f8788117e7eff1d82e926ec794901d17c78024a50270940304540a733656f0d02dd7bc7dec4dceedda775e58dd541e08a116c6c53815c0bd028192f7b626800cd5ed15c6e187e77e9aee88184c21f4f2182ab5827cb3b7e07fbedcd63f03300a164736f6c6343000816000a",
  "linkReferences": {},
  "deployedLinkReferences": {}
}